:020000040800F2
:10000000D0070020DD0100084B0600084306000869
:100010004706000815050008870E000800000000CC
:100020000000000000000000000000002908000897
:100030001905000800000000D10600081509000895
:10004000F7010008F7010008F7010008F7010008B0
:10005000F7010008F7010008F7010008F7010008A0
:10006000F7010008F7010008F7010008F701000890
:10007000F7010008F7010008F7010008F701000880
:10008000F7010008F7010008F7010008F701000870
:10009000F7010008F7010008F7010008F701000860
:1000A000F7010008F7010008F7010008F701000850
:1000B00079090008F7010008F7010008F7010008B6
:1000C000F7010008F7010008F7010008F701000830
:1000D000F7010008F70100087D0C0008F70100088F
:1000E000F7010008F7010008F7010008F701000810
:1000F000F7010008F7010008F7010008F701000800
:10010000F7010008F7010008F7010008F7010008EF
:10011000F7010008F7010008F7010008F7010008DF
:10012000F7010008F7010008F7010008F7010008CF
:1001300000F002F800F042F80AA090E8000C8244B7
:100140008344AAF10107DA4501D100F037F8AFF294
:10015000090EBAE80F0013F0010F18BFFB1A43F0A5
:1001600001031847C4130000E4130000103A24BF31
:1001700078C878C1FAD8520724BF30C830C144BF0C
:1001800004680C607047000000230024002500264E
:10019000103A28BF78C1FBD8520728BF30C148BFEA
:1001A0000B607047642900F0A580732900F04D8131
:1001B000002070471FB51FBD10B510BD00F078F9C5
:1001C0001146FFF7F7FF01F0ADF800F096F903B420
:1001D000FFF7F2FF03BC00F058FE0000094880471B
:1001E00009480047FEE7FEE7FEE7FEE7FEE7FEE719
:1001F000FEE7FEE7FEE7FEE704480549054A064B31
:10020000704700001909000831010008D0010020E2
:10021000D0070020D0030020D0030020704700004A
:100220000FB4044910B503AA029800F013F910BCEA
:100230005DF814FB140000202DE9F0410E46044641
:10024000002020622046E168884730B3252805D089
:10025000D4E901219047206A401CF2E7E16820467A
:1002600000278847050018D0A5F14100192802D8B9
:1002700020354FF400673246294620462760FFF7B5
:1002800091FF40B1012804D0F61D26F0070608367C
:10029000D8E7361DD6E72846DAE7206ABDE8F081C0
:1002A00070B50C460546012A05D02878800600D591
:1002B000EA69002302E0012305E05B1C934202D2BD
:1002C000E05C0028F9D1A869E618C01AA861286A7C
:1002D000184428622846AFF3008004E0D5E90121E4
:1002E00014F8010B9047B442F8D32846AFF30080CE
:1002F00070BD00002DE9F041064600241068752904
:10030000314616A510D0AFF30080002802DA404233
:1003100013A507E031688A0701D512A502E0490755
:1003200004D511A5012401E0AFF3008000210A22C9
:1003300006F1240709E0B0FBF2FCB0FBF2F302FB8C
:100340001C00303078541846491C0028F3D123464D
:100350002A463046BDE8F04100F00CB8000000002D
:100360002D0000002B0000002000000070477047A7
:10037000704770472DE9F0470D469946924604466E
:1003800000F124080168880604D5E06921F0100115
:10039000216000E00120A84201DD471B00E00027AA
:1003A000A1697A1902EB0900081AA0612078C00639
:1003B00002D42046AFF30080002608E0D4E90121F2
:1003C0001AF806009047206A401C761C20624E45B1
:1003D000F4DB2078C0060AD52046AFF3008006E0A3
:1003E000D4E9012130209047206A401C2062381E49
:1003F000A7F10107F4DC07E0D4E9012118F80500B2
:100400009047206A401C2062281EA5F10105F3DCFC
:100410002046AFF300802078000602D50220BDE818
:10042000F0870120FBE710B5436913B1AFF30080FB
:1004300001E0FFF735FF012010BD127800F1240123
:100440000A7000224A700122EDE711684FF0FF3276
:10045000E9E70000074B70B50D467B4400F011F84A
:100460000446284600F020F810B14FF0FF3070BD70
:10047000204670BD870E000001694A1C02610878A1
:10048000704700B58FB0CDE90131002105910549D4
:100490007944CDE9031011466846FFF7CDFE0FB051
:1004A00000BD0000E5FFFFFF007B00F0800070470B
:1004B000754600F02BF8AE4605006946534620F01D
:1004C0000700854618B020B5FFF796FEBDE820402E
:1004D0004FF000064FF000074FF000084FF0000B00
:1004E00021F00701AC46ACE8C009ACE8C009ACE8B3
:1004F000C009ACE8C0098D46704710B50446AFF39B
:1005000000802046BDE81040FFF761BE00487047FC
:100510007001002000BFFEE770472DE9F041024660
:1005200000250026002000230024002791F803C0A6
:100530000CF00F0591F803C00CF0100CBCF1000F8B
:1005400003D091F802C04CEA050591F800C0BCF157
:10055000000F31D0146800202BE04FF0010C0CFA92
:1005600000F3B1F800C00CEA03069E4220D18300DC
:100570004FF00F0C0CFA03F7BC4305FA03FC4CEAEE
:10058000040491F803C0BCF1280F06D14FF0010C10
:100590000CFA00FCC2F814C00AE091F803C0BCF1E8
:1005A000480F05D14FF0010C0CFA00FCC2F810C046
:1005B000401C0828D1D31460B1F800C0BCF1FF0F73
:1005C00034DD546800202EE000F1080C4FF00108E3
:1005D00008FA0CF3B1F800C00CEA03069E4221D1E0
:1005E00083004FF00F0C0CFA03F7BC4305FA03FC31
:1005F0004CEA040491F803C0BCF1280F05D100F1C6
:10060000080C08FA0CF8C2F8148091F803C0BCF189
:10061000480F07D100F1080C4FF0010808FA0CF858
:10062000C2F81080401C0828CED35460BDE8F08189
:100630000246002093680B400BB1012000E000202F
:10064000704700BFFEE700BFFEE7704770B50021AE
:1006500000230F22C47804B3154C246804F4E0642A
:10066000C4F5E064210AC1F10403CA40447804FAE5
:1006700003F184781440214309010E4C0678A155FA
:10068000047804F01F050124AC4005786D11AD001D
:1006900005F1E025C5F8004109E0047804F01F05E4
:1006A0000124AC40044D0678761145F8264070BD13
:1006B0000CED00E000E400E080E100E002490143CD
:1006C000024A1160704700000000FA050CED00E0DE
:1006D0007047000029B1064AD2690243044BDA612F
:1006E00004E0034AD2698243014BDA61704700009B
:1006F0000010024029B1064A12690243044B1A61F4
:1007000004E0034A12698243014B1A6170470000FA
:100710000010024029B1064A92690243044B9A61D3
:1007200004E0034A92698243014B9A6170470000DA
:100730000010024029B1064AD2680243044BDA6035
:1007400004E0034AD2688243014BDA60704700003C
:100750000010024030B500210022002400232D4D5E
:100760006D6805F00C0121B1042905D0082923D1B9
:1007700005E0294D056022E0274D05601FE0254D6D
:100780006D6805F47012234D6D6805F48034022500
:1007900005EB92421CB9214D554305600BE01D4D00
:1007A0006D6805F400351DB11C4D5543056002E030
:1007B000194D5543056002E0174D056000BF00BFAD
:1007C000144D6D6805F0F0010909154D6B5C056865
:1007D000DD4045600F4D6D6805F4E061090A104D7C
:1007E0006B5C4568DD4085600A4D6D6805F46051BD
:1007F000C90A0B4D6B5C4568DD40C560054D6D68F1
:1008000005F44041890B074D6B5CC568B5FBF3F5FA
:10081000056130BD0010024000127A0000093D0061
:100820000000002010000020704710B500F002F812
:1008300010BD00000CB50020019000903348006806
:1008400040F480303149086000BF3048006800F44F
:10085000003000900198401C0190009818B9019850
:10086000B0F5A06FF1D12948006800F4003010B154
:100870000120009001E0002000900098012843D161
:100880002348006840F010002149086008460068CD
:1008900020F0030008600846006840F0020008608D
:1008A0001A48406819494860084640684860084648
:1008B000406840F4806048600846406820F47C103E
:1008C00048600846406840F4E81048600846006800
:1008D00040F08070086000BF0C48006800F00070B5
:1008E0000028F9D00948406820F003000749486013
:1008F0000846406840F00200486000BF0348406876
:1009000000F00C000828F9D10CBD000000100240D6
:10091000002002407047000010B51348006840F006
:1009200001001149086008464068104908400E4916
:100930004860084600680E4908400B4908600846B0
:10094000006820F4802008600846406820F4FE001B
:1009500048604FF41F008860FFF767FF4FF00060AA
:100960000449086010BD0000001002400000FFF8BC
:10097000FFFFF6FE08ED00E010B50121880700F04A
:1009800011F9012805D1034908700121800700F001
:1009900006F810BD1A000020CA4302827047CA43FD
:1009A0000282704721B1028842F00102028004E015
:1009B00002884FF6FE731A400280704710B5044655
:1009C0006848844208D10121C014FFF7B3FE00211A
:1009D000E014FFF7AFFEC4E0B4F1804F08D101216D
:1009E0000846FFF787FE00210120FFF783FEB8E0ED
:1009F0005D48844208D101210220FFF77BFE0021DF
:100A00000220FFF777FEACE05848844208D101216C
:100A10000420FFF76FFE00210420FFF76BFEA0E02B
:100A20005348844208D101210820FFF763FE0021CA
:100A30000820FFF75FFE94E04E48844208D1012170
:100A40001020FFF757FE00211020FFF753FE88E02B
:100A50004948844208D101212020FFF74BFE0021A4
:100A60002020FFF747FE7CE04448844208D1012162
:100A70004014FFF75FFE00216014FFF75BFE70E09B
:100A80003F48844209D10121C804FFF753FE0021E9
:100A90004FF40020FFF74EFE63E03A48844209D14C
:100AA00001210805FFF746FE00214FF48010FFF7F3
:100AB00041FE56E03448844209D101214805FFF740
:100AC00039FE00214FF40010FFF734FE49E02F48B3
:100AD000844208D101214020FFF70CFE0021402074
:100AE000FFF708FE3DE02A48844208D1012180201A
:100AF000FFF700FE00218020FFF7FCFD31E02548D4
:100B0000844208D101218015FFF7F4FD0021A015D2
:100B1000FFF7F0FD25E02048844209D101210804B7
:100B2000FFF708FE00214FF48030FFF703FE18E0C6
:100B30001A48844209D101214804FFF7FBFD002136
:100B40004FF40030FFF7F6FD0BE01548844208D162
:100B500001218804FFF7EEFD00214FF48020FFF70C
:100B6000E9FD10BD002C01400004004000080040D9
:100B7000000C004000100040001400400034014010
:100B8000004C01400050014000540140001800405A
:100B9000001C004000200040004001400044014093
:100BA0000048014030B50246002000230024158A89
:100BB00005EA0103958905EA010413B10CB101208E
:100BC00000E0002030BD1AB183890B43838102E02D
:100BD00083898B4383817047002202881D4B984292
:100BE0000ED01D4B98420BD0B0F1804F08D01B4B5C
:100BF000984205D01A4B984202D01A4B984204D121
:100C00004FF68F731A404B881A43174B984207D000
:100C1000164B984204D04FF6FF431A40CB881A4334
:100C200002808B8883850B8803850A4B98420BD002
:100C3000094B984208D00E4B984205D00D4B984274
:100C400002D00D4B984201D10B7A03860123838297
:100C500070470000002C01400034014000040040B7
:100C600000080040000C004000100040001400404C
:100C700000400140004401400048014010B540F2EE
:100C80002551164800F03EF838B3144800F0F6F845
:100C9000C4B21348007800BB0A2C02D00D2C0BD133
:100CA0001AE001200E49087000200E490E4A127801
:100CB00088540D4908700FE00B4801780078401CFB
:100CC000094A10700748445410460078FF2802D1A2
:100CD00000201146087000BF00BF10BD0044004056
:100CE00018000020700000201900002021B1828926
:100CF00042F40052828104E082894DF6FF731A406B
:100D00008281704770B50246002400230025002030
:100D100040F66A16B14200D100BFC1F3421501F09E
:100D20001F03012606FA03F3012D02D196893340F1
:100D300006E0022D02D1168A334001E0968A334044
:100D40000C12012606FA04F41688344013B10CB1D3
:100D5000012000E0002070BDF0B50346002400260D
:100D60000025002040F66A17B94200D100BF18469E
:100D7000C1F3421401F01F06012707FA06F5012C02
:100D800001D10C3004E0022C01D1103000E014300D
:100D90001AB107682F43076002E00768AF43076096
:100DA000F0BD00002DE9F04786B005460E46002450
:100DB000A24600BFA1460027B08900B100BF2F4660
:100DC0002C8A4CF6FF700440F08804432C82AC89D6
:100DD0004EF6F3100440B088318908437189084306
:100DE0000443AC81AC8A4FF6FF400440B089044311
:100DF000AC8201A8FFF7AEFC1F48874202D1DDF8A4
:100E000010A001E0DDF80CA0A88900F4004040B17A
:100E10000AEBCA0000EB0A1031684900B0FBF1F898
:100E200007E00AEBCA0000EB0A1031688900B0FB4A
:100E3000F1F86420B8FBF0F004012009642101FB03
:100E40001089A88900F4004040B1322000EBC900AD
:100E5000B0FBF1F000F00700044308E0322000EBA3
:100E600009106421B0FBF1F000F00F0004432C8165
:100E700006B0BDE8F08700000038014001468888D0
:100E8000C0F30800704700BFFEE700BF704710B511
:100E900000F036FA00F0F6FA10BD000010B501219E
:100EA0000148FFF7C5FB10BD0008014010B504461E
:100EB00000BF03A104A0FFF7B3F900BF10BD0000FD
:100EC0006D61696E000000005B442F25735D636FE8
:100ED0006E74696E756F732070726573730D0A009E
:100EE00010B5044600BF03A104A0FFF799F900BFA5
:100EF00010BD00006D61696E000000005B442F258D
:100F0000735D646F75626C652070726573730D0A32
:100F10000000000010B5044600BF03A104A0FFF7C5
:100F20007FF900BF10BD00006D61696E0000000018
:100F30005B442F25735D636C69636B0D0A000000D1
:100F400010B5044600BF03A104A0FFF769F900BF74
:100F500010BD00006D61696E000000005B442F252C
:100F6000735D6C6F6E672070726573730D0A00009D
:100F700010B5044600BF03A104A0FFF751F900BF5C
:100F800010BD00006D61696E000000005B442F25FC
:100F9000735D72656C65617365206166746572204E
:100FA000636F6E74696E756F732070726573730D05
:100FB0000A0000002DE9F04104460E46174600BF26
:100FC00034B923220CA111A0FFF72AF900BFFEE7D4
:100FD00000BF072E0AD1002505E004F1280040F8E3
:100FE0002570681CC5B2072DF7DB03E004F128006B
:100FF00040F82670BDE8F0814C69625C62757474DB
:101000006F6E5C627574746F6E2E63005B45525236
:101010005D2025732C2025640D0A00002DE9F04188
:1010200005460C4616461F4600BF34B90E2218A1CD
:101030001CA0FFF7F5F800BFFEE700BF20222946FD
:10104000201D00F0AFF914F8240F20F00F00093034
:101050002070207820F0F000903020700920A070DF
:1010600044F8246C607867F30100607054F8240C35
:101070008047617860F383016170002084F8260066
:101080000C480068A062243C0A480460BDE8F08176
:101090004C69625C627574746F6E5C627574746FB7
:1010A0006E2E63005B4552525D2025732C20256413
:1010B0000D0A00001C00002010B50548046803E07C
:1010C000204600F007F8E46C002CF9D110BD0000B8
:1010D0001C00002070B5044620688047054694F83F
:1010E0002500C0F38100A84235D094F84A00401C86
:1010F000C0B284F84A0002282DDB2434607865F3FE
:1011000083006070002084F8260014F8240900F0A1
:101110000F00092805D094F8240000F00F000228E1
:1011200006D194F8240020F00F0084F8240012E087
:1011300094F8240000F00F0068B994F8240020F01F
:101140000F00401C84F82400E06A10B12046E16AD8
:10115000884700BF00BF94F8240000F00F0020B1C2
:10116000012822D0022870D189E094F82500C0F32C
:10117000810094F8251001F00301884214D194F8FD
:101180004800401CC0B284F8480001280CDB002055
:1011900084F84800052084F82600E06B10B1204652
:1011A000E16B884700BF00BF9AE094F8260090BB2F
:1011B00094F849000F281CDC94F824000221B1EBBC
:1011C000101F16D1022084F82600206B10B1204693
:1011D000216B884700BF00BF14F8240F20F00F00D8
:1011E00009302070207820F0F000903004F82409B5
:1011F00044E00020243484F8250084F82700207877
:1012000020F00F00801C2070207820F0F0002030AB
:1012100004F8240932E0FFE794F82600032815D1EA
:10122000A06B10B12046A16B88470020243484F8BD
:101230002700207820F00F0009302070207820F05F
:10124000F000303004F8240918E048E094F8260053
:10125000052813D1002084F84B00206C10B12046E3
:10126000216C884714F8240F20F00F0009302070FB
:10127000207820F0F000503004F8240930E014F811
:10128000490F401C207014F849090F280BDB14F893
:10129000240F20F00F0009302070207820F0F0009B
:1012A000903004F8240994F849000F2816DB94F8CC
:1012B0002400000990B1002084F84900A06A10B110
:1012C0002046A16A884714F8240F20F00F00093047
:1012D0002070207820F0F00004F8240900E000BF1E
:1012E00000BF70BD00BF054A128802F04002002A0C
:1012F000F9D0C2B2014B1B1D1A8070470044004058
:1013000008B501210420FFF705FA0120ADF800001F
:1013100028208DF8030069460148FFF7FEF808BD54
:1013200000080140FFF7B3FDC8224FF4E15102204D
:1013300000F064F80123134A134914A0FFF76EFE6E
:10134000134A00211048FFF735FE124A02210E48C9
:10135000FFF730FE104A05210B48FFF72BFE0F4A1E
:1013600006210948FFF726FE0D4A03210648FFF72C
:1013700021FE05E0022000F02FF808B1FFF79CFEE7
:10138000F8E700009D0E00082000002062746E0047
:10139000150F0008E10E0008AD0E0008710F0008DF
:1013A000410F000870B50346A2B118460C4600BFB5
:1013B00014F8016B00F8016B3EB902E0002500F85B
:1013C000015B551E2A1EF9D102E0551E2A1EEFD1DF
:1013D00000BF00BF184670BD0146022908D106486B
:1013E000007820B10020044A10700120704700E00E
:1013F00000BF00BF0020F9E71A000020FEB5044638
:101400000E461546022C3AD14FF4E060FFF756F92C
:101410001C208DF8080001208DF80B0000208DF8AD
:10142000090001208DF80A0002A8FFF70FF9012139
:101430000846FFF74FF9701E80B2ADF80000681E35
:1014400080B2ADF804000020ADF80200ADF806004F
:101450008DF808006007FFF7B1FA69466007FFF7EB
:10146000BBFB01218807FFF797FA0122114690077D
:10147000FFF7A9FB01218807FFF794FA00E000BFFE
:1014800000BFFEBD00B587B001210420FFF742F97F
:1014900001214804FFF71EF90420ADF818000320CD
:1014A0008DF81A0018208DF81B0006A91C48FFF7BC
:1014B00034F80820ADF8180004208DF81B0006A9A8
:1014C0001748FFF72AF84FF4E13002900020ADF8FA
:1014D0000C00ADF80E00ADF81000ADF814000C20B3
:1014E000ADF8120026208DF8040003208DF80500C9
:1014F0008DF8060001208DF8070001A8FFF7A6F877
:1015000002A90848FFF74EFC012240F22551054888
:10151000FFF722FC01210348FFF7E8FB07B000BDFD
:101520000008014000440040481500080000002069
:10153000200000006C010008681500082000002051
:10154000B007000088010008000000000102030449
:10155000010203040607080902040608000000004F
:08156000000000000000000083
:0400000508000131BD
:00000001FF
