:020000040800F2
:1000000030220020F5010008091C0008611A0008D0
:10001000051C0008F1090008552000080000000038
:100020000000000000000000000000005D1D00084E
:10003000F509000800000000391C0008911D0008A7
:100040000F0200080F0200080F0200080F0200084C
:100050000F0200080F0200080F0200080F0200083C
:100060000F0200080F0200080F0200080F0200082C
:100070000F0200080F0200080F0200080F0200081C
:100080000F0200080F0200080F0200080F0200080C
:100090000F0200080F0200080F0200080F020008FC
:1000A0000F0200080F0200080F0200080F020008EC
:1000B0000F0200080F0200080F0200080F020008DC
:1000C0000F0200080F0200080F0200080F020008CC
:1000D0000F020008452000080F0200080F02000868
:1000E0000F0200080F0200080F0200080F020008AC
:1000F0000F0200080F0200080F0200080F0200089C
:100100000F0200080F0200080F0200080F0200088B
:100110000F0200080F0200080F0200080F0200087B
:100120000F0200080F0200080F0200080F0200086B
:1001300000F002F800F04EF80AA090E8000C8244AB
:100140008344AAF10107DA4501D100F043F8AFF288
:10015000090EBAE80F0013F0010F18BFFB1A43F0A5
:10016000010318477073000090730000103A24BF19
:1001700078C878C1FAD8520724BF30C830C144BF0C
:1001800004680C607047000000230024002500264E
:10019000103A28BF78C1FBD8520728BF30C148BFEA
:1001A0000B607047692900F0C380782900F0FC805B
:1001B000732900F04E82002070471FB59DE80300B0
:1001C00000F020FB00F0AAF91FBD10B5002000F0E0
:1001D000B1FA10BD00F0D4FA1146FFF7EEFF04F0BB
:1001E000A7FB00F06CFB03B4FFF7EFFF03BC04F0C8
:1001F000BDFA00000948804709480047FEE7FEE7CE
:10020000FEE7FEE7FEE7FEE7FEE7FEE7FEE7FEE7C6
:1002100004480549054A064B70470000F11D0008D7
:10022000310100083002002030220020301200206E
:10023000301200200FB4044910B503AA029800F050
:100240000DFA10BC5DF814FB480100200FB41CB57A
:10025000074B06AA7B4469460090059800F0CFF949
:100260000020694600F0DEF91CBC5DF814FB0000BC
:10027000CD0300002DE9F0410E4604460020206227
:100280002046E168884730B3252805D0D4E901210C
:100290009047206A401CF2E7E16820460027884723
:1002A000050018D0A5F14100192802D820354FF4D7
:1002B00000673246294620462760FFF773FF40B1AA
:1002C000012804D0F61D26F007060836D8E7361DAB
:1002D000D6E72846DAE7206ABDE8F08170B50C461B
:1002E0000546012A05D02878800600D5EA69002352
:1002F00002E0012305E05B1C934202D2E05C00288F
:10030000F9D1A869E618C01AA861286A18442862B9
:100310002846AFF3008004E0D5E9012114F8010B71
:100320009047B442F8D32846AFF3008070BD000078
:100330002DE9F0410646002410687529314616A5BE
:1003400010D0AFF30080002802DA404213A507E086
:1003500031688A0701D512A502E0490704D511A525
:10036000012401E0AFF3008000210A2206F12407F6
:1003700009E0B0FBF2FCB0FBF2F302FB1C003030F2
:1003800078541846491C0028F3D123462A463046A3
:10039000BDE8F04100F0D4B8000000002D000000DE
:1003A0002B0000002000000070B504460D462146D9
:1003B0001068AFF300802188090502D50F4A7A44FE
:1003C00002E00E4A7A440E32002104F1240305E0D3
:1003D00000F00F060009965D5E54491C0028F7D115
:1003E00020780023000704D5702D02D009B1022324
:1003F00011322046BDE8704000F0A2B8E44D000084
:1004000010B5044603E004F079FA401C09D014F852
:10041000010B05490028F6D1BDE810400A2004F080
:100420006DBA4FF0FF3010BD480100200B46014669
:10043000184600F025B910B5431C02E010F8011B66
:1004400071B18107FAD14FF0013202C88C1A8C4386
:1004500014EAC211F9D0C01A0A0603D0C01E10BD9A
:10046000C01A10BD0A0401D0801E10BD0902FCD0C4
:10047000401E10BD02F0FF0343EA032242EA02429B
:1004800000F002B84FF000020429C0F0128010F012
:10049000030C00F01B80CCF1040CBCF1020F18BF60
:1004A00000F8012BA8BF20F8022BA1EB0C0100F0F3
:1004B0000DB85FEAC17C24BF00F8012B00F8012BC6
:1004C00048BF00F8012B70474FF0000200B51346FB
:1004D00094469646203922BFA0E80C50A0E80C5064
:1004E000B1F12001BFF4F7AF090728BFA0E80C5015
:1004F00048BF0CC05DF804EB890028BF40F8042B0E
:1005000008BF704748BF20F8022B11F0804F18BF7A
:1005100000F8012B704770477047704770B5064C64
:100520007C44064D7D4404E0204601680844804731
:10053000241DAC42F8D170BDD06F0000D06F000018
:100540002DE9F0470D4699469246044600F12408ED
:100550000168880604D5E06921F01001216000E0FF
:100560000120A84201DD471B00E00027A1697A199C
:1005700002EB0900081AA0612078C00602D42046C8
:10058000AFF30080002608E0D4E901211AF8060044
:100590009047206A401C761C20624E45F4DB207890
:1005A000C0060AD52046AFF3008006E0D4E9012159
:1005B00030209047206A401C2062381EA7F10107B6
:1005C000F4DC07E0D4E9012118F805009047206A1F
:1005D000401C2062281EA5F10105F3DC2046AFF384
:1005E00000802078000602D50220BDE8F0870120B7
:1005F000FBE7000001694A1C02610878704700B5FA
:100600008FB0CDE901310021059105497944CDE94B
:10061000031011466846FFF72DFE0FB000BD000025
:10062000E5FFFFFF0A6802F8010B0A60704710B58A
:10063000436913B1AFF3008001E0FFF74FFE0120E3
:1006400010BD127800F124010A7000224A700122C4
:10065000EDE711684FF0FF32E9E70000074B70B596
:100660000D467B44FFF7CBFF0446284600F053F8C5
:1006700010B14FF0FF3070BD204670BD97420000B2
:100680002DE9F041074615460E46102000F014F8FB
:1006900004000AD06760C4E9026500F009F8016847
:1006A000216004600020BDE8F0810120FBE700002C
:1006B000004870474800002070B5064600F086F8F4
:1006C000056806F10B0020F00704B4429CBF00202F
:1006D00070BD2B466A68BAB11068A04210D304F10D
:1006E000080188423CBF5068586007D35168101910
:1006F00041601168091B016058601460101D70BDD5
:1007000013465268002AE7D12146284600F066F8D1
:100710000028DED170BD007B00F08000704710B56E
:10072000002000F0D5F8FFF750FDBDE81040012093
:1007300004F01CB82DE9F0410646FFF7B9FF8046EA
:10074000454613E016B1E068B0420ED1206828603B
:10075000D4E90101D8F800708847204600F088F8F5
:10076000D8F80000B842EBD100E025462C68002CF8
:10077000E8D1BDE8F081000000487047100000207B
:100780007546FFF7F9FFAE4605006946534620F06F
:100790000700854618B020B5FFF73AFDBDE82040B8
:1007A0004FF000064FF000074FF000084FF0000B2D
:1007B000AC46ACE8C009ACE8C009ACE8C009ACE89C
:1007C000C00921F007018D467047000000487047BE
:1007D00018000020704770477047704738B50446CE
:1007E0000A4600206946AFF30080002808BF38BDE4
:1007F00002460099204600F072F8012038BD012021
:1008000000F0A4B8F8B5AFF30080054600200C4610
:10081000102000BF0646A819A0420DD932466946ED
:100820000020AFF30080070008BF00F08FF80098A9
:10083000A04218BF0546C419FFF7C8FF0560074668
:10084000F01D20F007004619284600F00AF8B442CF
:1008500008BFF8BDA21B31463868BDE8F84000F07B
:100860003EB800210160C0E90110704710207047B8
:1008700070B50446051FFFF7A9FF0068002C14BFE0
:10088000446870BD002C18BFAC423CBF2046646871
:10089000F8D301680A18AA4218BF456003D12A6834
:1008A00005461144016028684119A1421CBF6C60D3
:1008B00070BD6168696021680844286070BD10B52A
:1008C0000446AFF300802046BDE81040FFF78BBC24
:1008D00010B500F023F8BDE8104000F01AB8034648
:1008E00040688C46002818BF88423CBF03464068D9
:1008F000F8D318681844884207D00CF1030020F0A0
:100900000700001D411A521A0146081D0A60FFF730
:10091000AFBF002801D003F029BF704710B50021F8
:1009200002A000F01BF8012010BD00005349474110
:100930004252543A2041626E6F726D616C20746550
:10094000726D696E6174696F6E00000010B500F021
:100950001FF8BDE81040FFF7DCBF704770B50546D3
:100960000C460A2000E06D1C00F03AF835B12878FA
:100970000028F8D102E0641C00F032F814B12078AD
:100980000028F8D1BDE870400A2000F029B8000026
:1009900010B5012805D0002103A0FFF7DFFF0120DB
:1009A00010BD09A1F8E7000053494752544D454D89
:1009B0003A204F7574206F662068656170206D6500
:1009C0006D6F7279000000003A2048656170206DFB
:1009D000656D6F727920636F7272757074656400F3
:1009E00008B569468DF800000320ABBE08BD0000C5
:1009F000FEE700007047000070470000014690F8D5
:100A00002100022813D10868D1E90FC3026822F03F
:100A10000E020260026822F001020260012000FA68
:100A200003F2CCF8042081F82100002002E0042029
:100A300088630120002281F82020704780B590F85B
:100A40002110022927D1026840F2040C1368C4F275
:100A5000020C23F00E03136013680CF17C018A4230
:100A600023F0010111601AD940F20841C4F20201D9
:100A70008A4247D040F21C41C4F202018A4245D06A
:100A800040F23041C4F202018A4243D14FF48073F4
:100A9000CCF8003457E004218163012080BD43215C
:100AA000C4F202018A420EDD6B21C4F202018A42C5
:100AB0001BDC4421C4F202018A4239D05821C4F21D
:100AC00002018A4231E00821C4F202018A4232D096
:100AD0001C21C4F202018A4232D03021C4F2020148
:100AE0008A4222D14FF480722BE06C21C4F20201C1
:100AF0008A4222D08021C4F202018A4215D14FF0ED
:100B000080721EE00123CCF800341CE01023CCF8E6
:100B1000003418E00CF588614FF480338A4208BF36
:100B20004FF48053CCF800340DE04FF4803208E0ED
:100B30004FF4805205E0012203E04FF4801200E000
:100B40001022CCF80020416B4FF48072028401B176
:100B50008847002080BD0000B0B5044600F00AF9C7
:100B6000054640F20400C2F200000078611C18BF84
:100B7000044400BF00F0FEF8401BA042FAD3B0BD11
:100B80002DE9F04F83B00C68002C00F0EA80A0F152
:100B90008042A2F5843240F2004E4FEAB22241F682
:100BA0000047C4F2010E0092C4F20107062200259C
:100BB0004FF001094FF0000B4FF0000AB84208BF98
:100BC0000522019209E000BF0C680BF1010B34FA19
:100BD0000BF205F1040500F0C48009FA0BF814EAE1
:100BE000080CF1D04C684FF6FF72C1F2100294422B
:100BF00010DC122C50D8DFE804F0330A41454F4F87
:100C00004F4F4F4F4F4F4F4F4F4F4F484C00D1F822
:100C10000CA041E04FF6FF72C1F2210294420FDCBA
:100C20000022C1F2110294421AD00022C1F2120233
:100C3000944215D00022C1F22102944210D02BE040
:100C40000022C1F2220294420AD00022C1F23102F3
:100C5000944205D00022C1F2320294421CD100BF5E
:100C60008C6844B1012C14BFC0F81480C0F8108007
:100C70004FF0080A10E04FF0040A0DE0CC6804F1D0
:100C8000080A09E04FF0000A06E0CC6804F1040A03
:100C900002E0CC6804F10C0A2C460746BCF5807FC4
:100CA00024BF203C04373A680F2303FA04F6B2430A
:100CB0000AFA04F422433A60CA79D2067FF584AF77
:100CC00041F21804C4F2020422684FF6084842F0C8
:100CD000010222602268CFF6FF7802F00102029240
:100CE000029A2BF00302724452F8084005F00C06F9
:100CF00003FA06F7009BBC43019F052B38BF1F4634
:100D000007FA06F6344342F808404C68E203DEF87E
:100D1000002054BF22EA0C0742EA0C07A203CEF8D7
:100D20000070DEF8042054BF22EA0C0742EA0C07E8
:100D3000E202CEF80470DEF8082054BF22EA0C0765
:100D400042EA0C07A20240F20C44CEF80870C4F24A
:100D50000104226854BF22EA0C0242EA0C0222601B
:100D600032E703B0BDE8F08F002A08BF0904016133
:100D70007047000040F22C20C2F20000006870476B
:100D800040F2040040F22C21C2F20000C2F2000145
:100D900000780A68104408607047000080B542F28D
:100DA0000000C4F20200016841F01001016003205C
:100DB00000F066F8002000F005F800F02BF80020A5
:100DC00080BD0000B0B540F20402C2F2000240F261
:100DD00000011278C2F200014FF47A730968B3FB84
:100DE000F2F20446B1FBF2F1084600F031FC0F2CA0
:100DF0004FF001050CD858B94FF0FF3021460022C2
:100E0000002500F02DF840F20800C2F20000046056
:100E10002846B0BD82B041F21800C4F20200016859
:100E2000022241F001010160016801F0010101911C
:100E30000199416841F080514160406800F0805064
:100E4000009000980420C4F20100016862F31A6166
:100E5000016002B07047000080B503F01DFC80BD4A
:100E600070B514460D46064603F026FC2946224678
:100E700000F0CCFE0146304603F026FC70BD0000B9
:100E800080B503F033FC80BD2DE9F04381B000282C
:100E900000F0898042F20008C4F202080446D8F843
:100EA00000000D4600F0070088420CD2D8F8000080
:100EB00020F007002843C8F80000D8F8000000F030
:100EC0000700A8426FD1206841F204098107C4F2EB
:100ED000020917D5410705D5D9F8001041F4E061A2
:100EE000C9F80010010705D5D9F8001041F4605188
:100EF000C9F80010D9F80010A26821F0F0011143E0
:100F0000C9F80010C00745D1D8F8000000F007006C
:100F1000A8420CD9D8F8000020F007002843C8F8F0
:100F20000000D8F8000000F00700A8423BD120687C
:100F3000410707D5D9F80010E26821F4E0611143B8
:100F4000C9F80010000708D5D9F80000216920F47D
:100F5000605040EAC100C9F8000000F079F8D9F803
:100F6000001045F2CE12C1F30311C0F60002515C2D
:100F700040F2000220FA01F140F20800C2F2000043
:100F80000068C2F200021160FFF71CFF002001B0F0
:100F9000BDE8F0836068022809D0012829D159F8FA
:100FA000041C890307D4012001B0BDE8F08359F87F
:100FB000041C8901F7D5D9F8001021F0030108437A
:100FC000C9F80000FFF7D6FE064641F2883700BF99
:100FD000D9F80000616800F00C00B0EB810F93D0ED
:100FE000FFF7C8FE801BB842F2D9032001B0BDE86C
:100FF000F08359F8041C8907D5D5DCE740F20000DE
:10100000C2F200000068704780B5FFF7F7FF41F2B9
:101010000401C4F20201096845F2DE12C1F30221A3
:10102000C0F60002515CC84080BD000080B5FFF7EB
:10103000E5FF41F20401C4F20201096845F2DE1243
:10104000C1F3C221C0F60002515CC84080BD00005F
:1010500041F2040CC4F2020CDCF8003003F00C0086
:10106000082841F20020C0F27A0018BF7047C3F38D
:1010700083420AA18A5CD90305D440F60010C0F26D
:101080003D0050437047DCF8001008A3C1F3404115
:10109000595C5043B0FBF1F0704700BF02030405F8
:1010A000060708090A0B0C0D0E0F101001020000B4
:1010B0002DE9F04182B0002800F0C4800446007899
:1010C00041F20006C007C4F2020643D0706800F087
:1010D0000C00042817D0706800F00C00082802D11A
:1010E0007068C0030FD465682DB1B5F5A02F10D07E
:1010F000B5F5803F11D0306820F480303060306822
:1011000020F480200CE03068800323D5606808BBA1
:1011100098E0306840F480203060306840F48030DF
:101120003060FFF727FE002D054610D030688003A1
:1011300010D4FFF71FFE401B6428F7D904E100BF5D
:10114000FFF718FE401B64284FF0030077D8306883
:101150008003F5D42078800718D5706810F00C0F44
:1011600007D0706800F00C00082826D17068C00312
:1011700023D43068800702D52069012862D1306805
:10118000616920F0F80040EAC10030602078000773
:101190003DD5A06938B30020C4F242200121C0F837
:1011A0008014FFF7E7FD0546706A80072DD4FFF72E
:1011B000E1FD401B0228F7D9C6E02069002840F273
:1011C0000000C4F2422000F0968001210160FFF788
:1011D000D1FD054630688007D1D4FFF7CBFD401B19
:1011E0000228F7D9B0E00020C4F242200021C0F864
:1011F0008014FFF7BFFD0546706A800707D5FFF72B
:10120000B9FD401B0228F7D99EE000F017FD2078B9
:1012100040071BD4E5698DB1706800F00C00082808
:1012200047D1012D0ED07068216A00F480328A42C5
:1012300008D1616A00F47010884203D1002002B026
:10124000BDE8F081012002B0BDE8F081F06910F046
:10125000805808D1F06940F08050F061F06900F0EA
:1012600080500190019847F20007C4F200073868E7
:10127000C00510D4386840F480703860FFF77AFDFC
:10128000054600BF3868C00505D4FFF773FD401B55
:101290006428F7D958E0E5681DB1052D3CD0012D33
:1012A0003ED0306A20F001003062306A20F0040045
:1012B00039E00027C4F2422700203866FFF75AFDC4
:1012C000022D05460CD100BF3068800154D5FFF7D0
:1012D00051FD401B02284FF00300F5D9AFE700BFD6
:1012E00030688001AAD5FFF745FD401B02284FF06A
:1012F0000300F5D9A3E700210160FFF73BFD054698
:10130000306880077FF542AFFFF734FD401B0228AD
:101310004FF00300F4D992E7306A40F004003062E5
:10132000306A40F001003062FFF724FD002D0546D1
:1013300041F2883714D000BF306A800713D4FFF71A
:1013400019FD401BB842F7D9032002B0BDE8F08177
:10135000FFF710FD401BB8424FF003003FF66FAFA0
:10136000306A8007F4D4B8F1000F7FF453AFF0690E
:1013700020F08050F0614DE7206AB0F5803F05D144
:101380007168A26821F40031114371607168626A6A
:1013900021F4741110430843706001203866FFF790
:1013A000E9FC0446306880013FF548AFFFF7E2FCF6
:1013B000001B02284FF00300F4D940E770B538B1A4
:1013C0000446406A30B10020206104F1140007E0B7
:1013D000012070BD6068B0F5827F03D004F11C006D
:1013E000002101600026A66294F8510020B9204631
:1013F00084F8506000F038F8022084F8510094E836
:10140000071001F48271036802F4044223F04003E0
:101410000360236911440CF40062114403F00202DA
:101420006369114403F00102A369E569114403F4FF
:101430000072114405F03802256A114405F080025B
:10144000A56A114305F4005211430160042101EA29
:1014500013414160C16921F40061C16101206665E9
:1014600084F85100304670BD80B586B0014640F624
:101470000000C4F20100096800F5205291424FF0CB
:101480000001CDE90411CDE9021101D006B080BD03
:1014900041F21801C4F202010A6842F480520A6063
:1014A0000A6802F480520192019A0A6842F004022A
:1014B0000A60096801F0040101910199A0210291DB
:1014C000022103910321059102A9FFF759FB06B000
:1014D00080BD00002DE9F04381B0044690F8500033
:1014E000012803D1022001B0BDE8F0834FF00109CB
:1014F0001D4616460F4684F85090FFF73BFC94F8C3
:10150000511001295DD18046002F4FF0010018BF16
:10151000002E00F09580032084F8510000206065C3
:101520002763A686E686A063A087E087A168C4E952
:101530001000B1F5004F08D12068016821F040018A
:101540000160016841F4804101602068016849063A
:1015500003D4016841F0400101606168731EE268D4
:10156000B1FA81F1B3FA83F349095B09B2F5006F6F
:1015700041EA030127D139B1216B0988C160B81C48
:101580002063E08E0138E086E08E002841D06E1C9A
:101590000AE000BF216B31F8022BC2602163E08EAC
:1015A0000138E086E08EA0B3206881688907F1D415
:1015B000FFF7E0FB002EF5D0A0EB0800A842F1D326
:1015C00025E002203CE039B139780173206B01300D
:1015D0002063E08E0138E086E08ED0B16E1C0AE018
:1015E000216B09780173206B01302063E08E013894
:1015F000E086E08E68B1206881688907F0D4FFF743
:10160000B9FB002EF5D0A0EB0800A842F1D30320CF
:1016100016E020462946424600F026FB00281CBF63
:1016200020206065A06838B9002000902068C1685B
:101630000091806800900098606D002818BF01201C
:10164000002184F8519084F8501001B0BDE8F08377
:1016500080B500F085FB80BD70470000704700003A
:10166000B0B582B0016805460868CA684C6900F0E8
:101670002F03202B02F0200305D123B1284600F0D0
:10168000E3FB02B0B0BD5FEA007C1EBF04F0010EB8
:1016900002F4907414EB0E0424D12B6B1040C2069C
:1016A00017D5012B15D100200190086801904868DA
:1016B00001900198486940061CD4A88DEA8DEB8DF5
:1016C000002B1CBF801A5FEA004240F09A8002B0F3
:1016D000B0BD010636D44006F9D5284600F0A8FB77
:1016E00002B0B0BDC10718BF12F480712FD14107FD
:1016F00033D439E0A86B0268526893B2002BE6D06D
:10170000AC8DA342E3D2EA858269202A16D0CA684A
:1017100022F48072CA604A6922F001024A614A6971
:1017200022F040024A61202285F83E2000222A63EE
:10173000CA6822F01002CA60FFF760F9A88DE98D2F
:10174000401A6FE0284600F021FC02B0B0BD296CC1
:1017500041F001012964410706D5BEF1000F03D015
:10176000296C41F002012964810706D5BEF1000F02
:1017700003D0296C41F004012964BCF1000F06D5A7
:101780005EEA030103D0296C41F008012964296C49
:1017900000299CD01040800602D5284600F054FB5A
:1017A00028684069296C00F0400001F008014018E9
:1017B00020D0284600F026FB28684169490614D548
:1017C000416921F040014161A86B70B141F6F551CA
:1017D000C0F600014163FFF731F900283FF477AF0D
:1017E000A86B416B884702B0B0BD2846FFF736FFB3
:1017F00002B0B0BD2846FFF731FF0020286402B0D8
:10180000B0BDCA6822F49072CA604A6922F001022F
:101810004A61202285F83E2000222A63CA6822F00D
:101820001002CA6081B22846FFF716FF02B0B0BDB1
:10183000002804BF0120704710B5044690F83D0011
:1018400028B9002084F83C00204600F021F824202C
:1018500084F83D002068C16821F40051C160204631
:1018600000F04CFB2068016921F49041016141695D
:1018700021F02A014161C16841F40051C16000209A
:101880002021206484F83D1084F83E1010BD000033
:1018900070B586B0006844F20041C4F20001002631
:1018A00088420596CDE9036602963FD043F60001D3
:1018B000C4F20101884266D141F21800C4F202006C
:1018C000016840F6000441F4804101600168C4F2FF
:1018D000010401F4804101910199016802AD41F0D8
:1018E000040101600068294600F00400019001989D
:1018F0004FF40070029002200390032005902046D0
:10190000FFF73EF94FF4806002900020CDE903001C
:1019100020462946FFF734F9252000210022FFF751
:101920009FFA2520FFF798FA06B070BD41F2180023
:10193000C4F20200416840F6000441F40031416005
:101940004168C4F2010401F4003101910199016878
:1019500002AD41F0040101600068294600F0040076
:10196000019001980420029002200390032005902A
:101970002046FFF705F90820CDE902062046294652
:101980000496FFF7FDF806B070BD00007047000038
:101990002DE9F04381B0044690F83D0020280BD19A
:1019A0000E4600294FF0010055D01746002A52D0AC
:1019B00094F83C00012803D1022001B0BDE8F08377
:1019C000012084F83C004FF0000921201D46C4F896
:1019D000409084F83D00FFF7CDF9A784E784A16823
:1019E0000746B1F5805F07D1206900281CBF30464B
:1019F0004E46B046064601E04FF0000884F83C90A1
:101A000007E000BF16F8010B21684860E08C013840
:101A1000E084E08C80B1204680213A462B4600F0DD
:101A2000DFFA80B9002EEDD138F8020B21686FF390
:101A30005F2048600026E9E7204640213A462B46D1
:101A400000F0CEFA18B1032001B0BDE8F0832020E9
:101A500084F83D00002001B0BDE8F083704700002D
:101A6000FEE700002DE9F04F85B04FF0000841F28D
:101A70001800CDE90388CDE90188C4F202000168AD
:101A800040F6000641F0200101600168C4F2010641
:101A900001F02001009100990168002241F0040149
:101AA00001600168102701F00401009100990168AC
:101AB00041F010010160016801F0100100910099EE
:101AC000016841F0080101600068102100F0080081
:101AD000009000983046FFF747F906F50065284664
:101AE000302100224FF03009FFF73EF906F58064FF
:101AF00020464FF480410022FFF736F9019701AFED
:101B00004FF0010B4FF0020A30463946CDE902B8DA
:101B1000CDF810A0FFF734F828463946CDE9019BEF
:101B2000CDE9038AFFF72CF84FF48040CDE9010B93
:101B300020463946CDE9038AFFF722F805B0BDE813
:101B4000F08F0000B0B540F24C1043F20001C2F239
:101B50000000C4F201014FF48272002380E80E00FD
:101B600000F10C014FF0020C4FF0010E4FF4007425
:101B7000182581E808500A21C0E90645C0E9083364
:101B8000C0E90A31FFF71AFC002818BFFEF734FF3E
:101B9000B0BD000080B540F2A41043F60001C2F2CF
:101BA0000000C4F2010100234FF00C0C4FF4E132AD
:101BB00080E80E00C0E90333C0E905C3C361FFF745
:101BC00037FE002818BFFEF717FF80BD80B540F232
:101BD000E81044F20041C2F20000C4F20001002308
:101BE0004FF00C0C4FF4E13280E80E00C0E90333F3
:101BF000C0E905C3C361FFF71BFE002818BFFEF74D
:101C0000FBFE80BDFEE700007047000000F007000B
:101C100080F00703042B28BF04234FF0FF3C033858
:101C20000CFA03F338BF0020994381400CFA00F00E
:101C300022EA0000084370477047000081B040F27C
:101C40000000C2F20000006844F6D351C1F2620104
:101C5000A0FB0101480A009000BF0098411E002827
:101C60000091F9D101B0704710B513460A468021A2
:101C7000044600F00BF800280FBF0020606D40F014
:101C80002000606518BF032010BD00002DE9F0435F
:101C900081B01E4690460D468146FFF76BF8301A1C
:101CA00000EB0807FFF766F840F20001C2F20001FE
:101CB0000968C1F3CB3179430091D9F800108968E4
:101CC0002940A94219D1064608F1010406E000BFE7
:101CD000D9F8000080682840A8420ED1002CF7D027
:101CE000FFF748F8801BB8420BD2009800990028F3
:101CF00008BF0746481E0090EAE7002001B0BDE893
:101D0000F083D9E900014268B1F5827F22F0E00258
:101D100042600BD1D9F80810B1F5004F02D0B1F5EF
:101D2000806F03D1016821F040010160D9F82810CB
:101D3000B1F5005F07D1016821F40051016001682D
:101D400041F400510160012089F85100002089F818
:101D50005000032001B0BDE8F08300007047000090
:101D6000B0B501380024B4EB106F1CBF0120B0BD2A
:101D70004EF21005CEF2000568604FF0FF300F21E3
:101D800002F0A2FC0720AC6028602046B0BD000035
:101D900080B5FEF7F5FF80BD70B590B006AC20466B
:101DA0002821FEF791FB012006900A904FF4E010E5
:101DB00000254FF4803102260F9020460595CDE98D
:101DC0000355CDE90155CDE90715CDE90D61FFF7C3
:101DD0006FF90F20CDE901064FF48060CDE90405CD
:101DE00001A802210395FFF74FF810B070BD000065
:101DF0007047000080B5406A0021C185C184FFF7AB
:101E00002DFC80BD0168CA6822F49072CA604A69DC
:101E100022F001024A61026B012A03D1CA6822F052
:101E20001002CA60202180F83E1000210163704733
:101E300080B50168CA6822F04002CA60202180F89B
:101E40003D10FFF70BFE80BD80B582B090F83E10CC
:101E500022291ED18268B2F5805F02D10169002972
:101E600040D0816AB2F5805F07D00AB9026922B119
:101E70000268526802F07F0201E0026852680A704C
:101E80000121826A11448162C18D01390A04C18530
:101E900001D002B080BD0168CA6822F02002CA6089
:101EA000CA6822F48072CA604A6922F001024A615B
:101EB000202280F83E20026B012A1BD100220263FF
:101EC000CB6823F01003CB600B68DB0605D50192CD
:101ED0000A680192496801910199818DFFF7BCFB65
:101EE00002B080BD0168826A49686FF35F2111808A
:101EF0000221C6E7FFF74AFD02B080BD10B50446D7
:101F00000068D4E902C22369016921F440511143F8
:101F10000161616943EA0C021143C26841F20C633A
:101F20009A431143C1604169A26921F44071114390
:101F300043F60002C4F201029042416102D0FFF771
:101F400063F801E0FFF772F86268192148439100D5
:101F5000B0FBF1F048F21F51C5F2EB11A0FB0123D9
:101F60005A096FF0630302FB0300322303EB0010F6
:101F7000A0FB0101F02303EA5113206803EB0212D6
:101F8000C1F343111144816010BD000090F83D1071
:101F9000212923D18168B1F5805F01D1016931B177
:101FA000016A02684B1C03620978516007E0016A0C
:101FB000036831F8022B6FF35F225A600162C18C13
:101FC00001390A04C18418BF70470068C16821F054
:101FD0008001C160C16841F04001C16070470000EC
:101FE0002DE9F0410446006800680840884202D1AB
:101FF0000020BDE8F0811D460E4690465F1C04E0BF
:10200000206800683040B042F2D0002FF8D02DB1E7
:10201000FEF7B0FEA0EB0800A842F1D92068C16825
:1020200021F4D071C160416921F00101416120209A
:1020300084F83D0084F83E00002084F83C00032032
:10204000BDE8F08180B540F2A410C2F20000FFF7B5
:1020500007FB80BDFEE7000080B502F06BFB02F0DD
:102060007DFB80BD10B5DDE902EC044604982160DB
:10207000A280E380C4E902EC90E80E00C06804F19D
:10208000100CE06104F120008CE80E0002F03CF836
:10209000204610BD10B5DDE902EC0446049821602D
:1020A000A280E380C4E902EC90E80E00C06804F16D
:1020B000100CE06104F120008CE80E0002F026F81C
:1020C000204610BD2DE9F04F93B08C880E884D88C6
:1020D0000F34C98824094FEA16180F31A4EB1616DD
:1020E00090F84E4025F00F07C5F31B1C090990F826
:1020F0004FA0D0E90550A1EB1719B1B2A4EB061E11
:1021000004FB03F6069106FB0AF6294605EB860159
:10211000360A4FEA141B00EB460000EB48000BFBAD
:102120000CF600EB46061FFA89F000FB0BF006EBFD
:10213000400004904FEA0810039020010D90CEF368
:102140000B1002900AFB03F0012A4FEA800005956C
:102150000E91079440F0AD80A5000190109500BF4E
:102160000199B8B201EB800160430A900598069A84
:1021700004FB010006EB42020990039808970B92BA
:1021800082B20E980A994FF0000900EB81000D9978
:1021900000EB820000EB8100119009980F9600EB94
:1021A000820A0C92DAE90067DAE9024538463146DC
:1021B00002F0BBFC002818BF37463846214602F023
:1021C00007FC294602F004FC0AF11007B0CFDAF848
:1021D0001C6012902846214602F0A7FC002818BF78
:1021E00025462846394602F0F3FB314602F0F0FB63
:1021F0000AF1200B9BE8700807462846214602F0AA
:1022000094FC002818BF25462846314602F0E0FB22
:10221000594602F0DDFB0AF1300B9BE8700880465E
:102220002846214602F081FC002818BF2546284692
:10223000109D314602F0CCFB594602F0C9FB129EBC
:1022400004463846314602F070FC002818BF374675
:102250003846414602F0BCFB214602F0B9FB494634
:10226000044602F062FC002808BFA1461198AA4467
:10227000824597D34FF600714846C4F27F7102F051
:1022800051FE02F09FFD0F9E26F8020B0B9886422E
:102290000C9800F11000FFF473AF0298089F06EB52
:1022A00040060498079C864207F11007FFF458AFD8
:1022B00089E04FEA84080A900A99B8B201EB8001DC
:1022C00060430C900598069A04FB010006EB42025D
:1022D0000B9003980897109282B20E980C994FF0C9
:1022E000000A00EB81000D9900EB820000EB8100F9
:1022F00012900B980F9600EB820B11929BE8C30093
:1023000002F07AFB314602F077FB394602F074FBAB
:10231000DBE90421DBE906748146104602F06CFB20
:10232000394602F069FB214602F066FBDBE9082131
:10233000DBE90A460746104602F05EFB214602F042
:102340005BFB314602F058FBDBE90C21DBE90E4672
:102350000546104602F050FB214602F04DFB314687
:1023600002F04AFB04464846394602F045FB29463E
:1023700002F042FB214602F03FFB0146504602F0CC
:102380003BFB1299C3448B458246B7D34FF600718D
:102390005046C4F27F7102F0C5FD02F013FD0F9E9E
:1023A00026F8020B10988642119800F1100093D382
:1023B0000298089F06EB40060498079C864207F1A6
:1023C0001007FFF479AF13B0BDE8F08F2DE9F04F9F
:1023D00089B08C880E884D880F34C988240990F8FC
:1023E0004E800F31A4EB161425F00F07C5F31B1E0A
:1023F0000D09A1B2A8EB041990F84F40039108FB16
:1024000003F3D0E90510A5EB171C03FB04F503FB50
:1024100004112B0A4FEA161A4FEA181600EB430074
:1024200000EB4A0006FB0EF300EB430B1FFA8CF0A7
:1024300070430BEB400002904FEA0A1001904FEA04
:1024400008100790012AC9F30B10089100906BD176
:10245000039804970BEB40000690B8B200FB08F01D
:10246000059001981FFA80FA089805994FF0000925
:10247000084400EB0A02079802EB000E1478577824
:10248000957892F803C0A74238BF2746AF4298BF5D
:102490002F46674598BF6746157954799379D17966
:1024A000AC4238BF2C469C4298BF1C468C4298BF19
:1024B0000C46117A557A937AD67A8D4238BF0D46FA
:1024C0009D4298BF1D46B54298BF3546117B537B50
:1024D000967BD07B8B4238BF0B46B34298BF3346C6
:1024E000834298BF0346BC4238BF3C46AC4298BFCB
:1024F0002C469C4298BF1C464C45424428BFA146EE
:102500007245BBD34FEA09202BF8020B069883458E
:102510000AF11000A6D30098049F0BEB400B029821
:102520001037834594D367E0039804970BEB400082
:102530000690B8B200FB08F4019800BF85B2089875
:1025400020444219079802EB000E002011785678BB
:102550009378D778B14238BF0E469E4228BF1E46B8
:10256000BE4228BF3E46117992F805909379D779FB
:10257000494538BF8946994528BF9946B94528BF7E
:10258000B946117A92F809A0937AD77A514538BFA3
:102590008A469A4528BF9A46BA4528BFBA46117B53
:1025A000537B977B92F80FC0994238BF0B46BB42D2
:1025B00028BF3B46634528BF63464E4538BFB146FA
:1025C000D14528BFD146994528BF99464845424440
:1025D00028BF48467245B9D300022BF8020B069873
:1025E000834505F11000A9D30098049F0BEB400B25
:1025F00002981037834597D309B0BDE8F08F0000EB
:102600002DE9F04F8CB08C880E884D880F34C98826
:1026100024094FEA16180F31A4EB161690F84E4015
:1026200025F00F07090990F84FA0C5F31B19A1EB7E
:10263000171CB5B2A4EB061E04FB03F6D0E9051087
:1026400006FB0AF605950D46049101EB4601360A94
:102650004FEA141B00EB460000EB48000BFB09F5AA
:1026600000EB45091FFA8CF000FB0BF009EB400072
:1026700003904FEA0810029020010A90CEF30B104D
:1026800001900AFB03F0012A4FEA40000B910694E7
:1026900078D14FEA440800900099B8B201EB4001AC
:1026A000604308900498059A04FB010C029809EB1A
:1026B00042020797099200BF1FFA80FE0B98089903
:1026C000002400EB41000A9900EB4E0000EB410AA8
:1026D0000CEB4E000288478826468488B0F806B086
:1026E000974238BF1746A74298BF27465F4598BF15
:1026F0005F46028944898589C389944238BF14465C
:10270000AC4298BF2C469C4298BF1C46038A428A22
:10271000858AC18A9A4238BF1A46AA4298BF2A4679
:102720008A4298BF0A46018B438B858BB0F81EB056
:102730008B4238BF0B46AB4298BF2B465B4598BFD8
:102740005B46BC4238BF3C46944298BF14469C420C
:1027500098BF1C46B442404438BF34465045B9D3B4
:10276000099829F8024B81450EF11000A4D3019875
:10277000079F09EB40090398069C814507F1100764
:102780008AD377E0630000900099B8B201EB400172
:10279000604308900498059A04FB010E029809EB27
:1027A00042020797099200BF82B20B980899002451
:1027B00000EB41000A9900EB420000EB41080EEBF0
:1027C000420000BF0588B0F802A021468488C68870
:1027D000554538BFAA46A24528BFA246B24528BFE4
:1027E000B246068944898589C789A64238BF3446DE
:1027F000AC4228BF2C46BC4228BF3C46058AB0F8F4
:1028000012C0868AC78A654538BFAC46B44528BF22
:10281000B446BC4528BFBC46058B468B878BB0F8B9
:102820001EB0B54238BF2E46BE4228BF3E465E456A
:1028300028BF5E46A24538BF5446644528BF64465B
:10284000B44228BF3446A142184438BF0C46404524
:10285000B8D3099829F8024B814502F11000A3D39F
:102860000198079F09EB40090398069C814507F1F1
:10287000100789D30CB0BDE8F08F00002DE9F04FB0
:1028800003AFA3B08146967999F8524047F8946C0B
:10289000A640B9F84A409B46D57999F8533090F84C
:1028A0004E0047F8306CA61B47F8985C9D40B3B2C9
:1028B0008342B9F84C3047F8641C99F84F10A3EBE9
:1028C00005081FFA88F328BF064647F8345C8B4298
:1028D00028BF8846B2F804A0158801FB00F4A7F1D0
:1028E000240047F88C2C00F099FCB9F82A0000224B
:1028F000073020F00700ADEB000027F8246C27F824
:10290000228C47E9062247F8202C07F81C2C47F8B0
:10291000380C8546BAF1000F47F8904C00F0E28180
:1029200057F830EC57F8343CCEF30B1047F8780CDE
:10293000C3F30B1047F87C0C99F8640002220028BE
:102940004FEA142000FB0BF008BF012247F8800C6F
:1029500004FB0BF047F8680C98B247F86C0C1FFAB0
:102960008EF047F8700C4FF6FF7047F8300C0020DF
:1029700047F8340C0020002447F8440C002053464C
:10298000D44647F8602C47E9158647E9136847F8AD
:10299000400C47F85C9C47F874BC07E057F8880C7B
:1029A00057F8843C0588180400F0A481B9F8580051
:1029B000A84240F2D483D9F84000B9F84410B9F8DD
:1029C000462001FB0506501C81B29AB28A4238BFEC
:1029D0001846C0B206F1020A1B1A0AEB400047E98A
:1029E000226347F83C0C2DE02268D9F80010B8F8B3
:1029F0000200BAF8003096688AB057F8542C57F89D
:102A0000705C92B2089357F8503C039257F8682CC8
:102A1000009557F86C5C9BB2049257F8382CCDE9BE
:102A2000015357F8643C059207902046A7F1240211
:102A3000CDF818B0B0470AB057F83C0C0AF1020ABA
:102A40008245ABD2BAF80000B9F85610814240F284
:102A50006983D9F8381000EB400231F8220057F8AA
:102A6000303C01EB8208834200F0B780D9F80410B3
:102A7000B9F82A2051F8303001EBC0061B6857F82E
:102A8000381C30469847D9F8180047F8586C002889
:102A900070D057F84C1C37F8245C88B2A84238BF75
:102AA0000D4657F8481C37F8229C88B2484537F83D
:102AB00020BC38BF894657F8400C584588BF83462C
:102AC000306837F81E4C57F8442C41683046A24213
:102AD00088BF1446884757F8302C4FF6FF71511ABB
:102AE00018BF0121B0FA80F30028024618BF012266
:102AF00003284FEA531315D057F8606CF6B2B04272
:102B000010D07BB9012607F81C6C002647F8246C0E
:102B100057F8506C47F8600C27F8206C57F8546C45
:102B200027F81E6C17F81C0CB0FA80F04009184307
:102B300001EA020047F8340C43D137F8200C002892
:102B40003FD037F81E0CE0B357F85C0C007F032829
:102B500021D0022813D0012840F0EE8257F8600CF3
:102B600057F8743CC2B257F85C0CA7F12401FFF788
:102B70002DFC1BE057E9114B57E9135921E057F899
:102B8000600C57F8743CC2B257F85C0CA7F12401F2
:102B9000FFF736FD0AE057F8600C57F8743CC2B2F4
:102BA00057F85C0CA7F12401FFF78CFA57F8500C8A
:102BB00027F8240C57F8540C27F8220C002047F86B
:102BC000200CB8F8000047E9114B47E9135957F8B2
:102BD00074BC57E9179447F8300C57F8340CC00709
:102BE0003FF402AF98F8040057F8781C98F80630C4
:102BF00098F80520401A57F87C6C99F84EC0A64604
:102C000098F8074020EAE0711844951BC1EB1C16A8
:102C1000431A99F84F0025EAE5729E42B8BF334641
:102C20002E19C2EB1010B41AA042B8BF0446002BF4
:102C30004FF0050018BF5FEA044604D1002874462F
:102C40007FF4FAAED0E64FEA1C161FFA81FCD9F8E1
:102C5000185057F8801C92B205EB410505EB4C016A
:102C6000724301EB4201A2B298B27243F31A57F8D1
:102C7000606C9BB2F6B201EB4202012E4FEA4303B5
:102C80004FF0000618D100BF01EB4004354631F883
:102C9000026BAE4238BF2E46A142F7D3194491428F
:102CA000F2D3B8F8080086424FF0000038BF052084
:102CB000C4D30020C2E700BF01EB4004354631F821
:102CC000026BB54238BF2E46A142F7D31944914258
:102CD000F2D3B8F80A0086424FF000008CBF0520FE
:102CE0000020ABE7002047F8400C002047F8440CD8
:102CF00047E9136857F84C3C37F8240C99B28842DE
:102D000038BF034657F8482C37F8220C91B2884256
:102D100038BF024698B237F8201C57F8405C40EAAA
:102D2000024047F8240CA94237F81E2C88BF0D46F4
:102D300057F8441C80B28A4288BF114645EA0141D7
:102D400047F8201C57E90612D9F87030D9F8786096
:102D50008B4238BF0B46C9F87030964238BF1646D2
:102D6000C9F8786057F88C6C37F8223C317A727A5F
:102D7000884238BF0146934238BF1A4641EA0240B2
:102D800047F8280CB07AF17AAAB237F81E3C824292
:102D900088BF10468B4288BF194640EA014147F878
:102DA0002C1C17F8241C17F8222C317217F81E1C43
:102DB00000287272B572F17200F0AF8137F82A0CF8
:102DC000002800F0AA81D9F8000001684E6882B09E
:102DD000A7F12C01009157E92621A7F12803CDF88E
:102DE00004B0B04702B037F8241C19B1012047F8ED
:102DF000300C16E037F8200C99F84E2090424FF036
:102E0000010047F8300C0CD337F8220C48B937F8DA
:102E10001E0C99F84F200023904238BF012347F839
:102E2000303C37F8203C002B00F0778137F81E2C1F
:102E3000002A00F0728199F81C0047F85C9C032876
:102E400000F2948157F8905C05FB0BFADFE810F074
:102E5000FA0004003200730057F85C4C4FF0000C8D
:102E600094F86400002808BF4FF0FF3C666957F8EB
:102E7000300C002806EB0A0000F0AF805D1A94F8D1
:102E80004E9037F8223C084403FB0906D01A00FB99
:102E900009645FFA8CF808E0304629464246FDF79F
:102EA000E9FA4E44A64280F0CD80002DF4D0002EE9
:102EB000F2D133E057F85C5C4FF0000895F86400FD
:102EC000002808BF4FF0FF386E6957F8300C002813
:102ED00006EB4A0074D05C1A95F84E3037F8225C45
:102EE00000EB410005FB03F100EB4106501B58438A
:102EF0004FEA440B06EB40054FEA43090AE000BFE6
:102F00005FFA88F230465946FDF7B4FA4E44AE42B5
:102F100080F09880002CF3D0002EF1D147F2683079
:102F2000C0F60000FDF786F947F24530C0F6000014
:102F3000FDF766FAFEDE57F85C4C57F8300C656911
:102F4000002805EB8A0054D037F8226C94F84EC064
:102F500000EB810094F864E00CFB06F4921B00EB9C
:102F6000840002FB0CF2A3EB0109BEF1000F00EBA1
:102F700082064DD057F8902C4FEA890047F8340C60
:102F800002FB0BF0800005EB840400EB810502FBE3
:102F90000B104FEA8C084FEA800B09E057F8341CFD
:102FA000FDF770FAC34404EB0B00B042454449D22C
:102FB000B9F1000F04EB0500F0D00028EED19FE03E
:102FC00057F8901C09B1002EA8D057F8901C5FFA52
:102FD00088F24900FDF74EFA34E057F8901C09B129
:102FE000002E9BD057F8901C5FFA8CF2FDF742FA46
:102FF00028E094F86410D9B157F8901C11B1002D55
:1030000000F07E8057F8901C8900FDF73BFA19E02C
:103010006144C91A89004FF07E5200BF00EB89035A
:1030200040F8042B9842FBD30844B042F6D309E0A1
:1030300057F8901C4FF07E5200EB810140F8042BB2
:103040008842FBD357F85CBCDBF8180070B14FEA3C
:103050001A2100EB410057F8901C9BF86430C90915
:103060000022002B08BFFF22FDF704FA4FF00008F2
:1030700009E000BF0AFB0020FDF704FA08F101088F
:10308000B8F1040F49D00BEB080090F8200000289D
:10309000F4D09BF84E1057F8302C01FB00F91AB30E
:1030A00037F8202C37F8243CDBF8246037F8224C22
:1030B000D21A534456F8286004FB013137F81E3CFD
:1030C00001FB0065191B01FB095402FB00F606E039
:1030D00028463146FDF7D6F94D44A542CED2002E02
:1030E000F6D0002DF4D10BE0DBF8241051F82820A5
:1030F0009BF84F10002A09FB01F1BBD10029B9D080
:1031000047F2D430C0F60000FDF794F847F245309E
:10311000C0F60000FDF774F9FEDEA7F10C04A54629
:10312000BDE8F08F47F2AA30C0F60000FDF782F844
:1031300030A0FDF765F9FEDE47F2F130C0F6000081
:10314000FDF778F847F21640C0F60000FDF772F878
:1031500047F22A30C0F60000FDF752F9FEDE0DA05E
:10316000FDF768F816A0FDF74BF9FEDE47F2853053
:10317000C0F60000FDF75EF847F21640C0F600000A
:10318000FDF758F847F22A30C0F60000FDF738F98D
:10319000FEDE00BF2E2E2F2E2E2F4C69622F65676C
:1031A0006C5F726173746572697A65725F74696C61
:1031B000696E672E682832353229203A20000000D7
:1031C000617373657274206661696C6564203A206E
:1031D00073747269705F6964785F3C6D5F6E756D62
:1031E0005F636C75737465725F7374726970730D6D
:1031F00000000000617373657274206661696C651C
:1032000064203A206964785F3C6D5F6E756D5F6322
:103210006C7573746572730D0000000070470000D8
:10322000B0B50446043000F01DF804F12C0000F0A5
:1032300087FB0020A4F85C0084F8640020462C2161
:1032400004F16805FDF740F9284600F04FFB2046E1
:10325000B0BD000010B504462C3000F07BFB2046CA
:1032600010BD0000002101608180C0E90211C0E9A9
:1032700004110176C0E90811704700002DE9F04FF4
:103280008DB00029169F48BF0B44002A22EAE27A3B
:1032900048BF1744BAF14F0F00F3748121EAE1757A
:1032A0009F2D00F36F81064618B20128C0F26A8193
:1032B00038B20128C0F26681C5F1A00081B29AB28D
:1032C0008A42CAF1500238BF184691B2BBB28B4253
:1032D00038BF3A464719D6F8B000B6F8C010DDF846
:1032E0005CB002EB0A0400220697FDF73DFD2A219F
:1032F000D6F8B8008DF8241010210022A7F101089B
:103300000AF1180704F11709FDF72EFDD6F8AC00F5
:1033100009A901224FF0FF33FEF7DCF8D6F8B80018
:1033200010210122FDF720FD290AD6F8AC000496F1
:1033300009AE8DF82410314601224FF0FF33FEF71D
:10334000C9F804983146D0F8AC0001224FF0FF33A1
:103350008DF82450FEF7BEF804984FEA1821D0F8F3
:10336000AC0009AE8DF82410314601224FF0FF3336
:10337000FEF7B0F804983146D0F8AC0001224FF0C7
:10338000FF338DF82480FEF7A5F804982B21D0F8A0
:10339000B8008DF8241010210022FDF7E5FC0498F8
:1033A00009A9D0F8AC0001224FF0FF33FEF792F8E4
:1033B00004981021D0F8B8000122FDF7D5FC04983C
:1033C000390AD0F8AC0009AE8DF82410314601223C
:1033D0004FF0FF33FEF77EF804983146D0F8AC008A
:1033E00001224FF0FF338DF82470FEF773F8049834
:1033F0004FEA1921D0F8AC0009AE8DF824103146FF
:1034000001224FF0FF33FEF765F804983146D0F8FB
:10341000AC00049E01224FF0FF338DF82490FEF79C
:1034200059F82C21D6F8B8008DF82410102100226C
:10343000FDF79AFCD6F8AC0009A901224FF0FF3342
:10344000FEF748F8D6F8B80010210122FDF78CFCF1
:10345000A8B2029006980BF1200980B21FFA8AFAEE
:10346000A1B20191039000BF029FCDF814A000BF4C
:10347000BBF90400BBF90640381A01F0BFFCDBF8C9
:10348000081002460846114601F04CFD0546AAEB1D
:10349000040001F0B3FCDBF80C10024608461146AC
:1034A00001F040FDDBF8002009AECDE907504846A9
:1034B000314607AB00F02CFE0B99DDE909050691BA
:1034C000DBE904184C46DBF8189001F02BFD82462E
:1034D00028464146B04601F025FD05460698494676
:1034E000A14601F01FFD4FF6F45104465046DDF8A9
:1034F00014A0C4F2FF1101F015FD01F063FC4FF6BA
:10350000FA6106462846C4F27F2101F00BFD01F066
:1035100059FC00F03F0568014FF6F45140EAC62619
:103520002046C4F2FF1101F0FDFC01F04BFC310A12
:10353000049E00F01F04D6F8AC008DF8241041461C
:1035400001224FF0FF33FDF7C5FF44EA4511D6F8DD
:10355000AC008DF82410414601224FF0FF33FDF7F7
:10356000B9FF03980137874282D301990AF1010A12
:103570008A45FFF479AFD6F8B000B6F8C010012242
:10358000FDF7F2FB0DB0BDE8F08F00002DE9F04F24
:103590008DB00029169F48BF0B44002A22EAE27A28
:1035A00048BF1744BAF14F0F00F3748121EAE17567
:1035B0009F2D00F36F81064618B20128C0F26A8180
:1035C00038B20128C0F26681C5F1A00081B29AB27A
:1035D0008A42CAF1500238BF184691B2BBB28B4240
:1035E00038BF3A464719D6F8B000B6F8C010DDF833
:1035F0005CB002EB0A0400220697FDF7B5FB2A2116
:10360000D6F8B8008DF8241010210022A7F1010887
:103610000AF1180704F11709FDF7A6FBD6F8AC006C
:1036200009A901224FF0FF33FDF754FFD6F8B80087
:1036300010210122FDF798FB290AD6F8AC00049668
:1036400009AE8DF82410314601224FF0FF33FDF70B
:1036500041FF04983146D0F8AC0001224FF0FF330F
:103660008DF82450FDF736FF04984FEA1821D0F862
:10367000AC0009AE8DF82410314601224FF0FF3323
:10368000FDF728FF04983146D0F8AC0001224FF036
:10369000FF338DF82480FDF71DFF04982B21D0F80F
:1036A000B8008DF8241010210022FDF75DFB04986E
:1036B00009A9D0F8AC0001224FF0FF33FDF70AFF53
:1036C00004981021D0F8B8000122FDF74DFB0498B2
:1036D000390AD0F8AC0009AE8DF824103146012229
:1036E0004FF0FF33FDF7F6FE04983146D0F8AC00FA
:1036F00001224FF0FF338DF82470FDF7EBFE0498A4
:103700004FEA1921D0F8AC0009AE8DF824103146EB
:1037100001224FF0FF33FDF7DDFE04983146D0F86B
:10372000AC00049E01224FF0FF338DF82490FDF78A
:10373000D1FE2C21D6F8B8008DF8241010210022DB
:10374000FDF712FBD6F8AC0009A901224FF0FF33B8
:10375000FDF7C0FED6F8B80010210122FDF704FBEA
:10376000A8B2029006980BF1200980B21FFA8AFADB
:10377000A1B20191039000BF029FCDF814A000BF39
:10378000BBF90400BBF90640381A01F037FBDBF83F
:10379000081002460846114601F0C4FB0546AAEB94
:1037A000040001F02BFBDBF80C1002460846114622
:1037B00001F0B8FBDBF8002009AECDE90750484620
:1037C000314607AB00F020FE0B99DDE909050691B3
:1037D000DBE904184C46DBF8189001F0A3FB8246A5
:1037E00028464146B04601F09DFB054606984946ED
:1037F000A14601F097FB4FF6F45104465046DDF820
:1038000014A0C4F2FF1101F08DFB01F0DBFA4FF6BA
:10381000FA6106462846C4F27F2101F083FB01F0DD
:10382000D1FA00F03F0568014FF6F45140EAC62690
:103830002046C4F2FF1101F075FB01F0C3FA310A12
:10384000049E00F01F04D6F8AC008DF82410414609
:1038500001224FF0FF33FDF73DFE44EA4511D6F853
:10386000AC008DF82410414601224FF0FF33FDF7E4
:1038700031FE03980137874282D301990AF1010A88
:103880008A45FFF479AFD6F8B000B6F8C01001222F
:10389000FDF76AFA0DB0BDE8F08F000010B50446E0
:1038A00000F082FB47F28020C0F600000830206064
:1038B00004F10C00FFF7B4FC04F1900000F04AFBA7
:1038C000002120466160A16010BD000010B50446D3
:1038D00047F28020C0F6000000F10801204640F8C1
:1038E0000C1BFFF7B7FC204610BD00000021018330
:1038F000C0E90011C0E90211C0E9041170470000DD
:1039000070B50C460A0B0CA10546FCF79FFC284637
:103910002601FCF790FD2C1808A500BFB0B2020BE1
:1039200020462946FCF792FC3601300404F10104DC
:10393000F4D10020207070BD25692E00257800008C
:1039400010B5044600F008F82E21FCF79BFD204638
:1039500010BD00007047000001210170002141618D
:10396000C0E90111C1600182C0E907117047000080
:103970002DE9F04F8BB083469BF8CC501E889BF806
:10398000CDC05F8805FB0163149808930CFB02739C
:1039900004880793B0F80280DBF8C830DBF8040035
:1039A000A4EB0609A8EB070E03EB46066F4306EBF4
:1039B000470AD0B10768079ED7F804C0B7B2089E7F
:1039C000DBF83010AAEB03030BF120025B101FFAA7
:1039D0008EFE1FFA89F4B6B2CDE90067CDE9024E3A
:1039E0000495E0470BB0BDE8F08F4D43DBF8B00025
:1039F000BBF8C0100CFB02F600227746FDF7B4F9C5
:103A0000281901380590B8B2069007982A21183075
:103A1000079006EB080000F11706DBF8B8008DF8F8
:103A20002510102100221FFA89F9FDF79DF9DBF816
:103A3000AC000DF1250101224FF0FF33FDF74AFDE7
:103A4000DBF8B80010210122FDF78EF9089DDBF8A4
:103A5000AC00290A0DF126048DF82610214601221A
:103A60004FF0FF33FDF736FDDBF8AC0021460122B5
:103A70004FF0FF338DF82650FDF72CFD059CDBF849
:103A8000AC00210A0DF127058DF8271029460122E7
:103A90004FF0FF33FDF71EFDDBF8AC002946012295
:103AA0004FF0FF338DF82740FDF714FD2B21DBF895
:103AB000B8008DF8281010210022FDF755F9DBF829
:103AC000AC000AA901224FF0FF33FDF703FDDBF83C
:103AD000B80010210122FDF747F9079CDBF8AC0084
:103AE000210A0DF129058DF82910294601224FF0F0
:103AF000FF33FDF7EFFCDBF8AC00294601224FF065
:103B0000FF338DF82940FDF7E5FC310ADBF8AC0006
:103B10000DF12A058DF82A10294601224FF0FF33B6
:103B2000FDF7D8FCDBF8AC00294601224FF0FF334B
:103B30008DF82A60FDF7CEFC2C21DBF8B8008DF85B
:103B40002B1010210022FDF70FF9DBF8AC000DF16E
:103B50002B0101224FF0FF33FDF7BCFCDBF8B8006E
:103B600010210122FDF700F99BF8CC00069909AD60
:103B700048430AEB400800BF0AEB4907AAF10206D6
:103B800036F8024FDBF8AC00210A8DF824102946E4
:103B900001224FF0FF33FDF79DFCDBF8AC00294616
:103BA00001224FF0FF338DF82440FDF793FCB01C49
:103BB000B842E5D39BF8CC000AEB400AC245DBD300
:103BC000DBF8B000BBF8C0100122FDF7CDF80BB058
:103BD000BDE8F08F2DE9F04F83B0DDE90EB8DDE9E7
:103BE0000CA904464FF47A701D4616460F46FCF7A2
:103BF000B3FF10984146A4F8C40011980022A4F81D
:103C0000C6002846C4E92B76C4E92D5AC4F8BC90F6
:103C1000A4F8C0B0A4F8C280FDF7A6F80520FCF710
:103C20009BFFD4F8B400B4F8C2100122FDF79CF851
:103C30000520FCF791FFD4F8BC00B4F8C6100022B0
:103C4000FDF792F8D4F8B000B4F8C0100022FDF7E8
:103C50008BF847F20820C0F60000471C0F250DF135
:103C6000020807E0B8780337FF2808BFF420FCF704
:103C700073FF013D280625D03978D4F8B8008DF8B7
:103C8000021010210022FDF76FF8D4F8AC00414675
:103C900001224FF0FF33FDF71DFC7E783006E1D4A2
:103CA000D4F8B800102101220237FDF75DF8D4F8EE
:103CB000AC00394632464FF0FF33FDF70BFC37447A
:103CC000013DD7E717F8015B002DD3D12021D4F8AF
:103CD000B8008DF80310102100220026FDF744F8EB
:103CE000D4F8AC000DF1030101224FF0FF33FDF7D2
:103CF000F1FB2A21D4F8B8008DF80410102100221D
:103D0000FDF732F8D4F8AC0001A901224FF0FF33DF
:103D1000FDF7E0FBD4F8B80010210122FDF724F8EC
:103D2000D4F8AC000DF10505294601224FF0FF3310
:103D30008DF80560FDF7CEFBD4F8AC0029460122D2
:103D40004FF0FF338DF80560FDF7C4FBD4F8AC00ED
:103D50000DF10605294601224FF0FF338DF806606C
:103D6000FDF7B8FB9F21D4F8AC008DF8061029466A
:103D700001224FF0FF33FDF7ADFB2B21D4F8B80043
:103D80008DF8071010210022FCF7EEFFD4F8AC00EC
:103D90000DF1070101224FF0FF33FDF79BFBD4F833
:103DA000B80010210122FCF7DFFFD4F8AC0002AD0F
:103DB000294601224FF0FF338DF80860FDF78AFB9A
:103DC0001821D4F8AC008DF80810294601224FF0D4
:103DD000FF33FDF77FFBD4F8AC000DF10905294650
:103DE00001224FF0FF338DF80960FDF773FB672167
:103DF000D4F8AC008DF80910294601224FF0FF33AA
:103E0000FDF768FB2C21D4F8B8008DF80A101021BA
:103E10000022FCF7A9FFD4F8AC000DF10A01012241
:103E20004FF0FF33FDF756FBD4F8B8001021012204
:103E3000FCF79AFF4FF448570DF10B05D4F8AC008E
:103E4000294601224FF0FF338DF80B60FDF742FB4E
:103E5000D4F8AC00294601224FF0FF338DF80B60F7
:103E6000FDF738FB013FE9D106A0FCF7C9FAD4F809
:103E7000B000B4F8C0100122FCF776FF03B0BDE833
:103E8000F08F00BF53543737333520677261706845
:103E90006963732064657669636520696E69746916
:103EA000616C697A6564210D0000000080B5FFF740
:103EB000F5FC40F24411C2F2000147F290220B6877
:103EC000C0F600020832002B026001BF086000212A
:103ED000C0F8C81080BD03A0FCF7ACF90DA0FCF73A
:103EE0008FFAFEDE2E2E2F2E2E2F4C69622F64723B
:103EF00069766572732F65676C5F64657669636563
:103F00005F7374373733352E637070283936292044
:103F10003A200000617373657274206661696C6594
:103F200064203A2021735F6163746976655F64651C
:103F3000760D000080B547F29021C0F600010831EF
:103F4000016040F24411C2F2000100220A60FFF752
:103F5000BDFC80BD80B500F02FF80021816141617A
:103F60000161C16081604160016080BDF0B581B0D8
:103F700006981C4600EB400015460E4603EB8007F2
:103F8000B6F88000A1882246814238BF0146A6F8D3
:103F90008010304629460023FEF770FC0C34BC42EA
:103FA000EED301B0F0BD000047F2A021C0F6000141
:103FB00008310160704700000021C0E90011C0E92C
:103FC0000211C0E904117047B0B584B081B30C464A
:103FD00089073AD1216847F27042C7F665029142DB
:103FE00040D1A188B1F5885F02BF046004B0B0BDC4
:103FF00047F2A240C0F60000FCF71CF947F2C340AC
:10400000C0F60000FCF716F9A18802AC2046FFF7C5
:1040100077FC6D4628464FF48851FFF771FC47F254
:104020001F40C0F6000021462A46FCF703F9FEDED9
:1040300047F26040C0F60000FCF7FCF847F245404C
:10404000C0F60000FCF7DCF9FEDE0EA0FCF7F2F88B
:1040500047F2C340C0F60000FCF7ECF812A0FCF7F2
:10406000CFF9FEDE47F28140C0F60000FCF7E2F82F
:1040700047F2C340C0F60000FCF7DCF818A0FCF7DC
:10408000BFF9FEDE2E2E2F2E2E2F4C69622F656774
:104090006C5F746578747572652E63707028333345
:1040A00029203A20000000005054582064617461B7
:1040B000206973206E6F742070726F7065726C79F6
:1040C00020616C69676E656420746F20342D62799D
:1040D000746520626F756E646172792E0D00000048
:1040E000496E76616C6964205054582066696C652D
:1040F000207369676E61747572652E0D0000000093
:104100000021016070470000704700007047000008
:1041100010B584B00C46694600F006F89DE80F0023
:104120000FC404B010BD00002DE9F04F83B0126839
:10413000507B022840F00C81508AD3E9006BB2F822
:1041400010A0029030468946019200F003FC01461F
:10415000304600F0B3FF0746504600F067FE0646C3
:104160003846314600F0DEFE4FF03F4100F058FC8B
:104170000021054600F0D9FC41F26F210446CBF640
:104180008321304600F04CFC294600F049FC804673
:10419000002C08BFA8464046314600F0C6FC002867
:1041A00000F0E0805846CDF8009000F0D3FB0146C7
:1041B000584600F083FFDDF808B00546584600F089
:1041C00035FE04462846214600F0ACFE4FF03F4144
:1041D00000F026FC0021054600F0A7FC41F26F210B
:1041E0000746CBF68321204600F01AFC294600F052
:1041F00017FC0646002F08BF2E463046214600F029
:1042000094FC002800F0B580404600F0DBFD8146BC
:10421000013081B2B1EB0A0718BF0746304600F003
:10422000D1FD0546013081B2B1EB0B0118BF01464B
:10423000019889B2203005FB0AF201FB0AF100EB7C
:10424000420B00EB4100029048461FFA87FA00F04B
:10425000D5FD0146404600F031FF0746284600F0F4
:10426000CDFD0146304600F029FF054638464FF0A7
:10427000864100F057FE00F0A5FD6FF07F0806466E
:10428000A8EB000728464FF0864100F04BFE00F0F7
:1042900099FDA8EB0001C9B2FAB23BF8197001FB15
:1042A00002F300FB02F83BF81A50029A7143704384
:1042B00007F01F0603FB06FC05F01F0432F8196027
:1042C00001FB04CC06F01F0E32F81A4008FB0ECC9E
:1042D00004F01F0200FB02CCC7F3451203FB02FEF1
:1042E000C5F3451201FB02EEC6F3451208FB02EED0
:1042F000C4F3451200FB02E9FA0A5A43EB0A01FB38
:104300000321F20A08FB0211E20A00FB0215CCF3BA
:10431000C72000F08BFD0024C4F27F34214600F05A
:104320005BFC009E3060C9F3073000F07FFD214642
:1043300000F052FC7060C5F3C72000F077FD214605
:1043400000F04AFCB0600020F06003B0BDE8F08FE0
:1043500047F2CC20C0F60000FBF76CFF0AA0FCF788
:104360004FF8FEDE12A0FBF765FF19A0FCF748F836
:10437000FEDE47F20A30C0F60000FBF75BFF1BA031
:10438000FCF73EF8FEDE00BF617373657274206651
:1043900061696C6564203A207465785F2E666F727F
:1043A0006D617428293D3D7372635F666D740D0005
:1043B0002E2E2F2E2E2F4C69625C65676C5F746504
:1043C00078747572652E682834303529203A2000BB
:1043D000617373657274206661696C6564203A204C
:1043E000753C7477696474680D00000061737365CF
:1043F0007274206661696C6564203A20763C74684A
:1044000065696768740D000010B584B00C46694694
:1044100000F006F89DE80F000FC404B010BD0000C6
:104420002DE9F04F83B0D2F800B09BF80D000228C0
:1044300040F01381BBF810A0BBF812901E685046E4
:104440001C46884600F0F2FC05463046294600F03E
:1044500069FD4FF03F4100F0E3FA41F26F2107465A
:10446000CBF68321284600F0DBFA0021064600F057
:104470004EFB002800F0E480646838460021CDF847
:10448000088000F052FB05463846314600F038FB04
:10449000002818BF37464846002D18BF0027CDF822
:1044A000049000F0C3FC05462046294600F03AFD82
:1044B0004FF03F4100F0B4FA41F26F210446CBF6D1
:1044C0008321284600F0ACFA0021064600F01FFBCD
:1044D000002800F0B5802046002100F026FB0546AC
:1044E0002046314600F00CFB002818BF3446384601
:1044F000002D18BF002400F065FC00F10108814682
:104500001FFA88F05045204608BFAAF1010800F0C4
:1045100059FC05460130019A81B2914208BF501EF4
:1045200080B20BF1200100FB0AF001EB400005FB1B
:104530000AF20190484601EB420B1FFA88FA00F09C
:104540005DFC0146384600F0B9FD0746284600F0FC
:1045500055FC0146204600F0B1FD044638464FF0B8
:10456000864100F0DFFC00F02DFC6FF07F0805466F
:10457000A8EB000720464FF0864100F0D3FC00F086
:1045800021FCA8EB0001C9B2FAB23BF8197001FB9B
:1045900002F300FB02F83BF81A40019A69436843B2
:1045A00007F01F0503FB05FC04F01F0632F8195045
:1045B00001FB06CC05F01F0E32F81A6008FB0ECC8A
:1045C00006F01F0200FB02CCC7F3451203FB02FEFC
:1045D000C4F3451201FB02EEC5F3451208FB02EEDF
:1045E000C6F3451200FB02E9FA0A5A43E30A01FB4B
:1045F0000321EA0A08FB0211F20A00FB0215CCF3C0
:10460000C72000F013FC0024C4F27F34214600F0E0
:10461000E3FA029E3060C9F3073000F007FC214640
:1046200000F0DAFA7060C5F3C72000F0FFFB214606
:1046300000F0D2FAB0600020F06003B0BDE8F08F67
:1046400047F2EC20C0F60000FBF7F4FD47F2B02083
:10465000C0F60000FBF7D4FEFEDE47F2CC20C0F629
:104660000000FBF7E7FD02A0FBF7CAFEFEDE00BF7D
:10467000617373657274206661696C6564203A20A9
:104680007465785F2E666F726D617428293D3D7385
:1046900072635F666D740D00002848BF704700F0BC
:1046A0001F01012202FA01F14EF200124009CEF27E
:1046B000000242F8201070474EF60C50CEF2000077
:1046C0000068C0F3022070474EF6145300F00F024A
:1046D000CEF2000309011A4400F16043B0F1FF3F3C
:1046E000C8BF03F564421170704700004EF60C51CC
:1046F000CEF200010A684FF6FF031A4060F30A2267
:1047000042F0806040F0FD700860704701A000F04A
:104710002EF800BF50757265207669727475616CF1
:104720002066756E6374696F6E2063616C6C65647E
:104730002100000010B540F27004C2F200042046CF
:10474000FFF7B4FB43F6357040F20002C0F60000FC
:10475000C0F600022146FBF769FE10BD80B540F2AD
:104760004010C2F20000FFF7CBFC80BD7047FBF7A2
:10477000D6FF000094B041F20003C4F201031021FF
:10478000202640F27008A3F58060CDE9021604915E
:10479000C2F2000840F24C11A3F500624FF48047CA
:1047A000CDE90030C2F2000140460597FFF712FA4A
:1047B00040F2401AC2F2000A45F2E811C0F60001C8
:1047C0005046FFF701FC4FF0000B4FF07E5707AC4F
:1047D0000BAE4FF07C5913E00090404600210022C0
:1047E00064230196FEF7D2FE0BF10105E8B204281E
:1047F0004FF4FA6088BFABF10305FCF7ADF9AB46A7
:104800005FFA8BF00428EFD8DFE800F01A32455E3B
:1048100003004DF20A70C3F6234000904DF20A7077
:10482000C3F6A34001903046514600220023CDE953
:104830000777CDE909770294FDF72CFC3220CBE70E
:104840004DF20A70C3F6A340CDE900003046514650
:1048500000220023CDE90777CDE909770294FDF71F
:1048600019FC322000904046002100223223B8E794
:104870004DF20A70C3F62340CDE9000030465146A0
:1048800000220023CDE90777CDE909770294FDF7EF
:1048900001FC6420A0E74FF0725000900020CBF69E
:1048A000804001903046514600224023CDE90779EF
:1048B000CDE909990294FDF7EDFB402000904046B8
:1048C0000021002240238CE74FF07450CDE9000016
:1048D0003046514600220023CDE90777CDE909771C
:1048E0000294FDF7BFFB40200090404600210022CB
:1048F00040230196FEF7C2FC76E7000010B582B0B7
:10490000019040F2A41001ACC2F200002146012245
:10491000FF23FDF73DF840F2E810C2F20000214607
:104920000122FF23FDF734F8019802B010BD00000A
:10493000FCF734FAFDF730FAFDF794F8FDF72AF9A1
:10494000FDF700F9FDF742F90020FFF713FF00BF64
:10495000FEE700002DE9F041C0F3C751A1F17F054A
:104960000446172DA8BFBDE8F0814FF07F471549D9
:10497000002D0FDA00F054F8B7EB400F1FD30028DA
:104980001DDD002CA8BF002419DAB4F1004F18BFB8
:104990000D4C14E00D4A22FA05F6344208BFBDE87A
:1049A000F08100F03DF8B7EB400F08D3002806DD9A
:1049B000002C03DA4FF40000E8400444B4432046DE
:1049C000BDE8F081CAF24971000080BFFFFF7F009F
:1049D00070B50C46054600F0D8F800F07040B0F114
:1049E000005F07D024F00040C0F1FF40C00F04BFBB
:1049F000204670BD284670BD70B50C46054600F0D7
:104A0000C4F800F07040B0F1004F07D024F000402F
:104A1000C0F1FF40C00F04BF204670BD284670BDE6
:104A200090EA010F48BF81F0004100F14E83421A25
:104A30003CBF801A89184FEAD052A2EBD1534FF0F5
:104A40007F4C1CEA410F18BF9CEA026F00F03B80CC
:104A50004FF0004C4CEA00204CEA012121FA03FC03
:104A600010EB0C0C1ED202F1FF325FEA1C2040EB6F
:104A7000C25038BF70471CF07F0F4FEA400C18BF80
:104A8000BCF17F4F38BF7047C3F12003994008BF86
:104A900020F00100BCF17F4F38BF7047A0F1C0404B
:104AA00000F007BB4FEA3C00000A40EBC25028BFB1
:104AB0001CF0FF0F4FEA400CE6D018BFBCF17F4F4F
:104AC00038BF7047EAE79CEA026F05D010EA5C0F36
:104AD00008BF00F00040704710B500F0A4FA00BF16
:104AE00064FBBE3E10B500F039F90CBF0120002078
:104AF00010BD10B500F032F914BF0120002010BD28
:104B000010B500F0A7F98CBF0120002010BD10B532
:104B100000F0A0F92CBF0120002010BD10B500F05E
:104B2000CDF994BF0120002010BD10B500F0C6F9EA
:104B300034BF0120002010BD50EA010C00F11380A9
:104B40001CF5000F58BFBCF5000F01D48842704718
:104B500007D710F5000F58BF11F5000F22D4884277
:104B60007047894270471CF5000F04D5BCF5000F53
:104B7000F7D5814270474FF0807C1CEB400F38BF67
:104B80001CEB410F0ED28142704710B5FFF7D4FFE6
:104B9000EFF3008020F0104038BF40F0004080F379
:104BA000008810BD00F03FFA0000000900F007B8CF
:104BB0004FF0404010F1004FEFF30080704740107D
:104BC00058BFC0F14040491058BFC1F14041814237
:104BD000EFF30080704700004FF47F0C1CEAD01206
:104BE0001EBF1CEAD11392EA0C0F93EA0C0F00F0DF
:104BF000858090EA010F48BF42F4807240F4000CB7
:104C000041F400002CF07F4120F07F4000B5A2EB82
:104C1000030281420FF2081CACEB504E9EF800E0FC
:104C2000C0F100004FEA4E0E00FB0EFC38BF4900F9
:104C30004FEA2C1C0CFB0EF34FEACE1E0EEB635E0C
:104C40004FEA112C0EFB0CFC4FEAC1214FEA1C531A
:104C500000FB031102F5FA024FEA112C0EFB0CFCCB
:104C60004FEA01314FEADC4C00FB0C1142EB2242CF
:104C7000C14228BF09184CEB03335DF804EB10EB7D
:104C8000410143EBC250B2F57C0F38BF704729D5C4
:104C900012F0F00F1CBF00F1C04000F00040704760
:104CA000008182838485868788898B8C8D8E8F9105
:104CB0009293959697999A9C9D9FA0A2A3A5A7A829
:104CC000AAACAEB0B2B3B5B7B9BCBEC0C2C5C7C955
:104CD000CCCED1D4D7D9DCDFE2E6E9ECF0F3F7FAB9
:104CE000FE0000004FEA400C0CF1807CBCF17E4FCE
:104CF00028BF7047B0F1C04000F0DBB90CEAD11317
:104D000090EA010F48BF42F48072624538BF6345A4
:104D100007D213F47F0F16D080EA010000F00040A4
:104D2000704710B500F07FF9097EFC3E00F005B831
:104D300080EA010000F00040704780EA010000F0C6
:104D4000004000F0B6B912F47F0F04BF024870476C
:104D500080EA010000F0ADB90000C07F50EA010C0C
:104D600000F113801CF5000F58BFBCF5000F01D4F3
:104D70008842704707D710F5000F58BF11F5000F94
:104D800015D488427047894270471CF5000F04D53E
:104D9000BCF5000FF7D5814270474FF0807C1CEBCB
:104DA000400F38BF1CEB410F01D28142704710B554
:104DB00000F039F9922449004FF000504FF0805133
:104DC000FFF7FDBE41000B0ED3F19E0208D950F44F
:104DD00000034FEA032323FA02F048BF4042704722
:104DE00010B500F020F900BF4992248000207047E0
:104DF0006FF0004282EA20007047000010F000418E
:104E000048BF4042B0FA80F310FA03F2C3F19D03A9
:104E10000BD051EAC35101EB1220530638BF704743
:104E200000F1010008BF20F001007047B0FA80F3E4
:104E300010FA03F2C3F19D030AD0D90501EB122049
:104E4000530638BF704700F1010008BF20F0010091
:104E50007047000050EA010C00F113801CF5000FB0
:104E600058BFBCF5000F01D48842704707D710F532
:104E7000000F58BF11F5000F15D4884270478942C2
:104E800070471CF5000F04D5BCF5000FF7D5814223
:104E900070474FF0807C1CEB400F38BF1CEB410F7C
:104EA00001D28142704710B500F0BDF8922449004C
:104EB0004FF080504FF00051FFF781BE50EA010CD7
:104EC00000F113801CF5000F58BFBCF5000F01D492
:104ED0008842704707D710F5000F58BF11F5000F33
:104EE00015D488427047894270471CF5000F04D5DD
:104EF000BCF5000FF7D5814270474FF0807C1CEB6A
:104F0000400F38BF1CEB410F01D28142704710B5F2
:104F100000F089F8922449004FF000504FF0805182
:104F2000FFF74DBE4FF47F0C1CEAD0121EBF1CEAE7
:104F3000D11392EA0C0F93EA0C0F00F0478090EA2D
:104F4000010F48BF42F480724FF0004C4CEA002041
:104F50004CEA012102EB0302A0FB0113A2F50002BF
:104F6000002918BF43F001035B0028BF4FEA330359
:104F700042EB22425FEA132C4CEBC2502EBFBCEB3B
:104F8000436FB2F57C0F70474FEA036CBCF1004FE2
:104F900008BF20F00100B2F57C0F38BF70470BD579
:104FA00082F0FF0212F5803FC8BF704700F1C04099
:104FB000D8BF00F00040704700F5000C5FEA4C0CD1
:104FC00048BF7047B0F1C04000F073B80CEAD1138D
:104FD00090EA010F48BF42F48072624538BF6345D2
:104FE00004D280EA010000F00040704710B500F0E4
:104FF0001AF800BF8900013E00F007B800F009B8B8
:105000005FEA410C5FEA1C6C08D080EA010000F006
:1050100050B85FEA400C5FEA1C6CF6D14FF00040DC
:10502000A0F5800070470EF1020E2EF0030E5EF820
:10503000044B244204D44FEA4102B2F17F4F11D80D
:105040004FEA4003B3F17F4F0CD80ED14FEAD07C2A
:105050000CEB4C0C0CF1020CB2F17F4F08BF4CEB87
:10506000D17C04E04FF0080C01E04FEAD17C0CEB5E
:105070004C0324FA03F404F00704B4F1040C06D240
:105080000EEB840CBDE810404CF0010C6047DFE8EB
:105090000CF0070802024FF00040A0F5800010BDA0
:1050A0000846420018BFD2F1807288BF00F000406D
:1050B00010BDFF2141EAD050C005704790EA010FB2
:1050C00048BF81F000413FF5B2AC421A04D882F0EB
:1050D0000042A0EB020011444FEAD052A2EBD153A0
:1050E0004FF07F4C1CEA410F18BF9CEA026F4AD078
:1050F0004FF0004C4CEA00204CEA012121FA03FC5D
:10510000B0EB0C0C0FD412F0FE0F36D05FEA4C005F
:105110001DD5001240EBC25038BF70471CF03F0F46
:1051200018BF70470BE05FEA1C20A2F1010240EBC0
:10513000C25038BF70471CF07F0F18BF7047C3F1D3
:105140002003994014BF401E20F0010070474FEA31
:105150001223800808BF7047B0FA80FCA2EB0C0253
:10516000CCF1280C60FA0CF093EA122F04BF00EB8C
:10517000C25070474FEAC3707047130A5FEADC10F1
:1051800008BF7047F6E79CEA026F04D010EA5C0F94
:1051900008BF0020704710B5FFF745FF40DFF63E1F
:1051A00081F000407047303132333435363738398A
:1051B0004142434445464030580030313233343563
:1051C00036373839616263646566403078000000C4
:1051D00000000000000001020304060708090000A7
:1051E00000000102030400007074657800110000E3
:1051F00020200000010200014000400001000000EA
:105200000000000000000000FFFFFFFFFFFFFFFFA6
:10521000FFFFFFFFFFFFFFFFFFFFFFFFFFFFFFFF9E
:10522000FFFFFFFFFFFFFFFFFFFFFFFFFFFFFFFF8E
:10523000FFFFFFFFFFFFFFFFFFFFFFFFFFFFFFFF7E
:10524000FFFFFFFFFFFFFFFFFFFFFFFFFFFFFFFF6E
:10543000FFFFFFFFFFFFFFFFFFFFDFFF9FE73ECF05
:10544000DEB6BD9E9D9EBD9EBD9EBD9EBDA6DEB62A
:105450003ECF9FE7DFFFFFFFFFFFFFFFFFFFFFFFE5
:10546000FFFFFFFFFFFFFFFFFFFFFFFFFFFFFFFF4C
:10547000FFFFFFFFFFFFFFFFFFFFFFFFFFFFFFFF3C
:10548000FFFFFFFFFFFFFFFFFFFFFFFFFFFFFFFF2C
:10549000FFFFFFFFFFFFFFFFFFFFFFFFFFFFFFFF1C
:1054A000FFFFFFFFFFFFFFFFFFFFFFFFFFFFFFFF0C
:1054B000FFFFFFFFBFEFDDAEBC653B2D3B1D5C1565
:1054C0007C15BD25DD1DDD1DDD25DD1DBD257C1DFE
:1054D0005C151B153B2D9C559DA69FEFFFFFFFFF05
:1054E000FFFFFFFFFFFFFFFFFFFFFFFFFFFFFFFFCC
:1054F000FFFFFFFFFFFFFFFFFFFFFFFFFFFFFFFFBC
:10550000FFFFFFFFFFFFFFFFFFFFFFFFFFFFFFFFAB
:10551000FFFFFFFFFFFFFFFFFFFFFFFFFFFFFFFF9B
:10552000FFFFFFFFFFFFFFFFFFFFFFFFFFFFFFFF8B
:105530003ECF7B4DDB143C0DBD253E2E5E367E36C8
:105540007E369E369E3E9F3E9F3E9E3E9E367E36D9
:105550007E365E363E2EBD251B0DBB0C1B3D1EC789
:10556000FFFFFFFFFFFFFFFFFFFFFFFFFFFFFFFF4B
:10557000FFFFFFFFFFFFFFFFFFFFFFFFFFFFFFFF3B
:10558000FFFFFFFFFFFFFFFFFFFFFFFFFFFFFFFF2B
:10559000FFFFFFFFFFFFFFFFFFFFFFFFFFFFFFFF1B
:1055A000FFFFFFFFFFFFFFFFFFFFFFFF5EDF7C5DF1
:1055B000BB0C7C1D1E365E367E369F3EBF56DF66B8
:1055C000FF7E1F8F3F975F9F5F9F3F971F8FFF76E5
:1055D000DF66BF569F3E7E365E361E367C1DBB04A0
:1055E0003B4D5ED7FFFFFFFFFFFFFFFFFFFFFFFF0A
:1055F000FFFFFFFFFFFFFFFFFFFFFFFFFFFFFFFFBB
:10560000FFFFFFFFFFFFFFFFFFFFFFFFFFFFFFFFAA
:10561000FFFFFFFFFFFFFFFFFFFFFFFFFFFFFFFF9A
:10562000FFFFFFFFFFFFFFFFDFF7BC6DBB147C1D1B
:105630003E365E369E3EBF5EFF865FA79FC7BFD7E2
:10564000BFE7DFEFDFEFDFEFDFEFDFEFDFEFBFE73A
:105650009FD77FC75F9FFF7EBF5E7E3E5E363E3632
:105660007C1DBB14BC6DDFF7FFFFFFFFFFFFFFFFDB
:10567000FFFFFFFFFFFFFFFFFFFFFFFFFFFFFFFF3A
:10568000FFFFFFFFFFFFFFFFFFFFFFFFFFFFFFFF2A
:10569000FFFFFFFFFFFFFFFFFFFFFFFFFFFFFFFF1A
:1056A000FFFFFFFFFFFF3ECF7A143C151E3E3E2E4C
:1056B0007E3EDF663F9F9FC7BFDFDFEFFFF7DFF76D
:1056C000DFF7DFF7DFF7DFF7DFF7DFF7DFF7DFF72A
:1056D000DFF7DFF7DFEFBFDF9FC73F97BF667E3E95
:1056E0003E361E3E3C1D9A245ED7FFFFFFFFFFFFA4
:1056F000FFFFFFFFFFFFFFFFFFFFFFFFFFFFFFFFBA
:10570000FFFFFFFFFFFFFFFFFFFFFFFFFFFFFFFFA9
:10571000FFFFFFFFFFFFFFFFFFFFFFFFFFFFFFFF99
:10572000FFFFFFFF3D967A149D2D3E363E369F5E6D
:105730003F9F7FC7BFDFDFE7DFEFDFEFDFE7DFE7B9
:10574000DFE7DFE7DFE7DFE7DFE7DFE7DFE7DFE729
:10575000DFE7DFE7DFEFDFEFBFE7BFDF7FBF1F97E9
:105760009E5E3E363E36BD359B1C7DA6FFFFFFFF8D
:10577000FFFFFFFFFFFFFFFFFFFFFFFFFFFFFFFF39
:10578000FFFFFFFFFFFFFFFFFFFFFFFFFFFFFFFF29
:10579000FFFFFFFFFFFFFFFFFFFFFFFFFFFFFFFF19
:1057A000FFFF7C659B0CFD353E2E7E4EFF867FBF46
:1057B000BFDFBFE7BFE7BFE7BFDFBFDFBFDFBFDFE1
:1057C000BFDFBFDFBFDFBFDFBFDFBFDFBFDFBFDFE9
:1057D000BFDFBFDFBFDFBFDFBFE7BFE7DFE7BFDFA1
:1057E0005FB7DF7E7E463E36FD3DBB1CFC7DFFFF86
:1057F000FFFFFFFFFFFFFFFFFFFFFFFFFFFFFFFFB9
:10580000FFFFFFFFFFFFFFFFFFFFFFFFFFFFFFFFA8
:10581000FFFFFFFFFFFFFFFFFFFFFFFFFFFFFFFF98
:105820005B5D9B0CFE351E2E7E4E1F9F7FC79FDF4C
:10583000BFDFBFDF9FD7BFD7BFD7BFD7BFD7BFD7C8
:10584000BFD7BFD7BFD7BFD7BFD7BFD7BFD7BFD7A8
:10585000BFD7BFD7BFD7BFD7BFD7BFD7BFDFBFDF88
:10586000BFDF7FC71F975E4E1E2EFE3DDB24BC7D33
:10587000FFFFFFFFFFFFFFFFFFFFFFFFFFFFFFFF38
:10588000FFFFFFFFFFFFFFFFFFFFFFFFFFFFFFFF28
:10589000FFFFFFFFFFFFFFFFFFFFFFFFFFFF7C6D2D
:1058A0009B0CFE3D1E367E5E3FA79FCF9FD79FD7A6
:1058B0009FCF9FCF9FD79FCF9FCFBFCF9FD7BFD720
:1058C000BFD7BFD7BFD7BFD7BFD7BFD7BFD7BFD728
:1058D000BFD7BFD7BFD79FD7BFD79FD79FCF9FCFA8
:1058E0009FD79FD77FCF1F9F7E561E36FE3DBB1C86
:1058F000FC85FFFFFFFFFFFFFFFFFFFFFFFFFFFF35
:10590000FFFFFFFFFFFFFFFFFFFFFFFFFFFFFFFFA7
:10591000FFFFFFFFFFFFFFFFFFFFFFFF5D9E5B1429
:10592000FE3DFE2D7E5E1FA77FCF9FCF9FCF9FCFD7
:105930009FCF9FCF9FCF9FCF9FCF9FCF9FCF9FCFF7
:105940009FCF9FCFBFCFBFCFBFCF9FCF9FCF9FCF87
:105950009FCF9FCF9FCF9FCF9FCF9FCF9FCF9FCFD7
:105960007FCF9FCF9FCF7FC71F9F7E5EFE2DDE3DE7
:105970009B249DAEFFFFFFFFFFFFFFFFFFFFFFFF29
:10598000FFFFFFFFFFFFFFFFFFFFFFFFFFFFFFFF27
:10599000FFFFFFFFFFFFFFFFFFFF7EDF3A14BD3574
:1059A000FE2D5E561F9F7FBF7FC77FC77FC77FC704
:1059B0007FC79FC79FC79FC79FC79FC79FC79FC7D7
:1059C0009FC79FC79FC79FC79FC79FC79FC79FC7A7
:1059D0009FC79FC79FC79FC79FC79FC77FC77FC7D7
:1059E0007FC77FC77FC77FC75FBFFF965E56FE2D0D
:1059F000BD3D5A247FE7FFFFFFFFFFFFFFFFFFFFD3
:105A0000FFFFFFFFFFFFFFFFFFFFFFFFFFFFFFFFA6
:105A1000FFFFFFFFFFFFFFFFDFF71A143C25FE35F6
:105A20001E46FE965FBF5FBF5FBF5EBF7FBF7FBF8B
:105A30007FBF7FBF7FBF7FBF7FBF9FBF9FBF9FBF16
:105A40009FBF9FBF9FBF9FBF9FBF9FBF9FBF9FBF66
:105A50009FBF9FBF9FBF7FBF7FBF7FBF7FBF7FBFF6
:105A60007FBF7FBF5FBF5FBF7FBF5FBFDE8E1E4652
:105A7000DE355C2D5A2CDFFFFFFFFFFFFFFFFFFF2E
:105A8000FFFFFFFFFFFFFFFFFFFFFFFFFFFFFFFF26
:105A9000FFFFFFFFFFFFFFFF5B657B0CBE35FE3D99
:105AA000BE7E3FAF5FB75FB75FB75FB77FB75FB728
:105AB0007FB77FB77FB77FB77FB77FB79FB79FB7F6
:105AC0009FB79FB79FB79FB79FB79FB79FB79FB726
:105AD0009FB79FB77FB77FB77FB77FB77FB77FB7D6
:105AE0007FB75FB75FB75FB75FB75FB73FAF9E7E08
:105AF000FE3DDE359B1CDC7DFFFFFFFFFFFFFFFF50
:105B0000FFFFFFFFFFFFFFFFFFFFFFFFFFFFFFFFA5
:105B1000FFFFFFFFFFFF9FE7FA0B7D2DBE2D5E66A7
:105B2000FE9E3FB73FAF3FAF3FAF5FAF5FAF5FAFEF
:105B30007FAF7FAF7FAF7FAF7FAF7FAF9FB79FB7A5
:105B40009FB79FB79FB79FB79FB79FB79FB79FB7A5
:105B50009FB77FB77FAF7FAF7FAF7FAF7FAF7FAFA5
:105B60005FAF5FAF5FAF5FAF3FAF3FAF3FB7FE9E8F
:105B70005E66BE359D353A249FEFFFFFFFFFFFFFB6
:105B8000FFFFFFFFFFFFFFFFFFFFFFFFFFFFFFFF25
:105B9000FFFFFFFFFFFFFB549B149D2DFE4DDE8E8C
:105BA0001EA73FA73FA73FA73FA75FA75FA75FA786
:105BB0005FA77FAF7FAF7FAF7FAF7FAF7FAF7FAF9D
:105BC0007FAF9FAF9FAF7FAF7FAF9FAF9FAF9FAFC5
:105BD0007FAF7FAF7FAF7FAF7FAF7FAF7FAF5FA77D
:105BE0005FA75FA73FA73FA73FA73FA73FAF1EA75E
:105BF000BE8EFE459E2DDC1C7C6DFFFFFFFFFFFF70
:105C0000FFFFFFFFFFFFFFFFFFFFFFFFFFFFFFFFA4
:105C1000FFFFFFFFBFEFFA135D2D9E355E6EFE9E08
:105C20001FA71F9F1F9F3F9F3FA73FA73FA75FA79C
:105C30005FA75FA75FA7BFA79FA77FA77FA77FA734
:105C40007FA77FA77FA77FA77FA77FA77FA77FA724
:105C50007FA77FA77FA79FA7BFA77FA75FA75FA7F4
:105C60005FA73FA73FA73FA73F9F1F9F1F9F1EA75D
:105C7000FE9E5E669E2D7D353A249FEFFFFFFFFF5F
:105C8000FFFFFFFFFFFFFFFFFFFFFFFFFFFFFFFF24
:105C9000FFFFFFFFFC8D7B147D2DDE459E86FE9E63
:105CA000FE9EFE961F9F1F9F3F9F3F9F3F9F5F9FB0
:105CB0003F9FBFA7FFB77FA7BFA7FFB77F9F5F9F8C
:105CC0007F9F7F9F7F9F7F9F7F9F7F9F7F9F7F9FE4
:105CD0005F9F7F9FFFB7DFAF7FA7FFB7BFA73F9F44
:105CE0005F9F3F9F3F9F3F9F1F9F1F9FFF9EFE9E67
:105CF000FE9E9E7EDE457D2D7B1CDC85FFFFFFFF2B
:105D0000FFFFFFFFFFFFFFFFFFFFFFFFFFFFFFFFA3
:105D1000FFFFDFF71A243D2D9E353E66BE8EDE96D0
:105D2000DE96FF96FF961F971F973F973F971F9707
:105D3000DFA7BFA7354C50227022586DFFAF9F9749
:105D40007F977F977F977F977F977F977F977F97A3
:105D50009F97FFAF797590225022154CBFA7DFA700
:105D60001F973F973F971F971F971E97FF96FE9687
:105D7000DE96BE8E1E5E7D353D35FA23DFF7FFFFD2
:105D8000FFFFFFFFFFFFFFFFFFFFFFFFFFFFFFFF23
:105D9000FFFF1ECF1A1C5D2DBE3D5E76BE8EDE8ED1
:105DA000DE8EFE8EFF8E1F8F1F8F3F8F3F8F7F9760
:105DB000DFA7533BCC00EF098E01CC00796DFFAF1C
:105DC0007F8F7F977F977F977F977F977F977F8F33
:105DD000FFAFB975CB008E01EF09CC00323BBFA7F6
:105DE0009F973F8F3F8F1F8F1F8FFF8EFE8EDF8EFF
:105DF000DE8EBE8E5E6E9E3D3D2DFA13DEBEFFFF33
:105E0000FFFFFFFFFFFFFFFFFFFFFFFFFFFFFFFFA2
:105E1000FFFFFD959B1C5D2DDE4D7E7E9E86BE8622
:105E2000BE86DE86FF86FE861F871F871F87FFA729
:105E3000D75C0D01D3221323142B5112CF11FD8EE9
:105E4000FF977F877F8F7F8F7F8F7F8F7F8FFF97DA
:105E50001D8FEF113112142BF322F3222D019754D1
:105E6000FFA71F871F871F87FF86FF86DE86BE86E8
:105E7000BE869E867E76DE4D5D2D5B1C3B6DFFFFF4
:105E8000FFFFFFFFFFFFFFFFFFFFFFFFFFFFFFFF22
:105E9000FFFF9B44FC2C5D35FE5D7E7E9E7E9E7EDC
:105EA000BE7EDE7EDF7EFF7EFF861F875F873F8FA1
:105EB000B22A5112342314231423342B8F01154C8E
:105EC000FF9F5F7F5F875F875F875F875F7FFF9F42
:105ED000354C6F01342B14231423142B721AB22A5D
:105EE0001E8F7F871F87FF86FF7EDF7EDE7EBE7E62
:105EF0009E7E9E7E7E76FE555D2DDC241A24FFFF5D
:105F0000FFFFFFFFFFFFFFFFFFFFFFFFFFFFFFFFA1
:105F1000DFF75B2C3D357D351E5E7E767E769E7688
:105F2000BE76BE76DE7EDF7EFF7EFF7EDF8FFB7578
:105F3000511AF42231121112F1117212921AF22A2C
:105F40007F8F9F7F5F7F5F7F5F7F5F7F9F7F9F8F61
:105F5000F232721A721AF10911123112F42231124C
:105F6000FB75DF8FFF7EFF7EDE7EDE7EBE76BE7639
:105F70009E767E765E76FE5D5D35FC2CDA139FEFB5
:105F8000FFFFFFFFFFFFFFFFFFFFFFFFFFFFFFFF21
:105F90007FE75B2C3D357D3D1E665E6E7E6E7E6EC0
:105FA0009E76BE76BF76DF76FF76FF76FF8F5965E9
:105FB000D009F011F54BD975996D3333F009722280
:105FC0007C76FF7F5F775F775F775F77DF7F9C7E91
:105FD0009222F0091333996DDA75154CF011B0095E
:105FE0003965FF8FFE76FF76DF76BE76BE769E76CB
:105FF0007E6E7E6E5E6EFE5D7D351D2DBA0BFEC61D
:10600000FFFFFFFFFFFFFFFFFFFFFFFFFFFFFFFFA0
:106010003ED75B2C3D357D3DFE5D3E6E5E667E6E01
:106020007E6E9E6EBE6EDF6EDF6EFF6EDF87D854B3
:10603000CC00B75CFF9FFF8FFF8FDF9713332E01DC
:106040003B6EFF7F3F6F3F6F3F6F3F6FFF7F5C6E29
:106050006E09F22ABF97FF8FFF87FF9FF85CCC0085
:10606000B754FF8FFF6EDF6EBF6EBE6E9E6E7E6E8C
:106070007E6E5E6E3E6EFE5D7D3DFD2CDA0B5DAE8E
:10608000FFFFFFFFFFFFFFFFFFFFFFFFFFFFFFFF20
:10609000FEC67B2C1D357D3DFE5D1E663E665E6642
:1060A0007E669E669E66BF66DF66DF66FF7FD53BC7
:1060B000D12AFF977F671E671E67FF7FDD7E6E1107
:1060C000BA5DFF773F673F6F3F6F3F67FF77FB65C5
:1060D0006E119D76FF7F1E671F677F67FF97F22A0D
:1060E000B43BFF87DF66DF66BF669E669E667E66A0
:1060F0005E663E661E66FE5D7D3D1D2DFB0BBC8D06
:10610000FFFFFFFFFFFFFFFFFFFFFFFFFFFFFFFF9F
:10611000DEC65B241D357D3DDE55FE5D1E5E3E5EAA
:106120005E5E7E5E9E5E9E66BE66DE669F6FB74C5E
:106130009A5DFF6F1E5F3E673E671F5FFF77B75434
:106140009A55BF6F3E673E673E673E67BF67BA5569
:106150009754FF773F5F3E673F671E67DF6FBA5D0B
:10616000B74C9F77DE66BE669F5E9E5E7E5E5E5E1D
:106170003E5E1E5EFE5DDE555D3D1D2DFB0B7C7D96
:10618000FFFFFFFFFFFFFFFFFFFFFFFFFFFFFFFF1F
:10619000BEBE5C241D355D3DBD4DDE55FE551E5613
:1061A0003E565E567F5E9F5EBE5EBE5EFF5EDE66F4
:1061B000FE66FF561E5F3E5F3E5F1E5F5F5F3E6F87
:1061C000FE663F5F3E5F3E5F3E5F3E5F3F5FFE5E5F
:1061D0003E6F5F5F1E5F3E5F3E5F1E5FFF5E1E673E
:1061E000DE66FF5EBE5EBF5E9F5E7E5E5E563E56B4
:1061F0001E56FE55DE55BD4D5D3DFD2CFB0B5C7501
:10620000FFFFFFFFFFFFFFFFFFFFFFFFFFFFFFFF9E
:10621000BEBE3B1CFD2C3D359D4DBE4DFE4D1E565C
:106220003E565E567E567E569E56BE56BE561F5FE4
:106230001F57FE561E571E571E571E571E575F5F8D
:106240003F5F1E571E571E571E571E571E573F5F54
:106250005F5F1E571E571E571E571E57FE561F576D
:106260001F5FBE56BE569E567E567E565E563E56A4
:10627000FE4DDE4DBE4D9D453D35FD2CFB0B5C7549
:10628000FFFFFFFFFFFFFFFFFFFFFFFFFFFFFFFF1E
:106290009DB61B1CFD2C1D357D459D45DE45FE45EF
:1062A0001E4E3E4E5E4E7E4E9E4E9E4EBE4EDE4E6E
:1062B000DE4EFE4EFE561E571E571E571E571E4FD1
:1062C0001E4F1E571E571E571E571E571E571E4F36
:1062D0001E4F1E571E571E571E57FE4EFE4EDE4EB9
:1062E000DE4EBF4E9F4E9E4E7E4E5E4E3E4EFE4D4D
:1062F000FE45DE459D457D3D1D35DD2CDB035C7592
:10630000FFFFFFFFFFFFFFFFFFFFFFFFFFFFFFFF9D
:106310009DBEFB1BDD2CFD2C5D3D7D3DBE3DDE4568
:10632000FE453E467F465E467E469E469F46BE4EA4
:10633000DE4EDE4EFE4EFE4E1E4F1E4F1E4F1E4FB9
:106340001E4F1E4F1E4F1E4F1E4F1E4F1E4F1E4FE5
:106350001E4F1E4F1E4F1E4FFE4EFE4EDE4EDF4E98
:10636000BF4E9F4E9E4E7E465E467F463E46FE4553
:10637000DE45BE3D7D3D5D3DFD2CBD249A037C7D0B
:10638000FFFFFFFFFFFFFFFFFFFFFFFFFFFFFFFF1D
:10639000DEC6BA1BBD2CDD2C1D355D357D359D352A
:1063A000DE3D3F3E3F3EFF463F47DF46BF3E9E3E0F
:1063B000BE3EBE3EDE3EFE46FE3EFE3EFE3EFE3E95
:1063C000FE3EFE3EFE3EFE3EFE3EFE3EFE3EFE3EED
:1063D000FE3EFE3EFE3EFE3EFE46DE3EDE3EBE3E55
:1063E0009E3E9F3EDF463F47FF463F3E3F3EDE3DEF
:1063F0009E357D353D351D2DFD2CBC243A03FC9D7D
:10640000FFFFFFFFFFFFFFFFFFFFFFFFFFFFFFFF9C
:106410005EDF7A1BBC2CDD2CFD2C1D2D5D2D9E2DF1
:106420001F3654232C0151023724FD35BF3E3F3F18
:106430007F3F7F3F5F3F1F3FFF3EFE3EFE3EFE3EF3
:10644000FE3EFE3EFE3EFE3EFE3EFE3EFE3EFE3E6C
:10645000FE3EFE3EFE3EFF3E1F3F5F3F7F3F9F47AB
:106460005F3FDF3EFD353724710A2C01331BFF35BA
:106470009E2D5D2D1D2DFD2CDD2C9C241903BEC6EB
:10648000FFFFFFFFFFFFFFFFFFFFFFFFFFFFFFFF1C
:10649000BFF7791B7C2CBD24DD2C1D2D3D2D9E2DA1
:1064A000BE356D094A294A214900EB00CE01D20AC6
:1064B000161C192DFC359E3E3F3F9F47BF47DF47C7
:1064C000DF47BF3FBF3F9F3F9F3FBF3FBF3FDF47CC
:1064D000DF47BF479F473F3FBE3EFC35192D161C87
:1064E000F20ACF01EC0049002A196A296C099E2D95
:1064F0009F2D3D2DFD2CDD24BD245C24F9025EE79B
:10650000FFFFFFFFFFFFFFFFFFFFFFFFFFFFFFFF9B
:10651000FFFFDA2B1B1C9C24BD24FD2C1D2D7E2D82
:10652000DF35CF018F7399DE36A5F273AF52AC29F8
:10653000EB10CB00EC006D013002D20A941B362424
:10654000B724F82C792D9A359A35792DF82CB72463
:106550005624941BF20A30028E01EC00CB00EB08AB
:106560008C29AF4AD273159D98DED07BCE01DF35E2
:106570007E2D1D2DFD2CBD249C241B14591BFFFFBB
:10658000FFFFFFFFFFFFFFFFFFFFFFFFFFFFFFFF1B
:10659000FFFF3B7D7A0B9C24BD24DD24FD2C3D2D8B
:1065A0003F36B3020B42FAEE1BEF3BF71BF7BAE69E
:1065B00018C676AD948C71636F3ACD294C190B09CE
:1065C000EB00CB00EB00EB00EB00EB00CB00EB00B3
:1065D0000B094C19CD296F3A5163948C56A518C6F6
:1065E000BADE1BEF3BF7FBEE1AEF2C4A92023F3666
:1065F0003D2DFD2CDD24BD249C245A0B9A5CFFFF0D
:10660000FFFFFFFFFFFFFFFFFFFFFFFFFFFFFFFF9A
:10661000FFFFBDC6D9125C249C24BD24FD2C1D2D7A
:10662000DF355924091196BDFBE6BBDEFBE63CEFE6
:106630007DF7BEFFDEFFDEFF9DFF3CEFDBDE7ACEA7
:1066400019BE98AD57A5379D379D57A598ADF9BD93
:106650007ACEDBDE3CEF9DFFDEFFDEFFBDFF7DF788
:106660001CEFDBE6BADEDBE6D7C52A11181CDF35E6
:106670001D2DDD2CBD249C247C24D8127DBEFFFF63
:10668000FFFFFFFFFFFFFFFFFFFFFFFFFFFFFFFF1A
:10669000FFFFDFFFF812FB1B7C249C24DD24FD2C74
:1066A0003E2DDF356D010E639CFFFBE6FBE61CE72C
:1066B0003CEF5DF77DF7BEFFDFFFFFFFFFFFFFFF52
:1066C000FFFFFFFFFFFFFFFFFFFFFFFFFFFFFFFFDA
:1066D000FFFFFFFFFFFFDEFF9EFF7DF75DEF3CEF5B
:1066E000FCE6DBE6DBE67CFF6F6B4C01BF353E2D45
:1066F000FD24BD249C247C241B1C1823DFF7FFFFF2
:10670000FFFFFFFFFFFFFFFFFFFFFFFFFFFFFFFF99
:10671000FFFFFFFF3B7DD90A5C249C24BD24DD24C0
:10672000FD241F365513E81096B5BAE63BF79DFFDA
:10673000BEFFBEFFBEFFBEFFBEFFBEFFBEFFBEFF71
:10674000BEFFBEFFBEFFBEFFBEFFBEFFBEFFBEFF61
:10675000BEFFBEFFBEFFBEFFBEFF9EFF9EFF9DFFB2
:106760007DFF3BF7BAE6B6BD291934131F36FD2469
:10677000DD24BC247C245C2439137B85FFFFFFFFD0
:10678000FFFFFFFFFFFFFFFFFFFFFFFFFFFFFFFF19
:10679000FFFFFFFFBFF7980AFB1B5C249C24BD246E
:1067A000DD243E25BE3D0F122A09AF3A915B948449
:1067B00076AD39CEFBE6BDFFFEFFFFFFFFFFFFFF1B
:1067C000FFFFFFFFFFFFDFFFDFFFFFFFFFFFFFFF19
:1067D000FFFFFFFFFFFFFEFF9DFFFBE639CE97ADFA
:1067E0009484915BCF3A4A09EE119E353E25DD2413
:1067F000BD249C245C241B24F822BFF7FFFFFFFF6D
:10680000FFFFFFFFFFFFFFFFFFFFFFFFFFFFFFFF98
:10681000FFFFFFFFFFFF7A5CD9023C245C249C242D
:10682000BD24DD24DF2DBA344C09AE01AE01AE012A
:106830000E0A4F1AD0327153136C9484169D97AD83
:10684000F8BD7AD6DBE6FBEEFBEEDBE69AD618BEA9
:1068500097AD169DB484136C7153D0324F1A0F0A42
:10686000AE01AE01CF014C099A34DF2DDD24BD24E9
:106870009C245C243C241913FB6CFFFFFFFFFFFFEB
:10688000FFFFFFFFFFFFFFFFFFFFFFFFFFFFFFFF18
:10689000FFFFFFFFFFFF9FEF570ADB1B3C247C2419
:1068A0009C24BD24DD24DF35542B8D11D322D3222B
:1068B000D222921A510AF001CF01CE01CE01EE0987
:1068C0000E126F1AB02AF032F03AB02A6F220E126E
:1068D000EE01CE01CE01CF01F001510A921AD2226F
:1068E000D322D322AE193423BF35DD24BD249C240A
:1068F0007C243C24FB1BB8229FEFFFFFFFFFFFFF20
:10690000FFFFFFFFFFFFFFFFFFFFFFFFFFFFFFFF97
:10691000FFFFFFFFFFFFFFFFFB74780A1C245C24CE
:106920007C249C24BC241E257E359122EF19D32281
:10693000F322F322142314231423F422F322D32268
:10694000D31A921A7212710A710A72129212D31A1F
:10695000D322F3221423142314231423F322F32227
:10696000D3220F1A71225E353E25BC249C247C2440
:106970003C241B24B8127B8DFFFFFFFFFFFFFFFFAE
:10698000FFFFFFFFFFFFFFFFFFFFFFFFFFFFFFFF17
:10699000FFFFFFFFFFFFFFFFFFFFD81A190B3C248B
:1069A0003C247C249C249C245F2D3D3D2F1AEF1910
:1069B000D322D322F32214231423142314231423C5
:1069C000142314231423142314231423142314230F
:1069D0001423142314231423F422F322F322D322A6
:1069E0000F1A0F1A1C355F259C249C245C243C1C28
:1069F0001C2439131823FFFFFFFFFFFFFFFFFFFFDA
:106A0000FFFFFFFFFFFFFFFFFFFFFFFFFFFFFFFF96
:106A1000FFFFFFFFFFFFFFFFFFFF9FEF37129A13FC
:106A20001C243C1C5C1C9C249C245F2D1C3D70225F
:106A3000EF11D322F322F322F4221423142314237C
:106A4000142314231423142314231423142314238E
:106A5000142314231423F422F322F322D322EF1954
:106A60005022FC345F2D9C247C245C243C1C1C2480
:106A7000BA1B77229FEFFFFFFFFFFFFFFFFFFFFF24
:106A8000FFFFFFFFFFFFFFFFFFFFFFFFFFFFFFFF16
:106A9000FFFFFFFFFFFFFFFFFFFFFFFF9DC6371256
:106AA000BB1B1C243C1C5C1C7C249C1C5F255D3592
:106AB000132BCE11711AF322F322F4221423142380
:106AC000142314231423142314231423142314230E
:106AD00014231423F422F322F322711ACE19F22A7A
:106AE0003D355F259C1C7C245C1C3C241C24DB2342
:106AF0007822BDC6FFFFFFFFFFFFFFFFFFFFFFFF85
:106B0000FFFFFFFFFFFFFFFFFFFFFFFFFFFFFFFF95
:106B1000FFFFFFFFFFFFFFFFFFFFFFFFFFFF7B8D7B
:106B20001712DB1B1C243C1C5C1C7C247C1C1E25BB
:106B30009F35F7332F22EF11911AF322F322F4221B
:106B4000F4221423142314231423142314231423AE
:106B5000F422F322F322921AEF192F22D6337F3533
:106B60001E257C1C7C245C243C241C24FB237722D3
:106B7000BC9DFFFFFFFFFFFFFFFFFFFFFFFFFFFFCA
:106B8000FFFFFFFFFFFFFFFFFFFFFFFFFFFFFFFF15
:106B9000FFFFFFFFFFFFFFFFFFFFFFFFFFFFFFFF05
:106BA0007B955712DB1B1C243C1C5C1C7C247C2426
:106BB000BD1C7F2DFC34952B91220F1A301A721AAE
:106BC000D322F422F422F422F422F422F422D32257
:106BD000921A301A0F1A9122752BDC347F2DDD1C8E
:106BE0007C1C7C245C243C1C3C24FB23B822BC9DE4
:106BF000FFFFFFFFFFFFFFFFFFFFFFFFFFFFFFFFA5
:106C0000FFFFFFFFFFFFFFFFFFFFFFFFFFFFFFFF94
:106C1000FFFFFFFFFFFFFFFFFFFFFFFFFFFFFFFF84
:106C2000FFFF1CAE571A7A131C241C1C3C1C5C244E
:106C30007C247C1CFE247F35FC341834542BD22A4F
:106C400050220F1A0F1A301A301A0F1A0F1A502228
:106C5000D22A542B182CDC347F35FE247C1C7C2457
:106C60005C1C3C1C3C241C24BA23B82A3DB6FFFF04
:106C7000FFFFFFFFFFFFFFFFFFFFFFFFFFFFFFFF24
:106C8000FFFFFFFFFFFFFFFFFFFFFFFFFFFFFFFF14
:106C9000FFFFFFFFFFFFFFFFFFFFFFFFFFFFFFFF04
:106CA000FFFFFFFF5DBE771A190B1C243C243C1C20
:106CB0005C1C5C247C247C1CDD1C5F2D5F353D3D11
:106CC0009A34F733B633952B952BB633F72B9A348A
:106CD0001D355F353F2DDE1C7C1C7C245C245C1C38
:106CE0003C243C241B243A1BB82A9DC6FFFFFFFF0F
:106CF000FFFFFFFFFFFFFFFFFFFFFFFFFFFFFFFFA4
:106D0000FFFFFFFFFFFFFFFFFFFFFFFFFFFFFFFF93
:106D1000FFFFFFFFFFFFFFFFFFFFFFFFFFFFFFFF83
:106D2000FFFFFFFFFFFF9FEF79337812BB1B1C248F
:106D30001C1C3C245C1C5C247C247C247C1C9D1C32
:106D4000FE243F2D5F2D5F355F2D5F2D3F2DFE24EF
:106D5000BD1C7C1C7C247C245C1C3C1C3C1C1C1C22
:106D60001B24BB23981AF94B9FEFFFFFFFFFFFFF88
:106D7000FFFFFFFFFFFFFFFFFFFFFFFFFFFFFFFF23
:106D8000FFFFFFFFFFFFFFFFFFFFFFFFFFFFFFFF13
:106D9000FFFFFFFFFFFFFFFFFFFFFFFFFFFFFFFF03
:106DA000FFFFFFFFFFFFFFFFFFFFFCA57712B80A01
:106DB000BB1B1B241C1C3C1C3C1C3C1C5C1C7C2466
:106DC0007C247C1C7C1C7C1C7C1C7C1C7C1C5C2413
:106DD0005C245C1C5C1C3C1C3C1C1C1C1B1CBB1B4E
:106DE000B8129722FCADFFFFFFFFFFFFFFFFFFFF81
:106DF000FFFFFFFFFFFFFFFFFFFFFFFFFFFFFFFFA3
:106E0000FFFFFFFFFFFFFFFFFFFFFFFFFFFFFFFF92
:106E1000FFFFFFFFFFFFFFFFFFFFFFFFFFFFFFFF82
:106E2000FFFFFFFFFFFFFFFFFFFFFFFF9FEFDB7491
:106E30009812980A7A0BFB1B1C1C1C1C3C1C3C1C4B
:106E40003C1C5C1C5C1C5C1C5C1C3C1C3C1C3C1C02
:106E50003C1C3C1C1C1C1C1CFB1B5A0B780A98126B
:106E6000DB747FEFFFFFFFFFFFFFFFFFFFFFFFFF71
:106E7000FFFFFFFFFFFFFFFFFFFFFFFFFFFFFFFF22
:106E8000FFFFFFFFFFFFFFFFFFFFFFFFFFFFFFFF12
:106E9000FFFFFFFFFFFFFFFFFFFFFFFFFFFFFFFF02
:106EA000FFFFFFFFFFFFFFFFFFFFFFFFFFFFFFFFF2
:106EB0009FEF9C953823580AB90A5A0BDB1BFB1B22
:106EC0001B241B1C1C1C1C241C1C1C1CFB1BFB1B38
:106ED000DB1BBB1B5A0BB802580A18237B8D7FEFB4
:106EE000FFFFFFFFFFFFFFFFFFFFFFFFFFFFFFFFB2
:106EF000FFFFFFFFFFFFFFFFFFFFFFFFFFFFFFFFA2
:106F0000FFFFFFFFFFFFFFFFFFFFFFFFFFFFFFFF91
:106F1000FFFFFFFFFFFFFFFFFFFFFFFFFFFFFFFF81
:106F2000FFFFFFFFFFFFFFFFFFFFFFFFFFFFFFFF71
:106F3000FFFFFFFFFFFF3EDF1B7D582BD81298128B
:106F4000B812D90AD90AF90AF90AD90AB90A980A63
:106F5000780A980A1823DB741EDFFFFFFFFFFFFF8C
:106F6000FFFFFFFFFFFFFFFFFFFFFFFFFFFFFFFF31
:106F7000FFFFFFFFFFFFFFFFFFFFFFFFFFFFFFFF21
:106F8000FFFFFFFFFFFFFFFFFFFFFFFFFFFFFFFF11
:106F9000FFFFFFFFFFFFFFFFFFFFFFFFFFFFFFFF01
:106FA000FFFFFFFFFFFFFFFFFFFFFFFFFFFFFFFFF1
:106FB000FFFFFFFFFFFFFFFFFFFFFFFFBFF73EDF0A
:106FC0009DC6FCA5BC959C959C8D9C95FC9D9DBEED
:106FD0001EDF9FEFFFFFFFFFFFFFFFFFFFFFFFFF32
:106FE000FFFFFFFFFFFFFFFFFFFFFFFFFFFFFFFFB1
:106FF000FFFFFFFFFFFFFFFFFFFFFFFFFFFFFFFFA1
:10700000FFFFFFFFFFFFFFFFFFFFFFFFFFFFFFFF90
:10701000FFFFFFFFFFFFFFFFFFFFFFFFFFFFFFFF80
:10720000FFFFFFFFFFFFFFFF0F0180961180FFB11F
:1072100003012C2DB203012C2DB306012C2D012CC2
:107220002DB40107C003A20284C101C5C2020A0035
:10723000C3028A2AC4028AEEC5010E20003601A8C4
:107240003A0105032A040000004F2B040000009FB0
:10725000210004E010021C07123732292D29252BAA
:107260003900010310E110031D07062E2C292D2ED5
:107270002E373F0000021013800A298064000000AE
:1072800000000000000000006D3F00080D470008EE
:1072900000000000000000006D3F00087139000888
:1072A00000000000000000006D3F00080D470008CE
:1072B000617373657274206661696C6564203A203D
:1072C0006D696E5F3C3D6D61785F0D002E2E2F2E37
:1072D0002E2F4C69625C65676C5F7465787475729B
:1072E000652E682833363429203A20002E2E2F2E82
:1072F0002E2F4C69622F65676C5F6D6174682E6814
:10730000283139333829203A20002E2E2F2E2E2FC7
:107310004C69625C65676C5F746578747572652E24
:10732000682834303929203A2000556E7375707002
:107330006F7274656420646570746820666F726D26
:1073400061742E0D00617373657274206661696CDF
:107350006564203A20216E756D5F62797465735F94
:10736000207C7C20705F0D002E2E2F2E2E2F4C693E
:10737000622F65676C5F636F72652E6828353532E2
:1073800029203A20002E2E2F2E2E2F4C69622F6599
:10739000676C5F726173746572697A65722E63706F
:1073A000702834343329203A20002E2E2F2E2E2FF1
:1073B0004C69622F65676C5F726173746572697A7C
:1073C00065725F74696C696E672E6828323435297E
:1073D000203A20002E2E2F2E2E2F4C69622F65670B
:1073E0006C5F636F72652E682835343529203A202A
:1073F000002E2E2F2E2E2F4C69622F65676C5F7228
:107400006173746572697A65722E637070283237A1
:107410003929203A20006572726F72203A2000509C
:1074200054582066696C65202573206D69736D6101
:1074300074636865732050545820636F6465202519
:10744000732E0D0A00617373657274206661696C36
:107450006564203A207074785F66696C655F0D0022
:107460002E2E2F2E2E2F4C69622F65676C5F746550
:1074700078747572652E63707028333229203A2033
:10748000002E2E2F2E2E2F4C69622F65676C5F7495
:107490006578747572652E63707028333429203ACC
:1074A00020002E2E2F2E2E2F4C69622F65676C5FC9
:1074B000746578747572652E637070283335292071
:1074C0003A2000617373657274206661696C65644B
:1074D000203A2000F874000800000020100000008E
:1074E0006C01000808750008100000202022000030
:1074F0008801000865ABFFFF0024F40001000000D4
:08750000100000000000000073
:0400000508000131BD
:00000001FF
