:020000040800F2
:10000000404700203902000833210008DF1F0008A4
:100010003121000857110008D92500080000000010
:10002000000000000000000000000000B5230008F0
:100030005911000800000000DD220008B723000865
:10004000530200085302000853020008530200083C
:10005000530200085302000853020008530200082C
:10006000530200085302000853020008530200081C
:10007000530200085302000853020008530200080C
:1000800053020008530200085302000853020008FC
:1000900053020008530200085302000853020008EC
:1000A00053020008530200085302000853020008DC
:1000B00053020008530200085302000853020008CC
:1000C00053020008530200085302000853020008BC
:1000D00053020008CD25000853020008530200080F
:1000E000530200085302000853020008530200089C
:1000F000530200085302000853020008530200088C
:10010000530200085302000853020008530200087B
:10011000530200085302000853020008530200086B
:10012000530200085302000853020008530200085B
:1001300000F002F800F071F80AA090E8000C824488
:100140008344AAF10107DA4501D100F066F8AFF265
:10015000090EBAE80F0013F0010F18BFFB1A43F0A5
:1001600001031847E05E0000005F00000A444FF002
:10017000000C10F8013B13F0070408BF10F8014B06
:100180001D1108BF10F8015B641E05D010F8016B4B
:10019000641E01F8016BF9D113F0080F1EBF10F8AF
:1001A000014BAD1C0C1B09D16D1E58BF01F801CBD2
:1001B000FAD505E014F8016B01F8016B6D1EF9D555
:1001C0009142D6D37047000000230024002500266A
:1001D000103A28BF78C1FBD8520728BF30C148BFAA
:1001E0000B607047662904F0FE80642900F0C88027
:1001F000732900F00685002070471FB59DE80300B5
:1002000000F074FD00F056FD04000020002103F012
:100210000FFFE0601FBD10B510BD00F0A5FE114638
:10022000FFF7EBFF03F0D4F900F0DDFE03B4FFF7B6
:10023000F2FF03BC03F084F90948804709480047EE
:10024000FEE7FEE7FEE7FEE7FEE7FEE7FEE7FEE786
:10025000FEE7FEE704480549054A064B70470000E3
:100260000F2400083101000840070020404700200B
:10027000402700204027002070B5A0FB0140B4F1CA
:10028000805170F1000024BF002070BD204600F0B6
:10029000CBF905001CBF214600F07AF9284670BD55
:1002A0000FB4044910B503AA029800F0AFFC10BCCB
:1002B0005DF814FB500600200FB41CB5074B06AACE
:1002C0007B4469460090059800F071FC0020694667
:1002D00000F080FC1CBC5DF814FB0000110900005C
:1002E00070B5044685690068C10601D5302600E076
:1002F0002026C00707D070BDD4E9012130469047C1
:10030000206A401C20626D1EF6D570BD70B5044693
:1003100085690078C00707D170BDD4E9012120208C
:100320009047206A401C20626D1EF6D570BD70B5E6
:100330000C460546012A05D02878800600D5EA69D2
:10034000002302E0012305E05B1C934202D2E05C43
:100350000028F9D1A869E618C01AA861286A1844CB
:1003600028622846FFF7BCFF04E0D5E9012114F814
:10037000010B9047B442F8D32846FFF7C7FF70BD82
:100380002DE9F0410646002410687529314616A56E
:1003900010D0AFF30080002802DA404213A507E036
:1003A00031688A0701D512A502E0490704D511A5D5
:1003B000012401E0AFF3008000210A2206F12407A6
:1003C00009E0B0FBF2FCB0FBF2F302FB1C003030A2
:1003D00078541846491C0028F3D123462A46304653
:1003E000BDE8F04100F076B9000000002D000000EB
:1003F0002B000000200000002DE9F0474FF0000A1C
:1004000089460446C0F820A02046E16888470028B5
:1004100076D0252806D0D4E901219047206A401CD7
:100420002062F1E7E168204600258847C4F81CA057
:1004300006460027C4F818A02A2E09D0304603F03B
:10044000EFFD38B304EB8708303EC8F8186019E0B8
:1004500059F8041B204604EB87029161E168884744
:10046000012F064618D1E069002820DA25F0200582
:100470001DE0D8F8180000EB800006EB4000303893
:10048000C8F818002046E1688847064603F0C8FD12
:100490000028EED1012F0AD02E2E08D12046E16887
:1004A00088477F1C0646022F45F02005C4DBA06963
:1004B000002803DA404245F00105A061E80701D0B9
:1004C00025F01005B6B1A6F14100192802D8203652
:1004D00045F400654A463146204625604D46FFF703
:1004E00081FE58B1012806D0ED1D25F0070000F16E
:1004F000080989E704E005F1040985E730468AE741
:10050000206ABDE8F087032A40F2308010F0030C27
:1005100000F0158011F8013BBCF1020F624498BF56
:1005200011F801CB00F8013B38BF11F8013BA2F1F3
:10053000040298BF00F801CB38BF00F8013B11F06E
:10054000030300F08083083AC0F0088051F8043BB0
:10055000083A51F804CBA0E80810F5E7121D5CBF7B
:1005600051F8043B40F8043BAFF30080D20724BFAE
:1005700011F8013B11F801CB48BF11F8012B24BF42
:1005800000F8013B00F801CB48BF00F8012B704791
:100590004FF000020429C0F0128010F0030C00F0AC
:1005A0001B80CCF1040CBCF1020F18BF00F8012B2A
:1005B000A8BF20F8022BA1EB0C0100F00DB85FEAF8
:1005C000C17C24BF00F8012B00F8012B48BF00F8C4
:1005D000012B70474FF0000200B513469446964633
:1005E000203922BFA0E80C50A0E80C50B1F1200146
:1005F000BFF4F7AF090728BFA0E80C5048BF0CC0F4
:100600005DF804EB890028BF40F8042B08BF704751
:1006100048BF20F8022B11F0804F18BF00F8012BC3
:10062000704770477047704770B5064600F03EFB54
:10063000056806F10B0020F00704B4429CBF0020BF
:1006400070BD2B466A68BAB11068A04210D304F19D
:10065000080188423CBF5068586007D351681019A0
:1006600041601168091B016058601460101D70BD65
:1006700013465268002AE7D12146284600F022FBA3
:100680000028DED170BD70B50446051F00F00EFBDA
:100690000068002C14BF446870BD002C18BFAC4229
:1006A0003CBF20466468F8D301680A18AA4218BF04
:1006B000456003D12A680546114401602868411944
:1006C000A1421CBF6C6070BD61686960216808440C
:1006D000286070BD2DE9F0470D46994692460446C4
:1006E00000F124080168880604D5E06921F01001B2
:1006F000216000E00120A84201DD471B00E0002747
:10070000A1697A1902EB0900081AA0612078C006D5
:1007100002D42046FFF7E4FD002608E0D4E90121D9
:100720001AF806009047206A401C761C20624E454D
:10073000F4DB2078C0060AD52046FFF7D1FD06E09D
:10074000D4E9012130209047206A401C2062381EE5
:10075000A7F10107F4DC07E0D4E9012118F805004E
:100760009047206A401C2062281EA5F10105F3DC99
:100770002046FFF7CBFD2078000602D50220BDE819
:10078000F0870120FBE72DE9FF4F0C461E464FF096
:10079000FF378BB0D2E90001DDF860800A908A460D
:1007A000C1F30A5505B93D46002108464FF0000047
:1007B000BAF1000F00F4400005DA00EB80004FF4BE
:1007C000400101EA50004FEA9059B9F1010F00DDF4
:1007D000B9460A9850EA4A000ED044F61050A5F2E5
:1007E000FF3545432F14B8F1000F1ED07542291E66
:1007F0001EDDC9F100021CE0B8F1010F4FF000004E
:1008000001D0302103E0F24305E02154401CB04206
:10081000FBDB30460022002121540B99C1F80880EF
:10082000C1E900200FB0BDE8F08FBD1B6D1CDEE7F5
:100830004A4600DA694206A800F014FB06AB93E8CA
:10084000070003AB83E8070050460A9903F00CF851
:100850008DE80700A0F500501F3800900398002D88
:100860000ADD42F21F014A460844002303A903900F
:10087000684603F075FA09E0A0F500504A461F38B3
:10088000002303A90390684603F07FFA8DE8070070
:100890000004000C03D04FF0FF30410800E0104688
:1008A000B8F1000F03D00022009215461EE0751E1D
:1008B00005D400F051FA303262556D1EF9D5B346B9
:1008C0000122084302D000227F1C04E02078302857
:1008D00001D100227F1E002A099784D01DE0112D2E
:1008E00007DA00F039FA303262556D1C50EA010225
:1008F000F5D1084302D00098C8B10EE00021681E6F
:1009000005E0235C625C63542254401E491C814212
:10091000F7DBAB46A81B401E0990002004F80B0033
:100920000B98099AC0F80880C0E9002B7AE71126D5
:100930004FF0000857E72DE9F04F88460446D21DD6
:1009400022F0070191B0D1E90001CDE90A0103F0DD
:1009500053FB02460B98C00F01D02D2007E0206802
:10096000810701D52B2002E0202101EAC000032AE3
:10097000099001D0072A05DB03464146204600F0D6
:1009800031FA0BE12078800601D5E06900E006200D
:10099000B8F1650F814606D0B8F1660F18D0B8F1EE
:1009A000670F70D131E00020B9F1110F009001DB29
:1009B000112301E009F101030AAA01A90CA8FFF71C
:1009C000E2FEDDE90C70002609F10105834647E0EF
:1009D00001204B4600904FF000470AAA01A90CA83D
:1009E000FFF7D1FEDDE90DB00C995D46002610B988
:1009F00009F101000D18B9EB050003D4C0F1FF3671
:100A000009F10105A5EB09002BE0B9F1010F01DAAD
:100A10004FF001090020B9F1110F0090484601DDA7
:100A2000112300E003460AAA01A90CA8FFF7ABFEB8
:100A3000DDE90C704D4600268346207800070AD475
:100A4000AB4500DA5D4601A8012D04DD411911F81E
:100A5000011C302907D04F4502DA17F1040F04DAE0
:100A6000012082460FE06D1EEEE7002F02DCED1B39
:100A70003E4403E0781CA84200DD7D1CB81B00F159
:100A8000010A4FF000472078000703D4AA4501DB94
:100A90004FF0FF3A0021B7F1004F0DF143088DF8F8
:100AA000431024D002202B23002F01DA7F422D2374
:100AB0000A21021EA0F1010000DC5FB197FBF1FCEE
:100AC00097FBF1F201FB1C7C17460CF1300C08F887
:100AD00001CDEEE7A8F1010003702188090501D5D9
:100AE000452100E06521A0F1010800F8011C0998EA
:100AF0000FA9A1EB0807FF1D00B10120411901EB6F
:100B0000EA70A1693844081A401EA0612078C00626
:100B100002D42046FFF7E4FB099828B1D4E901216B
:100B20009047206A401C20622078C00622D52046CB
:100B3000FFF7D6FB1EE0002E04DBB34502DD01A863
:100B4000805D00E03020D4E901219047206A401CFC
:100B50002062761CAAF101005FEA000A0AD100F0C7
:100B6000A9F8C0680168405CD4E901219047206A77
:100B7000401C2062281EA5F10105DCDC07E0D4E959
:100B8000012118F8010B9047206A401C2062381E92
:100B9000A7F10107F3DC2046FFF7B8FB032011B0F3
:100BA00041E6000001694A1C02610878704700B5FF
:100BB0008FB0CDE901310021059105497944CDE996
:100BC000031011466846FFF717FC0FB000BD000088
:100BD000E5FFFFFF0A6802F8010B0A60704710B5D5
:100BE000436913B1AFF3008001E0FFF7A0FB0120E0
:100BF00010BD127800F124010A7000224A7001220F
:100C0000EDE711684FF0FF32E9E70000074B70B5E0
:100C10000D467B44FFF7CBFF0446284600F094F9CD
:100C200010B14FF0FF3070BD204670BD3329000079
:100C300010B5002000F08CF9FFF7EDFABDE8104088
:100C4000012002F07DBC10B5203AC0F00B80B1E865
:100C50001850A0E81850B1E81850A0E81850203AF1
:100C6000BFF4F5AF5FEA027C24BFB1E81850A0E8FA
:100C7000185044BF18C918C0BDE810405FEA827C14
:100C800024BF51F8043B40F8043B08BF7047D2072B
:100C900028BF31F8023B48BF11F8012B28BF20F8CC
:100CA000023B48BF00F8012B704700000048704726
:100CB000F804002000487047100500207047704776
:100CC0007047704738B504460A4600206946AFF3BE
:100CD0000080002808BF38BD02460099204600F079
:100CE00068F9012038BD012000F0A4B9F8B5AFF3D0
:100CF0000080054600200C46102000BF0646A819BB
:100D0000A0420DD9324669460020AFF300800700AB
:100D100008BF00F08FF90098A04218BF0546C4191B
:100D2000FFF7C4FF05600746F01D20F007004619D5
:100D3000284600F00AF8B44208BFF8BDA21B3146AD
:100D40003868BDE8F84000F034B900210160C0E91E
:100D5000011070471020704730B5B0F10A0271F1F0
:100D600000034FEA900E4EEA817EB0EB0E0061EB7D
:100D700091014FEA101E4EEA017E10EB0E0041EB8E
:100D800011114FEA102E4EEA016E10EB0E0041EBEE
:100D900011214FEA104E4EEA014E10EB0E0041EBCE
:100DA0001141401841F100014FEAD00040EA417082
:100DB0004FEAD1014FEA810444EA907410EB8005B8
:100DC00044EB01046D1944EB0404521BA3414FF0A2
:100DD000000348BF0A3200D530BD401C41F100017C
:100DE00030BD00002DE9F0411F460446032601688E
:100DF000072A01F4006004DB08B116A505E016A57A
:100E000003E008B115A500E015A521F01000206051
:100E1000A069C01EA0610FB1401EA0612046FFF76F
:100E20005FFA4FB1D4E9012138469047206A401C4F
:100E30002062C01C206206E0206AFAE7D4E90121A2
:100E400015F8010B9047761EF8D22046FFF75EFAA0
:100E5000BDE8F0814E414E006E616E00494E460085
:100E6000696E66002DE9F047814616468AB035481E
:100E700078440DC88DE80D0032487844801C03ACDE
:100E80000DC884E80D0041F69B300844372190FBE3
:100E9000F1F290FBF1F5A5F1800501FB12041B3C7A
:100EA00002D56442012000E00020DFF898A08046CF
:100EB0000027FA44AAF1BE0A0EE0E0070AD0324643
:100EC000684607EB470101230AEB810102F05DFF51
:100ED0008DE8070064107F1C002CEED1194F7F4471
:100EE000AE3F19E0E80715D007EB04100DF1180A22
:100EF00090E80E008AE80E00C068F04201D198190F
:100F000008903246012306A903A802F03EFF03AB76
:100F100083E807006D10641C002DE3D14FF001033E
:100F200032466946B8F1000F03A802D002F018FF5C
:100F300001E002F02AFFC9E90001C9F808200AB05F
:100F4000BDE8F087F4350000007B00F080007047BA
:100F500010B500F057F8BDE8104000F04DB80000A3
:100F600000487047F00400207546FFF7F9FFAE46D1
:100F700005006946534620F00700854618B020B5A5
:100F8000FFF768F9BDE820404FF000064FF000077A
:100F90004FF000084FF0000BAC46ACE8C009ACE8DD
:100FA000C009ACE8C009ACE8C00921F007018D46D2
:100FB0007047034640688C46002818BF88423CBFF3
:100FC00003464068F8D318681844884207D00CF1EB
:100FD000030020F00700001D411A521A0146081DA7
:100FE0000A60FFF750BB10B50446AFF300802046FF
:100FF000BDE81040FFF71AB9002801D002F0A0BAEE
:101000007047000010B5002102A000F05CF801203C
:1010100010BD0000534947414252543A2041626E8C
:101020006F726D616C207465726D696E6174696F49
:101030006E00000010B500F05FF8BDE81040FFF74B
:10104000DBBF00004FF0013C50F8042B51F8043B8B
:101050009A4221D1A2EB0C03934313EACC1317D18C
:1010600050F8042B51F8043B9A4215D1A2EB0C0323
:10107000934313EACC130BD150F8042B51F8043BE3
:101080009A4209D1A2EB0C03934313EACC13DBD0B1
:101090004FF00000704700BFD01A01BAB1FA81F1D9
:1010A00001F0180122FA01F0CB40DBB2C0B2C01A45
:1010B000C1F120012CFA01F3D11A914311EAC311B5
:1010C000E6D17047704770B505460C460A2000E02F
:1010D0006D1C00F039F835B128780028F8D102E00D
:1010E000641C00F031F814B120780028F8D1BDE874
:1010F00070400A2000F028B810B5012805D0002162
:1011000003A0FFF7E0FF012010BD09A1F8E70000F0
:1011100053494752544D454D3A204F7574206F66E0
:101120002068656170206D656D6F72790000000048
:101130003A2048656170206D656D6F727920636F2C
:10114000727275707465640008B569468DF80000A8
:101150000320ABBE08BDFEE77047704710B590F89E
:101160002110022911D10168D0E90F230C6824F065
:101170000E040C600C6824F001040C60012180F85E
:10118000211099405160002102E004218163012176
:10119000002280F82020084610BD000010B590F80D
:1011A0002110022919D10268116821F00E01116085
:1011B000116821F001011160294901F17C039A4273
:1011C0000FD92F4B9A4224D02E4B9A4223D02E4B2C
:1011D0009A4222D14FF4807327E0042181630120D9
:1011E00010BD204B9A4226D01F4B9A4225D01F4B50
:1011F0009A4224D01E4B9A4224D01E4B9A4217D0BA
:101200001D4B9A4221D01D4B9A4211D14FF0807252
:101210001DE0012309E0102307E001F588644FF485
:101220008033A24208BF4FF48053C1F800340FE06E
:101230004FF480320BE0012209E0102207E04FF466
:10124000807204E04FF4805201E04FF480120A6093
:101250004FF480710184416B01B18847002010BDBB
:1012600004000240080002401C000240300002401E
:1012700044000240580002406C00024080000240DE
:10128000080402401C04024030040240B0B5044689
:1012900000F0E2F805468D48611C007818BF044450
:1012A00000F0DAF8401BA042FAD3B0BD2DE9FC4FA4
:1012B00081465B4806235C4E4FF0000B4FF001085F
:1012C0004FF00F0E4FF0000A8145564808BF052326
:1012D00048444FEAB022052A38BF4FEAB0230093B2
:1012E00000220C6834FA02F508BFBDE8FC8F08FA4A
:1012F00002F52C4200F08F804F68032F16D9112F72
:1013000026D0122F28D04A48874213D04948874216
:1013100010D0494887420DD0484887420AD04848F3
:10132000874207D04748874204D022E0DFE807F031
:1013300002181B1F8C6844B1012C14BFC9F814504B
:10134000C9F810504FF0080A13E04FF0040A10E0FB
:10135000CC6804F1040A0CE0CC6804F10C0A08E043
:10136000D1F80CA005E0CC6804F1080A01E04FF0C8
:10137000000A5C464846082A334628BF203C28BF5E
:10138000043006680EFA04F70AFA04F4BE43344344
:101390000460C879C00601D41E463CE05A4C22F0D5
:1013A00003061E44206840F001002060206800F021
:1013B000010001900BF00C00019F0EFA00F4224F87
:1013C000BC46F75927EA0404009F07FA00F02043BF
:1013D00046F80C001E464F68F803186854BF20EA10
:1013E000050440EA05041C60104BB803706854BF44
:1013F00020EA050440EA05047460F802B06854BFAE
:1014000020EA050440EA0504B460B802186854BF35
:10141000A843284318600BF1040B013261E700BFB9
:10142000001C014000F8FEBF000401400C04014014
:101430000000111000001210000021100000221006
:10144000000031100000321008FCFFFF002A08BF26
:10145000090401617047000005480068704700BF3B
:101460001A48034900780A6810440860704700BFB2
:101470003C07002080B58E48016841F010010160F2
:10148000032000F06DF8002000F004F800F020F8D0
:10149000002080BD70B50D4E04464FF47A7130784F
:1014A000B1FBF0F08F490968B1FBF0F000F0DAFB16
:1014B00001250F2C08D838B94FF0FF302146002203
:1014C000002500F031F87460284670BD000000204F
:1014D00082B00D480222016841F0010101600168FB
:1014E00001F0010101910199416841F08051416091
:1014F000406800F08050009000980448016862F352
:101500001A61016002B070471810024004000140E7
:10151000002806D4734600F054FE9E46014A42F865
:101520002010704700E100E070B5134B4FF0FF351D
:101530001B68C3F30223DC1E83F0070338BF0024BB
:1015400005FA04F6B243042B28BF042305FA03F37B
:101550009943A1401143BDE8704001F0DFBF00BFD7
:1015600005494FF6FF030A681A4060F30A22034850
:1015700010430860704700BF0CED00E00000FA0562
:101580002DE9F84300286CD088464949044608688C
:1015900000F0070040450AD2086820F0070040EA42
:1015A00008000860086800F00700404559D120682D
:1015B0005B4B8946810711D5410703D5196841F472
:1015C000E0611960010703D5196841F460511960A1
:1015D000A1681A6822F0F00211431960C00737D1E0
:1015E000D9F8000000F0070040450DD9D9F80000F7
:1015F00020F0070040EA0800C9F80000D9F8000010
:1016000000F0070040452CD12068410705D5E1686E
:101610001A6822F4E06211431960000706D52069B8
:10162000196821F4605141EAC00018601C4600F0BE
:101630005DF821681F4AC1F30311515CC840294974
:1016400008601D480068FFF725FF0020BDE8F8830B
:101650006068022808D0012825D153F8041C8903AA
:1016600006D40120BDE8F88353F8041C8901F8D59D
:1016700019681D4621F0030108431860FFF7ECFECE
:10168000064641F28837606829682B4601F00C0154
:10169000B1EB800FA4D0FFF7DFFE801BB842F2D978
:1016A0000320BDE8F88353F8041C8907D9D5DFE788
:1016B000002002408044000804000020DD48184952
:1016C000094A00680968C1F30221515CC8407047AB
:1016D000D8481349044A00680968C1F3C221515C23
:1016E000C8407047080000209044000810B50C491D
:1016F0000C480A6802F00C03082B07D1C2F383439D
:1017000009A4D203E35C02D40C48584310BD096815
:1017100009A25843C1F34041515CB0FBF1F010BD48
:101720000410024000127A000203040506070809AB
:101730000A0B0C0D0E0F10100102000000093D00F5
:101740002DE9FC41002800F09C8004460078B74E4B
:10175000C0071FD0706800F00C00042814D000F0FF
:101760005EFD02D17068C0030ED46068002800F0EE
:101770001481B0F5A02F00F02181B0F5803F00F07A
:10178000218100F0E5FC20E13068800302D560682B
:10179000002876D02078800716D5706810F00C0FDE
:1017A00005D000F03CFD24D17068C00321D430681E
:1017B000800702D52069012863D16069316821F072
:1017C000F80141EAC00030602078000741D5A069E7
:1017D00010B397480121C0F88014FFF73DFE05467D
:1017E000706A800728D4FFF737FE401B0228F7D91C
:1017F000F8E021698E48002900F08E800121016007
:10180000FFF72AFE054630688007D6D4FFF724FE8E
:10181000401B0228F7D9E5E085480021C0F8801474
:10182000FFF71AFE0546706A800712D5FFF714FE0F
:10183000401B0228F7D9D5E07E484FF4FA510068E2
:10184000B0FBF1F0019000BF0198411E002801910A
:10185000F9D12078400717D4E7697FB100F0DFFCA9
:101860003CD1012F0DD0216A706800F480328A4289
:1018700007D1616A00F47010884202D10020BDE8EF
:10188000FC810120BDE8FC81F06910F0805808D18E
:10189000F06940F08050F061F06900F080500090F5
:1018A0000098654F3868C0050FD4386840F48070E0
:1018B0003860FFF7D1FD05463868C00505D4FFF74D
:1018C000CBFD401B6428F7D98CE0E068A0B3052865
:1018D00044D0012846D000F06CFC46E0544900207A
:1018E00088460866FFF7B8FD0546022F0AD147462D
:1018F0003068800179D5FFF7AFFD411B0320022935
:10190000F6D9BCE730688001B8D5FFF7A5FD411BCB
:1019100003200229F6D9B2E700210160FFF79CFD00
:101920000546306880077FF54FAFFFF795FD411BF7
:1019300003200229F5D9A2E700F03BFC3062FFF753
:101940008BFD054641F28837306A80071CD5FFF7CA
:1019500083FD411B0320B942F6D990E7306A40F07D
:1019600004003062306A40F001003062FFF774FD1D
:10197000054641F28837306A800705D4FFF76CFDD1
:10198000401BB842F7D92DE0B8F1000F7FF464AFE7
:10199000F06920F08050F0615EE700F0D9FB306024
:1019A000FFF75AFD0546306880037FF5F3AEFFF779
:1019B00053FD411B03206429F5D960E7306840F4EA
:1019C00080203060306840F480303060FFF744FDA4
:1019D0000546306880033FF5DDAEFFF73DFD401B57
:1019E0006428F6D90320BDE8FC81206AB0F5803F69
:1019F00005D1A168726822F4003211437160616AF6
:101A00000843716821F4741108437060012038663E
:101A1000FFF722FD0446306880013FF52FAFFFF746
:101A20001BFD011B03200229F5D928E70010024005
:101A3000000042420800002000700040F8B538B1B4
:101A40000446406A30B10020206104F1140007E030
:101A500001254AE06068B0F5827F03D004F11C00E4
:101A6000002101600025A56294F8510000284FF084
:101A7000000007D1204684F8505000F039F8A06AE1
:101A800000F40050022184F8511094E84E0002F452
:101A9000827203F404430F681A4406F400631A4484
:101AA00027F040070F60236903F002031A446369BB
:101AB00003F001031A44A36903F400763244E66993
:101AC00006F038063244266A06F080063243104398
:101AD0000860042000EA13404860C86920F40060F0
:101AE000C8610120656584F851002846F8BD0000F2
:101AF000FEB5002104910168114881421DD11149B0
:101B000000F550404A6842F400424A604A6802F4D4
:101B100000420192019A0A6842F008020A600968CC
:101B200001F008010191032105910221039128216F
:101B30000291019902A9FFF7B9FB06B080BD00BF71
:101B4000003C0040181002402DE9F84300F062FB11
:101B500004BF0220BDE8F8834FF001091D46164678
:101B60000F4684F85090FFF777FC804694F85100B8
:101B7000012844D1002F44D0002E42D0032084F805
:101B8000510000206065E686A6862763A087A063D3
:101B9000C4E91000E087A1682068B1F5004F07D1C3
:101BA000016821F040010160016841F48041016059
:101BB0000168490601D400F08CFBE2686168B2F567
:101BC000006F20D109B1012E01D100F047FB6E1C3E
:101BD000E08E90B300F053FB08D4FFF73DFC002EDD
:101BE000F6D0A0EB0800A842F2D337E0216B31F821
:101BF000022BC2602163E08E0138E086E8E7022014
:101C00002DE001202BE009B1012E02D1397800F03E
:101C10004AFB6E1CE08E80B100F031FB08D4FFF768
:101C20001BFC002EF6D0A0EB0800A842F2D315E072
:101C3000216B097800F037FBECE720462946424645
:101C400000F04DFB08B120206065A06808B900F0E5
:101C500021FB606D002818BF012000E0032000F088
:101C6000D2BA0000411E0020B0EB116F1CBF012052
:101C70007047044AF023516003490B7007219060BC
:101C80001160704710E000E023ED00E070477047FE
:101C90007CB5016804460A68C8684D6913074DD0D1
:101CA00000F4907605F0010576194BD0D60705D0E3
:101CB000C60503D5266C46F001062664560704D5F2
:101CC0001DB1266C46F002062664960704D51DB1A8
:101CD000266C46F004062664002B07D500F020038E
:101CE0005B1903D0236C43F008032364236C002B9F
:101CF00070D0920605D5800603D5204600F0A0FBE3
:101D000021684869216C00F0400001F0080140188A
:101D10005BD0204600F082FB2068416949064AD525
:101D200000F0B1FA47D04A494163FFF737FA00287B
:101D300050D0A06B416BBDE87C400847930601D5AD
:101D400083063DD4236B012B03D1D30601D5C306F3
:101D500041D4130601D503060FD452063AD54006E6
:101D600038D5C86820F04000C860202084F83D00C5
:101D70002046BDE87C4000F031B994F83D002128B0
:101D800028D1A068B0F5805F02D12069002856D024
:101D9000206A421C226200784860E08C0138E084AE
:101DA000000417D1C86820F08000C860C86840F0FF
:101DB0004000C8607CBD2046BDE87C40FFF767BF9F
:101DC0002046BDE87C4000F03BBB2046FFF75FFFAC
:101DD000002020647CBD00200190086801904868C4
:101DE00001900198486940060DD4E08DA28DE38DE5
:101DF000002BEFD0101A0204ECD000F037FA2022AA
:101E000000F0F8F915E0A06B026853689DB2002D50
:101E1000E0D0A28D9542DDD2E3858369202B06D0E8
:101E200000F049FA00F0E6F9FFF798F9A28DE08D8D
:101E3000101A81B22046BDE87C40FFF727BF206A18
:101E400030F8022B6FF35F2220624A60A5E700BFE3
:101E50001124000890B110B5044690F83D0008B96F
:101E600000F0B6F900F07CF92068016921F4904196
:101E70000161416921F02A0100F0D6B901207047C3
:101E800070B586B00068A9490026CDE90466CDE9A1
:101E90000266884229D09D49884241D17F48804CC2
:101EA000016841F480410160016801F4804100F063
:101EB00071F94FF400700290019802AD2046294656
:101EC000FFF7F4F900202946CDE903004FF48060C4
:101ED00002902046FFF7EAF9252000210022FFF7B3
:101EE00023FB2520FFF714FB1AE06C486C4C41687B
:101EF00041F400314160416801F4003100F04AF9D9
:101F000004200290019802AD20462946FFF7CEF941
:101F100008202946CDE9036602902046FFF7C6F95E
:101F200006B070BD70472DE9F843044690F83D00B7
:101F3000202807D10E4641B1174632B194F83C0033
:101F4000012805D10220BDE8F8830120BDE8F8830F
:101F50004FF0000901201D46C4F8409084F83C0071
:101F6000212084F83D00FFF777FAE7848046A784B4
:101F7000A068B0F5805F01D1206908B1002701E0B9
:101F80003746002684F83C90E08CB8B1204680218A
:101F900042462B4600F0EEFAB8B926B116F8010B0E
:101FA0002168486006E037F8021B206800266FF3BE
:101FB0005F214160E08C0138E084E5E72046402164
:101FC00042462B4600F0D6FA10B10320BDE8F88354
:101FD000202084F83D000020BDE8F8837047FEE72C
:101FE0002DE9F04F85B02D4800224FF400574FF0F7
:101FF0000008016841F010010160016801F0100162
:1020000001910199016841F020010160016801F02E
:10201000200101910199016841F00401016001680A
:1020200001F0040101910199016841F0080101608A
:102030004FF40051006800F0080001900198184822
:1020400000F5006681463046FFF700FA09F5806525
:102050004FF4607100222846FFF7F8F94FF0020AAA
:102060000124DFF840B03046CDE9038ACDE90174A0
:1020700001AF3946D84701A8394680E810054846DF
:10208000D84702A8394680E810054FF460700190E7
:102090002846D84705B0BDE8F08F00BF18100240B1
:1020A00000080140AD120008B0B50F4800214FF400
:1020B00000720E4D4FF400434FF48274C0E90621C4
:1020C0000A22C0E90054C0E90231C0E90411C0E9A4
:1020D0000811C0E90A12FFF7B1FC18B1BDE8B04021
:1020E000FFF73BB8B0BD00BF5C060020003C0040DD
:1020F00010B50548054C00F01DF818B1BDE81040BA
:10210000FFF72BB810BD00BFB40600200038014017
:1021100010B50548054C00F00DF818B1BDE81040A9
:10212000FFF71BB810BD00BFF806002000440040B8
:10213000FEE7704700210C224FF4E133C0E9004371
:10214000C0E90211C0E90412C0E90611FFF782BE1E
:10215000306820F480303060306820F48020704790
:10216000242084F83D002068C16821F40051C1603A
:10217000204600F0BFB901680F68A968CDE90228C0
:102180000022CDE900A6049438474FF48071012263
:10219000FFF75CB901910199016841F00401016008
:1021A000006800F0040001900320059002200390D5
:1021B0007047306A20F001003062306A20F004007D
:1021C000704700F01F010122400902FA01F1704737
:1021D000002084F83C002046FFF752BEA968CDE9F4
:1021E00000A3CDE9022870474FF400710022204679
:1021F000FFF72CB984F83E2000222263CA6822F03F
:102200001002CA607047002184F8501084F8519081
:10221000BDE8F883044690F85000012870477068C4
:1022200000F00C00082870474161C16841F400517A
:10223000C16000202021206484F83D1084F83E1005
:1022400010BD01680E68A968CDE90083CDE90229B7
:1022500070474FF400710122FFF7F8B837F8021BFE
:10226000C1602763E08E0138E0867047CA6822F4B7
:102270009072CA604A6922F001024A617047206880
:10228000816889077047416921F040014161A06B75
:1022900000287047002000902068C1680091806885
:1022A0000090009870470173206B01302063E08E2E
:1022B0000138E0867047CA6822F48072CA604A69B1
:1022C00022F001024A614A6922F040024A6120225A
:1022D0007047016841F0400101607047704710B5D8
:1022E00013460A468021044600F00AF828B1606DC2
:1022F00040F020006065032010BD002010BD0000EC
:102300002DE9FC411E4617460D468046FFF7A4F80E
:10231000301AC419FFF7A0F80646254801370068AF
:10232000C0F3CB3060430190D8F8000081682940A9
:10233000A9420ED1002FF9D0FFF78EF8801BA042E2
:102340000AD20198019901390191002808BF044679
:10235000EAE70020BDE8FC81D8E900014268B1F558
:10236000827F22F0E00242600BD1D8F80810B1F56C
:10237000004F02D0B1F5806F03D1016821F0400118
:102380000160D8F82810B1F5005F07D1016821F489
:1023900000510160016841F400510160002088F89B
:1023A0005000012088F851000320BDE8FC8100BFE7
:1023B000080000207047FFF753B870B590B00025B3
:1023C0001421CDE90B55CDE9095501AC2046FEF7A6
:1023D00001F94FF4E0100226012108950F904FF407
:1023E00080300D960A910E90CDE9061006A8FFF7F1
:1023F000A7F94FF4806002210595CDE902650490AC
:102400000F2001902046FFF7BBF810B070BD704759
:10241000406A0021C185C184FFF739BC0168734659
:10242000FFF724FF9E46026B012A03D1CA6822F0FF
:102430001002CA60202180F83E100021016370471D
:1024400081B090F83E10222920D18368B3F5805FD7
:1024500008D10169002941D000F128010A68036808
:102460005B680AE0014651F8282F13B90369002B75
:10247000F5D003685B6803F07F0313700A680132CC
:102480000A60C18D0139C185090401D001B07047CE
:102490000168CA6822F02002CA60CA6822F4807209
:1024A000CA604A6922F001024A61202280F83E2077
:1024B000026B012A1BD100220263CB6823F01003B8
:1024C000CB600B68DB0605D500920A68009249686C
:1024D00000910099818D01B0FFF7D8BB0168826A35
:1024E00049686FF35F2122F8021B8262C9E701B0DD
:1024F000FFF718BDB0B50446006804F108030ECB21
:10250000056925F4405519432A4341F20C650261DF
:10251000C2686369AA4319431143C1604169A26952
:1025200021F44071114341611149884202D0FFF703
:10253000C5F801E0FFF7CCF819214843D4E90012AF
:102540006FF063049200B0FBF2F06422B0FBF2F390
:1025500003FB0400322404EB0010B0FBF2F000F0A7
:10256000F00200F00F0002EB031210448860B0BDCF
:10257000003801402DE9F0411D4690460F460446C3
:102580005E1C206801683940B9421CD0002EF8D08A
:1025900035B1FEF761FFA0EB0800A842F1D9206831
:1025A000C16821F4D071C160416921F0010141612C
:1025B0002020002184F83D0084F83C1084F83E007F
:1025C0000320BDE8F0810020BDE8F0810148FFF75D
:1025D0005FBB00BFB4060020FEE700002DE9F0431A
:1025E00085B09E4E00254FF031084FF00A0901AC2E
:1025F0000A2D15D00F275F2F0DD0E8192146002294
:10260000CDF80C80CDF8049004900290B06800F0F2
:102610006BFD0A37EFE70520FEF738FE0135E7E7E7
:1026200005B0BDE8F08300BF2DE9F04786B0234D2B
:1026300000247F2100229F23CDE900140021029471
:10264000A86800F06EFEDFF87890EA694FF0FF3876
:102650004B234FF0050AD9F8000001680F68FFF717
:10266000BDFD18A300220494B847D9F80000EA6918
:102670005F2619A3FFF77FFDD9F80000EA691B4B1D
:10268000FFF779FDD9F80000EA69782301680E6840
:10269000FFF7A4FD16A300220494B047D9F8000068
:1026A000EA698C2301680E68FFF798FD14A30022E5
:1026B0000494B04706B0BDE8F08700BF5005002085
:1026C000E4030020576520636F756C64206E6F749F
:1026D00020746F20646F0000657665727974686994
:1026E0006E6720666F7220796F752E004360000858
:1026F0004A757374206B656570204755493A000030
:102700007374757069642073696D706C652E000058
:102710002DE9F04385B0134D0121134C0F223123D5
:102720004FF00F0802915E21A86800910A210194E0
:1027300000F0F7FD0D4FEA694FF0FF3914233868B8
:10274000FFF77FFD0AA301220494B0473868EA69C5
:102750002D23FFF776FD08A301220494B04705B0AE
:10276000BDE8F08350050020CC7A00FFE403002090
:102770004775694C6974650034204B4C4F43000029
:10278000054606A00C462A46FDF78AFD3348026836
:1027900012B1284621469047FEE700BF4552524FEE
:1027A000523A5B2533645D25730D0A0086B02B4CCD
:1027B000064691460D46207BBFF35F8FC00719D0B8
:1027C000207CBFF35F8FC00732D02748E0612548E7
:1027D00060612348A060FFF727FFFFF799FF40F6ED
:1027E000B830FEF753FDFFF7F9FE40F6B830FEF7BC
:1027F0004DFDF2E704F10C081F46404601F002F8D7
:102800000028DDD00A2301203A210F224FF06C0C62
:10281000CDE900031248CDE90221A02180223B46E8
:10282000CDF810C000F020FE404601F019F8C7E7CF
:1028300004F11007384600F0E5FF0028C5D00698DF
:1028400031462A464B46019005480090054800F065
:102850009DFB384601F004F8B7E700BF50050020A3
:10286000F4050020B405002098440008BFB51C46BC
:1028700003681D6902AB009303ABA8470D980C9A3F
:1028800000210160116009990C1B0B99631C01F078
:102890004075B5F1007F0BD0B5F1807F0DD05DBBE9
:1028A000039DAC420BDB5B1B022493FBF4F305E0BE
:1028B000039DAC4203DB5B1B00E000231360089A1E
:1028C0000A9B01F440119B1A5A1CB1F5001F0BD052
:1028D000B1F5801F0DD0A1B902998B420BDB511AC3
:1028E000022291FBF2F105E002998B4203DB511ABF
:1028F00000E000210160BFBDD84840F2F921FFF798
:102900003FFFD64840F20D31FFF73AFF2DE9F04185
:102910008AB0144606461020109A0DF118080D468C
:10292000194600903046434600F044F93068294685
:10293000224643460768159804901498039013980C
:10294000029012980190119800903046B8470AB052
:10295000BDE8F08153B32DE9F04F87B0DDF840A01A
:102960001C4691460E4607464FF0000B0DF1180825
:102970002078C0B12046414600F0F4F805460BEB44
:102980000A00069B31464A46009011980190129821
:1029900002901398039014980490384600F060F960
:1029A00083442C44E4E707B0BDE8F04F7047F0B52E
:1029B00048684FF0020C431E00201D469842C4BFD9
:1029C0000020F0BD95FBFCF58F6805EB450657F838
:1029D0002640944201D2681C04E004BF07EB860045
:1029E000F0BD6B1E1D18E9E72DE9F04F8BB0179D68
:1029F000DDF860C0199F0E46CDE9092315F8024B9A
:102A00005FFA8CF1FBB2C7F307200891079305909A
:102A1000614384F0FF0215F8018C02FB0311CCF333
:102A200007230693634302FB0033CCF30740049073
:102A3000604323F0FF0343EA1121C7F3074302FB7E
:102A40000300039300F47F4041EA002040F07F4AF6
:102A500000201699884249DA14994FF00009029033
:102A600000EB010B159881453DDA5FEA086040D024
:102A70001CB130685A46534606E01998B0F1807F81
:102A80000AD33068199B5A460768099800900A983B
:102A900000EB09013046B847A8F101085FEA086079
:102AA0001ED12C780898079A059B95F8018002356D
:102AB000604384F0FF0101FB0200069A624301FBC0
:102AC00003220E4B1A40039B42EA1020049A6243F1
:102AD00001FB032101F47F4140EA012000F17F4A1C
:102AE00009F10109BEE702980130B2E70BB0BDE879
:102AF000F08FC04840F28731FFF742FE00FF01002F
:102B00002DE9F84FDDF828A09846C9B11546BAB1AD
:102B10000E4683460027E9463078D0B13046494614
:102B200000F020F8009A044658462946FFF73FFF78
:102B300029460028264418BF011D08780744EBE702
:102B40000020CAF80000C8F800004FF0FF30BDE8D0
:102B5000F88F2878C8F80070CAF800000020BDE897
:102B6000F88F0000B0B5024603781148C05C441EDF
:102B7000032C18D8DFE804F01502050B1B02012412
:102B80000DE05478240244EA0343022407E0547819
:102B90009578240444EA0363032443EA0523125D81
:102BA00013430B60B0BD934840F2D131FFF7E8FD0D
:102BB000E803002070B50D46049918461C461646D9
:102BC000FDF7E6FC032E2FD8DFE806F00214091FFC
:102BD00021A120462A46BDE87040FDF76DBB28467E
:102BE00001F096FB164B002201F038FA0B46024624
:102BF00014A114E0284601F08BFB144B002201F0D5
:102C00002DFA0B46024612A109E0284601F080FB8E
:102C1000084B002201F022FA0B46024606A120468C
:102C2000BDE87040FDF748BB724840F25F31FFF7E6
:102C3000A7FD00BF00408F40252E33660000000036
:102C400000005940252E326600000000000024409C
:102C5000252E316600000000256400002860000871
:102C60002DE9F04F87B0DDF8489093460D46B9F155
:102C7000000F19D049461A460646FFF798FEB0B134
:102C8000074602798468119899F80030DDE9131C31
:102C90008DE81D00109BCDE9041C304629465A469C
:102CA000FFF7A2FE387933E01B48804601E04FF081
:102CB000FF3800244FF00009B9F1100F27D0119808
:102CC0004FF0000A09EB0006BAF1100F1BD004EB1D
:102CD0000A00013003280DD22868324643460768AF
:102CE0001098CDF800B000EB0A012846B8470AF169
:102CF000010AE9E709EB0A000F380228ECD9286835
:102D000032460023EBE7013C09F10109D4E710202A
:102D100007B0BDE8F08F00BF0000FFFF2DE9F041D4
:102D20008CB0144606461020129A0DF120080D466C
:102D30001946009030464346FFF73CFF306829466D
:102D40002246434647681A980790199806901898A3
:102D5000059017980490169803901598029014986F
:102D60000190139800903046B8470CB0BDE8F08150
:102D70007BB32DE9F04F89B093460E46DDE9141C74
:102D8000DDE9128A199ADDF858901C46074607AB10
:102D900008A8CDE904033846CDE900A1CDE902C277
:102DA00021464A464346FFF761FD38685A462346A6
:102DB0000568DDE90710404451448DE80302179887
:102DC00031460390189804903846A84709B0BDE8EA
:102DD000F04F704710B5012B08DB029C002C05DD7D
:102DE00014440B44013C013B1EC010BDF648552164
:102DF000FFF7C6FC28600008B0B544688C4227DDA8
:102E00008568954224DD456955B1D5F800C0BCF10F
:102E1000000F05D0084611461A46BDE8B04060478D
:102E2000C56804FB0211022D0FD14FF478424FF414
:102E3000FC64006902EA132204EA5314C3F3C403D6
:102E400023441A4420F81120B0BD006940F8213015
:102E5000B0BD2DE9F84F0546006978B30B9868B30B
:102E60001446D5E901A2DDF83090DDF828C08A4586
:102E7000AAF10100D8BF0146A2F1010BA242D8BFBE
:102E80005C4604FB0A1604FB09179A45C8BF18469E
:102E9000A0EB01086245C8BFE3465C4512DAD5E9FC
:102EA00003200B9902FB071102FB060002FB08F24C
:102EB000FDF729FB56444F440134EEE74FF0FF3055
:102EC000BDE8F88F0020BDE8F88F2DE9FC47824669
:102ED0004069DDE90A861C4615468946D8B147682F
:102EE0003FB148462946224643460096B847BDE8CA
:102EF000FC87006878B1454545DC4F46A74208DCB1
:102F0000DAF81400294632460368384698470137F4
:102F1000F4E70135EFE70AF1040207CA022A1FD1DC
:102F20004FF478424FF4FC6302EA162203EA561388
:102F3000C6F3C40633441A44454524DC05FB00931C
:102F4000DAF8106006EB43034E46A64206DC8D42DB
:102F5000BCBF864223F8022B0136F6E70135EBE7CA
:102F6000454510DC05FB0092DAF8103003EB8202D5
:102F70004B46A34205DC8D42BCBF834240C20133B5
:102F8000F7E70135ECE7BDE8FC870000F0B5069FE8
:102F9000059C00250126C0E90123C0E90E65856175
:102FA000C0E904170649046284F8506008310160E2
:102FB000E168C160014641F81C5FC4E91510F0BD2D
:102FC000885F00082DE9FC47DDE90A899A46154625
:102FD0000E460746AE42C8BFBDE8FC87386831469A
:102FE0005246434604683846CDF80090A047013663
:102FF000F0E700002DE9F84F0746406888426BDD96
:10300000B8689346904267DD0E46002964D4BBF150
:10301000000F61D4DDF8289097F8510048455DD342
:103020009A463FD097F8520031465A46484509EB38
:10303000890038BF87F8529007EB800404F1180824
:10304000404600F059FA48B304F11400D4E90731BE
:10305000FC68D8F80020022C16D1891AB41AABEB00
:1030600003034FF478420068013102EA1A2201FB9F
:1030700003414FF4FC63CAF3C40403EA5A13234424
:103080001A4420F8112009E0891AB41AABEB0303A3
:103090000068013101FB034140F821A097F852007C
:1030A00048450AD1386831465A465346D0F80CC0D4
:1030B000384601B0BDE8F04F604707F140000324F7
:1030C000013C4C45EED931465A46A0F1140500F0BA
:1030D00013FA00282846F3D0BDE8F88F3A484FF499
:1030E000CF71FFF74DFB00BF2DE9F84F032A66D2E1
:1030F000054602EB82008A4605EB80030868D3F898
:103100001890484556DBD3F820C0DAF8080060452F
:1031100050DCDF69DAF80460BE424BDBD3F824E010
:10312000DAF80C10714545DCA6EB070EACEB09078D
:103130005B69013707FB0EFC4FEA870B4FEA4C0235
:10314000A2EB490203EB02084FEA8C02A2EB8902D0
:1031500003EB02097A0000928E4228DCDAF8007054
:1031600087421DDCE86802280ED138F81700C2003B
:1031700000F4FC6100F47840D2B242EA411141EA25
:10318000002000F17F4301E059F8273028683946D4
:103190003246C4682846A047DAF808000137DFE75E
:1031A0000099D94401368844DAF80C10D4E700209D
:1031B000BDE8F88F044840F23121FFF7E1FA0248F8
:1031C00040F22E21FFF7DCFA286000082DE9F84FC5
:1031D000074680F85110806DDDE90AA998469346AC
:1031E0000E4648B1806B022806DBD7E90102F96878
:1031F0005043FDF741F83861A9EB0800AAEB0B0139
:1032000007F114050130013101FB00F466B1F968E2
:103210002046FDF731F8C5E9000BC5E9028AC5F87B
:1032200010901435013EF1E7BDE8F88F2DE9FC411F
:103230008046C068DDE908C5022822D14FF4FC644D
:103240004FF47840C5F3C4064FEA420E04EA551421
:1032500000EA1520344416462044664526DCD8F89A
:1032600010401CB3D8F8047007FB0E440F469F4271
:1032700003DC24F817000137F9E70EF1020E0136DE
:10328000EBE790001746674510DCD8F810406CB1AA
:10329000D8F8046006FB00440E469E4203DC44F866
:1032A00026500136F9E704300137ECE798F8500072
:1032B00058B1D8F8580004686468CDE900C5A04743
:1032C000D8F85400016801310160BDE8FC81F8B50F
:1032D00004460069C8B1E568022D11D165684FF454
:1032E000FC674FF4784607EA531706EA132605FBF6
:1032F000021CC3F3C4053D44354420F81C5004E0CF
:10330000656805FB021540F8253094F8500038B187
:10331000A06D05682D68A847606D016801310160E6
:10332000F8BDBFB504680A9D64680295099D0195C2
:10333000089D0095A047BFBD2DE9F04F87B0054619
:103340001C46DDF840B04068DDE9119622EAE27AD9
:1033500021EAE177AB685B45D8BFA3F1010BA0423E
:10336000D8BF441E95F85100B04206D128683946AE
:1033700086682846CDE900B970E095F85200B04261
:1033800057D14FF4FC614FF47840C9F3C402CDF833
:1033900014A001EA591100EA1920114401EB0009B7
:1033A00006EB860105EB8102D2E90610D2E9083668
:1033B000CDE90360AAEB000638465F1A0137069094
:1033C00007FB0606029702F11407A6EB010C56460E
:1033D0005E453BDC03980022B042B8BF012204984E
:1033E00086424FF00000B8BF0120DDF8188040EAA7
:1033F000020E6246A04516DC884510DB00204345DE
:10340000B8BF012050EA0E0009D1E86802283868E8
:103410001ABFDDF844A040F822A020F81290013233
:1034200008F10108E6E70298DDF814A001368444AB
:10343000CEE7DA4515DC2846394622465346CDE923
:103440000096FFF7BFFD0AF1010AF2E72868069926
:1034500086681198CDF800B0019028465246234660
:10346000B04707B0BDE8F08F2DE9F04387B00446C0
:1034700020480DF1400E0025DDE90E8C0E464FF080
:10348000FF37083084E82F009EE80842002021180A
:1034900014303C28C1E90557C1E907774F62F6D1DE
:1034A0000020C4E9150084F8520084F850000EEAA8
:1034B0000900013013D10CEA030001300FD1009252
:1034C00003A8002100223346FFF784FCDDE9050153
:1034D000DDE90323CDE900012046414604E0204612
:1034E00041466246CDE9009EFFF770FE204607B0D8
:1034F000BDE8F0839C5F000803460068884202DC58
:103500009868884201DA002070475968002091428B
:1035100003DCD9689142A8BF0120704710B5074C61
:1035200000F00F03B0F1FF3F034A2344C8BF8318E4
:103530000801187010BD00BF00E400E014ED00E0C9
:103540007047FDF775FB00001CB5019001AC074802
:103550000122FF232146FEF7E6FC05482146012211
:10356000FF23FEF7E0FC01981CBD00BFB40600205D
:10357000F806002010B54FF478434FF4FC6480B295
:1035800089B203EA122304EA5214C2F3C4022244A9
:103590001A44BDE8104000F045B89042D8BF9942A7
:1035A00000DD70477CB5069C4FF478454FF4FC660F
:1035B00080B289B292B29BB205EA142506EA54168B
:1035C000C4F3C40434442C44009400F04DF87CBD92
:1035D00082B0FDF74FFFFEF7F0FEFEF701FDFEF7AC
:1035E00087FDFEF795FDFEF75FFD00F06FF80948D7
:1035F0004FF400510122FDF729FF07480749084A07
:103600000223C0E9002100900020A021802200F0C8
:10361000F3F8FEE700100140540600209B35000837
:10362000753500087CB50C46A028064628BF7F2CBF
:1036300019D86F4D50BA4FF400710022ADF8060052
:103640002846FDF703FF701C214682B2601C83B23E
:10365000304600F07FF80DF10600022100F0BAF8C4
:103660002846FEF7F6FD7CBD2DE9FC41044608988E
:1036700016460F464FF4007100221D4640BAADF8C1
:1036800006005B488046FDF7E1FEA0193946013887
:1036900082B278194746013883B2204600F05AF8C2
:1036A0004046FEF772FD05FB06F4524D0DF106068D
:1036B0003CB1284631460222FF23FEF745FA013C81
:1036C000F6E73846FEF7C5FDBDE8FC81F8B5484C85
:1036D000FEF78AFD00F02AF8134E3078D8B1013693
:1036E000471E0006F9D0307800F062F87578280699
:1036F00007D402362946304600F06CF82E4438468E
:10370000EEE7B078FF2808BF4FF4FA70FDF7BEFD72
:1037100003363846E4E720464FF400710122BDE845
:10372000F840FDF793BE00BFB45F000810B5304C01
:10373000802100222046FDF789FE0A20FDF7A6FD24
:10374000204680210122FDF781FE0A20BDE81040BD
:10375000FDF79CBDF8B501300D46511C134F1C46BA
:103760008DF80100000A8DF80310090A8DF8000099
:103770002A208DF80210B8476E460421304600F02A
:1037800029F8A01C8DF80300000A8DF80200A81C7F
:103790008DF80100000A8DF800002B20B847304654
:1037A000042100F017F82C20B847F8BDB137000805
:1037B000E0B58DF807000E484FF480710022FDF748
:1037C00045FE0C480DF107010122FF23FEF7BCF96D
:1037D0008CBD00BFB0B5054605480C46FEF7D5FCCC
:1037E000044829462246FF23BDE8B040FEF7ACB9A5
:1037F000000C01405C06002082B0029C0094FEF7A1
:10380000D5FF000080B5017811B94178012901D1B7
:10381000002080BD89075FBF02214170012080BD6B
:1038200001A0FFF78EFE00BF5F5F6378615F677581
:103830006172645F61637175697265206465746546
:103840006374656420726563757273697665206957
:103850006E697469616C697A6174696F6E000000E9
:1038600001210170417070475FEA400C08BF91F080
:10387000000F4FEA8C234FEAC12243EA51514FEA2D
:103880001C5018BF00F5F0404FEA300018BF41F05F
:1038900000415FEA6C5C00F02980BCF1FF3F08BF8B
:1038A00040F080407047130C06BF12044FF0100C1C
:1038B0004FF0000C130E04BF12020CF1080C130F92
:1038C00004BF12010CF1040C930F04BF92000CF121
:1038D000020CD30F04BF52000CF1010C11464FF043
:1038E0000002A0F11F00A0EB0C00704711F0004F88
:1038F00008BF704731F000413FF4D5AF0B0C06BF55
:1039000009044FF0100C4FF0000C0B0E04BF09021D
:103910000CF1080C0B0F04BF09010CF1040C8B0F08
:1039200004BF89000CF1020CCB0F04BF49000CF15D
:10393000010CCCF1200322FA03F341EA030102FA5D
:103940000CF2A0EB0C0000F10100704723F07F4760
:1039500020F07F4C80EA030000F00040ACEB07034E
:1039600003F57C5303F1FF032DE9804909B44FEAC5
:10397000144324EA03484FEA154B25EA0B4E0FF295
:10398000042606EB13273E7803FB0667C7F50007FE
:1039900007FB06F64FEAD64606F102064FEA543711
:1039A00007FB066CCCF1005C4FEA1C472CEA074C85
:1039B0000CFB06F507FB06F404EB15464FEA9616DA
:1039C00049085FEA320234BF00204FF000404FEA5E
:1039D000D13706FB07FC4FEA1C4C0CFB0BF7D21B44
:1039E00003FB0CF761EB07010CFB0EF7B0EB074094
:1039F00072EB17420CFB08F734BFA2EB0742B2EBA5
:103A0000074261EB17414FEA0C444FEA910706FB6E
:103A100007FC4FEA1C4C0CFB0BF7B0EBC74072EBFA
:103A2000573203FB0CF734BFA2EBC742B2EBC742DD
:103A300061EB57310CFB0EF7B0EBC70072EB57721E
:103A40000CFB08F734BFA2EBC702B2EBC70261EB75
:103A500057714FEA816141EA92114FEA826242EA6C
:103A600090124FEA806004EBCC04039F4FEAD137F9
:103A700006FB07FC4FEA1C4C0CFB0BF7D21B03FBAD
:103A80000CF761EB07010CFB0EF7B0EB074072EB94
:103A900017420CFB08F734BFA2EB0742B2EB074218
:103AA00061EB17414FEA8C5504EB9C244FEA9107D8
:103AB00006FB07FC4FEA1C4C0CFB0BF7B0EBC740B6
:103AC00072EB573203FB0CF734BFA2EBC742B2EBE9
:103AD000C74261EB57310CFB0EF7B0EBC70072EB3E
:103AE00057720CFB08F734BFA2EBC702B2EBC70258
:103AF00061EB57714FEA816141EA92114FEA8262AC
:103B000042EA90124FEA806015EB4C2544F1000424
:103B10004FEAD13706FB07FC4FEA1C4C0CFB0BF7B6
:103B2000D21B03FB0CF761EB07010CFB0EF7B0EBAC
:103B3000074072EB17420CFB08F734BFA2EB0742B9
:103B4000B2EB074261EB17414FEA813141EA924102
:103B50004FEA823242EA90424FEA80304FEA0C76D6
:103B600015EB1C1544F1000448EA03434EEA0B48E8
:103B70004FF0000EB2EB080C71EB030724BF624656
:103B800039464EEB0E0E4FF0000B001852414941E2
:103B90004BEB0B0BB2EB080C71EB03077BF1000B4B
:103BA00024BF624639464EEB0E0E4FF0000B001854
:103BB000524149414BEB0B0BB2EB080C71EB030785
:103BC0007BF1000B24BF624639464EEB0E0E51EAE4
:103BD000020718BF46F0010616EB0E7655F10002FB
:103BE00054F1000103D5BDE88901BDE80088BDE8B6
:103BF0008901BDE80048B619524141EB0101A3F12A
:103C00000103704780807F7E7D7C7B7A7978777630
:103C100076757473727171706F6E6E6D6C6C6B6AA9
:103C20006A69686867666665646463636261616047
:103C3000605F5F5E5E5D5D5C5C5B5B5A5A595958C4
:103C4000585757565655555554545353525252512E
:103C5000515050504F4F4F4E4E4D4D4D4C4C4C4B84
:103C60004B4B4A4A4A4949494848484747474746CB
:103C70004646454545444444444343434342424207
:103C8000424141419C46002B30D477002BD04FEA73
:103C900037071CB503B44FF010004FF01001BAF114
:103CA000000F06D0BCF1000FDCBF40F0080040F070
:103CB00008014FF000000FBCBDE810400BF1010BF4
:103CC000BBF1010F08BF5FEA170722BF12F1010223
:103CD00011F101014FF0004143F1000300F00040F9
:103CE00043EA00007047F9D35708D0E746EA064692
:103CF0004FEA164613F1400F1FDD13F1200FDFBF0F
:103D000016430A46002120335B42BED0C3F1200790
:103D100046EA06464FEA164602FA07F746EA07065B
:103D200022FA03F2C3F1200701FA07F742EA070279
:103D300021FA03F14FF00003A7E746EA020646EA3C
:103D400006464FEA164646EA0106BCBF46EA064664
:103D5000360C4FF000034FF000024FF0000194E7E3
:103D60002DE9804C70B49A46934691E8380007C814
:103D700031EA400C48BF34EA430C03D5FFF7E6FDB7
:103D8000FFF780FFF0BCBDE8008C2DE9804C70B4DB
:103D90009A46934691E8380007C810F0804F08BF54
:103DA00013F0804F03D100F005F8FFF76BFFF0BC74
:103DB000BDE8008C20F07F4723F07F4C80EA0300B1
:103DC00000F0004007EB0C03A3F57C53A3F1FE03C6
:103DD00092F0000F00F0B38095F0000F00F07780B4
:103DE0002DE901494FEA114021EA00484FEA144603
:103DF00024EA064700FB06FC08FB06F607FB08F86A
:103E000018EB06484CEB164C00FB07F718EB07487D
:103E10004CEB17404FEA124B22EA0B4E4FEA154685
:103E200025EA06470BFB06FC0EFB06F607FB0EFE1B
:103E30001EEB064E4CEB164C0BFB07F71EEB074E2A
:103E40004CEB174B18EB0B0840F1000018EB0E0B76
:103E500058EB000840F100008F1A4FF000014FF0BE
:103E600000063CBFC943661B14BFB5EB040C002120
:103E70003CBFC943F61B4FEA174427EA04454FEA03
:103E80001C472CEA074C04FB076205FB07F70CFBF9
:103E900005F616EB074642EB174204FB0CFC16EB4B
:103EA0000C4642EB1C421BEB060658EB020241415A
:103EB0004EEA8E0E46EA9E0601D5BDE80189B61986
:103EC000524141EB0101A3F10103BDE801894FEA31
:103ED000144524EA05464FEA114721EA074C05FB41
:103EE00007F406FB07F70CFB06F111EB074144EB67
:103EF000174405FB0CFC11EB0C4144EB1C444FEA4E
:103F0000124722EA074C05FB07F206FB07F70CFBFA
:103F100006F616EB074642EB174205FB0CFC16EBC8
:103F20000C4642EB1C456A1854F1000148BF70472B
:103F3000B619524141EB0101A3F10103704795F01D
:103F4000000F37D04FEA114221EA02464FEA1447E8
:103F500024EA074C02FB07F106FB07F70CFB06F40B
:103F600014EB074441EB174102FB0CFC14EB0C442F
:103F700041EB1C414FEA154725EA074C02FB07F5C8
:103F800006FB07F70CFB06F616EB074645EB174555
:103F900002FB0CFC16EB0C4645EB1C42121951F1CE
:103FA000000148BF7047B619524141EB0101A3F12E
:103FB000010370474FEA144524EA05464FEA1147CA
:103FC00021EA074C05FB07F106FB07F70CFB06F29D
:103FD00012EB074241EB174105FB0CFC12EB0C42C4
:103FE00051EB1C414FF0000648BF7047921841EB5F
:103FF0000101A3F101037047490050EAC12018BF35
:1040000004204A0D18BF40F0010040F2FF72B2EBED
:10401000515F08BF40F00200012808BF052070472B
:1040200030380A2801D20120704700207047000074
:1040300010B500290AD00878002807D00548784430
:10404000FDF700F8002801D0002010BD0248784498
:1040500010BD0000262000001E2000002DE9C041F8
:1040600030B4DFF8A4C23CEA111418BF3CEA1314C0
:1040700000F0ED801CEA111481EA030544EAD574CE
:1040800018BF1CEA131500F0C880A4EB050404F166
:104090007F7404F500344FF0004545EAC12145EA3C
:1040A000C32341EA505143EA52534FEAC0204FEA3A
:1040B000C222994208BF904200F09D804FEA1365EA
:1040C0000FF24416765D4FEA134506FB05F7C7F17C
:1040D000807706FB07F74FEAD737A7FB03687642DE
:1040E000A7FB06CEC8F5803838BFA8F1010807FB4A
:1040F00008E6A6FB028C4FF0000EE6FB03CEDCF1D7
:10410000000CCEF1004E38BFAEF1010EA6FB0C58EC
:104110004FF00007E6FB0E87A1FB08C6A0FB07CE09
:1041200016EB0E064FF0000545F10005E1FB0765B3
:1041300015F1E04E7EBFA4F580345FEA46066D417E
:1041400016F1800745F100054FEA172747EA056792
:104150004FEA15254FEA0666A6F1DE46B6F1805F06
:1041600020D9384605EBC47124F0010C01EB0C1189
:10417000BCF1FE6F02D8F0BCBDE8008124425CBFF8
:1041800001F5801E9EEAC47F02D4F0BCBDE8008128
:10419000244200F13980A1F1C041F0BCBDE80041EA
:1041A00000F01BB94FEAD02040EA41504FEAD1213C
:1041B0004FEAD22242EA43524FEAD323A7FB0286B8
:1041C00007FB036605FB02661EEA0E0F58BFA6EB4F
:1041D0000056B6EB00564FEA520E4EEAC37E18EB7D
:1041E0000E0E56EB530EBCD518EB02085E417F1C39
:1041F00055F10005B5E74FF480154FF000074FF07B
:1042000000064FF00008ACE701F1C04101F00041A9
:104210004FF00000F0BCBDE800810CEA131511EA74
:104220000C1F00D00CE013EA0C1F00F026804FF0AA
:10423000000081EA030101F00041F0BCBDE800810B
:10424000F0BCBDE8004181EA030100F0C6B8F0BC53
:10425000BDE8004170B500F072F800BF097EFC3E79
:1042600000F007B84FF0000081EA030101F00041BF
:10427000704781EA030100F0B0B8F0BCBDE800412E
:1042800022494FF000007047FFFDFBF9F7F5F4F20B
:10429000F0EEEDEBE9E8E6E4E3E1E0DEDDDBDAD8E1
:1042A000D7D5D4D3D1D0CFCDCCCBCAC8C7C6C5C43F
:1042B000C2C1C0BFBEBDBCBBBAB9B8B7B6B5B4B356
:1042C000B2B1B0AFAEADACABAAA9A8A8A7A6A5A441
:1042D000A3A3A2A1A09F9F9E9D9C9C9B9A99999805
:1042E0009797969595949393929191908F8F8E8EA8
:1042F0008D8C8C8B8B8A8989888887878685858435
:1043000084838382828181800000FF070000F87F20
:1043100010F0004248BF4042B0FA80F310FA03F1B7
:104320000AD0C3F11D0303F5806302EB03524FEA89
:10433000415002EBD12170474FF0000070470EF161
:10434000020E2EF0030E5EF8046B364205D4012AED
:1043500043EB030515F5001F12D8012841EB010CB2
:104360001CF5001F0CD80ED14FEAD17C0CEB4C0C85
:104370000CF1020C15F5001F08BF4CEBD37C04E0D8
:104380004FF0080C01E04FEAD37C0CEB4C0526FA09
:1043900005F606F00706B6F1040C06D20EEB860C05
:1043A000BDE870404CF0010C6047DFE80CF0090BF1
:1043B00002024FF00041A1F500214FF0000070BD56
:1043C00019461046012851EB010418BFD4F500141A
:1043D00084BF002001F0004170BD0808A0F5001165
:1043E0004FEA31017047FCF7A6BA00000240000016
:1043F000000000A00000000005400000000000C810
:10440000000000000C4000000000409C0000000084
:10441000194000000020BCBE000000003440000035
:10442000BFC91B8E00000004B5400000504BCFD028
:104430006607E2CF010000006C4100003E8251AAF5
:10444000DFEEA73401000000D9420000DCB5A0E295
:104450003A301F97FFFFFFFFB4450000FD25A0C8BD
:10446000E9A3C14FFFFFFFFFFF3F000000000080F6
:1044700000000000FF3F000000000080000000007E
:104480000000000000000000010203040607080904
:1044900000000000010203041300000052000000AD
:1044A0000C00002000AB0028FF0199010007C501A6
:1044B00099010007C50199010007C501990100078D
:1044C000C50199010007C5016F01000799016F013E
:1044D000000799016F010010FF0199010007FF011A
:1044E000990100270030C5012401000199016F01E5
:1044F0000004FF0124010001C50149010004FF017E
:104500000002FF0149010002C501FF06C5010002CA
:104510002401C50100012401FF0100044901C50176
:1045200000014901FF0100024901FF076F0100027C
:10453000990200016F019901000499016F010001C6
:1045400099020004C5016F01000199016F01002665
:1045500000256F01FF02490100029901C5012401F4
:10456000FF0124014901FF0100014901FF01000190
:104570004901C50100012401FF010001FF014901BA
:1045800000012401FF0124014901C5016F019901C6
:1045900000039901FF024901FF010007C50149011C
:1045A00000066F0199016F01FF026F0100022401F3
:1045B000FF012401FF0124014901FF010002C5019F
:1045C0006F012401FF0100012401FF0100016F01BF
:1045D000C50100012401FF0124014901FF01490136
:1045E000FF01240100026F01FF024901002400289D
:1045F000FF01C5010007FF0199010007FF019901B3
:104600000007C5016F0100660021FF010007FF01DF
:104610006F0100069901C50100064901FF0124014F
:10462000000699020007FF01490100062401FF016D
:10463000240100062401FF01240100062401FF01DA
:1046400024010007FF014901000799020007490101
:10465000FF01240100079901C5010008FF0199012C
:1046600000072401FF01000B001D4901C5010008DE
:10467000C50199010008FF01490100076F01FF0111
:104680000008FF0149010007990200076F01C501F9
:1046900000076F01C50100076F01C50100079902FE
:1046A0000007FF01490100066F01FF010007FF013C
:1046B00049010006C501990100064901C501000E26
:1046C0000043C5016F010007C5016F010007C50167
:1046D0006F010004C501FF0699010004C5016F01C7
:1046E0000007C5016F010007C5016F0100300078A8
:1046F0004901FF01C5010007FF02240100069901DD
:10470000FF01240100052401FF0199010005990121
:10471000FF016F01000D005C9901FF0424010049B5
:1047200000784901FF01C50100064901FF02002789
:10473000002A6F01C5010007FF0149010006490178
:10474000C5010007C5016F0100062401FF01000734
:1047500099020007FF01490100066F01C50100072A
:10476000C5016F0100064901FF010007990200061B
:104770002401FF01240100066F01C501001800306B
:10478000FF03C5010004FF016F010002C502000222
:104790006F01C50100032401FF0149010001C501AA
:1047A0006F010003C501FF016F010001FF016F01EF
:1047B00000014901FF016F01C50199010001FF01DD
:1047C0006F01C501FF010002C50199010001C5018A
:1047D000FF016F010003C5016F0100019901C501CF
:1047E00000032401FF01240100012401FF016F01E6
:1047F0000002C501990100032401FF03990100266D
:1048000000302401FF0200059901C5019901FF0153
:1048100000044901990100019901FF010007990174
:10482000FF0100079901FF0100079901FF0100073F
:104830009901FF0100079901FF0100079901FF019C
:1048400000042401FF0624010024002F4901FF0376
:104850006F0100032401FF0100022401FF016F0129
:104860000007C50199010007C5019901000624014F
:10487000FF016F010006FF01C5010006FF020006EF
:10488000C501FF010006C501FF0100066F01FF061B
:1048900049010024002E2401FF0499010008FF01B2
:1048A0006F010007990200062401FF0124010003A3
:1048B0002401FF036F010008C50200072401FF0166
:1048C000240100064901FF010007FF016F010002FA
:1048D0004901FF044901002600312401FF020006BE
:1048E000C502FF0100056F01C5014901FF01000478
:1048F0002401FF014902FF0100049902000149015E
:10490000FF0100034901FF0100024901FF0100030B
:10491000FF01490100024901FF0100024901FF07AF
:10492000C50100054901FF0100074901FF010026FB
:10493000002E2401FF056F0100022401FF01240164
:1049400000062401FF01240100062401FF012401C7
:1049500000062401FF0499010008FF01C5010007BA
:104960004901FF0100076F01FF0100062401FF015B
:104970006F0100024901FF04240100260031FF03FA
:10498000990100036F01FF0149010006FF012401A5
:1049900000064901C50100076F019902FF034901A3
:1049A00000029901FF01490100024901FF012401B0
:1049B000000199020004C5016F0100016F01C501EA
:1049C0000004FF016F010002FF016F0100026F018F
:1049D000FF0100032401FF03C5010026002E9901F9
:1049E000FF06240100066F01FF010007FF016F01B0
:1049F00000066F01FF010007FF016F0100066F0154
:104A0000FF010007C5016F0100064901FF012401F4
:104A10000006C501990100066F01FF01240100286D
:104A2000002F4901FF04240100024901FF01240174
:104A300000026F01FF0100026F01FF01000324016A
:104A4000FF0124010002FF020002FF01990100049E
:104A50009901FF0249010004C50200014901FF015B
:104A6000990100026F01FF0100034901FF014901A3
:104A700000019901C5010004FF01490100016F0116
:104A8000FF01490100026F01FF01240100026F01D3
:104A9000FF040026002F2401FF03990100034901B0
:104AA000FF0124010002C50199010002C50199011D
:104AB00000032401FF010002C5016F010004FF0192
:104AC000490100016F01FF010003C501FF01490118
:104AD00000029901FF034901FF0149010006240179
:104AE000FF01000799020006C501FF010003240130
:104AF000FF036F010027004B2401FF01990100060D
:104B00002401FF01990100212401FF019901000600
:104B10002401FF0199010027004B2401FF01C50179
:104B200000062401FF01C50100212401FF02000746
:104B3000C501FF01490100066F01FF01490100069F
:104B4000FF01C50100056F01FF019901000D003C47
:104B5000C50149010006FF01C50100052401FF014F
:104B6000990100054901FF016F0100056F01FF0177
:104B7000490100074901FF016F0100072401FF01FE
:104B800099010008FF01C5010008C5014901002580
:104B900000529901FF06240100139901FF06240128
:104BA00000360038C5016F0100074901FF01990176
:104BB00000072401FF01C5010008C501FF0100082D
:104BC0009901FF0124010005C501FF010006FF0155
:104BD000C50100054901FF0199010006C5016F01EA
:104BE000002900264901FF026F010008FF020008AA
:104BF000FF016F010007C50199010007FF016F0167
:104C000000044901FF02990100054901FF01000765
:104C10004901FF0100109901FF0100079901FF01FF
:104C2000002800274901FF03490100036F01FF012C
:104C30000003FF01490100014901FF01000449018E
:104C4000C501000199016F010005FF012401FF0169
:104C500000014901FF032401FF01490199010001FD
:104C6000FF014902FF010001FF016F024901C50177
:104C700000016F01C5010001FF016F03C5010001C3
:104C800099020001FF0199016F02C5010001FF01B6
:104C90006F01490199016F022401FF024901FF02DE
:104CA00000014901990100072401FF010008990151
:104CB000C5010003990100049901FF036F01000B76
:104CC00000304901FF01C501000699016F01FF0194
:104CD00024010005FF012401990200044901C501D6
:104CE00000014901FF01000499016F010002FF0169
:104CF00049010003FF0124010002C50199010002DE
:104D00004901FF0100036F01FF0100029901FF0645
:104D100049010001FF0149010004C5019901490150
:104D2000FF0100056F01FF010024002E4901FF056E
:104D300000034901FF0100039901C5010002490177
:104D4000FF0100034901FF0100024901FF010003C7
:104D5000C501990100024901FF04C5010003490191
:104D6000FF0100039901FF0100024901FF01000456
:104D7000FF01490100014901FF010004FF01490150
:104D800000014901FF0100039901C5010002490129
:104D9000FF049901002600306F01FF039901000311
:104DA0009901FF010003490200014901FF012401AB
:104DB00000069901C5010007C50199010007C50159
:104DC00099010007C501990100076F01FF01240146
:104DD0000007FF020003490200039901FF03990144
:104DE0000025002EC501FF046F010003C5019901D4
:104DF0000003FF01C5010002C50199010003240160
:104E0000FF0149010001C50199010004C501990193
:104E10000001C501990100049901C5010001C50106
:104E2000990100049901C5010001C501990100041F
:104E3000C50199010001C501990100032401FF0189
:104E400049010001C501990100022401FF019901F6
:104E50000002C501FF0449010026002FFF05C5011E
:104E60000003FF0149010007FF0149010007FF019D
:104E700049010007FF0599010003FF0149010007EF
:104E8000FF0149010007FF0149010007FF01490136
:104E90000007FF05C5010025002FFF05C501000320
:104EA000FF0149010007FF0149010007FF01490116
:104EB0000007FF0149010007FF056F010003FF0123
:104EC00049010007FF0149010007FF0149010007EF
:104ED000FF014901002900309901FF0399010003F6
:104EE000FF01C50100036F01490100016F01FF01CE
:104EF0000007FF016F0100062401FF0149010006C0
:104F00002401FF01490100012401FF0349010001BF
:104F1000FF016F010004FF01490100019901C50172
:104F20000004FF01490100012401FF019901000370
:104F3000FF0149010003C501FF0449010024002EBF
:104F4000C50199010004FF016F010001C50199012C
:104F50000004FF016F010001C50199010004FF0178
:104F60006F010001C50199010004FF016F010001FB
:104F7000C501FF066F010001C50199010004FF0191
:104F80006F010001C50199010004FF016F010001DB
:104F9000C50199010004FF016F010001C5019901DC
:104FA0000004FF016F010001C50199010004FF0128
:104FB0006F010024002E4901FF05C5010005C50150
:104FC0006F010007C5016F010007C5016F010007F0
:104FD000C5016F010007C5016F010007C5016F0121
:104FE0000007C5016F010007C5016F0100044901F9
:104FF000FF05C5010025002E2401FF05490100061B
:105000002401FF01490100062401FF0149010006B6
:105010002401FF01490100062401FF0149010006A6
:105020002401FF01490100062401FF014901000696
:105030002401FF012401000224016F0100029901F3
:10504000C50100049901FF030027002E4901FF015B
:1050500000039901FF01240100014901FF01000241
:105060004901FF01240100024901FF01000124015F
:10507000FF01490100034901FF010001C5016F0162
:1050800000044901FF016F01990100054901FF0278
:10509000C50100054901FF010001FF01990100045C
:1050A0004901FF0100012401FF016F0100034901D3
:1050B000FF0100024901FF01490100024901FF010E
:1050C00000039901FF0149010024002FC5016F0170
:1050D0000007C5016F010007C5016F010007C50189
:1050E0006F010007C5016F010007C5016F010007CF
:1050F000C5016F010007C5016F010007C5016F0100
:105100000007C501FF0524010024002E9901FF01BD
:10511000240100026F01FF0149010001C501FF01E7
:105120006F010002C501FF016F010001C5016F01A0
:10513000C5010001240199026F010001C501490167
:10514000C50100016F01490199016F010001C5010D
:1051500049016F014901C501000199016F01000179
:10516000FF012402C5019901000199020001FF011C
:1051700024010001C5014901000199020001FF015C
:10518000240100046F0199012401FF01240100049E
:105190006F01C5012401FF01240100046F01C50155
:1051A0000024002E9901FF0149010003FF0149017C
:1051B00000019901C5020003FF01490100019903A3
:1051C00049010002FF0149010001990249019901C9
:1051D0000002FF014901000199020001C5012401FB
:1051E0000001FF0149010001990200016F02000165
:1051F000FF014901000199020002FF010001FF01C6
:10520000490100019902000299014901FF01490188
:105210000001990200022401C501FF0149010001BA
:10522000990200039901FF01490100240030FF04A5
:1052300000032401FF01490100029901FF0100025E
:10524000C50199010004C5016F010001FF01490179
:1052500000049901C5012401FF01240100046F012C
:10526000C5012401FF01240100046F01C5012401CF
:10527000FF014901000499020001C50199010004E0
:10528000FF016F0100014901FF014901000299017D
:10529000C50100034901FF0399010026002E4901C1
:1052A000FF0500034901FF0100039901FF012401EB
:1052B00000014901FF010004FF016F0100014901E4
:1052C000FF010004FF01490100014901FF01000342
:1052D0009901FF0100024901FF04990100034901FE
:1052E000FF0100074901FF0100074901FF01000715
:1052F0004901FF01002A0030FF0400032401FF01DF
:10530000490100029901FF01000299020004FF0116
:105310006F010001FF01490100049901C501240149
:10532000FF01490100046F01C5012401FF0149018A
:1053300000046F01C5012401FF0149010004990225
:105340000001C50199010004FF016F01000149013D
:10535000FF01490100029901C50100034901FF0352
:10536000C5010006C501490100076F01C501000222
:10537000990100059901FF0299010009002E4901D8
:10538000FF04C50100034901FF010003C50200023B
:105390004901FF0100036F01FF0100024901FF0104
:1053A0000003FF01990100024901FF0449010003C4
:1053B0004901FF010002FF01490100034901FF010A
:1053C00000024901C50100034901FF010003FF017B
:1053D000490100024901FF0100036F01C5010002FC
:1053E0004901FF010004FF0199010024002F24015D
:1053F000FF04990100024901FF01490100069901DA
:10540000C50100076F01FF01490100079901FF0273
:105410006F0100076F01FF026F0100076F01FF01BD
:10542000240100062401FF01490100069901FF0142
:1054300000029901FF04C5010026002EC501FF06E8
:105440006F010004C5016F010007C5016F0100076E
:10545000C5016F010007C5016F010007C5016F019C
:105460000007C5016F010007C5016F010007C501F5
:105470006F010007C5016F010027002EC5019901CA
:105480000004C5016F010001C50199010004C501B7
:105490006F010001C50199010004C5016F01000100
:1054A000C50199010004C5016F010001C501990101
:1054B0000004C5016F010001C50199010004C50187
:1054C0006F010001C50199010004C5016F010001D0
:1054D00099020004FF01490100014901FF01240173
:1054E00000026F01FF0100034901FF040026002DA7
:1054F0004901FF01490100044901FF010001FF01C9
:105500006F010004990200019901C5010004FF0127
:10551000490100014901FF01240100024901FF0185
:105520000003FF016F010002990200039901C50108
:105530000002FF01490100034901FF012401490163
:10554000FF010005FF016F01990200059901C501E6
:10555000FF01490100054901FF020027002D490113
:10556000FF01240100044901FF012401FF0124017E
:1055700000044901C5012401FF012401000449017F
:10558000C5010001FF0149010001C5016F010001D2
:105590006F01C5010001FF0149010001FF01C501C3
:1055A00000016F0199010001C50149026F01FF016E
:1055B00024016F0199010001C5016F0199014901A1
:1055C0009901490199016F010001C5016F01FF01B6
:1055D0000001490199026F0100019901FF01990140
:1055E0000002FF01C5016F0100019901FF016F0178
:1055F00000029901FF0149010024002EFF01C501AD
:1056000000032401FF016F0100012401FF016F016C
:105610000002C50200036F01FF0124016F01FF01B9
:1056200024010004C501FF026F0100054901FF01CB
:10563000C50100066F01FF02240100042401FF01DF
:105640006F01FF01C5010004C50200014901FF010E
:105650006F0100026F01FF01240100029901FF01A7
:1056600024014901FF016F010004FF020024002D05
:105670006F01FF01490100049901FF010001990137
:10568000FF0100032401FF01490100012401FF0182
:105690006F010002C501990100036F01FF012401A0
:1056A0006F01FF010005C5019901FF016F010005B0
:1056B0002401FF01C5010007C5016F010007C501F5
:1056C0006F010007C5016F010007C5016F010027C9
:1056D000002E9901FF060007C5016F0100066F014A
:1056E000C5010007FF0124010006990200064901D7
:1056F000FF010007C5016F0100066F01C50100072A
:10570000FF01240100069901FF066F0100240099A2
:105710009901FF080009004BFF0424010003C501A3
:1057200000039901FF0100074901FF0100036F0118
:10573000FF0500026F01FF01240100024901FF0182
:1057400000026F01FF010003FF020003C501FF0318
:105750004901FF01002500254901FF01000749011A
:10576000FF0100074901FF0100074901FF01000790
:105770004901FF012401FF03490100024901FF0221
:1057800000026F01FF0100024901FF010004FF0157
:10579000490100014901FF010004FF016F010001FF
:1057A0004901FF010004FF01490100014901FF0116
:1057B00000039901C50100022401FF04990100269C
:1057C000004B6F01FF03C50100039901FF010006B3
:1057D0002401FF01240100064901FF0100074901DE
:1057E000FF0124010007C5020008C501FF03C50130
:1057F0000025002A4901FF0100074901FF010007B8
:105800004901FF0100074901FF010004FF050002F3
:105810002401FF01490100024901FF010002990230
:1058200000034901FF010002C5019901000349017C
:10583000FF010002990200034901FF010002490132
:10584000FF01240100016F01FF0200039901FF0223
:10585000C5012401FF010025004BFF0400032401C2
:10586000FF01490100026F01FF0100026F01C50144
:105870000004FF01490100019901FF0649010001EF
:10588000990200072401FF01490100072401FF05D7
:10589000002500284901FF03C50100032401FF0181
:1058A000490100064901FF0100076F01FF010005E2
:1058B000FF07490100036F01FF0100076F01FF01AE
:1058C00000076F01FF0100076F01FF0100076F0173
:1058D000FF0100076F01FF010028004A2401FF05B6
:1058E000990100012401FF0149010002FF01990112
:1058F00000024901FF0100036F01C50100022401FC
:10590000FF0149010002FF01990100022401FF0487
:10591000990100036F0199010008FF060002990236
:105920000004C50199010001C5019901000324018A
:10593000FF016F010002FF054901000A002549012E
:10594000FF0100074901FF0100074901FF010007AE
:105950004901FF0100074901FF012401FF03240160
:1059600000024901FF0200029901C501000249013C
:10597000FF0100034901FF0100024901FF0100038B
:105980004901FF0100024901FF0100034901FF0134
:1059900000024901FF0100034901FF010002490122
:1059A000FF0100034901FF0100250028FF01C50197
:1059B0000007FF01C5010017FF03990100079902C5
:1059C000000799020007990200079902000799024F
:1059D00000044901FF06002500299901FF01240167
:1059E00000069901FF01240100144901FF0524016B
:1059F00000064901FF01240100064901FF012401BD
:105A000000064901FF01240100064901FF012401AC
:105A100000064901FF01240100064901FF0124019C
:105A200000064901FF01000399010003C501990126
:105A30000004FF039901000C00252401FF0124014B
:105A400000062401FF01240100062401FF012401B6
:105A500000062401FF01240100062401FF012401A6
:105A60000002C501FF016F0100012401FF012402B2
:105A7000FF016F0100032401FF032401000424013E
:105A8000FF014901FF016F0100042401FF0124010E
:105A90004901FF016F0100032401FF0124010001FE
:105AA0004901FF01490100022401FF012401000214
:105AB0006F01FF01990100240026FF0399010007EF
:105AC000990200079902000799020007990200074E
:105AD000990200079902000799020007990200073E
:105AE000990200044901FF0600250049C5016F0124
:105AF000FF022401FF0249010001C501FF01240149
:105B0000C501FF01240199020001C5016F010001D7
:105B1000C5019901000199020001C5016F01000151
:105B2000C5019901000199020001C5016F01000141
:105B3000C5019901000199020001C5016F01000131
:105B4000C5019901000199020001C5016F01000121
:105B5000C501990100019902002400494901C501CC
:105B60004901FF03490100024901FF0200029901B6
:105B7000C50100024901FF0100034901FF010002C4
:105B80004901FF0100034901FF0100024901FF0132
:105B900000034901FF0100024901FF01000349011F
:105BA000FF0100024901FF0100034901FF01002537
:105BB000004A2401FF04240100024901FF014901B8
:105BC00000026F01FF0124010001C50199010004D9
:105BD000C5016F010001C5016F01000499020001B8
:105BE000C50199010004C5016F0100014901FF01D0
:105BF000490100026F01FF0100034901FF04002673
:105C000000494901C5014901FF0349010002490159
:105C1000FF0200026F01FF0100024901FF010004C1
:105C2000FF01490100014901FF010004FF016F016B
:105C300000014901FF010004FF0149010001490180
:105C4000FF0100039901C50100024901FF04990108
:105C500000034901FF0100074901FF010007490155
:105C6000FF01000F004BFF0500022401FF01490165
:105C700000024901FF010002990200034901FF01EE
:105C80000002C501990100034901FF0100029902C8
:105C900000034901FF0100024901FF012401000145
:105CA0006F01FF0200039901FF02C5014901FF01D5
:105CB00000074901FF0100074901FF0100074901F1
:105CC000FF01000A004AFF0124019901FF02990126
:105CD0000003FF026F0100012401FF0149010002DE
:105CE000FF016F010003C5016F010002FF014901BF
:105CF0000007FF0149010007FF0149010007FF01FB
:105D000049010029004A2401FF0449010003FF0161
:105D100049010007FF0199010008C501FF02C50103
:105D20000008C50200076F01C50100022401FF043D
:105D3000C50100260030FF0149010007FF014901AC
:105D40000007FF01490100042401FF06C50100040A
:105D5000FF0149010007FF0149010007FF01490157
:105D60000007FF0149010007C5019901000724014F
:105D7000FF03C501002500494901FF010003490156
:105D8000FF0100024901FF0100034901FF01000278
:105D90004901FF0100034901FF0100024901FF0120
:105DA00000034901FF0100024901FF01000349010D
:105DB000FF0100022401FF01490100014901FF0226
:105DC00000039901FF032401FF0100250049C501DB
:105DD00099010004FF016F0100014901FF01240145
:105DE00000026F01FF010003FF016F010002C50106
:105DF0006F0100036F01C50100012401FF012401AF
:105E00000004FF014901990200059902FF012401E4
:105E100000052401FF01C501002700482401FF01FE
:105E2000240100044901FF010001FF0149010004B0
:105E30006F01C5010001C50149010001C5016F01E4
:105E400000019902000199016F0124019901C50126
:105E5000000199016F0100016F0199016F01490172
:105E600099012401C501490100014901C502000150
:105E700049019901FF01240100012401FF01990159
:105E80000002FF0200250049C501FF0124010002B4
:105E90006F01FF01490100029901C50100012401C0
:105EA000FF0149010004C5019901FF016F010006CE
:105EB000FF0199010006C5016F01C50199010004A8
:105EC000C5020002FF016F010002FF020003490149
:105ED000FF01990100240049C50199010004FF0157
:105EE0006F0100014901FF01240100024901FF0186
:105EF0000003FF016F010002C5016F0100036F0184
:105F0000C50100012401FF010005FF0124019901E1
:105F10006F0100056F019901FF0100062401FF01D7
:105F2000990100062401FF0124010006C501990121
:105F300000042401FF029901000E00492401FF051D
:105F4000990100064901C50100062401FF01240151
:105F50000006C5014901000699016F0100066F01A5
:105F6000C50100062401FF06002500000000000016
:105F70000000000055290008712D00080D290008B7
:105F80001D2D0008012B000800000000000000008B
:105F9000F92D0008CB2E0008532E00080000000049
:105FA00000000000F52F0008393300082D320008EA
:105FB000CF3200080F0180961180FFB103012C2D14
:105FC000B203012C2DB306012C2D012C2DB4010799
:105FD000C003A20284C101C5C2020A00C3028A2A08
:105FE000C4028AEEC5010E20003601A03A01050266
:105FF0002A040000007F2B040000007F04E0100250
:106000001C07123732292D29252B3900010310E1F5
:1060100010031D07062E2C292D2E2E373F000002BF
:106020001013800A298064002E2E2F2E2E2F4C69EB
:10603000622F4775694C6974655C4775694C697472
:10604000652E68008060000800000020F004000059
:106050006C010008A8620008F00400205042000013
:10606000C80100081C00000043000000F8FFFFFF0B
:106070000C0000000E0000000F0000002E000000C9
:10608000320142101324F43220320913A4445B0875
:10609000210C1AA60C5A230C1AE40C5A250C135086
:1060A000455B08270C1AEE0C5A280C1308465B08AF
:1060B000290C1A680C5A2B0C1AC00C6A2C30190CBB
:1060C0005A2D0C1316475B082E0C1A200C5A2F0C55
:1060D0001A300C5A300C1A7E0C5A310C1112485BD3
:1060E00008320C1A4A0C5A330C1A940C5A340C1AF3
:1060F000D80C6A354812495B08360C1A7C0C5A37A2
:106100000C1ADC0C6A3878124A6B083948190C5A98
:106110003A0C1AF60C5A3B0C13184B5B083C0C1A41
:106120004E0C5A3D0C1A900C5A3E0C1AA20C5A3FB7
:106130000C1AE20C5A400C13224C5B08410C1AC09A
:106140000C5A420C132A4D5B08430C1A960C6A44F5
:106150003C190C5A450C135A4E5B08460C1A980C05
:106160005A470C1AD60C5A480C133E4F5B08490C80
:106170001AB40C6A4AC0190C5A4B0C134A505B08EB
:106180004C0C1ACA0C5A4D0C130A516B084EC0190C
:106190000C5A4F0C132C525B08500C1A9C0C6A5171
:1061A00054190C5A520C137C535B08530C1AEC0C08
:1061B0005A540C133A545B08550C1A7A0C5A560C64
:1061C0001AEE0C5A570C135C555B08580C1AFA0C53
:1061D0005A590C136E565B085A0C1AD00C5A5F0CA5
:1061E000130E575B08610C1A160C5A620C1A560CE7
:1061F0005A630C1AC00C5A640C1AF20C5A650C1330
:1062000058585B08660C1A920C5A670C1ADA0C5A2A
:10621000680C133C595B08690C1AAA0C5A6A0C1AD0
:10622000D80C5A6B0C13385A5B086C0C1AB80C5A01
:106230006D0C1AEA0C5A6E0C135A5B5B086F0C1A41
:10624000B00C5A700C11125C5B08710C1A640C5A79
:10625000720C1AC40C5A730C13045D5B08740C1A8C
:10626000340C5A750C1A760C5A760C1ACC0C5A77D8
:106270000C131A5E5B08780C1A860C5A790C1AD625
:106280000C5A7A0C133A5F1408E8040BBD20010184
:106290000A1D0201DA03015A04011A050117060654
:0862A0000101745F42080000D7
:0400000508000131BD
:00000001FF
