:020000040800F2
:100000007030002045010008AD1400084F010008C1
:10001000A9140008F5020008FD18000800000000FF
:1000200000000000000000000000000009150008AA
:10003000F902000800000000B301000835150008AF
:100040005F0100085F0100085F0100085F01000810
:100050005F0100085F0100085F0100085F01000800
:100060005F0100085F0100085F0100085F010008F0
:100070005F0100085F0100085F0100085F010008E0
:100080005F0100085F0100085F0100085F010008D0
:100090005F0100085F0100085F0100085F010008C0
:1000A0005F0100085F0100085F0100085F010008B0
:1000B0005F0100085F0100085F0100085F010008A0
:1000C0005F0100085F0100085F0100085F01000890
:1000D0005F010008ED1800085F0100085F010008DB
:1000E0005F0100085F0100085F0100085F01000870
:1000F0005F0100085F0100085F0100085F01000860
:100100005F0100085F0100085F0100085F0100084F
:100110005F0100085F0100085F010008B5150008D5
:100120005F0100085F0100085F0100085F0100082F
:10013000DFF80CD000F0CCF800480047651D00083F
:10014000703000200648804706480047FEE7FEE77B
:10015000FEE7FEE7FEE7FEE7FEE7FEE7FEE7FEE777
:10016000B11500083101000872B6704762B67047D9
:10017000EFF3108072B6704780F310887047B0FAC2
:1001800080F0704717484FF0FF010170002080F3A6
:10019000098815484FF08051016062B6FEE71248A9
:1001A0004FF08051016070470F484FF0805101605F
:1001B000704772B6EFF3098028B1203880E8F00F5D
:1001C0000A4909680860094809490A680260106814
:1001D00090E8F00F203080F309884EF0040E62B6EC
:1001E000704700BF22ED00E004ED00E08C1100201C
:1001F000102300202DE9F05F0546002092469B4623
:1002000088460646814640241BE02846414647462C
:10021000224600F04DF853465A46C01A914110D379
:1002200011461846224600F034F82D1A67EB0108F3
:100230004F4622460120002100F02BF817EB000961
:100240004E41201EA4F10104DFDC484631462A4617
:100250004346BDE8F09FD2B201E000F8012B491EF1
:10026000FBD270470022F6E710B513460A46044653
:100270001946FFF7F0FF204610BD10B5044604E014
:100280000B7800F8013B03B1491C521EF8D22046FE
:1002900010BD202A04DB203A00FA02F1002070474A
:1002A0009140C2F1200320FA03F3194390407047B4
:1002B000202A04DB203A21FA02F00021704721FABB
:1002C00002F3D040C2F12002914008431946704722
:1002D000064C074D06E0E06840F0010394E8070093
:1002E00098471034AC42F6D3FFF726FFF82D0008EC
:1002F000182E0008FEE7000070470000EFF31080A2
:1003000072B600BFFEE70000014690F82100022807
:1003100013D10868D1E90FC3026822F00E0202600F
:10032000026822F001020260012000FA03F2CCF818
:10033000042081F82100002002E0042088630120CD
:10034000002281F82020704780B590F82110022902
:1003500027D1026840F2040C1368C4F2020C23F0A7
:100360000E03136013680CF17C018A4223F0010133
:1003700011601AD940F20841C4F202018A4247D002
:1003800040F21C41C4F202018A4245D040F23041A1
:10039000C4F202018A4243D14FF48073CCF8003496
:1003A00057E004218163012080BD4321C4F2020192
:1003B0008A420EDD6B21C4F202018A421BDC442119
:1003C000C4F202018A4239D05821C4F202018A42A1
:1003D00031E00821C4F202018A4232D01C21C4F269
:1003E00002018A4232D03021C4F202018A4222D173
:1003F0004FF480722BE06C21C4F202018A4222D0B9
:100400008021C4F202018A4215D14FF080721EE0B1
:100410000123CCF800341CE01023CCF8003418E0A1
:100420000CF588614FF480338A4208BF4FF4805343
:10043000CCF800340DE04FF4803208E04FF48052E5
:1004400005E0012203E04FF4801200E01022CCF816
:100450000020416B4FF48072028401B18847002074
:1004600080BD00002DE9F04F83B00C68002C00F037
:10047000EA80A0F18042A2F5843240F2004E4FEAB9
:10048000B22241F60047C4F2010E0092C4F2010705
:10049000062200254FF001094FF0000B4FF0000A33
:1004A000B84208BF0522019209E000BF0C680BF1B9
:1004B000010B34FA0BF205F1040500F0C48009FACF
:1004C0000BF814EA080CF1D04C684FF6FF72C1F239
:1004D0001002944210DC122C50D8DFE804F0330AEA
:1004E00041454F4F4F4F4F4F4F4F4F4F4F4F4F483B
:1004F0004C00D1F80CA041E04FF6FF72C1F221028E
:1005000094420FDC0022C1F2110294421AD0002260
:10051000C1F21202944215D00022C1F2210294428B
:1005200010D02BE00022C1F2220294420AD0002215
:10053000C1F23102944205D00022C1F2320294424B
:100540001CD100BF8C6844B1012C14BFC0F81480CA
:10055000C0F810804FF0080A10E04FF0040A0DE0D8
:10056000CC6804F1080A09E04FF0000A06E0CC6804
:1005700004F1040A02E0CC6804F10C0A2C46074698
:10058000BCF5807F24BF203C04373A680F2303FA70
:1005900004F6B2430AFA04F422433A60CA79D20656
:1005A0007FF584AF41F21804C4F2020422684FF6CA
:1005B000084842F0010222602268CFF6FF7802F07C
:1005C00001020292029A2BF00302724452F8084090
:1005D00005F00C0603FA06F7009BBC43019F052BB0
:1005E00038BF1F4607FA06F6344342F808404C6805
:1005F000E203DEF8002054BF22EA0C0742EA0C07AF
:10060000A203CEF80070DEF8042054BF22EA0C07E3
:1006100042EA0C07E202CEF80470DEF8082054BF6C
:1006200022EA0C0742EA0C07A20240F20C44CEF880
:100630000870C4F20104226854BF22EA0C0242EAA4
:100640000C02226032E703B0BDE8F08F002A08BF39
:10065000090401617047000042F66840C2F20000E0
:100660000068704740F2380042F66841C2F200006C
:10067000C2F2000100780A68104408607047000068
:1006800080B542F20000C4F20200016841F010019E
:100690000160032000F094F80F2000F005F800F04E
:1006A00059F8002080BD0000B0B586B041F21C01B1
:1006B000C4F202010A68044642F020020A60096896
:1006C00001A801F0200101910199694600F036F975
:1006D000049D002D18BF012500F058F94DF68361E7
:1006E000A840C4F21B31A0FB01014FF0FF3000EB2A
:1006F000914141F2B80041F20042C2F20000C4F25E
:10070000000240F2E7330025C0E90021C0E90253AE
:100710000561856100F018FB0546C0B941F2B800DB
:10072000C2F2000000F040FB054680B9372000F01F
:1007300033F80F2C0AD837202146002200F030F879
:1007400040F23C00C2F20000046000E001252846AF
:1007500006B0B0BD82B041F21800C4F202000168D8
:10076000022241F001010160016801F001010191E3
:100770000199416841F080514160406800F080502B
:10078000009000980420C4F20100016862F31A612D
:10079000016002B07047000080B501F0B1F880BD83
:1007A00070B514460D46064601F0BAF829462246B1
:1007B00000F07EFE0146304601F0BAF870BD000040
:1007C00080B501F0CFF880BD2DE9F04381B000285D
:1007D00000F0898042F20008C4F202080446D8F80A
:1007E00000000D4600F0070088420CD2D8F8000047
:1007F00020F007002843C8F80000D8F8000000F0F7
:100800000700A8426FD1206841F204098107C4F2B1
:10081000020917D5410705D5D9F8001041F4E06168
:10082000C9F80010010705D5D9F8001041F460514E
:10083000C9F80010D9F80010A26821F0F0011143A6
:10084000C9F80010C00745D1D8F8000000F0070033
:10085000A8420CD9D8F8000020F007002843C8F8B7
:100860000000D8F8000000F00700A8423BD1206843
:10087000410707D5D9F80010E26821F4E06111437F
:10088000C9F80010000708D5D9F80000216920F444
:10089000605040EAC100C9F8000000F09BF8D9F8A8
:1008A000001042F6D852C1F30311C0F60002515CA9
:1008B00040F2040220FA01F140F23C00C2F20000D2
:1008C0000068C2F200021160FFF7EEFE002001B0E6
:1008D000BDE8F0836068022809D0012829D159F8C1
:1008E000041C890307D4012001B0BDE8F08359F846
:1008F000041C8901F7D5D9F8001021F00301084341
:10090000C9F80000FFF7A8FE064641F2883700BF8D
:10091000D9F80000616800F00C00B0EB810F93D0B3
:10092000FFF79AFE801BB842F2D9032001B0BDE860
:10093000F08359F8041C8907D5D5DCE70F22026043
:1009400041F20402C4F20202136803F0030343609D
:10095000136803F0F0038360136803F4E063C3607B
:1009600012684FF4E06303EAD202026142F200002F
:10097000C4F20200006800F0070008607047000041
:1009800040F20400C2F200000068704780B5FFF733
:10099000F7FF41F20401C4F20201096842F6E8528D
:1009A000C1F30221C0F60002515CC84080BD0000C6
:1009B00080B5FFF7E5FF41F20401C4F202010968C6
:1009C00042F6E852C1F3C221C0F60002515CC840B1
:1009D00080BD000041F2040CC4F2020CDCF80030CF
:1009E00003F00C00082841F20020C0F27A0018BF82
:1009F0007047C3F383420AA18A5CD90305D440F649
:100A00000010C0F23D0050437047DCF8001008A30E
:100A1000C1F34041595C5043B0FBF1F0704700BF57
:100A200002030405060708090A0B0C0D0E0F10102F
:100A3000010200002DE9F04182B0002800F0C480DE
:100A40000446007841F20006C007C4F2020643D013
:100A5000706800F00C00042817D0706800F00C00DB
:100A6000082802D17068C0030FD465682DB1B5F5B0
:100A7000A02F10D0B5F5803F11D0306820F4803021
:100A80003060306820F480200CE03068800323D58B
:100A9000606808BB98E0306840F4802030603068BF
:100AA00040F480303060FFF7D7FD002D054610D0B0
:100AB0003068800310D4FFF7CFFD401B6428F7D9BE
:100AC00004E100BFFFF7C8FD401B64284FF003009E
:100AD00077D830688003F5D42078800718D57068FF
:100AE00010F00C0F07D0706800F00C00082826D119
:100AF0007068C00323D43068800702D520690128BC
:100B000062D13068616920F0F80040EAC1003060CD
:100B1000207800073DD5A06938B30020C4F24220F8
:100B20000121C0F88014FFF797FD0546706A800721
:100B30002DD4FFF791FD401B0228F7D9C6E02069AC
:100B4000002840F20000C4F2422000F0968001210B
:100B50000160FFF781FD054630688007D1D4FFF7BB
:100B60007BFD401B0228F7D9B0E00020C4F24220F0
:100B70000021C0F88014FFF76FFD0546706A8007FA
:100B800007D5FFF769FD401B0228F7D99EE000F06A
:100B9000A5FC207840071BD4E5698DB1706800F092
:100BA0000C00082847D1012D0ED07068216A00F48E
:100BB00080328A4208D1616A00F47010884203D101
:100BC000002002B0BDE8F081012002B0BDE8F08154
:100BD000F06910F0805808D1F06940F08050F06161
:100BE000F06900F080500190019847F20007C4F2CC
:100BF00000073868C00510D4386840F48070386049
:100C0000FFF72AFD054600BF3868C00505D4FFF789
:100C100023FD401B6428F7D958E0E5681DB1052D78
:100C20003CD0012D3ED0306A20F001003062306AA5
:100C300020F0040039E00027C4F242270020386683
:100C4000FFF70AFD022D05460CD100BF3068800178
:100C500054D5FFF701FD401B02284FF00300F5D9E2
:100C6000AFE700BF30688001AAD5FFF7F5FC401B55
:100C700002284FF00300F5D9A3E700210160FFF738
:100C8000EBFC0546306880077FF542AFFFF7E4FCD8
:100C9000401B02284FF00300F4D992E7306A40F07D
:100CA00004003062306A40F001003062FFF7D4FC8B
:100CB000002D054641F2883714D000BF306A800706
:100CC00013D4FFF7C9FC401BB842F7D9032002B088
:100CD000BDE8F081FFF7C0FC401BB8424FF00300B5
:100CE0003FF66FAF306A8007F4D4B8F1000F7FF49D
:100CF00053AFF06920F08050F0614DE7206AB0F505
:100D0000803F05D17168A26821F400311143716000
:100D10007168626A21F47411104308437060012005
:100D20003866FFF799FC0446306880013FF548AF0C
:100D3000FFF792FC001B02284FF00300F4D940E7B4
:100D40007047000070470000002804BF0120704772
:100D500010B5044690F83D0028B9002084F83C0006
:100D6000204600F01FF8022084F83D002068211D75
:100D700000F028FC012084F8460084F83E0084F846
:100D80003F0084F8400084F8410084F8420084F871
:100D9000430084F8440084F8450084F83D000020B6
:100DA00010BD00007047000090F83D1001291CBFE5
:100DB00001207047022180F83D10006840F6FF32A4
:100DC000C168C4F20002904241F00101C1600FDC31
:100DD000B0F1804F1ED040F20041C4F200018842C1
:100DE00018D040F60001C4F20001884212D018E089
:100DF00040F60041C4F2000188420BD043F20041AA
:100E0000C4F20101884205D042F60041C4F201015A
:100E1000884206D1816801F00701062904BF00203D
:100E20007047016841F00101016000207047000037
:100E30007047000010B5044600680169890744BF87
:100E4000C1685FEA817138D420680169490744BFED
:100E5000C1685FEA41713CD420680169090744BF59
:100E6000C1685FEA017141D420680169C90644BFC5
:100E7000C1685FEAC16145D420680169C9071CBF28
:100E8000C1685FEAC1714AD120680169090644BF9F
:100E9000C1685FEA016149D420680169490644BF1D
:100EA000C1685FEA416148D420680169890644BF8E
:100EB000C1685FEA816147D410BD6FF00201016132
:100EC000012121778069800745D02046FFF7B0FFD8
:100ED00047E06FF00401016102212177806910F47D
:100EE000407F41D02046FFF7A3FF43E06FF00801A9
:100EF000016104212177C06980073ED02046FFF7B9
:100F000097FF40E06FF01001016108212177C0696F
:100F100010F4407F3AD02046FFF78AFF3CE06FF0A4
:100F200001010161204600F03FF8ADE76FF080015C
:100F300001612046FFF704FFAEE76FF04001016159
:100F4000204600F03DF8AFE76FF020010161204638
:100F5000FFF7F8FE10BD204600F022F8204600F012
:100F600021F8002020776FE7204600F019F820468E
:100F700000F018F8002020776EE7204600F010F807
:100F8000204600F00FF8002020776DE7204600F0A3
:100F900007F8204600F006F8002020776CE70000F4
:100FA000704700007047000080B5006841F20041C2
:100FB000C4F20001884208BFFFF754FB80BD000067
:100FC000704700007047000070470000B0B582B065
:100FD000016805460868CA684C6900F02F03202B99
:100FE00002F0200305D123B1284600F081FB02B0B6
:100FF000B0BD5FEA007C1EBF04F0010E02F49074E5
:1010000014EB0E0424D12B6B1040C20617D5012B14
:1010100015D100200190086801904868019001985E
:10102000486940061CD4A88DEA8DEB8D002B1CBFAF
:10103000801A5FEA004240F09A8002B0B0BD01061B
:1010400036D44006F9D5284600F046FB02B0B0BDC4
:10105000C10718BF12F480712FD1410733D439E092
:10106000A86B0268526893B2002BE6D0AC8DA34205
:10107000E3D2EA858269202A16D0CA6822F48072F7
:10108000CA604A6922F001024A614A6922F04002BC
:101090004A61202285F83E2000222A63CA6822F095
:1010A0001002CA60FFF730F9A88DE98D401A6FE091
:1010B000284600F0BFFB02B0B0BD296C41F0010131
:1010C0002964410706D5BEF1000F03D0296C41F019
:1010D00002012964810706D5BEF1000F03D0296CF7
:1010E00041F004012964BCF1000F06D55EEA03015A
:1010F00003D0296C41F008012964296C00299CD097
:101100001040800602D5284600F0F2FA28684069AF
:10111000296C00F0400001F00801401820D028465A
:1011200000F0C4FA28684169490614D5416921F0E4
:1011300040014161A86B70B141F29D61C0F60001B0
:101140004163FFF701F900283FF477AFA86B416BCB
:10115000884702B0B0BD2846FFF736FF02B0B0BDE9
:101160002846FFF731FF0020286402B0B0BDCA68EE
:1011700022F49072CA604A6922F001024A61202278
:1011800085F83E2000222A63CA6822F01002CA6055
:1011900081B22846FFF716FF02B0B0BD002804BF99
:1011A0000120704710B5044690F83D0028B9002092
:1011B00084F83C00204600F021F8242084F83D000B
:1011C0002068C16821F40051C160204600F0EAFAAD
:1011D0002068016921F490410161416921F02A01EF
:1011E0004161C16841F40051C160002020212064A8
:1011F00084F83D1084F83E1010BD000070B586B034
:10120000006844F20041C4F20001002688420596BD
:10121000CDE9036602963FD043F60001C4F2010116
:10122000884266D141F21800C4F20200016840F61B
:10123000000441F4804101600168C4F2010401F43A
:10124000804101910199016802AD41F00401016002
:101250000068294600F00400019001984FF40070E6
:10126000029002200390032005902046FFF7FAF831
:101270004FF4806002900020CDE90300204629460B
:10128000FFF7F0F8252000210022FFF789FA25203A
:10129000FFF782FA06B070BD41F21800C4F20200F6
:1012A000416840F6000441F4003141604168C4F2F5
:1012B000010401F4003101910199016802AD41F08E
:1012C000040101600068294600F0040001900198C3
:1012D0000420029002200390032005902046FFF78F
:1012E000C1F80820CDE90206204629460496FFF7FA
:1012F000B9F806B070BD0000704700002DE9F0435A
:1013000081B0044690F83D0020280BD10E460029FC
:101310004FF0010055D01746002A52D094F83C00F7
:10132000012803D1022001B0BDE8F083012084F838
:101330003C004FF0000921201D46C4F8409084F87D
:101340003D00FFF789F9A784E784A1680746B1F556
:10135000805F07D1206900281CBF30464E46B0464A
:10136000064601E04FF0000884F83C9007E000BF1B
:1013700016F8010B21684860E08C0138E084E08CAD
:1013800080B1204680213A462B4600F07DFA80B994
:10139000002EEDD138F8020B21686FF35F20486012
:1013A0000026E9E7204640213A462B4600F06CFA39
:1013B00018B1032001B0BDE8F083202084F83D007F
:1013C000002001B0BDE8F0837047000070B586B022
:1013D000002541F21800CDE90455CDE90255C4F2CB
:1013E0000200016840F6000441F02001016001683C
:1013F000C4F2010401F02001019101990168002269
:1014000041F00401016000684FF4807100F00400B5
:101410000190019820464FF48076FFF717F90120DC
:10142000CDE903050220059002A920460296FFF7A8
:1014300019F806B070BD000080B541F2001043F607
:101440000001C2F20000C4F2010100234FF00C0CB5
:101450004FF4E13280E80E00C0E90333C0E905C370
:10146000C361FFF79BFE002818BFFEF747FF80BD52
:1014700080B541F2441044F20041C2F20000C4F2CF
:10148000000100234FF00C0C4FF4E13280E80E0015
:10149000C0E90333C0E905C3C361FFF77FFE00283D
:1014A00018BFFEF72BFF80BDFEE70000FEE700003F
:1014B00000F0070080F00703042B28BF04234FF03F
:1014C000FF3C03380CFA03F338BF002099438140F6
:1014D0000CFA00F022EA00000843704781B040F2A5
:1014E0000400C2F20000006844F6D351C1F2620168
:1014F000A0FB0101480A009000BF0098411E00288F
:101500000091F9D101B0704770470000B0B50138C3
:101510000024B4EB106F18BFB0BD4EF21005CEF230
:10152000000568600F2000F015FA0720AC60286005
:10153000B0BD000080B501F08DF9002808BF80BD66
:1015400001F04EF901F012FC01F05AF980BD0000E3
:1015500070B590B006AC20462821FEF783FE01202E
:1015600006900A904FF4E01000254FF480310226D7
:101570000F9020460595CDE90355CDE90155CDE9FC
:101580000715CDE90D61FFF755FA78B90F20CDE9C0
:1015900001064FF48060CDE9040501A802210395FE
:1015A000FFF712F9002804BF10B070BDFEF7A6FEC9
:1015B0007047000080B541F2B800C2F20000FFF7AA
:1015C00039FC80BD10B540F6FF3E0368C4F2000E42
:1015D00043F2004C7045C4F2010C20DCB0F1804FA6
:1015E0002BD040F20042C4F20002904225D040F6D7
:1015F0000002C4F2000290421FD0704523DCB0F11B
:10160000804F2ED040F20042C4F20002904228D017
:1016100040F60002C4F20002904222D025E040F6DB
:101620000042C4F20002904207D0604505D042F665
:101630000042C4F201029042DFD14A6823F07003F5
:1016400013437045DBDD40F60042C4F200029042D5
:1016500007D0604505D042F60042C4F20102904234
:1016600003D1CA6823F44073134323F080024B690B
:10167000D1F800E08C681A4360450260C462C0F88B
:1016800028E005D042F60042C4F20102904201D1A6
:10169000096901630121416110BD000080B5406A04
:1016A0000021C185C184FFF78FFC80BD0168CA6835
:1016B00022F49072CA604A6922F001024A61026B08
:1016C000012A03D1CA6822F01002CA60202180F8E2
:1016D0003E1000210163704780B50168CA6822F09E
:1016E0004002CA60202180F83D10FFF76DFE80BDEA
:1016F00080B582B090F83E1022291ED18268B2F5E2
:10170000805F02D10169002940D0816AB2F5805F13
:1017100007D00AB9026922B10268526802F07F025A
:1017200001E0026852680A700121826A11448162F4
:10173000C18D01390A04C18501D002B080BD0168A4
:10174000CA6822F02002CA60CA6822F48072CA60A5
:101750004A6922F001024A61202280F83E20026B91
:10176000012A1BD100220263CB6823F01003CB6057
:101770000B68DB0605D501920A6801924968019160
:101780000199818DFFF71EFC02B080BD0168826A5D
:1017900049686FF35F2111800221C6E7FFF7ACFDB6
:1017A00002B080BD10B504460068D4E902C22369C6
:1017B000016921F4405111430161616943EA0C025E
:1017C0001143C26841F20C639A431143C1604169FD
:1017D000A26921F44071114343F60002C4F20102F0
:1017E0009042416102D0FFF7D1F801E0FFF7E0F845
:1017F0006268192148439100B0FBF1F048F21F5193
:10180000C5F2EB11A0FB01235A096FF0630302FB41
:101810000300322303EB0010A0FB0101F02303EAD5
:101820005113206803EB0212C1F34311114481608C
:1018300010BD000090F83D10212923D18168B1F539
:10184000805F01D1016931B1016A02684B1C0362FA
:101850000978516007E0016A036831F8022B6FF3E1
:101860005F225A600162C18C01390A04C18418BF29
:1018700070470068C16821F08001C160C16841F013
:101880004001C160704700002DE9F0410446006846
:1018900000680840884202D10020BDE8F0811D4662
:1018A0000E4690465F1C04E0206800683040B0425D
:1018B000F2D0002FF8D02DB1FEF7CEFEA0EB08003D
:1018C000A842F1D92068C16821F4D071C160416992
:1018D00021F001014161202084F83D0084F83E00A0
:1018E000002084F83C000320BDE8F08180B541F27F
:1018F0000010C2F20000FFF769FB80BDFEE70000A8
:10190000002848BF704700F01F01012202FA01F1D0
:101910004EF200124009CEF2000242F82010704749
:101920004EF60C50CEF200000068C0F30220704763
:101930004EF6145300F00F02CEF2000309011A44D0
:1019400000F16043B0F1FF3FC8BF03F5644211707E
:10195000704700004EF623510001CEF200010870DE
:10196000704700004EF60C51CEF200010A684FF6A7
:10197000FF031A4060F30A2242F0806040F0FD70DD
:101980000860704780B500F045F9013880BD00005F
:101990005060C0E900210860704700005060C0E955
:1019A000002108607047000040F21402C2F20002F9
:1019B0004860C0E900121060704700005060C0E944
:1019C00000210860704700005060C0E900210860F5
:1019D0007047000048600160704700004860016087
:1019E0007047000048600160704700004860016077
:1019F0007047000048600160704700004860016067
:101A00007047000080B5D0E90010FFF7EBFF80BD04
:101A100020F003007047000070B584B042F2F0304F
:101A2000C2F200000326CDE9006042F2783042F2B3
:101A3000692200244FF48065C2F200000EA1C0F6B6
:101A4000000200230295039401F036F842F6680084
:101A5000C2F20000CDE9006042F2F07042F2912241
:101A6000C2F2000006A1C0F6000200230295039412
:101A700001F022F804B070BD7461736B3100000096
:101A80007461736B3200000010B582B0044600F040
:101A90003DF801A96A4600F09BF9DDE900212046E6
:101AA00000F0BEF802B010BD10B5044600F002F818
:101AB000046010BDB0B5044600F02CF80546204681
:101AC00000F024F8011F284600F022FAB0BD000003
:101AD000416841F00101416070470000416841F0F8
:101AE0000201416070470000416821F0020141603D
:101AF00070470000426802F00302114341607047E2
:101B0000416821F00101416070470000406820F009
:101B1000030070470830704780B5FEF740FB80BD7A
:101B200080B540F20800C2F20000D0E900234BF279
:101B30000040C0F2C4400021FEF75CFB41F2881176
:101B4000C2F20001086000F007F880BD80B5FEF722
:101B50002BFB80BDFEF716FB10B50446002000F0FD
:101B600049FA204600F042FA10BD000070B5DDF8D9
:101B700010E0844603EB0E0020F007004FF0043322
:101B800040F8403D4FF012334FF00334C0E90B43AF
:101B900000F134034FF0807E83E804504FF00632AA
:101BA0004FF005334FF002354FF001364FF0113C46
:101BB0004FF00734C0E9013200F10C02C0E90965B9
:101BC0004FF0103E4FF009364FF0083582E8704074
:101BD000C0E907C170BD000080B582B00A2801903D
:101BE00009D141F24410C2F2000009A101224FF0D4
:101BF000FF33FFF783FB41F24410C2F2000001A95A
:101C000001224FF0FF33FFF779FB019802B080BD4E
:101C10000D00000080B500F0BFFDC0F1200080BDC8
:101C200010B541F28C2CC2F2000C0CEBC11303EB8B
:101C3000820EDEF884300CF11004C0E90234D86062
:101C4000CEF884000120DCF8203000FA01F42343B0
:101C5000CCF820300CEB81014B6A9040184348626D
:101C600010BD0000FEE7000080B584B042F6F050E1
:101C7000C0F6000042F6F4510068C0F600010968A1
:101C80000922CDE9002041F2901041F665424FF063
:101C9000000C0291C2F2000004A1C0F60002002371
:101CA000CDF80CC000F008FF04B080BD69646C651D
:101CB0000000000041F29011C2F20001401AB0FA97
:101CC00080F040097047000041F28820C2F2000015
:101CD0000078002818BF01207047000042F26C30E5
:101CE000C2F200000078002818BF012070470000F1
:101CF00041F28C11C2F200010968081AB0FA80F0B2
:101D00004009704700214180704700004DF6D821FE
:101D10004180704740884DF6D821401AB0FA80F0D3
:101D20004009704710B500F095FD10B1FFF7CCFFEA
:101D300000B110BDFFF7D2FF002818BF10BD00F0A2
:101D400033FD044600F0ACF942F21031C2F200015A
:101D50000860FFF7CDFF08B9FFF7DEFE204600F070
:101D60001FFD10BD84B0FEF78BFCFFF7F1FBFFF702
:101D70002DFBFFF761FBFFF77BFB00F019FD40F245
:101D8000B8014FF48050C2F200010422CDE90021D5
:101D9000029040F2400041F619224FF0000CC2F2CE
:101DA000000006A1C0F600020023CDF80CC000F030
:101DB00083FE00F09BFD00BFFEE700BF6170706C0A
:101DC00069636174696F6E5F7461736B000000001A
:101DD00070B5144606467F280D4605D8F01706EB69
:101DE00090708110002008E03046FFF7CBFD411FC6
:101DF00046FA01F181F0200106382860216070BDAB
:101E000070B541F28C26C2F20006002406F11005DE
:101E100006F120006421C6E90044C6E90244C6E98F
:101E20000655FEF71FFA06F1800000BF202102468A
:101E3000013942F8045FFBD10134182C00F1800015
:101E400008BF70BDF2E70000B0B50C460546FFF7CD
:101E5000D7FF2846214600F0E3FDB0BD41F28C21BA
:101E6000C2F200010A68012ABCBF0020704751F885
:101E7000042B012AD8BF01220B68834204BF012032
:101E80007047013A01F1040104BF00207047F3E7F5
:101E900041F28C20C2F2000000680338B0FA80F0F2
:101EA0004009704741F28C21C2F200010A68531CBC
:101EB0000B6001EB8201486070470000B0B5054639
:101EC0000469183000F058FD94F8581000200A29D1
:101ED000286128730BD194F82100297D884208BF1E
:101EE000B0BD204600F0CCFE0A202875B0BD2046CB
:101EF00000F0C6FE0A2084F85800B0BD10B50446B4
:101F0000FFF7DCFF201D042100F05EF810BD00008B
:101F10000844704710B5044600F052FD08B1002097
:101F200001E020684838002814BF90F821000A20FA
:101F300010BD0000B0B50C46096805468C4208D0BB
:101F400095F8210011F8272C904202D309688C42A1
:101F5000F8D105F1480000F0F7FC2846EC6500F0E8
:101F600069FAB0BD10B50446483000F00BFDE16DD4
:101F70002046FFF7DFFF10BD10B50446483000F0E3
:101F800001FD0020E065204600F040FA10BD000091
:101F9000B0B50D46044600F015FA20B1204684F88D
:101FA0006050FFF7E9FF204600F01EFA10B120460E
:101FB00000F05CFA204600F023FA002818BFB0BDFC
:101FC000204600F01BF8B0BD70B50446006884429E
:101FD00008BF70BD0D4600BF50F848692946FFF79D
:101FE000D7FFB4423046F7D170BD000080B5FFF78F
:101FF0008DFA80BD80B5FFF7ADFC80BD80B541F2A4
:102000008C11C2F20001096890F8212091F821108A
:102010008A4202D100F01CF880BD00F001F880BDBA
:1020200070B5054690F8216042F21430C2F200000B
:1020300000EBC604204600F0C9FC10B1304600F0A9
:1020400097F805F14800214600F06EFC70BD0000D5
:1020500070B5054690F8216042F21430C2F20000DB
:1020600000EBC604204600F0B1FC10B1304600F091
:102070007FF805F14800214600F06CFC70BD0000BF
:1020800010B542F21431C2F2000101EBC004204647
:1020900000F09CFC002812BF00202068483810BDCA
:1020A00042F21430C2F2000090F8541050F831009F
:1020B00048387047B0B542F21434C2F200040A2026
:1020C000002584F8540000BF601900F097FC083523
:1020D000502DF9D100202065B0BD000042F214312E
:1020E000C2F2000151F8302001EBC0001268101A52
:1020F000B0FA80F04009704710B542F21431C2F2D4
:10210000000101EBC004204600F060FC002818BF6D
:1021100010BD2068214600F079FC10BD10B542F2D8
:102120001431C2F20001086D08B1002409E05031F9
:10213000002400BF51F8040F04F120020028D4B29B
:10214000F8D000F029FB2044C0B210BD1F2142F29C
:1021500014338143C0F34210C2F2000303EB80004A
:102160000122036D02FA01F1194301657047000075
:1021700010B50446FFF7EAFF42F21430C2F2000045
:1021800090F85410A14288BF80F8544010BD000060
:102190001F2142F214338143C0F34210C2F2000304
:1021A00003EB80000122036D02FA01F123EA010131
:1021B0000165704770B590F8214042F21436C2F2C2
:1021C0000006483006EBC40500F0E2FB284600F0AC
:1021D000FDFB10B12046FFF7DBFF96F85400844268
:1021E00018BF70BDFFF79AFF86F8540070BD00005D
:1021F00070B5054600F0D8FA04462846FFF740FFC0
:1022000088B10646FFF756FD68B92846FFF766FF16
:1022100048B9FFF763FD30B9B06E00281CBF013824
:10222000B066B06E18B1204600F0BAFA70BD41F247
:102230008C10C2F20000006890F82100FFF75CFFEC
:102240002846FFF71DFF40F21002416EC2F2000265
:102250001268002918BF0A468266204600F0A0FADC
:10226000FFF760FD70BD000005A400BF204600F030
:10227000A1FD4FF4FA60002100F0A4FCF6E700BFD6
:102280002323234920616D207461736B310D00009D
:1022900005A400BF204600F08DFD4FF47A700021A8
:1022A00000F090FCF6E700BF2A2A2A4920616D2041
:1022B0007461736B320D000080B500F001F880BDD1
:1022C000B0B50446FFF7F6FC00281CBF40F26D7065
:1022D000B0BD00F069FA054604F1500000F07CFB47
:1022E00010B9204600F042F8204600F077F810B10F
:1022F0002046FFF75FFF204600F07CF810B1204633
:1023000000F0B4F8204600F063F810B12046FFF763
:1023100033FE04F12C0000F041FB204600F036F8BB
:10232000204600F083F8284600F03AFAFFF7FAFC5E
:102330000020B0BD80B5002000F07CFC80BD000016
:1023400070B5044654F8506F0A25B4420BD000BF54
:10235000A6F11400FFF7DEFDE9B23668884238BF07
:102360000546B442F4D1E8B270BD0000B0B50446F1
:1023700054F8500F844208BFB0BD00BF50F8185940
:10238000FFF7BCFDAC422846F8D1B0BD10B50446FD
:102390002C3000F037FB04F1400000F033FB04F177
:1023A000480000F02FFB04F1500000F02BFB0A2046
:1023B00084F85800002084F86000E065201DFFF7D5
:1023C000A1FC10BD90F8200000F002007047000052
:1023D00090F8200000F002007047000090F8200004
:1023E000B0FA80F04009704790F8200000F001003A
:1023F0007047000090F8200000F0010070470000D6
:1024000090F8200000F004007047000090F82010C1
:1024100001F0FD0180F820107047000090F82010B6
:1024200001F0FE0180F8201070470000082180F8BC
:102430002010704790F8201041F0020180F8201021
:1024400070470000002180F82010704790F820109D
:1024500041F0010180F820107047000010B50446DB
:1024600000F00CF82046FFF7F1FF10BD10B5044650
:1024700000F066F82046FFF7D1FF10BD2DE9F04FC0
:1024800081B09A469346814600F08EF940F21C0CCA
:10249000C2F2000CDCF800108046B1EB0C00B0FA80
:1024A00080F04FEA5010C9E90EBA06D051E9022473
:1024B000BBEB02037AEB04031AD200250027BBEB27
:1024C00005026AEB0703C007C9E90E2306D151E9EB
:1024D0000207801A67EB030241E9020209F140009A
:1024E00000F03EFA404600F05BF901B0BDE8F08F25
:1024F000002300262746154682EA0B0284EA0A04D6
:10250000224305D199F8212011F81F4CA24214D37F
:102510000968B1EB0C00B0FA80F04FEA5010CED051
:1025200051E902233E46521943EB0704BBEB020379
:102530007AEB04032B46DDD2C1E71D463746BEE7E2
:102540002DE9F041064600F02FF906F140058046DE
:10255000284600F047FA10B1002018B920E028689A
:102560004038E8B1296840F21C02C2F200029142F0
:1025700016D0D6E90E136FF0010ED0E90E264FF0FB
:10258000FF3CBEEB01076CEB0304BF1AB44102D25F
:10259000C0E90EEC04E0891843EB0602C0E90E1214
:1025A000284600F001FA404600F0FAF8BDE8F08154
:1025B000F0B581B00E46074600F0F6F842F27031F1
:1025C000C2F20001D1E900230446D01940F21C05F3
:1025D00043EB0602C2F20005C1E90002284600F002
:1025E00001FAF8B9286850E90221BB1A76EB010319
:1025F00004D2D21BB14140E9022113E00021A842DC
:1026000040F8081C40F8041C0CD000BF50E902122E
:10261000114307D1066840380221FFF7B9FCAE42EA
:102620003046F3D1204600F0BBF801B0F0BD000009
:10263000002070472DE9F041044600F0B5F842F261
:102640007031C2F2000106C9D4E9063640F228080A
:10265000C2F2000805465818434653F8081F724155
:102660009942C4E9060210D0D1E90336C31A72EBCD
:1026700006030AD308F108030968994205D0D1E995
:102680000367861B72EB0707F6D204F10C0630468F
:1026900000F06CF9D8F80800B04203D1D4E9060183
:1026A000C8E90001284600F07BF8BDE8F081000091
:1026B0002DE9F041064600F077F840F22808C2F212
:1026C0000008D8F8081006F10C0504462846A1F1C8
:1026D0000C0700F06FF9B74212D1284600F088F9D4
:1026E00020B1002030B1C169806907E028680C384A
:1026F0000028F8D14FF0FF304FF0FF31C8E900015A
:10270000204600F04DF8BDE8F08100002DE9F043CF
:1027100081B040F2280442F27039C2F20004C2F2E1
:102720000009D4E90001D9E90023101A73EB010074
:102730002FD300F099F8204650F8087F874226D022
:1027400004F108064FF0030808E000BF87F8268070
:1027500057E902108847B5422F4618D0D7E9030140
:10276000D9E90023101A73EB010010D3A7F10C0470
:102770003D682046FFF79CFFB88C0228E6D1D7E9D8
:102780000701C7E903012046FFF754FFE0E700F027
:102790008BF801B0BDE8F08380B5FDF7F0FC80BD9B
:1027A00080B5FDF7E9FC80BD80B5FDF7E1FC80BD9B
:1027B00080B5FFF7B5F9FFF77DFC41F61070C2F266
:1027C00000004FF48061FFF73FFB002818BF80BD79
:1027D000FFF74AFA002808BFFFF72AFF80BD000074
:1027E00080B500F037F8002808BF80BD41F288208E
:1027F000C2F200000178F9299CBF0131017080BD4F
:1028000010B500F027F8002808BF10BDFFF7CCFF77
:102810000446FFF759FAC8B141F28820C2F200001D
:10282000017801390170FFF74FFA78B9FFF756FACE
:1028300060B9FFF735FC42F21031C2F200010860C6
:10284000FFF756FA002808BFFFF780F92046FFF788
:10285000A7FF10BD41F28920C2F2000000780138C4
:10286000B0FA80F04009704710B5FFF72DFAC0B9F3
:10287000FFF7F0FF90B142F26C34C2F2000420780E
:10288000F92884BF4FF4167010BDFFF78DFF217833
:1028900001312170FFF784FF002010BD4FF4FA7062
:1028A00010BD4FF4C87010BD80B5FFF70DFAD0B958
:1028B000FFF7D0FF88B1FFF711FA88B1FFF774FF77
:1028C00042F26C31C2F200010A78013A0A70FFF755
:1028D00067FFFFF727FA002080BD4FF4FA7080BD34
:1028E00040F2A56080BD4FF4C87080BD80B5FFF791
:1028F000B1FFA8B9FFF7D4FB42F21031C2F20001D8
:10290000086041F28C11C2F20001086041F2892096
:10291000C2F2000001210170FFF71CF9002080BD08
:1029200040F2F51080BD000080B50A68FFF736F868
:1029300080BD000080B540F21401C2F200010968B8
:10294000FFF732F880BD000080B50A464968FFF7FE
:102950001FF880BD80B50A464968FFF71FF880BDA3
:1029600080B50A464968FFF729F880BD80B50A4658
:102970004968FFF729F880BD80B5D0E90010FFF75E
:1029800029F880BD80B5D0E90010FFF727F880BD99
:1029900080B5D0E90010FFF725F880BD80B5D0E9FB
:1029A0000010FFF723F880BD80B5D0E90010FFF7D5
:1029B00021F880BD80B5D0E90010FFF71FF880BD79
:1029C0000168081AB0FA80F0400970470168081AD7
:1029D000B0FA80F0400970470168081AB0FA80F038
:1029E000400970470168081AB0FA80F04009704742
:1029F0000168081AB0FA80F040097047C0E9000089
:102A000070470000C0E9000070470000B0B50C46F8
:102A10000546FEF7F7FF28462146FFF79BFFB0BDAE
:102A200070B50D460446FFF733FA00281CBF40F28C
:102A3000223070BD2046FFF711FA00281CBF40F27B
:102A4000233070BDA5F10800FEF7E2FFA1071CBF0F
:102A50004FF4487070BD4FF6F47105460C38C3F65C
:102A6000FF71884284BF40F2213070BD20466FF074
:102A70000301FFF74DFA29460646FFF73BF83046BB
:102A8000FFF726F83046FFF72FF83046FEF7FCFF39
:102A90003046FFF709F8002106460025FFF72AF81F
:102AA0003046FFF72DF83046FFF718F82046FFF7BD
:102AB000F9F9284670BD00002DE9F04F81B01E469F
:102AC000174688460446FFF7FFF800286FD1002C10
:102AD00040F24C4064D0002F62D0DDF82C90B9F168
:102AE000000F5DD0251D2846FFF714F920B140F2F4
:102AF0006C7001B0BDE8F08FDDF830A0BAF1400F86
:102B00005AD30A98092808D12046FFF7D3F828B9E4
:102B100040F26F7001B0BDE8F08FF9D8DDF834B045
:102B20002046FFF733FC04F12C00FFF703FF284693
:102B3000FFF7ECF842F23532C0F600023846314673
:102B40004B46CDF800A0FFF711F820600A984146E7
:102B500084F8210004F108000F22C4E90676C4E9D4
:102B6000099AFDF78AFB40F21000C2F200000068EB
:102B7000BBF1000F18BF5846C4E919B0FFF714FEA7
:102B800005462046FFF75EFC2046FFF761FA28461F
:102B9000FFF706FEFFF75EFE28B1FFF7C3F800203F
:102BA00001B0BDE8F08F002001B0BDE8F08F4FF418
:102BB000C87001B0BDE8F08F40F2747001B0BDE89C
:102BC000F08F0000F0B581B00C460546FFF77CF8A9
:102BD00028BBFFF783F818B140F2A46001B0F0BD44
:102BE00055EA04001FD005EA040001301ED0FFF7AB
:102BF000DBFD41F28C17C2F2000739680646084631
:102C00002A462346FFF72AFC3868FFF7D3FA3046F6
:102C1000FFF7C6FDFFF786F8002001B0F0BD4FF4C6
:102C2000C87001B0F0BD00F087F8F5E7652001B08D
:102C3000F0BD0000B0B50546FFF746F8E8B941F22F
:102C40008C10C2F200000468002D18BF2C46201D15
:102C5000FFF760F870B12046FFF74AF830B1FFF790
:102C60003DF800281CBF40F2A460B0BD2046FFF72D
:102C700023FBB0BD40F24D40B0BD4FF4C870B0BDB5
:102C800070B50E460446FFF71FF800284BD1002C04
:102C90004CD0201DFFF73EF8F8B1082E49D8FFF7B9
:102CA00083FD94F821100546B1421FD004F1500075
:102CB000FFF792FE38B92046FFF742FBB0423CBF17
:102CC00084F8586006462046FFF782FB40B1204654
:102CD00084F82160FFF746F908E040F24D4070BDEE
:102CE0002046FFF787FB40B184F821602846FFF7B4
:102CF00057FDFFF717F8002070BD2046FFF76EFB69
:102D00000028F3D02046FFF755FA204684F82160CA
:102D1000FEF7EEFF18B12046FFF782F9E6E72046FE
:102D2000FFF796F9E2E74FF4C87070BD40F24C40EF
:102D300070BD40F26F7070BDB0B5FEF7C5FF0028E2
:102D400018BFB0BDFFF730FD41F28C15C2F200058F
:102D5000296804460846FFF72DFA2868FFF778F936
:102D60002046FFF71DFDFEF7DDFFB0BD80B5FFF784
:102D700071FD70B101200021FFF71AFCFFF7C6FCBE
:102D800041F28C10C2F20000006890F82100FFF7B9
:102D90002FFA80BD02E008C8121F08C1002AFAD12C
:102DA00070477047002001E001C1121F002AFBD1CB
:102DB0007047000010B5044601E0FEF70DFF14F85F
:102DC000010B04490028F8D1BDE810400A20FEF7A5
:102DD00003BF000000000020000000000000000011
:102DE00001020304060708090000000001020304B1
:102DF0000812002080000000182E000800000020AB
:102E000040000000942D0008582E000840000020CB
:102E100030300000A42D0008000000000024F40061
:102E2000E80300000000000064000000140000201F
:102E3000140000201C0000201C00002000000000E6
:102E4000FFFFFFFFFFFFFFFF3000002030000020EA
:082E5000010000001000000069
:0400000508000131BD
:00000001FF
