:020000040800F2
:100000005014002035020008192000088D1E000839
:1000100015200008ED0E0008012400080000000073
:100020000000000000000000000000006D2100083A
:10003000F10E00080000000049200008A12100087E
:100040004F0200084F0200084F0200084F0200084C
:100050004F0200084F0200084F0200084F0200083C
:100060004F0200084F0200084F0200084F0200082C
:100070004F0200084F0200084F0200084F0200081C
:100080004F0200084F0200084F0200084F0200080C
:100090004F0200084F0200084F0200084F020008FC
:1000A0004F0200084F0200084F0200084F020008EC
:1000B0004F0200084F0200084F0200084F020008DC
:1000C0004F0200084F0200084F0200084F020008CC
:1000D0004F020008F12300084F0200084F020008F9
:1000E0004F0200084F0200084F0200084F020008AC
:1000F0004F0200084F0200084F0200084F0200089C
:100100004F0200084F0200084F0200084F0200088B
:100110004F0200084F0200084F0200084F0200087B
:100120004F0200084F0200084F0200084F0200086B
:1001300000F002F800F06EF80AA090E8000C82448B
:100140008344AAF10107DA4501D100F063F8AFF268
:10015000090EBAE80F0013F0010F18BFFB1A43F0A5
:1001600001031847BC560000DC5600000A444FF05B
:10017000000C10F8013B13F0070408BF10F8014B06
:100180001D1108BF10F8015B641E05D010F8016B4B
:10019000641E01F8016BF9D113F0080F1EBF10F8AF
:1001A000014BAD1C0C1B09D16D1E58BF01F801CBD2
:1001B000FAD505E014F8016B01F8016B6D1EF9D555
:1001C0009142D6D37047000000230024002500266A
:1001D000103A28BF78C1FBD8520728BF30C148BFAA
:1001E0000B607047662905F03F81642900F0568056
:1001F000002070471FB59DE8030000F045FC00F0AB
:1002000023FC04000020002104F0BCFCE0601FBDC2
:1002100010B510BD00F072FD1146FFF7EBFF03F0C3
:1002200091FB00F0AAFD03B4FFF7F2FF03BC03F05B
:100230004DFB00000948804709480047FEE7FEE7FC
:10024000FEE7FEE7FEE7FEE7FEE7FEE7FEE7FEE786
:1002500004480549054A064B704700000122000882
:10026000310100085004002050140020500C0020E0
:10027000500C002070B5A0FB0140B4F1805170F12A
:10028000000024BF002070BD204600F0D4F8050017
:100290001CBF214600F083F8284670BD2DE9F041CF
:1002A0000646002410687529314616A510D0AFF314
:1002B0000080002802DA404213A507E031688A076F
:1002C00001D512A502E0490704D511A5012401E0DA
:1002D000AFF3008000210A2206F1240709E0B0FBF9
:1002E000F2FCB0FBF2F302FB1C00303078541846ED
:1002F000491C0028F3D123462A463046BDE8F04188
:1003000000F0FAB8000000002D0000002B000000F3
:1003100020000000032A40F2308010F0030C00F0AF
:10032000158011F8013BBCF1020F624498BF11F82F
:1003300001CB00F8013B38BF11F8013BA2F10402E8
:1003400098BF00F801CB38BF00F8013B11F0030360
:1003500000F04483083AC0F0088051F8043B083AA2
:1003600051F804CBA0E80810F5E7121D5CBF51F866
:10037000043B40F8043BAFF30080D20724BF11F8E0
:10038000013B11F801CB48BF11F8012B24BF00F845
:10039000013B00F801CB48BF00F8012B70474FF03C
:1003A00000020429C0F0128010F0030C00F01B8042
:1003B000CCF1040CBCF1020F18BF00F8012BA8BF50
:1003C00020F8022BA1EB0C0100F00DB85FEAC17C14
:1003D00024BF00F8012B00F8012B48BF00F8012BC7
:1003E00070474FF0000200B51346944696462039F8
:1003F00022BFA0E80C50A0E80C50B1F12001BFF4DE
:10040000F7AF090728BFA0E80C5048BF0CC05DF843
:1004100004EB890028BF40F8042B08BF704748BF91
:1004200020F8022B11F0804F18BF00F8012B704705
:1004300070477047704770B5064600F001FB0568CD
:1004400006F10B0020F00704B4429CBF002070BDF1
:100450002B466A68BAB11068A04210D304F10801B3
:1004600088423CBF5068586007D3516810194160FA
:100470001168091B016058601460101D70BD13469F
:100480005268002AE7D12146284600F0E9FA002800
:10049000DED170BD70B50446051F00F0D1FA0068CA
:1004A000002C14BF446870BD002C18BFAC423CBF88
:1004B00020466468F8D301680A18AA4218BF45604C
:1004C00003D12A6805461144016028684119A142F8
:1004D0001CBF6C6070BD6168696021680844286059
:1004E00070BD10B500F0B4FA006810BD10B5044638
:1004F00000F0AEFA046010BD2DE9F0470D469946B4
:100500009246044600F124080168880604D5E06993
:1005100021F01001216000E00120A84201DD471B0D
:1005200000E00027A1697A1902EB0900081AA0610E
:100530002078C00602D42046AFF30080002608E0F1
:10054000D4E901211AF806009047206A401C761C65
:1005500020624E45F4DB2078C0060AD52046AFF372
:10056000008006E0D4E9012130209047206A401C39
:100570002062381EA7F10107F4DC07E0D4E901216D
:1005800018F805009047206A401C2062281EA5F13B
:100590000105F3DC2046AFF300802078000602D589
:1005A0000220BDE8F0870120FBE72DE9FF4F0C4654
:1005B0001E464FF0FF378BB0D2E90001DDF86080B6
:1005C0000A908A46C1F30A5505B93D4600210846FE
:1005D0004FF00000BAF1000F00F4400005DA00EB24
:1005E00080004FF4400101EA50004FEA9059B9F100
:1005F000010F00DDB9460A9850EA4A000ED044F6D1
:100600001050A5F2FF3545432F14B8F1000F1ED04E
:100610007542291E1EDDC9F100021CE0B8F1010F70
:100620004FF0000001D0302103E0F24305E02154F7
:10063000401CB042FBDB30460022002121540B99C4
:10064000C1F80880C1E900200FB0BDE8F08FBD1BE4
:100650006D1CDEE74A4600DA694206A800F0D0FACF
:1006600006AB93E8070003AB83E8070050460A99FE
:1006700003F0EEFA8DE80700A0F500501F38009057
:100680000398002D0ADD42F21F014A460844002368
:1006900003A90390684603F057FD09E0A0F5005058
:1006A0004A461F38002303A90390684603F061FD02
:1006B0008DE807000004000C03D04FF0FF30410824
:1006C00000E01046B8F1000F03D00022009215465A
:1006D0001EE0751E05D400F00DFA303262556D1E15
:1006E000F9D5B3460122084302D000227F1C04E062
:1006F0002078302801D100227F1E002A099784D05B
:100700001DE0112D07DA00F0F5F9303262556D1C4D
:1007100050EA0102F5D1084302D00098C8B10EE0BA
:100720000021681E05E0235C625C63542254401E75
:10073000491C8142F7DBAB46A81B401E09900020F4
:1007400004F80B000B98099AC0F80880C0E9002B48
:100750007AE711264FF0000857E72DE9F04F884659
:100760000446D21D22F0070191B0D1E90001CDE984
:100770000A0103F035FE02460B98C00F01D02D2070
:1007800007E02068810701D52B2002E0202101EA43
:10079000C000032A099001D0072A05DB0346414621
:1007A000204600F0EDF90BE12078800601D5E069E4
:1007B00000E00620B8F1650F814606D0B8F1660F5B
:1007C00018D0B8F1670F70D131E00020B9F1110FE6
:1007D000009001DB112301E009F101030AAA01A93C
:1007E0000CA8FFF7E2FEDDE90C70002609F1010517
:1007F000834647E001204B4600904FF000470AAA8D
:1008000001A90CA8FFF7D1FEDDE90DB00C995D46FA
:10081000002610B909F101000D18B9EB050003D449
:10082000C0F1FF3609F10105A5EB09002BE0B9F194
:10083000010F01DA4FF001090020B9F1110F00900A
:10084000484601DD112300E003460AAA01A90CA8CD
:10085000FFF7ABFEDDE90C704D460026834620789D
:1008600000070AD4AB4500DA5D4601A8012D04DD7E
:10087000411911F8011C302907D04F4502DA17F150
:10088000040F04DA012082460FE06D1EEEE7002F10
:1008900002DCED1B3E4403E0781CA84200DD7D1C19
:1008A000B81B00F1010A4FF000472078000703D47D
:1008B000AA4501DB4FF0FF3A0021B7F1004F0DF1DF
:1008C00043088DF8431024D002202B23002F01DA97
:1008D0007F422D230A21021EA0F1010000DC5FB13E
:1008E00097FBF1FC97FBF1F201FB1C7C17460CF126
:1008F000300C08F801CDEEE7A8F101000370218863
:10090000090501D5452100E06521A0F1010800F8A5
:10091000011C09980FA9A1EB0807FF1D00B10120D8
:10092000411901EBEA70A1693844081A401EA06120
:100930002078C00602D42046AFF30080099828B181
:10094000D4E901219047206A401C20622078C0062B
:1009500022D52046AFF300801EE0002E04DBB34515
:1009600002DD01A8805D00E03020D4E9012190473C
:10097000206A401C2062761CAAF101005FEA000A8E
:100980000AD100F061F8C0680168405CD4E9012137
:100990009047206A401C2062281EA5F10105DCDC7E
:1009A00007E0D4E9012118F8010B9047206A401CA8
:1009B0002062381EA7F10107F3DC2046AFF3008068
:1009C000032011B041E610B5002000F08BF9FFF7CD
:1009D0001FFCBDE81040012002F078BF10B5203A9E
:1009E000C0F00B80B1E81850A0E81850B1E81850DA
:1009F000A0E81850203ABFF4F5AF5FEA027C24BFAC
:100A0000B1E81850A0E8185044BF18C918C0BDE894
:100A100010405FEA827C24BF51F8043B40F8043B5D
:100A200008BF7047D20728BF31F8023B48BF11F812
:100A3000012B28BF20F8023B48BF00F8012B70476C
:100A400000487047500100200048704768010020AE
:100A50000048704748010020704770477047704752
:100A600038B504460A4600206946AFF300800028E6
:100A700008BF38BD02460099204600F064F9012005
:100A800038BD012000F0A0B9F8B5AFF300800546ED
:100A900000200C46102000BF0646A819A0420DD920
:100AA000324669460020AFF30080070008BF00F01F
:100AB0008BF90098A04218BF0546C419FFF7C0FF84
:100AC00005600746F01D20F007004619284600F093
:100AD0000AF8B44208BFF8BDA21B31463868BDE829
:100AE000F84000F030B900210160C0E90110704702
:100AF0001020704730B5B0F10A0271F100034FEADF
:100B0000900E4EEA817EB0EB0E0061EB91014FEA50
:100B1000101E4EEA017E10EB0E0041EB11114FEA60
:100B2000102E4EEA016E10EB0E0041EB11214FEA40
:100B3000104E4EEA014E10EB0E0041EB11414018F1
:100B400041F100014FEAD00040EA41704FEAD10183
:100B50004FEA810444EA907410EB800544EB0104F1
:100B60006D1944EB0404521BA3414FF0000348BF2E
:100B70000A3200D530BD401C41F1000130BD0000FB
:100B80002DE9F0411F46044603260168072A01F4B7
:100B9000006004DB08B116A505E016A503E008B166
:100BA00015A500E015A521F010002060A069C01E69
:100BB000A0610FB1401EA0612046AFF300804FB18D
:100BC000D4E9012138469047206A401C2062C01CAD
:100BD000206206E0206AFAE7D4E9012115F8010B4A
:100BE0009047761EF8D22046AFF30080BDE8F08132
:100BF0004E414E006E616E00494E4600696E6600C1
:100C00002DE9F047814616468AB0354878440DC82C
:100C10008DE80D0032487844801C03AC0DC884E890
:100C20000D0041F69B300844372190FBF1F290FB18
:100C3000F1F5A5F1800501FB12041B3C02D56442CD
:100C4000012000E00020DFF898A080460027FA4449
:100C5000AAF1BE0A0EE0E0070AD03246684607EB6A
:100C6000470101230AEB810103F083FA8DE80700B5
:100C700064107F1C002CEED1194F7F44AE3F19E069
:100C8000E80715D007EB04100DF1180A90E80E00E4
:100C90008AE80E00C068F04201D1981908903246E7
:100CA000012306A903A803F064FA03AB83E8070055
:100CB0006D10641C002DE3D14FF0010332466946EC
:100CC000B8F1000F03A802D003F03EFA01E003F0F0
:100CD00050FAC9E90001C9F808200AB0BDE8F08758
:100CE000F44A000010B500F057F8BDE8104000F0DD
:100CF0004DB8000000487047480100207546FFF7D6
:100D0000F9FFAE4605006946534620F007008546C8
:100D100018B020B5FFF79CFABDE820404FF0000660
:100D20004FF000074FF000084FF0000BAC46ACE866
:100D3000C009ACE8C009ACE8C009ACE8C00921F0C2
:100D400007018D467047034640688C46002818BF4F
:100D500088423CBF03464068F8D31868184488426C
:100D600007D00CF1030020F00700001D411A521AB1
:100D70000146081D0A60FFF78DBB10B50446AFF3AE
:100D800000802046BDE81040FFF74DBA002801D092
:100D900002F09CBD7047000010B5002102A000F0D9
:100DA0005CF8012010BD0000534947414252543ABB
:100DB0002041626E6F726D616C207465726D696E38
:100DC0006174696F6E00000010B500F05FF8BDE857
:100DD0001040FFF7DBBF00004FF0013C50F8042B40
:100DE00051F8043B9A4221D1A2EB0C03934313EA3E
:100DF000CC1317D150F8042B51F8043B9A4215D16B
:100E0000A2EB0C03934313EACC130BD150F8042B41
:100E100051F8043B9A4209D1A2EB0C03934313EA25
:100E2000CC13DBD04FF00000704700BFD01A01BADE
:100E3000B1FA81F101F0180122FA01F0CB40DBB2E6
:100E4000C0B2C01AC1F120012CFA01F3D11A9143AA
:100E500011EAC311E6D17047704770B505460C46DC
:100E60000A2000E06D1C00F039F835B12878002820
:100E7000F8D102E0641C00F031F814B120780028A9
:100E8000F8D1BDE870400A2000F028B810B501285C
:100E900005D0002103A0FFF7E0FF012010BD09A14C
:100EA000F8E7000053494752544D454D3A204F75DD
:100EB00074206F662068656170206D656D6F727952
:100EC000000000003A2048656170206D656D6F720A
:100ED0007920636F727275707465640008B5694635
:100EE0008DF800000320ABBE08BD0000FEE7000047
:100EF0007047000070470000014690F8210002286A
:100F000013D10868D1E90FC3026822F00E02026013
:100F1000026822F001020260012000FA03F2CCF81C
:100F2000042081F82100002002E0042088630120D1
:100F3000002281F82020704780B590F82110022906
:100F400027D1026840F2040C1368C4F2020C23F0AB
:100F50000E03136013680CF17C018A4223F0010137
:100F600011601AD940F20841C4F202018A4247D006
:100F700040F21C41C4F202018A4245D040F23041A5
:100F8000C4F202018A4243D14FF48073CCF800349A
:100F900057E004218163012080BD4321C4F2020196
:100FA0008A420EDD6B21C4F202018A421BDC44211D
:100FB000C4F202018A4239D05821C4F202018A42A5
:100FC00031E00821C4F202018A4232D01C21C4F26D
:100FD00002018A4232D03021C4F202018A4222D177
:100FE0004FF480722BE06C21C4F202018A4222D0BD
:100FF0008021C4F202018A4215D14FF080721EE0B6
:101000000123CCF800341CE01023CCF8003418E0A5
:101010000CF588614FF480338A4208BF4FF4805347
:10102000CCF800340DE04FF4803208E04FF48052E9
:1010300005E0012203E04FF4801200E01022CCF81A
:101040000020416B4FF48072028401B18847002078
:1010500080BD0000B0B5044600F00AF9054640F234
:101060004010C2F200000078611C18BF044400BFA9
:1010700000F0FEF8401BA042FAD3B0BD2DE9F04FBE
:1010800083B00C68002C00F0EA80A0F18042A2F549
:10109000843240F2004E4FEAB22241F60047C4F2D9
:1010A000010E0092C4F20107062200254FF001094B
:1010B0004FF0000B4FF0000AB84208BF0522019222
:1010C00009E000BF0C680BF1010B34FA0BF205F1DB
:1010D000040500F0C48009FA0BF814EA080CF1D0FA
:1010E0004C684FF6FF72C1F21002944210DC122CD1
:1010F00050D8DFE804F0330A41454F4F4F4F4F4F70
:101100004F4F4F4F4F4F4F484C00D1F80CA041E08C
:101110004FF6FF72C1F2210294420FDC0022C1F2AD
:10112000110294421AD00022C1F21202944215D048
:101130000022C1F22102944210D02BE00022C1F221
:10114000220294420AD00022C1F23102944205D018
:101150000022C1F2320294421CD100BF8C6844B11B
:10116000012C14BFC0F81480C0F810804FF0080A9A
:1011700010E04FF0040A0DE0CC6804F1080A09E021
:101180004FF0000A06E0CC6804F1040A02E0CC68E3
:1011900004F10C0A2C460746BCF5807F24BF203C96
:1011A00004373A680F2303FA04F6B2430AFA04F448
:1011B00022433A60CA79D2067FF584AF41F218041F
:1011C000C4F2020422684FF6084842F0010222608D
:1011D0002268CFF6FF7802F001020292029A2BF009
:1011E0000302724452F8084005F00C0603FA06F7B1
:1011F000009BBC43019F052B38BF1F4607FA06F62C
:10120000344342F808404C68E203DEF8002054BF43
:1012100022EA0C0742EA0C07A203CEF80070DEF8BF
:10122000042054BF22EA0C0742EA0C07E202CEF87F
:101230000470DEF8082054BF22EA0C0742EA0C07CB
:10124000A20240F20C44CEF80870C4F201042268F5
:1012500054BF22EA0C0242EA0C02226032E703B0D9
:10126000BDE8F08F002A08BF090401617047000043
:1012700040F24C40C2F200000068704740F240105B
:1012800040F24C41C2F20000C2F2000100780A684C
:10129000104408607047000080B542F20000C4F2BC
:1012A0000200016841F010010160032000F066F8BF
:1012B000002000F005F800F02BF8002080BD0000B1
:1012C000B0B540F24012C2F2000240F200011278C2
:1012D000C2F200014FF47A730968B3FBF2F20446DC
:1012E000B1FBF2F1084600F02FFC0F2C4FF0010586
:1012F0000CD858B94FF0FF3021460022002500F0ED
:101300002DF840F24410C2F2000004602846B0BD3F
:1013100082B041F21800C4F202000168022241F0DA
:1013200001010160016801F0010101910199416829
:1013300041F080514160406800F08050009000987A
:101340000420C4F20100016862F31A61016002B076
:101350007047000080B502F06BFA80BD70B514468E
:101360000D46064602F074FA2946224600F056FE63
:101370000146304602F074FA70BD000080B502F0FC
:1013800081FA80BD2DE9F04381B0002800F089800A
:1013900042F20008C4F202080446D8F800000D46E4
:1013A00000F0070088420CD2D8F8000020F00700B7
:1013B0002843C8F80000D8F8000000F00700A84251
:1013C0006FD1206841F204098107C4F2020917D5E0
:1013D000410705D5D9F8001041F4E061C9F80010C3
:1013E000010705D5D9F8001041F46051C9F8001083
:1013F000D9F80010A26821F0F0011143C9F80010DB
:10140000C00745D1D8F8000000F00700A8420CD969
:10141000D8F8000020F007002843C8F80000D8F8EA
:10142000000000F00700A8423BD12068410707D523
:10143000D9F80010E26821F4E0611143C9F8001006
:10144000000708D5D9F80000216920F4605040EA6F
:10145000C100C9F8000000F079F8D9F8001045F291
:101460001C72C1F30311C0F60002515C40F200028D
:1014700020FA01F140F24410C2F200000068C2F20A
:1014800000021160FFF71CFF002001B0BDE8F083EF
:101490006068022809D0012829D159F8041C890361
:1014A00007D4012001B0BDE8F08359F8041C89017C
:1014B000F7D5D9F8001021F003010843C9F800005E
:1014C000FFF7D6FE064641F2883700BFD9F8000084
:1014D000616800F00C00B0EB810F93D0FFF7C8FEFD
:1014E000801BB842F2D9032001B0BDE8F08359F85F
:1014F000041C8907D5D5DCE740F20000C2F20000E9
:101500000068704780B5FFF7F7FF41F20401C4F2AD
:101510000201096845F22C72C1F30221C0F60002F3
:10152000515CC84080BD000080B5FFF7E5FF41F287
:101530000401C4F20201096845F22C72C1F3C22110
:10154000C0F60002515CC84080BD000041F2040CAE
:10155000C4F2020CDCF8003003F00C00082841F261
:101560000020C0F27A0018BF7047C3F383420AA17B
:101570008A5CD90305D440F60010C0F23D00504308
:101580007047DCF8001008A3C1F34041595C504398
:10159000B0FBF1F0704700BF02030405060708091D
:1015A0000A0B0C0D0E0F1010010200002DE9F04186
:1015B00082B0002800F0C4800446007841F20006A2
:1015C000C007C4F2020643D0706800F00C00042883
:1015D00017D0706800F00C00082802D17068C003B2
:1015E0000FD465682DB1B5F5A02F10D0B5F5803FAB
:1015F00011D0306820F480303060306820F48020D2
:101600000CE03068800323D5606808BB98E0306840
:1016100040F480203060306840F480303060FFF764
:1016200027FE002D054610D03068800310D4FFF748
:101630001FFE401B6428F7D904E100BFFFF718FE26
:10164000401B64284FF0030077D830688003F5D43E
:101650002078800718D5706810F00C0F07D07068DC
:1016600000F00C00082826D17068C00323D430682D
:10167000800702D52069012862D13068616920F0B5
:10168000F80040EAC1003060207800073DD5A0692D
:1016900038B30020C4F242200121C0F88014FFF7C3
:1016A000E7FD0546706A80072DD4FFF7E1FD401B7A
:1016B0000228F7D9C6E02069002840F20000C4F2F1
:1016C000422000F0968001210160FFF7D1FD054620
:1016D00030688007D1D4FFF7CBFD401B0228F7D933
:1016E000B0E00020C4F242200021C0F88014FFF7CF
:1016F000BFFD0546706A800707D5FFF7B9FD401B9F
:101700000228F7D99EE000F0A1FC207840071BD406
:10171000E5698DB1706800F00C00082847D1012DF3
:101720000ED07068216A00F480328A4208D1616A62
:1017300000F47010884203D1002002B0BDE8F081AF
:10174000012002B0BDE8F081F06910F0805808D1A6
:10175000F06940F08050F061F06900F08050019035
:10176000019847F20007C4F200073868C00510D49A
:10177000386840F480703860FFF77AFD054600BF96
:101780003868C00505D4FFF773FD401B6428F7D9FE
:1017900058E0E5681DB1052D3CD0012D3ED0306AE2
:1017A00020F001003062306A20F0040039E00027A8
:1017B000C4F2422700203866FFF75AFD022D054685
:1017C0000CD100BF3068800154D5FFF751FD401B9C
:1017D00002284FF00300F5D9AFE700BF3068800161
:1017E000AAD5FFF745FD401B02284FF00300F5D9AD
:1017F000A3E700210160FFF73BFD05463068800745
:101800007FF542AFFFF734FD401B02284FF0030085
:10181000F4D992E7306A40F004003062306A40F058
:1018200001003062FFF724FD002D054641F28837A4
:1018300014D000BF306A800713D4FFF719FD401B96
:10184000B842F7D9032002B0BDE8F081FFF710FDE0
:10185000401BB8424FF003003FF66FAF306A80077D
:10186000F4D4B8F1000F7FF453AFF06920F080504A
:10187000F0614DE7206AB0F5803F05D17168A2683C
:1018800021F40031114371607168626A21F47411AE
:1018900010430843706001203866FFF7E9FC0446F6
:1018A000306880013FF548AFFFF7E2FC001B0228DB
:1018B0004FF00300F4D940E770B538B10446406AF0
:1018C00030B10020206104F1140007E0012070BD58
:1018D0006068B0F5827F03D004F11C000021016034
:1018E0000026A66294F8510020B9204684F8506082
:1018F00000F038F8022084F8510094E8071001F451
:101900008271036802F4044223F0400303602369F8
:1019100011440CF40062114403F0020263691144A3
:1019200003F00102A369E569114403F40072114454
:1019300005F03802256A114405F08002A56A1143BA
:1019400005F4005211430160042101EA1341416092
:10195000C16921F40061C1610120666584F851000C
:10196000304670BD80B586B0016843F60040C4F2D1
:10197000000081424FF00001CDE90411CDE90211D0
:1019800001D006B080BD41F21801C4F202014A68DC
:1019900000F5504042F400424A604A6802F40042B6
:1019A0000192019A0A6842F008020A60096801F08F
:1019B000080101910199282102910221039103213B
:1019C000059102A9FFF75AFB06B080BD2DE9F0434F
:1019D00081B0044690F85000012803D1022001B0E4
:1019E000BDE8F0834FF001091D4616460F4684F806
:1019F0005090FFF73DFC94F8511001295DD18046CD
:101A0000002F4FF0010018BF002E00F0958003203A
:101A100084F85100002060652763A686E686A063EF
:101A2000A087E087A168C4E91000B1F5004F08D194
:101A30002068016821F040010160016841F48041A3
:101A4000016020680168490603D4016841F0400143
:101A500001606168731EE268B1FA81F1B3FA83F341
:101A600049095B09B2F5006F41EA030127D139B199
:101A7000216B0988C160B81C2063E08E0138E086C4
:101A8000E08E002841D06E1C0AE000BF216B31F8C7
:101A9000022BC2602163E08E0138E086E08EA0B3A5
:101AA000206881688907F1D4FFF7E2FB002EF5D0AA
:101AB000A0EB0800A842F1D325E002203CE039B1B8
:101AC00039780173206B01302063E08E0138E086A5
:101AD000E08ED0B16E1C0AE0216B09780173206B97
:101AE00001302063E08E0138E086E08E68B1206826
:101AF00081688907F0D4FFF7BBFB002EF5D0A0EB7F
:101B00000800A842F1D3032016E0204629464246A9
:101B100000F0B2FA00281CBF20206065A06838B928
:101B2000002000902068C1680091806800900098B3
:101B3000606D002818BF0120002184F8519084F8BE
:101B4000501001B0BDE8F08380B500F011FB80BDFE
:101B50007047000070470000B0B582B001680546CC
:101B60000868CA684C6900F02F03202B02F020039C
:101B700005D123B1284600F06FFB02B0B0BD5FEA8B
:101B8000007C1EBF04F0010E02F4907414EB0E04EE
:101B900024D12B6B1040C20617D5012B15D1002084
:101BA00001900868019048680190019848694006D2
:101BB0001CD4A88DEA8DEB8D002B1CBF801A5FEA28
:101BC000004240F09A8002B0B0BD010636D4400613
:101BD000F9D5284600F034FB02B0B0BDC10718BFEC
:101BE00012F480712FD1410733D439E0A86B026819
:101BF000526893B2002BE6D0AC8DA342E3D2EA85C3
:101C00008269202A16D0CA6822F48072CA604A69A2
:101C100022F001024A614A6922F040024A61202210
:101C200085F83E2000222A63CA6822F01002CA60AA
:101C3000FFF762F9A88DE98D401A6FE0284600F0A1
:101C4000ADFB02B0B0BD296C41F001012964410730
:101C500006D5BEF1000F03D0296C41F002012964C2
:101C6000810706D5BEF1000F03D0296C41F00401B5
:101C70002964BCF1000F06D55EEA030103D0296C8C
:101C800041F008012964296C00299CD0104080068D
:101C900002D5284600F0E0FA28684069296C00F077
:101CA000400001F00801401820D0284600F0B2FAA8
:101CB00028684169490614D5416921F04001416114
:101CC000A86B70B142F20521C0F600014163FFF735
:101CD00033F900283FF477AFA86B416B884702B017
:101CE000B0BD2846FFF736FF02B0B0BD2846FFF76B
:101CF00031FF0020286402B0B0BDCA6822F490729F
:101D0000CA604A6922F001024A61202285F83E2019
:101D100000222A63CA6822F01002CA6081B22846F3
:101D2000FFF716FF02B0B0BD002804BF01207047C6
:101D300010B5044690F83D0028B9002084F83C0016
:101D4000204600F021F8242084F83D002068C16876
:101D500021F40051C160204600F0D8FA20680169E2
:101D600021F490410161416921F02A014161C1687A
:101D700041F40051C16000202021206484F83D100E
:101D800084F83E1010BD000070B586B0006844F2C3
:101D90000041C4F20001002688420596CDE90366A1
:101DA00002963FD043F60001C4F20101884266D199
:101DB00041F21800C4F20200016840F6000441F448
:101DC000804101600168C4F2010401F48041019185
:101DD0000199016802AD41F00401016000682946E3
:101DE00000F00400019001984FF40070029002206E
:101DF0000390032005902046FFF740F94FF48060E0
:101E000002900020CDE9030020462946FFF736F96D
:101E1000252000210022FFF7A1FA2520FFF79AFADA
:101E200006B070BD41F21800C4F20200416840F6ED
:101E3000000441F4003141604168C4F2010401F43E
:101E4000003101910199016802AD41F00401016086
:101E50000068294600F004000190019804200290D7
:101E600002200390032005902046FFF707F9082081
:101E7000CDE90206204629460496FFF7FFF806B092
:101E800070BD00007047000070470000FEE70000D2
:101E90002DE9F04786B04FF0000A41F21800CDE975
:101EA00004AACDE902AAC4F20200016840F6004982
:101EB00041F0100101600168C4F2010901F0100154
:101EC00001910199016809F5806541F020010160E7
:101ED0000168002201F020010191019901684FF48D
:101EE000005641F004010160016801F00401019114
:101EF0000199016841F00801016000684FF4005148
:101F000000F00800019001982846FFF7ABF9484619
:101F10004FF4607100224FF46078FFF7A3F9029646
:101F200002AE0124022728463146CDE9034A05972F
:101F3000FFF7A4F8A9F580603146CDE9024A04977D
:101F4000FFF79CF848463146CDE90284CDE904A765
:101F5000FFF794F806B0BDE8F087000080B540F2C6
:101F60006C3043F6004CC2F20000C4F2000C4FF497
:101F700082724FF4004300214FF4007EC0E900C29A
:101F80000A22C0E90231C0E90411C0E906E1C0E952
:101F90000811C0E90A12FFF78FFC002818BFFEF7EE
:101FA000A9FF80BD80B540F2C43043F60001C2F203
:101FB0000000C4F2010100234FF00C0C4FF4E13299
:101FC00080E80E00C0E90333C0E905C3C361FFF731
:101FD000ABFE002818BFFEF78DFF80BD80B540F234
:101FE000084044F20041C2F20000C4F200010023A4
:101FF0004FF00C0C4FF4E13280E80E00C0E90333DF
:10200000C0E905C3C361FFF78FFE002818BFFEF7C4
:1020100071FF80BDFEE700007047000000F0070080
:1020200080F00703042B28BF04234FF0FF3C033844
:102030000CFA03F338BF0020994381400CFA00F0FA
:1020400022EA0000084370477047000081B040F268
:102050000000C2F20000006844F6D351C1F26201F0
:10206000A0FB0101480A009000BF0098411E002813
:102070000091F9D101B0704710B513460A4680218E
:10208000044600F00BF800280FBF0020606D40F000
:102090002000606518BF032010BD00002DE9F0434B
:1020A00081B01E4690460D468146FFF7E1F8301A92
:1020B00000EB0807FFF7DCF840F20001C2F2000174
:1020C0000968C1F3CB3179430091D9F800108968D0
:1020D0002940A94219D1064608F1010406E000BFD3
:1020E000D9F8000080682840A8420ED1002CF7D013
:1020F000FFF7BEF8801BB8420BD200980099002869
:1021000008BF0746481E0090EAE7002001B0BDE87E
:10211000F083D9E900014268B1F5827F22F0E00244
:1021200042600BD1D9F80810B1F5004F02D0B1F5DB
:10213000806F03D1016821F040010160D9F82810B7
:10214000B1F5005F07D1016821F400510160016819
:1021500041F400510160012089F85100002089F804
:102160005000032001B0BDE8F0830000704700007C
:10217000B0B501380024B4EB106F1CBF0120B0BD16
:102180004EF21005CEF2000568604FF0FF300F21CF
:1021900001F066FB0720AC6028602046B0BD00005F
:1021A00080B5FFF76BF880BD70B590B006AC2046E7
:1021B0002821FEF716F9012006900A904FF4E0104E
:1021C00000254FF4803102260F9020460595CDE979
:1021D0000355CDE90155CDE90715CDE90D61FFF7AF
:1021E000E5F90F20CDE901064FF48060CDE9040543
:1021F00001A802210395FFF7C5F810B070BD0000DB
:102200007047000080B5406A0021C185C184FFF796
:10221000A1FC80BD0168CA6822F49072CA604A6954
:1022200022F001024A61026B012A03D1CA6822F03E
:102230001002CA60202180F83E100021016370471F
:1022400080B50168CA6822F04002CA60202180F887
:102250003D10FFF719FE80BD80B582B090F83E10AA
:1022600022291ED18268B2F5805F02D1016900295E
:1022700040D0816AB2F5805F07D00AB9026922B105
:102280000268526802F07F0201E0026852680A7038
:102290000121826A11448162C18D01390A04C1851C
:1022A00001D002B080BD0168CA6822F02002CA6075
:1022B000CA6822F48072CA604A6922F001024A6147
:1022C000202280F83E20026B012A1BD100220263EB
:1022D000CB6823F01003CB600B68DB0605D50192B9
:1022E0000A680192496801910199818DFFF730FCDC
:1022F00002B080BD0168826A49686FF35F21118076
:102300000221C6E7FFF7BEFD02B080BD10B504464E
:102310000068D4E902C22369016921F440511143E4
:102320000161616943EA0C021143C26841F20C6326
:102330009A431143C1604169A26921F4407111437C
:1023400043F60002C4F201029042416102D0FFF75D
:10235000D9F801E0FFF7E8F86268192148439100D5
:10236000B0FBF1F048F21F51C5F2EB11A0FB0123C5
:102370005A096FF0630302FB0300322303EB0010E2
:10238000A0FB0101F02303EA5113206803EB0212C2
:10239000C1F343111144816010BD000090F83D105D
:1023A000212923D18168B1F5805F01D1016931B163
:1023B000016A02684B1C03620978516007E0016AF8
:1023C000036831F8022B6FF35F225A600162C18CFF
:1023D00001390A04C18418BF70470068C16821F040
:1023E0008001C160C16841F04001C16070470000D8
:1023F00080B540F2C430C2F20000FFF7ADFB80BDF3
:10240000FEE7000080B582B040F2C01EC2F2000EAE
:102410008C46CEE90023CEE9082300900220032158
:1024200001227346CDF804C000F0B6F802B080BDBA
:1024300080B580B2FEF70EFE80BD000040F2B01203
:10244000C2F200021268002A18BF9047FEE700009F
:102450002DE9F04182B0044640F2F01500200F460D
:10246000C2F20005C3F6F0700021C5E90010204655
:1024700039469846164602F0E7FAC5E908012046B3
:10248000394602F02FFB81F00041C5E90A012046E0
:10249000394602F027FBC5E90E012046394602F015
:1024A000D3FAC5E910010320032101222B4600962F
:1024B000CDF8048000F070F802B0BDE8F0810000B3
:1024C0002DE9F04182B0984615460F46044602F0C9
:1024D000BBFA40F23826C2F20006C6E900012046E7
:1024E000394602F0FFFAC6E904010020C3F6F07095
:1024F0000021C6E908102046394602F0F3FA81F0BF
:102500000041C6E90C012046394602F09DFAC6E9B1
:10251000100103200321012233460095CDF80480E9
:1025200000F03AF802B0BDE8F08100002DE9F0417A
:1025300082B0984615460F46044602F085FA40F2EE
:102540008026C2F20006C6E900012046394602F0A4
:10255000C9FA81F00041C6E902012046394602F07D
:10256000C1FAC6E906012046394602F06DFAC6E90D
:1025700008010020C3F6F0700021C6E91010032006
:102580000321012233460095CDF8048000F004F8C1
:1025900002B0BDE8F08100002DE9F04F87B00128BE
:1025A00005920246019003914BDB0598C700A3F109
:1025B000080006900398C00000900020029009E0F7
:1025C00002990198013102918142069800990844CC
:1025D000069036D005980128F2DB05980299DDF8BF
:1025E000409048434FF0000A049006E005980AF135
:1025F000010A824509F10809E2D004981199039E65
:102600005044069C01EBC0080022012ECB4641F845
:102610003020C8F80420E9DB54F8080FDBE9002378
:10262000616802F029FD0246D8E900030D4619460B
:102630002B4602F0BDFA013EBB44C8E90001EBD1D4
:10264000D4E707B0BDE8F08FC6B00D4640F2AC113C
:10265000C2F20001097814460646C807BFF35F8F2F
:1026600050D040F2A810C2F20000007840F20837C3
:10267000C007C2F20007BFF35F8F6AD040F2B81004
:10268000C2F20000076040F2B410396840F2C8227C
:10269000C2F20000C2F200024E68026000257F20F4
:1026A000CDE900053846002100229F230295B0475E
:1026B0001EAC204600F0AAF906AD284600F02EFC1C
:1026C000204632213C22012300F060F8204600F031
:1026D00059F9204632213C22002300F057F82846C1
:1026E00078213C22012300F0DFF9284600F0C4FBEA
:1026F000284678213C22002300F0D6F93220FFF74B
:1027000097FEDDE740F2AC10C2F200001F4601F078
:102710006DFA0028A5D042A800F0BEF90DF5847C22
:102720009CE807100023CDE9003040F20830CDE9E5
:102730000212C2F20000A02180223B46CDF810C058
:1027400000F0F0FF40F2AC10C2F2000001F07CFAA1
:1027500087E740F2A810C2F2000001F047FA002813
:102760008CD0DDF818C140F2C820C2F2000031461A
:102770002A4623460097CDF804C000F0E7FC40F25B
:10278000A810C2F2000001F05FFA77E72DE9F04FE0
:1027900093B0064608461D46144602F042FC1290CD
:1027A0002046089102F03DFCCDE910100020CFF644
:1027B000FF70002D18BF002007904FF0FF2018BFBA
:1027C000002006906FF0FF00002D18BF002005903C
:1027D000012406F1100000210996049040F2B8107F
:1027E000C2F200000068129E0C900998DDF820A04B
:1027F00000EB010B0BF11008CDE90E1498E88301F2
:102800003246534602F0D4F902F0DCFB0B90384616
:10281000DDE9107241463B4602F0CAF902F0D2FBF4
:102820000A903020DDF8109000EA041109EB010253
:102830000D9159F80100D2E90115D468324653468A
:1028400002F0B6F902F0BEFB80462846119D2146F3
:102850002A463B4602F0ACF902F0B4FB0090079820
:10286000DDE90A2101900C9843460027029700F009
:102870002FFE40F2B810C2F2000000680BF15007C2
:102880000C9093CF32465346D04602F091F902F0B5
:1028900099FB109E0B90204639462A463346AA469D
:1028A00002F086F902F08EFB0A900D98434600F183
:1028B000400159F8010009EB0102DDF84890D2E926
:1028C0000117D5684A46444602F072F902F07AFBD5
:1028D00080463846294652463346554602F068F946
:1028E00002F070FB00900698DDE90A2101900C9837
:1028F00043460027029700F0EBFD40F2B810C2F209
:10290000000000680BF110080D9098E80301DBF857
:102910001C704A462346CA4602F04AF902F052FBAE
:102920008146404639462A46334602F041F902F0D4
:1029300049FBDBE91421074610465246234602F0C4
:1029400037F902F03FFBDBE91621044610462A4620
:10295000334602F02DF902F035FB00900598494608
:1029600001900D983A4623460F9C0027029700F0ED
:10297000AFFD0E990134103140297FF42FAF13B011
:10298000BDE8F08F2DE9F04F93B040F2080540F21A
:102990000009044600F1100A0027C2F200050DF1FB
:1029A00030080DF1180B6E46C3F6F079D4E9020138
:1029B0002A464346FFF74CFDD4E9020142465B46F6
:1029C000FFF77EFDD4E902015A463346FFF7AEFD1C
:1029D0000AEB0701304600224B46FFF713FD103784
:1029E000802F05F11805E1D1D4E9020149F69A12C8
:1029F00049F69913C9F69912C3F6B97302F0D8F8DB
:102A0000C4E9020113B0BDE8F08F000010B5044620
:102A100000F00EF845F23470C0F6000000F1080135
:102A2000204640F8101B8021FDF7DBFC204610BD3E
:102A30000021C3F6E0710022C0E9022145F2447191
:102A4000C0F60001083101607047000080B5012B1D
:102A50000EDBDDF808C0BCF1000F09DD0B44A3F16B
:102A6000010E02EB0C03013B80E80640C36080BD11
:102A700045F60400C0F600005521FFF7DFFC00001A
:102A800010B582B0DDF810C00446CDF800C0FFF7E5
:102A9000DDFF204602B010BD4FF0FF31C0E900114C
:102AA000C0E90211704700002DE9F04F89B090464F
:102AB00040F2B812C2F200020793136804460846B7
:102AC000059302F0AEFA04F1100782460E46A3CF3A
:102AD00052463346069602F06BF802F073FA049001
:102AE000404602F09EFA8B460246284639465B462F
:102AF000154602F05DF802F065FAD4E90821814636
:102B000010465246334602F053F802F05BFAD4E91D
:102B10000A21064610462A465B4602F049F802F0B2
:102B200051FA47F6CC21079ACFF60071002A18BF58
:102B300000210791CDE90001DDE9041000274A4694
:102B40003346029700F0C4FC40F2B810C2F2000015
:102B5000006804F11009069F059099E84302524667
:102B60003B4602F025F802F02DFA04903046494623
:102B70002A465B46039502F01BF802F023FAD4E9DB
:102B80000C210646104652463B46B84602F010F865
:102B900002F018FAD4E90E21074610462A465B4691
:102BA00002F006F802F00EFA0090079DDDE904102D
:102BB00032463B4600270195029700F089FC40F21F
:102BC000B810C2F20000006804F11009059099E8FD
:102BD000430252464346CDF820A001F0E9FF02F03F
:102BE000F1F904903046039E494632465B4601F0B7
:102BF000DFFF02F0E7F9D4E9102181461046524682
:102C0000434601F0D5FF02F0DDF9D4E91221074671
:102C1000104632465B46B24601F0CAFF02F0D2F9D6
:102C2000CDE90005DDE904104A463B46002702973E
:102C300000F04EFC40F2B810C2F20000006804F14F
:102C40001009089D059099E843022A46434601F081
:102C5000AFFF02F0B7F904903046494652465B4652
:102C600001F0A6FF02F0AEF9D4E9142106461046A1
:102C70002A464346454601F09BFF02F0A3F9D4E9FA
:102C800016210746104652465B4601F091FF02F0BE
:102C900099F90090DDF81C80DDE9041032463B46CE
:102CA0000027CDF80480029700F012FC40F2B81023
:102CB000C2F20000006804F12009089F059099E81D
:102CC00043023A462B4601F073FF02F07BF9049071
:102CD0003046494652465B4601F06AFF02F072F9FF
:102CE000D4E90C21064610463A462B4601F060FF17
:102CF00002F068F9D4E90E210746104652465B46B9
:102D000001F056FF02F05EF9CDE90008DDE904109C
:102D100032463B460027029700F0DAFB40F2B8103B
:102D2000C2F20000006804F13009089F059099E89C
:102D300043023A462B4601F03BFF02F043F9049070
:102D40003046494652465B4601F032FF02F03AF9FE
:102D5000D4E91021064610463A462B4601F028FFDA
:102D600002F030F9D4E912210746104652465B467C
:102D700001F01EFF02F026F9CDE90008DDE904109C
:102D800032463B460027029700F0A2FB40F2B81003
:102D9000C2F20000006804F14009089D069F0590FA
:102DA00099E843022A463B4601F002FF02F00AF985
:102DB00004903046494652465B4601F0F9FE02F067
:102DC00001F9D4E91421814610462A463B463E4685
:102DD00001F0EEFE02F0F6F8D4E91621074610469F
:102DE00052465B4601F0E4FE02F0ECF8CDE9000843
:102DF000DDE904104A463B460027029700F068FBD5
:102E000040F2B810C2F2000000682A460590D4E9EA
:102E100014013346374601F0CBFE02F0D3F8D4E973
:102E200016210490104652465B4601F0C1FE02F0A6
:102E3000C9F804F12009064699E80302E46A2A4623
:102E40003B4601F0B5FE02F0BDF807464846214674
:102E500052465B4601F0ACFE02F0B4F8CDE9000842
:102E6000DDE9041032463B460027029700F030FBB4
:102E700009B0BDE8F08F00002DE9F04F8DB040F2B1
:102E8000C80549F6991940F2000A40F2000B0446C1
:102E90004FF01008C2F2000506AEC3F6B9796F46CE
:102EA000C4F2460AC4F2340BD4E902012A4633467E
:102EB000FFF706FB49F69A10C9F6991049463246C3
:102EC0003B46FFF7C5FADDE904230020514602F036
:102ED000DDF902460B460020594601F019FF024673
:102EE0000B4604EB08013846FFF78CFA08F110088E
:102EF000B8F1600F05F11805D6D1D4E9020149F601
:102F00009A1249F69913C9F69912C3F6B97301F0EA
:102F10004FFEC4E902010DB0BDE8F08F10B50446C4
:102F2000FFF786FD45F25470C0F6000000F108017D
:102F3000204640F8101B5021FDF753FA204610BDE3
:102F400010B504460430FFF7A7FD0021204621609C
:102F500010BD000010B5D0F804C08C4530DDD0F8AD
:102F600008E09645D8BF10BDD0F814E0BEF1000FC0
:102F700009D0DEF800E0BEF1000F04D0084611468B
:102F80001A46F04710BDD0F80CE0BEF1020F12D186
:102F90004FF4FC64C3F3C40E04EA5314A6444FF484
:102FA000784404EA132300690CFB02110EEB0302C0
:102FB00020F8112010BD00690CFB021140F82130EF
:102FC00010BD00002DE9F04F81B0DDF82C800446E3
:102FD000B8F1000F4FF0FF302FD027696FB3D4E95D
:102FE00001A50A9E8A45AAF10107D8BF3946954234
:102FF000A5F10100D8BF0246B542C8BF30468242A3
:103000001EDADDF830909A45C8BF1F46A7EB010BCA
:1030100002FB0A1702FB0916851A00BFD4E9032038
:1030200002FB068102FB070002FB0BF2FDF772F9BF
:10303000013D57444E44F1D1002001B0BDE8F08F6E
:10304000002001B0BDE8F08F2DE9F04F83B00446B9
:103050004069DDF834B0DDF83080994615468A467F
:1030600048B347684FB1504629464A464346CDF8D3
:1030700000B0B84703B0BDE8F08FE0B10068D0B150
:10308000454546DC6FEA0906AAF10100029003E01B
:10309000454505F101053CD0029FCA45F8DC00BF5B
:1030A000606901370368384629465A469847F0193F
:1030B0000130F5D1ECE7221D07CA022A27D1454588
:1030C00027DC4FF4FC63CBF3C40203EA5B131A441E
:1030D0004FF4784303EA1B231A44236909F10107DB
:1030E00004E000BF454505F1010512D0CA45F9DCF1
:1030F00005FB00A6544603EB460600BF8D42BCBF4D
:10310000844226F8022B0134A742F7D1EAE745456D
:1031100002DD03B0BDE8F08F226909F1010303E08D
:10312000454505F10105F4D0CA45F9DC05FB00A7CA
:10313000564602EB870700BF8D42BCBF864247F868
:1031400004BB0136B342F7D1EAE70000B0B505464B
:10315000DDE9040C45F26474C0F600040834AB6089
:10316000C5E9041C0021C368C5E90042C5E9061190
:103170000122E9632946AA63EB6080F850202862A7
:1031800000F0F4F82846B0BD2DE9F04782B0914236
:1031900013DCDDE90A989A460546D6434F1E00BF68
:1031A0002868013704682846394652464B46CDF810
:1031B0000080A047F0190130F2D102B0BDE8F087DD
:1031C0002DE9F04F85B00746406888427EDD0E4607
:1031D000924652EA010079D4B868504576DDDDF8B0
:1031E000389097F85100484573D398464BD097F8DC
:1031F00052003146484509EB890007EB800505F18F
:1032000018042046524638BF87F8529000F0DAFA88
:10321000A8B3E36805F1140094E82600CDE9035350
:10322000FB680292022B01911BD14FF4FC62C8F3A0
:10323000C40102EA581211444FF4784202EA1822FB
:10324000114400910568DDE90101341A01A8AAEBD7
:10325000010B00F0CBFA0BFB0040009925F8101091
:103260000DE0D0F800B0DDE90101351A01A8AAEBA4
:10327000010400F0BBFA04FB00504BF8208097F8E3
:103280005200484509D138683146C568384652462B
:103290004346A84705B0BDE8F08FB9F1010F0ED83D
:1032A00007F14004022500BF20463146524600F097
:1032B00089FA58B9013D4D45A4F11404F4D8386891
:1032C0003146C568384652464346A84705B0BDE872
:1032D000F08F45F60400C0F600004FF4CF71FFF701
:1032E000ADF800002DE9F04184B00446DDE90A079D
:1032F000CDE900230290A06D039784F8511048B1E6
:10330000806B022806DBD4E90102E1685043FCF738
:10331000B1FF206194F85100E0B104F118070025D5
:10332000E84600BF404600F061FA0646404600F01D
:1033300063FAE1687043FCF79DFF47F8040C60B145
:103340009DE80F00013587E80F0094F8510014370D
:103350008542E7D304B0BDE8F08145F60400C0F62D
:1033600000004FF41C71FFF769F8000000291EBF30
:1033700001F11C02C0E91521704745F60400C0F6B2
:10338000000040F26521FFF759F800002DE9F043F5
:1033900083B08046C0680B9CDDF828C0022830D17D
:1033A000624530DC4FF4FC67C4F3C40007EA5417ED
:1033B00038444FF4784707EA14273844D8F8109077
:1033C0005F1A07F1010E174604E000BF674507F1D9
:1033D000010718D0B9F1000F08D0D8F8045005FB48
:1033E000071509EB45061EB90DE000BF002656B1D2
:1033F0009942EBDC023E7546013D26F8020FFBD1F7
:10340000E4E7624511DD98F8500058B1D8F858004B
:1034100007687F68CDE900C4B847D8F85400016850
:103420000131016003B0BDE8F083D8F810005F1AE5
:1034300007F1010E154603E0654505F10105E2D0EF
:1034400040B1D8F8046006FB051600EB860626B9E5
:10345000D9E700BF0026002ED5D09942ECDC043E0F
:10346000774600BF013F46F8044FFBD1E4E7000078
:1034700070B5D0F810C00446BCF1000F1AD0E06857
:10348000022812D14FF4FC60C3F3C40E00EA5310BB
:1034900065680EEB00064FF4784E0EEA132005FB2C
:1034A000021530442CF8150004E0606800FB02109F
:1034B0004CF8203094F85000002808BF70BDA06D73
:1034C00006683668B047606D01680131016070BD03
:1034D0002DE9F04F85B0DDF838A01D465B1AB8BF66
:1034E0004B1BBAEB0207B8BFA2EB0A07A942804602
:1034F000C8BFBB4203DCBB4204DC524502DDCDE960
:10350000012103E0CDE901A592460D46BB42CDE97C
:10351000037328DD0298854228DC0498002100EB23
:10352000D070A1EB600B0298574600F1010902E050
:103530000135A9451AD0D8F80000DDE90F34066836
:1035400003982946834440463A460094B047BBF16D
:10355000010FEDDB019882450498D4BF0137013F8C
:10356000ABEB000BE4E70198824502DD05B0BDE856
:10357000F08F0398002100EBD070A1EB600601985A
:10358000A94600F1010B03E00AF1010AD345EDD091
:10359000D8F80000DDE90F3407680498494606446E
:1035A000404652460094B847012EEDDB0298854212
:1035B0000398D4BF09F10109A9F10109361AE3E71B
:1035C0002DE9F04F8DB082460DF1580940681D4637
:1035D00099E8100321EAE176DAF808109842D8BF9A
:1035E000451E9AF85100A142D8BF4C1E484522EA18
:1035F000E2720CD1DAF800003146876850462B465B
:103600000094CDF80480B8470DB0BDE8F08F9AF86B
:10361000520048451CD109EB89000AEB800000F1FB
:103620001807CDE90556436AC2CFA2420C93CDE9F3
:103630000A670392099120DDDAF80000039A87688F
:10364000DDE9053150460094CDF80480B84711E01B
:10365000A2420FDCE743541E0134504631462A464D
:103660002346CDF80080CDF80490FFF78DFD381982
:103670000130F1D10DB0BDE8F08F14304FF4FC6192
:103680000890C8F3C40001EA581108444FF4784187
:1036900001EA1821084407900598039E00F10109EA
:1036A0000DF1240B049404E0049CA64206F10106EB
:1036B000C2D0DDE905018142F6DC069C10E000BFC6
:1036C00008980A9F0568584600F090F80999F21B7F
:1036D0005043401A204445F820800134A145E3D0EE
:1036E00058462146324600F06DF80028F5D0DAF849
:1036F0000C000228E4D108985746D0F800A04546AF
:10370000DDF82880584600F071F80999A6EB080208
:103710005043401A07992044A8462AF81010BA4688
:10372000DBE700002DE9F0438FB004461A980F46FE
:10373000DDE918619146DDE916820E9045F2787058
:103740000D910BA9C0F60000CDE90B2601F10C0686
:1037500008300021142584E88102C4E9033100BF48
:103760006019FFF7EDFB1435502DF9D1002007AD9E
:1037700084F8500084F85200C4E915002846FFF789
:103780008BF90BA8294600F03DF868B103A8002189
:1037900000223B46CDF80090FFF772F9DDE90323E4
:1037A000059900F10C0602E0DDE90B230D9937685D
:1037B0000091204641460197FFF794FD20460FB047
:1037C000BDE8F08303460068884202DC98688842BE
:1037D00001DA00207047586890424FF00000C8BFDF
:1037E0007047D9689142A8BF01207047016880687E
:1037F000401A0130704700004168C068401A01302B
:103800007047000002680B689A420ED142684B680C
:103810009A420AD182688B689A4206D1C068C96808
:10382000401AB0FA80F0400970470020704700004D
:10383000002848BF704700F01F01012202FA01F181
:103840004EF200124009CEF2000242F820107047FA
:103850004EF60C50CEF200000068C0F30220704714
:103860004EF6145300F00F02CEF2000309011A4481
:1038700000F16043B0F1FF3FC8BF03F5644211702F
:10388000704700004EF60C51CEF200010A684FF668
:10389000FF031A4060F30A2242F0806040F0FD709E
:1038A0000860704701A000F012F800BF5075726503
:1038B000207669727475616C2066756E6374696FC9
:1038C0006E2063616C6C6564210000007047FDF739
:1038D0007AF8000080B54FF4FC63C2F3C40C03EA2D
:1038E00052139C444FF4784303EA1222624480B29C
:1038F00089B200F053F880BD8242A8BF8B4200DA43
:10390000704710B582B0DDF810C0121A4FF4FC6495
:1039100002F1010ECCF3C40204EA5C145B1A2244E7
:103920004FF47844013304EA1C2414441FFA8EF245
:103930009BB280B289B2009400F05AF802B0BDE8A0
:1039400010407047FDF7A8FCFEF72EFCFEF7A0FA2A
:10395000FEF728FBFEF742FBFEF700FB00F08AF8BB
:1039600041F20000C4F201004FF400510122FDF7C2
:1039700079FC40F2643243F6D50043F6F901C2F215
:103980000002C0F60000C0F60001C2E900010020FC
:10399000022100F021F900BFFEE7000070B582B0FF
:1039A0000446A0280D4628BF7F2D1FD840F60046AC
:1039B00050BAC4F20106ADF8060030464FF400716B
:1039C0000022FDF74FFC601C691C82B28BB22046BE
:1039D000294600F0A1F80DF10600022100F0E6F8FA
:1039E00030464FF400710122FDF73CFC02B070BD7F
:1039F0002DE9F04381B00446089840F60048C4F22F
:103A0000010840BA1646894603FB02F7ADF80200EA
:103A100040464FF4007100221D46FDF723FCA0191B
:103A200009EB05010138013982B28BB220464946C3
:103A300000F072F840464FF480710122FDF712FC4D
:103A40007FB140F26C35C2F200050DF1020600BFF5
:103A5000284631460222FF23013FFDF7B7FF002F22
:103A6000F6D140464FF400710122FDF7FBFB01B097
:103A7000BDE8F083F0B581B040F60044C4F2010423
:103A800020464FF400710022FDF7ECFB00F02EF809
:103A900045F29070C0F60000461C0F2709E000BFF9
:103AA000B0780336FF2808BF4FF4FA70FDF7D2FA5A
:103AB000013F38060DD0307800F05EF875782806A2
:103AC000EED402363046294600F070F82E44013F0D
:103AD000EFE716F8017B002FEBD120464FF4007181
:103AE0000122FDF7BFFB01B0F0BD000010B540F6AC
:103AF0000044C4F20104204680210022FDF7B2FBFD
:103B00000A20FDF7A7FA204680210122FDF7AAFB33
:103B10000A20FDF79FFA10BD70B582B00024013075
:103B2000013201948D1C010A8DF80500100A8DF8F0
:103B300006002A209E1C8DF804108DF8072000F046
:103B40001BF801AC2046042100F030F8280A8DF85B
:103B50000400300A8DF806002B208DF805508DF8F2
:103B6000076000F009F82046042100F01FF82C201F
:103B700000F002F802B070BD80B582B08DF8070089
:103B800040F60040C4F201004FF480710022FDF7BE
:103B900069FB40F26C30C2F200000DF10701012216
:103BA000FF23FDF713FF02B080BD0000B0B505464E
:103BB00040F600400C46C4F201004FF4807101222F
:103BC000FDF750FB40F26C30C2F20000294622465D
:103BD000FF23FDF7FBFEB0BD82B094460B46A0214B
:103BE0008022CDF800C0FEF72FFD000080B50178DF
:103BF00011B94178012901D1002080BD89075FBF3B
:103C000002214170012080BD01A0FFF760FE00BFCE
:103C10005F5F6378615F67756172645F616371752F
:103C20006972652064657465637465642072656398
:103C300075727369766520696E697469616C697AF9
:103C40006174696F6E00000001210170417070475E
:103C50005FEA400C08BF91F0000F4FEA8C234FEA57
:103C6000C12243EA51514FEA1C5018BF00F5F04001
:103C70004FEA300018BF41F000415FEA6C5C00F091
:103C80002980BCF1FF3F08BF40F080407047130C13
:103C900006BF12044FF0100C4FF0000C130E04BFBF
:103CA00012020CF1080C130F04BF12010CF1040CEA
:103CB000930F04BF92000CF1020CD30F04BF52000B
:103CC0000CF1010C11464FF00002A0F11F00A0EB17
:103CD0000C00704711F0004F08BF704731F00041F1
:103CE0003FF4D5AF0B0C06BF09044FF0100C4FF09A
:103CF000000C0B0E04BF09020CF1080C0B0F04BFE3
:103D000009010CF1040C8B0F04BF89000CF1020CAB
:103D1000CB0F04BF49000CF1010CCCF1200322FAB7
:103D200003F341EA030102FA0CF2A0EB0C0000F1EC
:103D30000100704723F07F4720F07F4C80EA0300AA
:103D400000F00040ACEB070303F57C5303F1FF03E5
:103D50002DE9804909B44FEA144324EA03484FEAA5
:103D6000154B25EA0B4E0FF2042606EB13273E787F
:103D700003FB0667C7F5000707FB06F64FEAD646C2
:103D800006F102064FEA543707FB066CCCF1005CE3
:103D90004FEA1C472CEA074C0CFB06F507FB06F420
:103DA00004EB15464FEA961649085FEA320234BF23
:103DB00000204FF000404FEAD13706FB07FC4FEAE6
:103DC0001C4C0CFB0BF7D21B03FB0CF761EB070140
:103DD0000CFB0EF7B0EB074072EB17420CFB08F739
:103DE00034BFA2EB0742B2EB074261EB17414FEA47
:103DF0000C444FEA910706FB07FC4FEA1C4C0CFBF6
:103E00000BF7B0EBC74072EB573203FB0CF734BF34
:103E1000A2EBC742B2EBC74261EB57310CFB0EF786
:103E2000B0EBC70072EB57720CFB08F734BFA2EB84
:103E3000C702B2EBC70261EB57714FEA816141EAF9
:103E400092114FEA826242EA90124FEA806004EBDC
:103E5000CC04039F4FEAD13706FB07FC4FEA1C4C0A
:103E60000CFB0BF7D21B03FB0CF761EB07010CFB00
:103E70000EF7B0EB074072EB17420CFB08F734BFAC
:103E8000A2EB0742B2EB074261EB17414FEA8C55B8
:103E900004EB9C244FEA910706FB07FC4FEA1C4CFD
:103EA0000CFB0BF7B0EBC74072EB573203FB0CF780
:103EB00034BFA2EBC742B2EBC74261EB57310CFBF8
:103EC0000EF7B0EBC70072EB57720CFB08F734BF6C
:103ED000A2EBC702B2EBC70261EB57714FEA8161F7
:103EE00041EA92114FEA826242EA90124FEA806000
:103EF00015EB4C2544F100044FEAD13706FB07FCD3
:103F00004FEA1C4C0CFB0BF7D21B03FB0CF761EBCD
:103F100007010CFB0EF7B0EB074072EB17420CFBEE
:103F200008F734BFA2EB0742B2EB074261EB17413F
:103F30004FEA813141EA92414FEA823242EA9042AD
:103F40004FEA80304FEA0C7615EB1C1544F1000463
:103F500048EA03434EEA0B484FF0000EB2EB080C60
:103F600071EB030724BF624639464EEB0E0E4FF04D
:103F7000000B0018524149414BEB0B0BB2EB080C04
:103F800071EB03077BF1000B24BF624639464EEB11
:103F90000E0E4FF0000B0018524149414BEB0B0B3A
:103FA000B2EB080C71EB03077BF1000B24BF6246F8
:103FB00039464EEB0E0E51EA020718BF46F00106D5
:103FC00016EB0E7655F1000254F1000103D5BDE861
:103FD0008901BDE80088BDE88901BDE80048B6193F
:103FE000524141EB0101A3F10103704780807F7EC4
:103FF0007D7C7B7A7978777676757473727171705F
:104000006F6E6E6D6C6C6B6A6A6968686766666510
:104010006464636362616160605F5F5E5E5D5D5C9E
:104020005C5B5B5A5A59595858575756565555550F
:104030005454535352525251515050504F4F4F4E6F
:104040004E4D4D4D4C4C4C4B4B4B4A4A4A494949BD
:1040500048484847474747464646454545444444FF
:104060004443434343424242424141419C46002B28
:1040700030D477002BD04FEA37071CB503B44FF08C
:1040800010004FF01001BAF1000F06D0BCF1000F84
:10409000DCBF40F0080040F008014FF000000FBC0A
:1040A000BDE810400BF1010BBBF1010F08BF5FEA47
:1040B000170722BF12F1010211F101014FF0004177
:1040C00043F1000300F0004043EA00007047F9D3D9
:1040D0005708D0E746EA06464FEA164613F1400F66
:1040E0001FDD13F1200FDFBF16430A4600212033E6
:1040F0005B42BED0C3F1200746EA06464FEA1646A9
:1041000002FA07F746EA070622FA03F2C3F120078C
:1041100001FA07F742EA070221FA03F14FF0000320
:10412000A7E746EA020646EA06464FEA164646EA88
:104130000106BCBF46EA0646360C4FF000034FF0BE
:1041400000024FF0000194E72DE9804C70B49A46CC
:10415000934691E8380007C831EA400C48BF34EA7A
:10416000430C03D5FFF7E6FDFFF780FFF0BCBDE889
:10417000008C2DE9804C70B49A46934691E8380043
:1041800007C810F0804F08BF13F0804F03D100F034
:1041900005F8FFF76BFFF0BCBDE8008C20F07F470F
:1041A00023F07F4C80EA030000F0004007EB0C0393
:1041B000A3F57C53A3F1FE0392F0000F00F0B3804F
:1041C00095F0000F00F077802DE901494FEA11408A
:1041D00021EA00484FEA144624EA064700FB06FCA1
:1041E00008FB06F607FB08F818EB06484CEB164CE4
:1041F00000FB07F718EB07484CEB17404FEA124B50
:1042000022EA0B4E4FEA154625EA06470BFB06FC51
:104210000EFB06F607FB0EFE1EEB064E4CEB164C95
:104220000BFB07F71EEB074E4CEB174B18EB0B087D
:1042300040F1000018EB0E0B58EB000840F10000B5
:104240008F1A4FF000014FF000063CBFC943661BB8
:1042500014BFB5EB040C00213CBFC943F61B4FEA69
:10426000174427EA04454FEA1C472CEA074C04FB95
:10427000076205FB07F70CFB05F616EB074642EB5A
:10428000174204FB0CFC16EB0C4642EB1C421BEBEA
:10429000060658EB020241414EEA8E0E46EA9E06A1
:1042A00001D5BDE80189B619524141EB0101A3F1E5
:1042B0000103BDE801894FEA144524EA05464FEAA7
:1042C000114721EA074C05FB07F406FB07F70CFB37
:1042D00006F111EB074144EB174405FB0CFC11EB15
:1042E0000C4144EB1C444FEA124722EA074C05FB01
:1042F00007F206FB07F70CFB06F616EB074642EB48
:10430000174205FB0CFC16EB0C4642EB1C456A18E9
:1043100054F1000148BF7047B619524141EB010109
:10432000A3F10103704795F0000F37D04FEA114217
:1043300021EA02464FEA144724EA074C02FB07F140
:1043400006FB07F70CFB06F414EB074441EB17419F
:1043500002FB0CFC14EB0C4441EB1C414FEA1547EB
:1043600025EA074C02FB07F506FB07F70CFB06F6F0
:1043700016EB074645EB174502FB0CFC16EB0C460B
:1043800045EB1C42121951F1000148BF7047B619A4
:10439000524141EB0101A3F1010370474FEA14457B
:1043A00024EA05464FEA114721EA074C05FB07F1CD
:1043B00006FB07F70CFB06F212EB074241EB174135
:1043C00005FB0CFC12EB0C4251EB1C414FF00006BC
:1043D00048BF7047921841EB0101A3F101037047F8
:1043E000490050EAC12018BF04204A0D18BF40F010
:1043F000010040F2FF72B2EB515F08BF40F00200D3
:10440000012808BF052070472DE9F74F144694B0E6
:104410000021C4E902111599079121F00045C9490D
:104420008D4206DC1599C4E9000117B00020BDE8F3
:10443000F08FC549DFF814A3A9423CDD0799C44EAB
:104440000029C44FC44A1599534619DD00F01EFFD8
:10445000554506D0C14AC24B00F018FFC4E900011F
:104460000AE04FF0D352BE4B00F010FF32463B46FD
:1044700000F00CFFC4E9000117B00120BDE8F08F87
:1044800000F096FB554506D0B44AB54B00F090FBC2
:10449000C4E900010AE04FF0D352B14B00F088FBB1
:1044A00032463B4600F084FBC4E9000117B04FF0F0
:1044B000FF30BDE8F08FAB49A942159978DB21F0B8
:1044C000004183468846A84AA84B00F0D5FD00224B
:1044D000A74B00F06DFB00F075FD099000F0A1FD09
:1044E00006460F469C4A534600F0C6FD43465A46D0
:1044F00000F0C0FE80468A46984A994B30463946BD
:1045000000F0BAFD2A0D01250B924246534600F0F9
:10451000B1FE032DC4E9000139D00B98C1F30A5153
:10452000401A05EB45111139814230DA9148C346F2
:10453000784400EB0510CDF80CA00C90D0E90023D6
:104540003046394600F098FD02460B46049106902D
:104550005846039900F09AFE80468A4602460B466A
:104560005846039900F092FE049B069A00F08EFED6
:1045700083460C9803913946D0E90223304600F077
:104580007BFD5A46039B00F081FE6D1CBDE707983A
:104590000028A2BF099817B0BDE8F08F616881F0CC
:1045A00000416160099817B04042BDE8F08FFFE715
:1045B00084461598C1F31301C0F30A50A0F2F530F8
:1045C0004FEA601800F01F06C6F12000139000208B
:1045D0000690079041F4801E05206D4676B1664A2C
:1045E00008EB00017A4452F8213002EB8101B3401C
:1045F0004A68139922FA01F1194305E05F4908EB73
:104600000002794451F82210A1FB0E27A1FB0C13E4
:104610001A449A4234BF0123002303EB070A05EB37
:104620008003D3E901B70F448F4234BF0121002139
:1046300093448B4411B1934502D903E0934501D2D1
:10464000012100E00021C3E901B7514445F82010E1
:10465000011EA0F10100C1DC0298059F00F100508D
:10466000800F12900298DDE90356800000F0D9FC1B
:10467000834628460D9100F0EBFC6FF01D0200F020
:1046800027FFCDE90E01304600F0E2FC6FF03D025D
:1046900000F01EFF80468A46384600F0D9FC6FF0D5
:1046A0005D0200F015FF074642465346119100F0A7
:1046B0007FFADDE90E2300F07BFA5A460D9B00F0ED
:1046C00077FA00250E465A4628460D9B00F0DEFD7F
:1046D000DDE90E2300F0DAFD4246534600F0D6FD38
:1046E0003A46119B00F0C6FDDFF898A0244A5346D5
:1046F00000F0C2FC07468846234A244B3146284630
:1047000000F0BAFC3A46434600F052FA07468846A3
:104710004FF0A84253463146284600F0ADFC3A46D9
:10472000434600F045FA159A12F0004F04D0129A51
:1047300081F0004152421292C4E90001129817B070
:10474000BDE8F08FFB21E93F7CD90240FB21F93F16
:104750007370032E8A19A33B000040543163621A20
:1047600061B4D03DFB21394183C8C96D305FE43F5E
:104770000000E03F5C100000D80F0000BA0F0000FE
:10478000182D4454FB21F93D3326A611460B113C4C
:104790002DE9FF4D21F0004807460C46B8F1795F3E
:1047A00008DA00F00FFC002801BF0020324904B0F5
:1047B000BDE8F08D3A4623461046194600F05CFCF1
:1047C000054602462D480E460B460621784400F069
:1047D0005DF82A46334600F04FFCDDE902238246AD
:1047E0008B463846214600F047FC04460F465246A9
:1047F0005B462846314600F03FFC22463B4600F02F
:1048000045FD07468A464FF0FF322846314600F004
:104810005FFE1B4A90450ADA3A46534600F036FDE1
:1048200004B00022BDE8F04D134B00F023BD154A43
:104830004245A8BFA8F500154FF00004B8BF124DBF
:1048400022462B4600F022FD0646884622462B468D
:104850000020094900F01AFD04460D463A46534629
:104860003046414600F012FD04B022462B46BDE81A
:10487000F04D00F0FFBC00000000F03F900D000084
:104880003333D33F0000E93F0000D23F2DE9F04130
:104890004F1E00EBC7010446D1E9000115461E4634
:1048A00037F006020DD02A46334600F0E5FB7F1EA6
:1048B00004EBC703D3E9002300F07AF937F00602CE
:1048C000F1D1022F25D0042F13D0062F18BFBDE839
:1048D000F0812A46334600F0CFFBD4E90A2300F0EA
:1048E00067F92A46334600F0C7FBD4E9082300F0F5
:1048F0005FF92A46334600F0BFFBD4E9062300F0F7
:1049000057F92A46334600F0B7FBD4E9042300F0F8
:104910004FF92A46334600F0AFFBD4E9022300F0FA
:1049200047F92A46334600F0A7FBD4E90023BDE847
:10493000F04100F03DB900002DE9FF4D054621F0A2
:10494000004084B00C46B0F1795F0BDA2846FFF7DF
:1049500047FD042808BF00F06FF8284608B021463C
:10496000BDE8F08D2A460B46104600F085FB064652
:104970000F462A46234600F07FFB804626488A469B
:1049800032463B4605217844FFF780FF8346109866
:10499000029160B3214A224B4046514600F06CFB25
:1049A000CDE900015A4640465146029B00F064FBA7
:1049B00082468846DDE906014FF0FF3200F088FDAF
:1049C0005246434600F062FC32463B4600F054FB40
:1049D000DDE9062300F05AFCDDE9002300F056FC77
:1049E00008B02A462346BDE8F04D00F043BC0B4614
:1049F0005A463046394600F03FFB084A084B00F063
:104A0000D7F84246534600F037FB08B02A46234603
:104A1000BDE8F04D00F0CCB8D60C00004955555516
:104A20005555C5BF012200F053BD00221346104664
:104A3000114600F06DB90000024A0020110700F095
:104A400047BD000001FDFFFF00B5244B21F00042EF
:104A500087B09A42DCBF0022134629DD204B9A42E0
:104A600008D140B94FF00100FBF740FDFFF7DDFF33
:104A700007B000BD03DBFFF7D5FF07B000BD02AAFA
:104A8000FFF7C2FC10F0030104BF0DF1080C9CE815
:104A90000F000DD0012001290ED0022914D00DF1F4
:104AA000080C00909CE80F00FFF746FF07B000BD20
:104AB000FFF76EFE07B000BD0DF1080C00909CE8FA
:104AC0000F00FFF739FF05E00DF1080C9CE80F001F
:104AD000FFF75EFE07B081F0004100BDFB21E93F1A
:104AE0000000F07F00B5254B21F0004287B09A42CC
:104AF00003DC0022134600922BE0214B9A4208D19E
:104B000040B94FF00100FBF7F1FCFFF78EFF07B053
:104B100000BD03DBFFF786FF07B000BD02AAFFF769
:104B200073FC10F003014FF001000DD0012914D0E7
:104B300002291AD00DF1080C9CE80F00FFF728FE9F
:104B400007B081F0004100BD0DF1080C00909CE819
:104B50000F00FFF7F1FE07B000BD0DF1080C9CE857
:104B60000F00FFF715FE07B000BD0DF1080C009017
:104B70009CE80F00FFF7E0FEE2E70000FB21E93FC1
:104B80000000F07F10B500290AD00878002807D06F
:104B900005487844FCF720F9002801D0002010BD1A
:104BA0000248784410BD0000AE0C0000A60C0000C6
:104BB00010B591EA030F48BF83F0004300F16E8304
:104BC000841A71EB030C05D2121943EB0C03001B82
:104BD00061EB0C014FEA1154A4EB135CDFF81CE10C
:104BE0001EEA430F18BF9EEA445F00F0748021EA7A
:104BF000045123EA0E0343F48013DCF1200E32D378
:104C000022FA0CFE10EB0E0023FA0CFE41EB0E0113
:104C1000CCF1200E03FA0EFE10EB0E00CCF1200EAC
:104C200051F10001B1F5801F32D201EB045112FAAB
:104C30000EF2BDE8104058BF7047401C38BF5FEA15
:104C4000420218BF7047002814BF20F0010041F154
:104C500000014FEA410313F5001F38BF7047A1F16F
:104C6000C04100F001BB012A43EB0302ACF1200C70
:104C7000DCF11F0E32BF4FF0000E23FA0CF310EBE5
:104C8000030041EB0451B4EB115FD0D0A1EB045110
:104C900001F58011490801EB04515FEA30000ED3A1
:104CA00050F1000038BF12FA0EFE08D1BDE81040E6
:104CB000C9E7401C38BF5FEA4202CAD1C3E7BDE87A
:104CC00010404FEA410313F5001F38BF7047A1F1B0
:104CD000C04100F0C9BA9EEA445F08D011EA5E0FF5
:104CE000BDE8104004BF01F0004100207047BDE85E
:104CF000104070B500F06AFA64FBBE3E0000E0FFB1
:104D000002494FF0000000F0B1BB00BF0000F87F87
:104D10002DE9C04130B4DFF8A4C23CEA111418BF39
:104D20003CEA131400F0ED801CEA111481EA03053B
:104D300044EAD57418BF1CEA131500F0C880A4EB30
:104D4000050404F17F7404F500344FF0004545EA92
:104D5000C12145EAC32341EA505143EA52534FEA85
:104D6000C0204FEAC222994208BF904200F09D80C5
:104D70004FEA13650FF24416765D4FEA134506FBC2
:104D800005F7C7F1807706FB07F74FEAD737A7FB90
:104D900003687642A7FB06CEC8F5803838BFA8F175
:104DA000010807FB08E6A6FB028C4FF0000EE6FBAD
:104DB00003CEDCF1000CCEF1004E38BFAEF1010E97
:104DC000A6FB0C584FF00007E6FB0E87A1FB08C6B8
:104DD000A0FB07CE16EB0E064FF0000545F10005CF
:104DE000E1FB076515F1E04E7EBFA4F580345FEA74
:104DF00046066D4116F1800745F100054FEA172779
:104E000047EA05674FEA15254FEA0666A6F1DE4632
:104E1000B6F1805F20D9384605EBC47124F0010C4F
:104E200001EB0C11BCF1FE6F02D8F0BCBDE80081B3
:104E300024425CBF01F5801E9EEAC47F02D4F0BC10
:104E4000BDE80081244200F13980A1F1C041F0BCED
:104E5000BDE8004100F008BA4FEAD02040EA4150D6
:104E60004FEAD1214FEAD22242EA43524FEAD323FA
:104E7000A7FB028607FB036605FB02661EEA0E0F10
:104E800058BFA6EB0056B6EB00564FEA520E4EEA5C
:104E9000C37E18EB0E0E56EB530EBCD518EB020872
:104EA0005E417F1C55F10005B5E74FF480154FF0CA
:104EB00000074FF000064FF00008ACE701F1C041D9
:104EC00001F000414FF00000F0BCBDE800810CEAA9
:104ED000131511EA0C1F00D00CE013EA0C1F00F0B0
:104EE00026804FF0000081EA030101F00041F0BC90
:104EF000BDE80081F0BCBDE8004181EA030100F09B
:104F0000B3B9F0BCBDE8004170B500F05FF900BF77
:104F1000097EFC3E00F007B84FF0000081EA030173
:104F200001F00041704781EA030100F09DB9F0BC37
:104F3000BDE8004122494FF000007047FFFDFBF93A
:104F4000F7F5F4F2F0EEEDEBE9E8E6E4E3E1E0DEBC
:104F5000DDDBDAD8D7D5D4D3D1D0CFCDCCCBCAC82E
:104F6000C7C6C5C4C2C1C0BFBEBDBCBBBAB9B8B755
:104F7000B6B5B4B3B2B1B0AFAEADACABAAA9A8A848
:104F8000A7A6A5A4A3A3A2A1A09F9F9E9D9C9C9B16
:104F90009A999998979796959594939392919190C1
:104FA0008F8F8E8E8D8C8C8B8B8A89898888878752
:104FB0008685858484838382828181800000FF07C7
:104FC0000000F87F4FEA41034FEA5353A3F5806393
:104FD000D3F11E03C8BFD3F1210C0CDD4FF000420A
:104FE00042EAC12242EA505232FA03FC8CEAE17CE6
:104FF000ACEBE1707047102BC4BF0020704703F585
:10500000787CBCF1FF3F04D06FF0004282EA2100BF
:10501000704770B500F0DAF849922480002070479C
:10502000F2E710F0004248BF4042B0FA80F310FAB5
:1050300003F10AD0C3F11D0303F5806302EB0352B1
:105040004FEA415002EBD12170474FF0000070470A
:10505000B0FA80F310FA03F10AD0C3F11D0303F58F
:1050600080634FEA03524FEA415002EBD12170476F
:105070004FF000007047000070B5DFF848C11CEA2F
:10508000111E1EBF1CEA13159EEA0C0F95EA0C0FA9
:1050900000F06F8081EA03044EEAD47EAE4421EA38
:1050A0004C1123EA4C1341F4801143F48013AEF108
:1050B0007F7EA1FB024CA0FB0365361955EB0C0566
:1050C000A1FB034C4CF10003A0FB021C16EB0C06E9
:1050D000654153F10003094218BF46F0010613F47D
:1050E000007F0BD14FEA03314FEA053041EA1551F9
:1050F00040EA165034036FF003020AE04FEAC3217E
:105100004FEAC52041EA555140EA5650F4026FF08B
:10511000020202EB2E4201EB025585EACE710AD063
:105120005FEA440C18BF24F0004450F1000041F144
:10513000000120EAD47040F2FE7C624500D270BDCE
:10514000A84214BF4FF080444FF04044002E08BFE7
:105150000024BEF1806FA8BFA1F1C041BDE870403E
:1051600080F2828001F1C04101F000414FF0000067
:1051700070470CEA13159EEA0C0F18BF95EA0C0F46
:1051800006D081EA030E4FF000000EF0004170BD22
:1051900000F01CF88900013E00F007B800F009B8E3
:1051A0004FEA430C5FEA5C5C08D081EA030100F03F
:1051B0005BB84FEA410C5FEA5C5CF6D102494FF004
:1051C000000070470000FF070000F87F0EF1020E9C
:1051D0002EF0030E5EF8046B364205D4012A43EB31
:1051E000030515F5001F12D8012841EB010C1CF531
:1051F000001F0CD80ED14FEAD17C0CEB4C0C0CF1FB
:10520000020C15F5001F08BF4CEBD37C04E04FF0F7
:10521000080C01E04FEAD37C0CEB4C0526FA05F6AE
:1052200006F00706B6F1040C06D20EEB860CBDE8BC
:1052300070404CF0010C6047DFE80CF0090B0202F3
:105240004FF00041A1F500214FF0000070BD19465C
:105250001046012851EB010418BFD4F5001484BF97
:10526000002001F0004170BD0808A0F500114FEAD0
:105270003101704710B591EA030F81F000413FF50D
:105280009FAC83F0004300F009B8000010B591EA2C
:10529000030F48BF83F000433FF592AC841A71EBD3
:1052A000030C07D28CF0004C121943EB0C03001BCB
:1052B00061EB0C014FEA1154A4EB135CDFF8A4E19D
:1052C0001EEA430F18BF9EEA445F00F0B48021EA53
:1052D000045123EA6E035242C3EB6E0338BF5B1ED8
:1052E000DCF1200E25D322FA0CFE10EB0E0043FA5F
:1052F0000CFE41EB0E01CCF1200E03FA0EFE10EB7A
:105300000E00CCF1200E51F1000129D401EB045123
:1053100012FA0EF2BDE8104058BF7047401C1CBF87
:10532000B2F1004F704700280CBF491C20F001006B
:10533000704712EB020E43EB030218BF4FF0010E51
:105340004EEA4202ACF1200CDCF11E0E56D943FAB3
:105350000CFE10EB0E00CCF11E0E51F1FF31D5D535
:105360000EF1010E12FA0EFE404141EB010101EB7C
:10537000445C5FEA5C5C10D901EB045110EBDE7019
:1053800038BFBEF1004FBDE8104018BF704700287D
:105390000CBF491C20F00100704734D24FEAD42CD6
:1053A00024F4006411F500111BD0B1FA81F20B3A1C
:1053B000A41AA41ED2F12003914030FA03F319433A
:1053C000904001EBCC7101EB0451002CBDE8104082
:1053D000A8BF704701F1C04101F000414FF000004B
:1053E0007047B0FA80F310FA03F102D1BDE8104023
:1053F0007047E41A173C4805C90AE2E701EB04517B
:10540000BDE81040704749104FEA300001EB0451ED
:10541000BDE8104002E04FF0000170474A0008BFAD
:105420000042F8D0B2F5001F28BF704701F00041DC
:105430004FF0000070479EEA445F07D011EA5E0F0C
:10544000BDE8104004BF002100207047BDE81040B7
:1054500070B5FFF7BBFE00BF40DFF63E104683F09D
:10546000004170470000E0FFFBF777B90CF00F0335
:10547000092B08BF082000F059800A2B0BD0082BFD
:1054800018BF704708BF1CF0400F0AD04FF0000053
:105490004FF0000170471CF0400F18BF4FF0004064
:1054A00070471CF0100F08D000F07F4220F07043CE
:1054B00042EAD3014FEA4370704700F0604021F0A8
:1054C0007F4242EA000201F07F4040EA727070477A
:1054D0004FF0FF0C4CF4E06C1CEA11531CBF9CEA2B
:1054E000030C9445C2BFDA4201EB02517047002B16
:1054F0000DD0BCF1000F0FD001F00041002AA4BF75
:1055000041F0E04141F07F614FF00000704701F051
:1055100000414FF00000704750EA01334FF09B0C00
:1055200018BF4CF0806C7FF4EBAB70471CF4801F0D
:1055300011D01CF4E02F03D06FEACC314900704742
:105540004FF04050EFF3008222F0704242EA000236
:1055500082F3008870474FF00000704700000000A1
:105560004C5555555555A53F7751C1166CC156BF81
:105570009015CB19A001FA3EAD529C804F7E92BE91
:10558000C4B1B4BD9EEE213ED43888BEE9FAA8BDB0
:1055900000004054FB21F93F3163621A61B4D03DF1
:1055A0000000601A61B4D03D7370032E8A19A33BCA
:1055B0000000002E8A19A33BC14920259A837B391C
:1055C00000000000000000006E83F9A22915444E7F
:1055D000D15727FCC0DD34F5999562DB4190433CFF
:1055E000AB6351FE61C5BBDE3A6E24B7E0D24D42DB
:1055F000EA2E49061C92D1091CEB1DFE3EA729B1DB
:10560000F53582E88444BB2E26709CE9417E5FB468
:1056100039D69139F43953838B5F849C3B28F9BD8B
:10562000FF97F81F0F9805DE8B112FEF1F6D0A5A99
:10563000CF7E366DB709CB27663F464F2DEA5F9E7A
:10564000C7BA27757BF1E5EBF739073DEA92528A35
:10565000B15FFB6B085D8D1F4630035600000000F4
:10566000A6F810111111813FD561C119A0012ABFFF
:105670007DFEB157E31DC73EEB9C2B8AE6E55ABE83
:105680007CD5CF5A3AD9E53D02400000000000A089
:105690000000000005400000000000C800000000FD
:1056A0000C4000000000409C000000001940000079
:1056B0000020BCBE0000000034400000BFC91B8EAB
:1056C00000000004B5400000504BCFD06607E2CF89
:1056D000010000006C4100003E8251AADFEEA734B9
:1056E00001000000D9420000DCB5A0E23A301F976B
:1056F000FFFFFFFFB4450000FD25A0C8E9A3C14F8F
:10570000FFFFFFFFFF3F00000000008000000000DF
:10571000FF3F0000000000800000000000000000CB
:105720000000000001020304060708090000000051
:105730000102030400000000000000008D270008A3
:10574000852900080000000000000000A5380008BE
:10575000A53800080000000000000000A92A000889
:10576000792E00080000000000000000552F0008FE
:1057700049300008C52F00080000000000000000AC
:10578000C1310008C13500088D33000871340008AC
:105790000F0180961180FFB103012C2DB203012C63
:1057A0002DB306012C2D012C2DB40107C003A2023C
:1057B00084C101C5C2020A00C3028A2AC4028AEE59
:1057C000C5010E20003601A03A0105022A0400009E
:1057D000007F2B040000007F04E010021C0712373A
:1057E00032292D29252B3900010310E110031D0753
:1057F000062E2C292D2E2E373F0000021013800A72
:10580000298064002E2E2F2E2E2F4C69622F477573
:10581000694C6974655C4775694C6974652E6800EC
:105820006058000800000020480100006C010008DA
:10583000905800084801002008130000C801000823
:105840001C00000043000000F8FFFFFF0C000000F8
:105850000E0000000F0000002E00000000000000FD
:1058600011B324F40B1534C0080A1D4018091E207A
:10587000091E58E928E918092528E9C8F9D8091E98
:1058800068091E80F920320132100000000000007B
:0400000508000131BD
:00000001FF
