:020000040800F2
:10000000B8060020E5010008ED010008EF01000836
:10001000F1010008F3010008F501000800000000EC
:10002000000000000000000000000000F7010008D0
:10003000F901000800000000FB010008FD010008B4
:10004000FF010008FF010008FF010008FF01000890
:10005000FF010008FF010008FF010008FF01000880
:10006000FF010008FF010008FF010008FF01000870
:10007000FF010008FF010008FF010008FF01000860
:10008000FF010008FF010008FF010008FF01000850
:10009000FF010008FF010008FF010008FF01000840
:1000A000FF010008FF010008FF010008FF01000830
:1000B000FF010008FF010008FF010008FF01000820
:1000C000FF010008FF010008FF010008FF01000810
:1000D000FF010008FF010008FF010008FF01000800
:1000E000FF010008FF010008FF010008FF010008F0
:1000F000FF010008FF010008FF010008FF010008E0
:10010000FF010008FF010008FF010008FF010008CF
:10011000FF010008FF010008FF010008FF010008BF
:10012000FF010008FF010008FF010008FF010008AF
:1001300000F002F800F047F80AA090E8000C8244B2
:100140008344AAF10107DA4501D100F03CF8AFF28F
:10015000090EBAE80F0013F0010F18BFFB1A43F0A5
:1001600001031847543100006431000000230024CB
:1001700000250026103A28BF78C1FBD8520728BFB7
:1001800030C148BF0B607047662902F0748703686E
:100190001B0A28BF41F08001642900F0798078298A
:1001A00000F0F080E42900F0AF80002070471FB518
:1001B00000F086FC04000020002102F03DFDE0601C
:1001C0001FBD10B510BD00F051FD1146FFF7EFFF48
:1001D00002F0FEF800F06FFD03B4FFF7F2FF03BC7E
:1001E00000F068FF0948804709480047FEE7FEE73E
:1001F000FEE7FEE7FEE7FEE7FEE7FEE7FEE7FEE7D7
:1002000004480549054A064B70470000910F000855
:1002100031010008B8000020B8060020B802002014
:10022000B8020020704700000FB4044910B503AABB
:10023000029800F033FC10BC5DF814FB6000002055
:1002400070B5044685690068C10601D5302600E016
:100250002026C00707D070BDD4E901213046904761
:10026000206A401C20626D1EF6D570BD70B5044634
:1002700085690078C00707D170BDD4E9012120202D
:100280009047206A401C20626D1EF6D570BD0000AC
:100290002DE9F0410646002410687529314616A55F
:1002A00010D0AFF30080002802DA404213A507E027
:1002B00031688A0701D512A502E0490704D511A5C6
:1002C000012401E0AFF3008000210A2206F1240797
:1002D00009E0B0FBF2FCB0FBF2F302FB1C00303093
:1002E00078541846491C0028F3D123462A46304644
:1002F000BDE8F04100F06BB9000000002D000000E7
:100300002B000000200000002DE9F0418046D21DA6
:1003100022F007020025D2E90002F52915A614D023
:10032000011E72F1000106DA0023D0EB030063EB3B
:10033000020211A608E0D8F800108B0701D50FA61D
:1003400002E0490701D50EA601251146002408F157
:10035000240704E000F0F6F830323A55641C50EA05
:100360000102F7D12B46324621464046BDE8F04116
:1003700000F02DB9000000002D0000002B0000004F
:100380002000000070B504460D4621461068AFF30A
:1003900000802188090502D50F4A7A4402E00E4AFE
:1003A0007A440E32002104F1240305E000F00F0628
:1003B0000009965D5E54491C0028F7D1207800237F
:1003C000000704D5702D02D009B102231132204656
:1003D000BDE8704000F0FBB8DC2C00002DE9F047D0
:1003E0004FF0000A89460446C0F820A02046E16884
:1003F0008847002876D0252806D0D4E901219047E7
:10040000206A401C2062F1E7E16820460026884708
:10041000C4F81CA005460027C4F818A02A2D09D04E
:10042000284602F001FC38B304EB8708303DC8F8D9
:10043000185019E059F8041B204604EB870291611B
:10044000E1688847012F054618D1E069002820DAC5
:1004500026F020061DE0D8F8180000EB800005EB20
:1004600040003038C8F818002046E1688847054643
:1004700002F0DAFB0028EED1012F0AD02E2D08D190
:100480002046E16888477F1C0546022F46F020067B
:10049000C4DBA069002803DA404246F00106A061EF
:1004A000F00701D026F010066C2D0AD0682D08D078
:1004B0004C2D39D06A2D35D0742D35D07A2D33D0CE
:1004C00016E0E1682F4620468847B84205460AD123
:1004D0006C2F27D04FF48060E168064320468847A0
:1004E000054605E027E06C2F1AD04FF480700643D4
:1004F0000DB3A5F14100192802D8203546F4006655
:100500004A462946204626604E46FFF73DFE80B10A
:1005100001280BD0F61D26F0070000F1080965E759
:100520004020E4E78020D7E70020D5E706F1040962
:100530005CE7284661E7206ABDE8F08770477047AE
:100540007047704730B5B0F10A0271F100034FEA0D
:10055000900E4EEA817EB0EB0E0061EB91014FEA06
:10056000101E4EEA017E10EB0E0041EB11114FEA16
:10057000102E4EEA016E10EB0E0041EB11214FEAF6
:10058000104E4EEA014E10EB0E0041EB11414018A7
:1005900041F100014FEAD00040EA41704FEAD10139
:1005A0004FEA810444EA907410EB800544EB0104A7
:1005B0006D1944EB0404521BA3414FF0000348BFE4
:1005C0000A3200D530BD401C41F1000130BD2DE99B
:1005D000F0470D4699469246044600F1240801680A
:1005E000880604D5E06921F01001216000E00120B7
:1005F000A84201DD471B00E00027A1697A1902EB40
:100600000900081AA0612078C00602D42046FFF72E
:1006100017FE002608E0D4E901211AF806009047E9
:10062000206A401C761C20624E45F4DB2078C00610
:100630000AD52046FFF704FE06E0D4E90121302068
:100640009047206A401C2062381EA7F10107F4DCA5
:1006500007E0D4E9012118F805009047206A401C02
:100660002062281EA5F10105F3DC2046FFF7FEFD00
:100670002078000602D50220BDE8F0870120FBE7C4
:100680002DE9FF4F0C461E464FF0FF378BB0D2E9E5
:100690000001DDF860800A908A46C1F30A5505B969
:1006A0003D46002108464FF00000BAF1000F00F46B
:1006B000400005DA00EB80004FF4400101EA5000F1
:1006C0004FEA9059B9F1010F00DDB9460A9850EA96
:1006D0004A000ED044F61050A5F2FF3545432F14C2
:1006E000B8F1000F1ED07542291E1EDDC9F10002AF
:1006F0001CE0B8F1010F4FF0000001D0302103E001
:10070000F24305E02154401CB042FBDB304600229E
:10071000002121540B99C1F80880C1E900200FB0D5
:10072000BDE8F08FBD1B6D1CDEE74A4600DA69426A
:1007300006A800F021FA06AB93E8070003AB83E8B4
:10074000070050460A9901F093FE8DE80700A0F5D6
:1007500000501F3800900398002D0ADD42F21F015F
:100760004A460844002303A90390684602F0FCF8B7
:1007700009E0A0F500504A461F38002303A9039062
:10078000684602F006F98DE807000004000C03D06B
:100790004FF0FF30410800E01046B8F1000F03D0E1
:1007A0000022009215461EE0751E05D4FFF7CAFE12
:1007B000303262556D1EF9D5B3460122084302D08E
:1007C00000227F1C04E02078302801D100227F1E07
:1007D000002A099784D01DE0112D07DAFFF7B2FE39
:1007E000303262556D1C50EA0102F5D1084302D047
:1007F0000098C8B10EE00021681E05E0235C625C31
:1008000063542254401E491C8142F7DBAB46A81BAF
:10081000401E0990002004F80B000B98099AC0F8BC
:100820000880C0E9002B7AE711264FF0000857E74F
:100830002DE9F04F88460446D21D22F0070191B001
:10084000D1E90001CDE90A0102F0DAF902460B987C
:10085000C00F01D02D2007E02068810701D52B2093
:1008600002E0202101EAC000032A099001D0072AF2
:1008700005DB03464146204600F03EF90BE12078B7
:10088000800601D5E06900E00620B8F1650F8146D9
:1008900006D0B8F1660F18D0B8F1670F70D131E00B
:1008A0000020B9F1110F009001DB112301E009F1E3
:1008B00001030AAA01A90CA8FFF7E2FEDDE90C700A
:1008C000002609F10105834647E001204B460090D0
:1008D0004FF000470AAA01A90CA8FFF7D1FEDDE9F5
:1008E0000DB00C995D46002610B909F101000D18F4
:1008F000B9EB050003D4C0F1FF3609F10105A5EB02
:1009000009002BE0B9F1010F01DA4FF001090020D5
:10091000B9F1110F0090484601DD112300E00346B4
:100920000AAA01A90CA8FFF7ABFEDDE90C704D4641
:1009300000268346207800070AD4AB4500DA5D46DE
:1009400001A8012D04DD411911F8011C302907D03F
:100950004F4502DA17F1040F04DA012082460FE056
:100960006D1EEEE7002F02DCED1B3E4403E0781C19
:10097000A84200DD7D1CB81B00F1010A4FF00047C2
:100980002078000703D4AA4501DB4FF0FF3A00218D
:10099000B7F1004F0DF143088DF8431024D0022029
:1009A0002B23002F01DA7F422D230A21021EA0F102
:1009B000010000DC5FB197FBF1FC97FBF1F201FB5A
:1009C0001C7C17460CF1300C08F801CDEEE7A8F1BD
:1009D000010003702188090501D5452100E065214A
:1009E000A0F1010800F8011C09980FA9A1EB080764
:1009F000FF1D00B10120411901EBEA70A1693844E3
:100A0000081A401EA0612078C00602D42046FFF7D5
:100A100017FC099828B1D4E901219047206A401CAD
:100A200020622078C00622D52046FFF709FC1EE090
:100A3000002E04DBB34502DD01A8805D00E030201C
:100A4000D4E901219047206A401C2062761CAAF15B
:100A500001005FEA000A0AD100F032F8C0680168BC
:100A6000405CD4E901219047206A401C2062281E86
:100A7000A5F10105DCDC07E0D4E9012118F8010B40
:100A80009047206A401C2062381EA7F10107F3DC62
:100A90002046FFF7EBFB032011B041E6074B70B592
:100AA0000D467B4400F015F80446284600F0D6F8C1
:100AB00010B14FF0FF3070BD204670BD1719000017
:100AC000004870472000002001694A1C0261087834
:100AD000704700B58FB0CDE901310021059105497E
:100AE0007944CDE9031011466846FFF777FC0FB053
:100AF00000BD0000E5FFFFFF2DE9F0411F46044661
:100B000003260168072A01F4006004DB08B116A57A
:100B100005E016A503E008B115A500E015A521F034
:100B200010002060A069C01EA0610FB1401EA0612E
:100B30002046FFF785FB4FB1D4E9012138469047A5
:100B4000206A401C2062C01C206206E0206AFAE78E
:100B5000D4E9012115F8010B9047761EF8D2204602
:100B6000FFF784FBBDE8F0814E414E006E616E00E0
:100B7000494E4600696E66002DE9F04781461646EB
:100B80008AB0354878440DC88DE80D003248784465
:100B9000801C03AC0DC884E80D0041F69B3008446E
:100BA000372190FBF1F290FBF1F5A5F1800501FBF7
:100BB00012041B3C02D56442012000E00020DFF853
:100BC00098A080460027FA44AAF1BE0A0EE0E0078A
:100BD0000AD03246684607EB470101230AEB810140
:100BE00001F0D7FE8DE8070064107F1C002CEED1C9
:100BF000194F7F44AE3F19E0E80715D007EB04100A
:100C00000DF1180A90E80E008AE80E00C068F04264
:100C100001D1981908903246012306A903A801F0D2
:100C2000B8FE03AB83E807006D10641C002DE3D110
:100C30004FF0010332466946B8F1000F03A802D015
:100C400001F092FE01E001F0A4FEC9E90001C9F83B
:100C500008200AB0BDE8F08798250000007B00F06E
:100C60008000704700487047000000207546FFF77D
:100C7000F9FFAE4605006946534620F00700854659
:100C800018B020B5FFF7BCFABDE820404FF00006D1
:100C90004FF000074FF000084FF0000BAC46ACE8F7
:100CA000C009ACE8C009ACE8C009ACE8C00921F053
:100CB00007018D46704710B50446AFF3008020460B
:100CC000BDE81040FFF788BA4FF0013C50F8042B04
:100CD00051F8043B9A4221D1A2EB0C03934313EA4F
:100CE000CC1317D150F8042B51F8043B9A4215D17C
:100CF000A2EB0C03934313EACC130BD150F8042B53
:100D000051F8043B9A4209D1A2EB0C03934313EA36
:100D1000CC13DBD04FF00000704700BFD01A01BAEF
:100D2000B1FA81F101F0180122FA01F0CB40DBB2F7
:100D3000C0B2C01AC1F120012CFA01F3D11A9143BB
:100D400011EAC311E6D170472DE9F041CA7802F0EB
:100D50000F0CD30644BF8B784CEA030C09880B06B2
:100D600021D0056800234FF001084FF00F0E002638
:100D700008E000BF282A08BF47610136082E03F1AA
:100D800004030FD008FA06F70F42F6D00EFA03F468
:100D900025EA04040CFA03F5482A45EA0405E9D1DA
:100DA0000761EAE70560B1F5807F38BFBDE8F081F3
:100DB000446800234FF4807E4FF00F08002607E0C0
:100DC000282A08BF47610136082E03F1040310D01A
:100DD0000EFA06F707EA0105BD42F4D108FA03F559
:100DE000AC430CFA03F5482A44EA0504E8D107614C
:100DF000E9E74460BDE8F081002941F21C01C4F23A
:100E000002010A680CBF22EA000010430860704724
:100E1000002941F21801C4F202010A680CBF22EA5B
:100E2000000010430860704710B541F20404C4F29A
:100E30000204226802F00C02082A41F20022C0F2E9
:100E40007A021CD12368D4F800C0C3F3834E5FEA52
:100E5000CC330EF1020C06D440F60012C0F23D0273
:100E60000CFB02F20BE023689B0302D40CFB02F2A2
:100E700005E040F60012C0F23D020CFB02F20260F7
:100E8000226843F2A623C2F30312C0F600039A5C61
:100E90000168D14041602268C2F302229A5C21FAC3
:100EA00002F282602268C2F3C2229A5C43F2A22359
:100EB000D140C1602268C0F60003C2F381329A5C5F
:100EC000B1FBF2F1016110BD80B500F001F880BD09
:100ED00082B041F204000021C4F2020001910091AD
:100EE00050F8041C41F4803140F8041C50F8041CF4
:100EF00001F400310091019901310191009919B972
:100F00000199B1F5A06FF1D150F8041C890354BFC9
:100F10000021012100910099012936D142F20001FE
:100F2000C4F202010A6842F010020A600A6822F064
:100F300007020A600A6842F002020A600168016062
:100F400001680160016841F480610160016821F479
:100F50007C110160016841F4E811016050F8041C43
:100F600041F0807140F8041C50F8041C8901FBD545
:100F7000016821F003010160016841F00201016094
:100F8000016801F00C010829FAD102B07047000095
:100F900080B541F20000C4F202000168002241F075
:100FA000010101604168CFF6FF0211404160016814
:100FB0004FF6FF72CFF6F66211400160016821F42E
:100FC00080210160416821F4FE0141604FF41F015E
:100FD0008160FFF779FF4EF60850CEF200004FF027
:100FE0000061016080BD00008289002918BF0121D5
:100FF00022F4005242EA41318181704770B586B0D7
:101000000446008A0D46C98820F4405008432082D7
:10101000A0894EF6F3110840A9882A896B890843F4
:1010200010431843A081A08AA98920F44070084386
:1010300001AEA0823046FFF7F7FE43F6000106F14D
:101040000800C4F201018C4208BF06F10C000068E0
:101050001922B4F90C1050432A680123B1F1FF3F63
:10106000C8BF022302FA03F1B0FBF1F048F21F51AE
:10107000C5F2EB11A0FB01235A096FF0630302FBD9
:101080000300B4F90C300326B3F1FF3FC8BF0426B8
:1010900000FA06F000F13200A0FB01014FF007005A
:1010A000C8BF0F2000EA511040EA0210208106B0AC
:1010B00070BD000070470000002A08BF7047043868
:1010C000043900BF50F8043F013A23F0004341F8CF
:1010D000043FF7D17047000080B5002A08BF80BDEB
:1010E000A0F1020E023900BF3EF8023F0FFA83FC66
:1010F0005842B3F5004F08BF47F6FF70BCF1000F30
:10110000C8BF1846013A21F8020FEDD180BD00009A
:10111000002A08BF7047A0F1040C04395CF8043FB2
:101120005842B3F1004F08BF6FF00040002BC8BF1A
:101130001846013A41F8040FF0D1704780B5002AF3
:1011400008BF80BDA0F1010E013900BF1EF8013FAC
:101150004FFA83FC5842802B08BF7F20BCF1000F60
:10116000C8BF1846013A01F8010FEFD180BD000059
:10117000F0B581B073B11C46051F161F0F1F00BFCD
:1011800055F8040F57F8041F01F09EFD013C46F886
:10119000040FF5D101B0F0BD80B5002B08BF80BDB4
:1011A000A0F1020E023A02393EF902CF31F9020FE4
:1011B000013B604400F30F0022F8020FF4D180BD20
:1011C000B0B5002B08BFB0BDA0F1040E043A04393D
:1011D0006FF0004C51F8040F5EF8044FC51700196A
:1011E00045EBE474B4EBE07F18BF8CEAE470013B9C
:1011F00042F8040FEED1B0BD80B5002B08BF80BD12
:10120000A0F1010E013A01391EF901CF11F9010FC8
:10121000013B604400F3070002F8010FF4D180BDE8
:101220002DE9F0419846A2B11546071F0C1F002674
:1012300057F8040F54F8041F01F0DCFD0146304656
:1012400001F042FD013D0646F2D1C8F80060BDE85C
:10125000F0810026C8F80060BDE8F081B0B59AB111
:10126000A0F1020E02394FF0000C00203EF9024FAF
:1012700031F9025F6C431CEB040C40EBE470013A63
:10128000F4D1C3E900C0B0BD4FF0000C0020C3E9A9
:1012900000C0B0BDB0B5BAB1A0F1040E04394FF032
:1012A000000C00205EF8044F51F8045F85FB0445F4
:1012B000A40B44EA8544AD131CEB040C6841013ACD
:1012C000F0D1C3E900C0B0BD4FF0000C0020C3E96D
:1012D00000C0B0BD10B572B1013801394FF0000C3B
:1012E00010F901EF11F9014F013A04FB0ECCF7D1CF
:1012F000C3F800C010BD4FF0000CC3F800C010BD13
:10130000F0B581B073B11C46051F161F0F1F00BF3B
:1013100055F8040F57F8041F01F06CFD013C46F826
:10132000040FF5D101B0F0BD80B5002B08BF80BD22
:10133000A0F1020E023A02393EF902CF31F9020F52
:10134000013B00FB0CF020F3CF3022F8020FF3D169
:1013500080BD000010B5002B08BF10BDA0F1040E29
:101360000C1F043A5EF804CF54F8040F013B80FBD5
:101370000C0101F31E004FEA400042F8040FF1D1C6
:1013800010BD000080B5002B08BF80BDA0F1010E8C
:10139000013A01391EF901CF11F9010F013B00FBA0
:1013A0000CF020F3C71002F8010FF3D180BD00004C
:1013B000002A08BF70470438043900BF50F8043FC2
:1013C000013A83F0004341F8043FF7D17047000031
:1013D000002A08BF70470238023900BF30F802CF38
:1013E000CCF10003BCF5004F08BF47F6FF73013A8C
:1013F00021F8023FF2D17047002A08BF7047043835
:10140000043900BF50F804CFCCF10003BCF1004F09
:1014100008BF6FF00043013A41F8043FF2D1704732
:10142000002A08BF70470138013900BF10F801CF0A
:10143000CCF10003BCF1800F08BF7F23013A01F813
:10144000013FF3D170470000F0B581B06BB11C468D
:101450000D46061F171F00BF56F8040F294601F05E
:1014600033FC013C47F8040FF6D101B0F0BD000099
:10147000002B08BF7047A0F1020C023A3CF9020FA2
:10148000013B084400F30F0022F8020FF6D1704729
:1014900010B5002B08BF10BDA0F1040E043A6FF088
:1014A000004C00BF5EF8040FC417401844EBE17411
:1014B000B4EBE07F18BF8CEAE470013B42F8040F04
:1014C000F0D110BD002B08BF7047A0F1010C013A0C
:1014D0001CF9010F013B084400F3070002F8010F5B
:1014E000F6D17047F0B581B06BB11C460D46061FB2
:1014F000171F00BF56F8040F294601F07BFC013C82
:1015000047F8040FF6D101B0F0BD000080B5DDF85A
:1015100008C0BCF1000F08BF80BDC2F10F025FFA26
:1015200082FE0238023B00BF30F9022FBCF1010CF1
:1015300001FB02F242FA0EF202F30F0223F8022F2D
:10154000F2D180BD70B50132DDF810C052B2B2F1F7
:10155000FF3F19DDBCF1000F08BF70BD0438043B2C
:101560006FF0004E50F8044F84FB014505FA02F479
:1015700044FA02F6B54218BF8EEAE574BCF1010CDC
:1015800043F8044FEED110E0BCF1000F0DD05242F1
:101590000438043B50F8046FBCF1010C86FB016574
:1015A00045FA02F643F8046FF4D170BD80B5DDF85A
:1015B00008C0BCF1000F08BF80BDC2F107025FFA8E
:1015C00082FE0138013B00BF10F9012FBCF1010C74
:1015D00001FB02F242FA0EF202F3070203F8012FB6
:1015E000F2D180BDB1F1FF3F11DD002B08BF704784
:1015F000A0F1020C023A00BF3CF9020F013B00FAD5
:1016000001F000F30F0022F8020FF5D10CE05BB1FE
:10161000C1F1000C0238023A30F9021F013B41FAD5
:101620000CF122F8021FF7D170470000F0B5B1F1BC
:10163000FF3F28DD002B08BFF0BD0438043AC1F19C
:10164000200CA1F1200E6FF0004400BF50F8045FA1
:10165000BEF1000F4FEAE57625FA0CF706FA01F61F
:1016600046EA070658BF05FA0EF605FA01F558BF17
:101670000025B6EBE57F18BF84EAE675013B42F82A
:10168000045FE3D10CE05BB149420438043A00BF87
:1016900050F8047F013B47FA01F742F8047FF7D185
:1016A000F0BD0000B1F1FF3F11DD002B08BF704716
:1016B000A0F1010C013A00BF1CF9010F013B00FA37
:1016C00001F000F3070002F8010FF5D10CE05BB167
:1016D000C1F1000C0138013A10F9011F013B41FA38
:1016E0000CF102F8011FF7D170470000F0B581B08E
:1016F00001280C4651DBB0FA80F1A1F11106F20786
:1017000018BFA1F11206B04005B240F34E072846BB
:1017100001F058FB4FF0605101F06CFB45F6DF1112
:10172000C5F63771A1EB60004FF08D4101F062FB0F
:1017300001F02CFB010400B2CA135043001478439B
:101740004FF44052A2EBE030491348436FF00301DD
:1017500001EA204000FB00F343F3CF337B43A2EBCD
:10176000E3335843C00001EA204000FB00F343F399
:10177000CF337B43A2EBE3325043C00001EA204069
:10178000684380006FF0010101EA204006EBD6714A
:10179000491040FA01F1002001E0FF20002140B291
:1017A000218001B0F0BD0000F0B581B001280C46E9
:1017B00062DBB0FA80F14E1EF20718BF8E1E00FAEF
:1017C00006F528466F1001F0FDFA4FF0405101F088
:1017D00011FB45F6DF11C5F63771A1EB60004FF044
:1017E0009D4101F007FB01F0D1FA80FB001252008D
:1017F00042EAD17181FB0712C90F41EA4201C1F1EE
:10180000405181FB0001400F40EAC10020F003007D
:1018100080FB0012520042EAD17181FB0712C90F0E
:1018200041EA4201C1F1405181FB0001400F40EA11
:10183000C10020F0030080FB0012520042EAD17187
:1018400081FB0712C90F41EA4201C1F1405181FBFE
:101850000001400F40EAC10020F0030080FB0501B9
:10186000800F40EA810006EBD67120F0010049109C
:1018700040FA01F1002001E0FF20002140B2216088
:1018800001B0F0BDF0B581B073B11C46051F161F45
:101890000F1F00BF55F8040F57F8041F01F076FB27
:1018A000013C46F8040FF5D101B0F0BD80B5002B26
:1018B00008BF80BDA0F1020E023A02393EF902CF04
:1018C00031F9020F013BACEB000000F30F0022F8EE
:1018D000020FF3D180BD0000B0B5002B08BFB0BD32
:1018E000A0F1040E043A04396FF0004C5EF8040FC6
:1018F00051F8044FC517001B65EBE474B4EBE07FAF
:1019000018BF8CEAE470013B42F8040FEED1B0BD81
:1019100080B5002B08BF80BDA0F1010E013A01394E
:101920001EF901CF11F9010F013BACEB000000F3F0
:10193000070002F8010FF3D180BD000080B500F070
:101940005FFD80BD80B586B000200590039047F212
:10195000A400CBF69D70059005A804A90122FFF70D
:10196000ABFB049801F084F9024618A00B46FEF781
:101970005BFC039802A90138039003A80122FFF73A
:10198000C7FB029916A0FEF74FFC4FF40040ADF8DC
:1019900006000DF1060001A90122FFF79DFBBDF92C
:1019A000041014A0FEF740FC7F208DF803000DF119
:1019B00003000DF102010122FFF7C0FB9DF90210A7
:1019C00011A0FEF731FC06B080BD00BF61726D5FF3
:1019D0006162735F663332203D2025660D0A000088
:1019E00061726D5F6162735F713331203D202564E8
:1019F0000D0A000061726D5F6162735F71313520A5
:101A00003D2025640D0A000061726D5F6162735FA5
:101A10007137203D2025640D0A00000010B58AB002
:101A20004CF6CD40C3F6CC5009904CF6CD40C3F6F1
:101A30004C60089009A808A907AA01230124FFF710
:101A400097FB079801F014F902461BA00B46FEF71E
:101A5000EBFB06A805A904AA0123CDE90544FFF77D
:101A6000AFFB049919A0FEF7DFFB0220ADF80E00D2
:101A7000ADF80C000DF10E0003A90DF10A020123CF
:101A8000FFF78AFBBDF90A1015A0FEF7CDFB1E205B
:101A90008DF8090078208DF808000DF1090002A9E1
:101AA0000DF107020123FFF7A7FB9DF9071011A015
:101AB000FEF7BAFB0AB010BD61726D5F6164645FCE
:101AC000663332203D2025660D0A000061726D5F8D
:101AD0006164645F713331203D2025640D0A00008C
:101AE00061726D5F6164645F713135203D202564F2
:101AF0000D0A000061726D5F6164645F7137203DA3
:101B00002025640D0A00000080B5A6B043F238100D
:101B1000C0F6000090E80E1000690DF1840E2590CB
:101B200043F26C10C0F600008EE80E1090E80E1024
:101B300000690DF1700E209043F24C10C0F60000C9
:101B40008EE80E1090E80E1000690DF1580E1A90F4
:101B500043F28010C0F600008EE80E1090E80E10E0
:101B60000DF1440E00698EE80E1043F26011C0F6CC
:101B70000001159048680A8909680C9043F2941096
:101B8000C0F60000ADF8342002890B9103C8ADF80F
:101B90002820CDE9080101204FF001318DF8140013
:101BA00004918DF80C00029121A81CA91BAB052201
:101BB000FFF736FB1B9801F05BF8024612A00B46BC
:101BC000FEF732FB16A811A90EAB0522FFF762FB48
:101BD000DDE90E2312A0FEF727FB0BA808A906AB30
:101BE0000522FFF73BFBDDE9062314A0FEF71CFBF3
:101BF00004A802A901AB0522FFF76CFB019916A00E
:101C0000FEF712FB26B080BD61726D5F646F745F7A
:101C100070726F645F663332203D2025660D0A00C6
:101C200061726D5F646F745F70726F645F71333186
:101C3000203D20256C6C640D0A00000061726D5F10
:101C4000646F745F70726F645F713135203D202561
:101C50006C6C640D0A00000061726D5F646F745FEC
:101C600070726F645F7137203D2025640D0A00009B
:101C700080B5ACB043F2A010C0F6000090E80E10A2
:101C800000690DF19C0E2B9043F2D410C0F60000B9
:101C90008EE80E1090E80E1000690DF1880E269067
:101CA00043F2B410C0F600008EE80E1090E80E105B
:101CB00000690DF1600E1C9043F2E810C0F60000C0
:101CC0008EE80E1090E80E100DF14C0E00698EE8B3
:101CD0000E1043F2C811C0F60001179048680A8937
:101CE00009680C9043F2FC10C0F60000ADF83420F7
:101CF00002890B9103C8ADF82820CDE9080140F214
:101D00007011C0F20111049140F27F110120C0F264
:101D100001118DF814008DF80C00279802914CF6F3
:101D2000CD41C3F68C7100F0CFFF279027A822A9E0
:101D30001DAA0523FFF7E4FA1D9800F099FF02465B
:101D40001AA00B46FEF770FA189813A901301890E4
:101D500018A80EAA0523FFF7FDFA0E9918A0FEF7A2
:101D600063FABDF82C0008A90130ADF82C000BA8CF
:101D70000DF116020523FFF7D7FABDF9161015A0CD
:101D8000FEF752FA9DF8100002A901308DF81000FC
:101D900004A80DF103020523FFF7F4FA9DF90310DF
:101DA00011A0FEF741FA2CB080BD00BF61726D5FDB
:101DB0006D756C745F663332203D2025660D0A0018
:101DC00061726D5F6D756C745F713331203D2025DC
:101DD000640D0A0061726D5F6D756C745F713135F1
:101DE000203D2025640D0A0061726D5F6D756C7475
:101DF0005F7137203D2025640D0A000080B586B054
:101E0000002005900390ADF806008DF8030047F21E
:101E1000A400CBF69D70059005A804A90122FFF748
:101E2000C7FA049800F024FF024619A00B46FEF7FB
:101E3000FBF9039802A90138039003A80122FFF7D8
:101E4000DBFA029918A0FEF7EFF9BDF8060001A928
:101E50000138ADF806000DF106000122FFF7B8FACF
:101E6000BDF9041016A0FEF7DFF99DF803000DF18F
:101E7000020101308DF803000DF103000122FFF78C
:101E8000CFFA9DF9021014A0FEF7CEF906B080BD7E
:101E900061726D5F6E65676174655F663332203DA8
:101EA0002025660D0A00000061726D5F6E65676136
:101EB00074655F713331203D2025640D0A000000F8
:101EC00061726D5F6E65676174655F713135203D6C
:101ED0002025640D0A00000061726D5F6E65676108
:101EE00074655F7137203D2025640D0A00000000F5
:101EF00080B586B00020002105900390ADF8060063
:101F00008DF8030005A8CBF6807104AA0123FFF722
:101F10009BFA049800F0ACFE024616A00B46FEF7B2
:101F200083F903A802AA4FF0FF310123FFF7B0FAAB
:101F3000029916A0FEF778F90DF1060001AA4FF0FC
:101F4000FF310123FFF794FABDF9041015A0FEF745
:101F50006BF90DF103000DF102024FF0FF31012387
:101F6000FFF7B0FA9DF9021014A0FEF75DF906B074
:101F700080BD00BF61726D5F6F66667365745F667A
:101F80003332203D2025660D0A00000061726D5F2E
:101F90006F66667365745F713331203D2025640D73
:101FA0000A00000061726D5F6F66667365745F7131
:101FB0003135203D2025640D0A00000061726D5FFF
:101FC0006F66667365745F7137203D2025640D0A66
:101FD0000000000010B59EB043F20820C0F60000DB
:101FE00090E81E0000690DF1640C1D9043F21C2066
:101FF000C0F600008CE81E0090E81E000DF13C0CBD
:1020000000698CE81E0043F23021C0F600010A8905
:10201000139048680968ADF82420CDE90710012025
:102020008DF8100040F27010C0F201104CF6CD4156
:10203000039019A8C3F6CC5114AA05230524FFF771
:1020400051FA149800F014FE024616A00B46FEF753
:10205000EBF80FA80AAB4FF0E04100220094FFF725
:1020600071FA0A9915A0FEF7DFF807A80DF112031F
:102070004FF4E04100220094FFF748FABDF9121036
:1020800014A0FEF7D1F803A80DF107037021002278
:102090000094FFF78BFA9DF9071014A0FEF7C4F81F
:1020A0001EB010BD61726D5F7363616C655F6633F6
:1020B00032203D2025660D0A0000000061726D5F30
:1020C0007363616C655F713331203D2025780D0AA3
:1020D0000000000061726D5F7363616C655F713158
:1020E00035203D2025780D0A0000000061726D5FEB
:1020F0007363616C655F7137203D2025780D0A00A0
:1021000080B584B046F26660C8F68800039048F651
:102110006600ADF8060086208DF8030003A802AA29
:1021200003210123FFF782FA02990FA0FEF77CF842
:102130000DF1060001AA6FF002010123FFF752FA28
:10214000BDF904100EA0FEF76FF80DF103000DF1BC
:10215000020203210123FFF7A5FA9DF902100EA048
:10216000FEF762F804B080BD61726D5F73686966E6
:10217000745F713331203D202538780D0A0000004E
:1021800061726D5F73686966745F713135203D20DF
:102190002534780D0A00000061726D5F736869660E
:1021A000745F7137203D202532780D0A0000000051
:1021B00080B582B00DF106014FF47A70FFF796FA00
:1021C000BDF906100BA0FEF72FF869464FF47A70A0
:1021D000FFF7EAFA00990CA0FEF726F849F66E73AD
:1021E0000EA0C4F23F034FF08042FEF71DF802B08C
:1021F00080BD00BF61726D5F737172745F71313544
:10220000203D2025640D0A0061726D5F7371727448
:102210005F713331203D2025640D0A0061726D5FCE
:10222000737172745F663332203D2025660D0A009B
:1022300080B5ACB043F23C20C0F6000090E80E1030
:1022400000690DF19C0E2B9043F27020C0F6000047
:102250008EE80E1090E80E1000690DF1880E2690A1
:1022600043F25020C0F600008EE80E1090E80E10E9
:1022700000690DF1600E1C9043F28420C0F600004E
:102280008EE80E1090E80E100DF14C0E00698EE8ED
:102290000E1043F26421C0F60001179048680A89C5
:1022A00009680C9043F29820C0F60000ADF8342085
:1022B00002890B9103C8ADF82820CDE9080140F24E
:1022C0007011C0F20111049140F27F110120C0F29F
:1022D00001118DF814008DF80C00279802914CF62E
:1022E000CD41C3F68C7100F0EFFC279027A822A9FE
:1022F0001DAA0523FFF7C6FA1D9800F0B9FC024697
:102300001AA00B46FDF790FF189813A901301890FA
:1023100018A80EAA0523FFF7DFFA0E9918A0FDF7FB
:1023200083FFBDF82C0008A90130ADF82C000BA8E4
:102330000DF116020523FFF7B9FABDF9161015A025
:10234000FDF772FF9DF8100002A901308DF8100012
:1023500004A80DF103020523FFF7DAFA9DF9031033
:1023600011A0FDF761FF2CB080BD00BF61726D5FF1
:102370007375625F663332203D2025660D0A0000CA
:1023800061726D5F7375625F713331203D2025642A
:102390000D0A000061726D5F7375625F71313520E7
:1023A0003D2025640D0A000061726D5F7375625FE8
:1023B0007137203D2025640D0A00000044F20041E1
:1023C000C4F200010A885206FCD5C2B28A80704766
:1023D000FFF7B4FAFFF7B6FAFFF720FBFFF794FB1D
:1023E000FFF746FCFFF70AFDFFF782FDFFF788FEC7
:1023F000FFF71EFFFFF7EEFDFFF7DAFEFEE7000036
:10240000F0B585B04FF400300121FEF7F5FC042053
:1024100001210427FEF7FCFC44F200440420C4F22E
:102420000004C1F6030004F5444504AE04902846B8
:102430003146FEF789FC0820ADF8100028463146E9
:102440008DF81370FEF780FC4FF4E130009000200F
:102450004FF4002101900291ADF80C00694620462E
:10246000FEF7CCFD20460121FEF7BEFD05B0F0BD14
:102470005FEA400C08BF91F0000F4FEA8C234FEA4F
:10248000C12243EA51514FEA1C5018BF00F5F040F9
:102490004FEA300018BF41F000415FEA6C5C00F089
:1024A0002980BCF1FF3F08BF40F080407047130C0B
:1024B00006BF12044FF0100C4FF0000C130E04BFB7
:1024C00012020CF1080C130F04BF12010CF1040CE2
:1024D000930F04BF92000CF1020CD30F04BF520003
:1024E0000CF1010C11464FF00002A0F11F00A0EB0F
:1024F0000C00704711F0004F08BF704731F00041E9
:102500003FF4D5AF0B0C06BF09044FF0100C4FF091
:10251000000C0B0E04BF09020CF1080C0B0F04BFDA
:1025200009010CF1040C8B0F04BF89000CF1020CA3
:10253000CB0F04BF49000CF1010CCCF1200322FAAF
:1025400003F341EA030102FA0CF2A0EB0C0000F1E4
:102550000100704723F07F4720F07F4C80EA0300A2
:1025600000F00040ACEB070303F57C5303F1FF03DD
:102570002DE9804909B44FEA144324EA03484FEA9D
:10258000154B25EA0B4E0FF2042606EB13273E7877
:1025900003FB0667C7F5000707FB06F64FEAD646BA
:1025A00006F102064FEA543707FB066CCCF1005CDB
:1025B0004FEA1C472CEA074C0CFB06F507FB06F418
:1025C00004EB15464FEA961649085FEA320234BF1B
:1025D00000204FF000404FEAD13706FB07FC4FEADE
:1025E0001C4C0CFB0BF7D21B03FB0CF761EB070138
:1025F0000CFB0EF7B0EB074072EB17420CFB08F731
:1026000034BFA2EB0742B2EB074261EB17414FEA3E
:102610000C444FEA910706FB07FC4FEA1C4C0CFBED
:102620000BF7B0EBC74072EB573203FB0CF734BF2C
:10263000A2EBC742B2EBC74261EB57310CFB0EF77E
:10264000B0EBC70072EB57720CFB08F734BFA2EB7C
:10265000C702B2EBC70261EB57714FEA816141EAF1
:1026600092114FEA826242EA90124FEA806004EBD4
:10267000CC04039F4FEAD13706FB07FC4FEA1C4C02
:102680000CFB0BF7D21B03FB0CF761EB07010CFBF8
:102690000EF7B0EB074072EB17420CFB08F734BFA4
:1026A000A2EB0742B2EB074261EB17414FEA8C55B0
:1026B00004EB9C244FEA910706FB07FC4FEA1C4CF5
:1026C0000CFB0BF7B0EBC74072EB573203FB0CF778
:1026D00034BFA2EBC742B2EBC74261EB57310CFBF0
:1026E0000EF7B0EBC70072EB57720CFB08F734BF64
:1026F000A2EBC702B2EBC70261EB57714FEA8161EF
:1027000041EA92114FEA826242EA90124FEA8060F7
:1027100015EB4C2544F100044FEAD13706FB07FCCA
:102720004FEA1C4C0CFB0BF7D21B03FB0CF761EBC5
:1027300007010CFB0EF7B0EB074072EB17420CFBE6
:1027400008F734BFA2EB0742B2EB074261EB174137
:102750004FEA813141EA92414FEA823242EA9042A5
:102760004FEA80304FEA0C7615EB1C1544F100045B
:1027700048EA03434EEA0B484FF0000EB2EB080C58
:1027800071EB030724BF624639464EEB0E0E4FF045
:10279000000B0018524149414BEB0B0BB2EB080CFC
:1027A00071EB03077BF1000B24BF624639464EEB09
:1027B0000E0E4FF0000B0018524149414BEB0B0B32
:1027C000B2EB080C71EB03077BF1000B24BF6246F0
:1027D00039464EEB0E0E51EA020718BF46F00106CD
:1027E00016EB0E7655F1000254F1000103D5BDE859
:1027F0008901BDE80088BDE88901BDE80048B61937
:10280000524141EB0101A3F10103704780807F7EBB
:102810007D7C7B7A79787776767574737271717056
:102820006F6E6E6D6C6C6B6A6A6968686766666508
:102830006464636362616160605F5F5E5E5D5D5C96
:102840005C5B5B5A5A595958585757565655555507
:102850005454535352525251515050504F4F4F4E67
:102860004E4D4D4D4C4C4C4B4B4B4A4A4A494949B5
:1028700048484847474747464646454545444444F7
:102880004443434343424242424141419C46002B20
:1028900030D477002BD04FEA37071CB503B44FF084
:1028A00010004FF01001BAF1000F06D0BCF1000F7C
:1028B000DCBF40F0080040F008014FF000000FBC02
:1028C000BDE810400BF1010BBBF1010F08BF5FEA3F
:1028D000170722BF12F1010211F101014FF000416F
:1028E00043F1000300F0004043EA00007047F9D3D1
:1028F0005708D0E746EA06464FEA164613F1400F5E
:102900001FDD13F1200FDFBF16430A4600212033DD
:102910005B42BED0C3F1200746EA06464FEA1646A0
:1029200002FA07F746EA070622FA03F2C3F1200784
:1029300001FA07F742EA070221FA03F14FF0000318
:10294000A7E746EA020646EA06464FEA164646EA80
:102950000106BCBF46EA0646360C4FF000034FF0B6
:1029600000024FF0000194E72DE9804C70B49A46C4
:10297000934691E8380007C831EA400C48BF34EA72
:10298000430C03D5FFF7E6FDFFF780FFF0BCBDE881
:10299000008C2DE9804C70B49A46934691E838003B
:1029A00007C810F0804F08BF13F0804F03D100F02C
:1029B00005F8FFF76BFFF0BCBDE8008C20F07F4707
:1029C00023F07F4C80EA030000F0004007EB0C038B
:1029D000A3F57C53A3F1FE0392F0000F00F0B38047
:1029E00095F0000F00F077802DE901494FEA114082
:1029F00021EA00484FEA144624EA064700FB06FC99
:102A000008FB06F607FB08F818EB06484CEB164CDB
:102A100000FB07F718EB07484CEB17404FEA124B47
:102A200022EA0B4E4FEA154625EA06470BFB06FC49
:102A30000EFB06F607FB0EFE1EEB064E4CEB164C8D
:102A40000BFB07F71EEB074E4CEB174B18EB0B0875
:102A500040F1000018EB0E0B58EB000840F10000AD
:102A60008F1A4FF000014FF000063CBFC943661BB0
:102A700014BFB5EB040C00213CBFC943F61B4FEA61
:102A8000174427EA04454FEA1C472CEA074C04FB8D
:102A9000076205FB07F70CFB05F616EB074642EB52
:102AA000174204FB0CFC16EB0C4642EB1C421BEBE2
:102AB000060658EB020241414EEA8E0E46EA9E0699
:102AC00001D5BDE80189B619524141EB0101A3F1DD
:102AD0000103BDE801894FEA144524EA05464FEA9F
:102AE000114721EA074C05FB07F406FB07F70CFB2F
:102AF00006F111EB074144EB174405FB0CFC11EB0D
:102B00000C4144EB1C444FEA124722EA074C05FBF8
:102B100007F206FB07F70CFB06F616EB074642EB3F
:102B2000174205FB0CFC16EB0C4642EB1C456A18E1
:102B300054F1000148BF7047B619524141EB010101
:102B4000A3F10103704795F0000F37D04FEA11420F
:102B500021EA02464FEA144724EA074C02FB07F138
:102B600006FB07F70CFB06F414EB074441EB174197
:102B700002FB0CFC14EB0C4441EB1C414FEA1547E3
:102B800025EA074C02FB07F506FB07F70CFB06F6E8
:102B900016EB074645EB174502FB0CFC16EB0C4603
:102BA00045EB1C42121951F1000148BF7047B6199C
:102BB000524141EB0101A3F1010370474FEA144573
:102BC00024EA05464FEA114721EA074C05FB07F1C5
:102BD00006FB07F70CFB06F212EB074241EB17412D
:102BE00005FB0CFC12EB0C4251EB1C414FF00006B4
:102BF00048BF7047921841EB0101A3F101037047F0
:102C0000490050EAC12018BF04204A0D18BF40F007
:102C1000010040F2FF72B2EB515F08BF40F00200CA
:102C2000012808BF0520704730380A2801D201204A
:102C3000704700207047000010B500290AD00878BE
:102C4000002807D005487844FEF73EF8002801D058
:102C5000002010BD0248784410BD0000820600002C
:102C60007A0600000808A0F500114FEA310170470C
:102C700043004FEAD30C4FEA3C0C43401FBF4007D0
:102C80000CF1605113F0FE4F70471CF0006F03D140
:102C90000CF00041002070470CF0004343EA5070F4
:102CA00040EACC0010B500F026F900BF0000009209
:102CB0004FEA0001FFF7D6BF4FF00041A1F5002118
:102CC0004FF000007047000090EA010F48BF81F00C
:102CD000004100F16281421A3CBF801A89184FEA14
:102CE000D052A2EBD1534FF07F4C1CEA410F18BFDA
:102CF0009CEA026F00F03B804FF0004C4CEA002051
:102D00004CEA012121FA03FC10EB0C0C1ED202F15B
:102D1000FF325FEA1C2040EBC25038BF70471CF006
:102D20007F0F4FEA400C18BFBCF17F4F38BF704790
:102D3000C3F12003994008BF20F00100BCF17F4F90
:102D400038BF7047A0F1C04000F01BB94FEA3C000B
:102D5000000A40EBC25028BF1CF0FF0F4FEA400CA6
:102D6000E6D018BFBCF17F4F38BF7047EAE79CEA56
:102D7000026F05D010EA5C0F08BF00F000407047FA
:102D800010B500F0B8F800BF64FBBE3E41000B0E6A
:102D9000D3F19E0208D950F400034FEA032323FA2B
:102DA00002F048BF4042704710B500F0A4F800BFE1
:102DB00049922480002070476FF0004282EA200090
:102DC0007047000010F0004148BF4042B0FA80F365
:102DD00010FA03F2C3F19D030BD051EAC35101EB8A
:102DE0001220530638BF704700F1010008BF20F0E1
:102DF000010070474FF47F0C1CEAD0121EBF1CEA82
:102E0000D11392EA0C0F93EA0C0F00F0478090EA7E
:102E1000010F48BF42F480724FF0004C4CEA002092
:102E20004CEA012102EB0302A0FB0113A2F5000210
:102E3000002918BF43F001035B0028BF4FEA3303AA
:102E400042EB22425FEA132C4CEBC2502EBFBCEB8C
:102E5000436FB2F57C0F70474FEA036CBCF1004F33
:102E600008BF20F00100B2F57C0F38BF70470BD5CA
:102E700082F0FF0212F5803FC8BF704700F1C040EA
:102E8000D8BF00F00040704700F5000C5FEA4C0C22
:102E900048BF7047B0F1C04000F073B80CEAD113DE
:102EA00090EA010F48BF42F48072624538BF634523
:102EB00004D280EA010000F00040704710B500F035
:102EC0001AF800BF8900013E00F007B800F009B809
:102ED0005FEA410C5FEA1C6C08D080EA010000F058
:102EE00050B85FEA400C5FEA1C6CF6D14FF000402E
:102EF000A0F5800070470EF1020E2EF0030E5EF872
:102F0000044B244204D44FEA4102B2F17F4F11D85E
:102F10004FEA4003B3F17F4F0CD80ED14FEAD07C7B
:102F20000CEB4C0C0CF1020CB2F17F4F08BF4CEBD8
:102F3000D17C04E04FF0080C01E04FEAD17C0CEBAF
:102F40004C0324FA03F404F00704B4F1040C06D291
:102F50000EEB840CBDE810404CF0010C6047DFE83C
:102F60000CF0070802024FF00040A0F5800010BDF1
:102F70000846420018BFD2F1807288BF00F00040BE
:102F800010BDFF2141EAD050C005704790EA010F03
:102F900048BF81F000413FF59EAE421A04D882F04E
:102FA0000042A0EB020011444FEAD052A2EBD153F1
:102FB0004FF07F4C1CEA410F18BF9CEA026F4AD0C9
:102FC0004FF0004C4CEA00204CEA012121FA03FCAE
:102FD000B0EB0C0C0FD412F0FE0F36D05FEA4C00B1
:102FE0001DD5001240EBC25038BF70471CF03F0F98
:102FF00018BF70470BE05FEA1C20A2F1010240EB12
:10300000C25038BF70471CF07F0F18BF7047C3F124
:103010002003994014BF401E20F0010070474FEA82
:103020001223800808BF7047B0FA80FCA2EB0C02A4
:10303000CCF1280C60FA0CF093EA122F04BF00EBDD
:10304000C25070474FEAC3707047130A5FEADC1042
:1030500008BF7047F6E79CEA026F04D010EA5C0FE5
:1030600008BF0020704710B5FFF745FF40DFF63E70
:1030700081F000407047FDF7DBBB3031323334352F
:1030800036373839414243444546403058003031A4
:1030900032333435363738396162636465664030BF
:1030A0007800000002400000000000A000000000C6
:1030B00005400000000000C8000000000C400000B7
:1030C0000000409C00000000194000000020BCBE31
:1030D0000000000034400000BFC91B8E0000000447
:1030E000B5400000504BCFD06607E2CF0100000092
:1030F0006C4100003E8251AADFEEA73401000000BF
:10310000D9420000DCB5A0E23A301F97FFFFFFFF75
:10311000B4450000FD25A0C8E9A3C14FFFFFFFFF94
:10312000FF3F00000000008000000000FF3F0000A3
:1031300000000080000000000000803F0000803F91
:103140000000803F0000803F0000803FF0FFFF7FD5
:10315000010000000100000001000000010000006B
:103160000100010001000100010000000000803F9B
:103170000000803F0000803F0000803F0000803F53
:10318000010000000100000001000000010000003B
:103190000100000001000100010001000100000029
:1031A0000000803F0000803F0000803F0000803F23
:1031B0000000803F0100000001000000010000004D
:1031C00001000000010000000100010001000100F9
:1031D000010000000000803F0000803F0000803FB1
:1031E0000000803F0000803F01000000010000005F
:1031F00001000000010000000100000001000100CA
:1032000001000100010000000000803F0000803F3D
:103210000000803F0000803F0000803FFFFFFF6F05
:10322000010000000100000001000000010000009A
:10323000FF6F010001000100010000000000803F5D
:103240000000803F0000803F0000803F0000803F82
:10325000010000000100000001000000010000006A
:103260000100000001000100010001000100000058
:103270000000803F0000803F0000803F0000803F52
:103280000000803F0100000001000000010000007C
:103290000100000001000000010001000100010028
:1032A00001000204060800000000010203040102FC
:1032B0000304060708090000E432000800000020AB
:1032C000B80600006C0100081C000000430000006C
:1032D000F8FFFFFF0C0000000E0000000F000000D0
:0432E0002E000000BC
:0400000508000131BD
:00000001FF
