:020000040800F2
:1000000080060020D50100083B07000833070008E0
:100010003707000817060008790B000800000000E9
:10002000000000000000000000000000F1080008CF
:100030001B06000800000000C1070008DD090008D9
:10004000EF010008EF010008EF010008EF010008D0
:10005000EF010008EF010008EF010008EF010008C0
:10006000EF010008EF010008EF010008EF010008B0
:10007000EF010008EF010008EF010008EF010008A0
:10008000EF010008EF010008EF010008EF01000890
:10009000EF010008EF010008EF010008EF01000880
:1000A000EF010008EF010008EF010008EF01000870
:1000B000410A0008EF010008EF010008EF01000805
:1000C000EF010008EF010008EF010008EF01000850
:1000D000EF010008EF010008EF010008EF01000840
:1000E000EF010008EF010008EF010008EF01000830
:1000F000EF010008EF010008EF010008EF01000820
:10010000EF010008EF010008EF010008EF0100080F
:10011000EF010008EF010008EF010008EF010008FF
:10012000EF010008EF010008EF010008EF010008EF
:1001300000F002F800F03FF80AA090E8000C8244BA
:100140008344AAF10107DA4501D100F034F8AFF297
:10015000090EBAE80F0013F0010F18BFFB1A43F0A5
:1001600001031847F80B0000180C0000103A24BFD8
:1001700078C878C1FAD8520724BF30C830C144BF0C
:1001800004680C607047000000230024002500264E
:10019000103A28BF78C1FBD8520728BF30C148BFEA
:1001A0000B607047642900F07780002070471FB50E
:1001B0001FBD10B510BD00F037F91146FFF7F7FF6E
:1001C00000F068FD00F055F903B4FFF7F2FF03BC3F
:1001D00000F0D4FC0948804709480047FEE7FEE7E5
:1001E000FEE7FEE7FEE7FEE7FEE7FEE7FEE7FEE7E7
:1001F00004480549054A064B70470000E10900081C
:1002000031010008800000208006002080020020CC
:1002100080020020704700000FB4044910B503AA03
:10022000029800F0D3F810BC5DF814FB1400002015
:100230002DE9F0410E460446002020622046E16888
:10024000884730B3252805D0D4E901219047206A9A
:10025000401CF2E7E168204600278847050018D0D7
:10026000A5F14100192802D820354FF40067324625
:10027000294620462760FFF795FF40B1012804D0AA
:10028000F61D26F007060836D8E7361DD6E72846BD
:10029000DAE7206ABDE8F0812DE9F0410646002446
:1002A00010687529314616A510D0AFF300800028DC
:1002B00002DA404213A507E031688A0701D512A58A
:1002C00002E0490704D511A5012401E0AFF3008045
:1002D00000210A2206F1240709E0B0FBF2FCB0FB82
:1002E000F2F302FB1C00303078541846491C0028F9
:1002F000F3D123462A463046BDE8F04100F00CB861
:10030000000000002D0000002B0000002000000075
:1003100070477047704770472DE9F0470D46994682
:100320009246044600F124080168880604D5E06975
:1003300021F01001216000E00120A84201DD471BEF
:1003400000E00027A1697A1902EB0900081AA061F0
:100350002078C00602D42046AFF30080002608E0D3
:10036000D4E901211AF806009047206A401C761C47
:1003700020624E45F4DB2078C0060AD52046AFF354
:10038000008006E0D4E9012130209047206A401C1B
:100390002062381EA7F10107F4DC07E0D4E901214F
:1003A00018F805009047206A401C2062281EA5F11D
:1003B0000105F3DC2046AFF300802078000602D56B
:1003C0000220BDE8F0870120FBE70000074B70B575
:1003D0000D467B4400F011F80446284600F020F852
:1003E00010B14FF0FF3070BD204670BD9F08000077
:1003F00001694A1C02610878704700B58FB0CDE9E9
:1004000001310021059105497944CDE903101146D8
:100410006846FFF70DFF0FB000BD0000E5FFFFFFCE
:10042000007B00F080007047754600F02BF8AE4668
:1004300005006946534620F00700854618B020B5F0
:10044000FFF7D6FEBDE820404FF000064FF0000752
:100450004FF000084FF0000B21F00701AC46ACE86C
:10046000C009ACE8C009ACE8C009ACE8C0098D46D9
:10047000704710B50446AFF300802046BDE8104039
:10048000FFF7A2BE004870471C00002021B182681F
:1004900042F00102826003E0826822F00102826081
:1004A0007047014600208A6802F004020AB1012068
:1004B00000E0002070470146C86C80B270470246D9
:1004C000002013680B400BB1012000E000207047B2
:1004D000014600208A6802F008020AB1012000E00B
:1004E0000020704730B502460020002350680F4CB2
:1004F00020400D790C6844EA052420435060906840
:100500000B4C2040D1E902542C434D7944EA450478
:1005100020439060D06A20F470000C7C641EE4B22A
:10052000234340EA0350D06230BD0000FFFEF0FFDD
:10053000FDF7F1FFF0B504460D4600200021092D1E
:1005400011DDE068A5F10A0606EB4607072606FA64
:1005500007F18843A5F10A0606EB460603FA06F101
:100560000843E0600CE0206905EB4507072606FA22
:1005700007F1884305EB450603FA06F108432061BD
:10058000072A0FDA606B561E06EB86071F2606FA4F
:1005900007F18843561E06EB860605FA06F1084366
:1005A000606322E00D2A0FDA206BD61F06EB860768
:1005B0001F2606FA07F18843D61F06EB860605FAC2
:1005C00006F10843206310E0E06AA2F10D0606EB95
:1005D00086071F2606FA07F18843A2F10D0606EBEF
:1005E000860605FA06F10843E062F0BD816841F035
:1005F00008018160704721B1826842F4A0028260E4
:1006000003E0826822F4A00282607047816841F0B2
:1006100004018160704700BFFEE770472DE9F0419B
:10062000024600250026002000230024002791F820
:1006300003C00CF00F0591F803C00CF0100CBCF1D6
:10064000000F03D091F802C04CEA050591F800C0F4
:10065000BCF1000F31D0146800202BE04FF0010CEA
:100660000CFA00F3B1F800C00CEA03069E4220D158
:1006700083004FF00F0C0CFA03F7BC4305FA03FCA0
:100680004CEA040491F803C0BCF1280F06D14FF0E6
:10069000010C0CFA00FCC2F814C00AE091F803C087
:1006A000BCF1480F05D14FF0010C0CFA00FCC2F868
:1006B00010C0401C0828D1D31460B1F800C0BCF1B0
:1006C000FF0F34DD546800202EE000F1080C4FF0DD
:1006D000010808FA0CF3B1F800C00CEA03069E42C8
:1006E00021D183004FF00F0C0CFA03F7BC4305FA3D
:1006F00003FC4CEA040491F803C0BCF1280F05D1B7
:1007000000F1080C08FA0CF8C2F8148091F803C044
:10071000BCF1480F07D100F1080C4FF0010808FAAE
:100720000CF8C2F81080401C0828CED35460BDE8F5
:10073000F08100BFFEE700BFFEE7704770B5002103
:1007400000230F22C47804B3154C246804F4E06439
:10075000C4F5E064210AC1F10403CA40447804FAF4
:1007600003F184781440214309010E4C0678A15509
:10077000047804F01F050124AC4005786D11AD002C
:1007800005F1E025C5F8004109E0047804F01F05F3
:100790000124AC40044D0678761145F8264070BD22
:1007A0000CED00E000E400E080E100E002490143DC
:1007B000024A1160704700000000FA050CED00E0ED
:1007C0007047000001460020034A506820F4404072
:1007D00008435060704700000010024029B1064AEB
:1007E000D2690243044BDA6104E0034AD2698243CE
:1007F000014BDA61704700000010024029B1064A3F
:1008000092690243044B9A6104E0034A926982436D
:10081000014B9A61704700000010024030B5002182
:100820000022002400232D4D6D6805F00C0121B13C
:10083000042905D0082923D105E0294D056022E0CF
:10084000274D05601FE0254D6D6805F47012234D9E
:100850006D6805F48034022505EB92421CB9214DE8
:10086000554305600BE01D4D6D6805F400351DB165
:100870001C4D5543056002E0194D5543056002E0EB
:10088000174D056000BF00BF144D6D6805F0F00105
:100890000909154D6B5C0568DD4045600F4D6D68BD
:1008A00005F4E061090A104D6B5C4568DD40856028
:1008B0000A4D6D6805F46051C90A0B4D6B5C4568C3
:1008C000DD40C560054D6D6805F44041890B074D5D
:1008D0006B5CC568B5FBF3F5056130BD00100240E7
:1008E00000127A0000093D000000002010000020E6
:1008F000704710B500F002F810BD00000CB50020E4
:10090000019000903348006840F48030314908601D
:1009100000BF3048006800F4003000900198401C8F
:100920000190009818B90198B0F5A06FF1D129484D
:10093000006800F4003010B10120009001E00020B8
:1009400000900098012843D12348006840F010002F
:10095000214908600846006820F003000860084646
:10096000006840F0020008601A4840681949486071
:100970000846406848600846406840F48060486027
:100980000846406820F47C1048600846406840F4FF
:10099000E81048600846006840F08070086000BFBA
:1009A0000C48006800F000700028F9D00948406841
:1009B00020F00300074948600846406840F0020004
:1009C000486000BF0348406800F00C000828F9D1D7
:1009D0000CBD0000001002400020024070470000E3
:1009E00010B51348006840F001001149086008463E
:1009F0004068104908400E494860084600680E49A2
:100A000008400B4908600846006820F48020086010
:100A10000846406820F4FE0048604FF41F008860DC
:100A2000FFF767FF4FF000600449086010BD000049
:100A3000001002400000FFF8FFFFF6FE08ED00E0A6
:100A400010B50121880700F00EF8012805D10349EF
:100A500008700121800700F003F810BD1800002085
:100A6000CA430282704730B50246002000230024AA
:100A7000158A05EA0103958905EA010413B10CB151
:100A8000012000E0002030BD21B1828942F40052F3
:100A9000828104E082894DF6FF731A40828170479B
:100AA0002DE9F04786B005460E460024A24600BF59
:100AB000A1460027B08900B100BF2F462C8A4CF612
:100AC000FF700440F08804432C82AC894EF6F3108A
:100AD0000440B08831890843718908430443AC81DC
:100AE000AC8A4FF6FF400440B0890443AC8201A8B1
:100AF000FFF794FE1F48874202D1DDF810A001E005
:100B0000DDF80CA0A88900F4004040B10AEBCA004F
:100B100000EB0A1031684900B0FBF1F807E00AEB7E
:100B2000CA0000EB0A1031688900B0FBF1F86420BC
:100B3000B8FBF0F004012009642101FB1089A889A9
:100B400000F4004040B1322000EBC900B0FBF1F0EE
:100B500000F00700044308E0322000EB0910642194
:100B6000B0FBF1F000F00F0004432C8106B0BDE8AB
:100B7000F08700000038014000BFFEE700BF70476B
:100B800000B585B001211020FFF738FE0F20ADF829
:100B9000100000208DF8130004A92348FFF73EFD44
:100BA0004FF4A060FFF702FE0B208DF8100001202B
:100BB0008DF811008DF812008DF8130004A8FFF7CE
:100BC000BDFD4FF40040FFF7FDFD01214802FFF796
:100BD00015FE002000908DF804008DF805004FF4FC
:100BE000602002900020039001208DF810006946DB
:100BF0000E48FFF777FC01210C48FFF747FC0B4834
:100C0000FFF7F4FC00BF0948FFF762FC0028FAD1A7
:100C10000648FFF7FBFC00BF0448FFF742FC002832
:100C2000FAD105B000BD00000010014000240140D1
:100C300070B504460523012221460A48FFF77AFCD5
:100C400001210848FFF7D7FC00BF02210548FFF744
:100C500036FC0028F9D00348FFF72DFC054628464E
:100C600070BD00000024014010B500F011F800F044
:100C700037F810BD00BF054A128802F04002002A72
:100C8000F9D0C2B2014B1B1D1A80704700440040CE
:100C90007047000008B5FFF7E7FFFFF771FF00BFDF
:100CA0000D20FFF7C5FF04460C20FFF7C1FF0546E6
:100CB0000B20FFF7BDFF06460A20FFF7B9FF0746E6
:100CC0002B463246394602A00094FFF7A5FAE7E723
:100CD00025642C25642C25642C25640D0A00000055
:100CE00000B585B001210420FFF788FD01214804EB
:100CF000FFF774FD0420ADF8100003208DF81200FA
:100D000018208DF8130004A91248FFF787FC08206B
:100D1000ADF8100004208DF8130004A90D48FFF76A
:100D20007DFC4FF4E13000900020ADF80400ADF8F8
:100D30000600ADF80800ADF80C000C20ADF80A0074
:100D400069460548FFF7ACFE01210348FFF79CFE0A
:100D500005B000BD00080140004400407C0D0008C3
:100D6000000000201C0000006C010008980D000825
:100D70001C0000206406000088010008000000003C
:100D8000010203040102030406070809020406081D
:080D900000000000000000005B
:0400000508000131BD
:00000001FF
