:020000040800F2
:10000000480F002045010008612E00080D2A000855
:100010005D2E0008390D0008452F00080000000083
:10002000000000000000000000000000692E000831
:100030003D0D000800000000652E00086D2E000830
:100040005F0100085F0100085F0100085F01000810
:100050005F0100085F0100085F0100085F01000800
:100060005F0100085F0100085F0100085F010008F0
:100070005F0100085F0100085F0100085F010008E0
:100080005F0100085F0100085F0100085F010008D0
:100090005F0100085F0100085F0100085F010008C0
:1000A0005F0100085F0100085F0100085F010008B0
:1000B0005F0100085F0100085F0100085F010008A0
:1000C0005F0100085F0100085F0100085F01000890
:1000D0005F010008392F00085F0100085F01000878
:1000E0005F0100085F0100085F0100085F01000870
:1000F0005F0100085F0100085F0100085F01000860
:100100005F0100085F0100085F0100085F0100084F
:100110005F0100085F0100085F0100085F0100083F
:100120005F0100085F0100085F0100085F0100082F
:10013000DFF80CD000F040FD0048004741540008B3
:10014000480F00200648804706480047FEE7FEE7C4
:10015000FEE7FEE7FEE7FEE7FEE7FEE7FEE7FEE777
:10016000712E00083101000840EA01039B0703D00B
:1001700009E008C9121F08C0042AFAD203E011F8E6
:10018000013B00F8013B521EF9D27047D2B201E0A8
:1001900000F8012B491EFBD270470022F6E710B58C
:1001A00013460A4604461946FFF7F0FF204610BDE5
:1001B000421C10F8011B0029FBD1801A7047F0B4D3
:1001C00080EA0102D40F4200B2EB410F02D2024694
:1001D000084611464A0042D0C30DDDB2C1F3C752F2
:1001E000AD1A202D35DAC1F3160141F4000204B135
:1001F0005242C5F1200602FA06F12A411044B3EB3F
:10020000D05F23D0C4B1012DA0EBC35009DCF0BCFA
:100210004FF0004202EAC352DBB200F5000000F0EA
:1002200020BB400000F1807000EBC350A0F1807053
:1002300040EAD170490009E0490841EAC071A0EBE9
:10024000C35000F50000400800EBC350F0BC00F0C4
:10025000FFBA6142012202EB4101001BF6E7F0BC4C
:10026000704781F00041AAE780F00040A7E780EAEC
:10027000010210B502F00043400022D04A001FD016
:10028000010E01EB1261C0F35600C2F3560240F4B6
:10029000000042F40002A0FB022000047F39140495
:1002A00000D0401C50EA124001D44000491EC2B2A6
:1002B0000C0604EBD010401C4008802A02D003E05A
:1002C000002010BD20F00100002900DA00201843B2
:1002D00010BD30B480EA010202F0004530F0004267
:1002E00021F0004013D090B1C30DD40DC2F316011C
:1002F000C0F31600E41A41F4000140F400027D341A
:10030000914201D3641C00E04900002C02DA30BCA9
:10031000002070474FF400000023914201D3891A56
:10032000034340084FEA4101F7D151B1914202D154
:100330004FF0004105E002D24FF0010101E06FF003
:10034000010103EBC450284430BC00F081BA2DE910
:10035000FE4F804681EA0300C00F0C46009021F05A
:10036000004123F00045B8EB0200A94105D2404608
:10037000214690461C460B46024623F0004010439F
:1003800047D0270DC7F30A00C3F30A510290401A61
:10039000019040286BDAC3F3130040F4801B0098EF
:1003A000924620B10023D2EB030A63EB0B0B0198BA
:1003B0005946C0F14002504600F019FA06460D4673
:1003C00050465946019A00F031FA10EB080061419D
:1003D000002487EA115284EAE7731A4340D0009A56
:1003E00062B3019A012A4FEA075215DC001B61EB48
:1003F00002014FF0004202EA0752CDE90042001C20
:1004000041F5801132462B4600F0C1FA03B0BDE839
:10041000F08F40462146F9E7001B61EB0201001C0A
:1004200041F5801300185B412018A2F5001747EB37
:10043000030140EAD570B6196D4111E06D084FEA2D
:10044000360645EAC0754FEA0752001B61EB020110
:10045000001C41F5801149084FEA30000019514154
:1004600032462B4603B0BDE8F04F00F081BA009849
:10047000012240000023D0EB020263EBE0730098FE
:1004800021464FEAE074B8EB000061EB0401E9E7B4
:1004900083F000435BE781F0004158E72DE9FE4F10
:1004A00081EA030404F0004421F0004100944FF07D
:1004B000000B23F0004350EA01045ED052EA03042B
:1004C0005BD0C3F30A54C1F30A552C44A4F2F334AD
:1004D0000194A0FB0254C1F3130141F48011C3F352
:1004E000130343F4801301FB024400FB034E840A10
:1004F000970A44EA815447EA8357A4FB07680295A8
:100500008D0A05FB07854FEA932C04FB0C54270545
:10051000029D4FEA065847EA1637B5EB08056EEB21
:10052000070C870E920E47EA811742EA8312A7FB57
:100530000201B6EB0B0164EB00042B0D43EA0C3314
:100540005E1844EB1C50DA465146E7FB0201C5F346
:1005500013044FEA0B3343EA14534FEA0432019C6D
:1005600043EA0603A4F10C040294009CCDE900B414
:1005700000F00DFA03B0BDE8F08F00200146F9E766
:10058000002801DBC0F10040002901DBC1F100417E
:10059000814201D20120704700207047002801DB12
:1005A000C0F10040002901DBC1F10041814201D3CB
:1005B0000120704700207047002801DBC0F1004097
:1005C000002901DBC1F10041814201D901207047BE
:1005D00000207047002801DBC0F10040002901DB4A
:1005E000C1F10041814201D10120704700207047D4
:1005F00030B5041E71F1000404DB4FF000444042AA
:1006000064EB0101141E73F1000405DB1C464FF07E
:100610000043524263EB0403101A8B4101D20120C4
:1006200030BD002030BD30B5041E71F1000404DB84
:100630004FF00044404264EB0101141E73F10004CA
:1006400005DB1C464FF00043524263EB0403101AD3
:100650008B4101D3012030BD002030BDC10F80EAA5
:10066000E0700844CA079623002100F0FAB89623E8
:100670000022114600F0F5B80EB540F23341029168
:100680000021CDE900110A460B4600F080F903B0C5
:1006900000BD00F0004220F00040C10DC0F3160084
:1006A00040F400007F2901DA00207047962903DC1E
:1006B000C1F19601C84001E096398840002AF4D083
:1006C0004042704770B5C1F30A5201F00045002462
:1006D000C1F3130140F2FF3341F480119A4201DA71
:1006E000002070BD40F233439A42A2F2334203DC51
:1006F000524200F08BF800E090402C43F1D0404291
:1007000070BD00F0004230F000400AD0C10D01F58C
:100710006071C0F3160042EA0151C208400711435C
:10072000704700200146704701F0004330B421F0CB
:10073000004150EA010206D00A0DA2F56072C1F331
:100740001301002A02DC30BC00207047440F44EA49
:10075000C104C100E01830BC00EBC25000F078B812
:1007600030B50B46014600202022012409E021FA81
:1007700002F59D4205D303FA02F5491B04FA02F57E
:100780002844151EA2F10102F1DC30BD2DE9F05F15
:100790000546002092469B468846064681464024F0
:1007A0001BE0284641464746224600F02FF85346B4
:1007B0005A46C01A914110D311461846224600F0FD
:1007C00016F82D1A67EB01084F462246012000213A
:1007D00000F00DF817EB00094E41201EA4F10104B2
:1007E000DFDC484631462A464346BDE8F09F202AD2
:1007F00004DB203A00FA02F1002070479140C2F178
:10080000200320FA03F3194390407047202A04DBA9
:10081000203A21FA02F00021704721FA02F3D04079
:10082000C2F120029140084319467047202A06DB96
:10083000CB17203A41FA02F043EAE07306E041FAAE
:1008400002F3D040C2F1200291400843194670479C
:100850000029A8BF7047401C490008BF20F00100D4
:10086000704710B4B0FA80FC00FA0CF050EA0104B2
:1008700004BF10BC704749B1CCF1200421FA04F444
:1008800011FA0CF118BF012121430843A3EB0C011D
:10089000CB1D4FEA00614FEA102042BF002010BC80
:1008A000704700EBC35010440029A4BF10BC704730
:1008B000401C490008BF20F0010010BC70474200F6
:1008C00005D0C0F3C7525242914201DC002070476C
:1008D00000EBC1507047F0B4002802DCF0BC0020EF
:1008E0007047C0F3C751C0F3160040F40000CA07B8
:1008F00001D14000491E3F2202EB61050022114652
:100900004FF4000626FA01F31344D418844201D8A8
:10091000001B1A464000491C1729F3DD5100814293
:1009200002D24FF0FF3100E0002102EBC550F0BCD5
:10093000FFF78EBF10B541000CD0C0F3C751962908
:1009400008DC7E2909DC06DB410204D000F000400F
:1009500040F07E5010BD002010BDC1F19604C4F1DE
:10096000200100FA01F1E040FFF772FFA04010BD46
:1009700010B5141E73F1000408DA401C41F10001A7
:1009800092185B411A4301D120F0010010BD2DE9FE
:10099000F04D92469B4611B1B1FA81F202E0B0FAF5
:1009A00080F220329046FFF722FF04460F4640EACD
:1009B0000A0041EA0B0153465A46084313D0114638
:1009C00053EA010019D0C8F140025046FFF71EFF5C
:1009D00005460E46504659464246FFF708FF084373
:1009E00005D0012004E020463946BDE8F08D002006
:1009F000054346EAE0762C4337430A986305E40A48
:100A0000A0EB08000022FD0A44EA47540A3002D550
:100A100000200146E9E7010510196941DDE90845B3
:100A200000196941BDE8F04DA2E72DE9F04D81EADA
:100A3000030404F0004B21F0004514464FF0000A77
:100A400023F0004150EA050220D054EA01021DD0F3
:100A5000C5F30A570246C5F31303C1F31300C1F3EC
:100A60000A5640F4801543F48013A7EB0608101BC8
:100A7000D64608F2FD3873EB050002D308F10108F1
:100A800001E092185B41B8F1000F03DA0020014643
:100A9000BDE8F08D00204FF48011064684460EE03C
:100AA000171B73EB050705D3121B63EB0503064306
:100AB0004CEA010C49084FEA300092185B4150EAB9
:100AC0000107EDD152EA030012D082EA040083EA62
:100AD0000501084305D0101BAB4106D201220023BB
:100AE00006E000224FF0004302E06FF001025310D5
:100AF0001AEB06004CEB085110EB0A0041EB0B011E
:100B0000BDE8F04DFFF734BFC1F30A52C1F3130142
:100B100040F2FF3341F480119A4202DA002001468C
:100B2000704740F233439A42A2F2334202DC52420F
:100B3000FFF76CBEFFF75BBE10B500F0004420F07D
:100B40000040C20DC0F3160040F400007F2A07DA0F
:100B50007D2A00DA7D22763A00FA02F1002008E0D0
:100B6000962A09DCA2F1760100FA01F1C2F196029F
:100B7000D040FFF76DFE01E0963A9040002C00D087
:100B8000404210BD30B5041E71F1000404DB4FF08B
:100B90000044404264EB0101141E73F1000405DBC4
:100BA0001C464FF00043524263EB0403994208BFD6
:100BB000904230BD00207047064C074D06E0E068CB
:100BC00040F0010394E8070098471034AC42F6D394
:100BD000FFF7B2FAA8D10008C8D1000870B521F01B
:100BE000004303430CD0C1F30A550024D5EB0405A0
:100BF00064EB0403D617AD1AB34102DB00200146B3
:100C000070BD201841EB025170BD0EB5C10F80EAD6
:100C1000E0700844CA07002140F233438DE80E001B
:100C20000A460B46FFF7B3FE03B000BDB0B504465D
:100C300000688168C90709D0816821F001018160DD
:100C400000F0F8FC21688968C90701D10020B0BD17
:100C5000054602E08068C007F8D000F0EBFC411BBD
:100C600020680329F6D38168C907F3D0A06A40F051
:100C70001000A062E06A40F00100E0620120B0BD17
:100C8000B0B582B004460020019021688A68D2077E
:100C90004FD1886840F00100886040F21000C2F235
:100CA000000000684DF68361C4F21B31A0FB010116
:100CB000880C01900198A0B1019801380190019829
:100CC00078B1019801380190019850B1019801382C
:100CD0000190019828B101980138019001980028ED
:100CE000EAD100F0A7FC21688968C9071CD1054634
:100CF00003E000BF8068C0071AD100F09BFC411BD5
:100D000020680329F6D38168C907F3D1A06A40F0AF
:100D10001000A062E06A40F00100E062002084F868
:100D20002400012002B0B0BD002002B0B0BD00BF61
:100D3000002002B0B0BD0000FEE7000070470000D8
:100D40007047000070B582B004460020019094F80E
:100D50002400012804D10225284602B070BD00BF3E
:100D6000012084F824002046FFF760FF0546002894
:100D70006ED1A06A41F2021188430230A06240F2B3
:100D80001000C2F200000668022000F00FFFB6FB60
:100D9000F0F0400001900198A8B100BF019801381F
:100DA0000190019878B1019801380190019850B1F3
:100DB000019801380190019828B1019801380190FB
:100DC00001980028EAD12046FFF75AFF2068816881
:100DD00041F00801816000F02DFC216851F8082FD6
:100DE000120711D5064602E0816809070AD500F00E
:100DF00021FC811B20680B29F6D381680907F3D5F4
:100E00001EE000BF00F10801086840F0040008601F
:100E100000F010FC21688968490703D401206FF0B5
:100E2000030111E0064602E080684007F6D500F0B5
:100E300001FC811B20680B29F6D381684907F3D593
:100E4000012510206FF01201A26A11400843A06230
:100E5000002084F82400284602B070BDB0B581B0EF
:100E60000022009290F82420012A03D10221084692
:100E700001B0B0BD4B680122062B80F8242023D896
:100E8000D0F800C003EB830362465D1F1F2352F8B6
:100E900034EF03FA05F40B682EEA040E03FA05F4A6
:100EA00044EA0E05092B15602DD8DCF8102003EB61
:100EB0004303072589689D40AA4399401143CCF814
:100EC000101000213FE000BFD0F800C00C2B62469C
:100ED00006D852F830EF03EB8303A3F1230405E0B7
:100EE00052F82CEF03EB8303A3F141041F2303FA11
:100EF00004F50B682EEA050E03FA04F444EA0E0525
:100F0000092B1560D1D903EB4305DCF80C201E3DFD
:100F100007248968AC40A243A940114323F0010291
:100F2000102ACCF80C100DD142F20841C4F2010194
:100F3000A1F1080294450DD0816A41F0200181623F
:100F4000012100E00021002280F82420084601B0A1
:100F5000B0BD00BF0A68120230D40A68102B42F4F8
:100F600000020A602CD140F21001C2F200010968AF
:100F70004DF68362C4F21B32A1FB0212910C01EB0D
:100F80008101490000910099E1B100990139009176
:100F90000099C9B10099013900910099B1B1009946
:100FA00001390091009999B1009901390091009996
:100FB00000294FF00001E8D1C5E700BF0021C2E7DA
:100FC0000021C0E70021BEE70021BCE70021BAE70D
:100FD0000021B8E70068C06C70470000002804BF1B
:100FE0000120704770B50646044656F8280F28B110
:100FF00021688868C0070CD115E000BF0020E062BE
:1010000084F82400204600F0A7F821688868C0070B
:1010100009D0886820F00100886000F00BFB21688F
:101020008A68D20730D13068C00644D4A06A41F241
:10103000021290430230A062E36981F0804080F4A4
:101040009E3083F44022104308BF4FF40023D4E9BC
:10105000010243EA000C531EB3FA83F35D09134601
:10106000B2F5807F18BF2B02207D257B01284CEA3A
:10107000450030D135B3A56A45F02005A562E56A83
:1010800045F00105E56226E0054602E08868C007F4
:10109000C9D000F0CFFA401B21680328F6D3886836
:1010A000C007F3D0A06A40F01000A062E06A40F0F0
:1010B0000100E062A06A306840F010010120316058
:1010C00070BD00BFD4F818C04EF60005CFF6FF750E
:1010D00005EB4C352B434D68B2F5807F25F469450F
:1010E00043EA05034B608B684FF2FD75CFF6E1755F
:1010F00003EA050343EA00038B6001D0012A07D10C
:1011000022690023CFF6F07303EB025201E000BF27
:101110000022CB6A23F470031A43CA62896840F63E
:10112000FE62CFF61F721140814207D10020E062BB
:10113000A16A012262F30101316070BDA06A40F032
:10114000100020F00200A06254F82C0F40F00101C2
:1011500001202646316070BD80B586B0014640F65C
:101160000000C4F20100096800F5E05291424FF01E
:101170000001CDE9041101D006B080BD41F2180193
:10118000C4F202010A6842F400720A600A6802F4BA
:1011900000720192019A0A6842F004020A6009682A
:1011A00001F00401019101990221029103210391AF
:1011B00002A900F035F906B080BD000010B5044664
:1011C00090F82400012804BF022010BD012084F8FB
:1011D00024002046FFF754FD20B1002184F824109C
:1011E00010BD00BF42F2044C2068A16AC4F2010C99
:1011F00040F2013291430CF57F7201F5807190420B
:10120000A16233D0A16A21F48011A162416849052D
:1012100004D5A16A012363F30D31A162A16A002301
:10122000C9044FF0000144BFE16A21F00601E16208
:101230006FF0020184F824300160816801F46021BC
:10124000B1F5602F06D190420AD1DCF8001011F4FC
:10125000702F05D0816841F480118160002010BD9D
:10126000816841F4A0018160002010BDDCF800100D
:1012700011F4702FC6D0A16A41F48011A162DCF88C
:1012800000104905C5D4C9E7014690F8210002289D
:1012900016D10868D1E90FC3026822F00E0202607D
:1012A000026822F001020260012000FA03F2CCF889
:1012B000042081F821000020002281F820207047BE
:1012C000042088630120002281F82020704700005C
:1012D00080B590F82110022928D1026840F2040C50
:1012E0001368C4F2020C23F00E03136013680CF1B0
:1012F0007C018A4223F0010111601BD940F20841B0
:10130000C4F202018A4249D040F21C41C4F20201F7
:101310008A4247D040F23041C4F202018A4245D1AC
:101320004FF48073CCF800345DE000BF042181638A
:10133000012080BD4321C4F202018A420EDD6B21EF
:10134000C4F202018A421BDC4421C4F202018A4237
:101350003CD05821C4F202018A4233E00821C4F291
:1013600002018A4236D01C21C4F202018A4237D0DF
:101370003021C4F202018A4224D14FF4807230E05D
:101380006C21C4F202018A4226D08021C4F20201FB
:101390008A4217D14FF0807223E000BF0123CCF8BE
:1013A000003420E01023CCF800341CE00CF58861F8
:1013B0004FF480338A4208BF4FF48053CCF8003496
:1013C00011E000BF4FF480320BE000BF4FF48052B9
:1013D00007E000BF012204E04FF4801201E000BFEB
:1013E0001022CCF80020416B4FF48072028401B1CE
:1013F0008847002080BD0000B0B5044600F01AF90F
:10140000054640F20800C2F200000078611C18BFD7
:10141000044400BF00F00EF9401BA042FAD3B0BD57
:101420002DE9F04F82B0D1F800C0BCF1000F00F000
:10143000F180A0F1804241F60045A2F58432C4F269
:10144000010540F2004E4FEAB2240627A842C4F23A
:10145000010E08BF0527052C4FF000044FF00108CE
:101460004FF00F034FF0000A4FF0000B38BF4FEA68
:10147000B22700970AE000BFD1F800C00AF1010AC4
:101480003CFA0AF204F1040400F0C48008FA0AF9F4
:101490001CEA090FF0D04E684FF6FF72C1F210023D
:1014A000964211DC122E55D8DFE806F0340A444883
:1014B000545454545454545454545454544C50004C
:1014C000D1F80CB046E000BF4FF6FF72C1F2210226
:1014D00096420FDC0022C1F2110296421AD000227D
:1014E000C1F21202964215D00022C1F221029642A8
:1014F00010D02FE00022C1F2220296420AD0002230
:10150000C1F23102964205D00022C1F23202964267
:1015100020D100BF8A684AB1012A14BFC0F81490D4
:10152000C0F810904FF0080B14E000BF4FF0040B10
:1015300010E000BFCA6802F1080B0BE04FF0000B8F
:1015400008E000BFCA6802F1040B03E0CA6802F1B8
:101550000C0B00BF22460646BAF1080F24BF203A02
:101560000436376803FA02F5AF430BFA02F23A4346
:101570003260CA79D2067FF57FAF41F21807C4F214
:1015800002073A684FF6084342F001023A603A68AF
:10159000CFF6FF7302F001020192019A2AF00302D2
:1015A00072440F25D75804F00C06B540AF43009D98
:1015B00005FA06F63743D7504E680F23F203DEF8DC
:1015C000002054BF22EA090242EA0902CEF80020B4
:1015D000DEF80420B70354BF22EA090242EA0902F6
:1015E000CEF80420F702DEF8082054BF22EA0902F0
:1015F00042EA0902B70240F20C47CEF80820C4F2D2
:1016000001073A6854BF22EA090242EA09023A6035
:1016100032E700BF02B0BDE8F08F000080680840EC
:1016200018BF012070470000002A08BF09040161AB
:101630007047000040F24070C2F20000006870473E
:1016400070B5B8B3044690F83D0028B9002084F87E
:101650003C00204600F0C4F9242084F83D002068B6
:10166000016821F001010160016841F4004101605D
:10167000016821F40041016000F086FC48F28041DD
:10168000C0F21E0140F60013D4F804E088424FF087
:101690000001C0F23D0348F2A16C4FF0000238BFD8
:1016A00001219842C0F2010C38BF0122E64538BF43
:1016B0000A460AB1012070BD4DF68361C4F21B31A8
:1016C000A0FB01122168950C4B684FF4967623F02D
:1016D0003F0343EA9243754344F6D3564B60C1F24D
:1016E00062060B6AA5FB0656B50923F03F03E645E3
:1016F00038BF950C6A1C1A430A62CA6948F2A06690
:101700004CF6FF73C0F20106B64522EA03020BD87D
:1017100001384FEA4E03B0FBF3F001306FF31F3096
:10172000042898BF04201EE0A368013863B1192380
:101730000EFB03F3B0FBF3F001306FF31F3078B111
:1017400000F5804008E000BF0EEB4E03B0FBF3F065
:1017500001306FF31F3028B100F5004003E000BFF7
:10176000012000E001201043C8610868D4E9072384
:1017700020F0C000104318430860886848F2FF3228
:1017800004F10C0690434CCE18431043A5698860C1
:10179000C86820F0FF0030432843C860086840F064
:1017A0000100086000202021206484F83D1020639F
:1017B00084F83E0070BD00002DE9F04782B01E465F
:1017C00017468A460446FFF735FF94F83D10202956
:1017D0001ED1DDF82890054620688169890713D558
:1017E000FFF728FF401B1A28F6D300202021206392
:1017F00084F83D1084F83E00216C41F02001216402
:1018000084F83C0004E000BF94F83C10012903D1A7
:10181000022002B0BDE8F087012184F83C10016885
:10182000C90703D1016841F001010160016840F27C
:10183000020821F400610160212184F83D1010218B
:1018400084F83E100021216467626685618DC0F2D4
:1018500001082185A8F10211E162E16A11F5803FDA
:1018600018BF012940F09680016841F48071016041
:1018700019F101012DD0B9F1000F23D14169C90738
:1018800031D1FFF7D7FE00202021206384F83D10DE
:1018900084F83E00216C41F020012164216884F825
:1018A0003C000868C00544BF4FF40070206401206C
:1018B00002B0BDE8F08700BFFFF7BCFE401B484503
:1018C000E1D820684169C907F6D00CE04169C90731
:1018D00009D14169C90701BF41695FEAC171416925
:1018E0005FEAC171F2D02169B1F5804F02D10AF0EF
:1018F000FE0110E0062101EADA11F031016108F180
:10190000060120464A462B4601F0E2F80028CED1D7
:1019100020685FFA8AF10161204641464A462B461B
:1019200001F0D6F80028C2D100200190206841695A
:10193000019180690190019806E000BF2046494668
:101940002A4601F065F868BB208DC8B32046494699
:101950002A4601F02BF928BB606A2168024612F87A
:10196000013B0B616262628D013A6285228D571ED6
:1019700027854B693F0418BF13F00403DED043787A
:1019800002300B616062608D01386085901E208599
:10199000D4E700BF08293FF467AF216B12293FF459
:1019A00063AF65E7206C04287FF481AF206801688D
:1019B00041F400710160012002B0BDE8F08700BF72
:1019C0002068016841F400710160202084F83D0026
:1019D000002084F83E0084F83C0002B0BDE8F087A7
:1019E00010B586B045F600010068C4F2000100227F
:1019F0008842049202D006B010BD00BF41F2180424
:101A0000C4F20204206840F008002060206800F062
:101A10000800019001984FF440600290122003905A
:101A20000320059001F5344002A9FFF7F9FC606836
:101A300040F480006060606800F4800001900198CC
:101A400006B010BD40F2080040F24071C2F2000042
:101A5000C2F2000100780A68104408607047000074
:101A600080B542F20000C4F20200016841F01001AA
:101A70000160032000F08AF8002000F005F800F073
:101A800027F8002080BD000070B540F20806C2F2C1
:101A9000000640F210013278C2F200014FF47A736E
:101AA0000968B3FBF2F20446B1FBF2F1084600F01C
:101AB00099FC0F2C4FF0010508D838B94FF0FF30D2
:101AC00021460022002500F035F87460284670BDDC
:101AD00082B041F21800C4F202000168022241F013
:101AE00001010160016801F0010101910199416862
:101AF00041F080514160406800F0805000900098B3
:101B00000420C4F20100016862F31A61016002B0AE
:101B100070470000002848BF704700F01F010122F5
:101B200002FA01F14EF200124009CEF2000242F830
:101B30002010704710B54EF60C5CCEF2000CDCF8AD
:101B40000030C3F3022E8EF00704042C28BF0424B7
:101B5000BEF103034FF0FF3E0EFA04F438BF00233A
:101B6000A14399400EFA03F39A4300F00F03043B9C
:101B70001143634409010C3300F16042B0F1FF3FAF
:101B8000C8BF02F56443197010BD00004EF60C5139
:101B9000CEF200010A684FF6FF031A4060F30A22F2
:101BA00042F0806040F0FD700860704780B5411ED3
:101BB0000F294FF0000039D8DFE801F00C2A38086F
:101BC00038383808383838383838383ABDE880403E
:101BD00000F002BA41F20400C4F20200C16940F20E
:101BE00002320A40B2F5817F04BF4FF4004080BD4D
:101BF00001F44071B1F5407F4CD0B1F5007F51D177
:101C0000006A49F64041800701EAE07080BD00BFEC
:101C100000F0CEF941F20401C4F202010968022287
:101C2000C1F3813102EB4101B0FBF1F080BD00BF97
:101C300041F20401C4F202010A6851F8040CC00127
:101C40005CBF002080BDC2F3834017A3185CD203A1
:101C500006D440F60012C0F23D0250430CE000BF33
:101C60000A6815A3C2F340429A5C41F20023C0F215
:101C70007A03B3FBF2F250430968490248BF80BDC2
:101C80004AF6AB214000CAF6AA21A0FB0101480890
:101C900080BD00BF50F8040C4FF22441800301EADC
:101CA000E07080BD002080BD02030405060708091E
:101CB0000A0B0C0D0E0F1010010200002DE9F0416F
:101CC00082B00446007841F21C06C007C4F2020646
:101CD0004AD0306810F0805808D1306840F0805009
:101CE0003060306800F080500190019847F20007A2
:101CF000C4F200073868C00512D4386840F4807018
:101D00003860FFF797FC05463868C00508D4FFF730
:101D100091FC401B6428F7D9032002B0BDE8F08194
:101D2000706810F4407012D0616801F4407188420C
:101D30000DD0706840F24042C4F24222012320F4E8
:101D4000407113600023C007136071602AD170686E
:101D5000616820F440700843B8F1000F706003D14F
:101D6000306820F0805030602068810707D556F831
:101D7000181CA26821F44041114346F8181CC00603
:101D800004D4002002B0BDE8F08100BF56F8180C62
:101D9000616920F48000084346F8180C002002B066
:101DA000BDE8F081FFF746FC054641F2883700BFE9
:101DB00070688007CBD4FFF73DFC401BB8424FF062
:101DC0000300F5D9EBE700002DE9F04381B00028CE
:101DD00000F0858042F20008C4F202080446D8F8F8
:101DE00000000D4600F0070088420CD2D8F8000031
:101DF00020F007002843C8F80000D8F8000000F0E1
:101E00000700A8426BD1206841F204098107C4F29F
:101E1000020917D5410705D5D9F8001041F4E06152
:101E2000C9F80010010705D5D9F8001041F4605138
:101E3000C9F80010D9F80010A26821F0F001114390
:101E4000C9F80010C00741D1D8F8000000F0070021
:101E5000A8420CD9D8F8000020F007002843C8F8A1
:101E60000000D8F8000000F00700A84237D1206831
:101E7000410707D5D9F80010E26821F4E061114369
:101E8000C9F80010000708D5D9F80000216920F42E
:101E9000605040EAC100C9F80000D9F8002002F003
:101EA0000C00082841F20020C0F27A0050D14AF21A
:101EB0008A43C2F38341C0F60003595CD2033BD48A
:101EC00040F60010C0F23D00484341E0606802283F
:101ED0000AD001282AD159F8041C890308D401200A
:101EE00001B0BDE8F08300BF59F8041C8901F6D5A4
:101EF000D9F8001021F003010843C9F80000FFF7EA
:101F000099FB064641F28837D9F80000616800F075
:101F10000C00B0EB810F97D0FFF78CFB801BB84211
:101F2000F2D9032001B0BDE8F08300BF59F8041CCA
:101F30008907D4D5DCE700BFD9F800204AF2704306
:101F4000C2F34042C0F600039A5C4843B0FBF2F093
:101F5000D9F800104AF27242C1F30311C0F6000230
:101F6000515C40F2100220FA01F140F20C00C2F282
:101F700000000068C2F200021160FFF785FD00203A
:101F800001B0BDE8F083000040F2100041F204010E
:101F9000C2F20000C4F20201006809684AF28242FB
:101FA000C1F30221C0F60002515CC8407047000036
:101FB00040F2100041F20401C2F20000C4F202013A
:101FC000006809684AF28242C1F3C221C0F60002E9
:101FD000515CC8407047000041F2040CC4F2020C8E
:101FE000DCF8003003F00C00082841F20020C0F2B9
:101FF0007A0018BF70474AF28A41C3F38342C0F6A1
:1020000000018A5CD90305D440F60010C0F23D00FF
:1020100050437047DCF800104AF27043C1F340416E
:10202000C0F60003595C5043B0FBF1F0704700006C
:102030002DE9F04182B0002868D00446007841F2D2
:102040000006C007C4F2020625D0706800F00C003C
:1020500004281BD0706800F00C00082802D17068BA
:10206000C00313D46068002800F06881B0F5A02F89
:1020700000F07C81B0F5803F00F07C81306820F476
:1020800080303060306820F4802076E13068800352
:1020900001D56068D0B32078800718D5706810F03B
:1020A0000C0F07D0706800F00C0008286ED1706823
:1020B000C0036BD43068800702D52069012825D180
:1020C0003068616920F0F80040EAC1003060207893
:1020D00000071FD42078400732D4E56995B17068B5
:1020E00000F00C00082840F08F80012D0ED07068A1
:1020F000216A00F480328A4208D1616A00F47010CB
:10210000884203D1002002B0BDE8F081012002B076
:10211000BDE8F081A069002862D00020C4F242200E
:102120000121C0F88014FFF785FA0546706A800720
:1021300000F18C80FFF77EFA401B0228F6D92AE1D5
:10214000F06910F0805808D1F06940F08050F061DB
:10215000F06900F080500090009847F20007C4F248
:1021600000073868C00529D4386840F480703860AA
:10217000FFF760FA054600BF3868C0051ED4FFF7B8
:1021800059FA401B6428F7D905E100BF20690028EF
:1021900040F20000C4F2422000F082800121016080
:1021A000FFF748FA054600BF306880073FF588AF63
:1021B000FFF740FA401B0228F6D9ECE0E06800285F
:1021C00000F08080052800F09780012800F09880BA
:1021D000306A20F001003062306A20F0040092E0A2
:1021E0000020C4F242200021C0F88014FFF722FA38
:1021F000054600BF706A80077FF56CAFFFF71AFADB
:10220000401B0228F6D9C6E00027C4F2422700206E
:102210003866FFF70FFA022D05460BD130688001B2
:1022200040F1BE80FFF706FA401B02284FF0030082
:10223000F4D968E7306880017FF564AFFFF7FAF9F9
:10224000401B02284FF00300F4D95CE740F2100075
:10225000C2F20000006844F6D351C1F26201A0FB53
:102260000101480A019000BF00BF0198411E0028EB
:1022700001913FF42FAF00BF0198411E002801914A
:102280003FF428AF00BF0198411E002801913FF4A0
:1022900021AF00BF0198411E00280191E4D119E748
:1022A00000210160FFF7C6F9054600BF30688007CE
:1022B0007FF50DAFFFF7BEF9401B02284FF003007A
:1022C000F4D920E7306A20F001003062306A20F053
:1022D00004003062FFF7AEF9054641F2883700BFCF
:1022E000306A800720D5FFF7A5F9401BB8424FF0B0
:1022F0000300F5D907E700BF306A40F00400306200
:10230000306A40F001003062FFF794F9054641F26F
:10231000883700BF306A800706D4FFF78BF9401B6F
:10232000B842F7D937E000BFB8F1000F7FF4D5AE5F
:10233000F06920F08050F061CFE600BF306820F4F3
:1023400080303060306820F480203060FFF772F910
:10235000054600BF306880037FF59DAEFFF76AF940
:10236000401B64284FF00300F4D9CCE6306840F4F9
:1023700080203060306840F480303060FFF75AF9D8
:10238000054600BF306880033FF585AEFFF752F980
:10239000401B6428F6D9032002B0BDE8F08100BFDD
:1023A000206AB0F5803F05D17168A26821F4003140
:1023B000114371607168626A21F47411104308431B
:1023C000706001203866FFF735F9044630688001F7
:1023D0003FF598AEFFF72EF9001B02284FF00300DF
:1023E000F4D990E6411E0020B0EB116F1CBF012014
:1023F00070474EF21002CEF2000251604EF62351A9
:10240000CEF20001F0230B7007219060116070473D
:102410007047000070470000B0B582B00268054602
:102420001068D168546900F02F03202B01F02003BD
:1024300006D12BB1284602B0BDE8B04000F020BD67
:102440005FEA007C1EBF04F0010E01F4907414EBEF
:102450000E042DD12B6B0840C10617D5012B15D1C9
:102460000020019010680190506801900198506917
:10247000400625D4A88DE98DEB8D002B1CBF401A9A
:102480005FEA004140F0CA8002B0B0BD010645D409
:102490004006F9D5D068202120F04000D0602846C1
:1024A00085F83D1002B0BDE8B04000F0ADBA00BF05
:1024B000C40718BF11F4807442D1440746D44CE0DD
:1024C000A86B01684B689CB2002CDDD0A98D8C42B2
:1024D000DAD2EB858369202B17D0D16821F4807183
:1024E000D160516921F001015161516921F0400130
:1024F0005161202185F83E1000212963D16821F027
:102500001001D160FEF7C0FEA98DE88D081A81B2D6
:10251000284602B0BDE8B040FFF77ABF95F83D000D
:102520002128B1D1A868B0F5805F03D128690028BF
:1025300000F08C80286A411C2962007850608CE091
:102540002C6C44F001042C64440706D5BEF1000F46
:1025500003D02C6C44F002042C64840706D5BEF131
:10256000000F03D02C6C44F004042C64BCF1000F69
:1025700006D553EA0E0303D02B6C43F008032B64FB
:102580002B6C002B3FF480AF0840800603D5284613
:1025900000F076FC2A685069296C00F0400001F0D8
:1025A0000801401832D0D06820F49070D060506993
:1025B00020F001005061286B012803D1D06820F081
:1025C0001000D060202085F83E000020286350696C
:1025D000400615D5506920F040005061A86B78B1D5
:1025E00042F67561C0F600014163FEF771FE0028F6
:1025F0003FF44AAFA86B416B02B0BDE8B04008475A
:10260000284602B0BDE8B040FFF704BF2846FFF7F8
:1026100001FF0020286402B0B0BD00BFD16821F4E2
:102620009071D160516921F001015161202185F83B
:102630003E1000212963D16821F0100381B22846A1
:10264000D36002B0BDE8B040FFF7E2BE286A30F8C0
:10265000021B6FF35F2151602862E88C013801048E
:10266000E8847FF411AFD06820F08000D060D0689B
:1026700040F04000D06002B0B0BD0000002804BFB0
:102680000120704710B5044690F83D0028B900209D
:1026900084F83C00204600F05FF8242084F83D00D8
:1026A0002068D4E90212C36823F40053C3600369AD
:1026B00023F440531A430261D4E904231143C2684E
:1026C000194341F20C639A431143C1604169A26905
:1026D00021F44071114343F60002C4F2010290421A
:1026E000416103D0FFF750FC02E000BFFFF760FC40
:1026F0006268192148439100B0FBF1F048F21F5184
:10270000C5F2EB11A0FB01235A096FF0630302FB32
:102710000300322303EB0010A0FB0101F02303EAC6
:102720005113206803EB0212C1F34311114481607D
:10273000016921F490410161416921F02A0141615F
:10274000C16841F40051C16000202021206484F858
:102750003D1084F83E1010BD70B586B0006844F29C
:102760000041C4F20001002688420596CDE90366C7
:1027700002963FD043F60001C4F20101884266D1BF
:1027800041F21800C4F20200016840F6000441F46E
:10279000804101600168C4F2010401F480410191AB
:1027A0000199016802AD41F0040101600068294609
:1027B00000F00400019001984FF400700290022094
:1027C0000390032005902046FEF72AFE4FF4806018
:1027D00002900020CDE9030020462946FEF720FEA6
:1027E000252000210022FFF7A5F92520FFF792F907
:1027F00006B070BD41F21800C4F20200416840F614
:10280000000441F4003141604168C4F2010401F464
:10281000003101910199016802AD41F004010160AC
:102820000068294600F004000190019804200290FD
:1028300002200390032005902046FEF7F1FD0820BA
:10284000CDE90206204629460496FEF7E9FD06B0CA
:1028500070BD0000704700002DE9F04381B00446D0
:1028600090F83D0020280DD10F4600294FF00100BF
:1028700000F092801646002A00F08E8094F83C000A
:10288000012803D1022001B0BDE8F083012084F8C3
:102890003C004FF0000921201D46C4F8409084F808
:1028A0003D00FEF7C7FEA684E684A1688046B1F528
:1028B000805F25D1206900281CBF38464F463E4620
:1028C000074684F83C90E08C00B3681C20D0002DB3
:1028D00066D120680BE000BF36F8021B00276FF3BB
:1028E0005F214160E18C0139E184E18C81B30168B1
:1028F000090675D5002FEFD017F8011BF1E700BFCF
:10290000002684F83C90E08C0028DED120681FE08F
:10291000206802E00168090609D4016809065FBF62
:1029200001685FEA016101685FEA0161F2D51FB1E8
:1029300017F8011B05E000BF36F8021B00276FF3F4
:102940005F214160E18C0139E184E18C0029E4D10F
:10295000016849061CD4002D42D0691C0ED10168C3
:10296000490615D4016849065CBF01685FEA416108
:102970000ED401684906F2D50AE000BFFEF75AFE00
:10298000A0EB08012068A9422AD800684006F5D5C6
:10299000202084F83D00002001B0BDE8F08300BF96
:1029A000206800BF0168090608D4FEF743FEA0EBCB
:1029B00008012068A942F5D912E000BF17B117F845
:1029C000011B04E036F8021B00276FF35F21416012
:1029D000E18C0139E184E18C0029E3D1B8E700BF43
:1029E000C16821F4D071C160416921F001014161E8
:1029F000202084F83D0084F83E00002084F83C004C
:102A0000032001B0BDE8F08370470000FEE700003E
:102A100070B50368044653F8140F400743D40E46BC
:102A2000F1B1701C30D100BF186840053ED4186861
:102A3000400738D41868400538D41868400732D4A5
:102A40001868400532D4186840072CD4186840052F
:102A50002CD4186840074FF0000048BF70BDE3E772
:102A60001868400522D4FEF7E5FD002020212063F0
:102A700084F83D1084F83E00216C41F0200121646F
:102A800084F83C00012070BD154600BF1868400561
:102A90000CD4FEF7CFFD401BB042E6D8236853F8B4
:102AA000140F4007F2D5002070BD00BF6FF48060A6
:102AB000186000202021206384F83D1084F83E0037
:102AC000216C41F00401216484F83C00012070BDB8
:102AD000F0B581B01D460368044658698FB238408E
:102AE000B84203D1002001B0F0BD00BF16467AB352
:102AF000701C29D15869400540D458693840B84203
:102B0000F0D05869400539D458693840B842E9D006
:102B10005869400532D458693840B842E2D0586903
:102B200040052BD458693840B8424FF00000E1D13D
:102B300039E000BFFEF77EFD401BB0420DD8236890
:102B400058693840B842CDD058694005F2D515E0F3
:102B50005869400512D4FEF76DFD00202021206346
:102B600084F83D1084F83E00216C41F0200121647E
:102B700084F83C00012001B0F0BD00BF186820219E
:102B800040F4007018606FF480605861002020638A
:102B900084F83D1084F83E00216C41F0040121646A
:102BA00084F83C00012001B0F0BD000070B503685E
:102BB000044653F8140F000643D40E46F1B1701CBE
:102BC00030D100BF186840053ED41868000638D4DC
:102BD0001868400538D41868000632D418684005D3
:102BE00032D4186800062CD4186840052CD4186814
:102BF00000064FF0000048BF70BDE3E718684005CD
:102C000022D4FEF717FD00202021206384F83D1018
:102C100084F83E00216C41F02001216484F83C00DE
:102C2000012070BD154600BF186840050CD4FEF7A2
:102C300001FD401BB042E6D8236853F8140F00068C
:102C4000F2D5002070BD00BF6FF4806018600020D6
:102C50002021206384F83D1084F83E00216C41F06F
:102C60000401216484F83C00012070BD10B584B0DB
:102C700040F2D00042F20041C2F20000C4F2010171
:102C800000224FF46023012402730275C361C0E97E
:102C9000001282600461FEF7A1F9002818BFFEF758
:102CA0004FF80520039040F2D000C2F2000001A9C5
:102CB000CDE90144FEF7D2F8002818BFFEF740F82E
:102CC00004B010BD2DE9F04385B04FF0000841F28B
:102CD0001800CDF81080C4F20200016840F60044EC
:102CE00041F0100101600168C4F2010401F010011B
:102CF000009100990168002241F020010160016803
:102D00004FF0B80901F0200100910099016841F0ED
:102D100004010160016801F004010091009901685B
:102D200041F0080101600068B82100F0080000903F
:102D300000982046FEF778FC4FF4005001ADCDE935
:102D40000108012704F5806029460397FEF768FB18
:102D50000220A4F58066039030462946CDE901782B
:102D6000FEF75EFB6020CDE9010830462946039757
:102D7000FEF756FB0320049020462946CDE9019733
:102D80000397FEF74DFB4FF44070CDE90108204654
:102D900029460397FEF744FB05B0BDE8F083000029
:102DA00080B540F2001045F60001C2F20000C4F206
:102DB000000141F6802200234FF4804CC0F206024D
:102DC00080E80E00C0E9033CC0E90533C0E90733E1
:102DD000FEF736FC002808BF80BDBDE88040FDF747
:102DE000AFBF000080B540F2541043F60001C2F2BC
:102DF0000000C4F2010100234FF00C0C4FF4E1324B
:102E000080E80E00C0E90333C0E905C3C361FFF7E2
:102E100035FC002808BF80BDBDE88040FDF790BFAD
:102E200080B540F2981044F20041C2F20000C4F2B2
:102E3000000100234FF00C0C4FF4E13280E80E004B
:102E4000C0E90333C0E905C3C361FFF717FC0028DD
:102E500008BF80BDBDE88040FDF772BFFEE70000FF
:102E6000704700007047000070470000FEF7EABDA1
:102E700070470000406A0021C185C184FFF7CABACB
:102E800081B090F83E10222920D18368B3F5805F8D
:102E900008D10169002941D000F128010A680368BE
:102EA0005B680AE0014651F8282F13B90369002B2B
:102EB000F5D003685B6803F07F0313700A68013282
:102EC0000A60C18D01390A04C18501D001B0704783
:102ED0000168CA6822F02002CA60CA6822F48072BF
:102EE000CA604A6922F001024A61202280F83E202D
:102EF000026B012A1CD100220263CB6823F010036D
:102F0000CB600B68DB0605D500920A680092496821
:102F100000910099818D01B0FFF77ABA0168826A49
:102F200049686FF35F2122F8021B8262C9E700BF84
:102F300001B0FFF78FBC000040F25410C2F2000055
:102F4000FFF76ABAFEE700002DE9F04F81B00546B1
:102F500010468846FDF7D5FB06460C4606F032FBC8
:102F6000FDF7E2FB07463046214606F0F9FFFDF784
:102F7000DBFB29460446FDF77AF9814638462946A7
:102F8000FDF775F9054620464146FDF770F90646FE
:102F900038464146FDF76BF9824603F015F9304695
:102FA0002946FDF75EF94FF08541FDF708F9FDF779
:102FB00070FB074650464946FDF701F983464FF03E
:102FC00084405946FDF74DF9FDF763FB40F2DC18EC
:102FD000C2F2000802464046394603F0D7F82846B8
:102FE0003146FDF7ECF84FF085410746FDF7E7F86D
:102FF000FDF74FFB044648465146FDF732F94FF0C6
:103000008441FDF7DCF8FDF744FB024640462146CB
:1030100003F0BCF828463146FDF723F94FF085410F
:10302000FDF7CDF8FDF735FB044658464FF08441D7
:10303000FDF7C5F8FDF72DFB02464046214603F09B
:10304000A5F84FF085403946FDF70BF9FDF721FB58
:10305000044650464946FDF704F94FF08441FDF718
:10306000AEF8FDF716FB02464046214603F08EF807
:10307000404601B0BDE8F04F03F052BBF0B581B05F
:103080000446FDF73EFB43F23333C3F6D3734FF0F0
:10309000333205460E46FDF7C6FA43F23333074690
:1030A000C3F6E373284631464FF03332FDF7A0FAFA
:1030B000054620462146FDF7DAF8002D08BF2046D8
:1030C000002F08BF204601B0F0BD0000B0B50021C0
:1030D000C4F240010446FDF7CAF82146FDF7C7F8DF
:1030E0002146FDF7C4F8054620462146FDF767F85E
:1030F0002146FDF7BCF801462846FDF7B2F8B0BD01
:1031000010B542F68C61C3F6BA510446FDF746FA93
:1031100090B942F68C61CBF63A512046FDF74FF854
:103120000146FDF7A4F842F68C640021C3F63A5438
:10313000C4F2B01142E000BF4AF2E921C3F68B614C
:103140002046FDF72BFA88B942F68C61CBF63A613E
:103150002046FDF734F80146FDF789F842F68C6405
:103160000021C3F6BA54C4F2301127E04EF6BA017A
:10317000C3F622712046FDF711FA88B94BF62F21CC
:10318000CBF6E8612046FDF71AF80146FDF76FF827
:1031900042F68C640021C3F63A64C4F2B0010DE03B
:1031A0000021CBF680712046FDF709F80146FDF7B6
:1031B0005EF800214FF07E54C4F2F201FDF757F89B
:1031C00001462046FDF74DF810BD000080B50146D0
:1031D000FDF74DF801464FF07E50FDF742F806F03E
:1031E000D3FF01464FF07E50FDF73BF880BD000055
:1031F00010B501460446FDF73AF82146FDF737F8C9
:1032000010BD000070B501464FF07E50FDF729F863
:1032100006464FF07E503146FDF723F84FF08241CD
:10322000044606F07BFB4FF07E51FDF71AF8054689
:1032300030463146FDF71BF80021C4F2C001FDF70E
:1032400016F8FDF75EFA4DF64A0242F2FB13C4F699
:103250001252C4F20903FDF721F9FDF765FA06F0F1
:10326000CFFE01462046FDF702F801462046FCF756
:10327000FEFF01462846FCF7F4FF4FF07E51FCF7B5
:103280009EFF70BD80B50021CBF68071FCF797FFE3
:103290000021C4F22011FCF7EAFFBDE8804006F0EF
:1032A0009DBA0000B0B54FF07C510446FDF776F9A9
:1032B00050BB20462146FCF782FF0021C4F24001AA
:1032C0000446FCF7D4FF01462046FCF7D0FF014638
:1032D0002046FCF7CCFF054620462146FCF76FFF51
:1032E00001462046FCF7C3FF01462846FCF7B9FF1C
:1032F000FDF707FA0023C3F6E0730022FDF7CEF8CE
:10330000FDF712FAB0BD00BF2046FDF7FAF90246FC
:103310000B46FDF71CF802460B4600204FF080419B
:10332000FDF7B6F8FDF700FA0021CCF240010446A3
:10333000FCF79DFF2146FCF79AFF2146FCF797FF1B
:10334000054620462146FCF73AFF2146FCF78FFF51
:103350002946FCF734FFFDF7D4F90023C3F6E073E8
:103360000022FDF79BF80023C3F6F0730022FCF760
:10337000EEFFFDF7D9F9B0BD10B54FF07C51044612
:10338000FDF70CF980B920462146FCF718FFFFF73E
:10339000B7FEFDF7B6F90023C3F6E0730022FDF790
:1033A0007DF8FDF7C1F910BD2046FDF7AAF90246E8
:1033B0000B46FCF7CCFF02460B4600204FF0804145
:1033C000FDF766F8FDF7B0F9FFF79AFEFDF799F9FA
:1033D0000023CBF6E0730022FDF760F80023C3F66C
:1033E000F0730022FCF7B3FFFDF79EF910BD00005B
:1033F00010B54FF07C510446FDF7D0F8F0B92046E7
:103400002146FCF7DCFE0146FCF731FF01464FF098
:103410007E50FCF726FF06F0B7FE01464FF07E50C7
:10342000FCF71FFFFDF76DF90023C3F6E0730022E0
:10343000FDF734F8FDF778F910BD00BF2046FDF721
:1034400060F902460B46FCF782FF02460B4600205D
:103450004FF08041FDF71CF8FDF766F90146FCF7D7
:1034600006FF01464FF07E50FCF7FBFE06F08CFE97
:103470004FF07E51FCF7F5FEFDF743F90023C3F64C
:10348000E0730022FDF70AF80023C3F6F073002270
:10349000FCF75DFFFDF748F910BD000010B54FF0D7
:1034A0007C510446FDF77AF8B0B920462146FCF776
:1034B00086FE01460446FCF7DAFE01462046FCF78C
:1034C000D6FEFDF71EF90023C3F6E0730022FCF7D9
:1034D000E5FFFDF729F910BD2046FDF712F9024678
:1034E0000B46FCF734FF02460B4600204FF08041AC
:1034F000FCF7CEFFFDF718F901460446FCF7B7FECE
:103500002146FCF7B4FEFDF7FCF80023CBF6E07390
:103510000022FCF7C3FF0023C3F6F0730022FCF780
:1035200016FFFDF701F910BD70B54FF07C51044650
:10353000FDF734F800284DD120462146FCF73FFE28
:1035400001464FF07E50FCF78CFE06464FF07E5051
:103550003146FCF786FE4FF08241044606F0DEF964
:103560004FF07E51FCF77DFE054630463146FCF7B4
:103570007EFE0021C4F2C001FCF779FEFDF7C1F820
:103580004DF64A0242F2FB13C4F61252C4F209038A
:10359000FCF784FFFDF7C8F806F032FD014620462F
:1035A000FCF765FE01462046FCF761FE0146284611
:1035B000FCF757FE4FF07E51FCF701FEFDF7A1F836
:1035C0000023C3F6E0730022FCF768FFFDF7ACF8B8
:1035D00070BD00BF2046FDF794F802460B46FCF78D
:1035E000B6FE00224FF04043FCF7B1FEFDF79CF819
:1035F0004FF07E51FCF7E3FD06464FF07E5031461A
:10360000FCF72FFE4FF08241044606F087F9014691
:103610004FF07E50FCF725FE054630463146FCF75C
:1036200026FE0021C4F2C001FCF721FEFDF769F877
:103630004DF64A0242F2FB13C4F61252C4F20903D9
:10364000FCF72CFFFDF770F806F0DAFC0146204687
:10365000FCF70DFE01462046FCF709FE0146284610
:10366000FCF7ADFD4FF07E51FCF7FBFDFDF749F88F
:103670000023C3F6E0730022FCF710FF0023C3F61B
:10368000F0730022FCF763FEFDF74EF870BD0000FA
:1036900010B54FF07C510446FCF780FFD0B92046AE
:1036A0002146FCF78CFD0021CBF68071FCF787FDED
:1036B0000021C4F22011FCF7DAFD06F08FF8FDF7C7
:1036C00020F80023C3F6E0730022FCF7E7FEFDF7C5
:1036D0002BF810BD2046FDF714F802460B46FCF708
:1036E00036FE02460B4600204FF08041FCF7D0FE2C
:1036F000FDF71AF80021CBF68071FCF760FD002180
:10370000C4F22011FCF7B3FD06F068F8FCF7F9FFEE
:103710000023CBF6E0730022FCF7C0FE0023C3F6C3
:10372000F0730022FCF713FEFCF7FEFF10BD000053
:1037300010B54FF07C510446FCF730FF90B920469D
:103740002146FCF73CFD0146FCF791FDFCF7D9FF53
:103750000023C3F6E0730022FCF7A0FEFCF7E4FFB1
:1037600010BD00BF2046FCF7CCFF02460B46FCF71D
:10377000EEFD02460B4600204FF08041FCF788FE2C
:10378000FCF7D2FF0146FCF772FDFCF7BAFF0023FD
:10379000CBF6E0730022FCF781FE0023C3F6F07342
:1037A0000022FCF7D4FDFCF7BFFF10BD10B54FF0B1
:1037B0007C510446FCF7F2FED0B920462146FCF7C6
:1037C000FEFC01460446FCF752FD01462046FCF78C
:1037D0004EFD01462046FCF74AFDFCF792FF002310
:1037E000C3F6E0730022FCF759FEFCF79DFF10BD05
:1037F0002046FCF786FF02460B46FCF7A8FD024672
:103800000B4600204FF08041FCF742FEFCF78CFF96
:1038100001460446FCF72BFD2146FCF728FD214616
:10382000FCF725FDFCF76DFF0023CBF6E0730022CB
:10383000FCF734FE0023C3F6F0730022FCF787FD8B
:10384000FCF772FF10BD000010B54FF07C5104462C
:10385000FCF7A4FEF0B920462146FCF7B0FC014677
:103860000446FCF704FD01462046FCF700FD014636
:103870002046FCF7FCFC01462046FCF7F8FCFCF770
:1038800040FF0023C3F6E0730022FCF707FEFCF7BD
:103890004BFF10BD2046FCF734FF02460B46FCF7F9
:1038A00056FD02460B4600204FF08041FCF7F0FD2C
:1038B000FCF73AFF01460446FCF7D9FC2146FCF729
:1038C000D6FC2146FCF7D3FC2146FCF7D0FCFCF7E4
:1038D00018FF0023CBF6E0730022FCF7DFFD002386
:1038E000C3F6F0730022FCF732FDFCF71DFF10BD9C
:1038F00010B54FF07C510446FCF750FE20BB20462B
:103900002146FCF75CFCFCF7FCFE4DF64A0242F255
:10391000FB13C4F61252C3F6F973FCF7BFFDFCF7B4
:1039200003FF05F09DFE01464FF07E50FCF799FC29
:10393000FCF7E7FE0023C3F6E0730022FCF7AEFDC0
:10394000FCF7F2FE10BD00BF2046FCF7DAFE02468F
:103950000B46FCF7FCFC02460B4600204FF0804172
:10396000FCF796FDFCF7E0FEFCF7CBFE4DF64A02B5
:1039700042F2FB13C4F61252C3F6F973FCF78EFD44
:10398000FCF7D2FE05F06CFE0021CBF68071FCF74F
:1039900016FCFCF7B6FE0023C3F6E0730022FCF72A
:1039A0007DFD0023C3F6F0730022FCF7D0FCFCF78A
:1039B000BBFE10BD80B50146FCF759FC80BD000080
:1039C00010B501460446FCF752FC2146FCF74FFCBB
:1039D0002146FCF74CFC10BD10B501460446FCF72F
:1039E00046FC2146FCF743FC2146FCF740FC2146FF
:1039F000FCF73DFC10BD000080B5FCF782FE4DF6E3
:103A00004A0242F2FB13C4F61252C3F6F973FCF7F2
:103A100045FDFCF789FE05F023FE01464FF07E5080
:103A2000FCF71FFC80BD000070470000B0B50146E8
:103A30004FF07E50FCF715FC0021CCF2400104460B
:103A4000FCF715FC01462046FCF711FC0146204618
:103A5000FCF70DFC054620462146FCF7B0FB01466D
:103A60002046FCF704FC2946FCF7A9FB4FF07E51E9
:103A7000FCF7A5FBB0BD000080B501464FF07E50BD
:103A8000FCF7EFFBFFF73CFB01464FF07E50FCF7E5
:103A9000E8FB80BD80B501464FF07E50FCF7E1FBAE
:103AA0000146FCF7E4FB01464FF07E50FCF7D9FBE2
:103AB00006F06AFB0021CBF68071FCF780FB4FF02B
:103AC0007E51FCF77CFB80BD10B501464FF07E5067
:103AD000FCF7C7FB01460446FCF7C9FB014620463C
:103AE000FCF7C5FB01464FF07E50FCF7BAFB10BD5A
:103AF00070B506464FF07E503146FCF7B2FB4FF0F2
:103B00008241044605F00AFF01464FF07E50FCF763
:103B1000A8FB054630463146FCF7A9FB0021C4F25C
:103B2000C001FCF7A4FBFCF7ECFD4DF64A0242F2A3
:103B3000FB13C4F61252C4F20903FCF7AFFCFCF706
:103B4000F3FD06F05DFA01462046FCF790FB0146C6
:103B50002046FCF78CFB01462846FCF730FB70BD85
:103B600080B50021CCF22011FCF781FB05F036FE78
:103B700001464FF07E50FCF774FB80BD80B50146D6
:103B80004FF07E50FCF76DFB0146FCF770FB0146E1
:103B90004FF07E50FCF765FB80BD000010B501467C
:103BA0004FF07E50FCF75DFB01460446FCF75FFBDF
:103BB00001462046FCF75BFB01462046FCF757FB1D
:103BC00001464FF07E50FCF74CFB10BD10B501468E
:103BD0004FF07E50FCF745FB01460446FCF747FBDF
:103BE00001462046FCF743FB01462046FCF73FFB1D
:103BF00001462046FCF73BFB01464FF07E50FCF7A8
:103C000030FB10BD80B501464FF07E50FCF729FB1C
:103C1000FCF777FD4DF64A0242F2FB13C4F612524E
:103C2000C3F6F973FCF73AFCFCF77EFD05F018FDCE
:103C30000021CBF68071FCF7C2FA4FF07E51FCF701
:103C4000BEFA80BD10B5044601F06EFB032809D012
:103C500002280DD0012829D12046BDE8104001F0EE
:103C600091BA00BF2046BDE8104001F061BA00BF24
:103C7000607D21690001085C0A2809D00C2817D052
:103C80000B2818BF10BD2046BDE8104001F04ABA0D
:103C900000F0C4FE40F27800C2F200004169002248
:103CA000002902701EBF02700120087010BD00BF05
:103CB0002046BDE8104001F08FBA000010B5044660
:103CC00001F032FB032809D002280DD0012818BFCB
:103CD00010BD2046BDE8104001F068BD2046BDE89B
:103CE000104001F027BD00BF94F82100216900EBCE
:103CF000400011F82000082830D80121814011F03F
:103D00000E0F05D111F4C87F06D000F087FE0BE03E
:103D100000F0B2FF08E000BF012101FA00F010F04E
:103D2000600F1BD000F032FF94F82100216900EBF6
:103D3000400211F9223040F27800C2F20000037014
:103D400000EB83035B694BB101EB820191F9001039
:103D5000017000EB81004069012101700120207099
:103D600010BD00002DE9F04F83B0824601F0DCFA6F
:103D700003280BD002280FD0012840F023815046A1
:103D800003B0BDE8F04F01F011BD00BF504603B0D5
:103D9000BDE8F04F01F0CEBC9AF82100DAF810101F
:103DA00000EB400011F82000A0F10B01032980F086
:103DB000F98040F2B800C2F20000018859B340F225
:103DC000BC020021C2F2000213685F5C07F05507D5
:103DD0005F5403884F1C9F421DD213680B445F78C9
:103DE00007F0AA075F7003888F1C9F4213D21368E5
:103DF0000B449F7807F055079F700388CF1C9F42A4
:103E000009D213680B44DF78043107F0AA07DF708A
:103E100003889942D8D340F2780040F2DC1BC2F20A
:103E200000000125C2F2000B03300290584603F057
:103E300047F800BF01F078FA032809D0022800F003
:103E4000AB80012826D0E8074FF00005F2D044E00F
:103E50009AF82100DAF8101000EB400001EB800026
:103E6000D0F8089059F80C5F59F8046CD9F8047030
:103E700030463946FCF7F5F901462846FCF780FB49
:103E8000804628463946FCF79AF9B8F1000F08BF7A
:103E9000304620E09AF82100DAF8101000EB4000DC
:103EA00001EB8000D0F8089059F80C6F59F8087CA5
:103EB000D9F8045038462946FCF781F901463046C6
:103EC000FCF77AFB804630462946FCF7CAF9B8F180
:103ED000000F08BF3846C9F80000584610211022CC
:103EE00060231F27009702F077F95846022102F05D
:103EF000FFFF5846112111225E231D27009702F073
:103F00006BF95846012102F0F3FF58461221242292
:103F10003C230827009702F035FA9AF82100DAF8D6
:103F2000101000EB400001EB80008468D4E90156DA
:103F3000E0682946FCF795F9074630462946FCF724
:103F400090F901463846FCF7C4F90021C4F260211B
:103F5000FCF78DF9FCF79DFB0346584614212622F9
:103F60000427009702F038F92368584616211E22CC
:103F700002F05EFEE068FCF7C4FB029C02460B46C2
:103F8000204612A104F082FA584651212C222346E1
:103F900002F04EFE002549E701208AF8000003B038
:103FA000BDE8F08F0A280DD100F038FD40F278000E
:103FB000C2F2000041690022002902701EBF027097
:103FC0000120087003B0BDE8F08F00BF252E3266D7
:103FD0000000000080B501F0A7F9002808BF80BDEF
:103FE00000F01CFD40F27800C2F20000416900229E
:103FF000002902701EBF02700120087080BD000001
:1040000010B504460CA005F099FF01F08DF90028C9
:1040100008BF10BD204600F00DFC00F0FFFC40F290
:104020007800C2F2000041690022002902701EBF20
:1040300002700120087010BD6375730D0000000050
:1040400010B5044601F070F9032809D002280DD0FC
:10405000012818BF10BD2046BDE8104001F0A6BBE6
:104060002046BDE8104001F065BB00BF94F8211068
:10407000206901EB410110F82120A2F10B03022B72
:104080000AD200EB81008168B1FA81F149098160AF
:104090000120207010BD00BF0A2A0DD100F0BEFC27
:1040A00040F27800C2F2000041690022002902704B
:1040B0001EBF02700120087010BD00002DE9F04FF6
:1040C00091B0044601F030F903280BD002280FD03C
:1040D000012840F0C380204611B0BDE8F04F01F048
:1040E00065BB00BF204611B0BDE8F04F01F022BB18
:1040F00094F82110206901EB410110F821200A2ACF
:1041000000F09E800B2A40F0A98000EB81008268BD
:1041100024200DF11408039400270090404600214C
:104120000023019700F08AFBBDF83000FCF79FFAEE
:104130000146404600F0DCFB089D4FF086402946D2
:10414000FCF78FF84FF07C51FCF791F883464FF065
:1041500085402946FCF785F84FF07C51FCF787F83D
:1041600001462846FCF72BF8044640F2DC10C2F268
:10417000000002F01DF8404600F08CFB00284DD1F5
:104180000027CBF680773D46049400BF05A806467D
:1041900000F0DEFBBDF83200FCF769FA0146584634
:1041A000FCF70DF88146304600F06EFB01462046D4
:1041B000FCF757F80024CBF6807480462846214649
:1041C000FCF708FA00283846214618BF4D46FCF790
:1041D00001FA0028284618BF4746FCF75AFA054658
:1041E0003846FCF756FA07464846FCF752FA82462C
:1041F0004046FCF74EFA064640F2DC10C2F20000E0
:1042000029463A465346009602F008FA05A800F0FF
:1042100041FB049C00284D464746B7D040F2DC10D5
:10422000C2F2000002F04CFE039C00BF01F07CF8DB
:104230000028FBD00120207011B0BDE8F08F00BF36
:1042400000F0ECFB40F27800C2F20000416900226D
:10425000002902701EBF02700120087011B0BDE875
:10426000F08F000080B501F05FF8002808BF80BD26
:1042700000F0D4FB40F27800C2F200004169002255
:10428000002902701EBF02700120087080BD00006E
:1042900010B5044601F048F8032809D002280DD0D3
:1042A000012818BF10BD2046BDE8104001F0C4BE73
:1042B0002046BDE8104001F04DBE00BF204601F091
:1042C00037FF68B900F0AAFB40F27800C2F20000A4
:1042D00041690022002902701EBF0270012008708F
:1042E00010BD000010B540F2DC14C2F200042046FC
:1042F00001F05EFF2046012102F0FAFD0EA32046E8
:1043000002210C2202F094FC0EA3204602211C2262
:1043100002F08EFC0FA3204602212C2202F088FC22
:1043200010A3204602213C2202F082FC2046BDE878
:10433000104002F0C5BD00BF4D4355203A205354F4
:104340004D333200464C415348203A203531324BF0
:10435000420000005352414D203A203235364B4244
:1043600000000000525443205352414D203A203166
:10437000364B42002DE9F04F81B0824601F090FBB0
:1043800040F2DC10C2F2000001F012FF40F27809A6
:10439000C2F2000999F80100002800F0958099F810
:1043A0000200002800F0A1800AF1BC07384600F0A6
:1043B0006BFADAF818603146FBF78BFFFCF769F906
:1043C0000546384600F060FA9AF81410A9426BD9F5
:1043D00007462846FCF74BF901463046FBF747FFF6
:1043E0003946FBF73EFF074605EB450040F2DC1877
:1043F0008400C2F200080CE0DAF8181038460135E3
:10440000FBF7DDFE9AF8141007468D4204F10C0408
:104410004AD2BAF80E00FCF72AF901463846FCF7F2
:10442000BDF8002840D1DAF824109AF82260384606
:10443000FBF7C5FEFCF72DF9DAF81010024621440F
:104440004B684046314602F0F3FBDAF81000015D9C
:104450000B29D1D3204480689AF88810002809F1EC
:1044600001009AF8222008BF09F102000078A1EBB0
:1044700042014AF66226A1EB000B4AF65C20C0F628
:104480000006DAF82410C0F6000008BF06463846D9
:10449000FBF795FEFCF7FDF802461FFA8BF140464C
:1044A000334602F0C5FBA7E7504601F067FA5046D5
:1044B00001F0B8F940F2DC10C2F2000001B0BDE832
:1044C000F04F02F0FDBC00BF40F2DC104AF6622162
:1044D000C2F20000C0F6000102F0B4FC89F801004D
:1044E00099F8020000287FF45FAF40F2DC104AF632
:1044F0005C21C2F20000C0F6000102F0A3FC89F8C2
:10450000020051E7B0B540F2DC14C2F200042046CC
:1045100001F04EFE2046002102F0EAFC4AF6D725C3
:10452000C0F60005204604210C222B4602F080FB39
:104530002046012102F0DCFC2046042118222B46F3
:1045400002F076FB2046022102F0D2FC2046042134
:1045500024222B4602F06CFB2046BDE8B04002F05E
:10456000AFBC000080B503A005F0E8FCBDE88040CA
:1045700000F0DABE6465660D000000002DE9F04F22
:1045800081B0044600F0B8F840F2DC15C2F2000534
:104590004FF00E092846602100221E23CDF800901E
:1045A000002601F019FE607F3B2200F10A01284637
:1045B000032302F045FB607F40F2DC18642804BF4F
:1045C00066770020C2F2000800F10B014046182275
:1045D000222302F035FB607F182200F10C014046D7
:1045E000222302F02DFB607F182200F10D014046CE
:1045F000222302F025FB607F182200F10E014046C5
:10460000222302F01DFB4046022102F071FC40F221
:10461000D006C2F200063046FCF7D0FD3046FCF76B
:10462000D9FCA0F6746140F67462002948BF111AE3
:104630000846FCF713F80021C4F22011FBF749FEED
:104640000021C4F2F011FBF7BAFD06462061657F38
:10465000606905F10B0AFCF71CF800EBD0704FF015
:104660003A0BABEB500730460C35FCF712F800EB79
:10467000D070ABEB500086B2BAB2404651462B46E2
:10468000009601F0CBFF607F3B2200F10C01404619
:10469000032302F0D5FA2069617F6061881C60778E
:1046A0004046602100221E23CDF8009001F094FDC9
:1046B00040460121012602F01BFC2069FCF721F88D
:1046C00040F2C005C2F2000502460B4608A128468A
:1046D00003F0DCFE404660210C222B4602F0A8FAD3
:1046E000404602F0EDFB267001B0BDE8F08F00BF40
:1046F000252E326600000000B0B582B00446007F6F
:1047000000286BD040F2DC150020C2F200052077B3
:10471000284601F04DFDA369284604210C2202F031
:1047200087FA2E204FF0080C009028460421122210
:104730007823CDF804C002F019F92846022102F0CE
:10474000D7FB28460A213A226C2301F065FE284651
:104750000A211822222302F073FA284607211B227D
:1047600001F0BEFF284608211A2201F0B9FF2846B1
:104770000921192201F0B4FF284674213B2201F0DF
:10478000AFFF284673213C2201F0AAFF2846722180
:104790003D2201F0A5FF2846012102F0A9FB40F2CD
:1047A000D005C2F200052846FCF708FD2846FCF7B4
:1047B00011FCA0F6746140F67462002948BF111A1A
:1047C0000846FBF74BFF0021C4F22011FBF781FDE7
:1047D0000021C4F2F011FBF7F2FC606102B0B0BD41
:1047E00044F27D534FF0010CC0F6000380F800C086
:1047F000002918BF0B4644F26551C0F60001002A9B
:1048000018BF1146C0E901314FF481418181002177
:1048100003A2C0E904118261A0F81CC0704700BF68
:104820005265616C2074696D6520616E676C6520EE
:104830003A000000012101777047000010B543F6EF
:104840002924DDE902ECC0F600040170002A18BF3B
:1048500014460022C1F38001C0E90142C0E90323EC
:10486000C0E90522BEF1020F98BF4FF0020EA0F87A
:104870001CE0C0F82220C0F81E2080F826108262BA
:10488000A0F82CC010BD000080B501698069FBF75D
:1048900096FC80BD808CB0FA80F040097047000023
:1048A00010B50446C0E902121046FBF7DAFC60615D
:1048B00020780021E1832162C0F38001820784F81F
:1048C00026100DD40109C20708BF01210007A184E9
:1048D00044BF4800A084FCF7ADFEA06210BD00BF3D
:1048E0004FF6FF70A084FCF7A5FEA06210BD00008B
:1048F000B0B504468569C068FBF761FC2946C4E988
:104900000250FBF7AEFC606120780021E183216258
:10491000C0F38001820784F826100DD40109C20774
:1049200008BF01210007A18444BF4800A084FCF710
:1049300081FEA062B0BD00BF4FF6FF70A084FCF7FF
:1049400079FEA062B0BD00000022828481617047C0
:1049500070B50446808C00285FD0A08D48B1FCF76C
:1049600069FEA16A884258D3FCF764FEA18D084411
:10497000A062E08BA68B013081B2B142E0830DD9F9
:104980002078000702D4012007E000BF94F8260039
:1049900080F0010084F826000220E08380B2B0425B
:1049A00012D14FF07E5094F8261020622078082211
:1049B000002908BF0C22A1588007A16148BF70BD23
:1049C000A08C0138A08470BD0138FBF747FE054676
:1049D000701EFBF743FE01462846FBF77AFC94F86D
:1049E0002610206261B16168E56866698847014602
:1049F0003046FBF73CFC01462846FBF732FC0BE057
:104A0000D4E901156669884701463046FBF72FFC5B
:104A100001462846FBF7D3FBA06170BD10B540F2FC
:104A2000B804C2F20004208840B3002061680A5C28
:104A300002F055020A54811C228889B291421DD28B
:104A40006268535C03F055035354011D228889B2F8
:104A5000914213D26268535C03F055035354811D95
:104A6000228889B2914209D262680830535C80B2D0
:104A700003F05503535421888842D7D340F2DC1009
:104A8000C2F2000002F01CFA2088022828D301207C
:104A900061680A5C02F0AA020A54811C228889B269
:104AA00091421DD26268535C03F0AA035354011D66
:104AB000228889B2914213D26268535C03F0AA0340
:104AC0005354811D228889B2914209D2626808300C
:104AD000535C80B203F0AA03535421888842D7D391
:104AE00040F2DC10C2F2000002F0EAF92088E8B1DE
:104AF00000200021626850548A1C238892B29A4296
:104B000014D2636898540A1D238892B29A420DD237
:104B1000636898548A1D238892B29A4206D26368C9
:104B200008319854228889B29142E3D340F2DC10D4
:104B3000C2F2000002F0C4F9208802281ED301212D
:104B4000002000BF626850548A1C238892B29A42A7
:104B500014D2636898540A1D238892B29A420DD2E7
:104B6000636898548A1D238892B29A4206D2636879
:104B700008319854228889B29142E3D340F2DC1084
:104B8000C2F20000BDE8104002F09AB92DE9F047EA
:104B90008EB00F2043F69D3202AC32270090C0F653
:104BA00000022046292100230197FFF747FE2046F7
:104BB00000214FF07E52FFF773FE2046FFF76AFE9A
:104BC00000284ED140F2DC1A40F2000848F21F578C
:104BD00041F6B86640F2000902ACC2F2000AC4F223
:104BE0002018C5F2EB17C3F6F976C3F6F87900BFC3
:104BF0002046FFF7ADFE504601F0DAFA2046FFF7F7
:104C000043FE4146FBF733FB05462046FFF73CFEDB
:104C1000FBF777FD3A463346FBF740FCFBF784FD94
:104C2000024628462946FEF78FF92046FFF72CFE5C
:104C3000FBF767FD3A463346FBF730FC00224B4654
:104C4000FBF72CFCFBF770FD024628462946FEF7D1
:104C50007BF9504602F034F92046FFF71BFE00288E
:104C6000C6D040F2DC10C2F20000012102F040F98F
:104C70000EB0BDE8F08700002DE9F04F8FB01E2088
:104C800043F6292203AC0F270190C0F6000220460C
:104C9000212100230097FFF7D1FD204600214FF08E
:104CA0007E52FFF7FDFD2046FFF7F4FD002840F09F
:104CB000A08049F69A1449F6991648F21F5841F611
:104CC000B86B41F6B86A03ADC9F69914CBF6A9766C
:104CD000C5F2EB18CCF2190BC4F2090A2846FFF70B
:104CE00037FE40F2DC10C2F2000001F061FA4FF032
:104CF000000900BF0998FBF704FD07465FFA89F039
:104D00000D460290FBF7B8FC22463346FBF7C6FB84
:104D100002460B4638462946FBF719FBFBF704FD14
:104D200000210546FBF72CFC074628464FF07E5134
:104D3000FBF745FA002F08BF2846FEF7AFFBFBF74D
:104D4000E0FC42465B46FBF7A9FB42465346FBF7B5
:104D5000FEFAFBF7E9FCFBF7D4FC0746454688461C
:104D600005F0FEF800230022C4F23003FBF796FBA7
:104D700000230022C4F25003FBF7E9FAFBF7A2FC80
:104D8000DA468346384600274146C4F23007A84633
:104D900004F018FC00223B460025C4F24005FBF756
:104DA0007DFB00222B46FBF7D2FAFBF78BFC024679
:104DB00040F2DC10C2F200005946D34641F6B86A10
:104DC00001230F27C4F2090A009701F02FFA029875
:104DD00009F1010905288DD340F2DC10C2F2000070
:104DE00002F06EF803AD2846FFF754FD00283FF4AB
:104DF00075AF0FB0BDE8F08F10B582B0019040F2F2
:104E0000541001ACC2F2000021460122FF23FDF73D
:104E100023FD40F29810C2F2000021460122FF2338
:104E2000FDF71AFD019802B010BD0000B0B50446B0
:104E300000F07AFA00284ED0032817D001283DD17F
:104E4000607D002847D00138607594F87C0004F13B
:104E50004C054042FBF702FC01462846FFF748FD9F
:104E6000A16904F11C0081F0004114E0217D607D06
:104E700001398142D8BFB0BD0130607594F87C0023
:104E800004F14C05FBF7F3FB01462846FFF730FD24
:104E9000A16904F11C00FFF72BFD04F18000002143
:104EA0000025FFF751FD04F1B0000021FFF74CFD94
:104EB000012084F87D502070B0BD00BF2069617D65
:104EC00000EB0110416804A003F0D0FA032084F83D
:104ED0007D0001202070B0BD25730D0A0000000088
:104EE0002DE9F04F83B000F11C0604463046FFF771
:104EF0002FFD04F14C052846FFF72AFD04F1800739
:104F00003846FFF725FD04F1B0084046FFF720FDC5
:104F100094F87D0008B33846FFF7BCFCE8B194F87C
:104F20007C00002194F87DB04FEAD009A1EBD000BD
:104F3000FBF794FB82464846FBF799FB02465FEA83
:104F4000CB7038464FF0000118BF5246FFF7A8FC5F
:104F500094F87D00013884F87D003046FFF79AFC14
:104F600070B12846FFF796FC50B13846FFF792FC27
:104F700030B14046FFF78EFC80F0010001E000BF39
:104F80000120207040F2DC10C2F2000001F010F9A4
:104F90002846FFF779FC94F87C6007463046FBF71B
:104FA00066FB01463846FBF794F9FBF772FB0028D5
:104FB00018BF01385FFA80FA2846FFF765FC217DAB
:104FC0008A4580F0A58005460AFB06F0FBF746FB04
:104FD0002946FBF746F9FBF75CFB81464FEA0A10CE
:104FE00040F2DC1B00F10808C2F2000B56E000BFE3
:104FF000E08994F87C1006F12E0C401A216900EB30
:10500000D07001EB0802537811F808105668052299
:1050100002EB5000009182B21FFA8CF158460196C3
:1050200001F048FEA389E689584600213022009607
:1050300001F050FF2069A689404450F8041C5846EE
:1050400001F000FF301A616B00EBD077002025697A
:10505000C4F27820FBF705F90646A8F10800FBF733
:10506000FDFA01463046FBF7AAF8FBF712FB0246B1
:1050700005EB080050F8043CC7F34F01584601F017
:10508000D7FD584601F0B6FF94F87C00217D0AF167
:10509000010A81448A4508F1100839D2A0894FFAE3
:1050A00089F6864234DA607D8245A1D1D4F8980031
:1050B0000021C4F23821FBF782F85D468346304672
:1050C000FBF7CCFA01465846FBF779F8FBF7E1FA13
:1050D0008346E08994F87C10D4F8C860401A00EB4D
:1050E000D0704010FBF7BAFA01463046FBF767F87C
:1050F000FBF7CFFA216901EB080211F80810537889
:1051000056680246009128465946AB4687E700BFDD
:1051100040F2DC10C2F2000003B0BDE8F04F01F035
:10512000CFBE0000032180F87D100121017070477F
:10513000B0B5017D0446407D01398142D8BFB0BD84
:105140000130607594F87C0004F14C05FBF78FFA90
:1051500001462846FFF7CCFBA16904F11C00FFF7CC
:10516000C7FB04F1800000210025FFF7EDFB04F1EF
:10517000B0000021FFF7E8FB012084F87D5020708B
:10518000B0BD0000B0B50446407D002808BFB0BDEA
:105190000138607594F87C0004F14C054042FBF73F
:1051A0005DFA01462846FFF7A3FBA16904F11C0044
:1051B00081F00041FFF79CFB04F1800000210025F5
:1051C000FFF7C2FB04F1B0000021FFF7BDFB012097
:1051D00084F87D502070B0BDB0B5044600F1B00534
:1051E00090F87C000021A1EBD000FBF737FA0246D3
:1051F00028460021FFF754FB01202070B0BD0000BD
:10520000F0B5BBB0002A04465ED001268DF80C60D4
:1052100044F6E166C0F600064098002B18BF1E4613
:1052200044F62D63C0F600030496002818BF034619
:105230008020C0F24000CDE906018DF820204FF01B
:10524000834003AD43F6292205930026099005F11A
:105250001C000627C0F60002002100238DF8216003
:1052600000970196FFF7EAFA43F6C92205F14C00D0
:10527000C0F600020021002300970196FFF7DEFA36
:10528000302043F2F132ADF8880005F180000427A8
:10529000C0F600020821002300970196FFF7CEFA1E
:1052A00043F67D3205F1B000C0F60002292100234B
:1052B00000970196FFF7C2FA20462946E022FAF746
:1052C00053FF3BB0F0BD00BF2046E021FAF765FF79
:1052D0003BB0F0BDB0B540F60044C4F20104204636
:1052E0004FF48071FCF79AF9B0FA80F040F2B00503
:1052F0004009C2F20005A870687004F580604FF4A0
:105300000051FCF78BF9B0FA80F040092871E87081
:1053100020464FF40071FCF781F9B0FA80F04009A3
:10532000A8716871B0BD000070B582B040F600464B
:10533000C4F2010630464FF48071FCF76FF940F279
:10534000B005C2F20005B0FA80F0A9784409A14284
:105350006C7015D04AF633404AF659424AF6624319
:10536000C0F60000C0F60002C0F600031E21AC70BB
:10537000009403F07BF8687810B101245CE000BF72
:1053800006F580604FF40051FCF748F9B0FA80F060
:1053900029794409A142EC7014D04AF633404AF608
:1053A00059424AF66243C0F60000C0F60002C0F659
:1053B00000031E212C71009403F058F8E87808B11E
:1053C000022439E030464FF40071FCF727F9B0FAB7
:1053D00080F0A9794609B1426E7115D04AF6334082
:1053E0004AF659424AF66243C0F60000C0F600028F
:1053F000C0F600031E21AE71009603F037F86879FD
:1054000010B1032418E000BF287A0024EC71A0B189
:105410004AF633404AF659424AF66243C0F6000063
:10542000C0F60002C0F600031E212C72009403F0A7
:105430001DF8E87908B104242C70204602B070BD34
:10544000ADF5A16DFCF70CFB4FF4FA70FBF7D4FF40
:105450004FF48030CDF80804CDF824044FF4E01068
:105460000DF2044800264FF001090224CDF828046B
:105470004046CDF81C64CDF81864CDF81464CDF81E
:1054800010648F96CDE98D66CDE98B66CDE9CA664D
:10549000CDE9C866CDE9C666CDF80494CDF80C64B4
:1054A000CDF81494CDF82044FCF7C2FD0F208BA951
:1054B00051C14FF480600DF50B7ACDE98E06504650
:1054C0000221FCF781FC4FF400400DF5467BC890AB
:1054D0005846C694FCF7F2FBFDF7F4FBFDF782FC9F
:1054E000FDF75EFCFDF79CFCFDF7C0FB40F2D00031
:1054F000C2F20000FBF726FCFFF7ECFE02F000FA18
:1055000062A081684068CDF804156049CDF80005B7
:1055100061A0CDF8FC148168406840F27807CDF8AE
:10552000F404C2F200070DF2FC40CDF8F8145A4919
:1055300078620DF59E60386343F6BD40CDF8F014F7
:10554000C0F600004AF268610190C0F600014046D2
:1055500009220423009600F0D3FA43F66550C0F602
:1055600000004AF2D4610190C0F6000158460422BE
:105570000423009600F0C4FA44F2BD00C0F6000017
:105580004AF29C410190C0F60001504621220523B9
:10559000009600F0B5FA44F2753044F24104C0F6CA
:1055A000000040F2500150ADC0F600040090C2F27D
:1055B0000001284603220323019400F0A1FAFD61B3
:1055C00043F645454AF2286118ACC0F60005C0F61E
:1055D0000001204604220023C7F834A0C7E9058B48
:1055E0000095FFF70DFE3C6244F2010210ACC0F6DC
:1055F000000220460021FFF7F3F846F26C40C0F2AB
:1056000020000F9045F22070C7F26F200E9045F6F3
:105610004120C7F661200DF134080D904046BC6270
:10562000FAF7C6FD44F2912202ADC4B2C0F6000200
:10563000284600214346009400F08EFB7869FD6205
:1056400007F1140517A400283E701CBF3E7080F8B7
:10565000009000BF97F9000055F820008168884746
:1056600097F9000055F8200000780028F2D0204675
:1056700004F064FC97F9000055F82000067097F9D3
:10568000000055F8200041688847E3E7010000006A
:10569000054500086542000801000000E5420008D9
:1056A000D53F000872657061696E740D00000000DE
:1056B00010B50446FFF738FE002808BF10BD0328C8
:1056C00006D001280AD12046BDE8104000F06EB88F
:1056D0002046BDE8104000F02DB800BF94F821002E
:1056E000216900EB400001EB8000416802A0BDE8A9
:1056F000104002F0BBBE00BF25730D0A0000000081
:10570000B0B5044600F0CCF940F2DC15C2F2000559
:10571000284600F04DFD204600F0D8F8204600F065
:105720002DF9204600F07EF82846BDE8B04001F093
:10573000C7BB000070B5017D044690F82100013917
:105740008142D8BF70BD627D411C94F82000013AAF
:10575000824284F82110D1BF04F1BC00013084F8EA
:10576000200004F15800A169FFF7C2F8E16904F1D3
:105770008C00FFF7BDF894F82100216900EB400090
:1057800001EB8000416840F2DC10256CC2F20000A1
:1057900004F1280601F056FBFAF769FF024630468D
:1057A0002946FFF77DF80120207070BD70B50446D2
:1057B00090F82100002808BF70BD94F8201001382F
:1057C000002984F821000FBF04F1BC00481E84F8B2
:1057D000200004F15800A16981F00041FFF788F82A
:1057E000E16904F18C0081F00041FFF781F894F841
:1057F0002100216900EB400001EB8000416840F28C
:10580000DC10256CC2F2000004F1280601F01AFB3E
:10581000FAF72DFF024630462946FFF741F80120EE
:10582000207070BD2DE9F04383B040F2DC18C2F265
:10583000000806464046022101F05AFB06F15807CF
:105840003846FFF721F8FAF724FF814606F12800D1
:10585000FFF71AF896F8221004464800FAF7FEFE01
:1058600001462046FAF7ABFCFAF713FFB469064687
:105870003846FFF709F805463846FFF705F8FAF706
:1058800008FFFAF7F4FE01462846FAF7EAFC4FF063
:105890007C51FAF791FE01460028204618BF4FF0D0
:1058A0007E51FAF78CFCFAF7F4FE0127009040468F
:1058B00000214A463346019701F058F8404601213D
:1058C00003B0BDE8F04301F013BB00002DE9F04345
:1058D00081B000F1BC0781463846FEF7D5FFD9F804
:1058E00018603146FAF7F5FCFAF7D3FE054638465C
:1058F000FEF7CAFF99F81410A9423CD9074628467A
:10590000FAF7B5FE01463046FAF7B1FC3946FAF728
:10591000A8FC064605EB4500042140F2DC1801EB2B
:105920008004C2F2000800BFB9F80E00FAF79FFE2B
:1059300001463046FAF732FEE8B9D9F8241099F852
:1059400022703046FAF73BFCFAF7A3FED9F81010A4
:1059500002460B594046394601F06AF9D9F8181049
:1059600030460135FAF72BFC99F8141006468D42A3
:1059700004F10C04D8D301B0BDE8F0832DE9F04761
:10598000824690F88810C38940F2DC10C2F2000011
:10599000002201F055F99AF8140018B340F2DC180F
:1059A0000026C2F2000800259AF88800441E3046FE
:1059B000FAF76FFE0746A1B240463A4600F090FE65
:1059C0009AF888003A46411C404600F089FEDAF811
:1059D0001C103046FAF7F3FB9AF8141001358D428B
:1059E0000646E1D39AF88800BAF80E1040F2DC18A7
:1059F00001384A1EC2F2000881B292B2404600F05D
:105A00006FFE9AF88800BAF80E20411C501E82B230
:105A1000404600F065FE0AF18C06DAF81C7030464C
:105A2000FEF732FF05463046FEF72EFFFAF731FE4D
:105A3000FAF71DFE01462846FAF713FC4FF07C5199
:105A4000FAF7BAFD01460028384618BF4FF07E51DC
:105A5000FAF7B5FB9AF8881005463046A1F101091E
:105A6000FEF712FFFAF715FE07462846FAF711FE71
:105A700005461FFA89F140463A462B4601F0E0F808
:105A80009AF88800441C3046FEF7FEFEFAF701FE45
:105A90000246404621462B46BDE8F04701F0D0B80B
:105AA0002DE9F04100F1280504462846FEF750FF95
:105AB00004F158073846FEF74BFF04F1BC063046A8
:105AC000FEF746FF04F18C084046FEF741FF2846EA
:105AD000FEF7E0FE80B13846FEF7DCFE60B13046EE
:105AE000FEF7D8FE40B14046FEF7D4FE80F001003C
:105AF0002070BDE8F08100BF01202070BDE8F0817A
:105B00002DE9F043BDB0002A804600F08F80164694
:105B100001220D46DDE94410002B08BF01238DF85A
:105B2000082045F20172C0F60002002918BF0A469B
:105B300045F2B161C0F600010392002818BF01468A
:105B40008020C0F24000CDE90505184604918DF88B
:105B50001C608DF81D30FAF78AFD01464FF0854034
:105B6000FAF7B7FB08903046FAF781FD01464FF08F
:105B70008540FAF7AEFB43F6C92709904FF0824003
:105B80000DF10809C0F60007002404260B9009F166
:105B9000280000213A460023ADF828408DF82A60FD
:105BA00000960194FEF74AFE09F1580000213A469A
:105BB000002300960194FEF741FE7E208DF89000B0
:105BC00009F18C0000213A46002300960194FEF76B
:105BD00035FE43F6292209F1BC00C0F6000200217F
:105BE000002300960194FEF729FE696840F2DC105C
:105BF000C2F2000001F026F9FAF739FD08990B9D71
:105C0000129008462946FAF72CFB4FF07C51FAF720
:105C10002EFB01462846FAF7D2FA0B904046494639
:105C2000EC22FAF7A1FA3DB0BDE8F0834046EC2142
:105C3000FAF7B3FA3DB0BDE8F08300000139007E09
:105C4000CAB2824228BF411EC8B27047F0B581B0C7
:105C500040F2706401EB4101C2F2000404EBC105A3
:105C600055F82C2F87B22E4616F8041F2046904771
:105C700004EB80014988B9420AD100BF2A6830701C
:105C8000C1B22046904704EB80014988B942F5D063
:105C900001B0F0BD0131007ECAB2824228BF0021AE
:105CA000C8B27047F0B581B040F2706400EB4000BC
:105CB000C2F2000404EBC00595F83010EA6A04EB68
:105CC0008100468834F821702046904704EB80011B
:105CD000498834F8202085F83000D01B8B1B02B295
:105CE000E9842F85C3F101014FF0FF37EB83AE84C8
:105CF000B2F1FF3FC6BF012700214042AF83698553
:105D000019B207B297FBF1F792FBF1F107FB130011
:105D10002984688401B0F0BDB0F90810B0F90A20F8
:105D20009142A4BF002070478288838903EB020C54
:105D3000C388C289A0F80CC01A4413B2012BC281D7
:105D400006DB028894444288A0F80CC09A1AC281EB
:105D500001310181012070472DE9F04182B0002717
:105D60000446077045F64960C0F60000002918BFD8
:105D7000084645F6FD51C0F60001002A18BF11463D
:105D800040F2DC16C4E901014FF481404AF66E414D
:105D9000C2F20006DDF82080A081C0F60001304686
:105DA0001D46216101F04EF84AF67E412075C0F68D
:105DB000000130466775A16101F044F820774FF487
:105DC0008050B8F1000F256284F82480C4F8257053
:105DD000A4F829000ED028780DF106018DF80600F0
:105DE00040F2DC10C2F200008DF8077001F02AF8D2
:105DF00084F8290002B0BDE8F081000010B5044627
:105E0000FFF792FA032809D002280DD001281AD1F1
:105E10002046BDE8104000F00FB900BF2046BDE8A5
:105E2000104000F097B800BF94F8240094F82510B3
:105E3000814208BF10BD94F8260080F0010084F86C
:105E400026000120207010BD70B582B040F2DC1534
:105E5000C2F200050446284600F0AAF934204FF0AB
:105E6000080C00902846042106227823CDF804C0AF
:105E700000F056FE207D2369C0F1800081B200EB66
:105E8000D130C0F34F012846142200F0D1FE236A1E
:105E900028460A21262200F0CBFEA369284650217D
:105EA000322200F0C5FE94F8240094F825108142B7
:105EB0001ED294F827000C2802D394F8260090BB39
:105EC00040F2DC16C2F200063046022101F010F862
:105ED00094F8280094F8292094F82A5000F10A0137
:105EE000931C30461A22009500F076F914E000BFAA
:105EF00040F2DC15C2F200052846022100F0F8FF4E
:105F0000207F94F82A10031D0126009128464E2177
:105F10002622019600F02AFD40F2DC10C2F20000B9
:105F2000012100F0E5FF94F8260048B194F827001D
:105F30000021182838BF411C012084F82710207048
:105F400040F2DC10C2F2000002B0BDE8704000F088
:105F5000B7BF0000B0B582B0044690F8260098B1F3
:105F6000206A94F82510425C202A3DD05A2A45D058
:105F70007A2A14BF01324122425494F8241094F832
:105F80002500884214D041E094F8242094F825108C
:105F90000023914238BF4B1CD9B20020914284F8B3
:105FA000253009D194F8241094F8250088422DD189
:105FB0000120207002B0B0BD226A555C5054216AA5
:105FC00040F2DC10C2F2000000F03CFF216A94F8BD
:105FD000252084F828008D5494F8241094F8250086
:105FE0008842E5D012E000BF6122425494F82410A8
:105FF00094F825008842DBD008E000BF20224254FC
:1060000094F8241094F825008842D1D0216A085CC5
:106010000DF106018DF8060000208DF8070040F212
:10602000DC10C2F2000000F00DFF84F8290001200E
:10603000207002B0B0BD0000B0B582B0044690F848
:10604000260098B1206A94F82510425C202A23D0BB
:10605000612A2BD0412A14BF013A7A22425494F883
:10606000241094F82500884211D04CE094F82500C3
:1060700030B3411E94F82420C8B2904284F8251011
:106080002AD194F8241094F8250088423BD10120AD
:10609000207002B0B0BD00BF5A22425494F82410C0
:1060A00094F825008842F2D02DE000BF202242540F
:1060B00094F8241094F825008842E8D023E000BF2B
:1060C00094F8240084F8250094F8241094F825000E
:1060D0008842DCD017E000BF216A00220D5C0A5420
:1060E000216A40F2DC10C2F2000000F0ABFE216A2F
:1060F00094F8252084F828008D5494F8241094F8FE
:1061000025008842C3D0216A085C0DF106018DF894
:10611000060000208DF8070040F2DC10C2F20000FB
:1061200000F090FE84F829000120207002B0B0BD7C
:1061300090F8241090F825208A4207D090F8263055
:1061400083F0010380F8263001230370501A18BF32
:106150000120704710B54AF6884147F6516248F26F
:106160002D33C0F60001C0F60002C0F6000304465D
:1061700000F070FF204601F013FE2046002101F0E0
:106180001BFE2046BDE8104000F012B840F27060DF
:10619000C2F20000037E052B88BF704700EB830C22
:1061A00020F82310591CACF802200176704700003B
:1061B00080B5016890F83820097C406B5143C900D4
:1061C000F9F7EBFF80BD000040F27060C2F2000002
:1061D00000210176704700002DE9F04381B0089C52
:1061E0000E4607465818A11898461FFA81FC83B23C
:1061F000384631461546CDF800C000F02BFE002889
:1062000018BF002C0FD04FF0000900BFAAB23846CB
:1062100031464346CDF8009000F038F9013C2004A7
:1062200005F10105F2D101B0BDE8F0832DE9F04F91
:1062300087B014465F1C9B46CE1AD21A06917B1873
:1062400039198FB2B1B292B29BB20590009700F0AB
:1062500001FE00283DD0109F0598069B00215A465C
:106260000094019700F03EFFBBF1000F31D04FF6D4
:10627000FE70ABEB4B0101304E00CBF1010A4FF049
:1062800001084FF0000900B2CDE90304039A0FFAA8
:106290008AF090426FEAE030834409F101090FFA75
:1062A00088F006F10201C4BF8A440E4600F10208DC
:1062B00000941FFA8BF71FFA89F50598069B109C2E
:1062C00029463A46C244019400F00CFF049CBD42AA
:1062D000DCD307B0BDE8F08F2DE9F04F87B014464E
:1062E0005F1C9B46CE1AD21A06917B1839198FB2C1
:1062F000B1B292B29BB20590009700F0ABFD0028BE
:106300003DD0109F0598069B00215A4600940197A6
:1063100000F04AFFBBF1000F31D04FF6FE70ABEB3F
:106320004B0101304E00CBF1010A4FF001084FF054
:10633000000900B2CDE90304039A0FFA8AF09042F3
:106340006FEAE030834409F101090FFA88F006F1A1
:106350000201C4BF8A440E4600F1020800941FFAED
:106360008BF71FFA89F50598069B109C29463A463B
:10637000C244019400F018FF049CBD42DCD307B076
:10638000BDE8F08F2DE9F04F81B0DDF8288006469A
:1063900003EB010A08EB0200994684B21FFA8AF364
:1063A000304617460D46009400F054FD88B3002493
:1063B000304629463A464B46009400F067F8B8F15B
:1063C000020F26D3A8F1020B5FEA0B4007F1010789
:1063D00017D0BCB21FFA8BF84FF0010C304629469B
:1063E00022464346CDF800C000F050F8AAF1010063
:1063F00081B23046224643460124009400F046F81C
:106400005F440024BAB2304629464B46009400F05F
:106410003DF801B0BDE8F08F70B582B0A3B38C46F3
:1064200090F88C1081B3B0F84C1091422CD8B0F891
:106430004E10914228D9B0F84840B0F84AE003EB3A
:106440000C05AEB2E645214688BF6146AE4208BFA4
:106450006146E6452B4688BFAEF10103AE4208BF58
:106460003346714510D21FFA83FCA4450CD9A142D2
:1064700038BF2146066BF44588BF7346B6685B1A81
:1064800000259BB20095B04702B070BDF0B581B059
:10649000002B79D090F88C50002D75D0069C012BE4
:1064A00006D0032C36D0022C02D1C91A013101E0EA
:1064B000E50731D1B0F84C50954265D8B0F84E5050
:1064C000954261D9B0F84840B0F84AE08DB2EE1874
:1064D000B7B27545A44638BF8C46B74208BF8C4654
:1064E000754533461FFA8CF138BFAEF10103B74250
:1064F00008BF3B46714547D29DB2A54244D9A1424F
:1065000038BFA446754588BF73464FF0000E6146FC
:1065100030E000BFD21A0132B0F848708F4233D851
:10652000B0F84A708F422FD9B0F84C40B0F84EE026
:1065300095B2EE18B7B27545A44638BF9446B74237
:1065400008BF9446754533461FFA8CF238BFAEF14A
:106550000103B74208BF3B46724515D29DB2A54222
:1065600012D9A24238BFA446754588BF73464FF082
:10657000010E6246046BA3EB0C03A4689BB289B2C4
:1065800092B2CDF800E0A04701B0F0BD2DE9F04F88
:1065900083B00F46824690F892905818511C1C46C2
:1065A0008DB283B2504639469046009500F052FCB9
:1065B00080B36CB30C9DB9FA89F040094FF0010B20
:1065C0000026029019E000BF8AF89200B9B2504646
:1065D000424601230096FFF759FF1BF07F004FF45E
:1065E000FF7000EA4B0BA4F1010407F1010704BF9F
:1065F00001354FF0010B20040AD028781BEA000F68
:106600004846E1D19AF8910000280298E5D1DBE7ED
:106610008AF8929003B0BDE8F08F00002DE9F04FAA
:1066200081B00A9FB3EB010A38BFA1EB030ABD1A80
:106630001FFA8AFC38BFD51BAEB26645804609D921
:1066400010463A46A94690420CD807460C461046DA
:10665000194609E0084611461A463B46D146AA4665
:106660009042F2D917461C46A1424FF0FF3B4FF62D
:10667000FF714FF0FF3288BF4FF0010B884208BF17
:10668000501E85B2AF4227D81FFA89F066454FEAFF
:10669000500611D9A1B2BAB2404600F021F8A6EBDB
:1066A0000A0630B201370028B8B244BF5C444E44F9
:1066B000A842EFD910E000BFB9B2A2B2404600F044
:1066C0000FF8A6EB0A0630B201370028B8B244BF73
:1066D0005C444E44A842EFD901B0BDE8F08F000001
:1066E00080B582B0B0F84C30934217D8B0F84E3035
:1066F000934213D9B0F848308B420FD8B0F84A30E3
:106700008B420BD990F88C3043B1036B4FF0000EE5
:10671000D3F808C00123CDF800E0E04702B080BD07
:106720002DE9F041804640F2706745F69540C2F28F
:106730000007C0F60000786445F63D40C0F6000052
:10674000F862387E7A880026022887F830600DD3F8
:10675000411E0238032801F0030C09D20121002652
:106760001346BCF1000F47D17BE000BF134678E031
:1067700021F0030E00210026134600BF07EB810421
:10678000B4F906001DB2854215B2B8BF0346854272
:10679000C2BF4E1C87F830600246B4F90A001BB233
:1067A000834215B2B8BF03468542C2BF8E1C87F82C
:1067B00030600246B4F90E001BB2834215B2B8BF76
:1067C00003468542C2BFCE1C87F830600246B4F94A
:1067D00012001BB2834214B2B8BF0346844201F1D7
:1067E0000401C2BF87F830100E4602468E45C5D15F
:1067F0000131BCF1000F34D007EB8100B0F9020089
:106800001DB2854215B2B8BF034685421BB2C2BF56
:1068100087F830100E460246BCF1010F21D04D1C06
:1068200007EB8500B0F9020014B28342B8BF0346FB
:1068300084421BB2C2BF87F830502E460246BCF1DC
:10684000020F0ED0881C07EB8001B1F9021015B2BF
:106850008B42B8BF0B468D4203DD87F830000646F9
:106860000A46981A010478837AD015B22846012185
:1068700087F848600124FFF7E9F928460021002540
:10688000FFF7E4F997F8300097F8481037F8200040
:1068900037F821107C76884264D1788B441E20041E
:1068A0007C8308BFBDE8F0810020FFF7FBF90120E1
:1068B000FFF7F8F9787E38B107F11C00FFF72CFAE2
:1068C00007F13400FFF728FA07F11C0507F1340639
:1068D000B7F93C00002830D4B8F8461082B28A429A
:1068E0002BD2B7F92810B7F9400081420EDA002800
:1068F00023D4B8F8443099421FDA21EAE171984272
:10690000B8BF0346581A83B289B20EE0002914D4E6
:10691000B8F84430984210DA002848BF0021994264
:10692000A8BF1946091A8BB281B24046FFF774FD21
:1069300003E000BF0020FFF7B5F92846FFF7ECF9A8
:106940000028F7D003E000BF0120FFF7ABF9304685
:10695000FFF7E2F90028F7D0601E04B2002CB7DC84
:10696000BDE8F0817C8B7D769EE700002DE9F04F3D
:1069700089B00646129803EB010900EB020A1FFAE0
:1069800089F598461FFA8AFB30462B4617460C4677
:10699000CDF800B000F05EFA002800F0BE80069549
:1069A000139D07942A19E919E843CDF820801FFAAE
:1069B00082F88CB2CDF810B009EB000B0AEB00099D
:1069C00092464FF0020C05913046414622462B4636
:1069D000CDF800C0FFF780FC1FFA8BFB4FF0010CD5
:1069E0003046594622462B46CDF800C0FFF774FCCE
:1069F0001FFA89F44FF0040C3046414622462B46DC
:106A0000CDF800C0FFF768FC4FF0080C304659463F
:106A1000DDF820B022462B46CDF800C0FFF75CFC25
:106A2000ABEB0500401B81B2032951D30AF10101F0
:106A3000023805F1010A0394019008440AEB0702A9
:106A40008CB295B283B2304621463A461FFA8AF894
:106A50000293009500F0FEF9D04514D198B1019849
:106A60004FF0000B1FFA80F8554600BFBAB230460F
:106A700021464346CDF800B0FFF708FD013D28044C
:106A800007F10107F2D1DDE90232049F30462146C9
:106A9000009700F0DFF9DDF820B0139D5FEA0A41AE
:106AA00018BF002814D001984FF0000887B200BF2B
:106AB0001FFA89F2304621463B46CDF80080FFF7A9
:106AC000E5FCAAF1010A5FEA0A4009F10109EFD1E8
:106AD0001298DDE90637401B401B81B203291CD305
:106AE0000599851E4C1C28191FFA80FCA2B230465D
:106AF0003946CDF800C000F0ADF970B14FF0000894
:106B0000A2B2304639465B46CDF80080FFF7BEFCA6
:106B1000013D280404F10104F2D109B0BDE8F08F71
:106B20002DE9F04F87B08046DDE910075D18841825
:106B30009B460690A6B2ABB2404692468946009666
:106B400000F088F900286FD007EB090207EB0A0173
:106B5000F84305950544039420445C461FFA82FBE4
:106B60008EB204904FF0020C0192029140465946B9
:106B700032463B46CDF800C0FFF758FBADB24FF0B0
:106B8000010C4046294632463B46CDF800C0FFF78F
:106B90004DFB04984FF0040C86B2404659463246ED
:106BA0003B46CDF800C0FFF741FB4FF0080C4046D4
:106BB000294632463B46CDF800C0FFF737FBE01BC5
:106BC000069AC01B81B2D21B0329A2EB070712D37E
:106BD0000199023801318DB286B2404629465246AB
:106BE0003346FFF719FC03982946013882B2404624
:106BF0003346FFF711FCB8B2059C032814D3029862
:106C0000B91E013085B28EB2404649462A46334607
:106C100000F016F8601E81B240462A46334607B09F
:106C2000BDE8F04F00F00CB807B0BDE8F08F0000F1
:106C300047F6016CC0F6000CC0F804C000F03CBB85
:106C400070B582B0A3B3944690F88C2082B3B0F8AC
:106C500048208A422CD8B0F84A208A4228D9B0F875
:106C60004C40B0F84EE003EB0C05AEB2E6452246D0
:106C700088BF6246AE4208BF6246E6452B4688BFE3
:106C8000AEF10103AE4208BF3346724510D21FFA7F
:106C900083FCA4450CD9A24238BF2246066BF445BA
:106CA00088BF7346B6689B1A01259BB20095B04712
:106CB00002B070BD2DE9F04782B00A9C8A46814639
:106CC0005818A11898468FB283B2484651461546C7
:106CD000009700F0BFF8002818BF002C11D008F171
:106CE00007000B9F80B2C608AAB2484651464346E9
:106CF0000097FFF74BFC013C3744200405F10105E8
:106D0000F2D102B0BDE8F087B0B5044600F08AFDCC
:106D100000284FF0000100F0928084F86C1094F885
:106D2000781020660B460278082922BF01302066C1
:106D3000A1F108034FF0FF3C0CFA01F194F879E05F
:106D400022EA010184F86C3084F86A100EEB03012A
:106D50000278CDB2082DDDB222FA05F209D3451C26
:106D60002566C3F108034078DBB298400243083936
:106D700028460CFA0EF39A4394F8923094F87AE08D
:106D800084F86E30B3FA83F35B0984F86C1084F8EE
:106D90006B2084F86F3001EB0E030578DAB2082A15
:106DA000CAB225FA02FC0AD3421C2266C1F10801CC
:106DB0004078C9B288404CEA000C083B1046AEF15E
:106DC00001024FF0FF31D2B24FF0807501FA0EF19F
:106DD00005FA02F294F87B502CEA0101A1EB126152
:106DE000EA18D3B2082B84F8901022BF0130206635
:106DF000083A94F87C1084F86C208B1890F800C046
:106E0000DDB2082DD5B22CFA05FC09D3451C256648
:106E1000C2F108024078D2B290404CEA000C083B24
:106E20004FF0FF3088400139C9B24FF080722CEA30
:106E3000000002FA01F1A0EB116184F86C3048B255
:106E4000B0BD000047F60162C0F60002426000F0EB
:106E5000E5BE000010B5B0F84E40DDF808E0B0F82F
:106E60004CC0944206D972450AD8F44524BF00208C
:106E700010BD05E0F4454FF0000C1ED272451CD940
:106E8000B0F84A20B0F848008A420BD90022994253
:106E90004FF0000188BF0121984238BF012241EA2A
:106EA000020010BD002299424FF0000188BF01216D
:106EB000984238BF012202EA010C604610BD000072
:106EC00010B5044600F07EFE2046BDE8104000F0FC
:106ED0006DBF0000DDF800C0A0F85010016BA0F8F5
:106EE00054204968A0F85230A0F856C00847000066
:106EF000022988BF012180F8921070472DE9F04FD8
:106F000081B00446806D88426AD0A16508780D463C
:106F100084F87400487884F87500887884F87600DE
:106F2000C87884F87700087984F87800487984F87C
:106F30007900887984F87A00C87984F87B00087A27
:106F400084F87C00487A84F87D0091F90A9084F8EE
:106F50007E90C87A84F87F0091F90CA0084684F8E6
:106F600080A091F90D6084F8816091F90E7084F829
:106F7000827091F90FB084F883B091F910801121DB
:106F800084F8848000F0B8FCA4F886002846132119
:106F900000F0B2FCA4F888002846152100F0ACFCF3
:106FA000A4F88A0094F88D0084F88E6084F88F70BD
:106FB000B0B101280AD15E45B8BF84F88EB047450C
:106FC0000EDD84F88F8001B0BDE8F08F0AEB090078
:106FD000B042C8BF84F88E005745C8BF84F88FA060
:106FE00001B0BDE8F08F000047F2A931C0F6000102
:106FF000C16570470021CFF6FF71026B01654165E5
:1070000051680847B0B50446049884F8382040F227
:107010000112A4F8922002680025C4E90B30204632
:10702000A56584F8395084F86D5084F8915084F83F
:107030008D50616390470020CFF6FF70216B206573
:1070400060654968204688472046FFF7CDFF84F8F1
:107050007050B0BDB0B582B09C4613460C4648F2A5
:10706000E11148F26D02C0F60001C0F600020546CB
:10707000CDF800C000F0A6FE0DF1070000F09AFD6B
:107080009DF8072047F63D130146C0F60003284649
:107090000094FFF7B7FF02B0B0BD0000022B07D08D
:1070A000012B09D0002B14BF1044084480B2704754
:1070B000401A80B2704700BF801A80B2704700004B
:1070C000022B07D0012B09D0002B14BF401A10440B
:1070D00080B27047801A80B2704700BF084480B207
:1070E000704700002DE9F04381B0DDE9084598467E
:1070F00016468946E90707462ED1A8073FD4280738
:1071000010D508EB0900A21981B292B23846FFF7F8
:10711000E7FA08EB060004EB090281B292B23846A6
:10712000FFF7DEFA68075CBF01B0BDE8F083A8EBAB
:107130000900A21981B292B23846FFF7D1FAA8EB42
:10714000060004EB090281B292B2384601B0BDE8F4
:10715000F043FFF7C5BA00BF08EB0900A21B81B2DC
:1071600092B23846FFF7BCFA08EB0600A4EB09021E
:1071700081B292B23846FFF7B3FAA807BFD5A8EBA1
:107180000900A21B81B292B23846FFF7A9FAA8EB18
:107190000600A4EB090281B292B23846FFF7A0FACA
:1071A0002807BFD5ADE700002DE9F04381B0DDE948
:1071B0000885994617460E46E907044630D1A807C8
:1071C00046D4280711D509EB06007A1C81B293B288
:1071D00020464246FFF734FD09EB0700721C81B2DE
:1071E00093B220464246FFF72BFD68075CBF01B013
:1071F000BDE8F083A9EB06007A1C81B293B2204669
:107200004246FFF71DFDA9EB0700721C81B293B245
:107210002046424601B0BDE8F043FFF711BD00BF74
:1072200009EB0600A8EB07027B1C81B292B29BB26D
:107230002046FFF705FD09EB0700A8EB0602731CCB
:1072400081B292B29BB22046FFF7FAFCA807B8D5EC
:10725000A9EB0600A8EB07027B1C81B292B29BB29D
:107260002046FFF7EDFCA9EB0700A8EB0602731C14
:1072700081B292B29BB22046FFF7E2FC2807B4D558
:10728000A1E7000010B582B0B0F83EE0DDF810C014
:10729000C46AA2EB0E0292B2CDF800C0A04702B0C1
:1072A00010BD000080B582B0DDF810C0CDF800C080
:1072B000FFF7E8FF02B080BD2DE9F04F81B01F4617
:1072C00092460D4606464FF6FF7801F0CBF87268FD
:1072D00039783046904740455ED0A8F101017C1CCA
:1072E0004FF000091FFA81FB08E000BF814472687B
:1072F00014F8011B3046904740454FD087B25F4598
:10730000F5D096F870205046032A29461DD8DFE8AC
:1073100002F003090F1700BFF16D30468847504453
:10732000294612E0F16D30468847291A0CE000BF6B
:10733000F16D30468847AAEB0000294605E000BF02
:10734000F16D3046884741195046A6F86410A6F8FA
:1073500066003046394600F065FA48B101463046CD
:1073600000F024F896F87010032906D9BEE700BF94
:10737000002096F870100329B8D8DFE801F007095B
:107380000B0300BFAAEB000AB0E700BF0544ADE75E
:107390008244ABE72D1AA9E74FF000091FFA89F0E4
:1073A00001B0BDE8F08F0000002070472DE9F04FDC
:1073B0008BB00022016680F86C2090F878700B7812
:1073C0004FF0FF32082F31BF3D4601310166A7F172
:1073D000080502FA07F723EA070E90F8793080F8DB
:1073E0006C5080F86AE05F190E78FCB2082CECB2A1
:1073F000824626FA04F60AD34C1CCAF86040C5F14E
:1074000008054978EDB2A9400E43083F21469A404D
:107410009AF8923026EA02009AF87A208AF86E30BA
:10742000B3FA83F35B098AF86C708AF86B008AF808
:107430006F30BC180B78E6B2082EFEB223FA06FCB9
:1074400003900BD34E1CCAF86060C7F10807497857
:10745000FFB2B9404CEA010C083C31469AF87B7007
:107460008AF86C403D190E78EBB2082BE3B226FA8D
:1074700003F60AD3C4F108034C1CCAF860404978EB
:10748000DBB299400E43083D21469AF87C008AF809
:107490006C50029028440B78C4B2082CECB24FFA1E
:1074A0008EF923FA04F409D3C5F108034D1CCAF878
:1074B00060504978DBB299400C4308380194B9F127
:1074C000010F8AF86C00C0F299814FF0FF30511E15
:1074D0007B1E00FA02F2C9B24FF08075B840DBB2F1
:1074E0002CEA020205FA01F126EA000005FA03F38C
:1074F000A2EB1161C0EB1362039B9AF87060D21A81
:10750000BAF8640057B24DB229463A463346FFF7FF
:10751000C5FD8046BAF8660029463A463346AAF8C1
:107520006480FFF7CDFD032EAAF86600CDF828A0F1
:107530000CD8DFE806F0030F192300BF03995FFAA8
:1075400089F249B208EB020301441FE043460146B9
:107550001CE000BF039908F1010349B2A3EB010845
:107560005FFA89F1014411E05FFA89F108F1010342
:10757000A3EB010803994AB206E000BF03995FFA42
:1075800089F249B208EB0103411C881A0A9C8FB2A8
:107590001FFA88F182B29BB220460097FFF75AFC8F
:1075A000002800F02B8194F86C30266E00254FF0F7
:1075B000000C2746A4F8685005E000BF039840B2CD
:1075C000834580F21781E14697F876C03278BE464F
:1075D00003EB0C07A846D8B2FDB2082D22FA00F240
:1075E0000AD3751CCEF86050C3F108037078DBB283
:1075F00098400243083F2E469EF877308EF86C7014
:10760000D9193578CCB2082CFCB225FA04F509D387
:10761000741CCEF86040C7F108077078FFB2B8401C
:10762000054308394FF0FF3404FA0CF022EA000A4F
:1076300004FA03F025EA000077464546CC4604905C
:107640008EF86C10CDF814A007E000BFDDF814A090
:10765000C807274684F86C30B0D097F86D00E8B1C1
:1076600097F86A005FFA8AF2A0EB0C01CBB2934262
:107670005DD8AAEB010A5FFA8AF1814205F10105A2
:1076800008D300BFAAEB000A5FFA8AF1814205F134
:107690000105F7D24FF0000C49E000BF002097F839
:1076A0006A10A1EB0C04E8BB0CE000BF97F86D007A
:1076B000AAEB040A01354FF0000C97F86A10A1EB11
:1076C0000C0478BB97F87090E0B20890B7F86600A9
:1076D0004FFA8CF66FB231463A464B465FFA8AFB58
:1076E00009956546FFF7ECFC0A998046B1F86410ED
:1076F0003A46084631460A9F4B46FFF7CFFC014603
:10770000089897F86F208345204638BF504687F881
:107710009220C3B238464246CDF80090FEF7B6FE3E
:10772000AC46099DE0B25FFA8AF18142BED2049B69
:107730000AEB0C0287F8682087F8695097F86A000E
:10774000D9B2A0EB02095FFA89F097F8706009914D
:1077500081420A990890CA46B7F8640054B24FFAB9
:1077600085FBB1F86670984638BF9A460692214666
:107770005A463346FFF792FC079038460A9F214647
:107780005A463346FFF79CFC97F86E10024687F87E
:10779000921007995FFA8AF338460096FEF776FE54
:1077A000DDE90810884205D34346A8EB09030135FB
:1077B0000022C3E706983E6E08EB000C97F86C2099
:1077C00087F868C087F869503178531C3C46DFB2AF
:1077D000082F21FA02F1FFF439AF701C2066C2F1C4
:1077E00008037778DBB207FA03F31943D31F064681
:1077F0002CE700BF97F86E0087F8920002994FF0CF
:10780000FF30019A8840013922EA0000C9B24FF0E6
:10781000807202FA01F1A0EB116040B20BB0BDE83A
:10782000F08F000070B50C46816DFF2C01F117013F
:1078300004D8612C3AD3B0F888003BE0B0F88A0055
:107840000E1835462846002100F056F80644284612
:10785000022100F051F8A04205F10405F2D330886E
:10786000000400BA002841D0A04241D0B078315A7B
:10787000090409BAD1B3A142064439D0B078315ACB
:10788000090409BA91B3A142064431D0B078315A03
:10789000090409BA51B3A142064429D0B178705AFB
:1078A0000E44000400BA0028DED11FE0412C02D3B0
:1078B000B0F8860001444878C0B10A78A24219D0D5
:1078C0000144487890B10A78A24213D00144487824
:1078D00060B10A78A2420DD00144487830B10A78EC
:1078E000A24207D0014448780028E6D1002070BDAC
:1078F000F01C70BD881C70BD405A00BA000C704767
:1079000010B540F2DC14C2F200042046FEF722FC5F
:107910004AF69441C0F600012046FFF7EFFA2068CE
:1079200094F83830007C616B40F2B8025843C2F2E0
:107930000002C0005160108010BD00002DE9F04130
:1079400002F00704012690F89250A640022DB4469A
:1079500028BF4FF0000CB5F1010E18BFB646056800
:1079600022F007062D7C476B7543DDF81880ADB219
:107970003D44B8F1000F294418D013F00306A3F1D9
:10798000010500F0A9800C7844EA0C0484EA0E0793
:10799000541C14F007040F701CD04FEA4C0C4FEA33
:1079A0004E0E012E23D12B4696E000BF13F00302AA
:1079B000A3F1010038D00C78012A44EA0C0484EACF
:1079C0000E0401F8014B25D1034680B20328C0F014
:1079D000EF802DE0478F4FF00108394490F8927006
:1079E000012F98BFC44618BFC646012EDBD00C78C5
:1079F00044EA0C0484EA0E07941C14F007040F7088
:107A000036D04FEA4C0C4FEA4E0E022E3DD1023BCF
:107A100062E000BF0C78022A44EA0C0484EA0E04F7
:107A200001F8014B42D1023B80B20328C0F0C08074
:107A3000081F00BF10F8041F043B41EA0C0181EA53
:107A40000E0101704178827841EA0C0181EA0E0151
:107A5000C478417042EA0C0181EA0E01817044EA67
:107A60000C0181EA0E011A04C170E3D1A0E000BF4D
:107A7000478F4FF00108394490F89270012F98BF5A
:107A8000C44618BFC646022EC1D00C78033244EA61
:107A90000C0484EA0E040C7012F00704A3F1030333
:107AA00010D04FEA4C0C4FEA4E0E15E00A78033B1B
:107AB00042EA0C0282EA0E0201F8012B80B203288E
:107AC00076D3B5E7428F0126114490F89220012A1F
:107AD00098BFB44618BFB646AAB2032A38BFBDE85D
:107AE000F08101220CE000BF458F90F8926029449C
:107AF000012E98BF944618BF9646043B1D0457D0EC
:107B00000D78661C45EA0C0585EA0E0576070D70B2
:107B100004D04FEA4C0C4FEA4E0E08E0458F90F827
:107B200092602944012E98BF944618BF96460D785E
:107B3000A61C45EA0C0585EA0E0576070D7005D0F2
:107B40004FEA4C0C4FEA4E0E09E000BF458F90F80B
:107B500092602944012E98BF944618BF96460D782E
:107B6000E61C45EA0C0585EA0E0576070D7005D082
:107B70004FEA4C0C4FEA4E0E09E000BF458F90F8DB
:107B800092602944012E98BF944618BF96460D78FE
:107B9000043445EA0C0585EA0E0514F007040D705F
:107BA000A2D04FEA4C0C4FEA4E0E043B1D04A7D165
:107BB000BDE8F081014640F270200822C2F20000C8
:107BC0000A7070472DE9F04F81B0834690F83880F5
:107BD00000689BF8396090F81190002501274FF656
:107BE000F87A03E0DBF8000008350137037CDBF8A6
:107BF000340005FB03F101EA0A014418F2B25846C9
:107C00000021009400F0B8F80136F0B2484538BFC2
:107C10004745E7D301B0BDE8F08F00002DE9F047FC
:107C20004FF0000A0D4604464FF6FF7880F86AA030
:107C300000F018FC626829782046904740451FD024
:107C4000A8F101016F1C00254FF0C0098EB24FF062
:107C5000000A06E0626817F8011B2046904740457D
:107C600011D081B2B142F5D02046FFF74DF805465C
:107C7000AA44B9F1C00F08BF94F89090EAE700BF9A
:107C80004FF0C009002594F86A0070B140B2AAEB29
:107C90000501084494F990104FFA89F200EB010AAB
:107CA000012AA4BF5FFA89F082441FFA8AF0BDE876
:107CB000F0870000B0B590F838100568CB008387D6
:107CC00095F810C090F8393095F811E04FEACC0CD7
:107CD000DA005C18A0F83AC0C287744588BFAEEBE2
:107CE00003011944C900A0F84020A0F842106969B6
:107CF0004164B0BD70B582B00446216CB0F8440058
:107D0000E164B4F85010B4F85420B4F85230B4F828
:107D100056500026A4F84A002046A4F84860009572
:107D2000FFF798F820B3B4F84810B4F850000122D7
:107D3000814284F88C2038BFA4F84800B4F84A1077
:107D4000B4F85200814288BFA4F84A00B4F84C103D
:107D5000B4F85400814238BFA4F84C00B4F84E1077
:107D6000B4F85600814288BFA4F84E0002B070BD3E
:107D700084F88C6002B070BD80B582B0DDF810C0B0
:107D8000D0F808E08DF805108DF806208DF8043045
:107D90006B460F210122CDF800C0F04702B080BD34
:107DA000D0F808C00A21002200236047D0F808C09C
:107DB0001021002200236047D0F808C00A460B219A
:107DC0000023604710B54FF47F44DDF808C0A0F8E9
:107DD0002340FF244FF0000E80F8284000F10804F3
:107DE000C0F800E080F826E084E80E50BDE81040BE
:107DF000AFF30080D0F808C00921002200236047BB
:107E000000294FF6FF7008BF70470A2918BF0846BF
:107E100070470000D0F810C01921002200236047ED
:107E200080B582B08DF807100DF10702012100F036
:107E300003F802B080BD0000D0F810C013460A4617
:107E400017216047D0F810C0182100220023604796
:107E5000F0B581B014390C294FF0000037D8DFE8B5
:107E600001F035363607171F3636363636363500CA
:107E700040F23C7CC2F2000C9CF800E0002A18BFE3
:107E8000002B27D10EEB02008CF800001EE000BF93
:107E900040F23C70C2F200000021017016E000BF09
:107EA00040F23C70C2F20000037840F2001040F251
:107EB000BC62FF27C2F20000C2F2000278210097E4
:107EC000F9F77AFC10B1002001B0F0BD012001B03B
:107ED000F0BD00BF40F2BC60C2F2000070449842A6
:107EE00010D9991881420DD9104412F00303A2F160
:107EF000010417D011F8015D012B00F8015D17D1C5
:107F000023462AE012F00301A2F101040CD01D4621
:107F100015F8017B0646012906F8017B10D1304691
:107F2000214634E0134618E01D4611462FE000BFFD
:107F300011F8015D022B00F8015D09D1931E0CE0E0
:107F40005D78022945701DD1911E9D1C02301EE0F6
:107F500011F8013D00F8013DD31E032CFFF492AF50
:107F600004390238CC78043B44708C7800F804491A
:107F70004C7800F8034E11F8044900F8024EF1D194
:107F800080E700BF9E78D11EDD1C86700330032C75
:107F9000FFF478AF2B1F043813F8044F043900F8AE
:107FA000044F5C7844709C788470DC78C470F3D1A2
:107FB00068E70000D0F80CC01921002200236047B8
:107FC000D0F80CC00A46162100236047D0F80CC038
:107FD0000A46152100236047D0F80CC013460A4614
:107FE00017216047F0B581B00E4604460DF1030538
:107FF0000AE000BFA1F11800022817D2E668204667
:1080000000220023B0473E46374617F8011B1729C8
:10801000F0DCA1F11500022814D27278E76820463E
:1080200000238DF80320B8470236EDE7FE2915D16D
:108030007278204629218DF8032000F0F7F90236E6
:10804000E2E700BF172909D1707801218DF80300FC
:1080500020462A46FFF7C0FF0236D5E701B0F0BD43
:10806000D0F80CC01821002200236047F0B581B081
:108070001439052900F2788004461E461546DFE8CB
:1080800001F003152F37596394F824001421FF28B9
:1080900004BF782084F82400D4F810C020462A4673
:1080A000334601B0BDE8F040604700BF40F23D7686
:1080B000C2F200063078012802D12046FFF7AAFE5E
:1080C0002046FFF7BFFE20460021FFF7A9FE20460D
:1080D0002946FFF7A5FE0120307001B0F0BD00BFBA
:1080E00020462946FFF79CFE012001B0F0BD00BFED
:1080F00040F23D77C2F200073878012802D12046CD
:10810000FFF788FE192D0AD320461821324600F0C9
:1081100091F9183DE8B2182806F11806F4D8E9B22A
:108120002046324600F086F900203870012001B068
:10813000F0BD00BF40F23D70C2F2000000210170AE
:10814000012001B0F0BD00BF40F23D75C2F2000554
:108150002878012802D12046FFF75CFE0020287015
:10816000012001B0F0BD00BF002001B0F0BD000053
:1081700010B5D0F814C02821002200230446E0479F
:10818000D4F80CC02046142100220023E0472046EA
:108190004B21012200F04AF920682921027920466A
:1081A00000F044F920464B21002200F03FF92068FE
:1081B00029210279204600F039F920464B2101227D
:1081C00000F034F92068292142792046BDE81040AA
:1081D00000F02CB98A7C016080F8222070470000F2
:1081E000B0B50D46044600F01FF808B10120B0BD3F
:1081F000092D0DD00A2D15D12046FFF7B9FF4DF2FC
:108200005111C0F600012046FFF7ECFE0120B0BD81
:108210004DF29011C0F600012046FFF7DBFF012070
:10822000B0BD00BF0020B0BD2DE9F0410B390446C0
:1082300004294FF0000088BFBDE8F0811546DFE853
:1082400001F00365132335002046002D07BF4DF2D2
:108250008611C0F600014DF28B11C0F60001FFF748
:10826000C1FE0120BDE8F081002D51D04DF24A1130
:10827000C0F600012046FFF7B5FE2068C07C84F8F8
:1082800022000120BDE8F0812046FFF7E9FE2046EC
:108290008121FFF79BFE20462946FFF791FE2046ED
:1082A000FFF788FE0120BDE8F08100BF20461E4692
:1082B000FFF7D6FE707994F8221001EBC007204634
:1082C00040215FFA87F8FFF781FE4FEA181000F1AE
:1082D00010012046FFF77AFE07F00F012046FFF756
:1082E0006FFEB07940F0B0012046FFF769FE00BF95
:1082F00030793268C000C1B22046FFF76DFE013D03
:108300002806F5D12046FFF755FE0120BDE8F08193
:108310004DF24311C0F600012046FFF763FE2068CE
:10832000807C84F822000120BDE8F08180B52939E5
:108330002A2900F27580DFE801F01D236F736C734A
:1083400073737373737373737373737373737373FD
:10835000737373737373737373737373736C6C73FB
:1083600073171717170000BF002180F8271001208E
:1083700080BD00BF0120F9F73FF8012080BD00BF9C
:10838000002000BF00BF00BF00BF00BF00BF00BF94
:1083900000BF00BF00BF00BF00BF00BF00BF00BFE5
:1083A00000BF00BF00BF00BF00BF00BF00BF00BFD5
:1083B00000BF00BF00BF00BF00BF00BF00BF00BFC5
:1083C00000BF00BF00BF00BF00BF00BF00BF00BFB5
:1083D00000BF00BF00BF00BF00BF00BF00BF00BFA5
:1083E00000BF00BF00BF00BF00BF00BF00BF00BF95
:1083F00000BF00BF00BF00BF00BF00BF00BF00BF85
:1084000040F03F0100BFB1F59F7F00F1400000BF89
:10841000B8D9012080BD00BF012000BF80BD00BFD2
:10842000012180F82710012080BD0000D0F814C081
:1084300000236047F0B581B017460D460646FFF7AA
:1084400001FD30464021FFF7EBFC3469304617212F
:108450002A463B46A047304601B0BDE8F040FFF752
:10846000D9BC0000002180F8261070470FB4054BDE
:1084700010B503A9044A029800F008FD10BC5DF88D
:1084800014FB0000F94D0008000000200FB4084B59
:1084900010B504A902AA039800F0F8FC044602A94A
:1084A000002001F08AF8204610BC5DF814FB0000A3
:1084B000BB950008490050EAC12018BF04204A0DAE
:1084C00018BF40F0010040F2FF72B2EB515F08BFED
:1084D00040F00200012808BF052070474100080253
:1084E00018BF04200A0E18BF40F001004FF07F4271
:1084F00032EA010108BF40F00200012808BF052050
:10850000704700002DE9F74F144694B00021C4E9EC
:1085100002111599079121F00045C9498D4206DCE9
:108520001599C4E9000117B00020BDE8F08FC549D6
:10853000DFF814A3A9423CDD0799C44E0029C44FBB
:10854000C44A1599534619DDF7F7A2FF554506D0E1
:10855000C14AC24BF7F79CFFC4E900010AE04FF0A3
:10856000D352BE4BF7F794FF32463B46F7F790FFE6
:10857000C4E9000117B00120BDE8F08FF7F7E7FE6E
:10858000554506D0B44AB54BF7F7E1FEC4E9000102
:108590000AE04FF0D352B14BF7F7D9FE32463B46D3
:1085A000F7F7D5FEC4E9000117B04FF0FF30BDE882
:1085B000F08FAB49A942159978DB21F00041834641
:1085C0008846A84AA84BF7F769FF0022A74BF7F7A0
:1085D000BEFEF8F777F80990F8F717FB06460F4646
:1085E0009C4A5346F7F75AFF43465A46F7F753FF5C
:1085F00080468A46984A994B30463946F7F74EFFEF
:108600002A0D01250B9242465346F7F744FF032DEE
:10861000C4E9000139D00B98C1F30A51401A05EBA7
:1086200045111139814230DA9148C346784400EB54
:108630000510CDF80CA00C90D0E900233046394647
:10864000F7F72CFF02460B46049106905846039913
:10865000F7F71EFF80468A4602460B4658460399A6
:10866000F7F716FF049B069AF7F712FF83460C985C
:1086700003913946D0E902233046F7F70FFF5A46F7
:10868000039BF7F705FF6D1CBDE707980028A2BF05
:10869000099817B0BDE8F08F616881F00041616012
:1086A000099817B04042BDE8F08FFFE7844615985F
:1086B000C1F31301C0F30A50A0F2F5304FEA60187D
:1086C00000F01F06C6F120001390002006900790CE
:1086D00041F4801E05206D4676B1664A08EB000124
:1086E0007A4452F8213002EB8101B3404A68139971
:1086F00022FA01F1194305E05F4908EB00027944D1
:1087000051F82210A1FB0E27A1FB0C131A449A4228
:1087100034BF0123002303EB070A05EB8003D3E9F1
:1087200001B70F448F4234BF0121002193448B4491
:1087300011B1934502D903E0934501D2012100E034
:108740000021C3E901B7514445F82010011EA0F1F2
:108750000100C1DC0298059F00F10050800F1290CB
:108760000298DDE903568000F8F74FFA8346284661
:108770000D91F7F781FF6FF01D02F8F72FFACDE9A1
:108780000E013046F7F778FF6FF03D02F8F726FA52
:1087900080468A463846F7F76FFF6FF05D02F8F7BC
:1087A0001DFA0746424653461191F7F7D0FDDDE921
:1087B0000E23F7F7CCFD5A460D9BF7F7C8FD0025B1
:1087C0000E465A4628460D9BF7F762FEDDE90E235A
:1087D000F7F75EFE42465346F7F75AFE3A46119BBC
:1087E000F7F759FEDFF898A0244A5346F7F756FEEC
:1087F00007468846234A244B31462846F7F74EFE63
:108800003A464346F7F7A3FD074688464FF0A8428D
:10881000534631462846F7F741FE3A464346F7F7B6
:1088200096FD159A12F0004F04D0129A81F0004183
:1088300052421292C4E90001129817B0BDE8F08FBD
:10884000FB21E93F7CD90240FB21F93F7370032EE5
:108850008A19A33B000040543163621A61B4D03DD1
:10886000FB21394183C8C96D305FE43F0000E03F20
:10887000281D0000A41C0000861C0000182D445474
:10888000FB21F93D3326A611460B113C2DE9FF4D86
:1088900021F0004807460C46B8F1795F08DAF7F78F
:1088A00011FF002801BF0020324904B0BDE8F08D5F
:1088B0003A46234610461946F7F7F0FD05460246AC
:1088C0002D480E460B460621784400F05DF82A46F6
:1088D0003346F7F7E3FDDDE9022382468B4638464F
:1088E0002146F7F7DBFD04460F4652465B46284615
:1088F0003146F7F7D3FD22463B46F7F7C9FD074659
:108900008A464FF0FF3228463146F8F767F91B4A8E
:1089100090450ADA3A465346F7F7BAFD04B000220A
:10892000BDE8F04D134BF7F7B6BD154A4245A8BF59
:10893000A8F500154FF00004B8BF124D22462B4693
:10894000F7F7A6FD0646884622462B460020094931
:10895000F7F79EFD04460D463A46534630464146DB
:10896000F7F796FD04B022462B46BDE8F04DF7F729
:1089700092BD00000000F03F5C1A00003333D33F8B
:108980000000E93F0000D23F2DE9F0414F1E00EB0F
:10899000C7010446D1E9000115461E4637F006021C
:1089A0000DD02A463346F7F779FD7F1E04EBC70347
:1089B000D3E90023F7F7CBFC37F00602F1D1022F01
:1089C00025D0042F13D0062F18BFBDE8F0812A460A
:1089D0003346F7F763FDD4E90A23F7F7B8FC2A46D4
:1089E0003346F7F75BFDD4E90823F7F7B0FC2A46D6
:1089F0003346F7F753FDD4E90623F7F7A8FC2A46D8
:108A00003346F7F74BFDD4E90423F7F7A0FC2A46D9
:108A10003346F7F743FDD4E90223F7F798FC2A46DB
:108A20003346F7F73BFDD4E90023BDE8F041F7F703
:108A30008EBC00002DE9FF4D054621F0004084B0BA
:108A40000C46B0F1795F0BDA2846FFF733FD0428B6
:108A500008BF00F06FF8284608B02146BDE8F08D49
:108A60002A460B461046F7F719FD06460F462A46DA
:108A70002346F7F713FD804626488A4632463B4692
:108A800005217844FFF780FF83461098029160B378
:108A9000214A224B40465146F7F700FDCDE900013F
:108AA0005A4640465146029BF7F7F8FC82468846F4
:108AB000DDE906014FF0FF32F8F790F852464346E1
:108AC000F7F7E6FC32463B46F7F7E8FCDDE906231C
:108AD000F7F7DEFCDDE90023F7F7DAFC08B02A46F9
:108AE0002346BDE8F04DF7F7D6BC0B465A46304654
:108AF0003946F7F7D3FC084A084BF7F728FC4246FB
:108B00005346F7F7CBFC08B02A462346BDE8F04DA4
:108B1000F7F71DBCC2190000495555555555C5BF3D
:108B20000122F8F75BB80022134610461146F7F70A
:108B30007CBF0000024A00201107F8F74FB8000080
:108B400001FDFFFF00214FF07E50F7F7C2BB01216E
:108B5000F7F7B5BEF7F733BB00210846F7F7B9BB07
:108B600061214FF0E040F7F7AABE6FF05E01080701
:108B7000F7F7A5BE2DE9F04D0D4614464FF07F41A5
:108B8000B1EB440F9EBF4FF0FF312960BDE8F08D7F
:108B90004FF0004040EA0421C4F3C750783810F089
:108BA0001F024A4B4FEA601CC2F120067B44C4F30B
:108BB000C750A0F178004FEA601003EB800053F833
:108BC0002C3008BFD0E901C612D0D0F804C09340C1
:108BD0002CFA06F73B4387680CFA02FC27FA06F8E2
:108BE000C06807FA02F2F0404CEA080C42EA0006BC
:108BF000A3FB0132ACFB01C0A6FB016101EB0C063B
:108C00008E4234BF4FF0010C4FF0000CC11861448C
:108C1000BCF1000F02D0814202D903E0814201D2AF
:108C2000012000E00020104400F120024FEA9218D9
:108C30008006CA0C40EA42304F03C5F80080F7F7BF
:108C40000DFD82463846F7F712FD6FF01201F7F777
:108C500036FE07463046F7F70AFD6FF02501F7F7B5
:108C60002EFE834639465046F7F7A9FA5946F7F7DC
:108C7000A6FA00F500666FF30B0651463046F7F78B
:108C8000F0FA3946F7F7EDFA5946F7F7EDFA1049D9
:108C9000F7F7EDFA07460F493046F7F7E8FA394695
:108CA000F7F78DFA07460C493046F7F7E0FA3946F0
:108CB000F7F785FA14F0004F08BFBDE8F08DC8F152
:108CC000805180F000402960BDE8F08D74180000EC
:108CD000DB0FC92F22AAFD290000C92F02E008C816
:108CE000121F08C1002AFAD170477047002001E026
:108CF00001C1121F002AFBD1704700000149086022
:108D000070470000040000202DE9FF5F82B00021C1
:108D1000DDE90430020DDDF840B0034318D044F61D
:108D20001050A2F2FF3242431514119801281FD0AF
:108D3000A5EB0B00401C5FEA000A4FF000064E4F07
:108D4000DFF83891B046504615D5CAF1000413E05B
:108D5000119801244AA3012801D16FEA0B0102985E
:108D6000119AC0E90031C0E9024206B0BDE8F09FA7
:108D7000CBF10000DFE704460021404A491842EBEE
:108D80000450CDE9001012E0E00707D032463B4620
:108D900040464946F7F782FB8046894632463B46C5
:108DA00010461946F7F77AFB06460F466410002C6A
:108DB000EAD1DDE90401DDE90023BAF1000F06DAAA
:108DC000F7F76CFB42464B46F7F768FB05E0F7F711
:108DD0002CFE42464B46F7F728FE04460E4600227C
:108DE000284BF7F7CFFE03D84FF0FF30014607E0DE
:108DF0000022254B20463146F7F7A9FAF7F784FE03
:108E0000102409E0002C0ADB0A220023F7F7BEFC3D
:108E1000039B30321A55641E50EA0102F2D1641CE1
:108E2000039AC4F111031444119A012A03D00122B8
:108E300008430DD10AE0084304D000204FF0110B85
:108E4000119072E7A3EB0B056D1E0DE05B4504DD91
:108E50004FF0000205F1010504E003DA4FF00002D3
:108E6000A5F10105002AECD002981199C0E9023160
:108E7000C0E9004579E70000000014400000F03F21
:108E8000300000000000F0430000E03F2DE9FF4FFC
:108E900095B09B468946064600250FE2252877D1E6
:108EA00000242746F84A0121059400E0044316F8FF
:108EB000013F203B01FA03F01042F7D130782A2815
:108EC00011D06FF02F033078A0F13002092A16D8A4
:108ED000059A44F0020402EB820203EB42021044C2
:108EE000761C0590EFE759F8042B0592002A03DA67
:108EF000504244F40054059044F00204761C30784B
:108F00002E2816D116F8010F44F004042A280DD09B
:108F10006FF02F023078A0F13003092B09D807EB4E
:108F2000870302EB4303C718761CF3E759F8047B69
:108F3000761C30786C280FD006DC4C2817D06828B7
:108F40000DD06A2814D104E0742810D07A280FD1EB
:108F50000DE044F400140AE044F4801401E044F409
:108F600040147278824202D104F58014761C761C7B
:108F7000307866280BD013DC582877D009DC00281D
:108F800075D04528F6D04628F4D047281AD19DE15F
:108F900018E0632835D0642879D0652812D195E18E
:108FA000702873D008DC6728F1D069286FD06E284C
:108FB0000DD06F2806D1B5E073282CD0752875D058
:108FC000782874D05A46179990476D1C75E1C4F300
:108FD0000250022809D003280DD0D9F80010042827
:108FE0000DD00D6009F1040967E1D9F80010EA1706
:108FF000C1E90052F6E7D9F800100D80F2E70D70D4
:10900000F0E719F8041B8DF8001000208DF801001E
:10901000EA46012003E059F804AB4FF0FF30610746
:109020004FF0000102D40DE008F101018846B94279
:109030000FDA8045F8DB1AF808100029F4D108E0AF
:1090400008F1010188468142FADB1AF8081000296C
:10905000F6D105985B46A0EB080721463846179ADB
:1090600000F094FA284400EB080507E04DE029E100
:109070000DE01AF8010B5A4617999047B8F101080C
:10908000F7D25B4621463846179A13E142E00A229E
:109090000092C4F302524FF0000A022A08D059F895
:1090A00004CB032A4FEAEC710AD00DE029E02AE054
:1090B00009F1070121F00702F2E802C1914609E037
:1090C0000FFA8CFC4FEAEC71042A03D14FFA8CFCA6
:1090D0004FEAEC71002907DA0A460021DCF1000CA6
:1090E00061EB02012D2202E0220504D52B228DF82E
:1090F0000420012203E0E20701D02022F7E7904696
:1091000059E00A2102E010220DE010214FF0000A80
:1091100000910BE010224FF0000A44F004040827ED
:10912000009203E008224FF0000A0092C4F30252BA
:10913000022A05D059F804CB0021032A08D009E0FF
:1091400009F1070121F00702F2E802C1914605E0AA
:109150001FFA8CFC042A01D10CF0FF0C4FF0000820
:10916000220728D5702806D0009B83F0100353EA0D
:109170000A0305D00EE040228DF80420012208E009
:109180005CEA010206D030228DF804208DF805003B
:1091900002229046009B83F0080353EA0A030AD197
:1091A0005CEA010201D1620705D530228DF8042066
:1091B0004FF001087F1E582804D034A003900EA859
:1091C00002900DE036A0F9E753466046009AF7F7A3
:1091D000DDFA84460398825C0298401E0290027079
:1091E0005CEA0100F0D1029806A9081A00F1200AF1
:1091F000600702D524F4803400E00127574502DDE2
:10920000A7EB0A0000E0002000EB0A01009005989F
:109210004144401A0590E00306D45B462146179A64
:10922000059800F0B3F90544002706E001A85A4666
:10923000C05D179990476D1C7F1C4745F6DBE00326
:109240000CD55B462146179A059800F09FF9054416
:1092500004E030205A46179990476D1C0099481E2B
:1092600000900029F5DC08E0029802995A4600783F
:10927000491C0291179990476D1CBAF10001AAF19F
:10928000010AF1DC65E100000928010030313233C8
:109290003435363738396162636465660000000032
:1092A000303132333435363738394142434445461C
:1092B0000000000000F058F90544761C30780028C2
:1092C0007FF4ECAD19B02846BDE8F08F620700D4FA
:1092D000062709F1070222F0070CFCE80223E14609
:1092E00003F000485FEA080C02D00FF2702C0DE08A
:1092F0005FEA045C02D50FF2682C07E05FEAC47CE9
:1093000002D00FF2602C01E0AFF2700C4FF0FF388A
:1093100023F00043CDF850C065280CD006DC45286A
:1093200009D046281DD047283DD13DE0662818D0F9
:1093300067287ED138E00021112F01DB112000E0E9
:10934000781CCDE9000106A90EA8FFF7DDFCDDE9D8
:109350000F010E9A03910021009207F1010A049176
:109360004DE04FF000400097CDE9011006A90EA88E
:10937000FFF7CAFCDDE90F0203920E9B1199002250
:10938000DDF80CA00093049211B9791C00EB010ADE
:10939000B7EB0A0004D4C0F1FF3007F1010A0490D2
:1093A000AAEB0700019044E0012F00DA0127002119
:1093B000112F01DD112000E03846CDE9000106A99A
:1093C0000EA8FFF7A1FCDDE90F010E9A0391002121
:1093D00004910092BA4621070CD40399514500DA52
:1093E0008A46BAF1010F05DD009AAAF10101515C2C
:1093F000302908D0B84202DA10F1040F06DA012150
:10940000CDE9011015E0AAF10101E9E7002805DC2A
:10941000049901440491AAEB000102E0411C51456A
:1094200000DD8A460499401A401C01904FF000402C
:109430000290200704D40198504501DBCDF8048048
:1094400000208DF84F0002980DF14F07B0F1004F4A
:1094500025D02B200E9002984FF0020800280CDA3D
:10946000404202902D200E9007E00A210298F7F763
:1094700077F93031029007F8011DB8F10001A8F129
:109480000108F2DC02980028EFD1791E0E980870CE
:10949000307800F0200040F0450007F8020D12A8D7
:1094A000C01B00F107081498007800B1012000EB00
:1094B0000A01019801EBE07105984144401A401EF1
:1094C0000590E00306D45B462146179A059800F004
:1094D0005DF805441498007818B15A4617999047DA
:1094E0006D1CE00324D55B462146179A059800F0D1
:1094F0004DF805441CE00498002807DBDDE9030172
:10950000884203DD0098405C179901E017993020EC
:109510005A469047049805F10105401C04900198B3
:10952000401E019004D12E205A46179990476D1C79
:10953000BAF10001AAF1010ADDDC05E017F8010B20
:109540005A46179990476D1CB8F10001A8F101081F
:10955000F4DC5B462146179A0598ABE62D00000027
:109560002B000000200000002DE9F04104460025FA
:109570001E461746880404D405E039462020B0472B
:109580006D1C641EF9D52846BDE8F0812DE9F04137
:10959000044600251E469046C80301D5302700E04A
:1095A0002027880404D505E041463846B0476D1CA5
:1095B000641EF9D52846BDE8F0810A68531C0B608B
:1095C0001070704700B5244B21F0004287B09A42DA
:1095D000DCBF0022134629DD204B9A4208D140B956
:1095E0004FF00100FFF78AFBFFF79DFA07B000BDBF
:1095F00003DBFFF795FA07B000BD02AAFEF782FF72
:1096000010F0030104BF0DF1080C9CE80F000DD011
:10961000012001290ED0022914D00DF1080C009070
:109620009CE80F00FFF706FA07B000BDFFF72EF920
:1096300007B000BD0DF1080C00909CE80F00FFF78B
:10964000F9F905E00DF1080C9CE80F00FFF71EF991
:1096500007B081F0004100BDFB21E93F0000F07F31
:109660002DE9F843044602464F486946B0EB420FE5
:1096700009D94FF0E640B0EB420F94BF00204FF005
:10968000FF30009030E0494B22F00040834271D916
:1096900047492046F6F7EBFDF7F74CF98046F6F719
:1096A000F8FF00F00300009042494046F6F7DFFD66
:1096B000054641494046F6F7DAFD06463F49404631
:1096C000F6F7D5FD07463E494046F6F7D0FD214660
:1096D000F6F7CAFD3946F6F7C4FD3146F6F7C1FD87
:1096E0002946F6F7BEFD04462546009C002C45DBC6
:1096F000294614F0010F08461CD0F6F7B8FD0646BF
:109700003049F6F7B4FD3049F6F759FD3146F6F722
:10971000AEFD2E49F6F753FD3146F6F7A8FD294672
:10972000F6F7A5FD2946F6F74AFD14F0020F1CD006
:10973000BDE8F883F6F79BFD05462549F6F797FD4A
:109740002449F6F73CFD2946F6F791FD2249F6F744
:1097500036FD2946F6F78BFD4FF07E51F6F72FFDCB
:1097600014F0020F08BFBDE8F88380F00040BDE8A8
:10977000F883FFE71046FFF7FDF9B4E76800B0F1A2
:109780007F4F3CBF4FF07E50BDE8F88307D14FF0CC
:109790000100FFF7B3FABDE8F843FFF7DDB928464B
:1097A000BDE8F843FFF7D3B9B61F927E490E49468C
:1097B00083F9223F1A61342C0020A23300A0FD3926
:1097C0000000C93F336D4CB9DA82083CA0AA2ABE1A
:1097D000B93AB2BACA9F2A3DDDFFFFBE2DE9F0417A
:1097E00004464FF019404449002500EB44008842EC
:1097F00042D802212046F7F762F8F7F79BF80746B0
:10980000F6F747FF06466FF001013846F7F757F8BD
:109810002146F6F729FD04463849F6F728FD384970
:10982000F6F7CDFC2146F6F722FD3649F6F7C7FCE0
:109830002146F6F71CFD3449F6F7C1FC2146F6F740
:1098400016FD0146314806F00304784450F8240020
:10985000F6F70DFD2E49794451F82410F6F7AFFCC8
:109860002C49794451F82410F6F7A9FCB11085BBB6
:10987000BDE8F041F7F723B84FF0FF4131EA0400AB
:1098800018D04FF0CE41B1EB440F84BF4FF07E5063
:10989000BDE8F0812049B1EB440F28BF0125A8D2D3
:1098A0000220FFF72BFA14F0004F0ED0BDE8F04174
:1098B000FFF75BB9204614F5000F04BF0020BDE898
:1098C000F081BDE8F041FFF742B9BDE8F041FFF794
:1098D00047B9F6F7F4FF040012BFB4F1FF4F0220BE
:1098E000FFF70CFA2046FEF7F9FD042808BFFFF742
:1098F0003CF92046BDE8F0810000F01E81A41D3C2B
:10990000206E633DEFFD753E1772313F8609000002
:109910006A0900004E09000000002C862DE9F04D78
:109920000E460023A0F5000C4FF00071354684B0C0
:1099300002464FF07E5401EB45014FF07F48BCF1E9
:10994000FE4F80F09F81B1F1804FC0F0DB81FE4976
:109950000144B1F5005F40F2A78200F58021C90CF7
:1099600001F00F07C1F307117F39A2EBC15501EBDD
:10997000030B3846F6F772FE6FF00301F6F79FFF10
:109980004FF07E51F6F71BFC014602902846F6F791
:1099900068FC019028460299F6F711FC00F5006A70
:1099A0006FF30B0A009051460298F6F75AFC2946CD
:1099B000F6F705FC02904FF07E500099F6F789FC0F
:1099C000014600900198F6F752FC00F500656FF330
:1099D0000B0528460299F6F74AFC029051462846A4
:1099E000F6F745FC0199F6F73FFC0299F6F739FCCA
:1099F0000099F6F73CFC014601902846F6F7DFFB9C
:109A000001460290F6F733FC8246D049F6F72FFC68
:109A1000CF49F6F7D4FB5146F6F729FC82460021E0
:109A20002846F6F74CFF009051460298F6F71FFCC7
:109A3000054600210198F6F742FF2946F6F7BFFBDD
:109A4000824601460098F6F7BAFB00F500656FF311
:109A50000B0529460098F6F704FC5146F6F7AFFBD4
:109A60008246BC492846F6F702FC0090BA495046A7
:109A7000F6F7FDFB8246B9492846F6F7F8FB514652
:109A8000F6F79DFB824601460098F6F798FB00F535
:109A900000656FF30B0529460098F6F7E2FB514687
:109AA000F6F78DFB8246AE48784450F8371000EB4D
:109AB000C700019147684FEA0B10F6F7CFFD009001
:109AC00039465046F6F77BFB2946F6F778FB0199B5
:109AD000F6F775FB0099F6F772FB00F5006B6FF374
:109AE0000B0B58460099F6F7BCFB0199F6F7B9FB4A
:109AF0002946F6F7B6FB3946F6F7B3FB5146F6F7BB
:109B0000B3FB06F5006782466FF30B073946304614
:109B1000F6F7A7FB002100900846F7F74BF800F096
:109B20000C0639465846F6F7A2FB054620F00040E1
:109B3000B0F18B4F0ADDB8EB400F07D34FF08B40ED
:109B400060F31E052F464FF0000A1FE038460099CB
:109B5000F6F735FB5146F6F78AFB0746584600995B
:109B6000F6F785FB3946F6F72AFB8246014628467A
:109B7000F6F725FB00F500676FF30B07394628461B
:109B8000F6F76FFB5146F6F71AFB824631460C207A
:109B9000F7F710F851463846F6F711FBF6F7CCFF09
:109BA00006460511F6F75AFD3946F6F75DFB5146B4
:109BB000F6F705FB07466B49F6F759FB6A49F6F7D6
:109BC000FEFA3946F6F753FB6849F6F7F8FA3946D4
:109BD000F6F74DFB0146664806F00F06784450F84C
:109BE0002600F6F744FB6349794451F82610F6F74E
:109BF000E6FA6149794451F82610F6F7E0FA05F1E2
:109C00007D01FC2908D22946F6F759FE04B0214609
:109C1000BDE8F04DF6F72BBB05F1BF01B1F5BF7FF5
:109C200016D82946F6F74BFE2146F6F720FB0546E7
:109C3000B8EB450F1AD068000CD02846FEF74EFC52
:109C4000042808BFFEF791FF284604B0BDE8F08D58
:109C5000002D0BDA0220FFF751F8FEF786FF0146D0
:109C6000204604B061F31E00BDE8F08D0220FFF72E
:109C700045F8FEF775FF0146204604B061F31E006B
:109C8000BDE8F08DB1F1804F3CD300BF00F1FF4142
:109C9000B1F1FE4F21D200BF20F00042C5F3C75101
:109CA00010467F290DDB9729BFF651AEC1F1960111
:109CB0004FF0010C0CFA01F1A1F1010C1CEA050FA7
:109CC00007D00120FFF71AF804B0BDE8F04DFEF709
:109CD00043BF294218BF294C39E641001CBF4FF051
:109CE0008071B1EB400F09D91B21F6F7E8FD024660
:109CF0006FF01A0310F0004FCED128E6BCF1FE4FF2
:109D000018D224E6B1F1007F0ED336F0004105D021
:109D100006F0004141F0FC552E46B7E7410018BF60
:109D2000B8EB400F78D8B1E7B1F1807F38BFA5F527
:109D30000006ABD320F000416FF0FF4C104C01EB5C
:109D40000C03A3422FD31DE0001080C07EE24C3EE6
:109D5000ABAAAA3E00B038423BAA3842D49AB8BB5C
:109D600038070000FC596337C9FF753A1872313D56
:109D700004070000B80600006C060000000080BF69
:109D8000FFFF3F0025F000439C44A4450BD3B0F1F6
:109D90007E5F18BF5FEA450C3ED0B1F1FF4F98BF20
:109DA000B3F1FF4F05D904B03146BDE8F04DFEF7E1
:109DB000D1BEB0F1FF4F0FD0C5F3C7517F2909DBEA
:109DC000972911DAC1F19601012202FA01F14A1E26
:109DD0002A4205D0002108E015F0004F55D128E0B7
:109DE000294218BF012100D1022110F5000F14D023
:109DF00020B3B0F1004F27D010F1814F4ED04FF07B
:109E0000FE41B1EB400F94BF01200020012101EB86
:109E1000E571884239D10CE040E015F0004F02D0E6
:109E2000012936D031E0012902BF3F4804B0BDE826
:109E3000F08D4FF0FF4004B0BDE8F08D15F000400C
:109E40000ED104B0BDE8F08DB5F1FF4F1DD015F572
:109E5000000F05D015F0004F14D009B1012907D02B
:109E60000220FEF74BFF04B0BDE8F04DFEF76ABEDE
:109E70000220FEF743FFFEF765FE04B080F00040CD
:109E8000BDE8F08D09B1012903D004B00020BDE880
:109E9000F08D04B04FF00040BDE8F08D04B04FF0FD
:109EA0007E50BDE8F08D00BF4FF07E51F6F7D9F936
:109EB00005466FF00101F6F702FD1C49F6F7D4F9EB
:109EC0002946F6F7D4F94FF07C51F6F7CDF907465D
:109ED00029460846F6F7CBF980F000403946F6F7F8
:109EE000C6F9824612492846F6F7C1F907461149D4
:109EF0005046F6F7BCF982460F492846F6F7B7F9FF
:109F00005146F6F75CF9054601463846F6F757F92B
:109F100000F5006B6FF30B0B59463846F6F7A1F9C5
:109F20002946F6F74CF9ECE5000080FFABAAAA3E03
:109F300000B0B8413BAAB841D49A38BB10B504462A
:109F400001E0FAF759FF14F8010B04490028F8D191
:109F5000BDE810400A20FAF74FBF000000000020C3
:109F600000B5254B21F0004287B09A4203DC002265
:109F7000134600922BE0214B9A4208D140B94FF092
:109F80000100FEF7BBFEFEF7CEFD07B000BD03DB10
:109F9000FEF7C6FD07B000BD02AAFEF7B3FA10F047
:109FA00003014FF001000DD0012914D002291AD06D
:109FB0000DF1080C9CE80F00FEF768FC07B081F07B
:109FC000004100BD0DF1080C00909CE80F00FEF769
:109FD00031FD07B000BD0DF1080C9CE80F00FEF745
:109FE00055FC07B000BD0DF1080C00909CE80F0077
:109FF000FEF720FDE2E70000FB21E93F0000F07FD3
:10A000002DE9F8430446024652486946B0EB420F38
:10A0100009D94FF0E640B0EB420F94BF00204FF05B
:10A02000FF30009030E04C4B22F00040834271D969
:10A030004A492046F6F71BF9F6F77CFC8046F6F70E
:10A0400028FB00F00300009045494046F6F70FF961
:10A05000054644494046F6F70AF906464249404655
:10A06000F6F705F9074641494046F6F700F921465B
:10A07000F6F7FAF83946F6F7F4F83146F6F7F1F85C
:10A080002946F6F7EEF804462546009C002C45DBF1
:10A09000294614F0010F08461ED0F6F7E8F80546E9
:10A0A0003349F6F7E4F83349F6F789F82946F6F725
:10A0B000DEF83149F6F783F82946F6F7D8F84FF07D
:10A0C0007E51F6F77CF814F0020F08BFBDE8F88364
:10A0D00080F00040BDE8F883F6F7C9F80646274946
:10A0E000F6F7C5F82649F6F76AF83146F6F7BFF8ED
:10A0F0002449F6F764F83146F6F7B9F82946F6F739
:10A10000B6F82946F6F75BF814F0020FE0D1BDE887
:10A11000F883FFE71046FEF72DFDB4E76800B0F1C5
:10A120007F4F09D22846FEF7D9F9042808BFFEF769
:10A130001CFD2846BDE8F88306D10120FEF7DEFDB0
:10A14000BDE8F843FEF708BD2846BDE8F843FEF732
:10A15000FEBC0000B61F927E490E494683F9223F9D
:10A160001A61342C0020A23300A0FD390000C93F41
:10A17000B93AB2BACA9F2A3DDDFFFFBE336D4CB972
:10A18000DA82083CA0AA2ABE70B50546F6F7A3FB02
:10A19000044620F00040C0F1FF40C00F08D025F079
:10A1A0000040C0F1FF40C00F04BF0120FEF7A6FD34
:10A1B000204670BD0000803F0030983F0000B53F52
:10A1C0000040D73F00000000320A7E397F661E390A
:10A1D0005B991F390000803FF037983FF304B53F8B
:10A1E000FD44D73F00000000000000000000B33F26
:10A1F000B2BE7D3A00002E40DFCF513800007E40D5
:10A20000BF51FABA00E0A44019DAC3BA00E0C8406E
:10A21000C2ED8AB90040EB40CD1F2CBA00100641B8
:10A220002AFFFABA00C01541DFCFD13700D0244150
:10A230009A97703A0050334189478E360040414129
:10A24000E75B9D3800B04E41C00A98B900A05B4161
:10A25000558F943A00306841DA92C0BA0040744198
:10A2600062B3C63A0000803F00A0853F00908B3F5C
:10A2700000C0913F0030983F00F09E3F00F0A53FA6
:10A280000050AD3F0000B53F0000BD3F0060C53F3E
:10A290000020CE3F0040D73F00C0E03F00C0EA3F73
:10A2A0000020F53F000000007D36AC397D3C383998
:10A2B000EBDCF438320A7E39124C26399B6AED39D0
:10A2C000A4EE83397F661E39F6398A392B42653907
:10A2D000A48211395B991F39C3EECD39DDE7C6374A
:10A2E000A5A22F390000803FC3AA853FC2958B3FAE
:10A2F000D3C3913FF037983F32F59E3FD7FEA53F3D
:10A300003F58AD3FF304B53FA408BD3F2A67C53FA2
:10A310008C24CE3FFD44D73FDFCCE03FC7C0EA3FAF
:10A320007D25F53F000000004C5555555555A53F7E
:10A330007751C1166CC156BF9015CB19A001FA3EDA
:10A34000AD529C804F7E92BEC4B1B4BD9EEE213E04
:10A35000D43888BEE9FAA8BD00004054FB21F93F7B
:10A360003163621A61B4D03D0000601A61B4D03D1F
:10A370007370032E8A19A33B0000002E8A19A33B99
:10A38000C14920259A837B390000000000000000AD
:10A390006E83F9A22915444ED15727FCC0DD34F550
:10A3A000999562DB4190433CAB6351FE61C5BBDED6
:10A3B0003A6E24B7E0D24D42EA2E49061C92D109EA
:10A3C0001CEB1DFE3EA729B1F53582E88444BB2E67
:10A3D00026709CE9417E5FB439D69139F4395383B4
:10A3E0008B5F849C3B28F9BDFF97F81F0F9805DE13
:10A3F0008B112FEF1F6D0A5ACF7E366DB709CB2711
:10A40000663F464F2DEA5F9EC7BA27757BF1E5EBA5
:10A41000F739073DEA92528AB15FFB6B085D8D1FE9
:10A4200046300356000000006E83F9A22915444E01
:10A43000D15727FCC0DD34F5999562DB4190433C50
:10A44000AB6351FE00000000A6F810111111813F0E
:10A45000D561C119A0012ABF7DFEB157E31DC73EDA
:10A46000EB9C2B8AE6E55ABE7CD5CF5A3AD9E53D1E
:10A4700001020000000000000000010203040607C2
:10A480000809000000000102030402030405060796
:10A4900008090A0B0C0D0E0F101000000B00000035
:10A4A00050AB00087D3000080B00000032AA000805
:10A4B000293A00080B000000F9A90008B539000886
:10A4C0000B000000BCAA00087D3B00080B00000048
:10A4D000C6AA0008313700080B000000D4A9000804
:10A4E000F13100080B00000067AA0008C93A000813
:10A4F0000B00000072AA00089D3400080B00000049
:10A5000049AA0008C13900080B000000EDAB0008A3
:10A510009D3B00080B000000F8AB0008AD370008B9
:10A520000B0000003DAA0008D93900080B0000000C
:10A53000C2AB0008CD3B00080B000000CDAB00080B
:10A54000493800080B00000011AA0008F93900087A
:10A550000B000000FDAA0008053C00080B000000ED
:10A5600007AB0008F13800080B00000027AA00081C
:10A57000853200080B0000007CAB0008613B00083E
:10A580000B00000086AB0008913600080B000000AD
:10A59000EEA90008CD3100080B0000009BAA0008BE
:10A5A000953A00080B000000A5AA0008F133000846
:10A5B0000B0000001CAA0008CD3000080B000000B2
:10A5C00030AB00082D3A00080B0000003AAB000841
:10A5D000A53200080B000000E0A9000805320008C1
:10A5E0000B0000007FAA0008F13A00080B000000F1
:10A5F0008CAA0008293500080B00000004AA0008F6
:10A60000013100080B000000E3AA0008793A0008B5
:10A610000B000000EFAA0008793300080A000000D0
:10A620007FAC0008000000000B000000B1AB000888
:10A630002423000071A800080A00000059AB00089C
:10A6400024250000B8A700080C000000DAAB0008C1
:10A650002424000004A700080A00000013AB00082F
:10A660002424000020A900080400000055AA0008C6
:10A670000000000001000000A5AB00080000000081
:10A680000300000005AC0008000000000500000009
:10A6900010AC00080000000008000000DFAB00085C
:10A6A00000000000020000001CAC000800000000D8
:10A6B00006000000B7AB000800000000FF0000002B
:10A6C00070AB0008000000000700000029AC000883
:10A6D000000000000B00000064AB00083C000020FC
:10A6E0000C00000046AB0008280000200D00000010
:10A6F00019AB0008140000200A0000007FAC00081D
:10A7000000000000000000000000801F000000F0BA
:10A71000FF010000FCFF070000FFFF0F0080FFFFAC
:10A720001F00C0FFFF7F00E007007C00F00300FC7B
:10A7300000F00300FC01F8FFF1FF01F8FFF1FF0357
:10A74000F87FC0FF03FC1F00FF03FC0700FE07FCAF
:10A750000701FC07FCC331F807FCE1F1F807FCF145
:10A76000F1F007FCF1F1F007FCF1F1F107FCF1F178
:10A77000F107FCF1F1F103F8F1F1F103F8FFF1FF5A
:10A7800003F8FFF1FF01F0FFF1FF01F0FFF1FF001F
:10A79000E0FFF17F00C0FFFF7F0080FFFF3F000070
:10A7A000FFFF0F0000FCFF070000F0FF01000000AA
:10A7B0001F0000000000000000000000000000007A
:10A7C000000000000E000000001F000000801F00BD
:10A7D0000000803F000000C03F000000C03F0000BC
:10A7E00000C07F000000E0FF000000F0FF0100005B
:10A7F000FCFF0300E0FFFFFF00FCFFFFFF07FEFF81
:10A80000FFFF07FCFFFFFF07FCFFFFFF03F8FFFF51
:10A81000FF01F0FFFFFF00E0FFFF7F00C0FFFF3FF1
:10A820000080FFFF3F0000FFFF1F0000FFFF1F0031
:10A8300000FFFF0F0000FFFF0F0000FFFF0F0000F1
:10A84000FFFF0F0000FFFF0F0000FFFF1F0000FFD2
:10A85000FF1F0080FFF01F00803FC01F00801F000F
:10A860001F000007001C00000000000000000000A6
:10A870000000001C000000003E000000007E000000
:10A8800000007E000000007F000000007F0000004C
:10A89000007F000000807F000000807F000000C07B
:10A8A0007F000000E07F000000F87F0000F0F8FF6C
:10A8B000FF01FCF8FFFF07FCF8FFFF07FEF8FFFFB2
:10A8C00007FEF8FFFF07FEF8FFFF07FEF8FFFF0790
:10A8D000FEF8FFFF07FEF8FFFF03FEF8FFFF03FE91
:10A8E000F8FFFF03FEF8FFFF03FEF8FFFF01FEF88D
:10A8F000FFFF01FEF8FFFF01FEF8FFFF01FEF8FF7A
:10A90000FF00FEF8FFFF00FCF8FF7F00FCF8FF3FB0
:10A9100000F8F8FF1F000000000000000000000029
:10A920000000000000000000000000000000000027
:10A93000000C000000001C000000003C00000000B3
:10A94000FC00000000FC01000000FC03000000FC13
:10A9500007000000FC0F000000FE1F0000F8FF3F92
:10A960000000FFFFFF00C0FFFFFF01E0FFFFFF034C
:10A97000F0FFFFFF07F0FFFFFF0FF8FFFFFF0FFCE7
:10A98000FFFFFF07FCFFFFFF03FEFFFFFF01FEFFCE
:10A99000FFFF00FF03FE3F00FF00FC1F003F00FC25
:10A9A0000F001F00FC07000700FC03000300FC0170
:10A9B000000100FC000000003C000000001C000042
:10A9C00000000C000000000000000000000000007B
:10A9D000000000002D20496E43756269632020004D
:10A9E0002D20496E456C61737469632020002D2011
:10A9F000496E436972632020002D20496E517561B4
:10AA0000642020002D20496E426F756E6365202002
:10AA1000002D20496E53696E652020002D20496E5F
:10AA20004261636B2020002D20496E4578706F20B5
:10AA300020002D204C696E6561722020002D204978
:10AA40006E5175696E742020002D20496E5175611C
:10AA500072742020004D61696E5549005B6F666617
:10AA60005D005B6F6E5D002D204F757443756269EC
:10AA700063002D20496E4F75744375626963002D24
:10AA8000204F7574456C6173746963002D20496EA5
:10AA90004F7574456C6173746963002D204F757434
:10AAA00043697263002D20496E4F75744369726368
:10AAB0000045646974696E67204B64002D204F75F2
:10AAC0007451756164002D20496E4F757451756124
:10AAD00064002D4C65640048656C6C6F20576F7284
:10AAE0006C64002D204F7574426F756E6365002D88
:10AAF00020496E4F7574426F756E6365002D204F4F
:10AB0000757453696E65002D20496E4F75745369D5
:10AB10006E65005368617265002D446572697661E7
:10AB2000746976650045646974696E67204B6900D5
:10AB30002D204F75744261636B002D20496E4F7557
:10AB4000744261636B002D496E74656772616C00BD
:10AB50002D20437573746F6D00436F6C6C65637467
:10AB6000696F6E002D50726F706F7274696F6E0036
:10AB70002D506C617920566964656F002D204F75EA
:10AB8000744578706F002D20496E4F75744578704C
:10AB90006F0045646974696E67204B70002D4275C3
:10ABA0007A7A6572002B50494420456469746F724B
:10ABB000004C696B6573002D546578742045646999
:10ABC00074002D204F75745175696E74002D2049E5
:10ABD0006E4F75745175696E7400536C6F74002DEF
:10ABE000456173696E67204368617274002D204F60
:10ABF00075745175617274002D20496E4F757451D2
:10AC000075617274002D49636F6E20546573740012
:10AC10002D43686172742054657374002D44657609
:10AC2000696365204C697374007B2041626F7574A1
:10AC3000207D005B206C696E653A202564207C20B5
:10AC400066756E6374696F6E3A202573205D2025EA
:10AC500073203D2025640D0A006B65795F73636185
:10AC60006E006B6579735B695D2E637572002D2DC7
:10AC70005465787420456469746F722D2D002D52CF
:10AC8000657475726E000000B57C0008F57C0008E4
:10AC9000A57200089B00030204040304050C0D00C8
:10ACA000FE08FE0AFF016102CE04172005004C0BCE
:10ACB000210791468B53002207347D8BC814230E45
:10ACC00096C49BA86558A25E86256A01240FA53C00
:10ACD000AB6CA92899A8254A658B002510963C9B4A
:10ACE00028E9A225619A4449172D01260E8544AB17
:10ACF0002C8992AC322551A404270631FE8A012802
:10AD00000BB33DAB244AA26E5116290CB33D8B2CDC
:10AD1000CAA22E5112012A0C7544AB4AE5A02C4D53
:10AD200011002B0B7744BCB8360C595C032C07324E
:10AD30003E0B45012D0615648B412E0621C60A01E6
:10AD40002F0CC43CBBA6AC9495B21A00300A8544C3
:10AD50009B25F32D5900310985448BB14F83003277
:10AD60000B85449B250B6B6D8300330C85448B2135
:10AD70000D93350C0705340E86C43B2D89BA64C982
:10AD800030A60900350D85448B2109C3210DC3412F
:10AD900001360D85449B250C8724B3250B00370B0A
:10ADA00085448B41AC85595802380D85449B25D389
:10ADB0009225B3250B00390D85449B25B32543A867
:10ADC000250B003A06614409493B09823E8B215616
:10ADD00014003C089544CBAC6B073D08355C8B41B7
:10ADE0001D043E0995448BB45B47003F0D95449B81
:10ADF00025D3C248CBA130024014A73CACAD924849
:10AE00005A22294A45A9488992651300410E874470
:10AE1000BC384DC2242B0D4AAA06420D86C48B4174
:10AE200009C561098DC302430C86C49B2109D58ED7
:10AE3000C99000440D87448C410A93D46332480082
:10AE4000450A85448B63388CC541460B85448B632A
:10AE50003824612300470D86C49B2109D5DA2826B2
:10AE60008300480B86C48BD0380CA263004908834A
:10AE7000448A25EA654A08A334AAFEB4004B0D852E
:10AE8000448B4C4A4A9A9644952C4C0985448BB085
:10AE90008F83004D1087440C6DC8968A52912229E9
:10AEA00052D5004E0D86C48B70532229D1466300C3
:10AEB0004F0C8744ACAD92BA26593601500C8544EC
:10AEC0008B21C96C83121601510D973CACAD92BA1F
:10AED0002659B62700521086C48B21CA922CC992DB
:10AEE000216A4BC200530C85449B414CD7301C1443
:10AEF00000540987448C4316F70D550A86C48BD03D
:10AF00008FC99000560F87448C544DB228AB8449AA
:10AF10001A6700571189448D2CD332ADD229694A62
:10AF2000DA8A5904580D86C48B504CA24C8B5A4275
:10AF300031590B87448C34C92A69DC0D5A0A87447D
:10AF40008C43DAE761085B09B33E8B21EA4F035C6F
:10AF50000CA53C8B300DD3300DD3305D09B33D8B48
:10AF6000A93F0D015E083574AB2CA9055F06153CA1
:10AF70008B41600732FD8A240A610C65449B254B96
:10AF8000064D4B8600620C85448B301C92CC6D5074
:10AF900000630864C49A216B1C640B8544CBCAA06F
:10AFA000B9254300650B65449B251B86301D026651
:10AFB0000983449A69883A01670C85349B41734B35
:10AFC00086305900680B85448B301C92CC5B00693D
:10AFD0000781448964186A08A2B4992CE9656B0D4D
:10AFE00085448BB09494B424AA64016C078144898D
:10AFF00083006D0E67448C45892229922229920A8A
:10B000006E0965448B21C9BC056F0A65449B257395
:10B010004B1600700C85348B21C9DC06250C0171A0
:10B020000B85349B41734B86B000720863448A21C0
:10B03000EA04730C65449B254BD4244B1600740A18
:10B0400083448A281AA23601750965448BCC5B3289
:10B0500004760C65448B4C4B4A49164600770E67C4
:10B06000448C289222A5A2748BB204780B65448B81
:10B070002CA9556A5A00790D85348B4C4B4A4916D8
:10B080006661067A0A65448B41CCDA06017B0BA324
:10B090003CAA24AA64515B007C07B1BE8A07017DEB
:10B0A0000BA33C8A2CAA25514B047E0726DC1BC926
:10B0B00002800F95442BA9920D513644611429004A
:10B0C0000000000C593909C9706B0AA4FFFF201356
:10B0D000081B658E07014E000A2B647E28190E029C
:10B0E0004E0A17BB3CDE1CCBB11CCBB141CEB11C10
:10B0F000CBB11C4B8783004E0B16AB3C8E0735C77C
:10B10000724C87921C89F228CFB11C4B014E0D194D
:10B11000BB3C8E0739C7722887943889C2288BB206
:10B1200050CCB11C4B014E2A16BA3DCE1CCA9172AE
:10B1300016466D9998433994433994024E2D16B9A9
:10B140003DCE1C098743966999960D07AD98233922
:10B1500012024E3A19B93D9E284E72241C8E59286F
:10B160006551924549942659A42A004E3B16BB3C92
:10B17000CE1C4C87839A6339160FE71CCBB1743809
:10B18000084E4815BB3CDE1CCBA11CCAD2B07728A8
:10B190004B4BC321CA034E4B17BB3CCE1C8C873B89
:10B1A00094433994433994233A12C5E1304E5F1BDE
:10B1B000BB3CDE1CCBA3488B966CC892292B25B5D3
:10B1C000A81885519E0D83004E661ABB3CCE2C0EEE
:10B1D000956150C22CCEA2E120A6611A46499AC5BB
:10B1E00031004E8612B93D8EF7B29E233992233933
:10B1F0001227790A4E8B17BB3CDE7438488D516D8F
:10B200003867C97050B36838E7C80A4E8E17BB3C20
:10B210009EE19C6339960E0735C7722CC7722C4786
:10B2200056004E9114BB3CAE61C8B90F073187720E
:10B23000AC5A1B6E71024E9218BB3C8E0731C7721E
:10B240006C50C3344CC370D8B11CCB8683004E9B6A
:10B250001CBB3CBE288F5A945A124949294B1225CF
:10B260001BC221878721878783004EA417BB3CDE42
:10B270007438E87896D6922C09B33CC9A11C31AA3F
:10B28000034EBA16BB3CDE1CCBB11CCBB11CCBA110
:10B290002447EA595AD2054ECE16BB3CBE721667F9
:10B2A0007116677196268D495B4B1696034ED61D17
:10B2B000BB3CBE729646492D4A2665489A925A94DE
:10B2C000D4A2448C92A831CA06014EE518BA3DFEBC
:10B2D000288E6A5116D5A272548B923012936296C0
:10B2E00089014EEA1CBB3CBE28CF922C89922C09C6
:10B2F00023294B4AC52C09AB59124659250D4EEC52
:10B300001DBB3CAE7A962C519225513AA549942604
:10B31000519A446912A549942651284EF61ABB3C0D
:10B32000BE72528D923419A6AD12A6C93044611A6C
:10B33000A6611A66004EFD1CBB3CBE308D92308B60
:10B34000B2288B94548906AD9495B2521665954CEB
:10B35000014F181BBB3CBEA8186551160F172D4C8A
:10B36000323553A3248D92A81295C4014F1A17BBEE
:10B370003CDE1C4AF22C2D2983A2330DD71C0AC3B4
:10B380006150004F2018BB3CBE729646C31486CA5B
:10B390003028591C0D539C55C26A094F461BBB3CB3
:10B3A000BE1C4B062DCA4A59240D4A292B65A541BE
:10B3B000CBB11C4B86214F5C1ABB3CBE2447EAD163
:10B3C0003025D5294CB2212B67713648599C850010
:10B3D0004F601CBB3CBE2447EAD130256922664938
:10B3E00094D4A2A49644252D2A46350D4FDD1CBBCE
:10B3F0003CBE641093AC94950649CC926418A2307C
:10B40000CDC628A9255163064FE11CBB3CBE28CF01
:10B41000D26418A21C9206A58E45839663D1A045DE
:10B420005969500050A821BB3C1E314A2A839426FA
:10B43000D1320C4A1626D11025895489862851A26A
:10B440004AD438240050CF1FBB3CBE680893284C18
:10B450008621524A89340C49564A945A254C94AD57
:10B46000524A4C00514518BA3DDE70388439926515
:10B47000C320464918C5519A45B5681D51461ABAA8
:10B480003DBE288B5A4A4994446A944A5312455205
:10B49000358B92309207516517BB3C3E1DCCB11CD9
:10B4A000CBA12447EA599CA5B53CC9A100516C1811
:10B4B000BB3CFE388BC36A186551166A3916C561E4
:10B4C000380C629A00517315BB3CAEB4160EE71CE3
:10B4D0004B87439C43499EA5255D517616BB3CBED8
:10B4E000E270CCE241CEE241CEB2E1A0554B7A020D
:10B4F000518516BA3DCE1C4A8783166AA1662A2951
:10B5000061A2233A220F518C1EBB3C9E2119A24AF4
:10B51000D412B544C97050A2246A895AA296A825AB
:10B520004AA2490151FA16BB3CDE382B65A5AC3462
:10B530009CD33014433114C3E10151FB16BB3CDEF4
:10B540001C8B87738EA5C3418DB35256CA4AC3055F
:10B55000520618BB3CBE729616D32C4F926148C25D
:10B560002CCED2B01A891A0052071BBB3CAE1C8BE2
:10B5700086298CA2291AC2A81855A2929445593539
:10B58000AC290052201BBB3C8E6553BA285D942E1B
:10B59000C32151BA285D942E4A9BD2A65806523038
:10B5A0001DBB3C8E43568ED2A41625C3A0D4C22404
:10B5B00019A4240B932CCE866C480752361DBB3C35
:10B5C000BE382926C9B02452980C83520B93645874
:10B5D0003A259DB2A4A2150752371DBB3C9E614B74
:10B5E000C22C1996A62C296549322C15A545E9A22D
:10B5F000F4946C6136524D1BBA3DAE308DB2E19081
:10B60000834352AA9486A454290D49A91625CA0237
:10B61000526A1ABB3CBEDA7050A2301A92A8258A30
:10B6200086246AD3E1E11A469B0452A118BB3CBEB2
:10B630001C1B462D8C921CCA11DB141D86384BC373
:10B64000CC0652A81BBB3CFE7088722C87868312E6
:10B6500015A3629444A561C9C2244B230553431723
:10B66000BB3CEE6DD0B11C4B87839A63399663392E
:10B6700096632900535517BB3CBE7A920EA7AC3493
:10B680009CB2D2704E87839A632900535A1DBB3CEB
:10B690009E30AA0C831286CB3055A2D23055A268B8
:10B6A000382451D694A51200536117BB3CCE1C1B05
:10B6B000E41C8B87839863498E447916E7580C53B2
:10B6C0007019BA3DBE781AC64CCC06251333319397
:10B6D000926C881225CCA11053BB17BB3CDE1CCB4F
:10B6E0008721CFB17438A839540EB3E1162700531F
:10B6F000CC1AAB3C8E0731895AA22C298559126687
:10B700004996642D521AC5610053D119BB3CAEC68F
:10B71000288BB27838843936C8599A54B3344BA43C
:10B72000481453D61FBB3C8E73940C4A9464C99042
:10B73000644954898628896A25291AA4244DA2546B
:10B740000C53E30C99458E87DCF7E1A00753EA1808
:10B75000BA3DAE61C8D22CCDD22CCD86214BC32CA4
:10B760004CA35C470253EF18AB3C8E071D0987289A
:10B770008C8A517188C2A88EE5588E4C0053F01601
:10B78000B93DCEBC564D863B920C439446699446D7
:10B79000C3900053F719BB3CAE6108D370187278A0
:10B7A00038883934EC588EE5518E680053F81ABA4F
:10B7B0003C9EE10E0D971C4A862909A3248C9261B8
:10B7C000CAA11C8A1700540C19BA3C8E071D518659
:10B7D0004547A421924A52491A22A9A423BA0054E7
:10B7E0000E1ABB3CFE6D90736C38E5588E25C396DF
:10B7F0008451318A86250B130054271ABB3CCE6135
:10B8000059A2A453D229E994B40CCB1227752C0D5C
:10B81000D37418548C1ABB3C4E79C7B2E19044598A
:10B82000299A4A4A29E9246551960D590E54CD1A90
:10B83000BB3CFE1C0A976150AA4A6551BA285D8636
:10B840002459C2344CC350552E19BB3CAE2C1E4E4D
:10B85000593A5C6AF13068E5E1146771360C0A0008
:10B8600055461DBB3CDE743868C5E154892A59121F
:10B870000DA7244BA26450A2244BA2580156682065
:10B88000BB3C9E2119A24AD412454332C451341CF8
:10B89000B4DAA00C4A94442D513424430256DE18E5
:10B8A000BA3D8E071DD1116988A492549286482A08
:10B8B000E9C8F08E0456E019BB3C8E8FA1182AC34C
:10B8C0009088A1186A4926659192263A343C56FD23
:10B8D00019BA3D8E071D5186450BB55019162D8995
:10B8E000B42819DE91E12056FE19BA3D8E0729953C
:10B8F00006C5144D9A541A926808332D14B3E120EA
:10B90000572818BA3DCE1C4A8743962359A855920A
:10B9100041AB6669960E830057301EBB3CAE308D3E
:10B9200092344A2A43926CD192254A2D4A6A51B2E6
:10B9300029A52D8C0701573E1CBB3CAE64D84A5943
:10B9400029199462964C59A918292D5296664916C0
:10B95000690157401DBB3CAE300DD3301B96344AB5
:10B9600086A89246491A25E990645A120F83005717
:10B970005B1ABB3CAE1C8B062D47861C4A86210AEF
:10B98000D32C9642AD380C621A57831ABB3CAE2CAE
:10B990000ED36838E8489495B2A66C891231C9B1C3
:10B9A00078180257DF1BBB3CAE544B9328190E622C
:10B9B0006529259D924513234DA949899C055899D0
:10B9C0001FBB3C9E348C8621894A83D2140D43923E
:10B9D00063D13024433A254B98340E430058F31674
:10B9E000BB3CDE7438A8F930E8E8F00E65839C456E
:10B9F000C5681E590719BB3CBE1C1B462D8C7624FE
:10BA000051C5E1312A0E431815872102590D1BBB80
:10BA10003CAE1C1B2E6A940C439886C390E6D03033
:10BA200044521D11076908591A17B93DCE7CD0C27E
:10BA300028896255C9A4410B13258AA541045927B9
:10BA400016BB3CDE1CCBB17438A8399643498ED462
:10BA5000B3B4A40B592916BB3C9EE19C6339960EE6
:10BA6000073587921CA967694917593417BB3CBE33
:10BA70002847CA591EE558381CE41C4AF22C2DE907
:10BA800001593916BB3CDE7838E75135A90D073529
:10BA900087923C4B4BBA0059791EBB3CAE308D921D
:10BAA0006C489229499628594A49A7A4B24549AAFF
:10BAB0008449A33A08597D1BBB3CAE1CCB864398F6
:10BAC00025599864A561488AA158C94A59944E00DD
:10BAD000598220BB3CAE1CCB914119A4A41625B5BC
:10BAE000244AB2244AB248CA226950A224D331005F
:10BAF0005B5018BB3CAE61C8A11CCAA11C4B87831C
:10BB00009A633996237528065B5718BB3CDE783854
:10BB10002439220D4A9E43E97050732CC772640584
:10BB20005B5819BB3CCE78386839940C5B9A8959BC
:10BB3000329CC2344CC334DA005B6618BA3D9E288E
:10BB40002B25D170D09168D8911C0987439A43F96D
:10BB5000085B9A1ABB3CDE78382439A223D930C856
:10BB60007994474318C549351B86005B9D18BB3C3B
:10BB7000CE1C4C8777281A863CC7F261C8931C8973
:10BB8000A2E1205B9E18BB3CEE743824652D89B27F
:10BB90007A940E873887923CCB56015BA218BA3D47
:10BBA000CE74384869346C499465B2240D87286C8A
:10BBB0001C26005BA418BB3CDE747887946148C2E5
:10BBC0001CCAD241C9F361C8D3E1205BB619BB3CA2
:10BBD000DE747887946148B224ABB446A2B2A45113
:10BBE000492BAA005BBD1ABB3CDE7478CAA264383C
:10BBF00066E9308451312A26DDA26C0887005BF9A2
:10BC00001BBB3C7E241AC27438855912968A5992FD
:10BC100025619684519AE450065C0F17BB3CDE1CEC
:10BC2000CBB13C2A46599495B250ACE6481D8A01E6
:10BC30005C311EBB3CBEDAB0D49128190E4994D4B5
:10BC400086A41A2559A2F4A22452A5A464025C4039
:10BC50001CBB3CAE61D0E26C18B41C1B4E79940C3A
:10BC60005125AA44439444255D015C4F18BB3CAE6A
:10BC7000E19447C32909B3A8389C1A87535B9445BC
:10BC8000C5085C5E1EBB3C9EE19447C3298F926150
:10BC90000BD36418A224AA24C321C9322519120186
:10BCA0005E161DBB3CAE344CA3411B925A94D4A2E9
:10BCB000A4322C6DCA924559291BA4AC005E2619EA
:10BCC000BB3CAEA6E1203546A5E131548621891A58
:10BCD000A36294E829005E551CBB3C8E07AD3A0C6C
:10BCE000611A0E439864D170D092281A0E52639450
:10BCF00048005E7417BB3CAE1C1B2E61351E06ADA2
:10BD00009C85C341CEB11C0B015E7B1CBB3CAE1CB1
:10BD10008B86294FA23489D2418EF22849932C1C5C
:10BD200086A40E45005E8F18BB3CDE783824399619
:10BD30000C5B25AC0E87248C8AD5301B015E9418D1
:10BD4000BB3CDE1C4C874392634D49D4256A2B478C
:10BD500071160D83005E971ABB3CEE7838E55839B2
:10BD60001BB272326C49982561140D4B1626005E89
:10BD7000A619BB3CDE7838245171383546439863A8
:10BD8000C9B045B5504CA6055F0017BB3C9EE19875
:10BD9000C5599CC559361CB46A9886D52CCE005F0F
:10BDA0000F19BB3CEE2447A23C1C0E723A24799436
:10BDB000677116655A32C4025F1519BA3D8E5B9AD7
:10BDC000A5593268493E0C599AA5599A454998A5F2
:10BDD000015F5316B93DCE5A25AA25A5E18EE44848
:10BDE000320C3A9223C3215F551BBB3CAE61C8B1F4
:10BDF0007018722C1A0E522D4C9458499528D23234
:10BE000051055F971DBB3CAE68D0A22CCA06254ADF
:10BE1000B2D220E9486998D2301986A83194005FDF
:10BE2000AE1FBB3CAEA44D694A0625878624592A1D
:10BE3000A212254B29296549A2644927AD005FC399
:10BE400018BB3CDE1CCCA33CCAD328899372524C4D
:10BE5000A4300DE3410260001CBB3CAE6418A23468
:10BE60004AC22CD1A4A4A2342551256A4CC3344C17
:10BE7000C30C60271DBB3CAE308D922C516A4932F9
:10BE80000C4A294BB4341AB4300DD3304D8621609E
:10BE9000F31FBB3CAE68D0A22C190E599445CBA021
:10BEA00054B4D2202659944449C7441B2400620F3D
:10BEB0001CBB3CEE241B92284DD26818A2A41E1570
:10BEC000A3244CA2308D44A50E0962101BBB3CEE8E
:10BED0002447A2683824611AA64312B5442DB5A898
:10BEE000A59424622662111CBB3CCEA43615A37017
:10BEF000386851AE449994444A164752D29444B19A
:10BF00000062341CBB3C9E412966D1F0D271504A7C
:10BF100049A741A92559340C495365D40262401DF3
:10BF2000BB3C3E51D1B6301D92344A06254AA26828
:10BF300048A262548C6A952C4C00624B17BB3CEEB5
:10BF4000211A742C1ECE39960E0735C7722C8754D1
:10BF50000062531ABB3CAE1C8B868316A661928589
:10BF600062A646491AA6611A6D1300626B1ABB3CA1
:10BF7000AE1C8B86831AE5519246D2A0E84A1EE594
:10BF80005134DC110062841BBB3CAE300DB3415117
:10BF9000B228892A51AA458998B486D52C5C5400C8
:10BFA00062A41ABB3CAE302D0DC93015A362A40C9F
:10BFB0008B9426511EE5493CE40062A51DBB3CAEB6
:10BFC00068D0A22C19B6522226BA322C52D229A9F4
:10BFD00045C528A94C5A0062D21BBB3CAE6898AA42
:10BFE000C31E0D5AA2654A16498352CA4A79944E15
:10BFF000C30063091CBB3CAE302D0D07A91255A22E
:10C000005419162D4A4A52168A59122D9A00636EF7
:10C010001DBB3CAE68988AC31046D1302552A80C8F
:10C020008BD4120D53B2296D49691063891CBB3C36
:10C03000AE300D87531A0D5AA265CA204959521ABB
:10C04000B4304D8643980163A51CBB3CAE304D8691
:10C050008392B584C930445AA80C83924559A4846C
:10C0600095E41663CF1EBB3CAE2C0993E1202561FD
:10C070008E45C3A4941229899468982A51693885F9
:10C080000163D21FBB3CAE548BB6214B936188C277
:10C0900054A958A2484994444AA296281A92610881
:10C0A000641C1DBB3CAE4A9A28C930442D4A222547
:10C0B0005169B88859920C5B54CCB4451A64441E3B
:10C0C000BB3CAE6418A22C4A0665C84A59920C992A
:10C0D00054528641E9A9566919B42864781EBB3CBC
:10C0E000AE2C0993E120256134685196298332658D
:10C0F000D9700AB3244B32451364AD20BB3CAE74F7
:10C100004A866C48DA9261882AB5291A9261889227
:10C11000A86518A224AA28C31064CE1ABB3C8E4B73
:10C120009A44C34B9494B2A5A20D431C0F87341DAF
:10C130000EA20A65361EBB3CBE288FC2281AA62452
:10C140004B22254AA296444A22252B656A544CC2AA
:10C1500000657020BB3C8E28292652362C4364890A
:10C16000122929252DC3524BA22452B2344B925B83
:10C1700000658716BB3CCE1C4C878356CEE22C4F05
:10C1800072A40EE5886D1D65B01DBB3CBE7418140D
:10C19000AD922651362C43564986A5982551D25347
:10C1A0009B92250065B917BB3CCE1C4C87839863D6
:10C1B0003936A8611A56B3380A370065E018BB3C17
:10C1C0009EE19C6339960E0731C9917A9447599440
:10C1D00065EB1065F61CBB3C7E241AC2281A4E6122
:10C1E0005489A2214AA296A81815A321CC910966C8
:10C1F0002F18BB3CBE610DD3610DD361878783547B
:10C200008F862CA966C310663E1CBB3CAE6108D36A
:10C210007018C2341C863849A324CA925296342717
:10C22000E17010667A1FBA3D9E1C1A9241C9A26144
:10C2300090226948A2245286214BB361C8D26C185F
:10C240001200670918BB3CCE78386839368C629684
:10C250000C53311DD6300DD34C02672C17BB3CDE7E
:10C260001C4B8783B827E5A41AD55AA2414A732CE0
:10C2700005673A1CBB3CAE1C8B86302A0D5318D583
:10C28000962853A44AD41215932C89C401676517C4
:10C29000BB3CDE78B845D5A4361CD41CDA936A546E
:10C2A000D2323505677F1DBB3CAE548BB6618FF231
:10C2B0006890962C52A6A494884916265192295A21
:10C2C00000679C19BB3CAE6108A3E2308451711831
:10C2D000F27438887B528D4A5A2668071CBB3CAEE4
:10C2E00068D07264D0916418A230DC4229E9944489
:10C2F00095A831CD3400680F1CBB3CAE629445C993
:10C300009043C930243AB427D1A0D4B11CCBB16436
:10C31000180268371BBB3CAE5A4B341CA4305C0679
:10C3200049CC92304D86210AD3300D3300683C1C35
:10C33000BB3CAE2CCE866448B24A63714A32455B40
:10C34000A2418BB252561A1400684C18BB3CDE4115
:10C35000CE87214CC36108D37018F27438484D5A07
:10C360002668631CBB3CAE308D926858942C4CA35D
:10C370006199132555A261CAA33C8A860169FD1EF5
:10C38000BB3CAE2C0993E1A529198628E9345CA4AD
:10C390002C290D5A9495062DCA12006B4C1EBB3CDD
:10C3A0008E4B1E654B34286DC3A0C459B4645152E2
:10C3B0004A92254AD224CBC6006B7B18BB3C8E0721
:10C3C0002DC7CA4BD4529212A9528FE22C2A46F39F
:10C3D000006BD218BB3CDE7438A8F1704E8783D452
:10C3E000341C942CCA8643AC016C601EBB3C9EB4CA
:10C3F0009464611226953159B244A94549454BA62A
:10C400002C89922C4CC2416CA11BBB3C9E6C08A396
:10C41000C6288BB22D8792618B6A6112896216657C
:10C4200089286CD519BB3C9EB49823831287693E3A
:10C430000C51988969568A06A516066CE81ABB3C09
:10C440009E300EB36C18925A9CA5611A0D8A1AA6DA
:10C45000611A46C3106D4F1ABB3C9E288D8AD2903C
:10C460003426C5A4A9256A99929EB2444F72016DE3
:10C470006A1CBB3C9E304E86250BA36818C52C1940
:10C48000B6A43655A2921625B548136D881BBB3C41
:10C490009EA897E63049862D09A368988ADBB06488
:10C4A0006192854996096DD81DBB3C9E2C8F86D123
:10C4B000940C4945C9A26418A22C9B924E83524702
:10C4C000CA0A006E381FBB3C9E280BA3681BB4DA57
:10C4D000920C599494B224198628895AA24A54B2CB
:10C4E00028006E9024BB3C9E6818A2248BB2645036
:10C4F000A224CB94414A6A51920C43949592444AA7
:10C500004A49A2444A006ED11EBB3C9E6CD0A22C6C
:10C510005E8A4929190649C9A46850B45236485957
:10C52000298B1400706B17BB3CDE1CCBA3AC548C66
:10C530009230CBA12447EA595AD205706F18BB3C00
:10C54000BE1C4B86A5294BB44A1815D3300D2B5968
:10C5500053590270B918BB3CDE1CCBB141CE8721C8
:10C560004CC3341C861C4FA24A161571361BBB3CAB
:10C57000AE2CCE92506A1A06454A93D62809A32CAF
:10C58000AA2AA54A1615724718BB3CAE300DD33007
:10C590001D4E399663C310A6619AC5511E0172598A
:10C5A00018BB3C9EE190C7591A86C321D6917A14D4
:10C5B00067D998431A0072691EBB3CAE2C4CB2304E
:10C5C0008986835251B2A4242515A9A294DA4A95EA
:10C5D000A892290072791EBB3CAE304BA24119B221
:10C5E0004A9825C9304462A60C831215B3244CC363
:10C5F0006C0273A91BBB3CEE21197424C772681925
:10C60000A62C09B3245C4A62528D924C1473B01E5E
:10C61000BB3CDE411992AC94D4A2A432246D515299
:10C620008B929A944462528D924C1B74061ABB3CB6
:10C63000CEE1A96518A2246A89A2E1294CA341D3BD
:10C6400032351F8600751F15BB3CEE5A9CC5C325AD
:10C65000ACE6C390E7588EA5C321752818BA3C9E56
:10C66000E19255B2CA70C92A5965B864952C133342
:10C670003112753515BA3DCE1C4A874B56192E59C5
:10C6800025AB0CD7B0751075C51ABB3CEE783824B5
:10C6900039341CA23054864129B5744A34254AB530
:10C6A0006C767B1BBB3C9E21895A8A499484C56168
:10C6B0005074241BD6301DE6281B0E02767E18AB64
:10C6C0003C8E073587726418C2344CC36108D3307E
:10C6D0000D872102768419BA3DAE2CAC0DC9308984
:10C6E000523A289954924A523AA852A60076D81F34
:10C6F000BB3CDE1C19D6244AA3241B0E59128559B3
:10C70000120E83964449964449321C04770B1ABB97
:10C710003C9EE11C0F831C0F072D0C87214BC22868
:10C720001AD6301D2600771F17BA3DCE743884F90B
:10C73000301687244C86B0341CB228B400774019D8
:10C74000BB3CBEE270CE87218E87831686839225FE
:10C75000C91015D3610277ED1FBB3C9E6818921C6F
:10C760005B06A59495B26448062DC7A22C4AA22464
:10C770008BA36C180278011EBB3CDE4119C4AC943B
:10C7800095A2218912691892284DA24149863489BF
:10C79000DA1105786C1CBB3CDEE190A5D13055A2C6
:10C7A000E430284D49655812295C8A49A44B037826
:10C7B0009F1FBB3CDEA4321CA44A2D4AA6255592DD
:10C7C00061A985C930284BA225521266510078C153
:10C7D0001FBB3CDE2C19A2244C86216A5BA264316B
:10C7E00025C9304449545AA22CB1848B12793A1489
:10C7F000AB3C9EE1CE341CD43C2A46599485625110
:10C8000005793E1ABB3C9EB4980D529CA5D1A069F7
:10C81000A11265499886699826C31079BB1ABB3C5A
:10C82000DE7438484963544C1A87218F87534B94E0
:10C830000C4A142B0079CD1BBB3C3E291BD36878D6
:10C84000895AA2482925CA3028611AA6611A6600A9
:10C8500079FB1BBB3CBEDA412A0E4B948516254C56
:10C86000A221D132254A6A69186D007A0B1DBB3CA2
:10C87000BE6450A6AC942543326839A60C9212854A
:10C88000D2A014D3304D86217A971EBA3DDE70387F
:10C89000286152CA92E1904459940CD39444915423
:10C8A0008992681814007B141BBB3C9E301D92417A
:10C8B00069AA0D4934E4D8100E39362C838EA5E9C7
:10C8C000307B521FBB3C9E341C9441AA64C3298F09
:10C8D000924189F228199428C9922819942856005F
:10C8E0007B7E1BBB3C9E301D9241692A6669126BA0
:10C8F000923228526394C459381C027B8020BB3C7E
:10C900009E301D92614AA2301AA4248DA221895A18
:10C91000A26848A296281A922856007B971CBB3C16
:10C920009E21199452251986300D87214CC36148E8
:10C93000B36C38684531037BB11FBB3CAE301D92F0
:10C9400021899252258B8663545B862849A4248AC8
:10C9500086302A4643027C981DBB3CAE304B4AE1F0
:10C96000364461364869342C4BA824A212855134D0
:10C970004CC5007CFB15B93DEEE19C45C39C67C9E5
:10C9800070CCA2A41655222D7D2018BB3C9EE19CA4
:10C990000F439E0E07314A87210EA3E116956C02C4
:10C9A0007D2217BB3CDE7838A7C3531645838E64BF
:10C9B000D970CE4A259B007EBF1DBB3CAE2C09B36F
:10C9C000A83844D1B80D52B286513244491C95A4BE
:10C9D000249934017ECF1DBB3CAE68D0D22C2A26D0
:10C9E00051124D59254DB24119B21C4BB54C1A8606
:10C9F000007EDC1EBB3CAE2CCE86282B2589122D5A
:10CA0000519A2559A40DCB2067999225DAA0007E72
:10CA1000DD1CBB3CAE2CCE86288BB224192E5212C4
:10CA2000B5D48643926361A48407017EDF1EBB3CBC
:10CA3000AE304D862109D3A4961C86284B1A9368E4
:10CA400088921C6952A264CA067F161EBB3CAE3097
:10CA50004D862189D224190E4A8E24C390444965FB
:10CA6000784C9A96CA140A7F511ABA3D8E071D91C6
:10CA7000B2646951B2482A2989926C49A2853A2246
:10CA80000F800C18BB3C8E073587F2E190442D5186
:10CA90004BD412B5442D514B3C803314BA3D8E8794
:10CAA000286C1CC6E230360E071DCAA108804A2039
:10CAB000BB3C8E210A93441A922E43D2A27419923F
:10CAC00016A58B922CC92025536392450080541ED5
:10CAD000BB3C8E5B9444499624C3B28549160E87AD
:10CAE000A41626593628D5240BD50080FD1FBB3C43
:10CAF000AEB054498645872A833224593C28A52C58
:10CB0000D106254AB2244A22650881111EBB3C9EEB
:10CB10002D4CC22C498665479A9216A5B294928AEA
:10CB2000D2A3940C43A2840181EA10B73EAE7018E0
:10CB30005475B80E5775B806828216BB3CBEDA70C3
:10CB4000D0EA946190B3388BB33899732C0682F98C
:10CB500018BB3CBEDA70D08AC32DAA26519AD4865F
:10CB6000839A6339960283DC1ABB3CBEDA70D0EA42
:10CB7000D8342C6192A5496D386849352A699900E5
:10CB800084DD1BBB3CBEDA70D08A499426D11025C7
:10CB9000CD61369C2A514B940C070185CF1FBB3CBD
:10CBA000CE281B0E6294548643D269199428C992E8
:10CBB0002119965E946450AA8900884C1ABB3CAE39
:10CBC000689072288773281986448D92344CC33438
:10CBD0004CC36C02886818BB3CDE7838E7C390A76A
:10CBE000C3414CA2304A422D534AA928898119BB1E
:10CBF0003C8E0731498753258A866B3C1CB4EA92E8
:10CC00002343382A0089C61CBB3C9E6CD0A22C1939
:10CC100092C6A42D4A4A4B4F492D4C33A925AA64EC
:10CC20000389C81CBB3CBE284DA24169CA92341B73
:10CC300086300DA362548C2A99920DD92089E31F66
:10CC4000BB3CAE6C5086A852CA8621929244C986DB
:10CC500043D2940D87A4294B4A35290289E61EBB8D
:10CC60003C9E381BB2A8180DCAB07419968A521986
:10CC70000E5994D412A53644CA128BA117BB3C9E00
:10CC8000B49863F97008D3300DD3244AB534CCB1CD
:10CC90000C8BB01ABB3C9E1C8C061DCBB164CEA283
:10CCA000418BF2284FC44809A36C108BBA1BBB3CC4
:10CCB0009EB49843499E254B1A655156093335A9B0
:10CCC0004552166583008BBE19BB3C9E6C08A37A47
:10CCD0001467C38E25C316652DA1966649BA098BC4
:10CCE000C41BBB3C9E6818A2308FAA49654C936157
:10CCF00088C23489522D0D732C038BDD1BBB3C9EE7
:10CD0000588B762C5B86210AD3308D062DCA3225AE
:10CD10002B0D7296008BF418BB3C9EAC4B3EC85951
:10CD20003265A541AB8449A394945AC26C8C371ADE
:10CD3000BB3CCE280E4B599469611487E130284AD8
:10CD40009864613AAC61048D2D1EBB3C8E4109B3E1
:10CD5000244C2AC392884A2952DA949EA245292754
:10CD600051AA650A008D341EBB3C8E418BB25252D3
:10CD70001B925A94D4A2A4322C6D4A5B94554AC398
:10CD80009664018D771DBB3CBE1C8B8668D0C23477
:10CD9000190E6194265196244396948645CF862198
:10CDA0008F6C1BBB3CAE301B92414A436518942CE0
:10CDB0001C92418BB3A534A6C534028F6F1CBB3CBB
:10CDC0009E300DC34119943053A2A4324869982E65
:10CDD000A52D09A3AC92068F7D1DBB3CBEE2A0141D
:10CDE000B368780AB36189925A120D521A26C39019
:10CDF000245A94058F911EBB3CAE6C4806252A0E22
:10CE0000918E948683126599922D89B24552326C27
:10CE100071028FC71ABB3C9E384CC3641872249AA7
:10CE20008A5912A6611A865A9267C3108FD41CBB06
:10CE30003C9E5C8A8630CAB1E1A445955A544CA206
:10CE4000248BB4A49E0D43008FD81ABB3C9E681857
:10CE5000A234AC63D9A664511255A2C634ACE4D94D
:10CE600030048FD91ABB3C9E300EF3E190865131CD
:10CE70004BC26A968489162579360C018FDB1ABB62
:10CE80003C9E2C0AA36232CC513415875363544C18
:10CE9000B24A1865C31090011BBB3C9EAC4B180DE9
:10CEA0003A928D69320C51986649186551A26AC34D
:10CEB0001090021BBB3C9E584B8634CC874398464F
:10CEC000831665A5418BB228C9B3610890531BBB7B
:10CED0003C9EAC4B980C439E4D831665A5418BB28E
:10CEE000D2202579360C0190A31FBB3C8ECB105568
:10CEF000A296CAB0D4A2A41625D13024518B1255C3
:10CF00004A5992654A0690AE1DBB3CAE6C90B26C1D
:10CF100058A2A453D2D3A0444937A56D582A5A1217
:10CF2000E5210090E821BB3CBE6C784AB224AA44BB
:10CF30004932DCA1241A9428C99228C912251994CF
:10CF40005296640090FD20BB3CBE68500625CA92F4
:10CF500096E158C986244AA4245286246A51A22103
:10CF6000A9454906914D1EBB3C8E41199472521E33
:10CF700056A5320C891266493828619664C39269B5
:10CF8000C92091771EBB3C8E41AB44499644C341B6
:10CF9000AAD4224519B67850862DC98665D8922C18
:10CFA00091CC17BB3C9EE19495B2D270CA4A5969A4
:10CFB00038C7C3391D0E0294AE1FBB3C9E1CCB0666
:10CFC00069889272920C5292458332285156CA92C5
:10CFD0005226D592610894FE1BBB3C9E348C924134
:10CFE000596A69120D07A96938488D51718993688A
:10CFF0000895011DBB3CAE24EA524AC36550C22CC1
:10D000005ADAA2A432246D5152939230D104952E53
:10D010001FBB3C9E64CAB26151B2444B868394D418
:10D0200086532D498625CA3245CA92681095ED1A55
:10D03000BB3C9E6C987235533365181251D3924C99
:10D04000AA2959266AFA0096321EBB3C8E210AA3F1
:10D05000AC920CC74A3624514BD4A24495529664E4
:10D060006112651200964421BB3C8E21AA442DA575
:10D070002CD1862149B4244A3A2591A2D4925296C1
:10D08000845912460A0096641EBB3C8E212B55A281
:10D0900024CA12295994308B8653964D495B144902
:10D0A00059A46A0096F618BB3C9EE19C0E4F492994
:10D0B0009C3549CBA461C8A17CC73400976218BADB
:10D0C0003D8E873047E2E12095A421924AD2104953
:10D0D000A5E11D0997F319BB3CDE78386679120E7D
:10D0E000071D1E86300D87214CC361880098751975
:10D0F000BB3C8E07351F86300DA362548C8A91127B
:10D10000477128C9090098911FBB3CBE68508A59D5
:10D11000320C4A291B06A516255D9416A522554AF0
:10D120006192685A009F201CBA3D8E2119923C19C9
:10D130009221C993E10E4A4A9454244BA2B40CCADA
:10D140001400001815A115C819FF1815A015C0194D
:10D15000FF1815AE15D5168015A8163F15D3160065
:10D160001540158D16141520160015A115C815DAD1
:10D170001612158116CF15D916F115DB1640152E8E
:10D1800015A415A619FF1815AF19FF1815AE19FF2C
:10D190000001140A6464323200127A0000042896F6
:10D1A0001008000080004000C8D1000800000020E6
:10D1B00078000000DC8C000840D2000878000020D5
:10D1C000D00E0000EC8C0008000000000000000001
:10D1D00001000000100000000024F400B1AA0008C3
:10D1E0000000804000002041000080409A99993F53
:10D1F00025AB00089A9999BF9A99993F00000000C1
:10D20000CDCCCC3D92AB00080000000000002041D6
:10D210000000803F9A99993F0B000000D2AA0008B5
:10D22000000000000C0000009DAB000801000000A1
:10D230000A0000007FAC00080000000000000000B1
:0400000508000131BD
:00000001FF
