:020000040800F2
:1000000080060020DD0100083906000831060008DE
:100010003506000815050008B10A000800000000B8
:100020000000000000000000000000002908000897
:100030001905000800000000C106000815090008A5
:10004000DD0A0008F7010008F7010008F7010008C1
:10005000F7010008F7010008F7010008F7010008A0
:10006000F7010008F7010008F7010008F701000890
:10007000F7010008F7010008F7010008F701000880
:10008000F7010008F7010008F7010008F701000870
:10009000F7010008F7010008F7010008F701000860
:1000A000F7010008F7010008F7010008F701000850
:1000B00079090008F7010008F7010008F7010008B6
:1000C000F7010008F7010008F7010008F701000830
:1000D000F7010008F7010008F7010008F701000820
:1000E000F7010008F7010008F7010008F701000810
:1000F000F7010008F7010008F7010008F701000800
:10010000F7010008F7010008F7010008F7010008EF
:10011000F7010008F7010008F7010008F7010008DF
:10012000F7010008F7010008F7010008F7010008CF
:1001300000F002F800F042F80AA090E8000C8244B7
:100140008344AAF10107DA4501D100F037F8AFF294
:10015000090EBAE80F0013F0010F18BFFB1A43F0A5
:1001600001031847B80B0000D80B0000103A24BF59
:1001700078C878C1FAD8520724BF30C830C144BF0C
:1001800004680C607047000000230024002500264E
:10019000103A28BF78C1FBD8520728BF30C148BFEA
:1001A0000B607047642900F0A580732900F04D8131
:1001B000002070471FB51FBD10B510BD00F078F9C5
:1001C0001146FFF7F7FF00F003FD00F096F903B4C6
:1001D000FFF7F2FF03BC00F0D3FC000009488047A2
:1001E00009480047FEE7FEE7FEE7FEE7FEE7FEE719
:1001F000FEE7FEE7FEE7FEE704480549054A064B31
:100200007047000019090008310100088000002033
:10021000800600208002002080020020704700003D
:100220000FB4044910B503AA029800F013F910BCEA
:100230005DF814FB140000202DE9F0410E46044641
:10024000002020622046E168884730B3252805D089
:10025000D4E901219047206A401CF2E7E16820467A
:1002600000278847050018D0A5F14100192802D8B9
:1002700020354FF400673246294620462760FFF7B5
:1002800091FF40B1012804D0F61D26F0070608367C
:10029000D8E7361DD6E72846DAE7206ABDE8F081C0
:1002A00070B50C460546012A05D02878800600D591
:1002B000EA69002302E0012305E05B1C934202D2BD
:1002C000E05C0028F9D1A869E618C01AA861286A7C
:1002D000184428622846AFF3008004E0D5E90121E4
:1002E00014F8010B9047B442F8D32846AFF30080CE
:1002F00070BD00002DE9F041064600241068752904
:10030000314616A510D0AFF30080002802DA404233
:1003100013A507E031688A0701D512A502E0490755
:1003200004D511A5012401E0AFF3008000210A22C9
:1003300006F1240709E0B0FBF2FCB0FBF2F302FB8C
:100340001C00303078541846491C0028F3D123464D
:100350002A463046BDE8F04100F00CB8000000002D
:100360002D0000002B0000002000000070477047A7
:10037000704770472DE9F0470D469946924604466E
:1003800000F124080168880604D5E06921F0100115
:10039000216000E00120A84201DD471B00E00027AA
:1003A000A1697A1902EB0900081AA0612078C00639
:1003B00002D42046AFF30080002608E0D4E90121F2
:1003C0001AF806009047206A401C761C20624E45B1
:1003D000F4DB2078C0060AD52046AFF3008006E0A3
:1003E000D4E9012130209047206A401C2062381E49
:1003F000A7F10107F4DC07E0D4E9012118F80500B2
:100400009047206A401C2062281EA5F10105F3DCFC
:100410002046AFF300802078000602D50220BDE818
:10042000F0870120FBE710B5436913B1AFF30080FB
:1004300001E0FFF735FF012010BD127800F1240123
:100440000A7000224A700122EDE711684FF0FF3276
:10045000E9E70000074B70B50D467B4400F011F84A
:100460000446284600F020F810B14FF0FF3070BD70
:10047000204670BD3307000001694A1C02610878FC
:10048000704700B58FB0CDE90131002105910549D4
:100490007944CDE9031011466846FFF7CDFE0FB051
:1004A00000BD0000E5FFFFFF007B00F0800070470B
:1004B000754600F02BF8AE4605006946534620F01D
:1004C0000700854618B020B5FFF796FEBDE820402E
:1004D0004FF000064FF000074FF000084FF0000B00
:1004E00021F00701AC46ACE8C009ACE8C009ACE8B3
:1004F000C009ACE8C0098D46704710B50446AFF39B
:1005000000802046BDE81040FFF761BE00487047FC
:100510001C00002000BFFEE770472DE9F0410246B5
:1005200000250026002000230024002791F803C0A6
:100530000CF00F0591F803C00CF0100CBCF1000F8B
:1005400003D091F802C04CEA050591F800C0BCF157
:10055000000F31D0146800202BE04FF0010C0CFA92
:1005600000F3B1F800C00CEA03069E4220D18300DC
:100570004FF00F0C0CFA03F7BC4305FA03FC4CEAEE
:10058000040491F803C0BCF1280F06D14FF0010C10
:100590000CFA00FCC2F814C00AE091F803C0BCF1E8
:1005A000480F05D14FF0010C0CFA00FCC2F810C046
:1005B000401C0828D1D31460B1F800C0BCF1FF0F73
:1005C00034DD546800202EE000F1080C4FF00108E3
:1005D00008FA0CF3B1F800C00CEA03069E4221D1E0
:1005E00083004FF00F0C0CFA03F7BC4305FA03FC31
:1005F0004CEA040491F803C0BCF1280F05D100F1C6
:10060000080C08FA0CF8C2F8148091F803C0BCF189
:10061000480F07D100F1080C4FF0010808FA0CF858
:10062000C2F81080401C0828CED35460BDE8F08189
:1006300000BFFEE700BFFEE77047000070B5002175
:1006400000230F22C47804B3154C246804F4E0643A
:10065000C4F5E064210AC1F10403CA40447804FAF5
:1006600003F184781440214309010E4C0678A1550A
:10067000047804F01F050124AC4005786D11AD002D
:1006800005F1E025C5F8004109E0047804F01F05F4
:100690000124AC40044D0678761145F8264070BD23
:1006A0000CED00E000E400E080E100E002490143DD
:1006B000024A1160704700000000FA050CED00E0EE
:1006C0007047000029B1064AD2690243044BDA613F
:1006D00004E0034AD2698243014BDA6170470000AB
:1006E0000010024029B1064A92690243044B9A6104
:1006F00004E0034A92698243014B9A61704700000B
:10070000001002400348406A40F08070014948628E
:10071000704700000010024030B500210022002484
:1007200000232D4D6D6805F00C0121B1042905D081
:10073000082923D105E0294D056022E0274D0560F9
:100740001FE0254D6D6805F47012234D6D6805F4AA
:100750008034022505EB92421CB9214D55430560BA
:100760000BE01D4D6D6805F400351DB11C4D554362
:10077000056002E0194D5543056002E0174D056024
:1007800000BF00BF144D6D6805F0F0010909154D5B
:100790006B5C0568DD4045600F4D6D6805F4E061F8
:1007A000090A104D6B5C4568DD4085600A4D6D6837
:1007B00005F46051C90A0B4D6B5C4568DD40C560AE
:1007C000054D6D6805F44041890B074D6B5CC568AC
:1007D000B5FBF3F5056130BD0010024000127A0050
:1007E00000093D00000000201000002010B5014667
:1007F0000022002300204A11012A02D1094C23685B
:1008000006E0022A02D1074C236A01E0054C636A24
:1008100001F01F02012494401C400CB1012000E0B3
:10082000002010BD00100240704710B500F002F823
:1008300010BD00000CB50020019000903348006806
:1008400040F480303149086000BF3048006800F44F
:10085000003000900198401C0190009818B9019850
:10086000B0F5A06FF1D12948006800F4003010B154
:100870000120009001E0002000900098012843D161
:100880002348006840F010002149086008460068CD
:1008900020F0030008600846006840F0020008608D
:1008A0001A48406819494860084640684860084648
:1008B000406840F4806048600846406820F47C103E
:1008C00048600846406840F4E81048600846006800
:1008D00040F08070086000BF0C48006800F00070B5
:1008E0000028F9D00948406820F003000749486013
:1008F0000846406840F00200486000BF0348406876
:1009000000F00C000828F9D10CBD000000100240D6
:10091000002002407047000010B51348006840F006
:1009200001001149086008464068104908400E4916
:100930004860084600680E4908400B4908600846B0
:10094000006820F4802008600846406820F4FE001B
:1009500048604FF41F008860FFF767FF4FF00060AA
:100960000449086010BD0000001002400000FFF8BC
:10097000FFFFF6FE08ED00E010B50121880700F04A
:100980000EF8012805D1034908700121800700F005
:1009900003F810BD18000020CA430282704730B52A
:1009A0000246002000230024158A05EA01039589E8
:1009B00005EA010413B10CB1012000E0002030BDB4
:1009C00021B1828942F40052828104E082894DF68D
:1009D000FF731A40828170472DE9F04786B00546C3
:1009E0000E460024A24600BFA1460027B08900B1F0
:1009F00000BF2F462C8A4CF6FF700440F088044359
:100A00002C82AC894EF6F3100440B088318908433B
:100A1000718908430443AC81AC8A4FF6FF4004401F
:100A2000B0890443AC8201A8FFF776FE1F488742D5
:100A300002D1DDF810A001E0DDF80CA0A88900F4D7
:100A4000004040B10AEBCA0000EB0A1031684900CF
:100A5000B0FBF1F807E00AEBCA0000EB0A103168BE
:100A60008900B0FBF1F86420B8FBF0F00401200924
:100A7000642101FB1089A88900F4004040B13220B4
:100A800000EBC900B0FBF1F000F00700044308E000
:100A9000322000EB09106421B0FBF1F000F00F00F0
:100AA00004432C8106B0BDE8F08700000038014007
:100AB00000BFFEE70020014908607047082C004095
:100AC00040F08001014A116070470000002C004096
:100AD0000120014908607047A480054210B50A480A
:100AE000006808B9012000E00020044614B17F200E
:100AF00000F01EF800BF224604A106A0FFF790FBFD
:100B000000BFFFF7D7FF10BD000121426D61696E84
:100B1000000000005B442F25735D5B4953525D204C
:100B20006665656420646F673A2025640D0A0000DD
:100B300000F07F01014A116070470000002C004066
:100B40000021044A126822F4C0710143014A116075
:100B500070470000042C004008B5002100910749AF
:100B6000096821F07F01009100F07F01009A114394
:100B70000091024A0099116008BD0000042C004059
:100B800000BF704710B500F011F800F089F810BDF3
:100B900000BF054A128802F04002002AF9D0C2B212
:100BA000014B1B1D1A8070470044004008B501210D
:100BB0000420FFF797FD0120ADF8000028208DF8F4
:100BC000030069460148FFF7A8FC08BD0008014082
:100BD00008B5FFF7D7FF7E20FFF708FE012807D1F1
:100BE00000BF1EA11FA0FFF71BFB00BFFFF78AFD80
:100BF0004FF4C060FFF75AFD00208DF800008DF81B
:100C000001008DF802006846FFF718FD0121C802B7
:100C1000FFF758FD4FF4C070FFF792FF5F20FFF71A
:100C20009BFF7F20FFF74CFFFFF744FFFFF750FFCC
:100C300000BF1248006800F07F051048001D0068E2
:100C400000F07F04A54208DA7F20FFF771FF00BFA4
:100C500002A10BA0FFF7E4FA00BFEAE76D61696E3D
:100C6000000000005B442F25735D7761746368208A
:100C7000646F672072657365740D0A00002C004074
:100C80005B442F25735D5B506F6C6C696E675D20F4
:100C90006665656420646F673A20310D0A000000C4
:100CA00000B585B001210420FFF71CFD0121480497
:100CB000FFF708FD0420ADF8100003208DF81200A6
:100CC00018208DF8130004A91248FFF726FC08200D
:100CD000ADF8100004208DF8130004A90D48FFF7AB
:100CE0001CFC4FF4E13000900020ADF80400ADF89A
:100CF0000600ADF80800ADF80C000C20ADF80A00B5
:100D000069460548FFF768FE01210348FFF758FED2
:100D100005B000BD00080140004400403C0D000843
:100D2000000000201C0000006C010008580D0008A5
:100D30001C0000206406000088010008000000007C
:100D4000010203040102030406070809020406085D
:080D500000000000000000009B
:0400000508000131BD
:00000001FF
