:020000040800F2
:100000006818002071020008EF2100089B200008FA
:10001000ED2100081312000865260008000000000A
:100020000000000000000000000000004124000863
:10003000151200080000000069230008432400088E
:100040008B0200088B0200088B0200088B0200085C
:100050008B0200088B0200088B0200088B0200084C
:100060008B0200088B0200088B0200088B0200083C
:100070008B0200088B0200088B0200088B0200082C
:100080008B0200088B0200088B0200088B0200081C
:100090008B0200088B0200088B0200088B0200080C
:1000A0008B0200088B0200088B0200088B020008FC
:1000B0008B0200088B0200088B0200088B020008EC
:1000C0008B0200088B0200088B0200088B020008DC
:1000D0008B020008592600088B0200088B020008DA
:1000E0008B0200088B0200088B0200088B020008BC
:1000F0008B0200088B0200088B0200088B020008AC
:100100008B0200088B0200088B0200088B0200089B
:100110008B0200088B0200088B0200088B0200088B
:100120008B0200088B0200088B0200088B0200087B
:1001300000F002F800F073F80AA090E8000C824486
:100140008344AAF10107DA4501D100F068F8AFF263
:10015000090EBAE80F0013F0010F18BFFB1A43F0A5
:100160000103184730540100505401000A444FF075
:10017000000C10F8013B13F0070408BF10F8014B06
:100180001D1108BF10F8015B641E05D010F8016B4B
:10019000641E01F8016BF9D113F0080F1EBF10F8AF
:1001A000014BAD1C0C1B09D16D1E58BF01F801CBD2
:1001B000FAD505E014F8016B01F8016B6D1EF9D555
:1001C0009142D6D37047000000230024002500266A
:1001D000103A28BF78C1FBD8520728BF30C148BFAA
:1001E0000B607047662905F0CA85642900F0E48039
:1001F000732900F06085002070471FB59DE803005B
:1002000000F0D2FD00F0C5F900F0AEFD04000020C2
:10021000002105F019F8E0601FBD10B510BD00F019
:1002200001FF1146FFF7E9FF04F088F800F039FFFD
:1002300003B4FFF7F2FF03BC04F034F80B49D1F824
:1002400000C04A685CF8043B1068184442F8040B8C
:100250008C4528BFA1F1DC0C8A4228BFA1F1DC0249
:10026000C1F800C04A6020F000407047040600203A
:100270000948804709480047FEE7FEE7FEE7FEE73A
:10028000FEE7FEE7FEE7FEE7FEE7FEE70448054976
:10029000054A064B704700009B2400083101000806
:1002A00068080020681800206810002068100020EE
:1002B00070B5A0FB0140B4F1805170F1000024BF83
:1002C000002070BD204600F0FEF905001CBF21464D
:1002D00000F0ADF9284670BD0FB4044910B503AA6B
:1002E000029800F0EDFC10BC5DF814FB74070020D0
:1002F0000FB41CB5074B06AA7B44694600900598CD
:1003000000F0AFFC0020694600F0BEFC1CBC5DF8AC
:1003100014FB00008D09000070B504468569006873
:10032000C10601D5302600E02026C00707D070BDE9
:10033000D4E9012130469047206A401C20626D1E9E
:10034000F6D570BD70B5044685690078C00707D141
:1003500070BDD4E9012120209047206A401C206212
:100360006D1EF6D570BD70B50C460546012A05D048
:100370002878800600D5EA69002302E0012305E021
:100380005B1C934202D2E05C0028F9D1A869E61810
:10039000C01AA861286A184428622846FFF7BCFFE3
:1003A00004E0D5E9012114F8010B9047B442F8D3D9
:1003B0002846FFF7C7FF70BD2DE9F041064600242F
:1003C00010687529314616A510D0AFF300800028BB
:1003D00002DA404213A507E031688A0701D512A569
:1003E00002E0490704D511A5012401E0AFF3008024
:1003F00000210A2206F1240709E0B0FBF2FCB0FB61
:10040000F2F302FB1C00303078541846491C0028D7
:10041000F3D123462A463046BDE8F04100F0B4B996
:10042000000000002D0000002B0000002000000054
:100430002DE9F05F894604464FF0000ADFF824B149
:10044000FB44C0F820A02046E168884700287DD002
:10045000252806D0D4E901219047206A401C20625B
:10046000F1E700255F462046E168884720280646D8
:1004700007DB312E05D2B81910F8200C08B105435E
:10048000F1E7A80701D525F00405C4F81CA0002752
:10049000C4F818A02A2E09D0304604F04BFD38B31A
:1004A00004EB8708303EC8F8186019E059F8041BBF
:1004B000204604EB87029161E1688847012F0646D8
:1004C00018D1E069002820DA25F020051DE0D8F8D1
:1004D000180000EB800006EB40003038C8F8180028
:1004E0002046E1688847064604F024FD0028EED146
:1004F000012F0AD02E2E08D12046E16888477F1CA4
:100500000646022F45F02005C4DBA069002803DA67
:10051000404245F00105A061E80701D025F0100533
:10052000A6B1A6F14100192802D8203645F400658D
:100530004A463146204625604D46FFF753FE60B1DE
:10054000012807D0ED1D25F0070000E007E000F1CD
:10055000080978E705F1040975E730467AE7206A6B
:10056000BDE8F09F1E5A00000B4910B5A1F17C02B6
:100570000A4CC2E93712372106E000EB104342F87B
:100580002130074B00FB03400B1EA1F10101F4DCFD
:1005900010BD0120E8E70000A4050020E119D6669F
:1005A000CD0D0100032A40F2308010F0030C00F062
:1005B000158011F8013BBCF1020F624498BF11F89D
:1005C00001CB00F8013B38BF11F8013BA2F1040256
:1005D00098BF00F801CB38BF00F8013B11F00303CE
:1005E00000F08B83083AC0F0088051F8043B083AC9
:1005F00051F804CBA0E80810F5E7121D5CBF51F8D4
:10060000043B40F8043BAFF30080D20724BF11F84D
:10061000013B11F801CB48BF11F8012B24BF00F8B2
:10062000013B00F801CB48BF00F8012B70474FF0A9
:1006300000020429C0F0128010F0030C00F01B80AF
:10064000CCF1040CBCF1020F18BF00F8012BA8BFBD
:1006500020F8022BA1EB0C0100F00DB85FEAC17C81
:1006600024BF00F8012B00F8012B48BF00F8012B34
:1006700070474FF0000200B5134694469646203965
:1006800022BFA0E80C50A0E80C50B1F12001BFF44B
:10069000F7AF090728BFA0E80C5048BF0CC05DF8B1
:1006A00004EB890028BF40F8042B08BF704748BFFF
:1006B00020F8022B11F0804F18BF00F8012B704773
:1006C00070477047704770B5064600F049FB0568F3
:1006D00006F10B0020F00704B4429CBF002070BD5F
:1006E0002B466A68BAB11068A04210D304F1080121
:1006F00088423CBF5068586007D351681019416068
:100700001168091B016058601460101D70BD13460C
:100710005268002AE7D12146284600F031FB002824
:10072000DED170BD70B50446051F00F019FB0068EE
:10073000002C14BF446870BD002C18BFAC423CBFF5
:1007400020466468F8D301680A18AA4218BF4560B9
:1007500003D12A6805461144016028684119A14265
:100760001CBF6C6070BD61686960216808442860C6
:1007700070BD10B500F0FCFA006810BD10B504465D
:1007800000F0F6FA046010BD2DE9F0470D469946D9
:100790009246044600F124080168880604D5E06901
:1007A00021F01001216000E00120A84201DD471B7B
:1007B00000E00027A1697A1902EB0900081AA0617C
:1007C0002078C00602D42046FFF7A6FD002608E0E8
:1007D000D4E901211AF806009047206A401C761CD3
:1007E00020624E45F4DB2078C0060AD52046FFF78C
:1007F00093FD06E0D4E9012130209047206A401C97
:100800002062381EA7F10107F4DC07E0D4E90121DA
:1008100018F805009047206A401C2062281EA5F1A8
:100820000105F3DC2046FFF78DFD2078000602D598
:100830000220BDE8F0870120FBE72DE9FF4F0C46C1
:100840001E464FF0FF378BB0D2E90001DDF8608023
:100850000A908A46C1F30A5505B93D46002108466B
:100860004FF00000BAF1000F00F4400005DA00EB91
:1008700080004FF4400101EA50004FEA9059B9F16D
:10088000010F00DDB9460A9850EA4A000ED044F63E
:100890001050A5F2FF3545432F14B8F1000F1ED0BC
:1008A0007542291E1EDDC9F100021CE0B8F1010FDE
:1008B0004FF0000001D0302103E0F24305E0215465
:1008C000401CB042FBDB30460022002121540B9932
:1008D000C1F80880C1E900200FB0BDE8F08FBD1B52
:1008E0006D1CDEE74A4600DA694206A800F018FBF4
:1008F00006AB93E8070003AB83E8070050460A996C
:1009000003F068FE8DE80700A0F500501F38009046
:100910000398002D0ADD42F21F014A4608440023D5
:1009200003A90390684604F0D1F809E0A0F500504F
:100930004A461F38002303A90390684604F0DBF8F9
:100940008DE807000004000C03D04FF0FF30410891
:1009500000E01046B8F1000F03D0002200921546C7
:100960001EE0751E05D400F055FA303262556D1E3A
:10097000F9D5B3460122084302D000227F1C04E0CF
:100980002078302801D100227F1E002A099784D0C8
:100990001DE0112D07DA00F03DFA303262556D1C72
:1009A00050EA0102F5D1084302D00098C8B10EE028
:1009B0000021681E05E0235C625C63542254401EE3
:1009C000491C8142F7DBAB46A81B401E0990002062
:1009D00004F80B000B98099AC0F80880C0E9002BB6
:1009E0007AE711264FF0000857E72DE9F04F8846C7
:1009F0000446D21D22F0070191B0D1E90001CDE9F2
:100A00000A0104F0AFF902460B98C00F01D02D2067
:100A100007E02068810701D52B2002E0202101EAB0
:100A2000C000032A099001D0072A05DB034641468E
:100A3000204600F035FA0BE12078800601D5E06908
:100A400000E00620B8F1650F814606D0B8F1660FC8
:100A500018D0B8F1670F70D131E00020B9F1110F53
:100A6000009001DB112301E009F101030AAA01A9A9
:100A70000CA8FFF7E2FEDDE90C70002609F1010584
:100A8000834647E001204B4600904FF000470AAAFA
:100A900001A90CA8FFF7D1FEDDE90DB00C995D4668
:100AA000002610B909F101000D18B9EB050003D4B7
:100AB000C0F1FF3609F10105A5EB09002BE0B9F102
:100AC000010F01DA4FF001090020B9F1110F009078
:100AD000484601DD112300E003460AAA01A90CA83B
:100AE000FFF7ABFEDDE90C704D460026834620780B
:100AF00000070AD4AB4500DA5D4601A8012D04DDEC
:100B0000411911F8011C302907D04F4502DA17F1BD
:100B1000040F04DA012082460FE06D1EEEE7002F7D
:100B200002DCED1B3E4403E0781CA84200DD7D1C86
:100B3000B81B00F1010A4FF000472078000703D4EA
:100B4000AA4501DB4FF0FF3A0021B7F1004F0DF14C
:100B500043088DF8431024D002202B23002F01DA04
:100B60007F422D230A21021EA0F1010000DC5FB1AB
:100B700097FBF1FC97FBF1F201FB1C7C17460CF193
:100B8000300C08F801CDEEE7A8F1010003702188D0
:100B9000090501D5452100E06521A0F1010800F813
:100BA000011C09980FA9A1EB0807FF1D00B1012046
:100BB000411901EBEA70A1693844081A401EA0618E
:100BC0002078C00602D42046FFF7A6FB099828B17A
:100BD000D4E901219047206A401C20622078C00699
:100BE00022D52046FFF798FB1EE0002E04DBB3451C
:100BF00002DD01A8805D00E03020D4E901219047AA
:100C0000206A401C2062761CAAF101005FEA000AFB
:100C10000AD100F0A9F8C0680168405CD4E901215C
:100C20009047206A401C2062281EA5F10105DCDCEB
:100C300007E0D4E9012118F8010B9047206A401C15
:100C40002062381EA7F10107F3DC2046FFF77AFB8C
:100C5000032011B041E6000001694A1C02610878D6
:100C6000704700B58FB0CDE90131002105910549EC
:100C70007944CDE9031011466846FFF7D9FB0FB060
:100C800000BD0000E5FFFFFF0A6802F8010B0A60E3
:100C9000704710B5436913B1AFF3008001E0FFF76F
:100CA00062FB012010BD127800F124010A700022BD
:100CB0004A700122EDE711684FF0FF32E9E70000CA
:100CC000074B70B50D467B44FFF7CBFF0446284623
:100CD00000F098F910B14FF0FF3070BD204670BDA4
:100CE000E335000010B5002000F090F9FFF795FA09
:100CF000BDE81040012003F0D5BA10B5203AC0F08D
:100D00000B80B1E81850A0E81850B1E81850A0E8DE
:100D10001850203ABFF4F5AF5FEA027C24BFB1E877
:100D20001850A0E8185044BF18C918C0BDE81040BA
:100D30005FEA827C24BF51F8043B40F8043B08BFC3
:100D40007047D20728BF31F8023B48BF11F8012B8A
:100D500028BF20F8023B48BF00F8012B7047000075
:100D60000048704714060020004870472C060020F9
:100D7000004870470C060020704770477047704766
:100D800038B504460A4600206946AFF300800028C3
:100D900008BF38BD02460099204600F068F90120DE
:100DA00038BD012000F0A4B9F8B5AFF300800546C6
:100DB00000200C46102000BF0646A819A0420DD9FD
:100DC000324669460020AFF30080070008BF00F0FC
:100DD0008FF90098A04218BF0546C419FFF7C0FF5D
:100DE00005600746F01D20F007004619284600F070
:100DF0000AF8B44208BFF8BDA21B31463868BDE806
:100E0000F84000F034B900210160C0E901107047DA
:100E10001020704730B5B0F10A0271F100034FEABB
:100E2000900E4EEA817EB0EB0E0061EB91014FEA2D
:100E3000101E4EEA017E10EB0E0041EB11114FEA3D
:100E4000102E4EEA016E10EB0E0041EB11214FEA1D
:100E5000104E4EEA014E10EB0E0041EB11414018CE
:100E600041F100014FEAD00040EA41704FEAD10160
:100E70004FEA810444EA907410EB800544EB0104CE
:100E80006D1944EB0404521BA3414FF0000348BF0B
:100E90000A3200D530BD401C41F1000130BD0000D8
:100EA0002DE9F0411F46044603260168072A01F494
:100EB000006004DB08B116A505E016A503E008B143
:100EC00015A500E015A521F010002060A069C01E46
:100ED000A0610FB1401EA0612046FFF71DFA4FB17F
:100EE000D4E9012138469047206A401C2062C01C8A
:100EF000206206E0206AFAE7D4E9012115F8010B27
:100F00009047761EF8D22046FFF71CFABDE8F08124
:100F10004E414E006E616E00494E4600696E66009D
:100F20002DE9F047814616468AB0354878440DC809
:100F30008DE80D0032487844801C03AC0DC884E86D
:100F40000D0041F69B300844372190FBF1F290FBF5
:100F5000F1F5A5F1800501FB12041B3C02D56442AA
:100F6000012000E00020DFF898A080460027FA4426
:100F7000AAF1BE0A0EE0E0070AD03246684607EB47
:100F8000470101230AEB810103F0B5FD8DE807005D
:100F900064107F1C002CEED1194F7F44AE3F19E046
:100FA000E80715D007EB04100DF1180A90E80E00C1
:100FB0008AE80E00C068F04201D1981908903246C4
:100FC000012306A903A803F096FD03AB83E80700FD
:100FD0006D10641C002DE3D14FF0010332466946C9
:100FE000B8F1000F03A802D003F070FD01E003F098
:100FF00082FDC9E90001C9F808200AB0BDE8F08700
:10100000E04F0000007B00F08000704710B500F05A
:1010100057F8BDE8104000F04DB800000048704798
:101020000C0600207546FFF7F9FFAE46050069463D
:10103000534620F00700854618B020B5FFF726F983
:10104000BDE820404FF000064FF000074FF00008C9
:101050004FF0000BAC46ACE8C009ACE8C009ACE806
:10106000C009ACE8C00921F007018D46704703466E
:1010700040688C46002818BF88423CBF0346406841
:10108000F8D318681844884207D00CF1030020F008
:101090000700001D411A521A0146081D0A60FFF799
:1010A00041BB10B50446AFF300802046BDE81040B8
:1010B000FFF7BEB8002801D003F0F4B87047000075
:1010C00010B5002102A000F05CF8012010BD000066
:1010D000534947414252543A2041626E6F726D61EA
:1010E0006C207465726D696E6174696F6E000000CA
:1010F00010B500F05FF8BDE81040FFF7DBBF00005F
:101100004FF0013C50F8042B51F8043B9A4221D196
:10111000A2EB0C03934313EACC1317D150F8042B22
:1011200051F8043B9A4215D1A2EB0C03934313EA06
:10113000CC130BD150F8042B51F8043B9A4209D13F
:10114000A2EB0C03934313EACC13DBD04FF0000067
:10115000704700BFD01A01BAB1FA81F101F018014D
:1011600022FA01F0CB40DBB2C0B2C01AC1F12001BB
:101170002CFA01F3D11A914311EAC311E6D1704759
:10118000704770B505460C460A2000E06D1C00F063
:1011900039F835B128780028F8D102E0641C00F055
:1011A00031F814B120780028F8D1BDE870400A2049
:1011B00000F028B810B5012805D0002103A0FFF7E2
:1011C000E0FF012010BD09A1F8E700005349475294
:1011D000544D454D3A204F7574206F662068656107
:1011E00070206D656D6F7279000000003A204865CF
:1011F0006170206D656D6F727920636F72727570AA
:101200007465640008B569468DF800000320ABBE24
:1012100008BDFEE77047704710B590F8211002290D
:1012200011D10168D0E90F230C6824F00E040C6082
:101230000C6824F001040C60012180F82110994011
:101240005160002102E0042181630121002280F825
:101250002020084610BD000010B590F8211002298A
:1012600019D10268116821F00E011160116821F096
:1012700001011160294901F17C039A420FD92F4BDA
:101280009A4224D02E4B9A4223D02E4B9A4222D1FE
:101290004FF4807327E004218163012010BD204BAF
:1012A0009A4226D01F4B9A4225D01F4B9A4224D0F7
:1012B0001E4B9A4224D01E4B9A4217D01D4B9A4285
:1012C00021D01D4B9A4211D14FF080721DE00123B5
:1012D00009E0102307E001F588644FF48033A2424F
:1012E00008BF4FF48053C1F800340FE04FF4803250
:1012F0000BE0012209E0102207E04FF4807204E0C5
:101300004FF4805201E04FF480120A604FF4807174
:101310000184416B01B18847002010BD04000240E8
:10132000080002401C00024030000240440002401D
:10133000580002406C000240800002400804024055
:101340001C04024030040240B0B5044600F0E2F84C
:1013500005468D48611C007818BF044400F0DAF897
:10136000401BA042FAD3B0BD2DE9FC4F81465B483B
:1013700006235C4E4FF0000B4FF001084FF00F0EAC
:101380004FF0000A8145564808BF052348444FEAFC
:10139000B022052A38BF4FEAB023009300220C6820
:1013A00034FA02F508BFBDE8FC8F08FA02F52C42BA
:1013B00000F08F804F68032F16D9112F26D0122FDF
:1013C00028D04A48874213D04948874210D049481C
:1013D00087420DD0484887420AD04848874207D004
:1013E0004748874204D022E0DFE807F002181B1FBD
:1013F0008C6844B1012C14BFC9F81450C9F81050BE
:101400004FF0080A13E04FF0040A10E0CC6804F132
:10141000040A0CE0CC6804F10C0A08E0D1F80CA036
:1014200005E0CC6804F1080A01E04FF0000A5C46D0
:101430004846082A334628BF203C28BF04300668A7
:101440000EFA04F70AFA04F4BE4334430460C87980
:10145000C00601D41E463CE05A4C22F003061E444E
:10146000206840F001002060206800F00100019039
:101470000BF00C00019F0EFA00F4224FBC46F75906
:1014800027EA0404009F07FA00F0204346F80C0006
:101490001E464F68F803186854BF20EA050440EA66
:1014A00005041C60104BB803706854BF20EA0504A3
:1014B00040EA05047460F802B06854BF20EA0504ED
:1014C00040EA0504B460B802186854BFA843284332
:1014D00018600BF1040B013261E700BF001C0140F2
:1014E00000F8FEBF000401400C0401400000111090
:1014F0000000121000002110000022100000311026
:101500000000321008FCFFFF002A08BF0904016137
:101510007047000005480068704700BF1A4803493B
:1015200000780A6810440860704700BF6008002017
:1015300080B58E48016841F010010160032000F081
:101540006DF8002000F004F800F020F8002080BDC5
:1015500070B50D4E04464FF47A713078B1FBF0F05F
:101560008F490968B1FBF0F000F0DAFB01250F2C80
:1015700008D838B94FF0FF3021460022002500F08E
:1015800031F87460284670BD0000002082B00D481C
:101590000222016841F001010160016801F00101CE
:1015A00001910199416841F080514160406800F02B
:1015B0008050009000980448016862F31A6101604D
:1015C00002B070471810024004000140002806D401
:1015D000734600F04AFE9E46014A42F820107047CA
:1015E00000E100E070B5134B4FF0FF351B68C3F30B
:1015F0000223DC1E83F0070338BF002405FA04F63B
:10160000B243042B28BF042305FA03F39943A140F6
:101610001143BDE8704002F033BE00BF05494FF6EC
:10162000FF030A681A4060F30A2203481043086067
:10163000704700BF0CED00E00000FA052DE9F8430B
:1016400000286CD0884649490446086800F0070025
:1016500040450AD2086820F0070040EA0800086008
:10166000086800F00700404559D120685B4B894667
:10167000810711D5410703D5196841F4E06119606C
:10168000010703D5196841F460511960A1681A680F
:1016900022F0F00211431960C00737D1D9F80000D9
:1016A00000F0070040450DD9D9F8000020F00700F0
:1016B00040EA0800C9F80000D9F8000000F007006F
:1016C00040452CD12068410705D5E1681A6822F40D
:1016D000E06211431960000706D52069196821F4FA
:1016E000605141EAC00018601C4600F05DF82168B6
:1016F0001F4AC1F30311515CC840294908601D48C5
:101700000068FFF725FF0020BDE8F8836068022825
:1017100008D0012825D153F8041C890306D40120E0
:10172000BDE8F88353F8041C8901F8D519681D46F3
:1017300021F0030108431860FFF7ECFE064641F272
:101740008837606829682B4601F00C01B1EB800FE7
:10175000A4D0FFF7DFFE801BB842F2D90320BDE81A
:10176000F88353F8041C8907D9D5DFE7002002402D
:10177000285F000804000020DD481849094A006875
:101780000968C1F30221515CC8407047D848134929
:10179000044A00680968C1F3C221515CC84070471F
:1017A00010000020385F000810B50C490C480A688A
:1017B00002F00C03082B07D1C2F3834309A4D20320
:1017C000E35C02D40C48584310BD096809A2584391
:1017D000C1F34041515CB0FBF1F010BD0410024078
:1017E00000127A0002030405060708090A0B0C0D13
:1017F0000E0F10100102000000093D002DE9FC4110
:10180000002800F09C8004460078B74EC0071FD027
:10181000706800F00C00042814D000F04EFD02D1D6
:101820007068C0030ED46068002800F01481B0F521
:10183000A02F00F02181B0F5803F00F0218100F061
:10184000E5FC20E13068800302D56068002876D08E
:101850002078800716D5706810F00C0F05D000F0C6
:101860002CFD24D17068C00321D43068800702D5D4
:101870002069012863D16069316821F0F80141EAEB
:10188000C00030602078000741D5A06910B39748A8
:101890000121C0F88014FFF73DFE0546706A8007FD
:1018A00028D4FFF737FE401B0228F7D9F8E021695A
:1018B0008E48002900F08E8001210160FFF72AFE8A
:1018C000054630688007D6D4FFF724FE401B022867
:1018D000F7D9E5E085480021C0F88014FFF71AFE2B
:1018E0000546706A800712D5FFF714FE401B0228D8
:1018F000F7D9D5E07E484FF4FA510068B0FBF1F01B
:10190000019000BF0198411E00280191F9D1207873
:10191000400717D4E7697FB100F0CFFC3CD1012F1D
:101920000DD0216A706800F480328A4207D1616A62
:1019300000F47010884202D10020BDE8FC81012033
:10194000BDE8FC81F06910F0805808D1F06940F0E2
:101950008050F061F06900F0805000900098654F71
:101960003868C0050FD4386840F480703860FFF7DD
:10197000D1FD05463868C00505D4FFF7CBFD401BF7
:101980006428F7D98CE0E068A0B3052844D001288A
:1019900046D000F062FC46E05449002088460866C4
:1019A000FFF7B8FD0546022F0AD14746306880018F
:1019B00079D5FFF7AFFD411B03200229F6D9BCE71B
:1019C00030688001B8D5FFF7A5FD411B032002292F
:1019D000F6D9B2E700210160FFF79CFD05463068AB
:1019E00080077FF54FAFFFF795FD411B03200229CC
:1019F000F5D9A2E700F031FC3062FFF78BFD054618
:101A000041F28837306A80071CD5FFF783FD411B00
:101A10000320B942F6D990E7306A40F00400306202
:101A2000306A40F001003062FFF774FD054641F274
:101A30008837306A800705D4FFF76CFD401BB84239
:101A4000F7D92DE0B8F1000F7FF464AFF06920F012
:101A50008050F0615EE700F0D9FB3060FFF75AFD7F
:101A60000546306880037FF5F3AEFFF753FD411B59
:101A700003206429F5D960E7306840F480203060A5
:101A8000306840F480303060FFF744FD0546306830
:101A900080033FF5DDAEFFF73DFD401B6428F6D91E
:101AA0000320BDE8FC81206AB0F5803F05D1A16824
:101AB000726822F4003211437160616A08437168F0
:101AC00021F474110843706001203866FFF722FD8D
:101AD0000446306880013FF52FAFFFF71BFD011B67
:101AE00003200229F5D928E70010024000004242F5
:101AF0001000002000700040F8B538B10446406A7C
:101B000030B10020206104F1140007E001254AE013
:101B10006068B0F5827F03D004F11C0000210160F1
:101B20000025A56294F8510000284FF0000007D16D
:101B3000204684F8505000F039F8A06A00F40050B4
:101B4000022184F8511094E84E0002F4827203F4EA
:101B500004430F681A4406F400631A4427F0400750
:101B60000F60236903F002031A44636903F0010361
:101B70001A44A36903F400763244E66906F0380695
:101B80003244266A06F0800632431043086004207F
:101B900000EA13404860C86920F40060C861012071
:101BA000656584F851002846F8BD0000FEB50021A7
:101BB00004910168114881421DD1114900F550403E
:101BC0004A6842F400424A604A6802F400420192C4
:101BD000019A0A6842F008020A60096801F00801E7
:101BE000019103210591022103912821029101997C
:101BF00002A9FFF7B9FB06B080BD00BF003C004062
:101C0000181002402DE9F84300F052FB04BF0220F7
:101C1000BDE8F8834FF001091D4616460F4684F8CB
:101C20005090FFF777FC804694F85100012844D18A
:101C3000002F44D0002E42D0032084F85100002011
:101C40006065E686A6862763A087A063C4E91000C6
:101C5000E087A1682068B1F5004F07D1016821F045
:101C600040010160016841F480410160016849065A
:101C700001D400F074FBE2686168B2F5006F20D116
:101C800009B1012E01D100F02FFB6E1CE08E90B344
:101C900000F03BFB08D4FFF73DFC002EF6D0A0EB94
:101CA0000800A842F2D337E0216B31F8022BC26062
:101CB0002163E08E0138E086E8E702202DE0012074
:101CC0002BE009B1012E02D1397800F032FB6E1CF5
:101CD000E08E80B100F019FB08D4FFF71BFC002E4A
:101CE000F6D0A0EB0800A842F2D315E0216B0978EA
:101CF00000F01FFBECE720462946424600F035FB8A
:101D000008B120206065A06808B900F009FB606D8B
:101D1000002818BF012000E0032000F0C2BA000034
:101D2000411E0020B0EB116F1CBF01207047044A18
:101D3000F023516003490B700721906011607047D8
:101D400010E000E023ED00E0704770477CB50168CB
:101D500004460A68C8684D6913074DD000F49076B0
:101D600005F0010576194BD0D60705D0C60503D579
:101D7000266C46F001062664560704D51DB1266C74
:101D800046F002062664960704D51DB1266C46F07F
:101D900004062664002B07D500F020035B1903D04E
:101DA000236C43F008032364236C002B70D092064D
:101DB00005D5800603D5204600F088FB21684869D8
:101DC000216C00F0400001F0080140185BD0204673
:101DD00000F06AFB2068416949064AD500F099FA8B
:101DE00047D04A494163FFF737FA002850D0A06B2B
:101DF000416BBDE87C400847930601D583063DD47E
:101E0000236B012B03D1D30601D5C30641D413069E
:101E100001D503060FD452063AD5400638D5C86816
:101E200020F04000C860202084F83D002046BDE836
:101E30007C4000F031B994F83D00212828D1A068F9
:101E4000B0F5805F02D12069002856D0206A421C7C
:101E5000226200784860E08C0138E084000417D1E9
:101E6000C86820F08000C860C86840F04000C860C2
:101E70007CBD2046BDE87C40FFF767BF2046BDE83B
:101E80007C4000F023BB2046FFF75FFF002020646A
:101E90007CBD00200190086801904868019001987D
:101EA000486940060DD4E08DA28DE38D002BEFD064
:101EB000101A0204ECD000F01FFA202200F0E8F91A
:101EC00015E0A06B026853689DB2002DE0D0A28D92
:101ED0009542DDD2E3858369202B06D000F031FAEC
:101EE00000F0D6F9FFF798F9A28DE08D101A81B2B3
:101EF0002046BDE87C40FFF727BF206A30F8022B60
:101F00006FF35F2220624A60A5E700BF9D240008AE
:101F100090B110B5044690F83D0008B900F0ACF956
:101F200000F07CF92068016921F490410161416968
:101F300021F02A0100F0C6B90120704770B586B0C3
:101F40000068A9490026CDE90466CDE90266884209
:101F500029D09D49884241D17F48804C016841F495
:101F600080410160016801F4804100F067F94FF49D
:101F700000700290019802AD20462946FFF7F4F95F
:101F800000202946CDE903004FF4806002902046EE
:101F9000FFF7EAF9252000210022FFF723FB252087
:101FA000FFF714FB1AE06C486C4C416841F40031B7
:101FB0004160416801F4003100F040F904200290D2
:101FC000019802AD20462946FFF7CEF908202946A0
:101FD000CDE9036602902046FFF7C6F906B070BD52
:101FE00070472DE9F843044690F83D00202807D1BA
:101FF0000E4641B1174632B194F83C00012805D194
:102000000220BDE8F8830120BDE8F8834FF0000905
:1020100001201D46C4F8409084F83C00212084F83B
:102020003D00FFF777FAE7848046A784A068B0F503
:10203000805F01D1206908B1002701E03746002602
:1020400084F83C90E08CB8B12046802142462B4673
:1020500000F0D6FAB8B926B116F8010B216848602D
:1020600006E037F8021B206800266FF35F2141600D
:10207000E08C0138E084E5E72046402142462B46CB
:1020800000F0BEFA10B10320BDE8F883202084F8E8
:102090003D000020BDE8F8837047FEE72DE9F04FD2
:1020A00085B02D4800224FF400574FF0000801681A
:1020B00041F010010160016801F0100101910199E6
:1020C000016841F020010160016801F020010191E7
:1020D0000199016841F004010160016801F0040107
:1020E00001910199016841F0080101604FF400512C
:1020F000006800F0080001900198184800F500669B
:1021000081463046FFF700FA09F580654FF46071AB
:1021100000222846FFF7F8F94FF0020A0124DFF801
:1021200040B03046CDE9038ACDE9017401AF3946AC
:10213000D84701A8394680E810054846D84702A884
:10214000394680E810054FF4607001902846D84762
:1021500005B0BDE8F08F00BF181002400008014034
:1021600069130008B0B50F4800214FF400720E4DFE
:102170004FF400434FF48274C0E906210A22C0E9FB
:102180000054C0E90231C0E90411C0E90811C0E9F6
:102190000A12FFF7B1FC18B1BDE8B040FFF73BB839
:1021A000B0BD00BF80070020003C004010B50548CE
:1021B000054C00F01DF818B1BDE81040FFF72BB832
:1021C00010BD00BFD80700200038014010B50548F9
:1021D000054C00F00DF818B1BDE81040FFF71BB832
:1021E00010BD00BF1C08002000440040FEE77047FF
:1021F00000210C224FF4E133C0E90043C0E9021191
:10220000C0E90412C0E90611FFF782BE306820F46D
:1022100080303060306820F480207047242084F8BB
:102220003D002068C16821F40051C160204600F0E3
:10223000A7B94FF480710122FFF766B901910199A6
:10224000016841F004010160006800F004000190A1
:1022500003200590022003907047306A20F00100AF
:102260003062306A20F00400704700F01F01012244
:10227000400902FA01F17047002084F83C00204632
:10228000FFF75CBE4FF4007100222046FFF73CB917
:1022900084F83E2000222263CA6822F01002CA603D
:1022A0007047002184F8501084F85190BDE8F883FD
:1022B000044690F8500001287047706800F00C0048
:1022C000082870474161C16841F40051C160002095
:1022D0002021206484F83D1084F83E1010BD4FF496
:1022E00000710122FFF710B937F8021BC1602763A4
:1022F000E08E0138E0867047CA6822F49072CA60A6
:102300004A6922F001024A617047206881688907A2
:102310007047416921F040014161A06B002870477E
:10232000002000902068C1680091806800900098AB
:1023300070470173206B01302063E08E0138E08626
:102340007047CA6822F48072CA604A6922F00102AA
:102350004A614A6922F040024A61202270470168BE
:1023600041F0400101607047704710B513460A46BE
:102370008021044600F00AF828B1606D40F020008A
:102380006065032010BD002010BD00002DE9FC4158
:102390001E4617460D468046FFF7BCF8301AC41992
:1023A000FFF7B8F80646254801370068C0F3CB3080
:1023B00060430190D8F8000081682940A9420ED1FD
:1023C000002FF9D0FFF7A6F8801BA0420AD201988F
:1023D000019901390191002808BF0446EAE700206D
:1023E000BDE8FC81D8E900014268B1F5827F22F0A6
:1023F000E00242600BD1D8F80810B1F5004F02D0CE
:10240000B1F5806F03D1016821F040010160D8F877
:102410002810B1F5005F07D1016821F40051016077
:10242000016841F400510160002088F8500001204B
:1024300088F851000320BDE8FC8100BF1000002097
:102440007047FFF76BB870B590B000251421CDE947
:102450000B55CDE9095501AC2046FEF70AF94FF4BA
:10246000E0100226012108950F904FF480300D9660
:102470000A910E90CDE9061006A8FFF7BFF94FF4B8
:10248000806002210595CDE9026504900F2001903E
:102490002046FFF7D3F810B070BD7047406A0021A6
:1024A000C185C184FFF751BC01687346FFF724FF63
:1024B0009E46026B012A03D1CA6822F01002CA604C
:1024C000202180F83E1000210163704781B090F810
:1024D0003E10222920D18368B3F5805F08D10169BD
:1024E000002941D000F128010A6803685B680AE00E
:1024F000014651F8282F13B90369002BF5D0036862
:102500005B6803F07F0313700A6801320A60C18DB3
:102510000139C185090401D001B070470168CA685A
:1025200022F02002CA60CA6822F48072CA604A6936
:1025300022F001024A61202280F83E20026B012A2B
:102540001BD100220263CB6823F01003CB600B6821
:10255000DB0605D500920A6800924968009100994F
:10256000818D01B0FFF7F0BB0168826A49686FF3A3
:102570005F2122F8021B8262C9E701B0FFF730BD7C
:10258000B0B50446006804F108030ECB056925F4D4
:10259000405519432A4341F20C650261C2686369E0
:1025A000AA4319431143C1604169A26921F44071F2
:1025B000114341611149884202D0FFF7DDF801E083
:1025C000FFF7E4F819214843D4E900126FF06304DF
:1025D0009200B0FBF2F06422B0FBF2F303FB0400C4
:1025E000322404EB0010B0FBF2F000F0F00200F037
:1025F0000F0002EB031210448860B0BD00380140A8
:102600002DE9F0411D4690460F4604465E1C2068A9
:1026100001683940B9421CD0002EF8D035B1FEF720
:1026200079FFA0EB0800A842F1D92068C16821F425
:10263000D071C160416921F0010141612020002178
:1026400084F83D0084F83C1084F83E000320BDE887
:10265000F0810020BDE8F0810148FFF777BB00BFA3
:10266000D8070020FEE70000054606A00C462A46D3
:10267000FDF732FE9E48026812B128462146904777
:10268000FEE700BF4552524F523A5B2533645D2549
:10269000730D0A0070B5C6B09F212622944D062006
:1026A000A0234191902145903C204091CDE93E12DC
:1026B0005E21449019203D916021439000203C917F
:1026C000172142903B9163213A912E21399110219B
:1026D00038914C4937914021189150211791A968A0
:1026E0004A1CAA604F22CDE915221422CDE91322FB
:1026F000642212920FAC0DC4052091FBF0F000EBA8
:102700008000081A042800F27B80DFE800F003074D
:102710000B3C690038A801F025FB71E038A801F0F6
:1027200061FC60E07549E86800240022A023096884
:102730004D68F0210294CDE900140021A8473248E9
:102740004FF08141344A0023CDE9064131490D90D3
:102750002E4805913149CDE90B402D48CDE909407E
:102760004FF0FF300890CDE903044FF08040CDE9F1
:1027700001402B48009017AC204600F041FF204656
:1027800000F0E8FE3CE0204800264FF08141234A5B
:10279000234BCDE905611F490C960D901B48049110
:1027A0001D49CDE90A601A4809904FF0FF30CDE984
:1027B0000760CDE902604FF08040CDE9006017ACC2
:1027C000204600F01DFF204600F0C4FE4B49E8689B
:1027D00009684C684FF487710296CDE900160BE04A
:1027E0000FA800F0ADFD4549E868F02209684C6883
:1027F0000021CDE90021029100210022A023A04761
:1028000046B070BD35FA8E3C7C7DEDFF0000C040C7
:1028100000007042000020420000C84200008C42CC
:102820000000F04186B00D460646314C3148324931
:102830009146C4E90810207CBFF35F8FC00728D001
:10284000207DBFF35F8FC0073DD02D4800260022BA
:10285000A023A06129480168E0604D6880210296AC
:10286000CDE900160021A8472648E16840F20F1381
:10287000006802681468244ACDE90063234B029281
:102880000022A047FFF706FF4FF47A70FEF75CFDC9
:10289000F8E704F110081F46404601F069FE0028E1
:1028A000CED04FF0FF30002180223B46CDE9001012
:1028B000CDE9020004901148A02101F00BFA404636
:1028C00001F084FEBCE704F11407384601F050FE25
:1028D0000028BAD0069831462A464B460190074850
:1028E0000090074800F094FF384601F06FFEACE717
:1028F0006C060020405F00084C5F000814070020B1
:10290000D406002008000020080408FFC454010871
:10291000BFB51C4603681D6902AB009303ABA84713
:102920000D980C9A00210160116009990C1B0B99FC
:10293000631C01F04075B5F1007F0BD0B5F1807FCD
:102940000DD05DBB039DAC420BDB5B1B022493FBF4
:10295000F4F305E0039DAC4203DB5B1B00E00023C6
:102960001360089A0A9B01F440119B1A5A1CB1F596
:10297000001F0BD0B1F5801F0DD0A1B902998B4279
:102980000BDB511A022291FBF2F105E002998B4216
:1029900003DB511A00E000210160BFBDD14840F2C5
:1029A000F921FFF761FECF4840F20D31FFF75CFEE1
:1029B0002DE9F04F8FB0002B00F0CE800E461C9812
:1029C0001A9908441988884206DC1D98DDF86CE0E5
:1029D00059887044884202DD0FB0BDE8F08F0025B1
:1029E0001E989046012A11DB08EB880256F822C097
:1029F00006EB8202D2E90341D2E901ABA4EB0A0261
:102A0000059121460D94013261460DE04FF0FF31F2
:102A10004FF0FF3A4FF0FF3B00224FF0000C0D91BA
:102A20004FF0FF31059100214FF478444FF4FC67DB
:102A3000CDE906B304EA102407EA5017C0F3C40036
:102A4000384400EB04091998189CA0EB0B0002FB1A
:102A50000040A0EB0A000CEB800401EB40000B905F
:102A600090000C94049050000390F0680A909868CD
:102A700002901D988542AFDA18881A99029A0024AC
:102A8000CDF824E008950EFB0010594602EB400BF0
:102A900019982F180598B8424FF00000B8BF0120D0
:102AA0008F424FF00001B8BF012108430E901C98DF
:102AB000844240DA189801193BF81400814511D17D
:102AC000514536DB0D9888424FF00000B8BF012019
:102AD0000E9A10432DD10A98042814D10C9850F85E
:102AE00024301FE03268C300DBB2156800F4FC62DA
:102AF00000F47840CDF8008043EA421242EA002018
:102B000000F17F4312E00B9830F81400C30000F48A
:102B1000FC6200F47840DBB243EA421242EA002051
:102B200000F17F4330680568CDF8008030463A46B2
:102B3000A8470134BBE70C980499DDF824E0089D10
:102B4000DDE906B3084403990EF1010E01350C903E
:102B50000B9808440B908CE7E04840F21F41FFF7C8
:102B600083FD00BF2DE9F04F8FB0002B00F0B58042
:102B70000020DDE919BC0D92012A10DB02EB820076
:102B800051F820E001EB8000D0E90145D0E90320B5
:102B9000F146019010460992101B01300DE04FF0F4
:102BA000FF324FF0FF344FF0FF354FF0000E4FF083
:102BB000000909924FF0FF3201924FF4FC624FF48A
:102BC00078470B940C9102EA5C16CCF3C40207EA36
:102BD0001C2732445E8802EB0708189F1A885E445F
:102BE000CDE90456ABEB0505860002EB070A5A4611
:102BF000D3F808B000FB0575400003960290C86842
:102C00002D1B0EEB850409EB4505089005988242C3
:102C100060DA0198189FA14690424FF00000B8BFBB
:102C2000012004998A424FF00001B8BF01210843F6
:102C300007942C4606950E920A90574542DA3BF8C7
:102C4000025BA84511D10B98874222DB0998B84254
:102C50004FF00000B8BF01200A99084319D1089825
:102C600004281BD1D9F8003025E00C98EB00DBB22A
:102C700001680E680D99009105F4FC6143EA411169
:102C800005F4784341EA032101F17F433946B04717
:102C90000E9A09F1040902340137CEE72088C300F7
:102CA00000F4FC6100F47840DBB243EA411141EAF0
:102CB000002000F17F430C99086806680D98009089
:102CC0000846E3E7079C0398069D013204440298F6
:102CD00005449BE70FB0BDE8F08FD84840F2FF31C4
:102CE000FFF7C2FC585501082DE9F0418AB014469F
:102CF00006461020109A0DF118080D46194600904E
:102D00003046434600F046F930682946224643469D
:102D100007681598049014980390139802901298DD
:102D20000190119800903046B8470AB0BDE8F08194
:102D300053B32DE9F04F87B0DDF840A01C46914613
:102D40000E4607464FF0000B0DF118082078C0B171
:102D50002046414600F0F6F805460BEB0A00069BBC
:102D600031464A46009011980190129802901398AB
:102D7000039014980490384600F062F983442C4480
:102D8000E4E707B0BDE8F04F7047F0B548684FF092
:102D9000020C431E00201D469842C4BF0020F0BD17
:102DA00095FBFCF58F6805EB450657F826409442E5
:102DB00001D2681C04E004BF07EB8600F0BD6B1E67
:102DC0001D18E9E72DE9F04F8BB0179DDDF860C0C5
:102DD000199F0E46CDE9092315F8024B5FFA8CF1D5
:102DE000FBB2C7F30720089107930590614384F075
:102DF000FF0215F8018C02FB0311CCF307230693A5
:102E0000634302FB0033CCF307400490604323F09C
:102E1000FF0343EA1121C7F3074302FB03000393B7
:102E200000F47F4041EA002040F07F4A00201699DC
:102E3000884249DA14994FF00009029000EB010B27
:102E4000159881453DDA5FEA086040D01CB13068D2
:102E50005A46534606E01998B0F1807F0AD330688D
:102E6000199B5A460768099800900A9800EB0901D7
:102E70003046B847A8F101085FEA08601ED12C78F7
:102E80000898079A059B95F801800235604384F005
:102E9000FF0101FB0200069A624301FB03220E4B75
:102EA0001A40039B42EA1020049A624301FB03216B
:102EB00001F47F4140EA012000F17F4A09F1010954
:102EC000BEE702980130B2E70BB0BDE8F08F5B4877
:102ED00040F28731FFF7C8FB00FF01005855010899
:102EE0002DE9F84FDDF828A09846C9B11546BAB1CA
:102EF0000E4683460027E9463078D0B13046494631
:102F000000F020F8009A044658462946FFF73DFF96
:102F100029460028264418BF011D08780744EBE71E
:102F20000020CAF80000C8F800004FF0FF30BDE8EC
:102F3000F88F2878C8F80070CAF800000020BDE8B3
:102F4000F88F0000B0B5024603781148C05C441EFB
:102F5000032C18D8DFE804F01502050B1B0201242E
:102F60000DE05478240244EA0343022407E0547835
:102F70009578240444EA0363032443EA0523125D9D
:102F800013430B60B0BDED4840F2D131FFF76CFB4D
:102F90001C04002070B50D46049918461C461646C0
:102FA000FDF745FB032E2FD8DFE806F00214091FBA
:102FB00021A120462A46BDE87040FDF799B9284670
:102FC00002F0B2FA164B002202F054F90B46024608
:102FD00014A114E0284602F0A7FA144B002202F0D4
:102FE00049F90B46024612A109E0284602F09CFA74
:102FF000084B002202F03EF90B46024606A120468D
:10300000BDE87040FDF774B9CC4840F25F31FFF77E
:103010002BFB00BF00408F40252E336600000000D0
:1030200000005940252E32660000000000002440B8
:10303000252E316600000000256400005855010867
:103040002DE9F04F87B0DDF8489093460D46B9F171
:10305000000F19D049461A460646FFF796FEB0B152
:10306000074602798468119899F80030DDE9131C4D
:103070008DE81D00109BCDE9041C304629465A46B8
:10308000FFF7A0FE387933E01B48804601E04FF09F
:10309000FF3800244FF00009B9F1100F27D0119824
:1030A0004FF0000A09EB0006BAF1100F1BD004EB39
:1030B0000A00013003280DD22868324643460768CB
:1030C0001098CDF800B000EB0A012846B8470AF185
:1030D000010AE9E709EB0A000F380228ECD9286851
:1030E00032460023EBE7013C09F10109D4E7102047
:1030F00007B0BDE8F08F00BF0000FFFF2DE9F041F1
:103100008CB0144606461020129A0DF120080D4688
:103110001946009030464346FFF73CFF3068294689
:103120002246434647681A980790199806901898BF
:10313000059017980490169803901598029014988B
:103140000190139800903046B8470CB0BDE8F0816C
:103150007BB32DE9F04F89B093460E46DDE9141C90
:10316000DDE9128A199ADDF858901C46074607AB2C
:1031700008A8CDE904033846CDE900A1CDE902C293
:1031800021464A464346FFF7C3FB38685A46234662
:103190000568DDE90710404451448DE803021798A3
:1031A00031460390189804903846A84709B0BDE806
:1031B000F04F7047F8B51D46079B04460898069ED9
:1031C000099F84E886001946E061A361C4E90356BB
:1031D00002F060FD4FF0745102F056FC2062304660
:1031E000294602F057FD4FF0745102F04DFC60612A
:1031F000F8BD00002DE9F04F85B0D0E90361054628
:10320000304602F047FD20F000494FF07E5148461D
:1032100002F081FA002875D1A86901F093FE834677
:10322000A869D5F800A0EF6801F04AFF01463846CA
:1032300002F02AFCD5E900870446384602F090FBEC
:103240000146204602F0DCF902F06EFB04463046EF
:10325000594602F019FC0646504602F081FB014631
:10326000304602F0CDF902F05FFB0346B84800217A
:103270003A46CDE9004102914146C06800F023FC86
:10328000E968D5E905042F6A02F0BAF90646E86054
:103290003846214602F0B4F9A86101F053FE834696
:1032A000A869D5F800A0EF6801F00AFF014638468A
:1032B00002F0EAFB04462868D5E901780490384614
:1032C00002F04EFB0146204602F09AF902F02CFB78
:1032D00004463046594602F0D7FB0546504602F0F8
:1032E0003FFB0146284602F08BF902F01DFB034626
:1032F000974800213A46CDE9004802910499C068F8
:1033000000F0E1FB48464FF07E5102F004FA00283D
:1033100018BF012005B0BDE8F08F00BF10B5012B2C
:1033200008DB029C002C05DD14440B44013C013BEE
:103330001EC010BD01485521FFF796F958550108E8
:103340002DE9F04F91B0DFF81481044600F1100B25
:103350000FF2141900200A2873D0089060680746FD
:10336000E1680844874234DA206807F1130A064608
:10337000A1680844864229DA584631463A4600F0A8
:103380006DFF30B106F109015846524600F066FF64
:10339000C8B9FCF753FF3049D8F82430C00731A032
:1033A0004A6811680D6802932D4BD8F80C10CDE9CE
:1033B000006703934FF07F4304934B4608BF0346D7
:1033C00010460022A84720680936D1E760685746B2
:1033D000C6E709AD20212846FDF74BF91A4A1068C7
:1033E000411C11603C2190FBF1F1C1EB0111A0EBFC
:1033F0008102284615A1FCF77BFF1748D8F820204A
:10340000D4E904E3D4E9067640680168D1F804C041
:1034100004924FF0FF32D8F80C10CDE900E32B46B0
:10342000CDE9027605924FF07F4206920022079284
:103430000022E0474FF47A70FDF786FF08980130CC
:1034400089E711B0BDE8F08F7007002031363A34BB
:10345000373A253032640000080000206C06002056
:1034600099DB8DFF31000000300000002DE9FE4F98
:1034700005460846019202F073FADFF8CCADDFF89A
:10348000D08DDDF804904FF07C5B02902F495846B8
:1034900002F041F9002857D0D5F88010584602F0C4
:1034A000F3FA01F04FFD029C214602F0EDFA02F022
:1034B0003BFAD5F880100646584602F0E5FA01F0CE
:1034C000FFFD214602F0E0FA02F02EFA04463043F6
:1034D00033D0D8F80010DAF80C0000230F68D5E9D3
:1034E000001200934B4631442244B847D8F80010EC
:1034F000DAF80C0000230F68D5E9001200934B4660
:10350000891B2244B847D8F80010DAF80C000023D1
:103510000F68D5E9001200934B463144121BB8479F
:10352000D8F80010DAF80C0000230F68D5E9001273
:1035300000934B46891B121BB84758464FF07C51ED
:1035400002F05EF88346A1E7BDE8FE8F0000B442BA
:103550006C0600202DE9F84F8346DFF844805C308C
:103560000BF138090BF1140A0090584600F01AF8D4
:1035700004465046C04705464846C04706460098A0
:10358000C04707461420FDF7DFFE002CEDD0002DCC
:10359000EBD0002EE9D0002FE7D0BDE8F88F00BFB8
:1035A000F531000870B5D0E902610446304602F0FA
:1035B00071FB20F000454FF07E51284602F0ABF839
:1035C00098B9304602F0B0F9014620460022FFF7D4
:1035D0004DFFA168206902F013F8A06002F0A4F981
:1035E000064A01462046FFF741FF28464FF07E512C
:1035F00002F091F8002818BF012070BDEBAF00FF6A
:10360000F0B585B014460E460546D0E900120D9877
:10361000194F03900C9802900B9801900A98009013
:1036200005F11400B8471298D5E900120E9B0390DB
:1036300011980290109801900F98009005F13800B1
:10364000B8471798D5E90012139B0390169802907B
:10365000159801901498009005F15C00B847204639
:10366000314602F017FB4FF0745102F00DFAC5E934
:103670000264286105B0F0BDB5310008B0B54468FA
:103680008C4227DD8568954224DD456955B1D5F822
:1036900000C0BCF1000F05D0084611461A46BDE82F
:1036A000B0406047C56804FB0211022D0FD14FF4F2
:1036B00078424FF4FC64006902EA132204EA5314CE
:1036C000C3F3C40323441A4420F81120B0BD006999
:1036D00040F82130B0BD2DE9F84F0546006978B3B8
:1036E0000B9868B31446D5E901A2DDF83090DDF8F7
:1036F00028C08A45AAF10100D8BF0146A2F1010BFA
:10370000A242D8BF5C4604FB0A1604FB09179A457F
:10371000C8BF1846A0EB01086245C8BFE3465C4538
:1037200012DAD5E903200B9902FB071102FB060010
:1037300002FB08F2FCF736FF56444F440134EEE733
:103740004FF0FF30BDE8F88F0020BDE8F88F2DE97D
:10375000FC4782464069DDE90A861C4615468946D3
:10376000D8B147683FB148462946224643460096AD
:10377000B847BDE8FC87006878B1454545DC4F4651
:10378000A74208DCDAF814002946324603683846B6
:1037900098470137F4E70135EFE70AF1040207CA59
:1037A000022A1FD14FF478424FF4FC6302EA16223A
:1037B00003EA5613C6F3C40633441A44454524DCD1
:1037C00005FB0093DAF8106006EB43034E46A64271
:1037D00006DC8D42BCBF864223F8022B0136F6E799
:1037E0000135EBE7454510DC05FB0092DAF81030B7
:1037F00003EB82024B46A34205DC8D42BCBF8342F1
:1038000040C20133F7E70135ECE7BDE8FC87000073
:10381000F0B5069F059C00250126C0E90123C0E9FB
:103820000E658561C0E904170649046284F850609A
:1038300008310160E168C160014641F81C5FC4E9DC
:103840001510F0BD985401082DE9FC47DDE90A89FF
:103850009A4615460E460746AE42C8BFBDE8FC87ED
:10386000386831465246434604683846CDF80090E1
:10387000A0470136F0E700002DE9F84F0746406801
:1038800088426BDDB8689346904267DD0E4600299A
:1038900064D4BBF1000F61D4DDF8289097F8510093
:1038A00048455DD39A463FD097F8520031465A4674
:1038B000484509EB890038BF87F8529007EB800430
:1038C00004F11808404600F0C9FC48B304F11400A4
:1038D000D4E90731FC68D8F80020022C16D1891AE7
:1038E000B41AABEB03034FF478420068013102EAEB
:1038F0001A2201FB03414FF4FC63CAF3C40403EA38
:103900005A1323441A4420F8112009E0891AB41AE2
:10391000ABEB03030068013101FB034140F821A038
:1039200097F8520048450AD1386831465A465346FE
:10393000D0F80CC0384601B0BDE8F04F604707F141
:1039400040000324013C4C45EED931465A46A0F1D3
:10395000140500F083FC00282846F3D0BDE8F88F5A
:1039600002484FF4CF71FEF77FFE00BF58550108A3
:103970002DE9F84F074680F85110806DDDE90AA95E
:10398000984693460E4648B1806B022806DBD7E97D
:103990000102F9685043FCF78BFC3861A9EB080081
:1039A000AAEB0B0107F114050130013101FB00F412
:1039B00066B1F9682046FCF77BFCC5E9000BC5E958
:1039C000028AC5F810901435013EF1E7BDE8F88F82
:1039D0002DE9FC418046C068DDE908C5022822D1F6
:1039E0004FF4FC644FF47840C5F3C4064FEA420E2E
:1039F00004EA551400EA152034441646204466456E
:103A000026DCD8F810401CB3D8F8047007FB0E442D
:103A10000F469F4203DC24F817000137F9E70EF147
:103A2000020E0136EBE790001746674510DCD8F828
:103A300010406CB1D8F8046006FB00440E469E426C
:103A400003DC44F826500136F9E704300137ECE78F
:103A500098F8500058B1D8F8580004686468CDE967
:103A600000C5A047D8F85400016801310160BDE8E5
:103A7000FC81F8B504460069C8B1E568022D11D192
:103A800065684FF4FC674FF4784607EA531706EA77
:103A9000132605FB021CC3F3C4053D44354420F83E
:103AA0001C5004E0656805FB021540F8253094F8C9
:103AB000500038B1A06D05682D68A847606D016899
:103AC00001310160F8BD2DE9FE4FDDF830808946F7
:103AD0000446B8EB0205B8BFA2EB0805591AB8BFF7
:103AE000A9EB030101939945C8BFA94209DCA9428A
:103AF0002ADD4F46DDF80490AA461646CDF8088028
:103B000003E0019FAA46464602926FF00100B346C9
:103B1000019191FBF0F84F4541DC20680D9B39463F
:103B20003246D04405680E9800902046A847B8F168
:103B3000010F07DB0198A8EB000802988345D4BF6A
:103B40000136013E0137E6E78A46424506DD019827
:103B50004746CDF804909046814600E017466FF046
:103B60000100CB4602952A4695FBF0F6474516DC48
:103B700020680D9B49463A46564405680E980090C9
:103B80002046A847012E08DB0298361A0198834583
:103B9000D4BF09F10109A9F101090137E6E7BDE840
:103BA000FE8F2DE9F04F87B005461C46DDF840B08A
:103BB0004068DDE9119622EAE27A21EAE177AB6812
:103BC0005B45D8BFA3F1010BA042D8BF441E95F8B6
:103BD0005100B04206D12868394686682846CDE9AA
:103BE00000B970E095F85200B04257D14FF4FC6133
:103BF0004FF47840C9F3C402CDF814A001EA59117A
:103C000000EA1920114401EB000906EB860105EBDF
:103C10008102D2E90610D2E90836CDE90360AAEBA9
:103C2000000638465F1A0137069007FB0606029722
:103C300002F11407A6EB010C56465E453BDC0398E7
:103C40000022B042B8BF0122049886424FF0000023
:103C5000B8BF0120DDF8188040EA020E6246A04598
:103C600016DC884510DB00204345B8BF012050EA30
:103C70000E0009D1E868022838681ABFDDF844A0B0
:103C800040F822A020F81290013208F10108E6E77E
:103C90000298DDF814A001368444CEE7DA4515DC3D
:103CA0002846394622465346CDE90096FFF7CCFD1B
:103CB0000AF1010AF2E72868069986681198CDF89A
:103CC00000B00190284652462346B04707B0BDE8F1
:103CD000F08F00002DE9F04387B0044620480DF135
:103CE000400E0025DDE90E8C0E464FF0FF37083000
:103CF00084E82F009EE808420020211814303C2858
:103D0000C1E90557C1E907774F62F6D10020C4E940
:103D1000150084F8520084F850000EEA09000130C2
:103D200013D10CEA030001300FD1009203A8002147
:103D300000223346FFF7F2FADDE90501DDE903234E
:103D4000CDE900012046414604E020464146624656
:103D5000CDE9009EFFF70CFE204607B0BDE8F083DA
:103D6000AC5401082DE9F04F93B00446D0E90C9013
:103D70009549DFF8D4840A8899FBF0F049880F92BE
:103D8000121A0B910E92914A518813880A91904908
:103D90000D931B1A0C9349880991C9F10001CDE9D3
:103DA000101040420890B9F1010FC0F20A81894811
:103DB000D4E90A23109DD8F820E04FF0000B4068AA
:103DC0002B4402F1EF0703F12F060168D1F804C07C
:103DD0008DE88C000022D8F80C107F4BCDE9036EE3
:103DE000CDE9052207920022E0477C4FD4E900325A
:103DF000119ED8F80C003968BA464F680999CDF879
:103E000008B01144CDE9001BE91835442B44B847EC
:103E1000DAF80010D4E902320D9ED8F80C004F6891
:103E20000A994E44CDF808B01144CDE9001B0C9915
:103E3000494419443344B847664FD4E90623AA4697
:103E4000D8F8206078684A4401680D688DE84C080D
:103E5000D8F80C10624B0022CDF810B0A8475F498B
:103E6000D4E904320F9ED8F80C0009684E444D681E
:103E70000B99CDF808B01144CDE9001B0E994944C7
:103E800019443344A8477868D4E90823D8F8206057
:103E900001684A440D688DE84C08D8F80C10EE4BC8
:103EA0000022CDF810B0A8477868D4E90A23BB46B1
:103EB000D8F820600168534402F1EF0503F12F07A1
:103EC000D1F804C08DE8AC00DC4AD8F80C10DF4B08
:103ED000049605920022CDE906220022E047DBF895
:103EE0000000D8F80C10CDF848905646CDF840A008
:103EF00002681568D4E900235244CDE90023D04A72
:103F0000CB4B029291460022A847DBF80000089DA7
:103F1000129FD8F80C1002683D441668D4E90223B9
:103F20002A448DE80C02C44B0022B047DBF80400A1
:103F3000D4E90623D8F820704FF0000A01682A441B
:103F40000E688DE88C00BD4FD8F80C10C14B0022D4
:103F5000CDF810A00397B047D8F80C009C21F022B0
:103F60008423CDE9007A4FF0000AFFF76DFCDBF8FF
:103F70000000D8F80C1002681668D4E904232A441B
:103F80008DE80C02AB4BDDF848900022B047DBF81F
:103F90000400D4E90823D8F8207001682A440E6888
:103FA0008DE88C00A54AD8F80C10AB4BCDE9032A5C
:103FB0000022B0471420FDF7C7F91198A9EB0009BA
:103FC000F1E613B0BDE8F08FD05401087C5501082C
:103FD00088550108080000207455010814070020C6
:103FE000545501082DE9F04F91B00446904A006BFA
:103FF000DFF854B24FF0000A00254FF00009616B62
:104000001388528890FBF1F10F930A920B440E91A2
:1040100049420D93874B09915B880C93864B5B88D3
:104020000B93814580F201818648D4E90A23DBF8AD
:104030002070109540682B4402F1EF0603F12F0524
:104040000168D1F804C08DE84C00DBF80C1003AA1D
:104050007E4BCDE906AA82E8A0040022E0477C4A14
:10406000109FDBF80C0011689046D4E900324D68CF
:104070000A99CDF808A01144CDE9001ADDE90F1620
:1040800031440D9E19443E443344A847D8F80010EB
:10409000DDF82480D4E90232DBF80C004D680B997E
:1040A00008EB0906CDF808A01144CDE9001AF11873
:1040B0004B44A8476348D4E90623DBF820704068E6
:1040C0004A4401680D688DE88C04DBF80C10614BE4
:1040D0000022CDF810A0A8475D49D4E90432DBF8EE
:1040E0000C0009684D680C99CDF808A01144CDE981
:1040F000001AF1184B44A847524FD4E90823DBF8C3
:10410000206078684A4401680D688DE84C04DBF84B
:104110000C10514B0022CDF810A0A8477868109DD4
:10412000D4E90A23DBF820E0016808EB050702F177
:10413000EF063B44D1F804C08DE84C003F4A03F140
:104140002F05DBF80C10414BCDF81CA0CDE9035E28
:10415000CDE9052A0022E047DFF8E880DBF80C1003
:10416000D8F8000002681568D4E900233A44CDE984
:104170000023334A2E4B029216460022A847D8F855
:1041800000000E9FDBF80C100268B9441568D4E9F2
:1041900002234A448DE84C00274B0022A847D8F858
:1041A0000400D4E90623DBF8206001684A440D6866
:1041B0008DE84C00214EDBF80C10264B0022CDE997
:1041C000036AA847DBF80C009C21F0228423CDE988
:1041D000006AFFF739FBD8F80000DBF80C10026822
:1041E0001568D4E904234A44CDE90023144A114B4D
:1041F00002920022A847D8F80400D4E90823DBF88B
:10420000206001684A440D688DE84C000B4ADBF8D9
:104210000C10114BCDE9032A0022A847109D142051
:10422000FDF792F8206BED1BFBE611B0BDE8F08FB7
:1042300088550108D05401087C550108E9A300FF06
:10424000080408FF080000206C06002074550108CF
:104250001407002054550108505501080346006812
:10426000884202DC9868884201DA00207047596869
:104270000020914203DCD9689142A8BF0120704719
:1042800010B5074C00F00F03B0F1FF3F034A234481
:10429000C8BF83180801187010BD00BF00E400E01B
:1042A00014ED00E07047FCF71DFD00001CB5019007
:1042B00001AC07480122FF232146FDF792FE054885
:1042C00021460122FF23FDF78CFE01981CBD00BF93
:1042D000D80700201C08002010B54FF478434FF495
:1042E000FC6480B289B203EA122304EA5214C2F3D6
:1042F000C40222441A44BDE8104000F049B882428A
:10430000C8BF8B4200DC70477CB5069C4FF47845F3
:104310004FF4FC66121A5B1A80B289B20132013383
:1043200005EA142506EA5416C4F3C40492B29BB2FB
:1043300034442C44009400F04DF87CBD82B0FDF76D
:10434000F7F8FEF780F8FDF7A9FEFDF72FFFFDF760
:104350003DFFFDF707FF00F06FF809484FF40051EB
:104360000122FDF7D1F807480749084A0223C0E9AE
:10437000002100900020A021802200F0F3F8FEE749
:104380000010014078070020FF420008D9420008D1
:104390007CB50C46A028064628BF7F2C19D86F4D47
:1043A00050BA4FF400710022ADF806002846FDF720
:1043B000ABF8701C214682B2601C83B2304600F01C
:1043C0007FF80DF10600022100F0BAF82846FDF74B
:1043D00086FF7CBD2DE9FC410446089816460F4631
:1043E0004FF4007100221D4640BAADF806005B484C
:1043F0008046FDF789F8A0193946013882B278194C
:104400004746013883B2204600F05AF84046FDF78F
:1044100010FF05FB06F4524D0DF106063CB128468F
:1044200031460222FF23FDF7EDFB013CF6E738465B
:10443000FDF755FFBDE8FC81F8B5484CFDF722FFBC
:1044400000F02AF8134E3078D8B10136471E000626
:10445000F9D0307800F062F87578280607D4023673
:104460002946304600F06CF82E443846EEE7B07826
:10447000FF2808BF4FF4FA70FCF766FF0336384692
:10448000E4E720464FF400710122BDE8F840FDF753
:104490003BB800BFDC54010810B5304C802100222D
:1044A0002046FDF731F80A20FCF74EFF2046802118
:1044B0000122FDF729F80A20BDE81040FCF744BFAF
:1044C000F8B501300D46511C134F1C468DF8010004
:1044D000000A8DF80310090A8DF800002A208DF8D3
:1044E0000210B8476E460421304600F029F8A01C9F
:1044F0008DF80300000A8DF80200A81C8DF8010059
:10450000000A8DF800002B20B8473046042100F047
:1045100017F82C20B847F8BD1D450008E0B58DF808
:1045200007000E484FF480710022FCF7EDFF0C48A5
:104530000DF107010122FF23FDF764FB8CBD00BFD5
:10454000B0B5054605480C46FDF773FE04482946FC
:104550002246FF23BDE8B040FDF754BB000C0140EC
:104560008007002082B0029C0094FEF75BF90000F7
:1045700080B5017811B94178012901D1002080BDB1
:1045800089075FBF02214170012080BD01A0FFF7B4
:104590008AFE00BF5F5F6378615F67756172645F09
:1045A00061637175697265206465746563746564BF
:1045B0002072656375727369766520696E697469C6
:1045C000616C697A6174696F6E000000012101708D
:1045D000417070475FEA400C08BF91F0000F4FEA4E
:1045E0008C234FEAC12243EA51514FEA1C5018BFB5
:1045F00000F5F0404FEA300018BF41F000415FEA9B
:104600006C5C00F02980BCF1FF3F08BF40F08040A7
:104610007047130C06BF12044FF0100C4FF0000C43
:10462000130E04BF12020CF1080C130F04BF120189
:104630000CF1040C930F04BF92000CF1020CD30F89
:1046400004BF52000CF1010C11464FF00002A0F122
:104650001F00A0EB0C00704711F0004F08BF70471F
:1046600031F000413FF4D5AF0B0C06BF09044FF009
:10467000100C4FF0000C0B0E04BF09020CF1080CDB
:104680000B0F04BF09010CF1040C8B0F04BF890050
:104690000CF1020CCB0F04BF49000CF1010CCCF162
:1046A000200322FA03F341EA030102FA0CF2A0EB21
:1046B0000C0000F10100704723F07F4720F07F4C91
:1046C00080EA030000F00040ACEB070303F57C53E5
:1046D00003F1FF032DE9804909B44FEA144324EAAA
:1046E00003484FEA154B25EA0B4E0FF2042606EB62
:1046F00013273E7803FB0667C7F5000707FB06F69E
:104700004FEAD64606F102064FEA543707FB066C1D
:10471000CCF1005C4FEA1C472CEA074C0CFB06F579
:1047200007FB06F404EB15464FEA961649085FEAC4
:10473000320234BF00204FF000404FEAD13706FB71
:1047400007FC4FEA1C4C0CFB0BF7D21B03FB0CF7CE
:1047500061EB07010CFB0EF7B0EB074072EB174261
:104760000CFB08F734BFA2EB0742B2EB074261EB48
:1047700017414FEA0C444FEA910706FB07FC4FEA4A
:104780001C4C0CFB0BF7B0EBC74072EB573203FB32
:104790000CF734BFA2EBC742B2EBC74261EB573113
:1047A0000CFB0EF7B0EBC70072EB57720CFB08F76F
:1047B00034BFA2EBC702B2EBC70261EB57714FEAFD
:1047C000816141EA92114FEA826242EA90124FEA15
:1047D000806004EBCC04039F4FEAD13706FB07FC53
:1047E0004FEA1C4C0CFB0BF7D21B03FB0CF761EBE5
:1047F00007010CFB0EF7B0EB074072EB17420CFB06
:1048000008F734BFA2EB0742B2EB074261EB174156
:104810004FEA8C5504EB9C244FEA910706FB07FCFA
:104820004FEA1C4C0CFB0BF7B0EBC74072EB573256
:1048300003FB0CF734BFA2EBC742B2EBC74261EBFC
:1048400057310CFB0EF7B0EBC70072EB57720CFB45
:1048500008F734BFA2EBC702B2EBC70261EB577196
:104860004FEA816141EA92114FEA826242EA901274
:104870004FEA806015EB4C2544F100044FEAD13734
:1048800006FB07FC4FEA1C4C0CFB0BF7D21B03FB8F
:104890000CF761EB07010CFB0EF7B0EB074072EB76
:1048A00017420CFB08F734BFA2EB0742B2EB0742FA
:1048B00061EB17414FEA813141EA92414FEA82327E
:1048C00042EA90424FEA80304FEA0C7615EB1C1515
:1048D00044F1000448EA03434EEA0B484FF0000E4F
:1048E000B2EB080C71EB030724BF624639464EEB6E
:1048F0000E0E4FF0000B0018524149414BEB0B0BD1
:10490000B2EB080C71EB03077BF1000B24BF62468E
:1049100039464EEB0E0E4FF0000B00185241494144
:104920004BEB0B0BB2EB080C71EB03077BF1000BAD
:1049300024BF624639464EEB0E0E51EA020718BFFD
:1049400046F0010616EB0E7655F1000254F1000117
:1049500003D5BDE88901BDE80088BDE88901BDE84F
:104960000048B619524141EB0101A3F10103704720
:1049700080807F7E7D7C7B7A79787776767574739C
:10498000727171706F6E6E6D6C6C6B6A6A6968685B
:10499000676666656464636362616160605F5F5EF1
:1049A0005E5D5D5C5C5B5B5A5A5959585857575667
:1049B00056555555545453535252525151505050CC
:1049C0004F4F4F4E4E4D4D4D4C4C4C4B4B4B4A4A1E
:1049D0004A49494948484847474747464646454562
:1049E000454444444443434343424242424141419B
:1049F0009C46002B30D477002BD04FEA37071CB5EC
:104A000003B44FF010004FF01001BAF1000F06D0C0
:104A1000BCF1000FDCBF40F0080040F008014FF08F
:104A200000000FBCBDE810400BF1010BBBF1010F02
:104A300008BF5FEA170722BF12F1010211F101015D
:104A40004FF0004143F1000300F0004043EA000052
:104A50007047F9D35708D0E746EA06464FEA1646AC
:104A600013F1400F1FDD13F1200FDFBF16430A467D
:104A7000002120335B42BED0C3F1200746EA064640
:104A80004FEA164602FA07F746EA070622FA03F249
:104A9000C3F1200701FA07F742EA070221FA03F1FE
:104AA0004FF00003A7E746EA020646EA06464FEA49
:104AB000164646EA0106BCBF46EA0646360C4FF0EB
:104AC00000034FF000024FF0000194E72DE9804C05
:104AD00070B49A46934691E8380007C831EA400C12
:104AE00048BF34EA430C03D5FFF7E6FDFFF780FF2C
:104AF000F0BCBDE8008C2DE9804C70B49A4693461A
:104B000091E8380007C810F0804F08BF13F0804FBD
:104B100003D100F005F8FFF76BFFF0BCBDE8008C97
:104B200020F07F4723F07F4C80EA030000F0004034
:104B300007EB0C03A3F57C53A3F1FE0392F0000FE7
:104B400000F0B38095F0000F00F077802DE9014967
:104B50004FEA114021EA00484FEA144624EA06478A
:104B600000FB06FC08FB06F607FB08F818EB0648F6
:104B70004CEB164C00FB07F718EB07484CEB1740C3
:104B80004FEA124B22EA0B4E4FEA154625EA06473A
:104B90000BFB06FC0EFB06F607FB0EFE1EEB064E9D
:104BA0004CEB164C0BFB07F71EEB074E4CEB174B71
:104BB00018EB0B0840F1000018EB0E0B58EB000847
:104BC00040F100008F1A4FF000014FF000063CBF8B
:104BD000C943661B14BFB5EB040C00213CBFC9439D
:104BE000F61B4FEA174427EA04454FEA1C472CEA14
:104BF000074C04FB076205FB07F70CFB05F616EBF9
:104C0000074642EB174204FB0CFC16EB0C4642EB4A
:104C10001C421BEB060658EB020241414EEA8E0E87
:104C200046EA9E0601D5BDE80189B619524141EB1D
:104C30000101A3F10103BDE801894FEA144524EA0B
:104C400005464FEA114721EA074C05FB07F406FB2E
:104C500007F70CFB06F111EB074144EB174405FB8A
:104C60000CFC11EB0C4144EB1C444FEA124722EAC6
:104C7000074C05FB07F206FB07F70CFB06F616EBE5
:104C8000074642EB174205FB0CFC16EB0C4642EBC9
:104C90001C456A1854F1000148BF7047B6195241CB
:104CA00041EB0101A3F10103704795F0000F37D0EC
:104CB0004FEA114221EA02464FEA144724EA074C20
:104CC00002FB07F106FB07F70CFB06F414EB0744A5
:104CD00041EB174102FB0CFC14EB0C4441EB1C4173
:104CE0004FEA154725EA074C02FB07F506FB07F7D5
:104CF0000CFB06F616EB074645EB174502FB0CFCD2
:104D000016EB0C4645EB1C42121951F1000148BF4D
:104D10007047B619524141EB0101A3F101037047FD
:104D20004FEA144524EA05464FEA114721EA074CA9
:104D300005FB07F106FB07F70CFB06F212EB074237
:104D400041EB174105FB0CFC12EB0C4251EB1C41F3
:104D50004FF0000648BF7047921841EB0101A3F1E4
:104D600001037047490050EAC12018BF04204A0DD2
:104D700018BF40F0010040F2FF72B2EB515F08BF74
:104D800040F00200012808BF0520704741000802DA
:104D900018BF04200A0E18BF40F001004FF07F42F8
:104DA00032EA010108BF40F00200012808BF0520D7
:104DB0007047012101F017B80021084600F0BEBC81
:104DC0006FF05E01080701F00EB800002DE9F04D0C
:104DD0000D4614464FF07F41B1EB440F9EBF4FF09C
:104DE000FF312960BDE8F08D4FF0004040EA04211A
:104DF000C4F3C750783810F01F024A4B4FEA601CCA
:104E0000C2F120067B44C4F3C750A0F178004FEAFA
:104E1000601003EB800053F82C3008BFD0E901C6C6
:104E200012D0D0F804C093402CFA06F73B438768B1
:104E30000CFA02FC27FA06F8C06807FA02F2F04002
:104E40004CEA080C42EA0006A3FB0132ACFB01C0AD
:104E5000A6FB016101EB0C068E4234BF4FF0010C42
:104E60004FF0000CC1186144BCF1000F02D0814228
:104E700002D903E0814201D2012000E00020104469
:104E800000F120024FEA92188006CA0C40EA423034
:104E90004F03C5F8008000F063FD8246384600F0FD
:104EA00077FD6FF0120100F09EFF0746304600F0DC
:104EB0006FFD6FF0250100F096FF8346394650469E
:104EC00000F09EFB594600F09BFB00F500666FF377
:104ED0000B065146304600F0DDFE394600F0DAFEA2
:104EE000594600F0CDFE104900F0CEFD07460F49AF
:104EF000304600F0C9FD394600F082FB07460C49F8
:104F0000304600F0C1FD394600F07AFB14F0004F46
:104F100008BFBDE8F08DC8F1805180F000402960E5
:104F2000BDE8F08D6C100000DB0FC92F22AAFD290F
:104F30000000C92F30380A2801D201207047002014
:104F4000704700002DE9F843044602464F48694681
:104F5000B0EB420F09D94FF0E640B0EB420F94BFDF
:104F600000204FF0FF30009030E0494B22F000402D
:104F7000834271D94749204600F086FD00F050FE7B
:104F8000804600F0D1FC00F003000090424940460A
:104F900000F07AFD05464149404600F075FD0646A1
:104FA0003F49404600F070FD07463E49404600F04C
:104FB0006BFD214600F064FE394600F06BFE314681
:104FC00000F068FE294600F065FE04462546009C78
:104FD000002C45DB294614F0010F08461CD000F0D8
:104FE00053FD0646304900F04FFD304900F008FB04
:104FF000314600F049FD2E4900F002FB314600F039
:1050000043FD294600F040FD294600F0F9FA14F06E
:10501000020F1CD0BDE8F88300F036FD0546254997
:1050200000F032FD244900F0EBFA294600F02CFD97
:10503000224900F0E5FA294600F026FD4FF07E51A6
:1050400000F0DEFA14F0020F08BFBDE8F88380F02C
:105050000040BDE8F883FFE71046FFF7B7FEB4E76E
:105060006800B0F17F4F3CBF4FF07E50BDE8F88341
:1050700007D14FF00100FBF781FBBDE8F843FFF7D4
:105080009BBE2846BDE8F843FFF793BEB61F927E4D
:10509000490E494683F9223F1A61342C0020A2337D
:1050A00000A0FD390000C93F336D4CB9DA82083CDD
:1050B000A0AA2ABEB93AB2BACA9F2A3DDDFFFFBEF6
:1050C0002DE9F8430446024652486946B0EB420FC8
:1050D00009D94FF0E640B0EB420F94BF00204FF0EB
:1050E000FF30009030E04C4B22F00040834271D9F9
:1050F0004A49204600F0C8FC00F092FD804600F0CE
:1051000013FC00F0030000904549404600F0BCFC51
:1051100005464449404600F0B7FC06464249404631
:1051200000F0B2FC07464149404600F0ADFC214684
:1051300000F0A6FD394600F0ADFD314600F0AAFDB5
:10514000294600F0A7FD04462546009C002C45DBBF
:10515000294614F0010F08461ED000F095FC0546C4
:10516000334900F091FC334900F04AFA294600F037
:105170008BFC314900F044FA294600F085FC4FF0E1
:105180007E5100F03DFA14F0020F08BFBDE8F8832D
:1051900080F00040BDE8F88300F076FC0646274921
:1051A00000F072FC264900F02BFA314600F06CFC4E
:1051B000244900F025FA314600F066FC294600F04B
:1051C00063FC294600F01CFA14F0020FE0D1BDE8A0
:1051D000F883FFE71046FFF7F9FDB4E76800B0F188
:1051E0007F4F09D22846FFF7D1FD042808BFFFF7FB
:1051F000E7FD2846BDE8F88306D10120FBF7BEFA9B
:10520000BDE8F843FFF7D8BD2846BDE8F843FFF7EF
:10521000D0BD0000B61F927E490E494683F9223F59
:105220001A61342C0020A23300A0FD390000C93FD0
:10523000B93AB2BACA9F2A3DDDFFFFBE336D4CB901
:10524000DA82083CA0AA2ABE10B500290AD0087844
:10525000002807D005487844FBF752FF002801D00A
:10526000002010BD0248784410BD00005E0301001C
:10527000560301002DE9C04130B4DFF8A4C23CEA76
:10528000111418BF3CEA131400F0ED801CEA11144D
:1052900081EA030544EAD57418BF1CEA131500F02F
:1052A000C880A4EB050404F17F7404F500344FF0CA
:1052B000004545EAC12145EAC32341EA505143EA8A
:1052C00052534FEAC0204FEAC222994208BF90428F
:1052D00000F09D804FEA13650FF24416765D4FEAA9
:1052E000134506FB05F7C7F1807706FB07F74FEA82
:1052F000D737A7FB03687642A7FB06CEC8F58038F0
:1053000038BFA8F1010807FB08E6A6FB028C4FF0A6
:10531000000EE6FB03CEDCF1000CCEF1004E38BFF0
:10532000AEF1010EA6FB0C584FF00007E6FB0E870E
:10533000A1FB08C6A0FB07CE16EB0E064FF000053A
:1053400045F10005E1FB076515F1E04E7EBFA4F5D0
:1053500080345FEA46066D4116F1800745F100058D
:105360004FEA172747EA05674FEA15254FEA066611
:10537000A6F1DE46B6F1805F20D9384605EBC47150
:1053800024F0010C01EB0C11BCF1FE6F02D8F0BC53
:10539000BDE8008124425CBF01F5801E9EEAC47F07
:1053A00002D4F0BCBDE80081244200F13980A1F1B3
:1053B000C041F0BCBDE8004100F01BB94FEAD0206D
:1053C00040EA41504FEAD1214FEAD22242EA435209
:1053D0004FEAD323A7FB028607FB036605FB0266A1
:1053E0001EEA0E0F58BFA6EB0056B6EB00564FEA6A
:1053F000520E4EEAC37E18EB0E0E56EB530EBCD582
:1054000018EB02085E417F1C55F10005B5E74FF42B
:1054100080154FF000074FF000064FF00008ACE792
:1054200001F1C04101F000414FF00000F0BCBDE8C7
:1054300000810CEA131511EA0C1F00D00CE013EAEE
:105440000C1F00F026804FF0000081EA030101F0FC
:105450000041F0BCBDE80081F0BCBDE8004181EA3C
:10546000030100F0C6B8F0BCBDE8004170B500F023
:1054700072F800BF097EFC3E00F007B84FF0000054
:1054800081EA030101F00041704781EA030100F065
:10549000B0B8F0BCBDE8004122494FF000007047B1
:1054A000FFFDFBF9F7F5F4F2F0EEEDEBE9E8E6E4E9
:1054B000E3E1E0DEDDDBDAD8D7D5D4D3D1D0CFCD70
:1054C000CCCBCAC8C7C6C5C4C2C1C0BFBEBDBCBBA9
:1054D000BAB9B8B7B6B5B4B3B2B1B0AFAEADACABA4
:1054E000AAA9A8A8A7A6A5A4A3A3A2A1A09F9F9E7E
:1054F0009D9C9C9B9A999998979796959594939330
:10550000929191908F8F8E8E8D8C8C8B8B8A8989C6
:105510008888878786858584848383828281818049
:105520000000FF070000F87F10F0004248BF404233
:10553000B0FA80F310FA03F10AD0C3F11D0303F5AA
:10554000806302EB03524FEA415002EBD1217047D6
:105550004FF0000070470EF1020E2EF0030E5EF8C1
:10556000046B364205D4012A43EB030515F5001FF1
:1055700012D8012841EB010C1CF5001F0CD80ED1EC
:105580004FEAD17C0CEB4C0C0CF1020C15F5001F12
:1055900008BF4CEBD37C04E04FF0080C01E04FEA6D
:1055A000D37C0CEB4C0526FA05F606F00706B6F19F
:1055B000040C06D20EEB860CBDE870404CF0010CDA
:1055C0006047DFE80CF0090B02024FF00041A1F543
:1055D00000214FF0000070BD19461046012851EB24
:1055E000010418BFD4F5001484BF002001F000416D
:1055F00070BD0808A0F500114FEA310170470000A6
:1056000090EA010F48BF81F0004100F14A83421A3D
:105610003CBF801A89184FEAD052A2EBD1534FF009
:105620007F4C1CEA410F18BF9CEA026F00F03B80E0
:105630004FF0004C4CEA00204CEA012121FA03FC17
:1056400010EB0C0C1ED202F1FF325FEA1C2040EB83
:10565000C25038BF70471CF07F0F4FEA400C18BF94
:10566000BCF17F4F38BF7047C3F12003994008BF9A
:1056700020F00100BCF17F4F38BF7047A0F1C0405F
:1056800000F0C9BA4FEA3C00000A40EBC25028BF04
:105690001CF0FF0F4FEA400CE6D018BFBCF17F4F63
:1056A00038BF7047EAE79CEA026F05D010EA5C0F4A
:1056B00008BF00F00040704710B500F066FA00BF68
:1056C00064FBBE3E014800F05CBB00BF0000C07F31
:1056D00010B500F0F5F80CBF0120002010BD10B58A
:1056E00000F0EEF814BF0120002010BD10B500F04E
:1056F00063F98CBF0120002010BD10B500F05CF9EB
:105700002CBF0120002010BD10B500F089F994BF16
:105710000120002010BD10B500F082F934BF012037
:10572000002010BD401058BFC0F14040491058BF84
:10573000C1F140418142EFF3008070474FF47F0C8C
:105740001CEAD0121EBF1CEAD11392EA0C0F93EA96
:105750000C0F00F0858090EA010F48BF42F4807280
:1057600040F4000C41F400002CF07F4120F07F4019
:1057700000B5A2EB030281420FF2081CACEB504EC5
:105780009EF800E0C0F100004FEA4E0E00FB0EFC58
:1057900038BF49004FEA2C1C0CFB0EF34FEACE1E1B
:1057A0000EEB635E4FEA112C0EFB0CFC4FEAC1219D
:1057B0004FEA1C5300FB031102F5FA024FEA112CC9
:1057C0000EFB0CFC4FEA01314FEADC4C00FB0C11E4
:1057D00042EB2242C14228BF09184CEB03335DF86B
:1057E00004EB10EB410143EBC250B2F57C0F38BF24
:1057F000704729D512F0F00F1CBF00F1C04000F037
:1058000000407047008182838485868788898B8CDD
:105810008D8E8F919293959697999A9C9D9FA0A219
:10582000A3A5A7A8AAACAEB0B2B3B5B7B9BCBEC069
:10583000C2C5C7C9CCCED1D4D7D9DCDFE2E6E9EC0A
:10584000F0F3F7FAFE0000004FEA400C0CF1807C08
:10585000BCF17E4F28BF7047B0F1C04000F0DBB90B
:105860000CEAD11390EA010F48BF42F480726245FE
:1058700038BF634507D213F47F0F16D080EA0100CA
:1058800000F00040704710B500F07FF9097EFC3E43
:1058900000F005B880EA010000F00040704780EA9F
:1058A000010000F0004000F0B6B912F47F0F04BF11
:1058B0000248704780EA010000F0ADB90000C07FE7
:1058C00050EA010C00F113801CF5000F58BFBCF525
:1058D000000F01D48842704707D710F5000F58BF5A
:1058E00011F5000F15D488427047894270471CF5A6
:1058F000000F04D5BCF5000FF7D5814270474FF07B
:10590000807C1CEB400F38BF1CEB410F01D2814261
:10591000704710B500F039F9922449004FF000505B
:105920004FF08051FFF7FEBE41000B0ED3F19E02F7
:1059300008D950F400034FEA032323FA02F048BFCA
:105940004042704710B500F020F900BF4992248012
:10595000002070476FF0004282EA2000704700008C
:1059600010F0004148BF4042B0FA80F310FA03F251
:10597000C3F19D030BD051EAC35101EB1220530632
:1059800038BF704700F1010008BF20F001007047E8
:10599000B0FA80F310FA03F2C3F19D030AD0D905DF
:1059A00001EB1220530638BF704700F1010008BF19
:1059B00020F001007047000050EA010C00F1138054
:1059C0001CF5000F58BFBCF5000F01D4884270478A
:1059D00007D710F5000F58BF11F5000F15D48842F6
:1059E0007047894270471CF5000F04D5BCF5000FC5
:1059F000F7D5814270474FF0807C1CEB400F38BFD9
:105A00001CEB410F01D28142704710B500F0BDF888
:105A1000922449004FF080504FF00051FFF782BEB2
:105A200050EA010C00F113801CF5000F58BFBCF5C3
:105A3000000F01D48842704707D710F5000F58BFF8
:105A400011F5000F15D488427047894270471CF544
:105A5000000F04D5BCF5000FF7D5814270474FF019
:105A6000807C1CEB400F38BF1CEB410F01D2814200
:105A7000704710B500F089F8922449004FF00050AB
:105A80004FF08051FFF74EBE4FF47F0C1CEAD0124E
:105A90001EBF1CEAD11392EA0C0F93EA0C0F00F020
:105AA000478090EA010F48BF42F480724FF0004CEB
:105AB0004CEA00204CEA012102EB0302A0FB011397
:105AC000A2F50002002918BF43F001035B0028BFC4
:105AD0004FEA330342EB22425FEA132C4CEBC250F5
:105AE0002EBFBCEB436FB2F57C0F70474FEA036CDF
:105AF000BCF1004F08BF20F00100B2F57C0F38BFA9
:105B000070470BD582F0FF0212F5803FC8BF704787
:105B100000F1C040D8BF00F00040704700F5000C15
:105B20005FEA4C0C48BF7047B0F1C04000F073B85A
:105B30000CEAD11390EA010F48BF42F4807262452B
:105B400038BF634504D280EA010000F0004070478E
:105B500010B500F01AF800BF8900013E00F007B848
:105B600000F009B85FEA410C5FEA1C6C08D080EADB
:105B7000010000F050B85FEA400C5FEA1C6CF6D1FF
:105B80004FF00040A0F5800070470EF1020E2EF09D
:105B9000030E5EF8044B244204D44FEA4102B2F1F2
:105BA0007F4F11D84FEA4003B3F17F4F0CD80ED18D
:105BB0004FEAD07C0CEB4C0C0CF1020CB2F17F4F95
:105BC00008BF4CEBD17C04E04FF0080C01E04FEA39
:105BD000D17C0CEB4C0324FA03F404F00704B4F179
:105BE000040C06D20EEB840CBDE810404CF0010C06
:105BF0006047DFE80CF0070802024FF00040A0F514
:105C0000800010BD0846420018BFD2F1807288BFE4
:105C100000F0004010BDFF2141EAD050C0057047A0
:105C20005FEA400C5FEA1C6CBCF17F0314D4D3F133
:105C3000170240F31C804FF0010C0CFA02FCACF18F
:105C40000103034020EA0300B3EB5C0208BF10EA43
:105C50000C0F88BF60447047B3F1FF3F28BF5FEA75
:105C6000002C00F0004088BF40F07E507047BCF12F
:105C7000FF0FB8BF704710B5FFF787FF40DBB6BE18
:105C800080F0004090EA010F7FF5C1AC81F0004147
:105C900000F007B890EA010F48BF81F000413FF5DE
:105CA000B6AC421A04D882F00042A0EB02001144C4
:105CB0004FEAD052A2EBD1534FF07F4C1CEA410F78
:105CC00018BF9CEA026F4AD04FF0004C4CEA00200B
:105CD0004CEA012121FA03FCB0EB0C0C0FD412F0BA
:105CE000FE0F36D05FEA4C001DD5001240EBC250CB
:105CF00038BF70471CF03F0F18BF70470BE05FEADA
:105D00001C20A2F1010240EBC25038BF70471CF0CA
:105D10007F0F18BF7047C3F12003994014BF401E86
:105D200020F0010070474FEA1223800808BF704737
:105D3000B0FA80FCA2EB0C02CCF1280C60FA0CF05B
:105D400093EA122F04BF00EBC25070474FEAC370B2
:105D50007047130A5FEADC1008BF7047F6E79CEA59
:105D6000026F04D010EA5C0F08BF0020704710B526
:105D7000FFF70BFF40DFF63E81F000407047FAF777
:105D800034BE0CF00F03092B08BF082000F051802F
:105D90000A2B0BD0082B18BF704708BF1CF0400F10
:105DA0000AD04FF000004FF0000170471CF0400F88
:105DB00018BF4FF0004070471CF0100F08D000F0E3
:105DC0007F4220F0704342EAD3014FEA43707047AC
:105DD00000F0604021F07F4242EA000201F07F4083
:105DE00040EA727070474FF0FF0212EAD0521CBFB7
:105DF00092F0FF038B42C2BFD14200EBC15070470B
:105E0000002A0AD0002B0BD000F000400029A4BFCC
:105E100040F0FE4040F40000704700F00040704742
:105E200043024FF00B0C18BF4CF0806C7FF44AAC6F
:105E300070471CF4801F11D01CF4E02F03D06FEAD0
:105E4000CC31490070474FF04050EFF3008222F010
:105E5000704242EA000282F3008870474FF000006F
:105E6000704704000008000000000000000200016C
:105E700000001000000000006E83F9A22915444EB6
:105E8000D15727FCC0DD34F5999562DB4190433C46
:105E9000AB6351FE02400000000000A000000000C3
:105EA00005400000000000C8000000000C40000099
:105EB0000000409C00000000194000000020BCBE13
:105EC0000000000034400000BFC91B8E0000000429
:105ED000B5400000504BCFD06607E2CF0100000074
:105EE0006C4100003E8251AADFEEA73401000000A1
:105EF000D9420000DCB5A0E23A301F97FFFFFFFF58
:105F0000B4450000FD25A0C8E9A3C14FFFFFFFFF76
:105F1000FF3F00000000008000000000FF3F000085
:105F200000000080000000000000000000000000F1
:105F3000010203040607080900000000010203042F
:105F400013000000020000000404002024000000F0
:105F5000540000001400002000FF0069003A2401F2
:105F6000FF0400062401FF0400062401FF03C5010D
:105F700000062401FF03C50100062401FF03C5013B
:105F80000007FF03C5010007FF03C5010007FF036A
:105F9000C5010007FF0399010007FF0399010007EE
:105FA000C501FF0299010007C501FF029901000721
:105FB000C501FF0299010007C501FF029901000711
:105FC000C501FF026F010007C501FF026F01000755
:105FD0009901FF026F0100272401FF03C50100069C
:105FE0002401FF03C50100062401FF03C5010006CB
:105FF0002401FF03C501005000702401FF020005C9
:106000004901FF02000A6F01FF01C50100056F0190
:10601000FF01C501000A9901FF01990100059901DD
:10602000FF019901000AC501FF0149010005C501F1
:10603000FF014901000AFF0224010005FF022401BB
:1060400000094901FF0200054901FF02000A6F0132
:10605000FF01C50100056F01FF01C50100054901F0
:10606000FF12240100014901FF122401000224044F
:10607000FF0224054901FF02240400064901FF0232
:1060800000054901FF01C501000A6F01FF019901E7
:1060900000059901FF019901000AC501FF016F0187
:1060A0000005C501FF016F01000AFF022401000580
:1060B000FF02240100092401FF0200052401FF0260
:1060C00000062401FF12490100012401FF124901C9
:1060D00000022403C501FF0149012405C501FF0198
:1060E0006F01240400052401FF022401000424019F
:1060F000FF02240100094901FF0200054901FF02D6
:10610000000A6F01FF01990100056F01FF0199016C
:10611000000AC501FF016F0100059901FF016F0130
:10612000000AFF0249010005FF024901000924019C
:10613000FF02240100042401FF022401009A005CF4
:106140002401C501FF01990100069901FF014901E0
:106150000005FF0499010005FF0200056F01FF0122
:10616000C5014901FF02240100034901FF01990112
:106170000005C501FF016F010001C501FF014901D3
:106180000003C501FF0124010005FF0249010001D0
:106190009901FF016F0100022401FF01C501000602
:1061A000FF02490100019901FF01990100026F01FD
:1061B000FF016F0100052401FF024901000199015F
:1061C000FF0199010002C501FF012401000524011E
:1061D000FF02490100019901FF01C50100012401ED
:1061E000FF01990100062401FF0249010001990104
:1061F000FF01990100019901FF0149010007FF0218
:10620000490100019901FF0199010001FF0200010C
:106210009901FF026F010003C501FF01490100015F
:106220009901FF016F014901FF0199016F01FF040D
:10623000490100029901FF016F010001C501FF0141
:1062400049019901FF014901C501FF016F01990150
:10625000FF01990100026F01FF01C5014901FF0221
:106260002401FF01C5012401FF0200014901FF02D1
:106270000003FF0499016F01FF016F014901FF0253
:1062800000012401FF02240100022401C501FF01D5
:1062900099010001C501FF0124016F01FF01C50142
:1062A0000002FF02240100062401FF01C5010001D4
:1062B0006F01FF01C5010002FF02490100066F01E5
:1062C000FF01490100016F01FF01C5010002FF024A
:1062D00049010006FF0200026F01FF01C501000233
:1062E000FF02490100054901FF01990100026F0108
:1062F000FF01C50100012401FF02240100059901ED
:10630000FF01490100024901FF0200012401FF02CF
:1063100024010005FF01C50100032401FF02000163
:106320004901FF0200056F01FF016F010004C50173
:10633000FF019902FF0199010005C501FF01240138
:1063400000046F01FF04240100042401FF01C501C2
:1063500000066F01FF02490100800030FF03C50104
:106360000005FF0399010005FF0399010005C50120
:10637000FF0299010005C501FF026F010005C5017B
:10638000FF026F0100059901FF02490100DA004395
:10639000C501FF0300076F01FF032401000624016C
:1063A000FF036F010007C501FF0300076F01FF0333
:1063B00049010007FF03C50100076F01FF03490101
:1063C0000007C501FF0300072401FF036F01000759
:1063D0006F01FF03490100079901FF030008C50190
:1063E000FF02C5010008FF03C5010008FF03990172
:1063F00000072401FF03990100072401FF0399010D
:1064000000072401FF0399010008FF039901000818
:10641000FF03C5010008C501FF02C501000899017D
:10642000FF0300086F01FF03490100072401FF0378
:1064300099010008C501FF0300086F01FF0349012E
:106440000008FF03C50100086F01FF0349010008B0
:10645000C501FF0300082401FF036F0100086F015D
:10646000FF0324010008C501FF030001003D99015D
:10647000FF0324010008FF03C50100084901FF03D1
:106480006F0100089901FF0324010008FF0399012F
:1064900000086F01FF03240100072401FF03990195
:1064A00000089901FF03240100074901FF036F0160
:1064B0000008FF0399010008C501FF0300089901C6
:1064C000FF03240100076F01FF03240100076F0190
:1064D000FF03490100074901FF0349010007490182
:1064E000FF03490100074901FF03490100076F014C
:1064F000FF03490100076F01FF0324010007990111
:10650000FF0324010007C501FF030008FF039901F1
:1065100000074901FF036F0100079901FF032401F0
:106520000007FF03990100076F01FF032401000723
:10653000FF03990100079901FF03240100064901A7
:10654000FF036F010007FF03C50100079901FF0367
:106550002401000600E22401FF0300142401FF03CC
:1065600000142401FF0300142401FF03001424017C
:10657000FF0300142401FF0300142401FF03000D96
:106580004901FF11490100054901FF1149010005B9
:106590004901FF114901000624064901FF032407B0
:1065A000000D2401FF0300142401FF030014240143
:1065B000FF0300142401FF0300142401FF0300144F
:1065C0002401FF0300142401FF0300E200CA990123
:1065D000FF036F0100039901FF036F01000399019D
:1065E000FF036F0100039901FF036F010005C5015F
:1065F000FF0149010005FF02490100044901FF02B2
:106600000005C501FF01990100046F01FF0224018B
:10661000001200FF009D6F01990100109901FF0118
:1066200000109901FF0100109901FF01001099016C
:10663000FF0100109901FF0100109901FF010010F6
:106640009901FF0100109901FF0100109901FF015C
:1066500000112401003600CA9901FF036F010003F5
:106660009901FF036F0100039901FF036F0100030C
:106670009901FF036F0100390051C501FF02000AB3
:106680004901FF03000AC501FF02C50100092401F9
:10669000FF036F0100099901FF0300092401FF03B3
:1066A0006F0100096F01FF0324010009FF03990135
:1066B00000094901FF0349010009C501FF02C501A5
:1066C00000094901FF03490100099901FF0300097D
:1066D0002401FF036F0100096F01FF03240100097A
:1066E000FF03990100096F01FF0324010009C5019F
:1066F000FF02C50100094901FF0349010009990191
:10670000FF0300092401FF036F0100099901FF0342
:10671000000AFF03990100096F01FF03240100092A
:10672000C501FF02C50100094901FF034901000934
:10673000C501FF02C501005000654901C501FF0404
:106740009901240100092401C501FF0899010008ED
:10675000FF0B990100069901FF046F0124026F01EC
:10676000FF04490100042401FF042401000449013D
:10677000FF03C50100046F01FF036F010006C5019F
:10678000FF0324010003C501FF03240100066F017C
:10679000FF036F010003FF0400074901FF03990194
:1067A00000022401FF03C50100072401FF03C50106
:1067B00000022401FF03C5010008FF040002490193
:1067C000FF0399010008FF0400024901FF0399013A
:1067D0000008FF0400024901FF0399010008FF04BB
:1067E00000024901FF0399010008FF04000224018F
:1067F000FF03C5010008FF0400022401FF03C501D7
:1068000000072401FF03C5010003FF04000749013D
:10681000FF03990100039901FF03240100066F01A2
:10682000FF036F0100036F01FF036F010006C50145
:10683000FF0324010004FF04240100046F01FF038F
:10684000C50100056F01FF046F0124029901FF04D7
:1068500024010006C501FF0A6F010008C501FF08F9
:106860006F01000A4901C501FF03C5019901240117
:10687000008A0030FF03C5010004FF016F01000220
:10688000C50200026F01C50100032401FF01490197
:106890000001C5016F010003C501FF016F01000187
:1068A000FF016F0100014901FF016F01C50199015D
:1068B0000001FF016F01C501FF010002C50199013F
:1068C0000001C501FF016F010003C5016F01000157
:1068D0009901C50100032401FF01240100012401E5
:1068E000FF016F010002C501990100032401FF03AC
:1068F0009901002600674901FF042401000B2401CF
:10690000C501FF052401000A6F01FF0724010008EB
:106910002401C501FF03C501FF04240100086F0124
:10692000FF0399010001FF04240100086F01FF012A
:10693000C50124010002FF04240100086F01490180
:106940000004FF042401000EFF042401000EFF04D4
:106950002401000EFF042401000EFF042401000E98
:10696000FF042401000EFF042401000EFF04240193
:10697000000EFF042401000EFF042401000EFF049A
:106980002401000EFF042401000EFF042401000E68
:10699000FF04240100082406FF0449012404000325
:1069A0002401FF0F490100022401FF0F49010002E9
:1069B0002401FF0F4901008500302401FF0200057A
:1069C0009901C5019901FF010004490199010001E4
:1069D0009901FF0100079901FF0100079901FF01DB
:1069E00000079901FF0100079901FF0100079901C4
:1069F000FF0100079901FF0100042401FF062401A3
:106A0000002400654901C501FF04C50149010009D1
:106A10002401C501FF08C501240100062401FF0C63
:106A200024010005C501FF03C501490124026F01CE
:106A3000FF04C50100044901FF0400052401FF040F
:106A4000240100039901FF03490100069901FF0396
:106A5000490100039901C501FF02240100066F01ED
:106A6000FF036F01000E9901FF034901000EFF04AF
:106A70002401000D6F01FF03C501000D4901FF0452
:106A80002401000C4901FF046F01000C6F01FF0499
:106A90009901000C9901FF046F01000CC501FF046E
:106AA0004901000CC501FF042401000CC501FF03CE
:106AB000C5012401000C9901FF03C501000D6F0100
:106AC000FF03C501000D2401FF042401000D9901FD
:106AD000FF036F01240B0003FF0FC5010003FF0F2D
:106AE000C5010003FF0FC501008600654901C5010E
:106AF000FF04C501490100094901FF09C50124013D
:106B000000064901FF0C24010005FF04C5014901ED
:106B100024029901FF04990100046F01FF03990108
:106B200000054901FF040004C501FF03240100061C
:106B3000FF0424010003C502FF01C5010007C501D0
:106B4000FF032401000EC501FF03000E4901FF03EE
:106B50009901000C24019901FF04000AFF07990123
:106B6000000BFF05C5012401000CFF07C501490109
:106B7000000A240349019901FF046F01000E24015A
:106B8000FF042401000E6F01FF039901000E49016B
:106B9000FF03C50100024901C502FF016F010007A3
:106BA0004901FF03C50100024901FF03C5010007B8
:106BB0006F01FF0399010003FF044901000524014F
:106BC000FF046F0100036F01FF04990124036F01AB
:106BD000FF050005C501FF0C490100069901FF0AE8
:106BE0004901000824019901C501FF04C5014901BB
:106BF000008A00696F01FF042401000C2401FF05D5
:106C00002401000CC501FF052401000B4901FF060A
:106C10002401000BFF03C501FF032401000A9901B1
:106C2000FF029902FF03240100092401FF03000170
:106C30009901FF0324010009C501FF026F01000152
:106C40009901FF03240100086F01FF02C501000242
:106C50009901FF0324010008FF0349010002990183
:106C6000FF03240100079901FF0299010003990124
:106C7000FF03240100064901FF03240100039901D9
:106C8000FF0324010006C501FF026F010004990102
:106C9000FF03240100056F01FF0300059901FF03B5
:106CA000240100042401FF03490100059901FF03A9
:106CB000240100049901FF02C50100069901FF03A8
:106CC00024010004FF1199010001FF119901000145
:106CD000FF1199010001240A9901FF0349012402CF
:106CE000000C9901FF032401000E9901FF03240108
:106CF000000E9901FF032401000E9901FF032401F6
:106D000000880062C501FF0C6F010005C501FF0C82
:106D10006F010005C501FF0C6F010005FF0399011C
:106D200024090006FF039901000FFF036F01000E05
:106D30002401FF036F01000E2401FF036F01000E09
:106D40004901FF034902C501FF03C501990124015F
:106D500000064901FF0C490100054901FF0D4901E9
:106D600000046F01FF04C501490124026F01FF0502
:106D700000046F01C5036F0100052401FF046F01CA
:106D8000000E6F01FF039901000E2401FF03C501EE
:106D9000000E2401FF03C501000E2401FF03C501FD
:106DA000000E4901FF03C50100022401C502FF01D5
:106DB000C50100076F01FF036F010003FF044901D4
:106DC00000052401FF04240100036F01FF04990161
:106DD00024039901FF0499010005C501FF0BC501BA
:106DE0000007C501FF099901000924019901C501A6
:106DF000FF03C50199012401008A00666F01C501E6
:106E0000FF03C5019901240100094901FF09990106
:106E100000074901FF0B6F0100052401FF04C501B4
:106E2000490124029901FF0400059901FF0399011A
:106E300000056F01FF01C501990124010004FF0451
:106E4000000E4901FF036F01000E9901FF03490184
:106E5000000EC501FF03000FC501FF0300026F0113
:106E6000C501FF03C50124010006FF03C50124017C
:106E7000FF0899010005FF03C501FF0A99010004FD
:106E8000FF066F0124024901C501FF044901000307
:106E9000FF050006C501FF0399010003FF04490136
:106EA00000064901FF03C5010003C501FF032401DA
:106EB0000007FF0400039901FF0324010007FF04FA
:106EC00000036F01FF0349010007FF0400032401D1
:106ED000FF03990100064901FF03C5010004C50134
:106EE000FF0349010005C501FF036F0100044901CB
:106EF000FF04990124024901C501FF04000699011C
:106F0000FF0B490100076F01FF0949010009240136
:106F10009901C501FF03C5016F01008A0061FF0FE0
:106F200099010003FF0F99010003FF0F990100036E
:106F3000240B4901FF036F01000EC501FF02C501CB
:106F4000000E6F01FF034901000EFF039901000EBF
:106F50009901FF032401000D4901FF036F01000E99
:106F6000C501FF03000E4901FF036F01000EC501BB
:106F7000FF03000E4901FF036F01000EC501FF036F
:106F80002401000D2401FF039901000E6F01FF038E
:106F90004901000EC501FF03000E2401FF03C501D6
:106FA000000E4901FF036F01000E9901FF03490123
:106FB000000EC501FF032401000EC501FF03000FF1
:106FC000FF04000FFF04008E006424016F01C5015F
:106FD000FF04C501490100096F01FF0A24010006F1
:106FE0006F01FF05C502FF05240100042401FF0411
:106FF00049010004C501FF03C50100046F01FF033F
:1070000099010006FF04240100039901FF034901CF
:107010000006C501FF03490100039901FF0349016F
:1070200000069901FF03490100036F01FF036F018F
:107030000006C501FF03240100032401FF03C5016D
:1070400000052401FF03C50100056F01FF03C50111
:10705000240100024901FF04240100066F01FF0919
:10706000C501240100082401C501FF06990124017E
:1070700000072401C501FF04C502FF0499010006B1
:10708000FF04490100049901FF03C50100049901AF
:10709000FF03490100069901FF0349010003FF04B2
:1070A00000074901FF03990100022401FF03C50104
:1070B00000072401FF03C50100022401FF03C501ED
:1070C00000072401FF03C50100022401FF0400079B
:1070D0004901FF03C5010003FF04490100069901AE
:1070E000FF03990100036F01FF04490100046F01D0
:1070F000FF0424010004C501FF05C502FF056F015F
:1071000000069901FF0A6F01000824019901C501D9
:10711000FF04C5016F01008A006424016F01C501ED
:10712000FF03C5016F01240100096F01FF096F0111
:1071300000076F01FF0B6F0100054901FF04C50146
:1071400049012402C501FF04240100049901FF0341
:10715000990100059901FF0399010004FF0424012E
:107160000006FF0400032401FF03C5010007990185
:10717000FF03490100024901FF03990100076F0164
:10718000FF036F0100024901FF0399010007490154
:10719000FF03990100022401FF03C50100076F01ED
:1071A000FF03990100022401FF0400079901FF0376
:1071B000C5010003C501FF036F0100052401FF04A1
:1071C000C50100036F01FF04990100034901FF0598
:1071D000C5010004C501FF0D990100042401FF0948
:1071E0004901FF03990100069901FF05990100017A
:1071F0002401FF036F010008240300036F01FF0354
:107200004901000E9901FF03240100036F01990158
:10721000C50200062401FF03C50100049901FF0314
:1072200049010005C501FF03490100044901FF04AC
:107230006F0124024901C501FF03C5010006990140
:10724000FF0B240100079901FF08C5012401000973
:1072500024019901FF04C5014901008B00629901D5
:10726000FF036F0100039901FF036F010003990100
:10727000FF036F0100039901FF036F01004B9901A8
:10728000FF036F0100039901FF036F0100039901E0
:10729000FF036F0100039901FF036F0100390062D2
:1072A0009901FF036F0100039901FF036F010003C0
:1072B0009901FF036F0100039901FF036F01004B68
:1072C0009901FF036F0100039901FF036F010003A0
:1072D0009901FF036F0100039901FF036F0100058E
:1072E000C501FF0149010005FF0224010004490115
:1072F000FF020005C501FF01990100046F01FF02B3
:107300002401001200EB2401C501490100122401EF
:107310009901FF03490100104901C501FF05490119
:10732000000D24019901FF076F01000C4901C501FF
:10733000FF06C5012401000B2401C501FF076F01F1
:10734000000C6F01FF0799012401000D4901FF05A1
:10735000C501490100104901FF03990124010012F0
:107360004901FF039901240100124901FF05C501EC
:10737000490100116F01FF07990124010010240148
:10738000C501FF06C501490100116F01C501FF06D6
:1073900099012401001024019901FF076F010011D8
:1073A0004901C501FF054901001224019901FF03AC
:1073B000490100152401C501490100DA00FF00243C
:1073C0004901FF11490100054901FF11490100056B
:1073D0004901FF114901000624110067241100062C
:1073E0004901FF11490100054901FF11490100054B
:1073F0004901FF11490100FF002300DB4901C501DC
:10740000240100154901FF036F0100134901FF0525
:10741000C501490100116F01FF0799012401001006
:107420002401C501FF06C501490100116F01FF07D5
:107430009901240100102401C501FF076F0100110B
:107440006F01FF064901001224019901FF03490160
:10745000001224019901FF03490100104901C501EF
:10746000FF054901000D24019901FF076F01000C80
:107470006F01FF0799012401000B2401C501FF06DC
:10748000C5014901000C6F01FF0799012401000D9E
:107490004901FF05C501490100104901FF036F01C2
:1074A00000134901C501240100EA00542401990197
:1074B000C501FF03C5016F01240100069901FF0901
:1074C0006F0100049901FF0B6F0100024901FF04E5
:1074D0006F0100039901FF040002C501FF03490188
:1074E00000059901FF0349010001FF04000649015D
:1074F000FF036F012401C501FF0299010006240169
:10750000FF036F01000B4901FF036F01000BC50171
:10751000FF032401000A6F01FF03C501000A6F0188
:10752000FF04240100099901FF04490100099901A0
:10753000FF04240100094901FF042401000AC501D8
:10754000FF032401000A2401FF036F01000B49011E
:10755000FF032401003B6F01FF036F01000B6F016C
:10756000FF036F01000B6F01FF036F01000B6F0141
:10757000FF036F01007600B224019901C501FF05E8
:10758000C50199014901001324019901FF0DC501AD
:107590002401000F9901FF0599016F0149036F0153
:1075A0009901FF059901000C2401C501FF03990110
:1075B0002401000924019901FF03C501000A2401E7
:1075C000FF0399012401000D2401C501FF02990167
:1075D00000082401FF0349010011C501FF026F01EA
:1075E0000007FF0349010013FF0300069901FF0292
:1075F0006F0100064901C501FF03C50149010001F2
:107600004901FF02990100026F01FF0249010004D4
:107610002401FF02C50100054901FF089902FF028C
:107620006F010003FF02990100049901FF02490163
:1076300000046F01FF039901240249019901FF052C
:1076400024010003C501FF01C5010004FF02C501BB
:1076500000044901FF03490100056F01FF04000414
:107660009901FF0200034901FF026F010004FF03BB
:107670006F010007FF03990100046F01FF0200037F
:107680009901FF02240100036F01FF02C5010008F8
:10769000C501FF026F0100046F01FF020003C50175
:1076A000FF020004C501FF026F010008FF0324016F
:1076B00000049901FF020003C501FF01C501000498
:1076C000FF03240100072401FF030005C501FF019A
:1076D000C5010003FF02C50100032401FF030008E8
:1076E0006F01FF0299010005FF0299010003FF02EB
:1076F000C50100032401FF030008FF036F0100041C
:107700006F01FF0249010003FF02C50100032401CC
:10771000FF0300079901FF0324010004FF02C501D4
:107720000004C501FF020004FF03490100056F01C9
:10773000FF04240100039901FF024901000499019B
:10774000FF02240100036F01FF034901000224012D
:107750009901FF029901FF02490100012401C501BD
:10776000FF02990100054901FF026F010004C501F4
:10777000FF086F012401FF0799010007FF030005BF
:107780009901FF05C501240100026F01FF054901B0
:1077900000086F01FF02990100062401490124013C
:1077A00000072403000BFF036F01001D2401FF03EA
:1077B0009901000F4901C5012401000B4901FF0493
:1077C0004901000A24019901FF039901000C2401D9
:1077D000C501FF04C50199016F0149029902C50164
:1077E000FF05C5014901000E4901C501FF0D9901C1
:1077F0002401001224016F01C501FF05C501990193
:107800006F012401004D00816F01FF0499010012F6
:10781000FF0600114901FF066F0100109901FF06E4
:10782000C5010010FF039902FF032401000E6F0140
:10783000FF034902FF036F01000EC501FF030002B1
:10784000C501FF03000D2401FF03990100026F0130
:10785000FF034901000C6F01FF0324010002240112
:10786000FF039901000CFF03C5010004C501FF03DC
:10787000000B4901FF036F0100044901FF034901A7
:10788000000A9901FF0324010005FF03C501000A56
:10789000FF03990100069901FF03240100086F010D
:1078A000FF03490100062401FF036F010008C50121
:1078B000FF0EC50100072401FF10490100066F01FA
:1078C000FF1099010006FF046F014909FF0400053C
:1078D0004901FF03C501000A9901FF0349010004A2
:1078E0009901FF036F01000A4901FF03C50100046C
:1078F000FF04000CFF04240100026F01FF03990143
:10790000000C9901FF036F010002C501FF0349014B
:10791000000C4901FF03C50100012401FF04000E12
:10792000C501FF03490100A8006C9901FF08C502C9
:107930006F0100099901FF0C990100079901FF0DE2
:10794000C50100069901FF036F0100044901C5014B
:10795000FF04490100059901FF036F010006FF04C0
:10796000990100059901FF036F0100066F01FF03F4
:10797000C50100059901FF036F0100066F01FF03B8
:10798000C50100059901FF036F0100069901FF037E
:107990006F0100059901FF036F0100052401FF0439
:1079A000240100059901FF036F0100044901FF0450
:1079B0006F0100069901FF0BC501490100079901FC
:1079C000FF0AC5016F01240100079901FF04C504E6
:1079D000FF05990100069901FF036F0100052401CD
:1079E000C501FF03C50100059901FF036F010007F1
:1079F000C501FF036F0100049901FF036F01000738
:107A00004901FF0400049901FF036F0100072401ED
:107A1000FF04240100039901FF036F010007240103
:107A2000FF04240100039901FF036F0100074901CE
:107A3000FF0400049901FF036F010007FF04C50163
:107A400000049901FF036F01000424016F01FF0589
:107A5000490100049901FF0E6F0100059901FF0D16
:107A6000490100069901FF09C501990149010098E2
:107A700000764901C501FF04C50199012401000BED
:107A80004901FF0AC501240100089901FF0D2401E5
:107A900000066F01FF05C5016F0149016F01C501B6
:107AA000FF0500052401FF04C50124010005240190
:107AB000FF04990100049901FF0400082401FF0458
:107AC00000032401FF04490100099902490100044F
:107AD0004901FF0400119901FF0399010011990167
:107AE000FF036F010011C501FF036F010011C50104
:107AF000FF0349010011C501FF0349010011C50140
:107B0000FF036F0100119901FF036F0100116F0165
:107B1000FF03C50100114901FF04240100096F01A1
:107B2000990124010005FF046F010009FF03C5014D
:107B3000240100039901FF04240100076F01FF03E2
:107B4000C50100042401FF05240100056F01FF04A5
:107B5000490100054901FF05C5016F0149016F0198
:107B6000C501FF04990100076F01FF0CC501000961
:107B70004901FF0A9901000C4901C501FF04C50133
:107B80006F012401009F00809901FF0AC50199013E
:107B90002401000B9901FF0E6F0100099901FF0FED
:107BA000C50100089901FF03990149059901FF07E3
:107BB00000079901FF036F0100072401C501FF04BD
:107BC000C50100069901FF036F0100099901FF0437
:107BD000490100059901FF036F01000AC501FF0378
:107BE000C50100059901FF036F01000A4901FF0467
:107BF000240100049901FF036F01000BFF044901F8
:107C000000049901FF036F01000B9901FF036F014D
:107C100000049901FF036F01000B9901FF03990113
:107C200000049901FF036F01000B6F01FF0399012D
:107C300000049901FF036F01000B9901FF039901F3
:107C400000049901FF036F01000B9901FF039901E3
:107C500000049901FF036F01000BC501FF036F01D1
:107C600000049901FF036F01000BFF0449010004A8
:107C70009901FF036F01000A6F01FF0400059901DC
:107C8000FF036F01000AFF04990100059901FF033A
:107C90006F010009C501FF04240100059901FF03DC
:107CA0006F0100072401C501FF046F01000699015F
:107CB000FF03990149059901C501FF05C5010007A9
:107CC0009901FF0F990100089901FF0E4901000970
:107CD0009901FF0AC5019901240100B7005D9901CE
:107CE000FF0C6F0100049901FF0C6F010004990162
:107CF000FF0C6F0100049901FF0399014908240159
:107D000000049901FF036F01000D9901FF036F014A
:107D1000000D9901FF036F01000D9901FF036F0131
:107D2000000D9901FF036F01000D9901FF036F0121
:107D3000000D9901FF0B490100059901FF0B490155
:107D400000059901FF0B490100059901FF03990105
:107D50004907240100059901FF036F01000D9901F6
:107D6000FF036F01000D9901FF036F01000D9901E1
:107D7000FF036F01000D9901FF036F01000D9901D1
:107D8000FF036F01000D9901FF03990149090004E8
:107D90009901FF0D240100039901FF0D2401000347
:107DA0009901FF0D2401007E005D6F01FF0CC501EC
:107DB00000046F01FF0CC50100046F01FF0CC50139
:107DC00000046F01FF03C501490900046F01FF03AF
:107DD0009901000D6F01FF039901000D6F01FF0371
:107DE0009901000D6F01FF039901000D6F01FF0361
:107DF0009901000D6F01FF039901000D6F01FF0351
:107E00009901000D6F01FF0C490100046F01FF0C87
:107E1000490100046F01FF0C490100046F01FF03D9
:107E2000C5014908240100046F01FF039901000DF9
:107E30006F01FF039901000D6F01FF039901000D10
:107E40006F01FF039901000D6F01FF039901000D00
:107E50006F01FF039901000D6F01FF039901000DF0
:107E60006F01FF039901000D6F01FF039901008865
:107E7000008049019901C501FF04C5016F0124017A
:107E8000000C4901FF0B9901000A9901FF0DC50182
:107E900000086F01FF05C5016F0149029901FF0547
:107EA000C50100062401FF04C501240100066F017D
:107EB000FF0449010005C501FF0400096F01FF032C
:107EC000C50100042401FF044901000AC50199010C
:107ED000240100056F01FF0400139901FF039901BC
:107EE0000013C501FF036F010013FF0449010013D4
:107EF000FF0449010013FF04490100052401FF09A3
:107F000024010003FF04490100052401FF092401A5
:107F10000003C501FF036F0100052401FF092401CF
:107F200000039901FF039901000B9901FF0324014C
:107F300000034901FF04000B9901FF032401000322
:107F40002401FF046F01000A9901FF0324010004CA
:107F50009901FF04240100099901FF032401000491
:107F60002401FF05490100079901FF0424010005D0
:107F70004901FF05C5016F0149026F01C501FF06F7
:107F800000076F01FF0EC50100092401C501FF0AAA
:107F9000C5014901000C24019901C501FF04C50177
:107FA0006F01240100AE00859901FF039901000BC8
:107FB0009901FF03490100059901FF039901000B95
:107FC0009901FF03490100059901FF039901000B85
:107FD0009901FF03490100059901FF039901000B75
:107FE0009901FF03490100059901FF039901000B65
:107FF0009901FF03490100059901FF039901000B55
:108000009901FF03490100059901FF039901000B44
:108010009901FF03490100059901FF039901000B34
:108020009901FF03490100059901FF039901000B24
:108030009901FF03490100059901FF039901000B14
:108040009901FF03490100059901FF13490100054A
:108050009901FF13490100059901FF13490100052A
:108060009901FF03C501490BC501FF034901000543
:108070009901FF039901000B9901FF0349010005D4
:108080009901FF039901000B9901FF0349010005C4
:108090009901FF039901000B9901FF0349010005B4
:1080A0009901FF039901000B9901FF0349010005A4
:1080B0009901FF039901000B9901FF034901000594
:1080C0009901FF039901000B9901FF034901000584
:1080D0009901FF039901000B9901FF034901000574
:1080E0009901FF039901000B9901FF034901000564
:1080F0009901FF039901000B9901FF034901000554
:108100009901FF039901000B9901FF03490100B890
:108110000035C501FF036F010005C501FF036F01B5
:108120000005C501FF036F010005C501FF036F01D5
:108130000005C501FF036F010005C501FF036F01C5
:108140000005C501FF036F010005C501FF036F01B5
:108150000005C501FF036F010005C501FF036F01A5
:108160000005C501FF036F010005C501FF036F0195
:108170000005C501FF036F010005C501FF036F0185
:108180000005C501FF036F010005C501FF036F0175
:108190000005C501FF036F010005C501FF036F0165
:1081A0000005C501FF036F010005C501FF036F0155
:1081B0000005C501FF036F010005C501FF036F0145
:1081C0000005C501FF036F010005C501FF036F0135
:1081D000004800496F01FF07C50100056F01FF0757
:1081E000C50100056F01FF07C50100052401490312
:1081F0006F01FF03C50100094901FF03C501000923
:108200004901FF03C50100094901FF03C501000938
:108210004901FF03C50100094901FF03C501000928
:108220004901FF03C50100094901FF03C501000918
:108230004901FF03C50100094901FF03C501000908
:108240004901FF03C50100094901FF03C5010009F8
:108250004901FF03C50100094901FF03C5010009E8
:108260006F01FF03990100099901FF036F010008E5
:108270004901FF04490100022401C5016F014902BF
:10828000C501FF04C50100032401FF092401000307
:108290002401FF08240100042401C501FF04C501D5
:1082A0006F010068006CC501FF0349010007490127
:1082B000FF0499010003C501FF03490100062401E1
:1082C000FF04C5010004C501FF0349010006C50103
:1082D000FF040005C501FF03490100059901FF04E2
:1082E00049010005C501FF03490100046F01FF04B6
:1082F0006F010006C501FF03490100032401FF04CB
:1083000099010007C501FF0349010003FF04C501EE
:108310000008C501FF0349010002C501FF0400096F
:10832000C501FF03490100019901FF04490100094A
:10833000C501FF034902FF046F01000AC501FF03E5
:108340006F01FF05000BC501FF096F01000AC501A0
:10835000FF0A24010009C501FF054901FF04C50109
:108360000009C501FF04240100014901FF046F0158
:108370000008C501FF03490100039901FF0424011E
:108380000007C501FF0349010004FF04C501000700
:10839000C501FF03490100044901FF046F01000604
:1083A000C501FF0349010005C501FF0424010005C3
:1083B000C501FF03490100052401FF04C5010005B3
:1083C000C501FF03490100066F01FF046F010004AE
:1083D000C501FF0349010007C501FF042401000393
:1083E000C501FF03490100072401FF04C501000383
:1083F000C501FF03490100086F01FF040093005805
:108400009901FF036F01000C9901FF036F01000C3C
:108410009901FF036F01000C9901FF036F01000C2C
:108420009901FF036F01000C9901FF036F01000C1C
:108430009901FF036F01000C9901FF036F01000C0C
:108440009901FF036F01000C9901FF036F01000CFC
:108450009901FF036F01000C9901FF036F01000CEC
:108460009901FF036F01000C9901FF036F01000CDC
:108470009901FF036F01000C9901FF036F01000CCC
:108480009901FF036F01000C9901FF036F01000CBC
:108490009901FF036F01000C9901FF036F01000CAC
:1084A0009901FF039901490900039901FF0CC501D6
:1084B00000039901FF0CC50100039901FF0CC501E0
:1084C000007700A39901FF05000E4901FF0549014E
:1084D00000059901FF056F01000DC501FF05490168
:1084E00000059901FF05C501000C2401FF064901A3
:1084F00000059901FF064901000B6F01FF064901C4
:1085000000059901FF03C501FF029901000BFF035C
:10851000C501FF03490100059901FF036F01FF0336
:10852000240100094901FF036F01FF034901000510
:108530009901FF032401FF036F010009C501FF0238
:1085400099014901FF03490100059901FF03000159
:108550009901FF02C50100082401FF034902FF033E
:10856000490100059901FF0300014901FF03490189
:1085700000076F01FF0300014901FF0349010005E6
:108580009901FF030002FF0399010007FF036F0138
:1085900000014901FF03490100059901FF030002A1
:1085A0006F01FF03240100054901FF0324010001BD
:1085B0004901FF03490100059901FF03000224015D
:1085C000FF036F0100059901FF02C5010002490187
:1085D000FF03490100059901FF0300039901FF030F
:1085E00000042401FF03490100024901FF0349017E
:1085F00000059901FF0300034901FF03490100033E
:108600006F01FF0300034901FF03490100059901C0
:10861000FF030004FF0399010003C501FF02990154
:1086200000034901FF03490100059901FF0300040C
:108630006F01FF03240100014901FF03240100032E
:108640004901FF03490100059901FF0300042401CA
:10865000FF036F0100019901FF02C50100044901F8
:10866000FF03490100059901FF0300059901FF027D
:10867000C5010001FF036F0100044901FF03490127
:1086800000059901FF0300054901FF036F01FF0386
:1086900000054901FF03490100059901FF03000698
:1086A000FF06990100054901FF03490100059901F1
:1086B000FF0300066F01FF05490100054901FF03A3
:1086C000490100059901FF0300062401FF04C501CB
:1086D00000064901FF03490100059901FF03000756
:1086E0009901FF036F0100064901FF0349010005DD
:1086F0009901FF0300074901FF0324010006490116
:10870000FF03490100E2008A9901FF049901000B6F
:108710006F01FF03490100059901FF054901000AA6
:108720006F01FF03490100059901FF06000A6F016F
:10873000FF03490100059901FF066F0100096F0160
:10874000FF03490100059901FF07240100086F019B
:10875000FF03490100059901FF036F01FF03C501F4
:1087600000086F01FF03490100059901FF030001A3
:10877000C501FF036F0100076F01FF0349010005F9
:108780009901FF032402FF04240100066F01FF0387
:10879000490100059901FF03240100016F01FF0356
:1087A000990100066F01FF03490100059901FF03CC
:1087B00024010002C501FF03490100056F01FF0309
:1087C000490100059901FF03240100024901FF044A
:1087D00000056F01FF03490100059901FF03240112
:1087E00000039901FF03990100046F01FF03490190
:1087F00000059901FF0324010004FF042401000384
:108800006F01FF03490100059901FF0324010004E2
:108810004901FF03C50100036F01FF034901000582
:108820009901FF0324010005C501FF036F01000248
:108830006F01FF03490100059901FF0324010005B1
:108840002401FF04240100016F01FF034901000519
:108850009901FF03240100066F01FF03C501000118
:108860006F01FF03490100059901FF03240100077F
:10887000C501FF0349016F01FF034901000599018B
:10888000FF03240100072401FF044901FF034901FC
:1088900000059901FF03240100089901FF07490120
:1088A00000059901FF0324010009FF0749010005A4
:1088B0009901FF03240100094901FF064901000550
:1088C0009901FF032401000A9901FF0549010005F0
:1088D0009901FF032401000A2401FF05490100BF9B
:1088E000008A24016F01C501FF04C5026F01000E5B
:1088F0002401C501FF0B9901000B4901FF0F240161
:1089000000084901FF06990149026F019901FF061C
:10891000240100062401FF05490100076F01FF043F
:10892000C50100069901FF04240100096F01FF043D
:108930006F0100042401FF044901000B9901FF03AA
:10894000C50100046F01FF04000C2401FF04240191
:1089500000039901FF039901000DC501FF036F0199
:108960000003C501FF034901000D9901FF039901AF
:108970000003FF044901000D6F01FF03990100038B
:10898000FF042401000D6F01FF03C5010003FF0474
:108990002401000D6F01FF03C5010003FF0449011D
:1089A000000D6F01FF0399010003C501FF036F0173
:1089B000000D9901FF036F0100039901FF03990165
:1089C000000DC501FF03490100036F01FF04000C06
:1089D0002401FF04240100032401FF046F01000BA4
:1089E0009901FF03C50100059901FF042401000955
:1089F0006F01FF04490100052401FF05490100073B
:108A00006F01FF04990100074901FF06990149021E
:108A10006F019901FF0600094901FF0EC501000B16
:108A20002401C501FF0B6F01000E24016F01C50178
:108A3000FF04C5019901490100BE0067C501FF0996
:108A4000C5016F010008C501FF0C99010006C501B1
:108A5000FF0D99010005C501FF034901000449010B
:108A6000C501FF046F010004C501FF0349010006B1
:108A7000C501FF03C5010004C501FF03490100064C
:108A80002401FF0424010003C501FF03490100077D
:108A9000FF0449010003C501FF0349010007C501A7
:108AA000FF0349010003C501FF0349010007FF045B
:108AB00049010003C501FF03490100062401FF0429
:108AC00024010003C501FF0349010006C501FF039E
:108AD000C5010004C501FF03490100044901C501A6
:108AE000FF0449010004C501FF0D6F010005C50128
:108AF000FF0C49010006C501FF09C5014901000835
:108B0000C501FF034901000FC501FF034901000F23
:108B1000C501FF034901000FC501FF034901000F13
:108B2000C501FF034901000FC501FF034901000F03
:108B3000C501FF034901000FC501FF034901000FF3
:108B4000C501FF0349010098008A24016F01C50196
:108B5000FF04C5026F01000E2401C501FF0B99013E
:108B6000000B4901FF0F240100084901FF0699018C
:108B700049026F019901FF06240100062401FF0547
:108B8000490100076F01FF04C50100069901FF04B8
:108B9000240100096F01FF046F0100042401FF0498
:108BA0004901000B9901FF03C50100046F01FF0497
:108BB000000C2401FF04240100039901FF03990123
:108BC000000DC501FF036F010003C501FF0349014B
:108BD000000D9901FF0399010003FF044901000DF5
:108BE0006F01FF0399010003FF042401000D6F01D1
:108BF000FF0399010003FF042401000D6F01FF032F
:108C0000C5010003FF044901000D6F01FF03990135
:108C10000003C501FF036F01000D9901FF039901D6
:108C200000039901FF039901000DC501FF034901EC
:108C300000036F01FF04000C2401FF042401000362
:108C40002401FF046F01000B9901FF03C50100051A
:108C50009901FF04240100094901FF0449010005AD
:108C60002401FF05490100076F01FF04C50100074A
:108C70004901FF06990149026F019901FF060009A8
:108C80006F01FF0EC5012401000A2401C501FF0B7D
:108C90009901000E24019901C501FF05C501490193
:108CA0000014C501FF03240100156F01FF036F01CC
:108CB00000152401FF04240100159901FF04490156
:108CC00000142401FF08490100112401FF07490194
:108CD000001224019901FF04C50124010003007161
:108CE0009901FF0AC5019901240100089901FF0DAE
:108CF000C501240100069901FF0F490100059901F2
:108D0000FF039901000524019901FF050005990160
:108D1000FF03990100072401FF046F01000499017A
:108D2000FF03990100089901FF03990100049901CB
:108D3000FF03990100086F01FF03C50100049901B9
:108D4000FF03990100086F01FF03C50100049901A9
:108D5000FF03990100089901FF039901000499019B
:108D6000FF03990100074901FF044901000499012B
:108D7000FF039901000524019901FF04C5010005C5
:108D80009901FF0F00069901FF0D99010007990154
:108D9000FF0B990100099901FF03990100036F017D
:108DA000FF03C50100099901FF0399010004FF04B5
:108DB0006F0100089901FF03990100044901FF04B4
:108DC000240100079901FF03990100059901FF03A0
:108DD000C50100079901FF03990100052401FF0463
:108DE0006F0100069901FF03990100066F01FF045E
:108DF00000069901FF0399010007FF04990100058E
:108E00009901FF03990100074901FF04490100048A
:108E10009901FF03990100089901FF0400049901D9
:108E2000FF03990100082401FF049901009A0064DE
:108E300024019901C501FF04C501490100099901F7
:108E4000FF0A49010006C501FF0C49010004490160
:108E5000FF046F0100032401C501FF040004990110
:108E6000FF036F010006C501FF0349010003C501AF
:108E7000FF03240100064901FF01C5016F01240120
:108E80000003FF042401000EC501FF034901000E89
:108E90009901FF044901000D2401FF05C5016F017F
:108EA000000C6F01FF07C5016F01000A6F01FF0988
:108EB000C501240100096F01FF096F01000B6F015B
:108EC000C501FF064901000D4901FF04C501000E5F
:108ED0002401FF042401000EC501FF034901000124
:108EE00024019901C501FF01490100089901FF030F
:108EF000490100016F01FF0399010008FF042401EB
:108F000000012401FF046F0100066F01FF0400034C
:108F10009901FF04C5016F0149026F01C501FF04FA
:108F20006F010004FF0DC5010006C501FF0A99018C
:108F3000000824019901C501FF04C5016F01240146
:108F40000089005F2401FF122401FF122401FF1297
:108F5000000149066F01FF04490700072401FF04CF
:108F6000000E2401FF04000E2401FF04000E240162
:108F7000FF04000E2401FF04000E2401FF04000E74
:108F80002401FF04000E2401FF04000E2401FF044D
:108F9000000E2401FF04000E2401FF04000E240132
:108FA000FF04000E2401FF04000E2401FF04000E44
:108FB0002401FF04000E2401FF04000E2401FF041D
:108FC000000E2401FF04000E2401FF04000E240102
:108FD000FF04008C0080FF042401000A6F01FF03DE
:108FE00099010005FF042401000A6F01FF039901A4
:108FF0000005FF042401000A6F01FF039901000529
:10900000FF042401000A6F01FF0399010005FF041A
:109010002401000A6F01FF0399010005FF042401E8
:10902000000A6F01FF0399010005FF042401000AF3
:109030006F01FF0399010005FF042401000A6F017D
:10904000FF0399010005FF042401000A6F01FF03DB
:1090500099010005FF042401000A6F01FF03990133
:109060000005FF042401000A6F01FF0399010005B8
:10907000FF042401000A6F01FF0399010005FF04AA
:109080002401000A6F01FF0399010005FF04240178
:10909000000A6F01FF0399010005FF042401000A83
:1090A0006F01FF0399010005FF044901000A6F01E8
:1090B000FF0399010005FF046F01000A9901FF03F6
:1090C0006F010005C501FF039901000AFF04490172
:1090D00000056F01FF04490100089901FF04000623
:1090E0002401FF05490100066F01FF0499010007F3
:1090F0006F01FF05C5016F0149029901FF060009D3
:109100009901FF0E2401000A6F01FF0B9901240150
:10911000000D4901C502FF04C5016F01240100B61D
:10912000006E4901FF04000DC501FF030001FF04AB
:109130004901000B2401FF0400016F01FF039901A5
:10914000000B6F01FF03990100012401FF04000BD4
:10915000C501FF0349010002C501FF0349010009E0
:109160002401FF0400036F01FF03990100096F014F
:10917000FF036F0100032401FF040009C501FF0381
:10918000240100049901FF03490100072401FF03A2
:10919000C50100054901FF03990100076F01FF03A5
:1091A0006F010006FF040007C501FF03240100064C
:1091B0009901FF03490100052401FF0399010007FC
:1091C0002401FF03990100056F01FF034901000815
:1091D000C501FF030005C501FF0300096F01FF037F
:1091E000490100032401FF03990100092401FF0341
:1091F000990100036F01FF034901000AC501FF0344
:109200000003C501FF02C501000B4901FF0349012D
:1092100000012401FF036F01000CFF03990100010D
:109220006F01FF032401000C9901FF030001C50138
:10923000FF02C501000D4901FF034901FF036F0152
:10924000000EFF03C501FF03000F6F01FF05990129
:10925000000F2401FF0549010010C501FF0400A211
:1092600000AA4901FF04000AC501FF0349010009E2
:109270006F01FF03C5010001FF0424010008240160
:10928000FF04990100099901FF036F010001990191
:10929000FF036F0100086F01FF04C5010009FF040F
:1092A000240100016F01FF03990100089901FF05E6
:1092B000240100072401FF0400022401FF04000828
:1092C000FF03C501FF026F0100076F01FF03990152
:1092D0000003FF04240100064901FF02C5016F01DC
:1092E000FF02C50100079901FF034901000399012D
:1092F000FF036F0100069901FF0299012401FF039A
:109300000007FF04240100034901FF03990100063F
:10931000C501FF026F010001FF034901000524019F
:10932000FF03C50100042401FF0400052401FF031D
:1093300024010001C501FF02990100056F01FF032F
:109340006F010005C501FF03240100046F01FF0345
:1093500000026F01FF02C50100059901FF034901E9
:1093600000056F01FF036F0100049901FF029901DD
:1093700000024901FF0324010004FF040006490123
:10938000FF0399010004FF0349010003FF036F017C
:1093900000034901FF0399010007FF04000349018D
:1093A000FF03240100039901FF02990100036F01EB
:1093B000FF036F010007C501FF03240100026F01D5
:1093C000FF02C50100046F01FF030003C501FF0395
:1093D000240100076F01FF036F010002C501FF02B6
:1093E0006F0100042401FF0349010002FF03C501CE
:1093F00000082401FF03990100012401FF03490132
:109400000005C501FF026F0100014901FF03990139
:109410000009FF03C50100014901FF03000699018E
:10942000FF02C50100016F01FF0349010009990115
:10943000FF0324016F01FF02990100064901FF03A8
:1094400000019901FF03000A4901FF034901C50119
:10945000FF026F010007FF032401FF03C501000A9B
:109460002401FF039901FF0324010007C501FF0246
:109470009901FF036F01000BC501FF05C50100083D
:109480006F01FF062401000B6F01FF059901000821
:109490002401FF06000C4901FF0549010009FF05F1
:1094A0009901000DFF05000A9901FF04490100F42C
:1094B000006F9901FF039901000A4901FF040003AD
:1094C000FF0449010009FF04490100034901FF04A9
:1094D00000089901FF03990100059901FF03990113
:1094E00000064901FF040007FF0449010005FF04CD
:1094F000490100074901FF03C50100049901FF0369
:10950000990100099901FF036F0100022401FF0482
:10951000000BFF0424010001C501FF034901000BFA
:109520004901FF03C5016F01FF039901000D990176
:10953000FF072401000EC501FF056F01000F6F0139
:10954000FF050010FF069901000E9901FF07240195
:10955000000C4901FF03C5016F01FF03C501000CA9
:10956000FF0424010001C501FF036F01000A9901F6
:10957000FF036F0100022401FF04240100084901D8
:10958000FF03C50100046F01FF03C5010008FF04CC
:1095900024010005C501FF036F0100069901FF03C7
:1095A0006F0100064901FF04240100044901FF0482
:1095B00000089901FF03C5010004FF0449010009E7
:1095C000FF04490100029901FF039901000A4901C2
:1095D000FF0400014901FF04000C9901FF039901F8
:1095E000009A00644901FF042401000AFF040001FD
:1095F000C501FF03990100099901FF0399010001C9
:109600002401FF04240100072401FF0424010002B7
:109610009901FF03990100079901FF036F010003FE
:109620002401FF04240100052401FF0400056F014B
:10963000FF03990100059901FF0349010006FF049A
:10964000490100032401FF03C50100074901FF038D
:10965000C5010003C501FF0349010008C501FF035F
:10966000490100014901FF03990100092401FF0399
:10967000C5010001C501FF032401000A9901FF0390
:109680009901FF036F01000B2401FF07000D6F011B
:10969000FF056F01000EFF04C501000F9901FF03D4
:1096A0006F01000F9901FF036F01000F9901FF0384
:1096B0006F01000F9901FF036F01000F9901FF0374
:1096C0006F01000F9901FF036F01000F9901FF0364
:1096D0006F01000F9901FF036F01000F9901FF0354
:1096E0006F01000F9901FF036F010093006B6F0181
:1096F000FF10240100036F01FF10240100036F011C
:10970000FF10240100032401490BC501FF03C5011B
:10971000000F4901FF04000F2401FF044901000F5D
:10972000C501FF036F01000F9901FF03C501000F81
:109730004901FF04000F2401FF044901000FC50186
:10974000FF036F01000F9901FF03C501000F4901DD
:10975000FF04000F2401FF044901000FC501FF03AE
:109760006F01000F9901FF03C501000F4901FF04BC
:10977000000F2401FF044901000FC501FF036F0121
:10978000000F9901FF03C501000F4901FF046F019C
:10979000490D00029901FF1200029901FF12000217
:1097A0009901FF12009400FF00E1990FFF0F001EC6
:1097B00000DD4901C501FF04C5016F012401000856
:1097C000C501FF09490100069901FF049902C5017D
:1097D000FF04240100042401FF0400046F01FF03BF
:1097E0009901000424016F019901C5016F01000571
:1097F000FF03C501000EC501FF03000EC501FF03F5
:10980000000749019901C502FF0700056F01FF0C20
:1098100000046F01FF04C50149022402C501FF03D2
:1098200000032401FF0424010005C501FF03000318
:109830004901FF03C5010006FF0400034901FF03BE
:10984000C50100054901FF0400034901FF04490166
:1098500000034901FF050004FF06C501FF02C50220
:10986000FF0300042401FF082401C501FF030005D4
:1098700024019901FF0499010002C501FF03008042
:10988000006B2401FF03C50100102401FF03C50183
:1098900000102401FF03C50100102401FF03C501CE
:1098A00000102401FF03C50100102401FF03C501BE
:1098B00000102401FF03C50100102401FF03C501AE
:1098C00000024901C501FF03C5016F010007240122
:1098D000FF03C5010001C501FF084901000524017E
:1098E000FF03C502FF0A240100042401FF05C5018E
:1098F000490100034901FF04C50100042401FF04DC
:10990000C50100062401FF04490100032401FF04EE
:10991000490100079901FF036F0100032401FF04BF
:1099200000084901FF03C50100032401FF03C5012D
:1099300000084901FF03C50100032401FF03C5011D
:1099400000084901FF03C50100032401FF03C5010D
:1099500000084901FF03C50100032401FF040008BA
:109960006F01FF03990100032401FF04490100076F
:109970009901FF036F0100032401FF04C5010006E4
:109980004901FF04240100032401FF05C50124014E
:1099900000034901FF04C50100042401FF03C502BF
:1099A000FF0A240100042401FF03C5010001C501D1
:1099B000FF08240100052401FF03990100026F0143
:1099C000C501FF03C5014901009800C524016F01CD
:1099D000C501FF03C5019901240100066F01FF09BC
:1099E000990100046F01FF0B6F0100022401FF04C5
:1099F0006F0100039901FF0400029901FF036F0149
:109A00000005C501FF01C5020002C501FF03000BEF
:109A10002401FF03C501000B2401FF039901000B82
:109A20004901FF039901000B2401FF039901000B79
:109A30002401FF03C501000CFF0424010005990166
:109A4000FF01C501990100029901FF036F010005A3
:109A5000FF0400022401FF046F0100022401C5017C
:109A6000FF03990100036F01FF0B240100046F0144
:109A7000FF092401000624019901C501FF03C50166
:109A80006F01007300772401FF0399010010240186
:109A9000FF03990100102401FF0399010010240124
:109AA000FF03990100102401FF0399010010240114
:109AB000FF03990100102401FF039901000724010D
:109AC0006F01C501FF03C501490100012401FF0326
:109AD000990100066F01FF0899012401FF03990114
:109AE00000054901FF0A9901FF0399010005FF04E0
:109AF000C501240100036F01FF05990100046F01F6
:109B0000FF0400062401FF0499010004C501FF03BE
:109B1000490100079901FF0399010004FF04240192
:109B200000074901FF03990100032401FF04000815
:109B30002401FF03990100032401FF04000824010C
:109B4000FF03990100032401FF0400082401FF031F
:109B500099010004FF04240100074901FF03990152
:109B60000004C501FF03490100079901FF039901A2
:109B700000049901FF0400064901FF049901000453
:109B80002401FF04C501240100036F01FF059901B1
:109B900000056F01FF0A9901FF03C50100066F016F
:109BA000FF086F012401FF03C5010007240199018B
:109BB000C501FF03C50124010002FF03C501009593
:109BC00000EA4901C501FF04C5014901000924015A
:109BD000C501FF08C501240100062401FF05C502D7
:109BE000FF0524010005FF04990100046F01FF0334
:109BF000C50100046F01FF03C50100069901FF03C1
:109C000049010003C501FF03490100064901FF03A3
:109C100099010003FF04240100062401FF03C5018C
:109C20000003FF100003FF100003FF04990C000362
:109C3000FF042401000E9901FF034901000E4901B0
:109C4000FF03C5010007C501990124010005C501F5
:109C5000FF03C501240100032401C501FF036F01B7
:109C600000042401FF05C502FF05C501000624010B
:109C7000C501FF09990100094901C501FF04C5019A
:109C80006F012401008900424901C501FF0400055C
:109C90009901FF0600044901FF04C501990200046F
:109CA0009901FF036F010007C501FF0324010007AD
:109CB000C501FF0324010007C501FF0324010004BF
:109CC000C501FF0A0001C501FF0A0001C501FF0A25
:109CD0000004C501FF0324010007C501FF0324019F
:109CE0000007C501FF0324010007C501FF0324018C
:109CF0000007C501FF0324010007C501FF0324017C
:109D00000007C501FF0324010007C501FF0324016B
:109D10000007C501FF0324010007C501FF0324015B
:109D20000007C501FF0324010007C501FF0324014B
:109D30000007C501FF0324010007C501FF0324013B
:109D4000005700FF000224019901C501FF03C5016E
:109D500024010002FF0400066F01FF0899010001C1
:109D6000FF03C50100056F01FF0A6F01FF03C50175
:109D700000042401FF04C501490100034901FF0556
:109D8000C50100046F01FF0400062401FF04C501A2
:109D90000004C501FF036F0100079901FF03C5011E
:109DA0000004FF04240100074901FF03C50100036B
:109DB0002401FF0400082401FF03C501000324015E
:109DC000FF0400082401FF03C50100032401FF0470
:109DD00000082401FF03C5010004FF04240100075B
:109DE0004901FF03C5010004C501FF034901000744
:109DF0009901FF03C50100049901FF040006240135
:109E0000FF04C50100042401FF04C501490100034A
:109E10004901FF05C50100059901FF0A9901FF03EA
:109E2000C50100069901FF0899012401FF03C5013E
:109E300000072401C501FF04990124010001240148
:109E4000FF03C50100102401FF03C5010004240124
:109E50006F019901C501990100076F01FF03990185
:109E600000042401FF040007FF0449010005C501A7
:109E7000FF04490100034901FF04C5010006240154
:109E8000FF0D00082401FF0A9901000B4901C501DB
:109E9000FF04C50199012401000600662401FF03A7
:109EA000C501000F2401FF03C501000F2401FF03BA
:109EB000C501000F2401FF03C501000F2401FF03AA
:109EC000C501000F2401FF03C501000F2401FF039A
:109ED000C501000F2401FF03C50100026F01C50188
:109EE000FF03C501490100062401FF039901240174
:109EF000FF086F0100052401FF039901FF0A4901D2
:109F000000042401FF0699014902C501FF049901DB
:109F100000042401FF05240100046F01FF04000474
:109F20002401FF04490100052401FF040004240169
:109F3000FF040007FF04240100032401FF03C501FF
:109F40000007C501FF03240100032401FF03C5012D
:109F50000007C501FF03240100032401FF03C5011D
:109F60000007C501FF03240100032401FF03C5010D
:109F70000007C501FF03240100032401FF03C501FD
:109F80000007C501FF03240100032401FF03C501ED
:109F90000007C501FF03240100032401FF03C501DD
:109FA0000007C501FF03240100032401FF03C501CD
:109FB0000007C501FF03240100032401FF03C501BD
:109FC0000007C501FF03240100032401FF03C501AD
:109FD0000007C501FF032401008D002F2401FF03AA
:109FE000C50100042401FF03C50100042401FF038F
:109FF000C50100054904001F2401FF03C501000439
:10A000002401FF03C50100042401FF03C50100046E
:10A010002401FF03C50100042401FF03C50100045E
:10A020002401FF03C50100042401FF03C50100044E
:10A030002401FF03C50100042401FF03C50100043E
:10A040002401FF03C50100042401FF03C50100042E
:10A050002401FF03C50100042401FF03C50100041E
:10A060002401FF03C50100042401FF03C50100040E
:10A070002401FF03C50100042401FF03C5010041C1
:10A08000002F2401FF03C50100042401FF03C501C3
:10A0900000042401FF03C50100054904001F240139
:10A0A000FF03C50100042401FF03C50100042401CE
:10A0B000FF03C50100042401FF03C50100042401BE
:10A0C000FF03C50100042401FF03C50100042401AE
:10A0D000FF03C50100042401FF03C501000424019E
:10A0E000FF03C50100042401FF03C501000424018E
:10A0F000FF03C50100042401FF03C501000424017E
:10A10000FF03C50100042401FF03C501000424016D
:10A11000FF03C50100042401FF03C501000424015D
:10A12000FF03C50100042401FF03C501000424014D
:10A13000FF03C50100044901FF03990100049901CF
:10A14000FF0399010002C501FF0549010002FF0557
:10A15000C5010003FF0499010004005C2401FF0312
:10A160009901000D2401FF039901000D2401FF0353
:10A170009901000D2401FF039901000D2401FF0343
:10A180009901000D2401FF039901000D2401FF0333
:10A190009901000D2401FF03990100069901FF03B5
:10A1A000C50100022401FF03990100056F01FF03AF
:10A1B000C50100032401FF03990100046F01FF039F
:10A1C000C50100042401FF03990100034901FF04B4
:10A1D00000052401FF03990100024901FF04000664
:10A1E0002401FF03990100014901FF042401000635
:10A1F0002401FF0399012401FF0424010007240125
:10A20000FF03C501FF04C50100082401FF096F0118
:10A2100000072401FF059901FF04490100062401FC
:10A22000FF04490100016F01FF0400062401FF0340
:10A2300099010003C501FF03C50100052401FF03C7
:10A2400099010004FF046F0100042401FF03990138
:10A2500000044901FF04240100032401FF039901C4
:10A2600000059901FF0400032401FF039901000682
:10A27000C501FF03990100022401FF0399010006B3
:10A280002401FF04007E002F2401FF03C501000408
:10A290002401FF03C50100042401FF03C5010004DC
:10A2A0002401FF03C50100042401FF03C5010004CC
:10A2B0002401FF03C50100042401FF03C5010004BC
:10A2C0002401FF03C50100042401FF03C5010004AC
:10A2D0002401FF03C50100042401FF03C50100049C
:10A2E0002401FF03C50100042401FF03C50100048C
:10A2F0002401FF03C50100042401FF03C50100047C
:10A300002401FF03C50100042401FF03C50100046B
:10A310002401FF03C50100042401FF03C50100045B
:10A320002401FF03C50100042401FF03C50100044B
:10A330002401FF03C50100042401FF03C50100043B
:10A340002401FF03C501004100FF00772401FF0342
:10A35000990100026F01C501FF03C5014901000415
:10A360006F01C501FF03C501240100062401FF039D
:10A3700099010001C501FF07990100012401FF08AF
:10A380006F010006FF039901C501FF094901FF0A9A
:10A3900024010005FF05C501240100024901FF0653
:10A3A000C501240100024901FF046F010005FF04FB
:10A3B000C50100056F01FF04C50100056F01FF0322
:10A3C000C5010005FF04490100052401FF044901FE
:10A3D00000052401FF03C5010005FF040006240158
:10A3E000FF040007FF040005FF040007FF03C50189
:10A3F0000007FF040005FF03C5010007FF03C501B7
:10A400000007FF040005FF03C5010007FF03C501A6
:10A410000007FF040005FF03C5010007FF03C50196
:10A420000007FF040005FF03C5010007FF03C50186
:10A430000007FF040005FF03C5010007FF03C50176
:10A440000007FF040005FF03C5010007FF03C50166
:10A450000007FF040005FF03C5010007FF03C50156
:10A460000007FF040005FF03C5010007FF03C50146
:10A470000007FF040005FF03C5010007FF03C50136
:10A480000007FF0400DB00F24901FF036F01000237
:10A490006F01C501FF03C501240100062401FF036C
:10A4A0006F012401FF086F0100052401FF039901DA
:10A4B000FF0A240100042401FF05C5012401000254
:10A4C0004901FF04990100042401FF04C5010005AE
:10A4D0006F01FF03C50100042401FF0449010006C8
:10A4E000FF0400042401FF040007FF04000424010A
:10A4F000FF03C5010007C501FF0300042401FF039A
:10A50000C5010007C501FF0300042401FF03C501C5
:10A510000007C501FF0300042401FF03C501000774
:10A52000C501FF0300042401FF03C5010007C501A5
:10A53000FF0300042401FF03C5010007C501FF0359
:10A5400000042401FF03C5010007C501FF03000447
:10A550002401FF03C5010007C501FF030004240116
:10A56000FF03C5010007C501FF0300042401FF0329
:10A57000C5010007C501FF03008E00FF0003240191
:10A580006F01C501FF04C5016F012401000A990193
:10A59000FF0A99010008FF0DC5010006C501FF046F
:10A5A0004901000324019901FF04990100044901B4
:10A5B000FF04240100064901FF0424010003C50132
:10A5C000FF036F010008C501FF036F010003FF04D3
:10A5D000240100086F01FF03990100022401FF0418
:10A5E00000094901FF03C50100022401FF0400091D
:10A5F0004901FF03C50100022401FF0400094901CC
:10A60000FF03C5010003FF04240100086F01FF03DD
:10A61000990100039901FF036F010008C501FF03C1
:10A620006F0100034901FF04240100066F01FF04CC
:10A630000005C501FF044901000324019901FF043D
:10A640006F010006C501FF0C990100089901FF0A7E
:10A650006F01000A24016F01C501FF04C5016F01EC
:10A66000009900FE2401FF036F0100024901C501AA
:10A67000FF03C5016F0100072401FF0399012401B5
:10A68000C501FF08490100052401FF039901C50127
:10A69000FF0A490100042401FF05C501240100034C
:10A6A0004901FF04C50100042401FF04C50100069F
:10A6B0002401FF04490100032401FF0449010007AC
:10A6C0009901FF03990100032401FF0400084901D7
:10A6D000FF03C50100032401FF03C5010008490170
:10A6E000FF03C50100032401FF03990100082401B1
:10A6F000FF03C50100032401FF03C5010008490150
:10A70000FF03C50100032401FF0400086F01FF03DC
:10A71000990100032401FF04490100079901FF0387
:10A720006F0100032401FF04C50100064901FF0475
:10A73000240100032401FF05C50124010003490190
:10A74000FF04990100042401FF039901C501FF0AD8
:10A7500000052401FF03C5012401FF08C5012401F0
:10A7600000052401FF03C50100026F01C501FF03BD
:10A77000C501490100072401FF03C50100102401A0
:10A78000FF03C50100102401FF03C50100102401CF
:10A79000FF03C50100102401FF03C50100102401BF
:10A7A000FF03C50100102401FF03C501000E00FFD7
:10A7B000000224016F01C501FF03C5014901000228
:10A7C000FF03C50100066F01FF0899010001FF03A7
:10A7D000C50100056F01FF0A9901FF03C5010004CF
:10A7E0002401FF04C501240100034901FF05C5013F
:10A7F00000046F01FF0400062401FF04C5010004EA
:10A80000C501FF03490100079901FF03C5010004C9
:10A81000FF04240100074901FF03C50100032401CF
:10A82000FF0400082401FF03C50100032401FF0405
:10A8300000082401FF03C50100032401FF040008F0
:10A840002401FF03C5010004FF042401000749019E
:10A85000FF03C5010004C501FF0349010007990179
:10A86000FF03C50100049901FF03C501000649016A
:10A87000FF04C50100042401FF04C50124010003F5
:10A880006F01FF05C50100056F01FF0A9901FF0374
:10A89000C50100069901FF0899012401FF03C501C4
:10A8A000000724019901FF04C501240100012401CE
:10A8B000FF03C50100102401FF03C501001024019E
:10A8C000FF03C50100102401FF03C501001024018E
:10A8D000FF03C50100102401FF03C501001024017E
:10A8E000FF03C50100102401FF03C5010002009E03
:10A8F0002401FF036F0100029901FF02C50100025C
:10A900002401FF0399010001C501FF03C5010002F5
:10A910002401FF0399016F01FF04C5010002240116
:10A92000FF039901FF02C501490300022401FF054D
:10A93000490100062401FF04990100072401FF04D6
:10A94000240100072401FF0400082401FF03C501BE
:10A9500000082401FF03C50100082401FF03C5010D
:10A9600000082401FF03C50100082401FF03C501FD
:10A9700000082401FF03C50100082401FF03C501ED
:10A9800000082401FF03C50100082401FF03C501DD
:10A99000006100B84901C501FF04C5014901000675
:10A9A000C501FF08990100049901FF03C50199023F
:10A9B000FF0449010003FF0399010004C501FF01E1
:10A9C000C5016F0100022401FF034901000A2401AF
:10A9D000FF039901000BFF04C5016F01240100086A
:10A9E0006F01FF079901240100066F01FF0899011B
:10A9F00000074901C501FF069901000924019901D9
:10AA0000FF042401000A6F01FF034901000A490104
:10AA1000FF03490100016F01C501FF019901000514
:10AA20009901FF03240100016F01FF049903FF0452
:10AA300099010003C501FF09C501000549019901FC
:10AA4000C501FF04C5012401006C006DFF02C501B2
:10AA500000094901FF02C50100099901FF02C50172
:10AA60000009FF03C50100069901FF09C5010002A5
:10AA70009901FF09C50100029901FF09C501000400
:10AA80002401FF03C50100082401FF03C5010008DC
:10AA90002401FF03C50100082401FF03C5010008CC
:10AAA0002401FF03C50100082401FF03C5010008BC
:10AAB0002401FF03C50100082401FF03C5010008AC
:10AAC0002401FF03C50100082401FF03C50100089C
:10AAD0002401FF046F010008C501FF0700054901BB
:10AAE000FF0700064901C501FF03C5019901005C8C
:10AAF00000F24901FF036F0100062401FF03C501B5
:10AB000000044901FF036F0100062401FF03C50192
:10AB100000044901FF036F0100062401FF03C50182
:10AB200000044901FF036F0100062401FF03C50172
:10AB300000044901FF036F0100062401FF03C50162
:10AB400000044901FF036F0100062401FF03C50152
:10AB500000044901FF036F0100062401FF03C50142
:10AB600000044901FF036F0100062401FF03C50132
:10AB700000044901FF036F0100062401FF03C50122
:10AB800000044901FF036F0100062401FF03C50112
:10AB900000044901FF03990100062401FF03C501D8
:10ABA00000044901FF03C50100066F01FF03C50151
:10ABB00000042401FF04240100042401FF04C50152
:10ABC0000005FF04C501240100024901FF05C5017C
:10ABD00000056F01FF099901FF03C5010006C501CA
:10ABE000FF07C5010001C501FF02C50100074901BA
:10ABF000C501FF03C50149010002C501FF03008E25
:10AC000000D86F01FF03990100082401FF03C5016B
:10AC10002401FF0400086F01FF036F010001990187
:10AC2000FF0349010007FF04240100014901FF035C
:10AC3000990100064901FF0399010003FF04000682
:10AC40009901FF03490100036F01FF03490100055A
:10AC5000FF0400042401FF03990100044901FF03DC
:10AC60006F010005C501FF0300049901FF032401E2
:10AC700000056F01FF0349010003FF03C501000741
:10AC8000FF03C50100024901FF03490100079901C3
:10AC9000FF03240100019901FF0300084901FF039C
:10ACA00049010001FF0399010009FF0399016F01A8
:10ACB000FF03240100096F01FF039901FF02C50191
:10ACC000000A2401FF066F01000BC501FF05000CFF
:10ACD0004901FF049901008400FF00394901FF0385
:10ACE000490100069901FF03990100064901FF038C
:10ACF0002401FF0399010006FF0500066F01FF0311
:10AD00000001C501FF0300054901FF0549010005D8
:10AD1000C501FF02C50100016F01FF03240100040A
:10AD20006F01FF02C501FF026F0100042401FF0350
:10AD30006F0100014901FF036F010004C501FF021B
:10AD40006F01FF02C50100044901FF034901000230
:10AD5000FF03990100032401FF030001FF03240105
:10AD600000039901FF0300039901FF030003490158
:10AD7000FF02C5010001C501FF026F010003C5010B
:10AD8000FF02990100036F01FF03240100029901F2
:10AD9000FF026F0100016F01FF029901000224010F
:10ADA000FF03490100032401FF036F010002FF03B9
:10ADB000240100012401FF0300024901FF032401D3
:10ADC0000004C501FF02C50100014901FF030003A2
:10ADD000FF03490100019901FF02C50100056F0150
:10ADE000FF0300016F01FF02990100039901FF02B7
:10ADF0006F010001C501FF026F0100054901FF035A
:10AE00002401C501FF02490100034901FF02C501F8
:10AE10002401FF0324010006FF036F01FF03000567
:10AE2000FF036F01FF0300079901FF05C50100053E
:10AE3000C501FF02C501FF02990100076F01FF056F
:10AE40006F0100056F01FF05490100072401FF059F
:10AE5000240100052401FF050009C501FF03C50108
:10AE60000007FF04C50100BA00D9C501FF0349016D
:10AE700000064901FF0400022401FF040006C50189
:10AE8000FF03240100034901FF03990100046F013E
:10AE9000FF036F0100059901FF034901000224012E
:10AEA000FF0399010007FF040002C501FF0300082A
:10AEB0002401FF036F02FF03490100096F01FF0630
:10AEC0006F01000B9901FF04C501000C4901FF044B
:10AED0006F01000CFF062401000AC501FF070009ED
:10AEE0006F01FF034902FF03990100074901FF03B6
:10AEF000990100029901FF0349010006FF040004C3
:10AF0000FF04240100049901FF03490100044901E1
:10AF1000FF03C50100036F01FF03990100069901BA
:10AF2000FF03990100012401FF040008C501FF038C
:10AF30004901007E00D86F01FF0399010008240138
:10AF4000FF042401FF0400086F01FF036F010001EB
:10AF50009901FF0349010007C501FF032401000116
:10AF60004901FF03990100062401FF03C501000305
:10AF7000C501FF0300066F01FF03490100036F01D4
:10AF8000FF0349010005C501FF0300042401FF037D
:10AF9000C50100042401FF03990100059901FF0385
:10AFA000240100036F01FF03240100054901FF0391
:10AFB0006F010003C501FF02C5010007C501FF02C3
:10AFC000C50100022401FF036F0100076F01FF03A9
:10AFD000240100016F01FF0300082401FF036F013A
:10AFE0000001C501FF02990100099901FF02C50195
:10AFF0002401FF03490100094901FF039901FF02F0
:10B00000C501000BC501FF056F01000B6F01FF05B6
:10B010002401000CFF049901000DC501FF03490143
:10B02000000C2401FF04000DC501FF036F01000B9C
:10B030002401C501FF0400092401FF0724010009C0
:10B040002401FF064901000A2401FF04990124019B
:10B05000000A00C12401FF0D490100012401FF0D78
:10B06000490100012401FF0D4901000A6F01FF039E
:10B07000C501000A6F01FF03C501000A4901FF0471
:10B08000000A2401FF042401000AFF044901000A08
:10B09000FF046F01000AC501FF036F01000A990157
:10B0A000FF039901000A6F01FF03C501000A6F0148
:10B0B000FF04000A4901FF04000BC501FF0E000157
:10B0C000C501FF0E0001C501FF0E00700000000069
:10B0D0000000200000004000852900002000000042
:10B0E000200000000000000000000100010000003E
:10B0F0000000000000000000000000000000200030
:10B100002000010000000000000020004000400876
:10B11000000000000000000000002000000000000F
:10B1200000000000400000006208210000006000F4
:10B130002000610861080000010800000000000014
:10B14000200063214000000000000000000000001B
:10B150000000000000000000000000006108C318AB
:10B160000000200020004000E5292321000000000D
:10B170000000210001002000000040080000200025
:10B18000210000000000000000000000000000009E
:10B19000000000000000000800080000410000005E
:10B1A00000000000A2188210000000000000000053
:10B1B00000000000210800000000000020004108FD
:10B1C000000000000000000000000000200020003F
:10B1D000000000000000000000000000000000006F
:10B1E0000000000000000000000000000000210836
:10B1F000000000000000000000000000000000004F
:10B2000000000000A53181080000000000000000DF
:10B21000000000000000000000000000000000002E
:10B2200000000000000020000000000000000000FE
:10B23000000000000000000000000000000000000E
:10B240000000000000080000000040002000200076
:10B25000000021002100E4202000200001096000FE
:10B2600000000000000000000000000000000000DE
:10B270000000000000000000000000004008442919
:10B28000C108000040002000000000000000000095
:10B29000000000008108610800002000000020007C
:10B2A000000020002000000000000000000000005E
:10B2B00020000000A210073A00000000000021005A
:10B2C000000000000000000000000000200000005E
:10B2D00080082000000000000000000000000000C6
:10B2E0000000000000000000000080088110000045
:10B2F0000000000000000000000000004008A11055
:10B30000200020000000C2182000000020000000E3
:10B31000A2102421000000000000000000006108CD
:10B32000C5314108000000000000000000000000DE
:10B3300000000000000000000000C210C318000060
:10B3400000004000A008E631C529000040000000D0
:10B3500000000000600840006421000020000000A0
:10B3600000000000000000000000000000000000DD
:10B37000200000000008210800000000000000007C
:10B380000000E320C21800000000000000000000E0
:10B390000000000000008210C318200021080000F7
:10B3A00020000000000020000000A2104108000062
:10B3B0000000000000000000000000000000410844
:10B3C000000000000000000000000000000000007D
:10B3D000000000000000000000000000000020004D
:10B3E0002000021163214000000000000000000066
:10B3F000000000000000000000000000000000004D
:10B4000000000000410800002000000000000000D3
:10B41000000000000000000000000000000000002C
:10B420000100010800000000200020004000000092
:10B43000000020000421C2102000673A60000000D4
:10B4400000000000000000000000000000000000FC
:10B450000000000000000000000020006421852999
:10B46000000020002000200000000000000000007C
:10B470000000C318C21800000000200040000000B7
:10B4800081084008000000000000000040000000AB
:10B4900000006421063A00000000000000000000E7
:10B4A000200082100000000000000000200043295E
:10B4B000801000000000000040002000000000009C
:10B4C00000002000000000000219811000000000B0
:10B4D00000000000000000000000A210632900002E
:10B4E00000006108232100004000200000008210BD
:10B4F000A63161080000000000000000E318E531FB
:10B50000000000000000000000000000000000003B
:10B5100000000000600000000319E3182000200074
:10B52000600084214321463A6008C429C2102000EB
:10B53000000020000000A429E11022196000400052
:10B540002000810820000000000020004000810849
:10B55000000000000108000000000000200040087A
:10B5600023216110000000002108200800000000D5
:10B570000000000024292421000000006108E218D6
:10B58000000020002000000024298210000000009C
:10B59000000000000000000000006108E318000047
:10B5A000000020000000000020000000A11020008A
:10B5B000000000000000000001000000200000006A
:10B5C0002000653A001100000000000000000000AB
:10B5D00000002000200000000000000020004000CB
:10B5E000000041000000C318A2100000000000008D
:10B5F000000000000000000000000000000001004A
:10B600000100000000002000A00081006000000098
:10B61000000082104421C110E84A0111000000001E
:10B62000000000000000000000000000000000001A
:10B63000000000002000000000006108473AA00858
:10B6400000004000A42140000000C210A110000032
:10B650000421642900006108021120000000C210CA
:10B660008108A210400000000000600800002000D7
:10B67000263AA52900000000000000000000810813
:10B68000031900000000410000002000053A0119E4
:10B690000000000060086321E1104000000000008D
:10B6A0002000000000008429A21020000000A21049
:10B6B0006108000020000000A210C43180080000D2
:10B6C0000219E53100006321042100000000652912
:10B6D000821000000000000000006421A529000085
:10B6E000000000000000000000000000000000005A
:10B6F0004000C1080000231903194008A1102000D0
:10B70000263A6000C742431929538429000060008B
:10B71000E110C108E1108742E529200060008000A7
:10B72000E21060080000000020008008E210200005
:10B730000000010800002000600060008210042169
:10B7400000000000000061108108200000000000DF
:10B75000A210C6394008000000000321C53160086E
:10B760000000000000006529A21000002000000079
:10B770000000000020000000A21086310000000040
:10B78000200020000000E2100000E6316108000007
:10B790000000000000000000410000004000A00088
:10B7A000474BC22100000000000000000000000024
:10B7B00000000000000000006000E210E210000045
:10B7C000A21800002421031940000000000000001E
:10B7D0000000000000000000000000000000010068
:10B7E000000000006108421122110319000000004E
:10B7F00000006321863AE321C4210000000000001C
:10B800000000000000000000000000002000000018
:10B8100000000000200000000000063A842900001B
:10B82000000945324219A008E210E5310000442128
:10B83000263A0000A2106319000040002219610896
:10B84000A529C21020002000200020000000473A57
:10B85000432100004000000000000000A110A529C5
:10B8600000000000200000006008453A8108000048
:10B87000400081082532A0082000E210810802194A
:10B8800080084000E431A4298108C1082419C210AD
:10B89000200060000000C21084294219600083214A
:10B8A0004321C2106742610800000000C53123191E
:10B8B000200040000000C108674244210000000051
:10B8C0002000400800006108E21820000000810804
:10B8D000E10800008421E210A108E2104000453A8E
:10B8E0000000453AC321284BE53100002211E4292C
:10B8F000E110E110495383190000C1086219632166
:10B900002000000000000000C108C110A210621059
:10B91000000021004000A10822112319C2180000D4
:10B920000000000020002321200000000000642906
:10B9300003190000000020004321063A800800009F
:10B94000200020008529C210200000000000000017
:10B950004008200000000842821000000000821011
:10B96000000000002319221967426108600860087E
:10B9700020002000000020006108E421E74244325A
:10B98000E53A400000004000000020006108410846
:10B99000000020000000400081082319000003215E
:10B9A000A1108108674284210000200020000000CF
:10B9B0002000610840004000000000000100210854
:10B9C0002000A210A42181088421A21000002000E0
:10B9D000E110A53A0322C742000020000000A21097
:10B9E00040002000200020004000200020002421F2
:10B9F0004000400020000000432187428000C2191F
:10BA00004432032AA0006000463A0000C210463AC1
:10BA10000000E11022190219600842194000E631C5
:10BA200064214008200040004000A008E94A0319B2
:10BA30000000800820004000C210E11005324000E4
:10BA4000000020000000E218653AE0082000200015
:10BA50008321E42920006321E108E210A321A3212E
:10BA6000E0084432E10842118319A421C1084000D2
:10BA7000C0004000A22142190111242A4432400092
:10BA8000E429C4290000000000002632031900093F
:10BA900001110000042AE74280002000200000007D
:10BAA00020000000C210263A2000400082198219AE
:10BAB0004000C321E2108000E108600068530000EC
:10BAC000042A26430643E63A2000042AC3218008BC
:10BAD00043196953E2198000C108C219C42120002A
:10BAE00000000000200021114219C6312108000089
:10BAF00000002000A008E329C4296008000000001D
:10BB0000400800002219C00800006000463A2000EA
:10BB10004000E218C210E5310532832160002000A8
:10BB200000006429E318000000002000000020004D
:10BB300000000319273A00000000200044212000E3
:10BB40008000E108663242114011032A453A80081C
:10BB50002000200040008108494B0643010945436D
:10BB6000E11002110000600020002421821040003A
:10BB70002000200020008000C53100000319431977
:10BB800020008742873AC10820002000600800009A
:10BB9000073A621980000000000000000000000069
:10BBA0008108A42180000211E218400020006000FA
:10BBB00060094743A953A00000000000A529C21056
:10BBC000400020006000221900002000A52940004C
:10BBD000200000002000800049538111822AE119D1
:10BBE000474B20098000863A01096008A742600897
:10BBF000A219011104328108621920008419052A52
:10BC000020000000200040006219094BA110200014
:10BC1000221920002000E1108219C32101098000AF
:10BC20004000A008032A232A653A00000111853A42
:10BC3000C121C219E3216000E4212211242AA119A3
:10BC4000C53AE108E3216211453221090009A21930
:10BC5000E321E642421920000643853221110743C1
:10BC6000E008200000002000453222112009811147
:10BC70004000C63A074300010009C110200020001F
:10BC80004000C10849534000A000E321232261097C
:10BC9000A532E1088108E22160002A64411181197E
:10BCA0008643E432053B2009842AA1114000074362
:10BCB0008432632A80000109432A211140002000B8
:10BCC000000080086011653A063A2100000020005B
:10BCD000C00080002432A221000000004000A32107
:10BCE00060004111C2192000C3210322400022112B
:10BCF0002211432125322111863A4111A000400032
:10BD00006429221920000000400081080000600022
:10BD1000673A02190000200000006421832101110C
:10BD200080000743E2100222832A2743811140004A
:10BD3000C00080006211C95B42114009043B063B10
:10BD4000642A800020002000063A410800002000FC
:10BD500060002000C008A4210000C1104319C008E1
:10BD6000E321284B453220002000400020004321E1
:10BD7000242A800000002008210000000000810823
:10BD8000252A82194219632101118219A00000019C
:10BD9000E1114A64E219200000006421E4296000F6
:10BDA000E1106000A42980080000A52940000000DF
:10BDB00040002000C000C321A8532333401A23337E
:10BDC0000433A0112322853AA008274BC108432A37
:10BDD000C11943322111421940008000452A000058
:10BDE0002000800021094532C73A40006000421916
:10BDF0000000C1108219222AA111A321E1088008A4
:10BE0000C219A432222A853A8000443265322111B7
:10BE1000053BE008E108073B2211432A832AC4328C
:10BE20002222C2190001A532600982192322264369
:10BE3000464360118000A853E2212743221181115B
:10BE4000600000004000442AE321010983226001D0
:10BE50004643C63A400100092211C00840000000D4
:10BE600080006953C1088009A1112322232226439F
:10BE700020090111632A8000295CC221C11948549C
:10BE80002433453BA322A322E0080111474BC111F3
:10BE9000C43260004111E532C108000020000000FA
:10BEA000E110A019074BA42941002000E208200955
:10BEB0006000653A611100004000200083210322E8
:10BEC000442A832AC011C42AA0090001C53AC2101D
:10BED0008319C3194000E63A81114009E008642142
:10BEE0006219C00060002000431900006319A63ADF
:10BEF0008108600800000000E218663A210960002D
:10BF0000C63A632A8322A32AE43262222000000177
:10BF10002001E53A874BA108E21964228743674371
:10BF2000C0000000200006322000000000000219BE
:10BF300002116211A4290000221942118119C119AC
:10BF4000E63AA532E2102000800000000000C64260
:10BF5000C108000020000000000000004000C63AB8
:10BF6000A2196119C0088219E64221222009822201
:10BF7000253B26434000800042194953810883191C
:10BF80000000421984210000E631A1082000600071
:10BF900080004111C110A753833BA11AA11A285454
:10BFA0006222A2198853E000674BE110632A6222E3
:10BFB0002543A432211140006000063360000000D8
:10BFC000C008C321242AE742C00000094111A00093
:10BFD0000532A221632AC2196532E1082111A53276
:10BFE0000122E43A011A0122632A432A0109664325
:10BFF0002009642A063BE000A43245438222043B28
:10C00000C219A000E5320001A3194322664305339B
:10C01000A0000222463B832AC6328000A211E21011
:10C020004000C008442AA5324211E42A0112C74B3D
:10C03000C432800960118319A321400000008000F0
:10C04000484B232AA42A4009642A2322E42AE2191D
:10C050004011222201118A64421AE009A85C821A66
:10C06000663BC64382220000A63A61112222253B8C
:10C07000A1118111E53A21110000200000002219D0
:10C08000622AE53A621920002000A4210001000183
:10C090002643E22100004000A000211147436743EE
:10C0A0008222653B821A421AE321C8534211242A94
:10C0B000E119E0082643C219C219C0006321042A0D
:10C0C000421180004000A4294000863A042A400022
:10C0D000C11000000000E218863AA21980008322F5
:10C0E000074CC322032B4533653B8000211A0433E0
:10C0F000A74B46434009A211C321042B8A5CC00010
:10C10000E00060006421A110600800002211A42159
:10C110006219E5310000A42182190322C111832A8A
:10C12000632AA63AE3216219A0086000E6422219B8
:10C1300000002000A210611000008000E7424111C1
:10C14000A008A0080109264B4222221A0012A322AD
:10C15000E8538111000960008A5B4211032200004C
:10C16000A108263A0000E631842140002000411158
:10C170006111C221C1118554A23363334654653B1A
:10C18000011A08548111474BA219C42A221A696462
:10C1900066432001400060004633621920006111AF
:10C1A000E321C321484BA000A000E321242A45320B
:10C1B000C000053B8319E53AE000642A274BC0081C
:10C1C000A64B822AE011E119432A6211A64B421ABA
:10C1D000E42A263BC00904336543C22A243BA53226
:10C1E0000000674BE000211A0333653B2643A000A3
:10C1F000453BE532A84B442AA000E108C3210009D1
:10C2000083194322C5328211E32A453B863BA32290
:10C21000621A6009E531863A6000800061112743A7
:10C22000263B04336211A84B621AA322E532E219BD
:10C23000011AC1198964843B21124854242B032B11
:10C24000885480094111674BE008C5324543E43208
:10C25000411A053BC2196000E1106008C008043BA8
:10C26000C432621160000000C5294001211A8543D3
:10C27000843280004211E008E119842A8643232B8E
:10C2800088540323C222042BA7434222442AA43207
:10C29000A219053BA42A832AA0008219484B6219DF
:10C2A000800082198319211127432219C0082219FD
:10C2B000400060008321284B642A8109E32AE64379
:10C2C0006533C3220644E643C111022B0754A6433B
:10C2D0004743C1118009642AC63BC63BE32AC1110A
:10C2E000C219E0082321E110A1086319E529C21051
:10C2F0002532A0004111C219A432221A82118532BE
:10C3000047434B64811182190000E64283212000DB
:10C3100040006531442120008000284B210900099C
:10C32000A219A119664BE011843BA009022B495CBC
:10C33000884B40090000284BE53A03222011C10830
:10C34000663A6008C529473A6000C0084111A11942
:10C35000A43A2009644C465D812BA333653B21122E
:10C360004854232AA532A543E42A60010B75E32A29
:10C3700021120001A0008422E1100009C1116322F2
:10C38000832A07432000832A053B0643C11060002F
:10C390000433E219663B6001A63BC4324111685C7C
:10C3A000432AA4322009253BE22A63336433E32184
:10C3B000084C4001A322695C232A62228643800044
:10C3C000C74B611A222BA43BC33B85432222C543A2
:10C3D00065434543432A0000E00024228111031AEB
:10C3E000231A463B221A274CC643653BE32A6222A6
:10C3F000C1118532042A20092109221AE532464357
:10C4000004330112653B811AE222C543611AE2221C
:10C410004012C85C043C200A285D0854E119EA6413
:10C42000200028432532A111842A653B4433601241
:10C43000A12241220009642AC1104432A64BC32A1A
:10C4400060090109A000242A00126122A54BE43AE8
:10C4500041090322A111443B6219263BC533C63B67
:10C46000C11AC01205446754032BC111221A211AA4
:10C47000C32AA32AC32AA000221A4964A211E119DF
:10C48000A111A111031A053BC000C119643260005B
:10C49000E429232A632A8222611A0544A112A433C3
:10C4A000C53BA333E43B8012412B0444C75C2533D6
:10C4B000C222032B821A274C621A2A6D4112A22231
:10C4C0002009432A232A23226532442AA1088532DF
:10C4D0004109C000E21986438322E108663BA54377
:10C4E0000A6DC12AE0096001453B453BE00081112E
:10C4F0006532842A80008009A74BC42AC00965439D
:10C50000832A4854A01AC95CC11AE111A6436A647F
:10C51000A43200006222C74BA432A219E008832192
:10C52000C4214432432A8000E2214001211AA32A77
:10C530004012A32B875D633CC12BE333011203231D
:10C54000274C4012C95C80122001EA64E11A232BB7
:10C5500002238001C322A119C119A111C22A643387
:10C5600045334001C643453BE4322000600024339C
:10C57000C22AC64361126333A11A421AA95C8222FD
:10C58000C53200112333254C822B05444322474CEE
:10C59000E000042B8954242A8222E64BC009064C71
:10C5A000A112E33BE33BC233A333432BE443453BBC
:10C5B000A111064320002211C632C2112322842277
:10C5C00025334112474C6433643B8222211A632293
:10C5D000063B6111E2192222421AA322A643032B31
:10C5E000601264336012E222043C2223832B611226
:10C5F000E85C443C8002885DE643E0112B758008CE
:10C60000C85363216109221A274C8433600A400A07
:10C6100060126222A32A2109474BA6432112A009D6
:10C62000C0000212E4322333601A633B0333E0009C
:10C63000E319C32A843BC1114533053CC21AC01219
:10C64000601BE433A754A11A000AE32AA222243370
:10C65000E32AC222A00020120754421AC22AE0098B
:10C660008122C64B8122E0002222632A80006432AC
:10C67000E221E019643B411AE75C41232223664C26
:10C68000622B822BA112633C433C6865C22260127C
:10C6900067546012E43BC43B2865621AA11AA001EA
:10C6A000C32AA32A6322632AA432E008842AA2119F
:10C6B0006009211A243B253BE108042B0544C33BB8
:10C6C000E443400A021B642B274400092112C42AB8
:10C6D00024338000A009A643643BC009C43B821AEE
:10C6E0008854600A474CA53B6009C543043308548D
:10C6F0006000011A485CE43A6111E0000211C53A99
:10C70000632A832AA009C332E011611A643B022B19
:10C710006112875D823CE02B6444021B810AE85C65
:10C72000A012C85CA0124001095DA22B6223622BFB
:10C73000E00102232222211A411A232B474C422BCB
:10C740000223E543C643C32AA0000112A53BE2220F
:10C75000A43BA43B622BA433432B0644022BA32A05
:10C76000A0114333A654033C25442123E222600157
:10C77000A95C06440533811A022B0123464C801222
:10C78000C654C333E23BA12B654C454C011AC00093
:10C79000874B0009C3212633C52A842A6533022327
:10C7A000012325440544E543611A8222653BE432B6
:10C7B000011AC32A453B0112A222C5436433C12298
:10C7C0000544600A642BA32BE333A2334112C75400
:10C7D000243CC1234655843C201BA8648432C532C6
:10C7E000C000A42AC001074CA433A333C01A0123FC
:10C7F000653B211AA32A8643C532221AE10920018A
:10C800000533C743643B801AC122222BA219242A74
:10C81000E6430333A222E53B874CA00A2013E64CF3
:10C82000243CC654222BA222A1222333C643C22277
:10C8300023334009211A885CE5436433200A601AD7
:10C84000E96CA1222012C22AC011832AA7536011C9
:10C85000011A054CA222E6540655C112253CE333C9
:10C86000233CA223A444C44C0555A11A2223664CA0
:10C870000123812BA54C285D232B8333E001453B0D
:10C88000E32A211A82228643E111431A6322201AE5
:10C890002233633BC743C008E322664CC012A65450
:10C8A000E11A2644632BE95C6111C3226433843BA3
:10C8B000C001811A4854A43BC11A6654E21A454487
:10C8C000E11AC43B874C400AA85CE210C643C5325B
:10C8D000E00089648643C1198011C0088643211A8B
:10C8E0000333E22AE22A2012801AC543622BE00AAF
:10C8F000A75D655D623CC123253CA00A6544A22B6F
:10C90000A654622BC001E754C64C8223C233412394
:10C91000832B0433421A0112632BE85C4223622BFF
:10C92000A333674C222BA222264CA43B2112C75CC6
:10C9300084332223C4338433042B432B6012200A14
:10C94000885C854CE233C64CC7540223600AE85C1D
:10C95000053CC43BC01A432A0765233CE32B6765AB
:10C96000E3224444C12BE654464C20016012011AD4
:10C97000A32AA32A2322A6438433632B832BE33BDE
:10C98000A233A654A333C11AC222A43BA222853BE0
:10C99000E219E543C009811AE5430544A333C333D3
:10C9A000812B2444233C0234E2334223275D633C41
:10C9B0006234222C254DC12BC33B685CE111C000C1
:10C9C000A6434012E543642B6544812B033C443B62
:10C9D000C42A63334433E009C322621AC3226112BA
:10C9E000074C62330023612B6233242BA21A83335A
:10C9F000C32A822245440434E22B022C2555C22B43
:10CA0000A333E33B022363336333E53BC43BA333EC
:10CA1000222B632B664C865482336012C11A254444
:10CA2000622B222BC222A009C64BE6530012811AA8
:10CA3000412B233C844426550334C22BC12B844410
:10CA4000833CA33CE444054DE22BC22B643CC32B46
:10CA5000C22BC123475D854C2444E009C443E22A2C
:10CA6000C111C543A5434333A222E32AE122A23BDD
:10CA7000665484332109632BA6544344844CE43325
:10CA8000221B0434085DE11A8333E53BA112432BDA
:10CA9000A43B0544622BE11A864CA22B233CC22BFB
:10CAA000A64C211BE43BA754611AC109274CA109DC
:10CAB000C5434854C32AE0096001032B4333433381
:10CAC0004333C01A2123422B0544822BA123465510
:10CAD000A55D044D4234443C453C832B2555055D02
:10CAE000A54C211BA544A865601BA12B854CE333F5
:10CAF000C643232BC11AE43B6644421BA12B233CB3
:10CB0000854C622BE43B87548233C0096865232B34
:10CB100063334444E333C11AC53B6001E2228754C6
:10CB2000E654C12B433CE754011B043CC74C864CE4
:10CB3000654421230322465DC12B2655875D811A5A
:10CB4000233C433CE654E33B000AC01A000A443B42
:10CB5000A5438422E64305444123C233E233E23352
:10CB6000C654C233422B22238333C222A43BE11199
:10CB7000E5432001E32A4544654C24444123854C88
:10CB8000233C633C80238123C12B275D2234413425
:10CB9000412CE75DE333822B2754A009A009853B94
:10CBA0000223E443832BA54CA12BC12B62238433A6
:10CBB000422B464CC0010012E32A45334012474C39
:10CBC000622B600A822B612B053C2644C33B6333F6
:10CBD000600A65446123633CA33C6234022C033445
:10CBE000443C011BA333201BE43BA754822B612B45
:10CBF000622BC333A64CA333822B043C2444A233C0
:10CC0000E43B6333821A254C833BC222E12240235A
:10CC1000633CC4446234A444E22B012C833CA33C17
:10CC2000C23C6555E444823C833C633C0434A444E8
:10CC3000833C633C0655812B400A04448012401219
:10CC4000875CA43BE5430123422B0444622B444C04
:10CC5000622B8112232B4544065D844CC754E1129C
:10CC6000E3330434A22BC233E43BA0122544664CC8
:10CC7000632BC33BA11A4444A44484444223A444E8
:10CC80000013A54CC754C333A0010644432BA11283
:10CC9000A85C4333E0014012C222664C053C4123AC
:10CCA000C3334544C233443C233CC12386556455B9
:10CCB000655542342334C74CE012455D0455E44CBD
:10CCC000A12BA444496E012C601BC54CC22BA4337C
:10CCD000A4334223443C2434A11B63342234633CF8
:10CCE000223C233C4444812BA112E654A32BA64CA6
:10CCF000E654C22B8123E43B20020544A333054DB7
:10CD00002134601B643CC00A475D0234443CA444A7
:10CD1000A12BE11A2555633C46554234801BA4449F
:10CD20004655633C243CA00AC01A0123222B875499
:10CD3000842B25444444011BE333233C8444A44C0A
:10CD40006444C333A3332123422BA333422BE43B5C
:10CD5000E009432B854CC654233C8123C54CE12B71
:10CD6000A344012CA12BA44C2655A344212CC2344E
:10CD70004766A333664CE43BE0094012843B8433AE
:10CD8000A333433C265522342234A023C12BA123B4
:10CD9000864C2012E222222B8433C01A664C444473
:10CDA000001B812B201B443C8644033C033CE012C7
:10CDB0006544E22B42346234012C244D044D8444FA
:10CDC00081236123401B643CE654C22BC22B0234F6
:10CDD0006444C54CE2338444433C02340334A54CE0
:10CDE00025440223654CA233822BE2330013C44452
:10CDF0000445212CC44463344234C33C2445C23C22
:10CE00008555C234C23C254D222CA33C6555855521
:10CE1000002C054D433C40234444210A0123A654E1
:10CE2000A6542444C11A82334344223C634CE33366
:10CE3000A22BC11AE333465DA444A64C8644465552
:10CE4000E42B64446444C333033CC233C6542223FA
:10CE5000033CC11AC12BA444C4448123633CC54C88
:10CE60008444C64C0755E012832B6644A112C85473
:10CE7000C3332123C0124223C754243C8123C64C10
:10CE8000843C8023633C022C000B04450345A555DC
:10CE9000823C843C6334801BE34CE34CA344433C1E
:10CEA0004234E765044D2013A444433CC32B0223C2
:10CEB000600A4334A43C4234A33CE023E444A3444A
:10CEC000012C423CC12B0234275D843CC54C633CA1
:10CED000A12364444123033CA654E433665D6134DA
:10CEE0006134E54CA01B054D4234E444833C62347C
:10CEF0004234E344244DC43CE00A413445552555B1
:10CF0000022C44444112A12BC333622B6544C64C0E
:10CF10008444423CC01A233CA44C8344633C834475
:10CF2000A12B0234A22B233C832BC3336444632BF9
:10CF30006223C54CC54C611B02348344E12BA33CE6
:10CF4000823CE12B8344E44CE344C11BA12CE65D0D
:10CF5000022CE64C6444E01AE1222444043C0334ED
:10CF60008344A3446234A33CA33C022C43344123B6
:10CF7000421AA43B622BE43BE3334444E2330234E1
:10CF8000E12B2113A544C544223C63446023643C47
:10CF9000843C42346234412C0445833C623C23345B
:10CFA000601B811B02348444211BA123054DC44412
:10CFB000423CE12B26550234643C2234843CE2336B
:10CFC000A22B233C8023443C633C401B4655E34456
:10CFD000C33C044D833CE023212C24454445C2340A
:10CFE000644503452024E33C444DE65D644DE02365
:10CFF000C444465D223C6444011BC233A54CC54C6D
:10D000006444E012C1336244C34CE34C433C033CF0
:10D01000C012A12B4555E44CE22B07556655222C36
:10D02000833C423400130234A12B0655233464445C
:10D03000C123E12B6234C344823C823C044DC3448F
:10D04000633C4655433C6223A74C8644E433633C2F
:10D05000A2232013E22BA544C12B4334E54C222C00
:10D06000A11BC3446234E2230445E23CA13C655564
:10D07000C123C444A33CE244234D034DC444412C8A
:10D080006555A65DA123054D8444E22BC32B411BAE
:10D09000633CC444222C212C60134555E4444134A4
:10D0A000E44C43348444C444843CE544012C012CC6
:10D0B000C544401B233CA654023C044D8134E34448
:10D0C0000445212CE344A33C03456134C23C0345A1
:10D0D0002345644DC23CA0138234254D833C223449
:10D0E000C22BA012433C0334644422344755423CD3
:10D0F000423C401B633C8344623CE44C423C802302
:10D10000633C8444023C033CE233E233E2330334C5
:10D11000A444423C401B8344423C012CC33CC344D6
:10D12000623C2234C44CC344212CA134A54D034598
:10D13000E344E22B001B4023654C02340234A44438
:10D14000823CC33C823CE44462346234401B621A39
:10D15000A333854CE233433C433C0234E54CE22BA1
:10D16000C123E544022442348344601B643C843C74
:10D170004234212CC23C0345A33C62344334C123D6
:10D1800022342234C444E12B601B833C833C012CB9
:10D19000E12BC444022CC444012CA4444234423444
:10D1A000012CE12BA444C023623C45556134E34487
:10D1B000833C633C212C002CA2342445602C244564
:10D1C000644D602C03452445065E844DE01B82348B
:10D1D0004555833CA444C02BC12BC54C833CA4447F
:10D1E000811B633C623CC244A2440234433C401B6A
:10D1F000A02382444555A023022C865DA33C823C9B
:10D20000A33CA0230234023CC54C22348344633C3B
:10D21000012C6234E344823CC23C823C044D823C9B
:10D22000044DA544011B4434A644843CC444E12B72
:10D230004234A444064D43344234A33C012CC11B68
:10D24000E244E444833C82342345402C6655222C3E
:10D25000A43C823CE13C0245434D62348134444D60
:10D2600065556234E54C0234433C643C0334E54C80
:10D27000A43CE123222C200B244D0445012CC44462
:10D280002234433C633CA43C465562342234265548
:10D2900081238444E754C22B21346134244DC34498
:10D2A000A23C03450345E344C23CE33C23452345FC
:10D2B000A45523458134C33C044D62342234812378
:10D2C00021138444433C8444633C054D223422347E
:10D2D0000134A44C623C8344A4440134A023E44CB4
:10D2E000633C0234633C0234E233A444433C634471
:10D2F0002234C02BE54C2234E02B6234C33C833C07
:10D3000001348444A3446134A134644D4345C33C97
:10D31000E12B6123A12B233CC12BA123C444A344B3
:10D32000044DA33CA33CE4448234401BC11AA23305
:10D33000065D4344623C423C8023633C611B222CDB
:10D34000465562342134633CC12B643C233463343E
:10D35000212C044D244DE344623443344234C12330
:10D36000E12BE54C623C012C833CC4444234423402
:10D37000823C623CA344212CC444C444012C22348A
:10D38000633C833CA023E44C254D212C6234423C79
:10D39000833C2134E02382342445612C033D854DB8
:10D3A000612CE23C0345A555C555202C202C455544
:10D3B000A344633C401BA023833C054DC344633C12
:10D3C00084440034E24C8244A02BE233643C012CC0
:10D3D000613C655DE12BC123865DE3446134C44457
:10D3E000C02322346444A44CE12B833CE54C6234DA
:10D3F0004234A33C0124C33CA23CE2444234454DA8
:10D40000675DE012A11B2334875DA33C6234833C3B
:10D41000A444C544843C2234C444002C012C03455C
:10D42000C344433462340345202C044DA43C022CF5
:10D43000823CE244224D44556234412C244D244D1B
:10D44000A33C4234E1332234E22B433C0655023400
:10D45000C023633C801BE44404450124C444A44429
:10D46000C12BE54C623CE444A33C012CC44CE233A8
:10D470004344233C812321346234E3446134C34474
:10D480000345E344A134E23CE23C44452345233DCB
:10D49000844DA2340445E444022C23346023A32B9E
:10D4A000C5442234012C623CC444633C2134633CB7
:10D4B000A344423CC54C223C80236234675D223445
:10D4C0000234223480236444A54C633C6344433CCF
:10D4D000C12B8444433C0134002CA33CA444A12B25
:10D4E000233C433C62348134844D43450124833CD6
:10D4F000C44C633CA444C02BC02B0134833CE44C9B
:10D50000A33C012C464D4234201341238123265D48
:10D510008244A344E44CC12B0334A123811B433434
:10D52000833C833C22340234443CE22B433C633C46
:10D53000E44C044DA23CE444222C633CA1238444EB
:10D54000E54C02342234423C4655423C623C423473
:10D550002134E44C022C2234E54C012C4234833C2F
:10D56000833C623C054D623CE44C012CE133644455
:10D57000E133E12B212C044DA334E344244D00245A
:10D5800061342445644DA555A134E023C344044DC2
:10D59000423480230134623CC4446234054D233458
:10D5A0004134C24CC2440234611BA544012CA02367
:10D5B000655D433C8023212C65556234A344012CD6
:10D5C00002340234A444E22B0234633CC444C44415
:10D5D000A33C422C412CA23CE244E344412CC65DD6
:10D5E0008234A01BA11B46556134202C6234C444F4
:10D5F0004234022C222CC444E02B6134244DA23C42
:10D600002234212CE344E023833C064D801B833CE1
:10D61000C23C234D244D633CA01BE344C444054D50
:10D6200022340234023402342234A54C0234433C06
:10D63000633CE12BA344A344833C833C423CC12B89
:10D6400001344234865D6234212C423C2234E23380
:10D65000812BE133A34462346234212CA23CE344A5
:10D66000A134612CA134C23424452345822C634D5E
:10D67000402C244D633C0234643CE233843CC4447B
:10D6800042344134C33CC344A344013402344344D0
:10D69000223C8444233CA02B4234054DE12BA123A2
:10D6A0000234601B64448023643C844464448023CB
:10D6B000A12B43446344C023423484446123033C8C
:10D6C000E233633CA23CA65585552024212CC4445A
:10D6D000012C054D012C833C2134833CA34442346E
:10D6E000C223064DE12B401B443CE233044D403441
:10D6F0004034E44C411B443C8223A223443C22346A
:10D70000A344C12B643C2334E333443C2234623CC5
:10D71000E44C012CA33C022C4334401B6444E54CF4
:10D720002234433C2234E54C0134423C2134C02BAA
:10D73000C44CC12BE12BA444A023E12B833C833CAC
:10D740008344A444423C8444223CC1332344A12B5F
:10D75000E233E22BA4444234C33C244D412C6134D7
:10D76000A23CC23C2345C23C012C2134C444A44405
:10D77000223401344234833C412C4334A123833C82
:10D78000823CA244A544211B443C423CC023655D2D
:10D79000C54C02346234C65D62344134A444C12BAA
:10D7A000C12B633C8123E22B022C633CE64CC54435
:10D7B000A344A01BE3440345A55D8134034586557E
:10D7C00062346013E444E344E023212C264D643C9E
:10D7D000A023E12B843C012C823C044D6134223493
:10D7E000012CC244E02B2234C64C032C633C202C79
:10D7F000E344C444853C811BC444833C0655233C1C
:10D80000233CE02B0234433CA54C233C8444644439
:10D81000E12B433C2234A444633C423C0234802349
:10D8200042346655E02B4234A444E133433CC233D6
:10D83000233CA444E12B62346234C33CA23C612CFF
:10D84000A1348134C23444454445A234834D602C14
:10D8500003456234C12B443C233CA544C54C823C67
:10D86000402C6555833C012C223401346344233C15
:10D87000233C233CE1332234833CC023A123E22B0D
:10D880006023233C602364446444233C602380235E
:10D890000234433CC023012C6444612BE33BA12BA5
:10D8A000A444A23C654D86556234212C623C012C77
:10D8B000E444212CA33C4234423CA444223423348B
:10D8C0000655C223A223853CE12B823CA13C002CBF
:10D8D00041348123453C411BE333433CE133423C2B
:10D8E000C12BE654C32B82236544E2330134A33CAD
:10D8F000C0234234022C433CA1234344C54C233C67
:10D90000C12B223C6344023C83442134423CC44C3E
:10D91000E12BE233433CC02BE12B633C0134423C1E
:10D92000633C8444E133023CC233E33BC233C23341
:10D93000233C643C4334A43CE4446234623C613C98
:10D940008134C23CA23C4134E02B8344A44CE133FB
:10D95000A0234234823CA33C4334E22B423C823C31
:10D960002134C54C611B8223423CC02BC34C8444F0
:10D970000234823C6555E344012CA444A02BE12BE6
:10D98000233C8123E2334334022CA544843C833C72
:10D99000E123A23C234D0245434D444D0445412C17
:10D9A000E023C33C244DC023E023A444643C401B3B
:10D9B000A123433C2134623C0355213422342134D9
:10D9C000A244002C2234853CC64C4334C023823C04
:10D9D000C444853CA123A444633CA54CA12BE23361
:10D9E0006023A12B4344A54CE233223CE233601B6D
:10D9F00002344234E54CA5440234C12BC02B4134DF
:10DA0000865DE12B433C8444C12BC133033C644419
:10DA10002234A023633C833CE44C4234212CA23CBE
:10DA20006134C2344445854DC23485556134C344A4
:10DA3000A4446123233CE233433C633C423C4234F4
:10DA400046556334801B0234E2336444233C233C58
:10DA5000C133E12B43344334601BC22BC22B602300
:10DA60000334E333E333243CC2336123812BA22B01
:10DA7000233CA1230234433C612BE3336023A444C1
:10DA8000423404450445823CA33CC444623C833C8C
:10DA9000423442340234E233854CC12B443CE64CE0
:10DAA000E2338123E22B2234A344623CE02B433C4B
:10DAB0000234E333211BC333A12BE23364448123BB
:10DAC000A54CA22BE333443CC12BE12B0134802332
:10DAD000633CE22BC12B602364446444033CC233A7
:10DAE00043448023C12B233CC12B433C4344033498
:10DAF000C12BE233633C2234433C601B8344223419
:10DB0000844CA1334123A233E23BC233C333243CD0
:10DB10002334433CA444633C4234623C623C423480
:10DB20004234623C833CE02B2234C54C433CE12B25
:10DB30004234E12B833C023423340134633CA12B77
:10DB4000443CA22B62238344423CC34C8444433470
:10DB5000A01BA23C665D012C2234C12BC22B433C8E
:10DB6000C22BA123433CE233633C433CE22B633CA6
:10DB7000A023254D813C65554455A33CC33CC4447A
:10DB8000E0234555E02BE12B233C85448123812371
:10DB9000E2330234433CC34CE12B0234E133824490
:10DBA000002C02344434685D2334801B4234E54C3D
:10DBB000643CA123A54402348444201BA12BE233FE
:10DBC000E3334344434480230234E133A02B433CFA
:10DBD000633C2334443C24440334601B2334655D9C
:10DBE0008023233C033C812BA22B0234C544E12B30
:10DBF000C12B023422348444E233E12B22344234F8
:10DC0000412C44452445A234E444012C643C854421
:10DC10008123443CC12BC12B8444023423348444EB
:10DC2000633C801BE333C22B243CC233233CE133EF
:10DC300080238023633C601B2123E33B2123822B31
:10DC4000E333822B043CC333001B6123822B043C4F
:10DC500041234444033C6123E233A1238444012C47
:10DC6000254D833CE444412CA344633C633C854400
:10DC7000233C812BC233033C4023C2336444E23350
:10DC8000E012C133E2336444033CE333243CE33326
:10DC9000E333211BE333612B812BA22BE333A22B34
:10DCA0004023433C033C4023433C8444001B433C0F
:10DCB000A12B6444812BA54C0334C22B033C033CB1
:10DCC000812BC233A22BE333C233E33B822BC3331A
:10DCD000A22B4444233C433C401BC54C233C243CE6
:10DCE000A233C0128123E233E333453CE333C22B3A
:10DCF000E22B2134623CC44CC444E22BE233A13316
:10DD0000E233A54CE133E12BC44C8344C12BE23315
:10DD1000E2332344812BE233C12B443C033CA23346
:10DD20004123011B033C6444C444843C4234002C22
:10DD30006134044D633CE12B233CC12B0334C22BE3
:10DD4000401B233C233C433CA54CE3330434612378
:10DD50006444023446552555823C833C054DC1231D
:10DD60004234423CE133C12B854C812B6123812B12
:10DD7000E233433C433CC12BC2336023433CE23398
:10DD8000E22B022CE64C843C601BE12BA444A44C07
:10DD9000411B864CC2334444A233812BC233C2336D
:10DDA000233C233C6023A02BA02BE133433CE233F4
:10DDB000E22BC233A233A22BC00AA444E444601B6A
:10DDC0000234E33B4023C2330334E5440234E12B05
:10DDD000E12B233C443C233C2234633C212C212C6A
:10DDE000654DA23403456134623C0234C32B0113F8
:10DDF00064448023A22384448123443C8444833CA0
:10DE00006023C22BA22B043CE333A12B223CE12B49
:10DE1000A0238444C32B011BE43B622B4123A32B8F
:10DE2000C333053CE43BE01A622B4123A333822B2E
:10DE3000033C822B812BE233433C8444C023265590
:10DE40008234823C4134012C4234633C433CA12B5C
:10DE50004123C3330444612BA22B033CE2336023F0
:10DE6000E233C233233CC233E333243CE333612344
:10DE70004123A22B6023A12BE333043C001BA22BE4
:10DE80004344A22B401B233CA54C6023033CA12B05
:10DE9000644461230334033CA12B033CA22BA22B3B
:10DEA000E333A22B812BA22B043C4123A233A22BD0
:10DEB000C12B433CE23380236444033C444441236C
:10DEC000001BA12B8123A64C043CE333A22BE2339D
:10DED00022342134E54CA444E22B033CC233812B91
:10DEE0006444223CC12B8444A444C12BA12BC233E3
:10DEF000C233C233E2336123443CC233243C212386
:10DF00002123E333433C8444843C212C2134623C70
:10DF10004234A44402340334A12303346123A12BEB
:10DF2000033C0334233CC12B443C4123443C033495
:10DF3000E333213404550134E12BE64C2234E02B49
:10DF4000C44CE233A12BC6546123812BA22BE333B3
:10DF5000433C8444E12BE23BA12B0234233C80234D
:10DF6000E22B443C4334801B601B433CC54C602384
:10DF7000033C4444812B854C6123612B822B033C61
:10DF8000233C802BC12B80230234233CA12B8123F3
:10DF9000A22B8333A22BA123C444044D8023A1339D
:10DFA000E33B2023C2330334C54C2234E233A12B9C
:10DFB000233C233C233C02342234C023212C654DD6
:10DFC000A234244D613C423CE22B61234223644451
:10DFD0006023A22B84446023453C643C8344601B43
:10DFE000A22B6123C333E3334023233CE13380235B
:10DFF000643CE333011B832B822B4123A333A333E4
:10E00000043CE43BE01A6223011B622BA233612330
:10E01000011B812B61236444433CA023054D633CD9
:10E0200042344134012C4334433C233CA233612B22
:10E03000823304448233822BA233C233802B023CCE
:10E04000A12B0234A22BE333043CC333001B612316
:10E05000812B4023A22B2444A333C012C333444456
:10E060004123A12B023C6444A12B44446123E333AC
:10E07000812BA22BA12B812B033C4023C233E33302
:10E08000812B41236123243C2023822B822B40239C
:10E09000443CA12BA12B233C033C4444001B2023E4
:10E0A000812B812BA64C043CC32B8123C12B623CCA
:10E0B000423CE54C433CC22B033CC2332023233C6F
:10E0C000633CA12B433CA54CC12B6023A22B812B8D
:10E0D000C233E2336023233CA22B45442123412356
:10E0E000C2332334433C843CE12B4234623CE02B7A
:10E0F0008344433C02348123E233401BC22B03346C
:10E100000234233C8023243C211B043CC22B233CAF
:10E1100080230555413C40138444633CA023844440
:10E12000433C6023854CA233812BA22BC233443C59
:10E130008444E233033C812BA22B443C2013E22B8A
:10E14000643C843CE12B401B0234A44CA12B812B6A
:10E1500065444123C6544023412B612BE33BE2330A
:10E160002023812B802BE233E23361236023412380
:10E170004123444423344334E54C8023A12BA3336F
:10E180000023A233C22BA544C233C22B812B233CD4
:10E19000C233C233812BA12B80236234E444044573
:10E1A000044DC344E12BC22B822B243C033C812B26
:10E1B000E13343446123453C443C8344401BA22B50
:10E1C0004123422BC333E01AE33BE1338023033482
:10E1D000043441232123632B422BC43B622BC433E1
:10E1E0008333E01A212301232123043CE01A212355
:10E1F000033C4023C54C2334A123633C833C22349D
:10E200000234433C433C0234233C033C8233412BE5
:10E21000C43BA333412B8233C2336123023C6023CE
:10E22000C2336123E33BC333822BE01262232023FA
:10E230004123A2332544011B201BE333E333412355
:10E24000C133023C854C812BE33B4123612BA22B44
:10E25000A22BE01A812BE33B201BE333C333412382
:10E26000001B2123E43B001B8233822BE012444439
:10E270006123E233C233033CC333E01A2123612319
:10E28000033CE43BE4336223822BC22B633C013426
:10E29000E54C633CA123E33BA233E01AC233644460
:10E2A000A12B233C6444C2336023812B2023A22B67
:10E2B000E333A22BC233822B043C612B612B812BD5
:10E2C000E233E2338444C023423C423CC02BE12B86
:10E2D0008544E233A22B8123001BA22BE333E333DB
:10E2E000C233812BC2336223211BA22B844480239F
:10E2F000A344E44C0013C12BA444E12BC12BA54C37
:10E300004023C33B2444612B822B812B233C644458
:10E31000E233E33B612B812B4444E00A0334C54CD8
:10E32000E64C433C2013A12B433CC233201B444406
:10E3300061236544612B412B622BA333A233C012AE
:10E34000A233C233A233A22B812B61230023E1220B
:10E35000864CC00A433C633C201BA233A33BE02213
:10E36000822BA12B433C6123812BA22B033C822BCC
:10E370004023822B61238123843C222CE444E44CFF
:10E38000633C401BC22BC3332444A233A233C233A9
:10E39000E23361238223443C423C6123C333622B3A
:10E3A000011BA2332023E23BE233E233E233043C9D
:10E3B00001230123A4330123A3338333632B0123DC
:10E3C0000123E01A222B422B043C2023A233C33327
:10E3D000C233C654A22BE3338223A444433C023409
:10E3E000433C0334E233C333A233622B212B833308
:10E3F000C33B2123C33BC233011BE23B4023E33B2E
:10E40000412BE43B622B2123E11A4223E01A622BC9
:10E41000C333A333011B4123C3334123C233812BB5
:10E42000E33B854C201BC333E01A612B812BC233A5
:10E43000C0124123822BA233043C622B012301230F
:10E44000212383332123C43B622BE012243C61232C
:10E45000033CA22B244441232223E11A612B444490
:10E46000A22B4223832BA22BA12B6344C02BC44C91
:10E470008444401BA233A333E01A612B243C812B3C
:10E48000E333E233033C822B412B00230023C233CE
:10E490002444622B822B622BC333622B4123C23371
:10E4A000A22B84448023433C633CC12B80238544BE
:10E4B0000334A22B001B201B812BE333E333A12B5E
:10E4C000C233822B622BA012201B6444023401341D
:10E4D000265D601B6123443C64446023233C41234C
:10E4E000822B04444123612B2023E333443CA22BA1
:10E4F000C33B2023612B243CC00A433CC64C8544CB
:10E500000334201BA22BE333C233812BE233812B54
:10E51000E33BC33301232123A333C333001BE33B7A
:10E52000C33B812BA22B822B612300238333C33374
:10E53000201BC54C02342023A33B833B0123622BC9
:10E540008123233C2023612BA233E43B622BE01A7E
:10E55000A233612BA12B643CC123A444E44CE12BE6
:10E560000013A22BC433C43B8233A233C233A13382
:10E57000622BE112444402346123E43B632BC11A51
:10E580008233612BE33B033C233CC333043CE12255
:10E590000123E43BC11A622BA43B422BE12222233C
:10E5A000C01A422B6333A3332123E33B4023E333DD
:10E5B000654C4023043C2223A54C443C03340334E3
:10E5C000E233E333A23321232123422B6333A43BE1
:10E5D000212BC33BC33BE11AE2332023E33B422B15
:10E5E000C43B42230123011B2223A01A632BC33BFC
:10E5F000422B22234223C33BE11A033C612BE33B22
:10E600002444E01A043CC012412B612BC333001B8D
:10E61000422B2223E43B043C422B011B21230123F8
:10E62000632B422BC43B622BE012243C6223033C4D
:10E63000A22B4544E11A422BC11A822B4544A32B3D
:10E64000E012A32BC22B401B844401348444433C7E
:10E65000411B8233A33BE01A412B033C812BE33364
:10E66000A22B043C8233412BE122C01AC233654CF9
:10E670002223632B0123E43B63334123A233812B09
:10E6800065448123433C6344A12B60236544043CDF
:10E69000A333C012201B812BC333E33B822BE33B0C
:10E6A000822B4223E11AA012233C433C81230655CE
:10E6B000C12B8123E333A54C812BA22B622B622B30
:10E6C000E43B2123422B001BC333043CA22BA33386
:10E6D000E01A412B043CE012443C85440334C22B35
:10E6E000401BA22BE333812B033CA12B812BC33393
:10E6F000043CA333A01AC022623300230444A23393
:10E700004123622B422B012321230544A11A243CDF
:10E710002334A12B2123A333032B022B412B602372
:10E72000E2338233823321230544622B01232023E9
:10E73000612B812B443C8223433C0555433CC00A5A
:10E74000822B832B4644622BA233C33B001BA33393
:10E75000A112864CC233001BC4338333A11A212B70
:10E7600082330344C233444441232544C11A601216
:10E77000A43B022380126333432B843BA11A801AEB
:10E78000022BC11A422B832B864CE01A864CA533F0
:10E79000A012233C001BC233A22BE233243CA22B49
:10E7A000A22B2444222BC022423301234333623361
:10E7B00021232544001B8233622B8333412BC43B2E
:10E7C000422B632BC11A02230223C43BA333432BE6
:10E7D000C01AC43BA3334123622BE01A454CC33318
:10E7E000A012E43BE22202238233011B6233A333F3
:10E7F00060128333A4330123E122422BE122C53B83
:10E800008333C122422BA012A333822BA333E43BD8
:10E81000A3330123E122801A8233043CA333E01A9C
:10E82000221BC233812BC54CC44C0234A544812326
:10E83000C01AC543400A8333A233612BA233043C80
:10E84000A233A3336233A11AC01A622B043C022301
:10E850008333C01AC43BC43BE11A622BA22B03349E
:10E86000233C6444A54CC2336123243CE43BE43B99
:10E87000C01AC012412B01230444412B822B412397
:10E88000632B8333600AA22BE233A12BC55464446B
:10E89000211BE333033CE3334123E43B212B464C70
:10E8A000422BE43BC01A822BA22BE43B432B801269
:10E8B0008333E43B243CA22BC64C03340334E01ADC
:10E8C000211BC333612BC33BC333822B4123C43B86
:10E8D000222B400AA11AA33B83336233A33BA33309
:10E8E000A012422B01232644432B8333011B211BFF
:10E8F000822B622B4333022BC122422B612BE33349
:10E90000622B422B212BC43B022BE122422B622B98
:10E91000C333A22B411B233405556344001B6123E1
:10E92000422BE43B422B8333C33B0023622BC11AAF
:10E930006644E23B20238333432BA11AE122A33B0D
:10E94000E33B82338654001BE43BE12260126333D5
:10E95000232B801A222B232B843B4112E222E1221B
:10E96000432B4123C333C3330023A654822B211BE3
:10E97000822B4123043C622BA233E33BC333612B44
:10E98000E43B6233C122232B022B222B6333A01AD8
:10E99000A433622B6233422B6333222B8433222B2A
:10E9A00002238012C11AA43B8333A43B0223C11A61
:10E9B000A43B6333222B422BA01204448333400A2E
:10E9C000A43BA01A422B0544422B222BE1226012C9
:10E9D00083336333222BE122432B811A274CE2221B
:10E9E000A01A022BA0120123E43B8333A43B833300
:10E9F000222BA11AA01A412B654C422B011B632B21
:10EA0000E333A22B4344265D401BA544A22BA01A4E
:10EA1000843BC11A0123A333622B622B2544422B72
:10EA2000A43B222BC122801A222B05440223843BC3
:10EA3000A01A8433843B61120123A333243C0334A2
:10EA4000233C854CA233201BE3332544C43BE11A0D
:10EA500001230123C01AE43B8333A012C43B632B80
:10EA600022230123412B033CE2336444243C622BE8
:10EA7000A22BE333A233622B0544C21A054C222B8E
:10EA8000A43BC01A622B822BE43BE2228012C43BDF
:10EA9000A333E33B001B6544E3332444011BE11A29
:10EAA00083332123E43BA333622B2123A43B022B9A
:10EAB0002012811A633362332123833380120123AE
:10EAC000E122422B474C601A05440002A22B454428
:10EAD0002223E22AE22A801A022B412BC333422B43
:10EAE000E122222B8433C122C122022B222BE43BC0
:10EAF000211B6123443CE54CA44C612B21230223C0
:10EB00008433222B6333823300232123C11A05442B
:10EB1000033C2123432B0223A11AC122833B823BC6
:10EB2000A33B454C0123422BE2224012022B4333EC
:10EB30008012E222022B63332112232B801A843BA2
:10EB4000622B043C4123622B864C001B622B212349
:10EB5000822B0544622B0123C333C3332123A43307
:10EB6000843BC122E22AE22AE22A43334012222BCA
:10EB7000A33B422B222B422B022363330223C122CD
:10EB8000000AE322064463336333E222C11A843B62
:10EB9000022B63330123A01AE4436333200A833B2F
:10EBA000C122C4436333054CA01A222B200AA43B84
:10EBB000432B432BE222C11AA11A6854601A801A0F
:10EBC000C122A01AA0120544832B83336333232B65
:10EBD000801AC1222123865401232123C433E43B1C
:10EBE000A22B233CE5546023233CE43380124333BF
:10EBF000233360128333422B21230544222BA43B71
:10EC0000C122E22A6012222325440223843B801A77
:10EC1000232B6333200AA01AC333043CC333E23BE3
:10EC20004444A22BE012822B464CC43B01234223D6
:10EC3000C01AA01AC43B83338012C43B643323231D
:10EC400022238233C233812BE33B654CA333212340
:10EC5000C333A23301230544C21A0644022B633393
:10EC6000A01A622B422BE43BA11AA21AE543A3335C
:10EC7000A433A012E333C23325442223C012632BF2
:10EC8000C11A053C632B2223E11AA433C2222012AD
:10EC9000811A63336333222B222BE0012223E11AF2
:10ECA000E543843B4333222BA012E43B043C022384
:10ECB000A122A222801A0123612BC333422BA11A65
:10ECC000232B4333A11AA11AC122E122C43B011B09
:10ECD000A22B6544A54CA54CA233E01AE11A432BA4
:10ECE000222B623362330123E11AE11AE43BE33B56
:10ECF0002123222BC122A222C122222B422B0444F7
:10ED00008333422B0223032B4012C122843B601227
:10ED1000A122032B4333411244336012843BA43BB2
:10ED2000E43B0023A3332644A012622B0123633368
:10ED3000C43B6333C01A822BC33301236333A43B28
:10ED4000C122C222E22AA12243334012E222A33B83
:10ED5000222B222B222BE222232BC122A11A000AD2
:10ED60004533A53B6333022BC222C2226433C12246
:10ED70008333C122C022E54343334012833B222B1D
:10ED8000843B8433843BC122022B811A6333643376
:10ED9000232BE222200A232BE64B4012801A8012FA
:10EDA000A01AA01A0544422B63336333232B801A25
:10EDB000C1222123864CE01A2123C433C333612BA3
:10EDC000644463440234A22B043C8012032B43337B
:10EDD00040122223422B2223A433432B843B811A4B
:10EDE000032B4012222B264CC2226433801A022BA2
:10EDF0004333200AA012A333043CC333C233033C81
:10EE00008233C01A21230544E5430223422BA01A72
:10EE1000A01A83336233E122432B432B432BE11AA5
:10EE2000A333A233822BC3334544C3332123C333DB
:10EE3000E43BA01AA43B022BE543022B4333A01A68
:10EE4000422B2223E53BA21AC3228433C43B832BEB
:10EE5000C012C233822B043C422BA012432B8112DE
:10EE60000644432BE122A01A633340122012A12250
:10EE7000843B843B433360126012A01A232BE64389
:10EE8000232BA443801A0123043C4223A11A611AB4
:10EE9000611A601AC122612BC33B222B201223333B
:10EEA000E22A801A601AA11AC1228333622BC3336B
:10EEB000243C233CA54C043CA012C11A232B222B3A
:10EEC000222B422B0123801202238333C3330123DD
:10EED000E222A11A032B801A801A212B454C212BE8
:10EEE000422BE222032B2012611AA543401260122A
:10EEF000022BE22AE222643B4012643B05442123B8
:10EF0000E01A0544E53BC11AA333222B222B222B06
:10EF10006333A01A0223C333222B222B843BA1226A
:10EF2000A122A122811A032BA11AC122422B222B3A
:10EF3000222B022BE1220223811AA11AA11A853B5E
:10EF40004333222BC122A11AC322E222C12243331E
:10EF5000C01AE022A43BE12260124333A43BE22228
:10EF600047544012843BE222E122E2226433232B05
:10EF7000811A200AE6432333601AA11A2012C12203
:10EF8000222BA43B222B432B4333E222A222A12299
:10EF900021232544011B0123632B622B402343447F
:10EFA000233C433C411B243C60122433232B801A16
:10EFB00060120223222B222364334333A21AE32A52
:10EFC0004012432B264C81122333801AE22A643BE1
:10EFD000811AC01AA333E43BE333C333C233822B19
:10EFE000001BE01A422B264C0223022B8012C11A6E
:10EFF000222B4233E122C11AE222E2220223422BD7
:10F0000082338133A233E33BA3334223A333254C22
:10F01000C01A4333232B643BE22A232BC11A422B11
:10F02000E21AE53BC322E322222BA333822B822B5D
:10F03000E3334123832B632BA012232B2212474C53
:10F040000223C11A6012632B811A811AA122233371
:10F05000022B222B000A6012C1228433022B853B33
:10F06000A122A11A632BC43B422B400A601240121A
:10F07000601AC122422BA43B232BE0092333C22A6E
:10F0800081222012C222E22A6333A333A233822BCD
:10F09000E233A54C24448012A11A232B4333222BA4
:10F0A000222BE12260120223633383330123C11A2E
:10F0B000811A2333601A40122233054C222BE1229D
:10F0C000232B032B2012411AA64340122012032B9C
:10F0D000C1224333443B40124333C43B400AE11A4C
:10F0E000464CE43B422B833383330123C11A843BD8
:10F0F00080120223A333422B022B6433A11AA222D3
:10F10000A222611A032BE22AC122E22A022B022B3D
:10F11000E22AA122E222811A811A44336433032BAA
:10F12000C122C122811A032BA21A032BE122C12280
:10F13000A11A433360126012222BA43B6333264C86
:10F140004012A53B032BA11AA21A443343332012C9
:10F15000A222E643C222611AA222000AE1226333FC
:10F160006333022343334333A122E22A811A6233F9
:10F17000E43B2223011B222321236123E23B84441D
:10F18000A12B201B043C61122333E222E222E00186
:10F19000C122432BE2226333222BC222C222601AF5
:10F1A0004333264C4112022B811AE22A843BE2228D
:10F1B000E1228333C433E43BC333A233A33322239A
:10F1C000C01AA11A67540223E222A11AE222022BDA
:10F1D0006333801AA21A811A61124333222B422B05
:10F1E000212B82330444A333E222432B6754432B65
:10F1F0004433222BE22AE22A022BC11A222BC11A03
:10F20000C53B032BC222022363338333043CE33B1D
:10F21000012322236333A11A032B0212074C032379
:10F22000A11A6012432BE332822200120333032B14
:10F23000E22AE009E009C222843B032BC643611A9B
:10F24000E22A6012022B232BA11AA11A6012601A63
:10F25000E22AE42AE32A4533E009E32AA222411AFA
:10F26000E009811AE22A4333A33B412B2123E233F5
:10F27000A54C4444A0124012E222643BE22AE32A55
:10F280004012601AE222C5436333422BC12260124E
:10F29000A122222BA11A2333C5434012C1220333DA
:10F2A000A22AE011611A85430012E009E22AA12294
:10F2B000032BC222A222853BA11A200AC21A264C85
:10F2C0004333222B43336333C11A60128433022B3E
:10F2D0008333A33BE122C1228433821AA222A222D9
:10F2E000611AE32A032B601A0333C22AA222812265
:10F2F0004012A11AE222A11A6433032B232BA1226C
:10F30000E22AA21A0323E1226333C01A4433E32A18
:10F310008322E009C222A433832B26446333200ACC
:10F320004433A222032BA122032B6433E009853B43
:10F33000232BE32AE119011A2012A122E12A833B9F
:10F34000C01A64334333811A032B2012054C8333D4
:10F35000432B0123011BA333E3332444E75C212324
:10F36000A01AA43B821AA11AA122653B21124012C5
:10F370006433C122222BE122032BE32A4012E22A2A
:10F38000E64B4112C222801AA11A022B6433A01A42
:10F39000432B8433A333622B622B83330223C01AA3
:10F3A0002112474C0323A21A853B611AA222643B17
:10F3B000801A811A0012A222E32AE22AA0224333F1
:10F3C0000123A33BC43BC11A6012474C432B232BA0
:10F3D000A43BE12A022BE222C12243334112643BC7
:10F3E000E222A2220223E5438333A333422BE11A14
:10F3F000E122A433A11A232B611A2333843B201268
:10F400006012E2226122E01182222433C222A2226F
:10F410000012E009E22A4433643B032BC32AA222F0
:10F42000E009C2224333801AC11A801A4012E32A2B
:10F430000433611A453B8001E32A411A0012C009D6
:10F440006122C2224333423362332123033C233CF3
:10F45000854CC0126012621A643BC22AC22A201272
:10F46000601A811AA53B6333E122801A2012C1225F
:10F470004333601A032BA5434012C122E332A22A70
:10F48000E0116122453B2012E009E22AA222C222B9
:10F49000811AA222853BA11A6012E222264C222B5D
:10F4A000E122A43BA21A0323400A6333222B022B3E
:10F4B0000123C122E222232BE322621A821A621A5A
:10F4C000A222C32A411AE32A622282228222811ABC
:10F4D000C122E2226112C543022B4433C222C22A56
:10F4E0006012432B222B6233A01A2433C322C4227E
:10F4F0006212A21A63332023264C022B601A022BBD
:10F50000C222E32AA222E32AE22A601A843BE12AE9
:10F51000A222E219021A001AA022012B6333C1228F
:10F52000843B232B4112A1224012054C4233C11AC5
:10F53000C11A432B4223A33324448654E01AA01A51
:10F54000232BA11AA022E22A811A44334012022B53
:10F55000012B4233A022032B032B4012C222074C63
:10F560002112E222811AA11A022B6433A11A432B21
:10F5700063336333422B632B422BC11A02234112A4
:10F58000643364336012074C0112A22224338122B7
:10F59000611AE009822AA22AE32A61224433E12285
:10F5A000833BC43BC11AC222022BC53B801AE543F0
:10F5B000012BE22AC22281222333411A4433E12261
:10F5C000A11AC11A0544422B8333222BC01AE11A17
:10F5D0006433C11A0323601AE332853B4012601A78
:10F5E000C222E009A009243B0433821A812220129E
:10F5F000E009032B443344334012411A411A611A83
:10F600002433232BA11AE222611A611A4533822284
:10F610000112463B800104330112E0090012611A15
:10F6200081224333C1228333212BC333822B2444D1
:10F6300002234012621A24338222A2222012401294
:10F64000201264336433801A6012000A022B843B58
:10F65000000AC122A54340128122C22AA22A001216
:10F6600082222433411AC009C22AC222811A000A06
:10F67000A222A53BA11A601202230644C122A11AAC
:10F68000843BC11AC222A11AC11AA53B400AC11A61
:10F69000222B4333A2222433201221128222621A07
:10F6A000822220128222622262228122A122032B44
:10F6B000C222821AC543E2222333811AE32A400A76
:10F6C00084338333222B6012032B821AC422C32279
:10F6D0006112622B20234554821AC222C122E22ADF
:10F6E000A222811A2012C32A032BE32AA12261221B
:10F6F000021AC111E011A122012B4233022B8433E3
:10F700000323000A2012A122054C0123801A801233
:10F71000C53BE01A001BC33BE33B8012E122242BD4
:10F72000022B801AC2222012653BC2224012633B88
:10F730004233601AE32A23330012811A074C021A5B
:10F74000E22A811AA11A032B6433801A232B232B5C
:10F75000432B0223632B432BA112C222E22260120D
:10F76000C6434112A643611A4012032BC222611AFA
:10F77000A00962228222C32A401A2333A1226333C2
:10F78000833B222B411243336333611A843B43335F
:10F79000C222A122401A2433411A042B022BC11A7F
:10F7A000C11A0544222B8333222BA11AC11A432BE1
:10F7B0000323A21A601A8122853B801A4012A122DB
:10F7C000C0090112453BA2226122A22200120012AE
:10F7D0002433853B811A401AE011E009C2224433E8
:10F7E000032B4333E2222012C32AC643E009211A25
:10F7F000663BE0090433211AE011411A411A8122C3
:10F80000032B801A6333212B422B622B422B843330
:10F81000000AA222E32A8222A32A211A2012C00966
:10F82000E32A843B601AC122000A032B653BC00116
:10F830008022A543201A611A82228222011282228A
:10F84000E32A621AC009A222E32A611AE009E32A24
:10F85000A543811A801A022BE643811A811A232BB1
:10F86000C222022B811AE222A43B2012E22A643B2C
:10F87000A543A22224332012E009C32A421A611AA6
:10F880002012201AA32A62226122811A4433A11A6B
:10F89000022B4333E222C222611A032B8112C43BA2
:10F8A0006333E122601AE22A21128322C32260120A
:10F8B0006333823346544112E22A611AE32AA222B8
:10F8C000611AA001E32A843B221A611A8222021AD9
:10F8D000C111C009A1220233223323334433C2228F
:10F8E000000A4012232BE543A01A80124012E53B88
:10F8F000A012E01AC333A3336012E222032B643B4D
:10F90000801A611AC322421A453BE009843B633BDB
:10F91000411AA2220333000A411AE74B021AE22AD3
:10F92000811A811A032B843B801A022B022B022B93
:10F93000A11A232B8433C2222112843B4012E643B6
:10F94000A222A2222433E009E32AC32A411AA001F9
:10F95000011A6222A22A00120333811A222B633376
:10F96000222B621A2333232B811A23334333C222DF
:10F97000812200120433421AC32A2433A11A02231B
:10F98000E543222B843BE222A21A811A032B042B8B
:10F99000621A611A411A643B81222012A122E011ED
:10F9A0008222253B82228222822200122112443BA3
:10F9B0004433011282220012E011611AA222E32ACA
:10F9C0006433821A000A2433A7438001411A253385
:10F9D000611AA32A211AE011422200128222C222B5
:10F9E000801A222B022BE11A6333E222A53BE009A5
:10F9F000A222C32A6222C32A411A2112A009A222EA
:10FA0000843BA122843B6112E22A453B8001601ABB
:10FA1000A543201A401A82226222211A6222C32A96
:10FA2000411AA00982222433811AE0092433A64313
:10FA30004012601A022BE6436012A122232B811A86
:10FA40004333611A6433E222801AE2222333C6432D
:10FA5000E32AE32A611AC00905336222411A211AF6
:10FA60000012832A411A411A611A23332112643386
:10FA7000E222032B811AC32AE32AA11AC53B222BB7
:10FA8000A01A801AC2220012A322A222811A432B9A
:10FA9000A33B064C611AA1224012A222C22A811A5B
:10FAA000A001A222A6430012401A8222E219A1114B
:10FAB000A009A122022B022B4433032BA2222012E5
:10FAC000A122843BA43B801A4012811A8433A012E5
:10FAD000422B0444A333200A811AC322643B8122AF
:10FAE000611AE42A0112453B0012643B633B411A50
:10FAF000611A032BE0092112C64B0212E32A611A94
:10FB0000811A2333853B801A022BC222E222601223
:10FB1000232B432B4433200AA53B032B4433232BB5
:10FB2000000A853B000AC322A32A411A8009A009C2
:10FB300062226222E011E332611A022B6333A122B6
:10FB4000032B611A022BA222E22A2333A122612273
:10FB5000E0090433621A82222433811AE22AC5435F
:10FB6000E2226433C122811A6112E322E42A4112A3
:10FB7000A2220112443B611AE009C122001AA32A01
:10FB80000433E42A8222611A0012411A653BA22240
:10FB9000211282220112A32A411A611AC32A811A50
:10FBA00020122012653B253BA009421AA32AA3225A
:10FBB000211A011AC011211AE011A32A421A611A4E
:10FBC000E222022B801A6433C21AA53B4012411A6A
:10FBD000E32A6222E432421A211AC0096122A53BBB
:10FBE000022B2754C322C222E43260012012864332
:10FBF0002012201A6222422242224222C32A411AA1
:10FC0000A0096222653BA2222012453BA6430012B6
:10FC10004012032BC6436012C222E22A811A032B30
:10FC200044330333C222601A601A811A86430433B4
:10FC30008222A32AC009463B6222421A421AE111DB
:10FC40004222211A0112411AC22AC0096433C12278
:10FC5000643B601A8543A42AA122E443C1224012D6
:10FC6000A122A2222012E332621AA222212B833384
:10FC7000A5438222411A00126122C32AC32A6009C5
:10FC8000411A6643211A8222211AE2198111800940
:10FC9000A22A0333032B653BE32A821A4112033362
:10FCA000E64B643B801A000AE322C222C11A632B8E
:10FCB000E443A33B2012811A04332333A22A822275
:10FCC000421AC42AE432411A2433643B611AE01117
:10FCD000C32AE111011286432112C32A411A811A53
:10FCE00024338543601AE22AA222C2224012032B47
:10FCF000811AA643A22244330754611A653B21129C
:10FD00002433611AA322A32A4222800940016322DC
:10FD10004222C011C432411AE22A4433811AA2227B
:10FD2000653B221A853B2112033382226122A009FE
:10FD3000E4326222421AE32A2012811AA643601A90
:10FD4000032B8122811A4112C322E32A2112C32AE2
:10FD5000E1110433411AC009C22A62224222832AD5
:10FD6000832A011A4222A009253BE32A8222611A32
:10FD7000211A6322832A2112C32A04332012611A12
:10FD8000211287436222A009E111C11105336322C8
:10FD9000A009011AC011A109E432E111A222811ABD
:10FDA000C122811A032B611A042B00122112822214
:10FDB000211A6643C43281098009A009843B643B4F
:10FDC0004754A2222112C643C009A001253B62224A
:10FDD000E011221A22226322011A8322221AA00988
:10FDE0008222E42AA32A2012453B653BE009621ADD
:10FDF000653BA643601AC222611AA222811A2754C7
:10FE0000421A0333E009411A8222E432443BA2221F
:10FE1000A32AE011C432C432011A021AC011632AA3
:10FE20006222E011E32A41128001C643A222C222CB
:10FE3000A2222433411AA022A43BE22220128222D1
:10FE4000411AC009C32AC22AC22A022BC53B8222F8
:10FE5000411A421A011262226122611AC000E53A77
:10FE6000253BA0098322221A03222001C011401A37
:10FE7000A22AA543A322821A822200122333A54379
:10FE8000C22A40124012653BC222A11AE222E54377
:10FE9000422B4012611A621A453BA222211AA00984
:10FEA00005338322A32A411A443B8222A0098322DC
:10FEB000021AC011253B62220433E00900122433E8
:10FEC000653BA222611AE22AA222C001C32AA22211
:10FED000C32AA42A421A24334433032BE32AC22A16
:10FEE0002012832A6322011AA01180090222842A87
:10FEF0004009632A021AA222E22AA222411A02120D
:10FF00006643C32A201A411AA22A62226001632290
:10FF1000C11142228222E00924330533C00944334F
:10FF2000201AA222421A0112C42A221A8222411A3B
:10FF30000433411AE009611A4222421AA42A6222B9
:10FF4000211A0112C0098643E332A32A411A001282
:10FF5000832AE1194222E432E432000A611A211AAA
:10FF600087434222A009E111C111E53262228009D2
:10FF7000E119A011C111E4320112A32A611AE2228F
:10FF8000611AC32A821AE32A411A2112A2220012FC
:10FF90004543E53281096009A009633B032B2754DF
:10FFA000411A2012A64321128001253B6222E01152
:10FFB000221A221A6322011A6322221A8001A32A1A
:10FFC0000433C32A21122533653BE009611A443BFF
:10FFD0008543411AC222611A611A8222C64B221A33
:10FFE000E32AC009411AA22AA222243B82228222A9
:10FFF000C011C432C432011A021AC111632A42224A
:020000040801F1
:10000000E011C32A0012A001A643A222A222A2222A
:10001000E4322012E122A443C222201A6222211AD1
:10002000E011C22AE22AA122222B6333611A622242
:10003000421AE11182228222411A2009053BA32A99
:10004000C00962224322E2212001C011201AC22AE3
:1000500085438222821A8322001203338543C22AF7
:100060002012611A4533A222A11A022BC543222B6A
:100070002012611A421A453BA22A411AC111832259
:10008000842AA32A6122243B822280014222021A6E
:10009000C011253B6222E432E01100122433243BDC
:1000A000A222611AC2228222C009A32AA222C32A42
:1000B000A322411A24330433E32AE32AE32A201239
:1000C00063226322E11980098009021A642A400927
:1000D000632A021A8222C22AA32A421AE011832A20
:1000E000453B411A0012A22A62224001832AA11133
:1000F00063226222E0110433E432C009243B411A36
:100100008222211AE011A42A421A6222211A0433FF
:10011000411AE009611A011A221AC432221AE111A5
:10012000A111011A86430433A322E011211A4222AD
:10013000A009421AE432C32AA009211A411A6643CF
:10014000011AA011C111A109E53222228009C111B1
:100150008011021AA432011AA32A411A032B411A50
:100160008222A322A222C2222112C32AC009E43A77
:100170004643A1116009E0110233A222C64BE009F7
:1001800000128643C32A8001463B4322E119221A0A
:10019000011A4222E1196222221A60010533253B2D
:1001A000C32A211AE4322533E011411AE332653BB8
:1001B000411A8222411AE011C32A8643211AC32A16
:1001C0008001421AE432001204334122211AE01164
:1001D000A32AC532E111021AA1112222011A011A21
:1001E000A32AA00900124433C222611AE42A8322FE
:1001F000E1112233A43B8222421A021AE111E119D1
:10020000A22AE332601A4333811A2112221A011AF8
:10021000E0114122C332001A211A253B221AA009FB
:10022000221A632AC1192001E011201AC332243B8B
:10023000421A631A421A001203336443A1222012A5
:10024000A322E42AA222A21A4333843B022B0012E7
:10025000211A63226543A32A4222E111A109A42A9B
:10026000832A6222C32A822A4001C111221AE11183
:10027000053B211AC432C011E011E432E432A22A53
:100280008222A2226122C009832A6222A32A622238
:100290002012453B8222E32AC22224334112021A51
:1002A0002322C11140094009A219232260094322D7
:1002B000E21982226222A32A42228001A111A643CE
:1002C000832AC009622262224001842A8111642AA1
:1002D000421AC011E432832AA00904334222822246
:1002E000C1118009432243226222211AC332411ADA
:1002F0000012611AC011021AA42AE119C011C0111A
:10030000832AA32AE432211A0112A42AA111E11995
:10031000422283226222C009E01162224643C011B8
:10032000A011A1118009C432021A6009A11160094B
:10033000232263224222421A421AE42A421A6222E9
:10034000A3228222E32A4012A222A009C32A664BDA
:10035000C11940114122C122022B653B001220121B
:10036000653BE432A009263B2322E219011AE11978
:100370002222E1114222011A4001253B253B832222
:10038000211AA322E42A0012211A8222253B411AB3
:100390006222411AC009253B65436222A32A6001FB
:1003A000221AE432A009E4324122E011E011632A6A
:1003B000C532A111E2198111E119E119011A832253
:1003C00080018222E32AC32A2112453B0112011235
:1003D0004333433B411A221AE219C111021A822AFD
:1003E000E232601A243BC009211A221AA0114222CB
:1003F000E111832AC111E532E43262228009021A36
:10040000E21981192001011A001AE432E42A0112CA
:10041000631A2112E0110333643B6122201AE43293
:10042000A322621AC22264332333E22A0012011289
:10043000221A253BA32A6322021A4001842A632A36
:1004400062226222A32A400160092322011AE43AAF
:10045000E111A332C011E011C3328222A32A822209
:10046000A222411AE0114222211A6222411AE0110D
:100470000433411AC222A2222433411AC111031AA1
:10048000A111000140098211E32181112322C21927
:10049000622201126322221AC011A009832AE432C7
:1004A000C011011A632A6001432A8111642AC1190B
:1004B000C111A432021A8109C432222242228109C6
:1004C0006009C21144226322211A822A4122201289
:1004D000611AC1112222632AE119C011E119C43243
:1004E000421AA32AE011421AA42A6009E221842AAE
:1004F000E1194222C009C009A32A263B8009A011A4
:10050000A0118009A432E1196009A1116009232218
:1005100003224322C0114222A32A4222832A82229A
:100520006122032B6012611AA009A22A664BE12105
:100530004011622AA1222333253300126122C32AEB
:100540008322E111053B2322A211E119E119021ACC
:10055000C0112222E1114001053BE432421A01128E
:10056000621AA32A01120112421A0433411A411AD3
:10057000201AC009253B253B8222A3224001011AF3
:10058000A32AC009A32A822AC011E0194222C53237
:100590008111E3196111C111E219011A432280018D
:1005A000C32AA222C3222112463BE111421A433B35
:1005B000022B211AE219E319C211221A6122A22A7E
:1005C0006122243B8001021A2322A109632A8009A7
:1005D0004222011A053BA3324222A009021A8111CC
:1005E000611120090222011A0533A322C009431A0E
:1005F0000112E1110333433B4122211AE5328322E8
:100600002212C3224433C222032B20120112E11111
:10061000C432A32A6322E219600943224222211A2A
:100620004122A32A6009600123224222C432C1115F
:10063000A32AC011C011C32A211AA32AA22A8222E6
:10064000201AE1192222011A4222211AC009832A02
:10065000411AA222A2220433611AA011031AA21184
:10066000000161118211C321A2190322C219622261
:10067000E0116322011A63228009A009C432211A01
:10068000C011632A80110222A111232AA111C111D4
:10069000A42AC1118111A32AE1194222810960090A
:1006A000810923226322011A62224222211A611A3D
:1006B000C11143222222011AC011E211C432A32225
:1006C0006222E011C42A221A400922224322E111A7
:1006D00083226009A009A42A263B6009A111A01168
:1006E0008009A42AE1196009811140090322E21955
:1006F000632A20098322621A4222C43262226122C2
:10070000E32A601A2012A009832A4543222260119D
:10071000622A81220333443BE009A22A011A4322C0
:10072000221AE532021A8111E111C111021AC01117
:10073000221AE1112001C532A32A0112E011221A66
:10074000A32A211AE111021AE43241224122E011C6
:1007500080090433E432822262220001E111622224
:10076000011A832AA32AA011E0194222C53A60097E
:10077000E219600980112222E111421AA009E42A3B
:10078000A222621A411A253BE11142222333C122DF
:10079000011AC111041AC2112222412261228122AE
:1007A00004336001C111642AA1114222400942228E
:1007B000622AC432A432A011E119E211A111400948
:1007C00020090222E119253B6322A001431AE1110D
:1007D000E1110333233B411A211A0533832201120D
:1007E000C32A2433811A2333411A0112A111632A27
:1007F000A3326322C111C211021A2222001A41221D
:10080000A32AA0116009021A4222C432A111A33204
:10081000C011C011A32A001AA32AC32A8222011AD6
:10082000011A021AC011021A211A8001211A622229
:100830008222C32AE32A811AA1112322C3190001AB
:1008400082118219C219C219E321A2196322A009D7
:10085000422263224322400160094222832A800906
:10086000632AC119C119E21923226009C211842A1D
:1008700080098109832AC011222281098109600926
:10088000031A4222011A42226222411A6222221AC9
:100890006322011AE111221A4322832AC43201126F
:1008A000E1116322A009600903220322021AE2195E
:1008B00080094001642AC63A8011A111400920092B
:1008C000842A810980096009A1112322C1112322F0
:1008D0000001A432221A011AA32A411A8222A2225A
:1008E00082220012C0096222253B4122A01162220D
:1008F000611AA222443BA00182224222C111C111ED
:10090000A43222226009E219C11943228109A111EE
:10091000021A2001842AC532221A021A800963228F
:100920002222C111231AE432E119211AC01121092E
:10093000E4326322832A221A0001A109642AA01149
:10094000E119A432C111E119C111021AE219C2114F
:100950008009A111C1114222E211C009A32A622219
:100960008222611AC32A00126122E332411AE01185
:10097000E111E111E1196322E11142226222E43224
:10098000A009C011632A6009E1198009021A632ACB
:10099000C432422260098009C111021A20014009B3
:1009A000021A2322832A4222E111E111C011E0112F
:1009B000822AC32A211A832A8222411A2012E33270
:1009C00003338122E33262220112E1114222832A9F
:1009D0002222C111E119021AE11922222222C43273
:1009E000011A0001011A832A832AC1116222A00977
:1009F000E0118222011A822A62226222211AE1195E
:100A0000C111021AE111221AE111A0096322011297
:100A1000211A83226322A111E219A2110001A2115D
:100A2000C219A211410903228111021AC111E2194E
:100A3000021A021AA0116009021A632AC111E119EF
:100A40004322E119C11102226009E319442A400935
:100A5000A219032280110322A11100012001E21931
:100A6000632A411A211A0012211A6122221A222213
:100A7000E219C111021A422243224322C111021A71
:100A8000E11140016009E319A21103226109610922
:100A90002009E321442A2009811161112009642AD7
:100AA000600960096009E2190322C219A111E0007E
:100AB000642AE219E1196222011A62226222622288
:100AC000C011A009221AC4324222C011622221128E
:100AD00082222433C009421A4222A0118011642AC2
:100AE000E2212009E221C111432281098111022260
:100AF0000001642AE63AE219C1118009642A021A47
:100B000080090322642AC111C11180114109842A7C
:100B1000021A642AE21900016109642A8111A219EA
:100B20008532C219E2198111E219E219A11181116C
:100B3000800960094322A111E219832A222242225C
:100B400062226222011A4122C432221AC011E1112A
:100B5000C011E119011AE1116322832A832AA0112D
:100B600080094322A111E119A111C119A432A532B2
:100B7000C11960098009A111021A00016109C21995
:100B8000642A432A4322A011C1118009C019832A73
:100B9000822AE111832A421A011A0012C332C32A9F
:100BA000411AA32A211AC011C0114322842A022209
:100BB000A011A111E119E2192222E219A432222284
:100BC0002001C11163226322C11142228009C01198
:100BD0004222E1114222221A4222021AE111C111DB
:100BE000021AC111021A021A6009021AC111C211B5
:100BF000432244228111A111A11100018111A211EE
:100C0000A211610903228111E2198111C219E219AD
:100C10000222C1116009E2192322C1198111222285
:100C2000021AC111C2196111A319E321000182192D
:100C3000E3216111E3218111C0000009A2196222A0
:100C4000411A0012E0110012411A021A2322E2197D
:100C5000C2190322031A2322E219C111442A811165
:100C600000016111E321410904224109611161116F
:100C7000E32104222009611161118111442A4009F4
:100C80002009600903220322E321410900012322F4
:100C9000C219021A4322021A432243226322A011DC
:100CA000A009021A842A6322E1196322E011832237
:100CB0000533E111021AE11980118111242AC219A8
:100CC0002009A219C219232281118111E2212001D8
:100CD000442AE642C2198111A1196432E221600955
:100CE00023222322C219A1116011A119442AA1199A
:100CF0008532C21920096111442A8111A219652A7D
:100D0000C219C21981110322C3196111A21160090C
:100D10006009442A81114322842A2222011A832A4B
:100D20002122011A2222842A021AC111C119C111D9
:100D3000E119A111E219642AA5322222C111A111DF
:100D400023220322A111A119C219E63A85326011AA
:100D500060118111A119E321C0006111C219A632ED
:100D6000232223228111E2198011C119A432632A9E
:100D7000E11963222222011A011AA32A832A011AE5
:100D8000632A021AA009A111442A85320322801184
:100D90008111C219E2210222C219642A232A4009C0
:100DA000A1114322432AC11122228011C111232201
:100DB000E119432202222222021AC119A111021AA8
:100DC000C219021AE2196009E219C219E219442A89
:100DD000642A811161118211000961116211A21945
:100DE000A219E3218211C3194111C219032203225E
:100DF000C1196009A1190322E2198111E2212322FC
:100E0000C219A11961118219A219E0008219E32106
:100E10004111C3216111C000000982192222221A46
:100E2000011AE119011A222200000000000000004E
:100E300000000000000000000000000000000000B2
:100E4000000000000000284A1F357F3D4852000086
:100E50000000000000000000000000000000000092
:100E60000000000000000000000000000000000082
:100E70000000000000000000000000000000000072
:100E800000000000000000000000C1203E453C14AE
:100E90003C147F4D4752000000000000000000009D
:100EA0000000000000000000000000000000000042
:100EB0000000000000000000000000000000000032
:100EC0000000000000000000000000000000A12061
:100ED0007F7E3C0C5C1C5C1C1C0CFF6D0008000041
:100EE0000000000000000000000000000000000002
:100EF00000000000000000000000000000000000F2
:100F000000000000000000000000000000000000E1
:100F100000000000F9643D0C5C1C5C1C5C1C5C1C4B
:100F20003D0CF9640000000000000000000000001B
:100F300000000000000000000000000000000000B1
:100F400000000000000000000000000000000000A1
:100F5000000000000000000813647E145C1C5C1C90
:100F60005C1C5C1C5C1C5C1C5E0CD57C00080000DE
:100F70000000000000000000000000000000000071
:100F80000000000000000000000000000000000061
:100F9000000000000000000000000000F073BF1C13
:100FA0005C1C5C1C5C1C5C1C5C1C5C1C5C1C5C1C81
:100FB000BF1C0C5B000000000000000000000000EF
:100FC0000000000000000000000000000000000021
:100FD0000000000000000000000000000000000011
:100FE000A1203F353C1C5C1C5C1C5C1C5C1C5C1C1C
:100FF0005C1C5C1C5C1C3C1C5F3D811800000000FC
:1010000000000000000000000000000000000000E0
:1010100000000000000000000000000000000000D0
:10102000000000000000FF653C145C1C5C1C5C1CA4
:101030005C1C5C1C5C1C5C1C5C1C5C1C5C1C3C1418
:10104000BE65000800000000000000000000000075
:101050000000000000000000000000000000000090
:1010600000000000000000000000B66C3D0C5C1C9D
:101070005C1C5C1C5C1C5C1C5C1C5C1C5C1C5C1CB0
:101080005C1C5C1C5C1C5E14355C000000000000F5
:101090000000000000000000000000000000000050
:1010A0000000000000000000000000000000F07BD5
:1010B0009F145C1C5C1C5C1C5C1C5C1C5C1C5C1C35
:1010C0005C1C5C1C5C1C5C1C5C1C5C1C5C1C9F1C1D
:1010D000107C000000000000000000000000000084
:1010E0000000000000000000000000000000000000
:1010F0000000685A7F4D3C145C1C5C1C5C1C5C1C32
:101100005C1C5C1C5C1C5C1C5C1C5C1C5C1C5C1C1F
:101110005C1C5C1C3C147F4D8441000000000000FE
:1011200000000000000000000000000000000000BF
:101130000000000000000000196D3D0C5C1C5C1CF0
:101140005C1C5C1C5C1C5C1C5C1C5C1C5C1C5C1CDF
:101150005C1C5C1C5C1C5C1C5C1C5C1C3D0C1975E8
:101160000008000000000000000000000000000077
:101170000000000000000000000000008D6B7E14E5
:101180005C1C5C1C5C1C5C1C5C1C5C1C5C1C5C1C9F
:101190005C1C5C1C5C1C5C1C5C1C5C1C5C1C5C1C8F
:1011A0005C1C5C1C9E142C6300000000000000000E
:1011B000000000000000000000000000000000002F
:1011C00000003D4D5C145C1C5C1C5C1C5C1C5C1CCD
:1011D0005C1C5C1C5C1C5C1C5C1C5C1C5C1C5C1C4F
:1011E0005C1C5C1C5C1C5C1C5C1C5C1C1D4D0000C5
:1011F00000000000000000000000000000000000EF
:1012000000000000000016855D0C5C1C5C1C5C1C72
:101210005C1C5C1C5C1C5C1C5C1C5C1C5C1C5C1C0E
:101220005C1C5C1C5C1C5C1C5C1C5C1C5C1C5C1CFE
:101230005C1C3D0CFAA5000000000000000000004E
:1012400000000000000000000000C220DE345C1C32
:101250005C1C5C1C5C1C5C1C5C1C5C1C5C1C5C1CCE
:101260005C1C5C1C5C1C5C1C5C1C5C1C5C1C5C1CBE
:101270005C1C5C1C5C1C5C1C5C1C7C24064A000026
:10128000000000000000000000000000000000005E
:10129000B6745D0C5C1C5C1C5C1C5C1C5C1C5C1CEB
:1012A0005C1C5C1C5C1C5C1C5C1C5C1C5C1C5C1C7E
:1012B0005C1C5C1C5C1C5C1C5C1C5C1C5C1C5C1C6E
:1012C0005D14D35300000000000000000000000087
:1012D0000000000081181E355C1C5C1C5C1C5C1C42
:1012E0005C1C5C1C5C1C5C1C5C1C5C1C5C1C5C1C3E
:1012F0005C1C5C1C5C1C5C1C5C1C5C1C5C1C5C1C2E
:101300005C1C5C1C5C1C3C1C7F452329000000000D
:101310000000000000000000000014645D145C1C6C
:101320005C1C5C1C5C1C5C1C5C1C5C1C5C1C5C1CFD
:101330005C1C5C1C5C1C5C1C5C1C5C1C5C1C5C1CED
:101340005C1C5C1C5C1C5C1C5C1C5C1C5C1C3D0C0C
:10135000D674000000000000000000000000886259
:101360001E3D3C1C5C1C5C1C5C1C5C1C5C1C5C1CFA
:101370005C1C5C1C5C1C5C1C5C1C5C1C5C1C5C1CAD
:101380005C1C5C1C5C1C5C1C5C1C5C1C5C1C5C1C9D
:101390005C1C5C1C5C1CFD3CC5490000000000009E
:1013A00000000000CC4A9E1C5C1C5C1C5C1C5C1C8D
:1013B0005C1C5C1C5C1C5C1C5C1C5C1C5C1C5C1C6D
:1013C0005C1C5C1C5C1C5C1C5C1C5C1C5C1C5C1C5D
:1013D0005C1C5C1C5C1C5C1C5C1C5C1C9E14EC4A55
:1013E000000000000000000000009C6D3C145C1C2C
:1013F0005C1C5C1C5C1C5C1C5C1C5C1C5C1C5C1C2D
:101400005C1C5C1C5C1C5C1C5C1C5C1C3C1C1C1484
:101410005C1C5C1C5C1C5C1C5C1C5C1C5C1C5C1C0C
:101420005C1C3D143B650000000000000000032927
:10143000DF2C5C1C5C1C5C1C5C1C5C1C5C1C5C1C59
:101440005C1CFC0B1C14FC0B3C145C1C5C1C5C1C2E
:101450005C1C5C1CBD755C1C5C1C5C1C5C1C5C1C12
:101460005C1C5C1C5C1C5C1C3C1C1F35E6410000C9
:10147000000000008C3A9E145C1C5C1C5C1C5C1C14
:101480005C1C5C1C5C1CDC037EA6FFFFFFFF1C4D8C
:101490001C145C1C5C1CFC03BEAE9FE7FC0B5C1CBC
:1014A0005C1C5C1C5C1C5C1C5C1C5C1C5C1C5C1C7C
:1014B0007E144B3A00000000000094337D1C5C1C3D
:1014C0005C1C5C1C5C1C5C1C5C1C3C14FC4CFFFF2E
:1014D0007FDFFFFFFFFF1C145C1C3C1C3C1CFFFF5C
:1014E0007C2C3C1C5C1C5C1C5C1C5C1C5C1C5C1C2C
:1014F0005C1C5C1C5C1C5D14775400000000E2283E
:101500001D455C1C5C1C5C1C5C1C5C1C5C1C5C1C31
:101510001C0C3E96FFFF9B035C24FFFFDC3C3C144D
:10152000DC03DEBE1EC7FC035C1C5C1C5C1C5C1C7C
:101530005C1C5C1C5C1C5C1C5C1C5C1C5C1C1D4501
:10154000C22000000329FF2C5C1C5C1C5C1C5C1C82
:101550005C1C5C1C5C1C1C0C5E96DFF79B035C1C1B
:10156000FFFFDC3C3C143C1CFFFF7C243C1C5C1C4F
:101570005C1C5C1C5C1C5C1C5C1C5C1C5C1C5C1CAB
:101580005C1C5C1CDE2CC220000065299E1C5C1CBF
:101590005C1C5C1C5C1C5C1C5C1C5C1C3C143D5599
:1015A000FFFFFEC6BFEFFFFF1C14DC03FEC6FEC636
:1015B000FC035C1C5C1C5C1C5C1C5C1C5C1C5C1CE4
:1015C0005C1C5C1C5C1C5C1C5C1CBE1C652900005B
:1015D000C829BF1C5C1C5C1C5C1C5C1C5C1C5C1C6F
:1015E0005C1C5C1CFC03DEB6FFFFFFFF5D5DFC0BBB
:1015F0007C24FFFF5C1C3C1C3C1C3C145C1C5C1CE5
:101600005C1C5C1C5C1C5C1C5C1C5C1C5C1C5C1C1A
:10161000BF1CC82900006719BF1C5C1C5C1C5C1C3B
:101620005C1C5C1C5C1C5C1C5C1C5C1CFC035C1C73
:101630003C141C0CFC031ECFDEBEFC03FC039C34DC
:10164000BC3CFC035C1C5C1C5C1C5C1C5C1C5C1CD3
:101650005C1C5C1C5C1CBF1C681900006711BF1C73
:101660005C1C5C1C5C1C5C1C5C1C5C1C5C1C5C1CBA
:101670005C1C5C1C3C1C5C1C3C149C2CFFFF3C1C3C
:10168000FC033E96FFFFFFFF3ED7FC0B5C1C5C1C7F
:101690005C1C5C1C5C1C5C1C5C1C5C1CBF2468111E
:1016A00000008821BF1C5C1C5C1C5C1C5C1C5C1C5E
:1016B0005C1C5C1C5C1C5C1C5C1C5C1C5C1CDC0303
:1016C0005FD7BEB6DC033C14FFFF1ECF7EA6FFFF34
:1016D0005D5D3C145C1C5C1C5C1C5C1C5C1C5C1C30
:1016E0005C1CBF1C882100002842BF1C5C1C5C1CC9
:1016F0005C1C5C1C5C1C5C1C5C1C5C1C5C1C5C1C2A
:101700005C1C3C14BC3CFFFF3C143C14FC4CFFFF35
:10171000FC0B9B03DFF75E9E1C0C5C1C5C1C5C1CC2
:101720005C1C5C1C5C1C5C1CDF24083A0000000094
:10173000DF2C5C1C5C1C5C1C5C1C5C1C5C1C5C1C56
:101740005C1C5C1C5C1C5C1CDC037FDF7EA6FC0359
:101750003C14BC44FFFF7C2CBB03FFFF1E8E1C0C03
:101760005C1C5C1C5C1C5C1C5C1C5C1C5C1CDE2C27
:10177000E3200000A120BC3C5C1C5C1C5C1C5C1CCD
:101780005C1C5C1C5C1C5C1C5C1C5C1C3C14DC3C21
:10179000FFFF3C143C1C5C1CFC03FFFFFFFFFFFF32
:1017A000FFFFBC343C145C1C5C1C5C1C5C1C5C1CA3
:1017B0005C1C5C1CBB3C81180000000096645D143E
:1017C0005C1C5C1C5C1C5C1C5C1C5C1C5C1C5C1C59
:1017D0005C1CFC0BFFFF7E9EFC035C1C5C1C3C1431
:1017E000BC349FEFDFFF7D651C0C5C1C5C1C5C1C2B
:1017F0005C1C5C1C5C1C5C1C3D0CB66C000000009E
:10180000000044291F2D5C1C5C1C5C1C5C1C5C1CC7
:101810005C1C5C1C5C1C5C1C5C1C1C553C145C1C37
:101820005C1C5C1C5C1C3C14FC03FC031C145C1C5A
:101830005C1C5C1C5C1C5C1C5C1C5C1C3C1C5F35EC
:10184000C220000000000000000094335D145C1C06
:101850005C1C5C1C5C1C5C1C5C1C5C1C5C1C5C1CC8
:101860003C145C1C5C1C5C1C5C1C5C1C5C1C5C1CE0
:101870005C1C5C1C5C1C5C1C5C1C5C1C5C1C5C1CA8
:101880005C1C5D14943300000000000000000000A8
:10189000A5391F353C1C5C1C5C1C5C1C5C1C5C1C66
:1018A0005C1C5C1C5C1C5C1C5C1C5C1C5C1C5C1C78
:1018B0005C1C5C1C5C1C5C1C5C1C5C1C5C1C5C1C68
:1018C0005C1C5C1C5C1C3C1C5F3585390000000006
:1018D0000000000000000000D1639E145C1C5C1C32
:1018E0005C1C5C1C5C1C5C1C5C1C5C1C5C1C5C1C38
:1018F0005C1C5C1C5C1C5C1C5C1C5C1C5C1C5C1C28
:101900005C1C5C1C5C1C5C1C5C1C5C1C9F14AC4266
:10191000000000000000000000000000000081182E
:101920001B9E1D045C1C5C1C5C1C5C1C5C1C5C1C0D
:101930005C1C5C1C5C1C5C1C5C1C5C1C5C1C5C1CE7
:101940005C1C5C1C5C1C5C1C5C1C5C1C5C1C5C1CD7
:101950001D043CA600000000000000000000000084
:101960000000000000002331D67C7E143C145C1C77
:101970005C1C5C1C5C1C5C1C5C1C5C1C5C1C5C1CA7
:101980005C1C5C1C5C1C5C1C5C1C5C1C5C1C5C1C97
:101990005C1C3C1C7E149DB68539000000000000D4
:1019A0000000000000000000000000000000000037
:1019B000107C9F453D0C3C1C5C1C5C1C5C1C5C1C36
:1019C0005C1C5C1C5C1C5C1C5C1C5C1C5C1C5C1C57
:1019D0005C1C5C1C3C1C5D141F3DCF7300000000B0
:1019E00000000000000000000000000000000000F7
:1019F0000000000000000000A96A597D7F3D3D0CF9
:101A00005D1C3C1C5C1C5C1C5C1C5C1C5C1C5C1C35
:101A10005C1C5C1C3C1C5D1C5E0C3F35145C802017
:101A200000000000000000000000000000000000B6
:101A300000000000000000000000000000000000A6
:101A40000000E2285374F82B3F35DF1C3D0C5D1479
:101A50007E1C9E1C5D143D0CDF1C5F3DBA4C6F5319
:101A6000A541000000000000000000000000000090
:101A70000000000000000000000000000000000066
:101A80000000000000000000000000000000C22074
:101A90000421F584956C2D1A4E1AB253937CC31809
:101AA000A541000000000000000000000000000050
:101AB0000000000000000000000000000000000026
:101AC0000000000000000000000000000000000016
:101AD0000000000000000000000000000000000006
:101AE00000000000000000000000000000000000F6
:101AF00000000000000000000000000000000000E6
:101B000000000000000000000000000000000000D5
:101B10000000285A86F900F800F800F800F845F9A6
:101B20008A7A0000000000000000000000000000B1
:101B300000000000000000000000000000000000A5
:101B40000C8300F800F800F800F800F800F800F83E
:101B500000F8EB9A00000000000000000000000008
:101B60000000000000000000000000000000451917
:101B7000C3F800F800F800F84DFB8EFB20F800F8E1
:101B800000F861F8242100000000000000000000BF
:101B90000000000000000000000000000000248998
:101BA00000F800F882F8FFFFFFFFFFFFFFFF45F995
:101BB00000F800F865B90000000000000000000017
:101BC0000000000000000000000000000000E7F13D
:101BD00000F800F8F7FDFFFFFFFFFFFFFFFF5DFFCD
:101BE00000F800F865F96100000000000000000046
:101BF000000000000000000000000000000024E9D8
