:020000040800F2
:100000001005002045010008F51E0008411D0008EC
:10001000F11E000849080008A123000800000000A4
:10002000000000000000000000000000A9200008FF
:100030004D08000800000000251F0008DD20000812
:100040005F0100085F0100085F0100085F01000810
:100050005F0100085F0100085F0100085F01000800
:100060005F0100085F0100085F0100085F010008F0
:100070005F0100085F0100085F0100085F010008E0
:100080005F0100085F0100085F0100085F010008D0
:100090005F0100085F0100085F0100085F010008C0
:1000A0005F0100085F0100085F0100085F010008B0
:1000B0005F0100085F0100085F0100085F010008A0
:1000C0005F0100085F0100085F0100085F01000890
:1000D0005F010008912300085F0100085F0100082C
:1000E0005F0100085F0100085F0100085F01000870
:1000F0005F0100085F0100085F0100085F01000860
:100100005F0100085F0100085F0100085F0100084F
:100110005F0100085F0100085F0100085F0100083F
:100120005F0100085F0100085F0100085F0100082F
:10013000DFF80CD000F0E8FA004800474927000833
:10014000100500200648804706480047FEE7FEE706
:10015000FEE7FEE7FEE7FEE7FEE7FEE7FEE7FEE777
:100160003D21000831010008D2B201E000F8012B66
:10017000491EFBD270470022F6E710B513460A4627
:1001800004461946FFF7F0FF204610BD80EA010241
:1001900010B502F00043400022D04A001FD0010EEB
:1001A00001EB1261C0F35600C2F3560240F40000A6
:1001B00042F40002A0FB022000047F39140400D0A6
:1001C000401C50EA124001D44000491EC2B20C0645
:1001D00004EBD010401C4008802A02D003E000202D
:1001E00010BD20F00100002900DA0020184310BDE6
:1001F00030B480EA010202F0004530F0004221F004
:10020000004013D090B1C30DD40DC2F31601C0F35A
:100210001600E41A41F4000140F400027D349142DA
:1002200001D3641C00E04900002C02DA30BC00203D
:1002300070474FF400000023914201D3891A034311
:1002400040084FEA4101F7D151B1914202D14FF03C
:10025000004105E002D24FF0010101E06FF0010121
:1002600003EBC450284430BC00F05FB89623002252
:10027000114600F063B800F0004230F000400AD0B0
:10028000C10D01F56071C0F3160042EA0151C208C8
:1002900040071143704700200146704730B50B46B8
:1002A000014600202022012409E021FA02F59D42A6
:1002B00005D303FA02F5491B04FA02F52844151E7A
:1002C000A2F10102F1DC30BD2DE9F05F054600200E
:1002D00092469B4688460646814640241BE02846B7
:1002E00041464746224600F030FA53465A46C01A65
:1002F000914110D311461846224600F017FA2D1AE4
:1003000067EB01084F4622460120002100F00EFA5B
:1003100017EB00094E41201EA4F10104DFDC484622
:1003200031462A464346BDE8F09F0029A8BF7047E2
:10033000401C490008BF20F00100704710B4B0FA1B
:1003400080FC00FA0CF050EA010404BF10BC7047B6
:1003500049B1CCF1200421FA04F411FA0CF118BFD0
:10036000012121430843A3EB0C01CB1D4FEA00619F
:100370004FEA102042BF002010BC704700EBC35072
:1003800010440029A4BF10BC7047401C490008BF9E
:1003900020F0010010BC70472DE9FE4F804681EA35
:1003A0000300C00F0C46009021F0004123F00045EF
:1003B000B8EB0200A94105D24046214690461C46B2
:1003C0000B46024623F00040104347D0270DC7F3E9
:1003D0000A00C3F30A510290401A019040286BDAD8
:1003E000C3F3130040F4801B0098924620B1002311
:1003F000D2EB030A63EB0B0B01985946C0F14002A4
:10040000504600F093F906460D4650465946019A6B
:1004100000F0ABF910EB08006141002487EA1152AB
:1004200084EAE7731A4340D0009A62B3019A012A22
:100430004FEA075215DC001B61EB02014FF000424E
:1004400002EA0752CDE90042001C41F58011324614
:100450002B4600F0ABF903B0BDE8F08F40462146D3
:10046000F9E7001B61EB0201001C41F58013001845
:100470005B412018A2F5001747EB030140EAD57055
:10048000B6196D4111E06D084FEA360645EAC075B0
:100490004FEA0752001B61EB0201001C41F580117D
:1004A00049084FEA30000019514132462B4603B04B
:1004B000BDE8F04F00F06BB9009801224000002326
:1004C000D0EB020263EBE073009821464FEAE07440
:1004D000B8EB000061EB0401E9E783F000435BE760
:1004E00081F0004158E72DE9FE4F81EA030404F052
:1004F000004421F0004100944FF0000B23F0004332
:1005000050EA01045ED052EA03045BD0C3F30A54FC
:10051000C1F30A552C44A4F2F3340194A0FB025415
:10052000C1F3130141F48011C3F3130343F48013A7
:1005300001FB024400FB034E840A970A44EA8154FB
:1005400047EA8357A4FB076802958D0A05FB0785D8
:100550004FEA932C04FB0C542705029D4FEA0658E2
:1005600047EA1637B5EB08056EEB070C870E920EBF
:1005700047EA811742EA8312A7FB0201B6EB0B019F
:1005800064EB00042B0D43EA0C335E1844EB1C5063
:10059000DA465146E7FB0201C5F313044FEA0B3379
:1005A00043EA14534FEA0432019C43EA0603A4F1E0
:1005B0000C040294009CCDE900B400F0F7F803B0FD
:1005C000BDE8F08F00200146F9E72DE9F04D81EA02
:1005D000030404F0004B21F0004514464FF0000ADC
:1005E00023F0004150EA050220D054EA01021DD058
:1005F000C5F30A570246C5F31303C1F31300C1F351
:100600000A5640F4801543F48013A7EB0608101B2C
:10061000D64608F2FD3873EB050002D308F1010855
:1006200001E092185B41B8F1000F03DA00200146A7
:10063000BDE8F08D00204FF48011064684460EE0A0
:10064000171B73EB050705D3121B63EB050306436A
:100650004CEA010C49084FEA300092185B4150EA1D
:100660000107EDD152EA030012D082EA040083EAC6
:100670000501084305D0101BAB4106D2012200231F
:1006800006E000224FF0004302E06FF00102531039
:100690001AEB06004CEB085110EB0A0041EB0B0182
:1006A000BDE8F04D00F073B8C1F30A52C1F3130175
:1006B00040F2FF3341F480119A4202DA00200146F1
:1006C000704740F233439A42A2F2334202DC524274
:1006D00000F03BB800F02AB830B5041E71F10004F8
:1006E00004DB4FF00044404264EB0101141E73F13F
:1006F000000405DB1C464FF00043524263EB040349
:10070000994208BF904230BD064C074D06E0E068B4
:1007100040F0010394E8070098471034AC42F6D348
:10072000FFF70AFDB4300008D4300008202A04DBAB
:10073000203A00FA02F1002070479140C2F12003F4
:1007400020FA03F3194390407047202A04DB203A33
:1007500021FA02F00021704721FA02F3D040C2F1E1
:1007600020029140084319467047202A06DBCB1728
:10077000203A41FA02F043EAE07306E041FA02F35C
:10078000D040C2F12002914008431946704710B58D
:10079000141E73F1000408DA401C41F100019218A4
:1007A0005B411A4301D120F0010010BD2DE9F04D4D
:1007B00092469B4611B1B1FA81F202E0B0FA80F2A2
:1007C00020329046FFF7B2FF04460F4640EA0A0087
:1007D00041EA0B0153465A46084313D0114653EAE7
:1007E000010019D0C8F140025046FFF7AEFF0546A0
:1007F0000E46504659464246FFF798FF084305D03B
:10080000012004E020463946BDE8F08D0020054374
:1008100046EAE0762C4337430A986305E40AA0EBE6
:1008200008000022FD0A44EA47540A3002D500209D
:100830000146E9E7010510196941DDE9084500199C
:100840006941BDE8F04DA2E7FEE7000070470000F7
:100850007047000010B54379012B4FF002031DD003
:100860000371036802F0100ED3F800C0D1E9004113
:1008700040F6FE7202FA0EF221432CEA020201FA5D
:100880000EF111431960C0211A6801FA0EF122EA33
:10089000010119600121002301714371184610BD47
:1008A000002804BF0120704710B50446007920B924
:1008B00000206071204600F007F80220207100201F
:1008C00001212061217110BD80B586B0016847F219
:1008D0000040C4F2000081424FF00001CDE9041154
:1008E000CDE9021101D006B080BD41F21801C4F279
:1008F00002014A6800F5144042F000524A604A681A
:1009000002F000520192019A0A6842F004020A6061
:10091000096801F00401019101992021029103214C
:10092000039102A900F0F4F806B080BD10B5427939
:10093000012A4FF0020226D04FF0010C80F805C0CA
:100940000271026801F0100E14680CFA0EF32343D2
:100950001360D2F800C051B13C230CF4701103FABB
:100960000EF399420BD1516841F0020106E00CF000
:100970003C013C2903D1516841F001015160012142
:10098000002201714271104610BD0000014690F82E
:100990002100022813D10868D1E90FC3026822F0B0
:1009A0000E020260026822F001020260012000FAD9
:1009B00003F2CCF8042081F82100002002E004209A
:1009C00088630120002281F82020704780B590F8CC
:1009D0002110022927D1026840F2040C1368C4F2E6
:1009E000020C23F00E03136013680CF17C018A42A1
:1009F00023F0010111601AD940F20841C4F202014A
:100A00008A4247D040F21C41C4F202018A4245D0DA
:100A100040F23041C4F202018A4243D14FF4807364
:100A2000CCF8003457E004218163012080BD4321CC
:100A3000C4F202018A420EDD6B21C4F202018A4235
:100A40001BDC4421C4F202018A4239D05821C4F28D
:100A500002018A4231E00821C4F202018A4232D006
:100A60001C21C4F202018A4232D03021C4F20201B8
:100A70008A4222D14FF480722BE06C21C4F2020131
:100A80008A4222D08021C4F202018A4215D14FF05D
:100A900080721EE00123CCF800341CE01023CCF857
:100AA000003418E00CF588614FF480338A4208BFA7
:100AB0004FF48053CCF800340DE04FF4803208E05E
:100AC0004FF4805205E0012203E04FF4801200E071
:100AD0001022CCF80020416B4FF48072028401B1E7
:100AE0008847002080BD0000B0B5044600F010F932
:100AF000054640F20800C2F200000078611C18BFF1
:100B0000044400BF00F004F9401BA042FAD3B0BD7A
:100B10002DE9F04F83B00C68002C00F0EA80A0F1C2
:100B20008042A2F5843240F2004E4FEAB22241F6F2
:100B30000047C4F2010E0092C4F20107062200250C
:100B40004FF001094FF0000B4FF0000AB84208BF08
:100B50000522019209E000BF0C680BF1010B34FA89
:100B60000BF205F1040500F0C48009FA0BF814EA51
:100B7000080CF1D04C684FF6FF72C1F2100294429B
:100B800010DC122C50D8DFE804F0330A41454F4FF7
:100B90004F4F4F4F4F4F4F4F4F4F4F484C00D1F893
:100BA0000CA041E04FF6FF72C1F2210294420FDC2B
:100BB0000022C1F2110294421AD00022C1F21202A4
:100BC000944215D00022C1F22102944210D02BE0B1
:100BD0000022C1F2220294420AD00022C1F2310264
:100BE000944205D00022C1F2320294421CD100BFCF
:100BF0008C6844B1012C14BFC0F81480C0F8108078
:100C00004FF0080A10E04FF0040A0DE0CC6804F140
:100C1000080A09E04FF0000A06E0CC6804F1040A73
:100C200002E0CC6804F10C0A2C460746BCF5807F34
:100C300024BF203C04373A680F2303FA04F6B2437A
:100C40000AFA04F422433A60CA79D2067FF584AFE7
:100C500041F21804C4F2020422684FF6084842F038
:100C6000010222602268CFF6FF7802F001020292B0
:100C7000029A2BF00302724452F8084005F00C0669
:100C800003FA06F7009BBC43019F052B38BF1F46A4
:100C900007FA06F6344342F808404C68E203DEF8EF
:100CA000002054BF22EA0C0742EA0C07A203CEF848
:100CB0000070DEF8042054BF22EA0C0742EA0C0759
:100CC000E202CEF80470DEF8082054BF22EA0C07D6
:100CD00042EA0C07A20240F20C44CEF80870C4F2BB
:100CE0000104226854BF22EA0C0242EA0C0222608C
:100CF00032E703B0BDE8F08F8068084018BF0120DC
:100D000070470000002A08BF090401617047000015
:100D100040F20C10C2F200000068704740F2080078
:100D200040F20C11C2F20000C2F2000100780A6821
:100D3000104408607047000080B542F20000C4F221
:100D40000200016841F010010160032000F066F824
:100D5000002000F005F800F02BF8002080BD000016
:100D6000B0B540F20802C2F2000240F2040112786B
:100D7000C2F200014FF47A730968B3FBF2F2044641
:100D8000B1FBF2F1084600F0D3FD0F2C4FF0010546
:100D90000CD858B94FF0FF3021460022002500F052
:100DA0002DF840F20C00C2F2000004602846B0BDED
:100DB00082B041F21800C4F202000168022241F040
:100DC00001010160016801F001010191019941688F
:100DD00041F080514160406800F0805000900098E0
:100DE0000420C4F20100016862F31A61016002B0DC
:100DF0007047000080B501F0D5FA80BD70B514468B
:100E00000D46064601F0DEFA2946224601F074F846
:100E10000146304601F0DEFA70BD000080B501F0F9
:100E2000EBFA80BD2DE9F04381B0002800F0898005
:100E300042F20008C4F202080446D8F800000D4649
:100E400000F0070088420CD2D8F8000020F007001C
:100E50002843C8F80000D8F8000000F00700A842B6
:100E60006FD1206841F204098107C4F2020917D545
:100E7000410705D5D9F8001041F4E061C9F8001028
:100E8000010705D5D9F8001041F46051C9F80010E8
:100E9000D9F80010A26821F0F0011143C9F8001040
:100EA000C00745D1D8F8000000F00700A8420CD9CF
:100EB000D8F8000020F007002843C8F80000D8F850
:100EC000000000F00700A8423BD12068410707D589
:100ED000D9F80010E26821F4E0611143C9F800106C
:100EE000000708D5D9F80000216920F4605040EAD5
:100EF000C100C9F8000000F079F8D9F8001043F2F9
:100F00009A02C1F30311C0F60002515C40F20402E0
:100F100020FA01F140F20C00C2F200000068C2F2B7
:100F200000021160FFF71CFF002001B0BDE8F08354
:100F30006068022809D0012829D159F8041C8903C6
:100F400007D4012001B0BDE8F08359F8041C8901E1
:100F5000F7D5D9F8001021F003010843C9F80000C3
:100F6000FFF7D6FE064641F2883700BFD9F80000E9
:100F7000616800F00C00B0EB810F93D0FFF7C8FE62
:100F8000801BB842F2D9032001B0BDE8F08359F8C4
:100F9000041C8907D5D5DCE740F20400C2F200004A
:100FA0000068704780B5FFF7F7FF41F20401C4F213
:100FB0000201096843F2AA02C1F30221C0F600024D
:100FC000515CC84080BD000080B5FFF7E5FF41F2ED
:100FD0000401C4F20201096843F2AA02C1F3C2216A
:100FE000C0F60002515CC84080BD000041F2040C14
:100FF000C4F2020CDCF8003003F00C00082841F2C7
:101000000020C0F27A0018BF7047C3F383420AA1E0
:101010008A5CD90305D440F60010C0F23D0050436D
:101020007047DCF8001008A3C1F34041595C5043FD
:10103000B0FBF1F0704700BF020304050607080982
:101040000A0B0C0D0E0F1010010200002DE9F041EB
:1010500082B0002800F0C4800446007841F2000607
:10106000C007C4F2020643D0706800F00C000428E8
:1010700017D0706800F00C00082802D17068C00317
:101080000FD465682DB1B5F5A02F10D0B5F5803F10
:1010900011D0306820F480303060306820F4802037
:1010A0000CE03068800323D5606808BB98E03068A6
:1010B00040F480203060306840F480303060FFF7CA
:1010C00027FE002D054610D03068800310D4FFF7AE
:1010D0001FFE401B6428F7D904E100BFFFF718FE8C
:1010E000401B64284FF0030077D830688003F5D4A4
:1010F0002078800718D5706810F00C0F07D0706842
:1011000000F00C00082826D17068C00323D4306892
:10111000800702D52069012862D13068616920F01A
:10112000F80040EAC1003060207800073DD5A06992
:1011300038B30020C4F242200121C0F88014FFF728
:10114000E7FD0546706A80072DD4FFF7E1FD401BDF
:101150000228F7D9C6E02069002840F20000C4F256
:10116000422000F0968001210160FFF7D1FD054685
:1011700030688007D1D4FFF7CBFD401B0228F7D998
:10118000B0E00020C4F242200021C0F88014FFF734
:10119000BFFD0546706A800707D5FFF7B9FD401B04
:1011A0000228F7D99EE000F0BFFE207840071BD44C
:1011B000E5698DB1706800F00C00082847D1012D59
:1011C0000ED07068216A00F480328A4208D1616AC8
:1011D00000F47010884203D1002002B0BDE8F08115
:1011E000012002B0BDE8F081F06910F0805808D10C
:1011F000F06940F08050F061F06900F0805001909B
:10120000019847F20007C4F200073868C00510D4FF
:10121000386840F480703860FFF77AFD054600BFFB
:101220003868C00505D4FFF773FD401B6428F7D963
:1012300058E0E5681DB1052D3CD0012D3ED0306A47
:1012400020F001003062306A20F0040039E000270D
:10125000C4F2422700203866FFF75AFD022D0546EA
:101260000CD100BF3068800154D5FFF751FD401B01
:1012700002284FF00300F5D9AFE700BF30688001C6
:10128000AAD5FFF745FD401B02284FF00300F5D912
:10129000A3E700210160FFF73BFD054630688007AA
:1012A0007FF542AFFFF734FD401B02284FF00300EB
:1012B000F4D992E7306A40F004003062306A40F0BE
:1012C00001003062FFF724FD002D054641F288370A
:1012D00014D000BF306A800713D4FFF719FD401BFC
:1012E000B842F7D9032002B0BDE8F081FFF710FD46
:1012F000401BB8424FF003003FF66FAF306A8007E3
:10130000F4D4B8F1000F7FF453AFF06920F08050AF
:10131000F0614DE7206AB0F5803F05D17168A268A1
:1013200021F40031114371607168626A21F4741113
:1013300010430843706001203866FFF7E9FC04465B
:10134000306880013FF548AFFFF7E2FC001B022840
:101350004FF00300F4D940E770B538B10446406A55
:1013600030B10020206104F1140007E0012070BDBD
:101370006068B0F5827F03D004F11C000021016099
:101380000026A66294F8510020B9204684F85060E7
:1013900000F038F8022084F8510094E8071001F4B6
:1013A0008271036802F4044223F04003036023695E
:1013B00011440CF40062114403F002026369114409
:1013C00003F00102A369E569114403F400721144BA
:1013D00005F03802256A114405F08002A56A114320
:1013E00005F4005211430160042101EA13414160F8
:1013F000C16921F40061C1610120666584F8510072
:10140000304670BD70B586B040F60044C4F20104A9
:101410000068A4F55041002688420596CDE9036690
:10142000029601D006B070BD41F21800C4F202006D
:10143000416802AD41F400414160416801F400415E
:1014400001910199016841F0080101600068294695
:1014500000F00800019001982820029002200390DB
:10146000032005902046FFF753FB1020CDE902062C
:10147000204629460496FFF74BFB06B070BD0000DE
:101480002DE9F04381B0044640681D461746B0F58B
:10149000827F0E4602D1A06800285AD094F85000EE
:1014A000012803D1022001B0BDE8F0834FF001090B
:1014B00084F85090FFF72CFC94F85110012946D184
:1014C0008046002E4FF0010018BF002F77D0042077
:1014D00084F8510000206065A663A787E787206332
:1014E000A086E086A1682064B1F5004F606408D151
:1014F0002068016821F040010160016821F4804109
:10150000016020680168490603D4016841F0400188
:101510000160E168E08F49B3002843D06E1C09E008
:10152000C068A16B21F8020BA163E08F0138E0874E
:10153000E08FB8B320688168C907F1D1FFF7E8FBF5
:10154000002EF5D0A0EB0800A842F1D328E002203D
:1015500035E0042084F851002046314632463B46AF
:10156000009500F0F3F801B0BDE8F083D0B16E1C37
:101570000AE0007BA16B0870A06B0130A063E08FD4
:101580000138E087E08F68B120688168C907F0D131
:10159000FFF7BEFB002EF5D0A0EB0800A842F1D368
:1015A00003200CE020462946424600F0D3FC0028E8
:1015B0001CBF20206065606D002818BF012000213D
:1015C00084F8519084F8501001B0BDE8F083000019
:1015D0002DE9F04381B0044690F85000012803D172
:1015E000022001B0BDE8F0834FF001091D46164608
:1015F0000F4684F85090FFF78BFB94F851100129A7
:101600005DD18046002F4FF0010018BF002E00F082
:101610009580032084F85100002060652763A6862A
:10162000E686A063A087E087A168C4E91000B1F551
:10163000004F08D12068016821F040010160016875
:1016400041F48041016020680168490603D40168C3
:1016500041F0400101606168731EE268B1FA81F1F6
:10166000B3FA83F349095B09B2F5006F41EA03015C
:1016700027D139B1216B0988C160B81C2063E08E85
:101680000138E086E08E002841D06E1C0AE000BFE1
:10169000216B31F8022BC2602163E08E0138E086B5
:1016A000E08EA0B3206881688907F1D4FFF730FB92
:1016B000002EF5D0A0EB0800A842F1D325E00220CF
:1016C0003CE039B139780173206B01302063E08E42
:1016D0000138E086E08ED0B16E1C0AE0216B0978FB
:1016E0000173206B01302063E08E0138E086E08ECC
:1016F00068B1206881688907F0D4FFF709FB002EE4
:10170000F5D0A0EB0800A842F1D3032016E0204654
:101710002946424600F04EFC00281CBF2020606590
:10172000A06838B9002000902068C16800918068E6
:1017300000900098606D002818BF0120002184F8F7
:10174000519084F8501001B0BDE8F0832DE9F043CA
:1017500081B0044690F85000012803D1022001B066
:10176000BDE8F08301201E4615460F4684F8500060
:10177000FFF7CEFA94F85110814601290CD0606829
:10178000B0F5827F76D104294FF0020040F0C68088
:10179000A168002940F0C280002F4FF0010018BF5F
:1017A000002D00F0BB80002E00F0B88094F85100AE
:1017B000002104281CBF052084F851006165A56341
:1017C000E687A6872763E6862068A686216461648B
:1017D0000168490603D4016841F040010160616875
:1017E000731EE268B1FA81F1B3FA83F3DDF8208069
:1017F00049095B09B2F5006F41EA03013CD139B1F7
:10180000216B0988C160B81C2063E08E0138E08636
:10181000012608F1010500BFE08E10B9E08F002815
:1018200066D02068816889070CD5E18E012E09D128
:1018300041B1216B002631F8022BC2602163E18E99
:101840000139E1868168C9070AD0E18F41B1C068DA
:10185000A16B012621F8020BA163E08F0138E0871C
:10186000FFF756FA002DD7D0A0EB09004045D3D39F
:10187000032053E0022051E039B139780173206B25
:1018800001302063E08E0138E086012608F1010571
:10189000E08E08B9E08F58B32068816889070DD5BC
:1018A000E18E012E0AD149B1216B0026097801731E
:1018B000206B01302063E08E0138E086206881686B
:1018C000C9070BD0E18F49B1C068A16B0126087030
:1018D000A06B0130A063E08F0138E087FFF718FAB2
:1018E000002DD5D0A0EB09004045D1D3032015E051
:1018F000204641464A4600F05DFB18B12020606555
:1019000001200BE0A06800284FF0000006D10090F5
:101910002168CA680092896800910099012184F8C1
:101920005110002184F8501001B0BDE8F083000090
:1019300080B500F0BBFB80BD704700007047000021
:10194000B0B582B0016805460868CA684C6900F005
:101950002F03202B02F0200305D123B1284600F0ED
:1019600019FC02B0B0BD5FEA007C1EBF04F0010E9E
:1019700002F4907414EB0E0424D12B6B1040C206B9
:1019800017D5012B15D100200190086801904868F7
:1019900001900198486940061CD4A88DEA8DEB8D12
:1019A000002B1CBF801A5FEA004240F09A8002B010
:1019B000B0BD010636D44006F9D5284600F0DEFB5E
:1019C00002B0B0BDC10718BF12F480712FD141071A
:1019D00033D439E0A86B0268526893B2002BE6D08A
:1019E000AC8DA342E3D2EA858269202A16D0CA6868
:1019F00022F48072CA604A6922F001024A614A698F
:101A000022F040024A61202285F83E2000222A630B
:101A1000CA6822F01002CA60FEF7B8FFA88DE98DEF
:101A2000401A6FE0284600F057FC02B0B0BD296CA8
:101A300041F001012964410706D5BEF1000F03D032
:101A4000296C41F002012964810706D5BEF1000F1F
:101A500003D0296C41F004012964BCF1000F06D5C4
:101A60005EEA030103D0296C41F008012964296C66
:101A700000299CD01040800602D5284600F08AFB41
:101A800028684069296C00F0400001F00801401806
:101A900020D0284600F05CFB28684169490614D52F
:101AA000416921F040014161A86B70B142F24111DE
:101AB000C0F600014163FEF789FF00283FF477AFCD
:101AC000A86B416B884702B0B0BD2846FFF736FFD0
:101AD00002B0B0BD2846FFF731FF0020286402B0F5
:101AE000B0BDCA6822F49072CA604A6922F001024D
:101AF0004A61202285F83E2000222A63CA6822F02B
:101B00001002CA6081B22846FFF716FF02B0B0BDCE
:101B1000002804BF0120704710B5044690F83D002E
:101B200028B9002084F83C00204600F021F8242049
:101B300084F83D002068C16821F40051C16020464E
:101B400000F082FB2068016921F490410161416944
:101B500021F02A014161C16841F40051C1600020B7
:101B60002021206484F83D1084F83E1010BD000050
:101B700070B586B0006844F20041C4F2000100264E
:101B800088420596CDE9036602963FD043F60001F0
:101B9000C4F20101884266D141F21800C4F2020089
:101BA000016840F6000441F4804101600168C4F21C
:101BB000010401F4804101910199016802AD41F0F5
:101BC000040101600068294600F0040001900198BA
:101BD0004FF40070029002200390032005902046ED
:101BE000FEF796FF4FF4806002900020CDE90300DD
:101BF00020462946FEF78CFF252000210022FFF712
:101C0000FDF82520FFF7F6F806B070BD41F2180088
:101C1000C4F20200416840F6000441F40031416022
:101C20004168C4F2010401F4003101910199016895
:101C300002AD41F0040101600068294600F0040093
:101C40000190019804200290022003900320059047
:101C50002046FEF75DFF0820CDE902062046294612
:101C60000496FEF755FF06B070BD000070470000F7
:101C70002DE9F04381B0044690F83D0020280BD1B7
:101C80000E4600294FF0010055D01746002A52D0C9
:101C900094F83C00012803D1022001B0BDE8F08394
:101CA000012084F83C004FF0000921201D46C4F8B3
:101CB000409084F83D00FFF72BF8A784E784A168E3
:101CC0000746B1F5805F07D1206900281CBF304668
:101CD0004E46B046064601E04FF0000884F83C90BE
:101CE00007E000BF16F8010B21684860E08C01385E
:101CF000E084E08C80B1204680213A462B4600F0FB
:101D000015FB80B9002EEDD138F8020B21686FF376
:101D10005F2048600026E9E7204640213A462B46EE
:101D200000F004FB18B1032001B0BDE8F0832020CF
:101D300084F83D00002001B0BDE8F083704700004A
:101D4000FEE7000010B582B040F2180047F20041F3
:101D50000024C2F20000C4F20001CDE90044016099
:101D6000FEF79EFD002818BFFEF772FD40F2180036
:101D7000C2F2000069461022CDE90044FEF76AFD78
:101D8000002818BFFEF764FD02B010BD2DE9F04138
:101D900086B04FF0000841F21800CDE90488CDE983
:101DA0000288C4F20200016840F6004441F02001BC
:101DB00001600168C4F2010401F020010191019960
:101DC0000168012241F0040101600168012701F06E
:101DD000040101910199016841F008010160006866
:101DE0004FF4207100F00800019001982046FEF7A2
:101DF00089FF802002ADCDE9020702262046294650
:101E000004970596FEF784FE4FF48070CDE9020832
:101E1000204629460497FEF77BFE4FF40070CDE97B
:101E2000020720462946CDE90466FEF771FE06B09A
:101E3000BDE8F08110B540F22C0043F60041C2F23B
:101E40000000C4F200014FF48272002380E80E000B
:101E500000F10C014FF0020C4FF0010E4FF4007432
:101E600081E808500A21C0E90643C0E90833C0E907
:101E70000A31FFF771FA002818BFFEF7E9FC10BD20
:101E800080B540F2840043F60001C2F20000C4F2C3
:101E9000010100234FF0080C4FF4E13280E80E00FE
:101EA000C0E90333C0E905C3C361FFF731FE002871
:101EB00018BFFEF7CDFC80BD80B540F2C80044F2EB
:101EC0000041C2F20000C4F2000100234FF0080CF0
:101ED0004FF4E13280E80E00C0E90333C0E905C3E6
:101EE000C361FFF715FE002818BFFEF7B1FC80BDE7
:101EF000FEE700007047000000F0070080F00703D5
:101F0000042B28BF04234FF0FF3C03380CFA03F3E3
:101F100038BF0020994381400CFA00F022EA00000B
:101F2000084370477047000081B040F20400C2F2DD
:101F30000000006844F6D351C1F26201A0FB010128
:101F4000480A009000BF0098411E00280091F9D176
:101F500001B0704710B5044640689446B0F5827FE2
:101F60000A461AD1A168B1F5004F02D0B1F5806FD1
:101F700004D121680B6823F040030B60B0F5827F29
:101F80000BD1A068B0F5806F07D1204601216346D0
:101F900000F022F840B9002010BD204680216346A1
:101FA00000F01AF80028F6D0606D40F0200060655F
:101FB000032010BD10B513460A468021044600F0E8
:101FC0000BF800280FBF0020606D40F02000606516
:101FD00018BF032010BD00002DE9F04381B01E465C
:101FE00090460D468146FEF793FE301A00EB080737
:101FF000FEF78EFE40F20401C2F200010968C1F34F
:10200000CB3179430091D9F8001089682940A94261
:1020100019D1064608F1010406E000BFD9F8000016
:1020200080682840A8420ED1002CF7D0FEF770FE41
:10203000801BB8420BD200980099002808BF0746C1
:10204000481E0090EAE7002001B0BDE8F083D9E91E
:1020500000014268B1F5827F22F0E00242600BD1BC
:10206000D9F80810B1F5004F02D0B1F5806F03D157
:10207000016821F040010160D9F82810B1F5005F36
:1020800007D1016821F400510160016841F4005159
:102090000160012089F85100002089F850000320D8
:1020A00001B0BDE8F083000070470000B0B5013812
:1020B0000024B4EB106F1CBF0120B0BD4EF2100520
:1020C000CEF2000568604FF0FF300F2100F082F97A
:1020D0000720AC6028602046B0BD000080B5FEF748
:1020E0001DFE80BD70B590B006AC20462821FEF7DD
:1020F00042F8012006900A904FF4E01000254FF4BA
:10210000803102260F9020460595CDE90355CDE993
:102110000155CDE90715CDE90D61FEF797FF0F20B9
:10212000CDE901064FF48060CDE9040501A8022144
:102130000395FEF777FE10B070BD000070470000F9
:1021400080B5406A0021C185C184FFF7F7FB80BDDF
:102150000168CA6822F49072CA604A6922F00102DA
:102160004A61026B012A03D1CA6822F01002CA60D8
:10217000202180F83E1000210163704780B501687E
:10218000CA6822F04002CA60202180F83D10FFF7A3
:10219000D5FD80BD80B582B090F83E1022291ED1B9
:1021A0008268B2F5805F02D10169002940D0816A5E
:1021B000B2F5805F07D00AB9026922B1026852689D
:1021C00002F07F0201E0026852680A700121826A0F
:1021D00011448162C18D01390A04C18501D002B068
:1021E00080BD0168CA6822F02002CA60CA6822F471
:1021F0008072CA604A6922F001024A61202280F896
:102200003E20026B012A1BD100220263CB6823F01F
:102210001003CB600B68DB0605D501920A680192BA
:10222000496801910199818DFFF786FB02B080BD5D
:102230000168826A49686FF35F2111800221C6E755
:10224000FFF714FD02B080BD10B504460068D4E964
:1022500002C22369016921F440511143016161699E
:1022600043EA0C021143C26841F20C639A431143E2
:10227000C1604169A26921F44071114343F6000233
:10228000C4F201029042416102D0FEF78BFE01E0F0
:10229000FEF79AFE6268192148439100B0FBF1F005
:1022A00048F21F51C5F2EB11A0FB01235A096FF050
:1022B000630302FB0300322303EB0010A0FB0101C8
:1022C000F02303EA5113206803EB0212C1F3431118
:1022D0001144816010BD000090F83D10212923D1E8
:1022E0008168B1F5805F01D1016931B1016A02688D
:1022F0004B1C03620978516007E0016A036831F8FA
:10230000022B6FF35F225A600162C18C01390A040B
:10231000C18418BF70470068C16821F08001C160A6
:10232000C16841F04001C160704700002DE9F041F3
:102330000446006800680840884202D10020BDE8D9
:10234000F0811D460E4690465F1C04E02068006840
:102350003040B042F2D0002FF8D02DB1FEF7D8FCBB
:10236000A0EB0800A842F1D92068C16821F4D0711F
:10237000C160416921F001014161202084F83D00E4
:1023800084F83E00002084F83C000320BDE8F08182
:1023900080B540F28400C2F20000FFF7D1FA80BDA0
:1023A000FEE70000002848BF704700F01F0101222F
:1023B00002FA01F14EF200124009CEF2000242F898
:1023C000201070474EF60C50CEF200000068C0F3AB
:1023D000022070474EF6145300F00F02CEF20003B5
:1023E00009011A4400F16043B0F1FF3FC8BF03F593
:1023F00064421170704700004EF60C51CEF200019D
:102400000A684FF6FF031A4060F30A2242F0806028
:1024100040F0FD70086070472DE9F04381B016462A
:102420000F46DDE90889202100221D46044600F000
:1024300013F949EA060000F01F0000F04DF92046AC
:102440001021002200F008F945EA070040EA0800E0
:1024500000F042F9204600F031F9204600F0CCF8B7
:10246000014606A000F0A0F9204600F091F80146D0
:1024700005A000F099F901B0BDE8F0837A65726FAC
:102480003A2025640D0A000066756C6C3A202564BC
:102490000D0A00002DE9F041002000F03FF8012076
:1024A00000F03CF8FEF734FC40F21407C2F20007DB
:1024B0003968044629B340F21008C2F20008651AD0
:1024C00098F80000B5F57A7F1ED3FDF7CFFE002106
:1024D000C4F27A41FDF75AFE06462846FDF7C6FECD
:1024E00001463046FDF784FE00213C6088F800106C
:1024F000FDF7C1FE024607A00B4600F055F9BDE806
:10250000F0813C60BDE8F081013088F80000BDE852
:10251000F08100BF252E32660D0A000010B582B092
:102520003021082200F098F840F60044C4F201047B
:1025300020464FF48071FEF7DFFB0028F8D10DF143
:102540000600022100F03CF8BDF8060000BA000CBD
:1025500002B010BD10B582B040F60044C4F20104D0
:10256000204680210022FEF7CDFB40F22C00C2F273
:1025700000000DF107010122FF23FEF781FF204635
:1025800080210122FEF7BEFB9DF8070002B010BDBE
:1025900080B582B07021082200F05EF80DF10500D0
:1025A000032100F00DF89DF806109DF807209DF816
:1025B0000500090241EA0241084402B080BD000062
:1025C00070B540F60046C4F201060C46054630469A
:1025D00080210022FEF796FB40F22C00C2F20000A0
:1025E00029462246FF23FEF74BFF30468021012279
:1025F000FEF788FB70BD000080B582B06021082224
:1026000000F02AF80DF105000321FFF7D9FF9DF82E
:1026100006109DF807209DF80500090241EA0241D5
:10262000084402B080BD000010B540F60044C4F27A
:10263000010420464FF400710022FEF763FB1420D2
:10264000FEF752FA20464FF400710122FEF75AFBC2
:102650001420FEF749FA10BD80B50843104300F07E
:102660007F0000F039F880BDF0B581B040F600443D
:10267000C4F20104FF208DF80300204680210022CF
:10268000FEF740FB40F22C056427C2F200050DF175
:10269000030600BF284631460122FF23013FFEF713
:1026A00097FF3806F6D1204680210122FEF72AFB4B
:1026B0000120FEF719FA01B0F0BD000010B5044684
:1026C000204600210822FFF7C7FFFFF743FF40B273
:1026D0000028F5D410BD000010B582B040F60044CB
:1026E000C4F201048DF80700204680210022FEF785
:1026F00009FB40F22C00C2F200000DF1070101229B
:10270000FF23FEF765FF204680210122FEF7FAFA3B
:1027100002B010BD10B582B0019040F2840001AC4F
:10272000C2F2000021460122FF23FFF7A1FA40F286
:10273000C800C2F2000021460122FF23FFF798FAE9
:10274000019802B010BD000082B0FEF7F5FAFFF765
:10275000C9FCFFF71BFBFFF793FBFFF7ADFBFFF790
:1027600069FBFFF7EFFAFFF75FFFFFF77DFF02243A
:102770000025002040210C22082300950194FFF73A
:102780004BFE012040210C22182300950194FFF7F5
:1027900043FE40F21800C2F200001021FEF7C6F816
:1027A000FFF778FEFCE700000FB4054B10B503A956
:1027B000044A029800F0DAF810BC5DF814FB00003F
:1027C000152700080000002002E008C8121F08C1F9
:1027D000002AFAD170477047002001E001C1121FA2
:1027E000002AFBD1704700002DE9FF5F82B0002175
:1027F000DDE90430020DDDF840B0034318D044F6A3
:102800001050A2F2FF3242431514119801281FD034
:10281000A5EB0B00401C5FEA000A4FF000064E4F8C
:10282000DFF83891B046504615D5CAF1000413E0E0
:10283000119801244AA3012801D16FEA0B010298E3
:10284000119AC0E90031C0E9024206B0BDE8F09F2C
:10285000CBF10000DFE704460021404A491842EB73
:102860000450CDE9001012E0E00707D032463B46A5
:1028700040464946FDF737FE8046894632463B468C
:1028800010461946FDF72FFE06460F466410002C31
:10289000EAD1DDE90401DDE90023BAF1000F06DA2F
:1028A000FDF721FE42464B46FDF71DFE05E0FDF714
:1028B0008CFE42464B46FDF788FE04460E4600223B
:1028C000284BFDF709FF03D84FF0FF30014607E022
:1028D0000022254B20463146FDF75EFDFDF7E4FE64
:1028E000102409E0002C0ADB0A220023FDF7ECFC8F
:1028F000039B30321A55641E50EA0102F2D1641C67
:10290000039AC4F111031444119A012A03D001223D
:1029100008430DD10AE0084304D000204FF0110B0A
:10292000119072E7A3EB0B056D1E0DE05B4504DD16
:102930004FF0000205F1010504E003DA4FF0000258
:10294000A5F10105002AECD002981199C0E90231E5
:10295000C0E9004579E70000000014400000F03FA6
:10296000300000000000F0430000E03F2DE9FF4F81
:1029700095B09B468946064600250FE2252877D16B
:1029800000242746F84A0121059400E0044316F884
:10299000013F203B01FA03F01042F7D130782A289A
:1029A00011D06FF02F033078A0F13002092A16D829
:1029B000059A44F0020402EB820203EB4202104447
:1029C000761C0590EFE759F8042B0592002A03DAEC
:1029D000504244F40054059044F00204761C3078D0
:1029E0002E2816D116F8010F44F004042A280DD021
:1029F0006FF02F023078A0F13003092B09D807EBD4
:102A0000870302EB4303C718761CF3E759F8047BEE
:102A1000761C30786C280FD006DC4C2817D068283C
:102A20000DD06A2814D104E0742810D07A280FD170
:102A30000DE044F400140AE044F4801401E044F48E
:102A400040147278824202D104F58014761C761C00
:102A5000307866280BD013DC582877D009DC0028A2
:102A600075D04528F6D04628F4D047281AD19DE1E4
:102A700018E0632835D0642879D0652812D195E113
:102A8000702873D008DC6728F1D069286FD06E28D1
:102A90000DD06F2806D1B5E073282CD0752875D0DD
:102AA000782874D05A46179990476D1C75E1C4F385
:102AB0000250022809D003280DD0D9F800100428AC
:102AC0000DD00D6009F1040967E1D9F80010EA178B
:102AD000C1E90052F6E7D9F800100D80F2E70D7059
:102AE000F0E719F8041B8DF8001000208DF80100A4
:102AF000EA46012003E059F804AB4FF0FF306107CC
:102B00004FF0000102D40DE008F101018846B942FE
:102B10000FDA8045F8DB1AF808100029F4D108E034
:102B200008F1010188468142FADB1AF808100029F1
:102B3000F6D105985B46A0EB080721463846179A60
:102B400000F094FA284400EB080507E04DE029E185
:102B50000DE01AF8010B5A4617999047B8F1010891
:102B6000F7D25B4621463846179A13E142E00A2223
:102B70000092C4F302524FF0000A022A08D059F81A
:102B800004CB032A4FEAEC710AD00DE029E02AE0D9
:102B900009F1070121F00702F2E802C1914609E0BC
:102BA0000FFA8CFC4FEAEC71042A03D14FFA8CFC2B
:102BB0004FEAEC71002907DA0A460021DCF1000C2B
:102BC00061EB02012D2202E0220504D52B228DF8B3
:102BD0000420012203E0E20701D02022F7E790461B
:102BE00059E00A2102E010220DE010214FF0000A06
:102BF00000910BE010224FF0000A44F00404082773
:102C0000009203E008224FF0000A0092C4F302523F
:102C1000022A05D059F804CB0021032A08D009E084
:102C200009F1070121F00702F2E802C1914605E02F
:102C30001FFA8CFC042A01D10CF0FF0C4FF00008A5
:102C4000220728D5702806D0009B83F0100353EA92
:102C50000A0305D00EE040228DF80420012208E08E
:102C60005CEA010206D030228DF804208DF80500C0
:102C700002229046009B83F0080353EA0A030AD11C
:102C80005CEA010201D1620705D530228DF80420EB
:102C90004FF001087F1E582804D034A003900EA8DE
:102CA00002900DE036A0F9E753466046009AFDF722
:102CB0000BFB84460398825C0298401E02900270CF
:102CC0005CEA0100F0D1029806A9081A00F1200A76
:102CD000600702D524F4803400E00127574502DD67
:102CE000A7EB0A0000E0002000EB0A010090059825
:102CF0004144401A0590E00306D45B462146179AEA
:102D0000059800F0B3F90544002706E001A85A46EB
:102D1000C05D179990476D1C7F1C4745F6DBE003AB
:102D20000CD55B462146179A059800F09FF905449B
:102D300004E030205A46179990476D1C0099481EB0
:102D400000900029F5DC08E0029802995A460078C4
:102D5000491C0291179990476D1CBAF10001AAF124
:102D6000010AF1DC65E1000009280100303132334D
:102D700034353637383961626364656600000000B7
:102D800030313233343536373839414243444546A1
:102D90000000000000F058F90544761C3078002847
:102DA0007FF4ECAD19B02846BDE8F08F620700D47F
:102DB000062709F1070222F0070CFCE80223E1468E
:102DC00003F000485FEA080C02D00FF2702C0DE00F
:102DD0005FEA045C02D50FF2682C07E05FEAC47C6E
:102DE00002D00FF2602C01E0AFF2700C4FF0FF3810
:102DF00023F00043CDF850C065280CD006DC4528F0
:102E000009D046281DD047283DD13DE0662818D07E
:102E100067287ED138E00021112F01DB112000E06E
:102E2000781CCDE9000106A90EA8FFF7DDFCDDE95D
:102E30000F010E9A03910021009207F1010A0491FB
:102E40004DE04FF000400097CDE9011006A90EA813
:102E5000FFF7CAFCDDE90F0203920E9B11990022D5
:102E6000DDF80CA00093049211B9791C00EB010A63
:102E7000B7EB0A0004D4C0F1FF3007F1010A049057
:102E8000AAEB0700019044E0012F00DA012700219E
:102E9000112F01DD112000E03846CDE9000106A91F
:102EA0000EA8FFF7A1FCDDE90F010E9A03910021A6
:102EB00004910092BA4621070CD40399514500DAD7
:102EC0008A46BAF1010F05DD009AAAF10101515CB1
:102ED000302908D0B84202DA10F1040F06DA0121D5
:102EE000CDE9011015E0AAF10101E9E7002805DCB0
:102EF000049901440491AAEB000102E0411C5145F0
:102F000000DD8A460499401A401C01904FF00040B1
:102F10000290200704D40198504501DBCDF80480CD
:102F200000208DF84F0002980DF14F07B0F1004FCF
:102F300025D02B200E9002984FF0020800280CDAC2
:102F4000404202902D200E9007E00A210298FDF7E2
:102F5000A5F93031029007F8011DB8F10001A8F180
:102F60000108F2DC02980028EFD1791E0E98087053
:102F7000307800F0200040F0450007F8020D12A85C
:102F8000C01B00F107081498007800B1012000EB85
:102F90000A01019801EBE07105984144401A401E76
:102FA0000590E00306D45B462146179A059800F089
:102FB0005DF805441498007818B15A46179990475F
:102FC0006D1CE00324D55B462146179A059800F056
:102FD0004DF805441CE00498002807DBDDE90301F7
:102FE000884203DD0098405C179901E01799302072
:102FF0005A469047049805F10105401C0490019839
:10300000401E019004D12E205A46179990476D1CFE
:10301000BAF10001AAF1010ADDDC05E017F8010BA5
:103020005A46179990476D1CB8F10001A8F10108A4
:10303000F4DC5B462146179A0598ABE62D000000AC
:103040002B000000200000002DE9F041044600257F
:103050001E461746880404D405E039462020B047B0
:103060006D1C641EF9D52846BDE8F0812DE9F041BC
:10307000044600251E469046C80301D5302700E0CF
:103080002027880404D505E041463846B0476D1C2A
:10309000641EF9D52846BDE8F0810000000000005C
:1030A00000000102030406070809000000000102F5
:1030B00003040000D83000080000002010000000C9
:1030C000C8270008E83000081000002000050000B4
:1030D000D827000800000000000000000024F400D1
:0830E0000100000010000000D7
:0400000508000131BD
:00000001FF
