:020000040800F2
:100000001005002045010008291A0008A918000859
:10001000251A0008450300082D1C000800000000F8
:10002000000000000000000000000000891A000825
:100030008503000800000000591A0008BD1A0008D6
:100040005F0100085F0100085F0100085F01000810
:100050005F0100085F0100085F0100085F01000800
:100060005F0100085F0100085F0100084903000804
:100070005F0100085F0100085F0100085F010008E0
:100080005F0100085F0100085F0100085F010008D0
:100090005F0100085F0100085F0100085F010008C0
:1000A0005F0100085F0100085F0100085F010008B0
:1000B0005F0100085F0100085F0100085F010008A0
:1000C0005F0100085F0100085F0100085F01000890
:1000D0005F0100085F0100085F0100085F01000880
:1000E0005F0100085F0100085F0100085F01000870
:1000F0005F0100085F0100085F0100085F01000860
:100100005F0100085F0100085F0100085F0100084F
:100110005F0100085F0100085F0100085F0100083F
:100120005F0100085F0100085F0100085F0100082F
:10013000DFF80CD000F040F800480047DD1C000854
:10014000100500200648804706480047FEE7FEE706
:10015000FEE7FEE7FEE7FEE7FEE7FEE7FEE7FEE777
:10016000351B000831010008D2B201E000F8012B74
:10017000491EFBD270470022F6E710B513460A4627
:1001800004461946FFF7F0FF204610BD30B50B4678
:10019000014600202022012409E021FA02F59D42B7
:1001A00005D303FA02F5491B04FA02F52844151E8B
:1001B000A2F10102F1DC30BD064C074D06E0E0681B
:1001C00040F0010394E8070098471034AC42F6D39E
:1001D000FFF7B2FFEC1E00080C1F0008B0B5044684
:1001E00000688168C90709D0816821F00101816038
:1001F00000F028FE21688968C90701D10020B0BD40
:10020000054603E020688068C007F7D000F01AFEBA
:10021000401B0328F6D320688068C007F2D0A06A8C
:1002200040F01000A062E06A40F00100E0620120AE
:10023000B0BD000080B50146406A826A12F0500FDE
:1002400004D0006A026B0846904780BD0168826A4C
:1002500042F400728262896801F46021B1F5602F76
:1002600001D1017B11B100F093F980BD816A21F4C5
:1002700080718162816AC904F5D4816A41F001010B
:10028000816200F085F980BD80B5406A816A41F0E5
:1002900040018162C16A41F00401C16200F07CF951
:1002A00080BD000080B5406A00F074F980BD000098
:1002B000B0B582B004460020019021688A68D20758
:1002C0003DD1886840F00100886040F20400C2F22D
:1002D000000000684DF68361C4F21B31A0FB0101F0
:1002E000880C00BF0190019810B101980138F9E71E
:1002F00000F0A8FD21688968C9071CD1054603E004
:1003000020688068C00719D100F09CFD401B0328BD
:10031000F6D320688068C007F2D1A06A40F01000D0
:10032000A062E06A40F00100E062002084F824004E
:10033000012002B0B0BD002002B0B0BD002002B06C
:10034000B0BD0000FEE7000080B540F24000C2F200
:10035000000000F0AFFA80BDB0B5D0E900CED0E922
:100360000F40012505FA00F060600846CCF8043023
:10037000BEF1100F04BF10460A46CCF80800CCF8B6
:100380000C20B0BD704700007047000070B582B00F
:1003900004460020019094F82400012801D1022590
:1003A0006AE0012084F824002046FFF717FF054685
:1003B00000285ED1A06A41F2021188430230A06297
:1003C00040F20400C2F200000668022000F0C4FD02
:1003D000B6FBF0F0400000BF0190019810B1019809
:1003E0000138F9E72046FFF763FF2068816841F094
:1003F0000801816000F026FD216851F8082F1207DE
:1004000012D5064604E000BF20688168090709D5B7
:1004100000F018FD801B0B28F6D3206880680007C9
:10042000F2D51EE000F10801086840F00400086001
:1004300000F008FD21688968490703D401206FF0A6
:10044000030112E0064603E0206880684007F5D506
:1004500000F0F8FC801B0B28F6D32068806840076A
:10046000F2D5012510206FF01201A26A1140084355
:10047000A062002084F82400284602B070BD00006D
:10048000B0B581B00022009290F82420012A01D159
:10049000022179E04A680123062A80F8243005D831
:1004A00003686FF0040C03F1340E0AE003680C2AB1
:1004B00087BF03F12C0E6FF0400C03F1300E6FF08C
:1004C000220C02EB8202DEF8005062441F230C680B
:1004D000934025EA030304FA02F21A43CEF80020FF
:1004E000D1F800E002680EEB4E051024BEF1090FB2
:1004F00088BF1E3D88BF0C2452F804C007238968BA
:10050000AB402CEA0303A940194311512EF001011D
:100510004FF0000C10294FF0000133D1016842F276
:100520000042C4F20102914205D0816A41F02001EB
:100530008162012126E09268120222D48A68BEF10B
:10054000100F42F400028A601BD140F20401C2F293
:10055000000109684DF68362C4F21B32A1FB02124E
:10056000910C01EB810149000091009949B100BF54
:10057000009901390091009900294FF00001F7D14D
:1005800000E0002180F824C0084601B0B0BD0000A2
:10059000704700007047000070470000002804BF4B
:1005A000012070472DE9F0418046044658F8280F95
:1005B00030B90020E06284F82400204600F08CF876
:1005C0002046FFF70BFEA26AA16A002808BF12F0BE
:1005D000100206D041F010010120C8F80010BDE85B
:1005E000F08141F2021291430231A162D4E9001379
:1005F000E66981F08045A26885F49E3586F440273F
:100600002F4308BF4FF4002646EA0307531EB3FAF0
:1006100083F35E091346B2F5807F18BF3302267D4F
:10062000257B012E47EA450C11D145B1A76A47F059
:100630002007A762E76A47F00107E76207E0A769BA
:100640004EF60006CFF6FF7606EB47373B434F6882
:10065000B2F5807F27F4694743EA07034B608B6854
:100660004FF2FD77CFF6E17703EA070343EA0C0385
:100670008B6001D0012A06D122690023CFF6F073E6
:1006800003EB025200E00022CB6A23F470031A430A
:10069000CA62896840F6FE62CFF61F72114061455A
:1006A00009D10021E162A16A012262F30101C8F8C7
:1006B0000010BDE8F081A06A40F0100020F00200B8
:1006C000A06254F82C0F40F001010120A046C8F8A8
:1006D0000010BDE8F081000070B586B0044640F619
:1006E0000000C4F20100216800F5E05200269142AA
:1006F0000596CDE90366029601D006B070BD41F2C1
:100700001801C4F202010A6842F400720A600A6821
:1007100002F400720192019A0A6842F004020A602F
:10072000096801F0040101910199E021029103217E
:10073000039102A900F092FA40F240050820C2F2AB
:100740000005C4F202004FF48072C5E9000605F10D
:10075000100080214FF480634FF0200C80E80C10D3
:100760002846C5E90261EE6100F0E4F9002818BFEF
:10077000FFF70AFE25626C6206B070BD2DE9F041FC
:100780000546006842F60006C4F201069046B042F3
:100790000F4605D042F20041C4F2010188420AD15D
:1007A00042F20440C4F20100006810F4702F1CBF34
:1007B0000120BDE8F08195F82400012804BF022043
:1007C000BDE8F081012085F824002846FFF770FD80
:1007D000044628B1002085F824002046BDE8F081B9
:1007E00042F204402968AA6AC4F2010040F601738B
:1007F0009A4300F57F7302F580729942AA6207D08E
:10080000A86A20F48010A8624868400518D512E054
:10081000026812F4702FF3D0AA6AB14242F4801237
:10082000AA6205D042F20042C4F20102914207D10D
:100830000068400504D5A86A012262F30D30A86261
:10084000AA6A0020D2044FF0000244BFEA6A22F0F4
:100850000602EA6285F82400286A40F23522C0F6D2
:10086000000240F2A52340F2892600F1280CC0F6D0
:100870000003C0F600068CE84C006FF002020A602C
:100880008A68434642F480728A604C313A4600F0EE
:1008900099F92868816801F460228168B2F5602FB7
:1008A0000CBF41F4A00141F4801181602046BDE8F5
:1008B000F081000010B5D0F800E0D0E90FC3DCF8FB
:1008C0000020DEF800104C072ED504249C40144074
:1008D0002AD0DEF80010890605D4DEF8001021F0D9
:1008E0000401CEF800100422C4F2020202F17C01DD
:1008F0008E454DD940F20841C4F202018E4500F008
:10090000AA8040F21C41C4F202018E4500F0A7808B
:1009100040F23041C4F202018E4540F0A4804FF411
:100920008061C2F80014EBE08C0746D502249C409D
:10093000144042D0DEF80010890608D4DEF800101A
:1009400021F00A01CEF80010012180F821100422C4
:10095000C4F2020202F17C018E4549D940F20841FD
:10096000C4F202018E4500F0AB8040F21C41C4F29B
:1009700002018E4500F0A88040F23041C4F202012D
:100980008E4540F0A5804FF40071C2F80014C7E016
:100990004321C4F202018E453EDD6B21C4F2020107
:1009A0008E454BDC4421C4F202018E4500F09B8051
:1009B0005821C4F202018E4560E0090758BF10BDFE
:1009C00008219940114012D0DEF8001021F00E01EC
:1009D000CEF80010012101FA03F2CCF80420816363
:1009E000016B4FF480720029028418BF884710BD44
:1009F0004321C4F202018E4543DD6B21C4F20201A2
:100A00008E4550DC4421C4F202018E457ED058212F
:100A1000C4F202018E456EE00821C4F202018E4547
:100A200064D01C21C4F202018E4567D03021C4F28B
:100A300002018E4522D14FF4806160E06C21C4F246
:100A400002018E4554D08021C4F202018E4515D199
:100A50004FF0806153E00421C2F8001450E04021BF
:100A6000C2F800144CE002F588634FF480219E45E3
:100A700008BF4FF48041C2F8001441E04FF48021D8
:100A80003DE00821C4F202018E4542D01C21C4F28F
:100A900002018E4542D03021C4F202018E452AD196
:100AA0004FF400713BE06C21C4F202018E4532D05C
:100AB0008021C4F202018E451DD14FF000712EE05D
:100AC0000221C2F800142BE02021C2F8001427E014
:100AD00002F588634FF400319E4508BF4FF4005182
:100AE000C2F800141CE04FF4804108E0042106E045
:100AF0004FF4800103E04FF4003110E04021116019
:100B0000C16A00293FF473AF884710BD4FF400510C
:100B100005E0022103E04FF4001100E02021116004
:100B2000816A0022002980F820203FF460AF8847C6
:100B300010BD0000002804BF012070472DE9F041DE
:100B400040F2000CC4F2020C01684FF6F8320CF5CA
:100B50008163CBF6FD72994238BF02F580624CF694
:100B6000CD430A44CCF6CC43A2FB03236FF003052C
:100B70000CF5806405EA9303D0E9012ED0F80C80CF
:100B80003CBF0024C4F20204C0E90F430B6843F6E3
:100B9000F075AB431A43D0E9045442EA0E0242EA2C
:100BA0000802D0E906672A43224332433A430A60E7
:100BB00000214FF4807281630284BDE8F041084651
:100BC0007047000010B5044690F82000012821D09D
:100BD00094F821004FF0010C012884F820C016D1B0
:100BE000022084F821000020A063D4F800C0DCF8C3
:100BF000000020F00100CCF800002046FFF7ACFB1D
:100C00002068E26A01683AB141F00E010AE0002072
:100C100084F82000022010BD21F004010160016869
:100C200041F00A0101602068016841F001010160A2
:100C3000002010BDB0B5044600F004F9054640F2AE
:100C40000800C2F200000078611C18BF044400BF15
:100C500000F0F8F8401BA042FAD3B0BD2DE9F04FE8
:100C600083B00C68002C00F0EA80A0F18042A2F56D
:100C7000843240F2004E4FEAB22241F60047C4F2FD
:100C8000010E0092C4F20107062200254FF001096F
:100C90004FF0000B4FF0000AB84208BF0522019246
:100CA00009E000BF0C680BF1010B34FA0BF205F1FF
:100CB000040500F0C48009FA0BF814EA080CF1D01E
:100CC0004C684FF6FF72C1F21002944210DC122CF5
:100CD00050D8DFE804F0330A41454F4F4F4F4F4F94
:100CE0004F4F4F4F4F4F4F484C00D1F80CA041E0B1
:100CF0004FF6FF72C1F2210294420FDC0022C1F2D2
:100D0000110294421AD00022C1F21202944215D06C
:100D10000022C1F22102944210D02BE00022C1F245
:100D2000220294420AD00022C1F23102944205D03C
:100D30000022C1F2320294421CD100BF8C6844B13F
:100D4000012C14BFC0F81480C0F810804FF0080ABE
:100D500010E04FF0040A0DE0CC6804F1080A09E045
:100D60004FF0000A06E0CC6804F1040A02E0CC6807
:100D700004F10C0A2C460746BCF5807F24BF203CBA
:100D800004373A680F2303FA04F6B2430AFA04F46C
:100D900022433A60CA79D2067FF584AF41F2180443
:100DA000C4F2020422684FF6084842F001022260B1
:100DB0002268CFF6FF7802F001020292029A2BF02D
:100DC0000302724452F8084005F00C0603FA06F7D5
:100DD000009BBC43019F052B38BF1F4607FA06F650
:100DE000344342F808404C68E203DEF8002054BF68
:100DF00022EA0C0742EA0C07A203CEF80070DEF8E4
:100E0000042054BF22EA0C0742EA0C07E202CEF8A3
:100E10000470DEF8082054BF22EA0C0742EA0C07EF
:100E2000A20240F20C44CEF80870C4F20104226819
:100E300054BF22EA0C0242EA0C02226032E703B0FD
:100E4000BDE8F08F40F20C10C2F20000006870475D
:100E500040F2080040F20C11C2F20000C2F20001A0
:100E600000780A68104408607047000080B542F2BC
:100E70000000C4F20200016841F01001016003208B
:100E800000F066F8002000F005F800F02BF80020D4
:100E900080BD0000B0B540F20802C2F2000240F28C
:100EA00004011278C2F200014FF47A730968B3FBAF
:100EB000F2F20446B1FBF2F1084600F0F3FB0F2C0E
:100EC0004FF001050CD858B94FF0FF3021460022F1
:100ED000002500F02DF840F20C00C2F20000046082
:100EE0002846B0BD82B041F21800C4F20200016889
:100EF000022241F001010160016801F0010101914C
:100F00000199416841F080514160406800F0805093
:100F1000009000980420C4F20100016862F31A6195
:100F2000016002B07047000080B500F081FE80BD16
:100F300070B514460D46064600F08AFE2946224644
:100F400000F074FD0146304600F08AFE70BD0000DE
:100F500080B500F097FE80BD80B5411E0F294FF08F
:100F6000000043D8DFE801F00B3442084242420857
:100F7000424242424242424300F0DEF980BD41F229
:100F80000400C4F20200C16940F202320A40B2F524
:100F9000817F04BF4FF4004080BD01F44071B1F582
:100FA000407F0DD0B1F5007F51D1026A920744BF56
:100FB00049F6404080BDB1F5407F1CBF002080BD98
:100FC00050F8040C4FF22441800301EAE07080BD28
:100FD00000F0A0F941F20401C4F202010968022202
:100FE000C1F3813102EB4101B0FBF1F080BD41F270
:100FF0000401C4F202010A6851F8040CC0015CBF8C
:10100000002080BDC2F3834012A3185CD20305D434
:1010100040F60012C0F23D0250430BE00A6811A3F3
:10102000C2F340429A5C41F20023C0F27A03B3FB60
:10103000F2F250430968490248BF80BD4AF6AB212D
:101040004000CAF6AA21A0FB0101480880BD00208B
:1010500080BD00BF02030405060708090A0B0C0D3A
:101060000E0F1010010200002DE9F04182B004467D
:10107000007841F21C06C007C4F202064AD030686C
:1010800010F0805808D1306840F0805030603068EF
:1010900000F080500190019847F20007C4F2000769
:1010A0003868C00512D4386840F480703860FFF7A3
:1010B000C9FE05463868C00508D4FFF7C3FE401BCB
:1010C0006428F7D9032002B0BDE8F081706810F4FD
:1010D000407012D0616801F4407188420DD0706890
:1010E00040F24042C4F24222012320F440711360D6
:1010F0000023C0071360716029D17068616820F413
:1011000040700843B8F1000F706003D1306820F0E0
:10111000805030602068810707D556F8181CA268F7
:1011200021F44041114346F8181CC00603D40020A6
:1011300002B0BDE8F08156F8180C616920F4800017
:10114000084346F8180C002002B0BDE8F081FFF714
:1011500079FE054641F2883770688007CDD4FFF7E5
:1011600071FE401BB8424FF00300F5D9ECE70000D8
:101170002DE9F04381B0002800F0898042F2000898
:10118000C4F202080446D8F800000D4600F007003B
:1011900088420CD2D8F8000020F007002843C8F895
:1011A0000000D8F8000000F00700A8426FD12068C6
:1011B00041F204098107C4F2020917D5410705D598
:1011C000D9F8001041F4E061C9F80010010705D515
:1011D000D9F8001041F46051C9F80010D9F8001096
:1011E000A26821F0F0011143C9F80010C00745D1F1
:1011F000D8F8000000F00700A8420CD9D8F8000089
:1012000020F007002843C8F80000D8F8000000F0DC
:101210000700A8423BD12068410707D5D9F8001044
:10122000E26821F4E0611143C9F80010000708D515
:10123000D9F80000216920F4605040EAC100C9F8E3
:10124000000000F079F8D9F8001041F6D462C1F33B
:101250000311C0F60002515C40F2040220FA01F1D1
:1012600040F20C00C2F200000068C2F200021160FD
:10127000FFF710FE002001B0BDE8F083606802288F
:1012800009D0012829D159F8041C890307D4012069
:1012900001B0BDE8F08359F8041C8901F7D5D9F8ED
:1012A000001021F003010843C9F80000FFF7CAFD50
:1012B000064641F2883700BFD9F80000616800F0A7
:1012C0000C00B0EB810F93D0FFF7BCFD801BB84240
:1012D000F2D9032001B0BDE8F08359F8041C890756
:1012E000D5D5DCE740F20400C2F200000068704788
:1012F00080B5FFF7F7FF41F20401C4F2020109686B
:1013000041F6E462C1F30221C0F60002515CC8401C
:1013100080BD000080B5FFF7E5FF41F20401C4F293
:101320000201096841F6E462C1F3C221C0F600027D
:10133000515CC84080BD000041F2040CC4F2020CB4
:10134000DCF8003003F00C00082841F20020C0F265
:101350007A0018BF7047C3F383420AA18A5CD9039D
:1013600005D440F60010C0F23D0050437047DCF851
:10137000001008A3C1F34041595C5043B0FBF1F0A9
:10138000704700BF02030405060708090A0B0C0D8D
:101390000E0F1010010200002DE9F04182B000286C
:1013A00000F0C4800446007841F20006C007C4F291
:1013B000020643D0706800F00C00042817D0706853
:1013C00000F00C00082802D17068C0030FD46568D3
:1013D0002DB1B5F5A02F10D0B5F5803F11D03068F4
:1013E00020F480303060306820F480200CE03068D9
:1013F000800323D5606808BB98E0306840F4802003
:101400003060306840F480303060FFF71BFD002D05
:10141000054610D03068800310D4FFF713FD401B41
:101420006428F7D904E100BFFFF70CFD401B6428D6
:101430004FF0030077D830688003F5D42078800718
:1014400018D5706810F00C0F07D0706800F00C0011
:10145000082826D17068C00323D43068800702D5DD
:101460002069012862D13068616920F0F80040EA03
:10147000C1003060207800073DD5A06938B3002056
:10148000C4F242200121C0F88014FFF7DBFC0546BE
:10149000706A80072DD4FFF7D5FC401B0228F7D9CE
:1014A000C6E02069002840F20000C4F2422000F0AB
:1014B000968001210160FFF7C5FC05463068800772
:1014C000D1D4FFF7BFFC401B0228F7D9B0E00020C1
:1014D000C4F242200021C0F88014FFF7B3FC054697
:1014E000706A800707D5FFF7ADFC401B0228F7D9CB
:1014F0009EE000F0B3FA207840071BD4E5698DB177
:10150000706800F00C00082847D1012D0ED07068DB
:10151000216A00F480328A4208D1616A00F47010B6
:10152000884203D1002002B0BDE8F081012002B062
:10153000BDE8F081F06910F0805808D1F06940F002
:101540008050F061F06900F080500190019847F2FE
:101550000007C4F200073868C00510D4386840F4AA
:1015600080703860FFF76EFC054600BF3868C00524
:1015700005D4FFF767FC401B6428F7D958E0E568FD
:101580001DB1052D3CD0012D3ED0306A20F0010068
:101590003062306A20F0040039E00027C4F24227AC
:1015A00000203866FFF74EFC022D05460CD100BF27
:1015B0003068800154D5FFF745FC401B02284FF0EE
:1015C0000300F5D9AFE700BF30688001AAD5FFF767
:1015D00039FC401B02284FF00300F5D9A3E7002196
:1015E0000160FFF72FFC0546306880077FF542AFAA
:1015F000FFF728FC401B02284FF00300F4D992E7C4
:10160000306A40F004003062306A40F0010030621D
:10161000FFF718FC002D054641F2883714D000BFB3
:10162000306A800713D4FFF70DFC401BB842F7D98E
:10163000032002B0BDE8F081FFF704FC401BB84274
:101640004FF003003FF66FAF306A8007F4D4B8F173
:10165000000F7FF453AFF06920F08050F0614DE748
:10166000206AB0F5803F05D17168A26821F400318D
:10167000114371607168626A21F474111043084368
:10168000706001203866FFF7DDFB0446306880019A
:101690003FF548AFFFF7D6FB001B02284FF00300D1
:1016A000F4D940E780B500F0F1F980BD002804BF0F
:1016B0000120704710B5044690F83D0028B900207D
:1016C00084F83C00204600F021F8242084F83D00F6
:1016D0002068C16821F40051C160204600F02CFA56
:1016E0002068016921F490410161416921F02A01DA
:1016F0004161C16841F40051C16000202021206493
:1017000084F83D1084F83E1010BD000010B586B07E
:10171000006844F2004140F60004C4F20001C4F243
:10172000010488424FF00001CDE90411CDE9021116
:1017300029D043F60001C4F2010188424CD141F2A4
:101740001800C4F20200016841F4804101600168A0
:1017500001F4804101910199016841F004010160A7
:10176000006802A900F00400019001984FF4007095
:10177000029002200390032005902046FFF76EFAA6
:101780004FF4806020E041F21800C4F2020041688A
:1017900041F400314160416801F400310191019947
:1017A000016841F004010160006802A900F0040032
:1017B00001900198042002900220039003200590DC
:1017C0002046FFF74BFA082002900020CDE90300E5
:1017D00002A92046FFF742FA06B010BD2DE9F043FA
:1017E00081B0044690F83D0020280BD10E46002918
:1017F0004FF0010055D01746002A52D094F83C0013
:10180000012803D1022001B0BDE8F083012084F853
:101810003C004FF0000921201D46C4F8409084F898
:101820003D00FFF70FFBA784E784A1680746B1F5E9
:10183000805F07D1206900281CBF30464E46B04665
:10184000064601E04FF0000884F83C9007E000BF36
:1018500016F8010B21684860E08C0138E084E08CC8
:1018600080B1204680213A462B4600F0ADF980B980
:10187000002EEDD138F8020B21686FF35F2048602D
:101880000026E9E7204640213A462B4600F09CF925
:1018900018B1032001B0BDE8F083202084F83D009A
:1018A000002001B0BDE8F083FEE70000B0B584B0D1
:1018B00040F2100042F200420021C2F20000C4F2E5
:1018C00001020391CDE901114FF4807301250175E7
:1018D0004FF46024C0E9002103210573C4618360D3
:1018E0000161FEF75BFE002818BFFEF74DFD0520E5
:1018F000CDE90105039040F21000C2F2000001A9F9
:10190000FEF7BEFD002818BFFEF73EFD0620019041
:101910000220029040F21000C2F2000001A9FEF77E
:10192000AFFD002818BFFEF72FFD07200190032010
:10193000029040F21000C2F2000001A9FEF7A0FDE3
:10194000002818BFFEF720FD04B0B0BD80B582B0FE
:1019500041F21400C4F202000168002241F00101CA
:1019600001600068002100F00100019001980B2047
:10197000FFF7DEFA0B20FFF7D7FA02B080BD0000B8
:1019800082B041F21800C4F20200016841F0200167
:101990000160016801F0200101910199016841F0A5
:1019A00004010160006800F004000090009802B09B
:1019B0007047000080B540F2840043F60001C2F297
:1019C0000000C4F2010100234FF0080C4FF4E13293
:1019D00080E80E00C0E90333C0E905C3C361FFF727
:1019E00065FE002818BFFEF7CFFC80BD80B540F231
:1019F000C80044F20041C2F20000C4F2000100231A
:101A00004FF0080C4FF4E13280E80E00C0E90333D8
:101A1000C0E905C3C361FFF749FE002818BFFEF700
:101A2000B3FC80BDFEE700007047000000F0070037
:101A300080F00703042B28BF04234FF0FF3C03383A
:101A40000CFA03F338BF0020994381400CFA00F0F0
:101A500022EA0000084370477047000081B040F25E
:101A60000400C2F20000006844F6D351C1F26201E2
:101A7000A0FB0101480A009000BF0098411E002809
:101A80000091F9D101B0704770470000B0B501383E
:101A90000024B4EB106F1CBF0120B0BD4EF2100546
:101AA000CEF2000568604FF0FF300F2100F0D8F84B
:101AB0000720AC6028602046B0BD000080B5FFF76D
:101AC000C7F980BD70B596B00CAC20462821FEF752
:101AD00052FB01200C9010904FF4E01000254FF4C1
:101AE00080310226159020460B95CDE90955CDE9A8
:101AF0000755CDE90555CDE90355CDE90155CDE9AA
:101B00000D15CDE91361FFF747FC0F20CDE907065E
:101B10004FF48060CDE90A0507A802210995FFF777
:101B200027FB4FF40040039001A80196FFF79CFAB1
:101B300016B070BD7047000010B504460068D4E9C7
:101B400002C22369016921F44051114301616169B5
:101B500043EA0C021143C26841F20C639A431143F9
:101B6000C1604169A26921F44071114343F600024A
:101B7000C4F201029042416102D0FFF7B9FB01E0DB
:101B8000FFF7C8FB6268192148439100B0FBF1F0F0
:101B900048F21F51C5F2EB11A0FB01235A096FF067
:101BA000630302FB0300322303EB0010A0FB0101DF
:101BB000F02303EA5113206803EB0212C1F343112F
:101BC0001144816010BD00002DE9F0410446006819
:101BD00000680840884202D10020BDE8F0811D461F
:101BE0000E4690465F1C04E0206800683040B0421A
:101BF000F2D0002FF8D02DB1FFF724F9A0EB0800A8
:101C0000A842F1D92068C16821F4D071C16041694E
:101C100021F001014161202084F83D0084F83E005C
:101C2000002084F83C000320BDE8F081FEE70000BE
:101C3000002848BF704700F01F01012202FA01F19D
:101C40004EF200124009CEF2000242F82010704716
:101C50004EF60C50CEF200000068C0F30220704730
:101C60004EF6145300F00F02CEF2000309011A449D
:101C700000F16043B0F1FF3FC8BF03F5644211704B
:101C8000704700004EF60C51CEF200010A684FF684
:101C9000FF031A4060F30A2242F0806040F0FD70BA
:101CA0000860704710B582B0019040F2840001AC2A
:101CB000C2F20000214601224FF0FF33FFF78EFDF4
:101CC00040F2C800C2F20000214601224FF0FF336B
:101CD000FFF784FD019802B010BD000082B0FFF74D
:101CE000C5F8FFF7EFFEFFF74BFEFFF72FFEFFF7FC
:101CF00061FEFFF7DBFDFFF779FE40F21004C2F250
:101D000000042046FEF742FB0DF1020120460322AB
:101D1000FEF734FD07A400BFBDF80210BDF8042093
:101D2000BDF80630204600F00BF81420FEF782FFC5
:101D3000F2E700BF25692C25692C25690D0A0000F2
:101D40000FB4054B10B503A9044A029800F018F827
:101D500010BC5DF814FB0000A51C0008000000206A
:101D600002E008C8121F08C1002AFAD17047704764
:101D7000002001E001C1121F002AFBD170470000C2
:101D80002DE9FF4F89B09B460446002506E0252833
:101D90000BD05A460B999047641C6D1C2078002884
:101DA000F5D10DB02846BDE8F08F0027B8460122D6
:101DB000474900E0074314F8013F203B02FA03F0D3
:101DC0000842F7D120782E2819D114F8010F47F0D6
:101DD00004072A280ED06FF02F022078A0F13001DE
:101DE00009290CD808EB880102EB410100EB01083E
:101DF000641CF2E70A98641C50F8048B0A9020785F
:101E00000028CED0642808D0692806D075281ED0B6
:101E10005A460B9990476D1C58E00A994FF00A09F1
:101E200001C90A91002802DA40422D2102E0390559
:101E300004D52B218DF82010012103E0F90704D0EF
:101E40002021F7E78A4608AE0DE00021FAE70A995B
:101E50004FF00A0901C90A91F7E74946FEF796F9DA
:101E6000303106F8011D0028F7D1ADEB060000F176
:101E70002009780701D44FF00108C84502DDA8EB1E
:101E8000090000E000208046002706E008A85A4626
:101E9000C05D0B9990476D1C7F1C5745F6DB04E035
:101EA00030205A460B9990476D1CB8F10001A8F1FB
:101EB0000108F5DC05E016F8010B5A460B9990472E
:101EC0006D1CB9F10001A9F10109F4DC641C65E79E
:101ED00009280100000000000000000001020304C6
:101EE000060708090000000001020304101F000893
:101EF0000000002010000000601D0008201F0008E6
:101F00001000002000050000701D00080000000007
:101F1000000000000024F400010000001000000098
:0400000508000131BD
:00000001FF
