:020000040800F2
:10000000F0BA0020F9010008191D0008711B000852
:10001000151D0008010B0008652100080000000004
:100020000000000000000000000000006D1E00083D
:10003000050B000800000000491D0008A11E000873
:10004000130200081302000813020008130200083C
:10005000130200081302000813020008130200082C
:10006000130200081302000813020008130200081C
:10007000130200081302000813020008130200080C
:1000800013020008130200081302000813020008FC
:1000900013020008130200081302000813020008EC
:1000A00013020008130200081302000813020008DC
:1000B00013020008130200081302000813020008CC
:1000C00013020008130200081302000813020008BC
:1000D000130200085521000813020008130200084B
:1000E000130200081302000813020008130200089C
:1000F000130200081302000813020008130200088C
:10010000130200081302000813020008130200087B
:10011000130200081302000813020008130200086B
:10012000130200081302000813020008130200085B
:1001300000F002F800F051F80AA090E8000C8244A8
:100140008344AAF10107DA4501D100F046F8AFF285
:10015000090EBAE80F0013F0010F18BFFB1A43F0A5
:1001600001031847B0360100D0360100103A24BF11
:1001700078C878C1FAD8520724BF30C830C144BF0C
:1001800004680C607047000000230024002500264E
:10019000103A28BF78C1FBD8520728BF30C148BFEA
:1001A0000B607047692900F0C580752900F0C28096
:1001B000782900F0FB80732900F09D8200207047B1
:1001C0001FB59DE8030000F0A5FB00F0EFF91FBD8F
:1001D00010B5002000F036FB10BD00F059FB1146B1
:1001E000FFF7EEFF08F058FB00F0F1FB03B4FFF758
:1001F000EFFF03BC08F00AF90948804709480047A7
:10020000FEE7FEE7FEE7FEE7FEE7FEE7FEE7FEE7C6
:10021000FEE7FEE704480549054A064B7047000023
:10022000011F000831010008F09A0020F0BA0020F8
:10023000F09E0020F09E00200FB4044910B503AAE0
:10024000029800F05DFA10BC5DF814FB049A0020DF
:100250000FB41CB5074B06AA7B446946009005986D
:1002600000F01FFA0020694600F02EFA1CBC5DF871
:1002700014FB00006D0400002DE9F0410E46044619
:10028000002020622046E168884730B3252805D049
:10029000D4E901219047206A401CF2E7E16820463A
:1002A00000278847050018D0A5F14100192802D879
:1002B00020354FF400673246294620462760FFF775
:1002C00071FF40B1012804D0F61D26F0070608365C
:1002D000D8E7361DD6E72846DAE7206ABDE8F08180
:1002E00070B50C460546012A05D02878800600D551
:1002F000EA69002302E0012305E05B1C934202D27D
:10030000E05C0028F9D1A869E618C01AA861286A3B
:10031000184428622846AFF3008004E0D5E90121A3
:1003200014F8010B9047B442F8D32846AFF300808D
:1003300070BD00002DE9F0410646002410687529C3
:10034000314616A510D0AFF30080002802DA4042F3
:1003500013A507E031688A0701D512A502E0490715
:1003600004D511A5012401E0AFF3008000210A2289
:1003700006F1240709E0B0FBF2FCB0FBF2F302FB4C
:100380001C00303078541846491C0028F3D123460D
:100390002A463046BDE8F04100F025B900000000D3
:1003A0002D0000002B0000002000000070B5044666
:1003B0000D4621461068AFF300802188090502D55B
:1003C0000F4A7A4402E00E4A7A440E32002104F1C8
:1003D000240305E000F00F060009965D5E54491CF9
:1003E0000028F7D120780023000704D5702D02D013
:1003F00009B1022311322046BDE8704000F0F3B885
:10040000EC95000010B5044603E008F02BFA401C00
:1004100009D014F8010B05490028F6D1BDE81040B9
:100420000A2008F01FBA4FF0FF3010BD049A0020D8
:100430000B460146184600F075B910B5431C02E0A2
:1004400010F8011B71B18107FAD14FF0013202C8D7
:100450008C1A8C4314EAC211F9D0C01A0A0603D0D0
:10046000C01E10BDC01A10BD0A0401D0801E10BDF0
:100470000902FCD0401E10BD032A40F2308010F06B
:10048000030C00F0158011F8013BBCF1020F62442F
:1004900098BF11F801CB00F8013B38BF11F8013BC0
:1004A000A2F1040298BF00F801CB38BF00F8013B6D
:1004B00011F0030300F04D81083AC0F0088051F8B4
:1004C000043B083A51F804CBA0E80810F5E7121DE8
:1004D0005CBF51F8043B40F8043BAFF30080D20707
:1004E00024BF11F8013B11F801CB48BF11F8012BD3
:1004F00024BF00F8013B00F801CB48BF00F8012BF6
:10050000704702F0FF0343EA032242EA024200F08E
:1005100002B84FF000020429C0F0128010F0030C62
:1005200000F01B80CCF1040CBCF1020F18BF00F8E6
:10053000012BA8BF20F8022BA1EB0C0100F00DB895
:100540005FEAC17C24BF00F8012B00F8012B48BFF3
:1005500000F8012B70474FF0000200B51346944697
:100560009646203922BFA0E80C50A0E80C50B1F10B
:100570002001BFF4F7AF090728BFA0E80C5048BF1F
:100580000CC05DF804EB890028BF40F8042B08BFBD
:10059000704748BF20F8022B11F0804F18BF00F8B9
:1005A000012B7047704770477047000070B5064CCC
:1005B0007C44064D7D4404E02046016808448047A1
:1005C000241DAC42F8D170BD8032010080320100A0
:1005D00010B500F0F5F8006810BD10B5044600F045
:1005E000EFF8046010BD2DE9F0470D46994692469C
:1005F000044600F124080168880604D5E06921F06A
:100600001001216000E00120A84201DD471B00E04D
:100610000027A1697A1902EB0900081AA061207865
:10062000C00602D42046AFF30080002608E0D4E9DB
:1006300001211AF806009047206A401C761C2062AF
:100640004E45F4DB2078C0060AD52046AFF3008083
:1006500006E0D4E9012130209047206A401C206246
:10066000381EA7F10107F4DC07E0D4E9012118F8EE
:1006700005009047206A401C2062281EA5F1010554
:10068000F3DC2046AFF300802078000602D502207C
:10069000BDE8F0870120FBE701694A1C0261087888
:1006A000704700B58FB0CDE90131002105910549B2
:1006B0007944CDE9031011466846FFF7DDFD0FB020
:1006C00000BD0000E5FFFFFF0A6802F8010B0A60A9
:1006D000704710B5436913B1AFF3008001E0FFF735
:1006E000FFFD012010BD127800F124010A700022E4
:1006F0004A700122EDE711684FF0FF32E9E7000090
:10070000074B70B50D467B44FFF7CBFF04462846E8
:1007100000F089F810B14FF0FF3070BD204670BD79
:100720005B8100002DE9F041074615460E4610207A
:1007300000F04AF804000AD06760C4E9026500F0DE
:100740003BF80168216004600020BDE8F0810120D1
:10075000FBE710B5203AC0F00B80B1E81850A0E8D4
:100760001850B1E81850A0E81850203ABFF4F5AF7F
:100770005FEA027C24BFB1E81850A0E8185044BFDB
:1007800018C918C0BDE810405FEA827C24BF51F848
:10079000043B40F8043B08BF7047D20728BF31F83C
:1007A000023B48BF11F8012B28BF20F8023B48BF8D
:1007B00000F8012B704700000048704750000020EF
:1007C000004870471800002070B5064600F086F813
:1007D000056806F10B0020F00704B4429CBF00201E
:1007E00070BD2B466A68BAB11068A04210D304F1FC
:1007F000080188423CBF5068586007D351681019FF
:1008000041601168091B016058601460101D70BDC3
:1008100013465268002AE7D12146284600F066F8C0
:100820000028DED170BD007B00F08000704710B55D
:10083000002000F0D5F8FFF7CBFCBDE81040012008
:1008400007F0E4BD2DE9F0410646FFF7B5FF80460D
:10085000454613E016B1E068B0420ED1206828602A
:10086000D4E90101D8F800708847204600F088F8E4
:10087000D8F80000B842EBD100E025462C68002CE7
:10088000E8D1BDE8F0810000004870471800002062
:100890007546FFF7F9FFAE4605006946534620F05E
:1008A0000700854618B020B5FFF7B4FCBDE820402E
:1008B0004FF000064FF000074FF000084FF0000B1C
:1008C000AC46ACE8C009ACE8C009ACE8C009ACE88B
:1008D000C00921F007018D467047000000487047AD
:1008E00020000020704770477047704738B50446B5
:1008F0000A4600206946AFF30080002808BF38BDD3
:1009000002460099204600F072F8012038BD01200F
:1009100000F0A4B8F8B5AFF30080054600200C46FF
:10092000102000BF0646A819A0420DD932466946DC
:100930000020AFF30080070008BF00F08FF8009898
:10094000A04218BF0546C419FFF7C8FF0560074657
:10095000F01D20F007004619284600F00AF8B442BE
:1009600008BFF8BDA21B31463868BDE8F84000F06A
:100970003EB800210160C0E90110704710207047A7
:1009800070B50446051FFFF7A9FF0068002C14BFCF
:10099000446870BD002C18BFAC423CBF2046646860
:1009A000F8D301680A18AA4218BF456003D12A6823
:1009B00005461144016028684119A1421CBF6C60C2
:1009C00070BD6168696021680844286070BD10B519
:1009D0000446AFF300802046BDE81040FFF706BC98
:1009E00010B500F023F8BDE8104000F01AB8034637
:1009F00040688C46002818BF88423CBF03464068C8
:100A0000F8D318681844884207D00CF1030020F08E
:100A10000700001D411A521A0146081D0A60FFF71F
:100A2000AFBF002801D007F0F1BC704710B500211E
:100A300002A000F01BF8012010BD000053494741FF
:100A40004252543A2041626E6F726D616C2074653F
:100A5000726D696E6174696F6E00000010B500F010
:100A60001FF8BDE81040FFF7DCBF704770B50546C2
:100A70000C460A2000E06D1C00F03AF835B12878E9
:100A80000028F8D102E0641C00F032F814B120789C
:100A90000028F8D1BDE870400A2000F029B8000015
:100AA00010B5012805D0002103A0FFF7DFFF0120CA
:100AB00010BD09A1F8E7000053494752544D454D78
:100AC0003A204F7574206F662068656170206D65EF
:100AD0006D6F7279000000003A2048656170206DEA
:100AE000656D6F727920636F7272757074656400E2
:100AF00008B569468DF800000320ABBE08BD0000B4
:100B0000FEE700007047000070470000014690F8C3
:100B10002100022813D10868D1E90FC3026822F02E
:100B20000E020260026822F001020260012000FA57
:100B300003F2CCF8042081F82100002002E0042018
:100B400088630120002281F82020704780B590F84A
:100B50002110022927D1026840F2040C1368C4F264
:100B6000020C23F00E03136013680CF17C018A421F
:100B700023F0010111601AD940F20841C4F20201C8
:100B80008A4247D040F21C41C4F202018A4245D059
:100B900040F23041C4F202018A4243D14FF48073E3
:100BA000CCF8003457E004218163012080BD43214B
:100BB000C4F202018A420EDD6B21C4F202018A42B4
:100BC0001BDC4421C4F202018A4239D05821C4F20C
:100BD00002018A4231E00821C4F202018A4232D085
:100BE0001C21C4F202018A4232D03021C4F2020137
:100BF0008A4222D14FF480722BE06C21C4F20201B0
:100C00008A4222D08021C4F202018A4215D14FF0DB
:100C100080721EE00123CCF800341CE01023CCF8D5
:100C2000003418E00CF588614FF480338A4208BF25
:100C30004FF48053CCF800340DE04FF4803208E0DC
:100C40004FF4805205E0012203E04FF4801200E0EF
:100C50001022CCF80020416B4FF48072028401B165
:100C60008847002080BD0000B0B5044600F00AF9B6
:100C7000054640F20C00C2F200000078611C18BF6B
:100C8000044400BF00F0FEF8401BA042FAD3B0BD00
:100C90002DE9F04F83B00C68002C00F0EA80A0F141
:100CA0008042A2F5843240F2004E4FEAB22241F671
:100CB0000047C4F2010E0092C4F20107062200258B
:100CC0004FF001094FF0000B4FF0000AB84208BF87
:100CD0000522019209E000BF0C680BF1010B34FA08
:100CE0000BF205F1040500F0C48009FA0BF814EAD0
:100CF000080CF1D04C684FF6FF72C1F2100294421A
:100D000010DC122C50D8DFE804F0330A41454F4F75
:100D10004F4F4F4F4F4F4F4F4F4F4F484C00D1F811
:100D20000CA041E04FF6FF72C1F2210294420FDCA9
:100D30000022C1F2110294421AD00022C1F2120222
:100D4000944215D00022C1F22102944210D02BE02F
:100D50000022C1F2220294420AD00022C1F23102E2
:100D6000944205D00022C1F2320294421CD100BF4D
:100D70008C6844B1012C14BFC0F81480C0F81080F6
:100D80004FF0080A10E04FF0040A0DE0CC6804F1BF
:100D9000080A09E04FF0000A06E0CC6804F1040AF2
:100DA00002E0CC6804F10C0A2C460746BCF5807FB3
:100DB00024BF203C04373A680F2303FA04F6B243F9
:100DC0000AFA04F422433A60CA79D2067FF584AF66
:100DD00041F21804C4F2020422684FF6084842F0B7
:100DE000010222602268CFF6FF7802F0010202922F
:100DF000029A2BF00302724452F8084005F00C06E8
:100E000003FA06F7009BBC43019F052B38BF1F4622
:100E100007FA06F6344342F808404C68E203DEF86D
:100E2000002054BF22EA0C0742EA0C07A203CEF8C6
:100E30000070DEF8042054BF22EA0C0742EA0C07D7
:100E4000E202CEF80470DEF8082054BF22EA0C0754
:100E500042EA0C07A20240F20C44CEF80870C4F239
:100E60000104226854BF22EA0C0242EA0C0222600A
:100E700032E703B0BDE8F08F002A08BF0904016122
:100E80007047000049F6E820C2F200000068704791
:100E900040F20C0049F6E821C2F20000C2F2000163
:100EA00000780A68104408607047000080B542F27C
:100EB0000000C4F20200016841F01001016003204B
:100EC00000F066F8002000F005F800F02BF8002094
:100ED00080BD0000B0B540F20C02C2F2000240F248
:100EE00000011278C2F200014FF47A730968B3FB73
:100EF000F2F20446B1FBF2F1084600F031FC0F2C8F
:100F00004FF001050CD858B94FF0FF3021460022B0
:100F1000002500F02DF840F21000C2F2000004603D
:100F20002846B0BD82B041F21800C4F20200016848
:100F3000022241F001010160016801F0010101910B
:100F40000199416841F080514160406800F0805053
:100F5000009000980420C4F20100016862F31A6155
:100F6000016002B07047000080B507F0D5F980BD80
:100F700070B514460D46064607F0DEF929462246AE
:100F800000F0CCFE0146304607F0DEF970BD0000EF
:100F900080B507F0EBF980BD2DE9F04381B0002862
:100FA00000F0898042F20008C4F202080446D8F832
:100FB00000000D4600F0070088420CD2D8F800006F
:100FC00020F007002843C8F80000D8F8000000F01F
:100FD0000700A8426FD1206841F204098107C4F2DA
:100FE000020917D5410705D5D9F8001041F4E06191
:100FF000C9F80010010705D5D9F8001041F4605177
:10100000C9F80010D9F80010A26821F0F0011143CE
:10101000C9F80010C00745D1D8F8000000F007005B
:10102000A8420CD9D8F8000020F007002843C8F8DF
:101030000000D8F8000000F00700A8423BD120686B
:10104000410707D5D9F80010E26821F4E0611143A7
:10105000C9F80010000708D5D9F80000216920F46C
:10106000605040EAC100C9F8000000F079F8D9F8F2
:10107000001049F6FC12C1F30311C0F60002515CE6
:1010800040F2000220FA01F140F21000C2F200002A
:101090000068C2F200021160FFF71CFF002001B0DF
:1010A000BDE8F0836068022809D0012829D159F8E9
:1010B000041C890307D4012001B0BDE8F08359F86E
:1010C000041C8901F7D5D9F8001021F00301084369
:1010D000C9F80000FFF7D6FE064641F2883700BF88
:1010E000D9F80000616800F00C00B0EB810F93D0DC
:1010F000FFF7C8FE801BB842F2D9032001B0BDE85B
:10110000F08359F8041C8907D5D5DCE740F20000CC
:10111000C2F200000068704780B5FFF7F7FF41F2A8
:101120000401C4F20201096849F60C22C1F302214C
:10113000C0F60002515CC84080BD000080B5FFF7DA
:10114000E5FF41F20401C4F20201096849F60C22EC
:10115000C1F3C221C0F60002515CC84080BD00004E
:1011600041F2040CC4F2020CDCF8003003F00C0075
:10117000082841F20020C0F27A0018BF7047C3F37C
:1011800083420AA18A5CD90305D440F60010C0F25C
:101190003D0050437047DCF8001008A3C1F3404104
:1011A000595C5043B0FBF1F0704700BF02030405E7
:1011B000060708090A0B0C0D0E0F101001020000A3
:1011C0002DE9F04182B0002800F0C4800446007888
:1011D00041F20006C007C4F2020643D0706800F076
:1011E0000C00042817D0706800F00C00082802D109
:1011F0007068C0030FD465682DB1B5F5A02F10D06D
:10120000B5F5803F11D0306820F480303060306810
:1012100020F480200CE03068800323D5606808BB90
:1012200098E0306840F480203060306840F48030CE
:101230003060FFF727FE002D054610D03068800390
:1012400010D4FFF71FFE401B6428F7D904E100BF4C
:10125000FFF718FE401B64284FF0030077D8306872
:101260008003F5D42078800718D5706810F00C0F33
:1012700007D0706800F00C00082826D17068C00301
:1012800023D43068800702D52069012862D13068F4
:10129000616920F0F80040EAC10030602078000762
:1012A0003DD5A06938B30020C4F242200121C0F826
:1012B0008014FFF7E7FD0546706A80072DD4FFF71D
:1012C000E1FD401B0228F7D9C6E02069002840F262
:1012D0000000C4F2422000F0968001210160FFF777
:1012E000D1FD054630688007D1D4FFF7CBFD401B08
:1012F0000228F7D9B0E00020C4F242200021C0F853
:101300008014FFF7BFFD0546706A800707D5FFF719
:10131000B9FD401B0228F7D99EE000F017FD2078A8
:1013200040071BD4E5698DB1706800F00C000828F7
:1013300047D1012D0ED07068216A00F480328A42B4
:1013400008D1616A00F47010884203D1002002B015
:10135000BDE8F081012002B0BDE8F081F06910F035
:10136000805808D1F06940F08050F061F06900F0D9
:1013700080500190019847F20007C4F200073868D6
:10138000C00510D4386840F480703860FFF77AFDEB
:10139000054600BF3868C00505D4FFF773FD401B44
:1013A0006428F7D958E0E5681DB1052D3CD0012D22
:1013B0003ED0306A20F001003062306A20F0040034
:1013C00039E00027C4F2422700203866FFF75AFDB3
:1013D000022D05460CD100BF3068800154D5FFF7BF
:1013E00051FD401B02284FF00300F5D9AFE700BFC5
:1013F00030688001AAD5FFF745FD401B02284FF059
:101400000300F5D9A3E700210160FFF73BFD054686
:10141000306880077FF542AFFFF734FD401B02289C
:101420004FF00300F4D992E7306A40F004003062D4
:10143000306A40F001003062FFF724FD002D0546C0
:1014400041F2883714D000BF306A800713D4FFF709
:1014500019FD401BB842F7D9032002B0BDE8F08166
:10146000FFF710FD401BB8424FF003003FF66FAF8F
:10147000306A8007F4D4B8F1000F7FF453AFF069FD
:1014800020F08050F0614DE7206AB0F5803F05D133
:101490007168A26821F40031114371607168626A59
:1014A00021F4741110430843706001203866FFF77F
:1014B000E9FC0446306880013FF548AFFFF7E2FCE5
:1014C000001B02284FF00300F4D940E770B538B193
:1014D0000446406A30B10020206104F1140007E0A6
:1014E000012070BD6068B0F5827F03D004F11C005C
:1014F000002101600026A66294F8510020B9204620
:1015000084F8506000F038F8022084F8510094E824
:10151000071001F48271036802F4044223F04003CF
:101520000360236911440CF40062114403F00202C9
:101530006369114403F00102A369E569114403F4EE
:101540000072114405F03802256A114405F080024A
:10155000A56A114305F4005211430160042101EA18
:1015600013414160C16921F40061C16101206665D8
:1015700084F85100304670BD80B586B0014640F613
:101580000000C4F20100096800F5205291424FF0BA
:101590000001CDE90411CDE9021101D006B080BDF2
:1015A00041F21801C4F202010A6842F480520A6052
:1015B0000A6802F480520192019A0A6842F0040219
:1015C0000A60096801F0040101910199A0210291CA
:1015D000022103910321059102A9FFF759FB06B0EF
:1015E00080BD00002DE9F04381B0044690F8500022
:1015F000012803D1022001B0BDE8F0834FF00109BA
:101600001D4616460F4684F85090FFF73BFC94F8B1
:10161000511001295DD18046002F4FF0010018BF05
:10162000002E00F09580032084F8510000206065B2
:101630002763A686E686A063A087E087A168C4E941
:101640001000B1F5004F08D12068016821F0400179
:101650000160016841F48041016020680168490629
:1016600003D4016841F0400101606168731EE268C3
:10167000B1FA81F1B3FA83F349095B09B2F5006F5E
:1016800041EA030127D139B1216B0988C160B81C37
:101690002063E08E0138E086E08E002841D06E1C89
:1016A0000AE000BF216B31F8022BC2602163E08E9B
:1016B0000138E086E08EA0B3206881688907F1D404
:1016C000FFF7E0FB002EF5D0A0EB0800A842F1D315
:1016D00025E002203CE039B139780173206B0130FC
:1016E0002063E08E0138E086E08ED0B16E1C0AE007
:1016F000216B09780173206B01302063E08E013883
:10170000E086E08E68B1206881688907F0D4FFF731
:10171000B9FB002EF5D0A0EB0800A842F1D30320BE
:1017200016E020462946424600F026FB00281CBF52
:1017300020206065A06838B9002000902068C1684A
:101740000091806800900098606D002818BF01200B
:10175000002184F8519084F8501001B0BDE8F08366
:1017600080B500F085FB80BD704700007047000029
:10177000B0B582B0016805460868CA684C6900F0D7
:101780002F03202B02F0200305D123B1284600F0BF
:10179000E3FB02B0B0BD5FEA007C1EBF04F0010EA7
:1017A00002F4907414EB0E0424D12B6B1040C2068B
:1017B00017D5012B15D100200190086801904868C9
:1017C00001900198486940061CD4A88DEA8DEB8DE4
:1017D000002B1CBF801A5FEA004240F09A8002B0E2
:1017E000B0BD010636D44006F9D5284600F0A8FB66
:1017F00002B0B0BDC10718BF12F480712FD14107EC
:1018000033D439E0A86B0268526893B2002BE6D05B
:10181000AC8DA342E3D2EA858269202A16D0CA6839
:1018200022F48072CA604A6922F001024A614A6960
:1018300022F040024A61202285F83E2000222A63DD
:10184000CA6822F01002CA60FFF760F9A88DE98D1E
:10185000401A6FE0284600F021FC02B0B0BD296CB0
:1018600041F001012964410706D5BEF1000F03D004
:10187000296C41F002012964810706D5BEF1000FF1
:1018800003D0296C41F004012964BCF1000F06D596
:101890005EEA030103D0296C41F008012964296C38
:1018A00000299CD01040800602D5284600F054FB49
:1018B00028684069296C00F0400001F008014018D8
:1018C00020D0284600F026FB28684169490614D537
:1018D000416921F040014161A86B70B141F6057189
:1018E000C0F600014163FFF731F900283FF477AFFC
:1018F000A86B416B884702B0B0BD2846FFF736FFA2
:1019000002B0B0BD2846FFF731FF0020286402B0C6
:10191000B0BDCA6822F49072CA604A6922F001021E
:101920004A61202285F83E2000222A63CA6822F0FC
:101930001002CA6081B22846FFF716FF02B0B0BDA0
:10194000002804BF0120704710B5044690F83D0000
:1019500028B9002084F83C00204600F021F824201B
:1019600084F83D002068C16821F40051C160204620
:1019700000F04CFB2068016921F49041016141694C
:1019800021F02A014161C16841F40051C160002089
:101990002021206484F83D1084F83E1010BD000022
:1019A00070B586B0006844F20041C4F20001002620
:1019B00088420596CDE9036602963FD043F60001C2
:1019C000C4F20101884266D141F21800C4F202005B
:1019D000016840F6000441F4804101600168C4F2EE
:1019E000010401F4804101910199016802AD41F0C7
:1019F000040101600068294600F00400019001988C
:101A00004FF40070029002200390032005902046BE
:101A1000FFF73EF94FF4806002900020CDE903000B
:101A200020462946FFF734F9252000210022FFF740
:101A30009FFA2520FFF798FA06B070BD41F2180012
:101A4000C4F20200416840F6000441F400314160F4
:101A50004168C4F2010401F4003101910199016867
:101A600002AD41F0040101600068294600F0040065
:101A70000190019804200290022003900320059019
:101A80002046FFF705F90820CDE902062046294641
:101A90000496FFF7FDF806B070BD00007047000027
:101AA0002DE9F04381B0044690F83D0020280BD189
:101AB0000E4600294FF0010055D01746002A52D09B
:101AC00094F83C00012803D1022001B0BDE8F08366
:101AD000012084F83C004FF0000921201D46C4F885
:101AE000409084F83D00FFF7CDF9A784E784A16812
:101AF0000746B1F5805F07D1206900281CBF30463A
:101B00004E46B046064601E04FF0000884F83C908F
:101B100007E000BF16F8010B21684860E08C01382F
:101B2000E084E08C80B1204680213A462B4600F0CC
:101B3000DFFA80B9002EEDD138F8020B21686FF37F
:101B40005F2048600026E9E7204640213A462B46C0
:101B500000F0CEFA18B1032001B0BDE8F0832020D8
:101B600084F83D00002001B0BDE8F083704700001C
:101B7000FEE700002DE9F04F85B04FF0000841F27C
:101B80001800CDE90388CDE90188C4F2020001689C
:101B900040F6000641F0200101600168C4F2010630
:101BA00001F02001009100990168002241F0040138
:101BB00001600168102701F004010091009901689B
:101BC00041F010010160016801F0100100910099DD
:101BD000016841F0080101600068102100F0080070
:101BE000009000983046FFF747F906F50065284653
:101BF000302100224FF03009FFF73EF906F58064EE
:101C000020464FF480410022FFF736F9019701AFDB
:101C10004FF0010B4FF0020A30463946CDE902B8C9
:101C2000CDF810A0FFF734F828463946CDE9019BDE
:101C3000CDE9038AFFF72CF84FF48040CDE9010B82
:101C400020463946CDE9038AFFF722F805B0BDE802
:101C5000F08F0000B0B549F6082043F20001C2F24F
:101C60000000C4F201014FF48272002380E80E00EC
:101C700000F10C014FF0020C4FF0010E4FF4007414
:101C8000082581E808500A21C0E90645C0E9083363
:101C9000C0E90A31FFF71AFC002818BFFEF734FF2D
:101CA000B0BD000080B549F6602043F60001C2F2E5
:101CB0000000C4F2010100234FF00C0C4FF4E1329C
:101CC00080E80E00C0E90333C0E905C3C361FFF734
:101CD00037FE002818BFFEF717FF80BD80B549F614
:101CE000A42044F20041C2F20000C4F2000100232B
:101CF0004FF00C0C4FF4E13280E80E00C0E90333E2
:101D0000C0E905C3C361FFF71BFE002818BFFEF73B
:101D1000FBFE80BDFEE700007047000000F00700FA
:101D200080F00703042B28BF04234FF0FF3C033847
:101D30000CFA03F338BF0020994381400CFA00F0FD
:101D400022EA0000084370477047000081B040F26B
:101D50000000C2F20000006844F6D351C1F26201F3
:101D6000A0FB0101480A009000BF0098411E002816
:101D70000091F9D101B0704710B513460A46802191
:101D8000044600F00BF800280FBF0020606D40F003
:101D90002000606518BF032010BD00002DE9F0434E
:101DA00081B01E4690460D468146FFF76BF8301A0B
:101DB00000EB0807FFF766F840F20001C2F20001ED
:101DC0000968C1F3CB3179430091D9F800108968D3
:101DD0002940A94219D1064608F1010406E000BFD6
:101DE000D9F8000080682840A8420ED1002CF7D016
:101DF000FFF748F8801BB8420BD2009800990028E2
:101E000008BF0746481E0090EAE7002001B0BDE881
:101E1000F083D9E900014268B1F5827F22F0E00247
:101E200042600BD1D9F80810B1F5004F02D0B1F5DE
:101E3000806F03D1016821F040010160D9F82810BA
:101E4000B1F5005F07D1016821F40051016001681C
:101E500041F400510160012089F85100002089F807
:101E60005000032001B0BDE8F0830000704700007F
:101E7000B0B501380024B4EB106F1CBF0120B0BD19
:101E80004EF21005CEF2000568604FF0FF300F21D2
:101E900006F05AFA0720AC6028602046B0BD00006A
:101EA00080B5FEF7F5FF80BD70B590B006AC20465A
:101EB0002821FEF750FB012006900A904FF4E01015
:101EC00000254FF4803102260F9020460595CDE97C
:101ED0000355CDE90155CDE90715CDE90D61FFF7B2
:101EE0006FF90F20CDE901064FF48060CDE90405BC
:101EF00001A802210395FFF74FF810B070BD000054
:101F00007047000080B5406A0021C185C184FFF799
:101F10002DFC80BD0168CA6822F49072CA604A69CB
:101F200022F001024A61026B012A03D1CA6822F041
:101F30001002CA60202180F83E1000210163704722
:101F400080B50168CA6822F04002CA60202180F88A
:101F50003D10FFF70BFE80BD80B582B090F83E10BB
:101F600022291ED18268B2F5805F02D10169002961
:101F700040D0816AB2F5805F07D00AB9026922B108
:101F80000268526802F07F0201E0026852680A703B
:101F90000121826A11448162C18D01390A04C1851F
:101FA00001D002B080BD0168CA6822F02002CA6078
:101FB000CA6822F48072CA604A6922F001024A614A
:101FC000202280F83E20026B012A1BD100220263EE
:101FD000CB6823F01003CB600B68DB0605D50192BC
:101FE0000A680192496801910199818DFFF7BCFB54
:101FF00002B080BD0168826A49686FF35F21118079
:102000000221C6E7FFF74AFD02B080BD10B50446C5
:102010000068D4E902C22369016921F440511143E7
:102020000161616943EA0C021143C26841F20C6329
:102030009A431143C1604169A26921F4407111437F
:1020400043F60002C4F201029042416102D0FFF760
:1020500063F801E0FFF772F86268192148439100C4
:10206000B0FBF1F048F21F51C5F2EB11A0FB0123C8
:102070005A096FF0630302FB0300322303EB0010E5
:10208000A0FB0101F02303EA5113206803EB0212C5
:10209000C1F343111144816010BD000090F83D1060
:1020A000212923D18168B1F5805F01D1016931B166
:1020B000016A02684B1C03620978516007E0016AFB
:1020C000036831F8022B6FF35F225A600162C18C02
:1020D00001390A04C18418BF70470068C16821F043
:1020E0008001C160C16841F04001C16070470000DB
:1020F0002DE9F0410446006800680840884202D19A
:102100000020BDE8F0811D460E4690465F1C04E0AD
:10211000206800683040B042F2D0002FF8D02DB1D6
:10212000FEF7B0FEA0EB0800A842F1D92068C16814
:1021300021F4D071C160416921F001014161202089
:1021400084F83D0084F83E00002084F83C00032021
:10215000BDE8F08180B549F66020C2F20000FFF7CB
:1021600007FB80BDFEE7000080B506F023F906F00E
:1021700035F906F03BF906F041F980BD45F25451BE
:1021800045F255520140104040EA510043F23031CF
:1021900043F233320140104040EA910000F4706194
:1021A00000F00F0040EA1110704700007047000077
:1021B000704700002DE9F04F93B08C880E884D8851
:1021C0000F34C98824094FEA16180F31A4EB1616EC
:1021D00090F84E4025F00F07C5F31B1C090990F835
:1021E0004FA0D0E90550A1EB1719B1B2A4EB061E20
:1021F00004FB03F6069106FB0AF6294605EB860169
:10220000360A4FEA141B00EB460000EB48000BFBBC
:102210000CF600EB46061FFA89F000FB0BF006EB0C
:10222000400004904FEA0810039020010D90CEF377
:102230000B1002900AFB03F0012A4FEA800005957B
:102240000E91079440F0AD80A5000190109500BF5D
:102250000199B8B201EB800160430A900598069A93
:1022600004FB010006EB42020990039808970B92C9
:1022700082B20E980A994FF0000900EB81000D9987
:1022800000EB820000EB8100119009980F9600EBA3
:10229000820A0C92DAE90067DAE9024538463146EB
:1022A00006F017FF002818BF37463846214606F0CB
:1022B000C9FC294606F0C6FC0AF11007B0CFDAF8CF
:1022C0001C6012902846214606F003FF002818BF24
:1022D00025462846394606F0B5FC314606F0B2FCE4
:1022E0000AF1200B9BE8700807462846214606F0B5
:1022F000F0FE002818BF25462846314606F0A2FC0D
:10230000594606F09FFC0AF1300B9BE870088046A6
:102310002846214606F0DDFE002818BF254628463F
:10232000109D314606F08EFC594606F08BFC129E3D
:1023300004463846314606F0CCFE002818BF374622
:102340003846414606F07EFC214606F07BFC4946B5
:10235000044606F0BEFE002808BFA1461198AA4414
:10236000824597D34FF600714846C4F27F7107F05B
:10237000ADF806F0FBFF0F9E26F8020B0B98864285
:102380000C9800F11000FFF473AF0298089F06EB61
:1023900040060498079C864207F11007FFF458AFE7
:1023A00089E04FEA84080A900A99B8B201EB8001EB
:1023B00060430C900598069A04FB010006EB42026C
:1023C0000B9003980897109282B20E980C994FF0D8
:1023D000000A00EB81000D9900EB820000EB810008
:1023E00012900B980F9600EB820B11929BE8C300A2
:1023F00006F03CFC314606F039FC394606F036FC66
:10240000DBE90421DBE906748146104606F02EFC68
:10241000394606F02BFC214606F028FCDBE90821B2
:10242000DBE90A460746104606F020FC214606F086
:102430001DFC314606F01AFCDBE90C21DBE90E46F7
:102440000546104606F012FC214606F00FFC314608
:1024500006F00CFC04464846394606F007FC2946BF
:1024600006F004FC214606F001FC0146504606F049
:10247000FDFB1299C3448B458246B7D34FF60071DA
:102480005046C4F27F7107F021F806F06FFF0F9EEF
:1024900026F8020B10988642119800F1100093D391
:1024A0000298089F06EB40060498079C864207F1B5
:1024B0001007FFF479AF13B0BDE8F08F2DE9F04FAE
:1024C00089B08C880E884D880F34C988240990F80B
:1024D0004E800F31A4EB161425F00F07C5F31B1E19
:1024E0000D09A1B2A8EB041990F84F40039108FB25
:1024F00003F3D0E90510A5EB171C03FB04F503FB60
:1025000004112B0A4FEA161A4FEA181600EB430083
:1025100000EB4A0006FB0EF300EB430B1FFA8CF0B6
:1025200070430BEB400002904FEA0A1001904FEA13
:1025300008100790012AC9F30B10089100906BD185
:10254000039804970BEB40000690B8B200FB08F02C
:10255000059001981FFA80FA089805994FF0000934
:10256000084400EB0A02079802EB000E1478577833
:10257000957892F803C0A74238BF2746AF4298BF6C
:102580002F46674598BF6746157954799379D17975
:10259000AC4238BF2C469C4298BF1C468C4298BF28
:1025A0000C46117A557A937AD67A8D4238BF0D4609
:1025B0009D4298BF1D46B54298BF3546117B537B5F
:1025C000967BD07B8B4238BF0B46B34298BF3346D5
:1025D000834298BF0346BC4238BF3C46AC4298BFDA
:1025E0002C469C4298BF1C464C45424428BFA146FD
:1025F0007245BBD34FEA09202BF8020B069883459E
:102600000AF11000A6D30098049F0BEB400B029830
:102610001037834594D367E0039804970BEB400091
:102620000690B8B200FB08F4019800BF85B2089884
:1026300020444219079802EB000E002011785678CA
:102640009378D778B14238BF0E469E4228BF1E46C7
:10265000BE4228BF3E46117992F805909379D7790A
:10266000494538BF8946994528BF9946B94528BF8D
:10267000B946117A92F809A0937AD77A514538BFB2
:102680008A469A4528BF9A46BA4528BFBA46117B62
:10269000537B977B92F80FC0994238BF0B46BB42E1
:1026A00028BF3B46634528BF63464E4538BFB14609
:1026B000D14528BFD146994528BF9946484542444F
:1026C00028BF48467245B9D300022BF8020B069882
:1026D000834505F11000A9D30098049F0BEB400B34
:1026E00002981037834597D309B0BDE8F08F0000FA
:1026F0002DE9F04F8CB08C880E884D880F34C98836
:1027000024094FEA16180F31A4EB161690F84E4024
:1027100025F00F07090990F84FA0C5F31B19A1EB8D
:10272000171CB5B2A4EB061E04FB03F6D0E9051096
:1027300006FB0AF605950D46049101EB4601360AA3
:102740004FEA141B00EB460000EB48000BFB09F5B9
:1027500000EB45091FFA8CF000FB0BF009EB400081
:1027600003904FEA0810029020010A90CEF30B105C
:1027700001900AFB03F0012A4FEA40000B910694F6
:1027800078D14FEA440800900099B8B201EB4001BB
:10279000604308900498059A04FB010C029809EB29
:1027A00042020797099200BF1FFA80FE0B98089912
:1027B000002400EB41000A9900EB4E0000EB410AB7
:1027C0000CEB4E000288478826468488B0F806B095
:1027D000974238BF1746A74298BF27465F4598BF24
:1027E0005F46028944898589C389944238BF14466B
:1027F000AC4298BF2C469C4298BF1C46038A428A32
:10280000858AC18A9A4238BF1A46AA4298BF2A4688
:102810008A4298BF0A46018B438B858BB0F81EB065
:102820008B4238BF0B46AB4298BF2B465B4598BFE7
:102830005B46BC4238BF3C46944298BF14469C421B
:1028400098BF1C46B442404438BF34465045B9D3C3
:10285000099829F8024B81450EF11000A4D3019884
:10286000079F09EB40090398069C814507F1100773
:102870008AD377E0630000900099B8B201EB400181
:10288000604308900498059A04FB010E029809EB36
:1028900042020797099200BF82B20B980899002460
:1028A00000EB41000A9900EB420000EB41080EEBFF
:1028B000420000BF0588B0F802A021468488C6887F
:1028C000554538BFAA46A24528BFA246B24528BFF3
:1028D000B246068944898589C789A64238BF3446ED
:1028E000AC4228BF2C46BC4228BF3C46058AB0F803
:1028F00012C0868AC78A654538BFAC46B44528BF32
:10290000B446BC4528BFBC46058B468B878BB0F8C8
:102910001EB0B54238BF2E46BE4228BF3E465E4579
:1029200028BF5E46A24538BF5446644528BF64466A
:10293000B44228BF3446A142184438BF0C46404533
:10294000B8D3099829F8024B814502F11000A3D3AE
:102950000198079F09EB40090398069C814507F100
:10296000100789D30CB0BDE8F08F000070B50546A4
:10297000007F85F86410032853D80C4695F84E1054
:1029800095F84F2051432A8D01FB02F6DFE800F055
:102990000211061C0020C5E9050029E0686906B19E
:1029A00090B371000022002C08BFFF22FDF7A9FDA3
:1029B0001EE0686906B138B300223146002C08BF1A
:1029C000FF22FDF79EFD13E0686944B10021B1EBE1
:1029D000860F00D0C0B1B100FDF79BFD08E000EB11
:1029E00086014FF07E5200BF40F8042B8842FBD393
:1029F000A869002808BF70BD310A0022002C08BF5A
:102A0000FF22FDF77EFD70BD43F2F540C0F60100E8
:102A1000FDF712FC43F28940C0F60100FDF7F2FC1D
:102A2000FEDE06A0FDF708FC43F2A350C0F601004D
:102A3000FDF702FC0BA0FDF7E5FCFEDE2E2E2F2E8F
:102A40002E2F4C69622F65676C5F726173746572BB
:102A5000697A65722E6370702831363929203A20E0
:102A600000000000556E737570706F72746564209D
:102A7000646570746820666F726D61742E0D00005D
:102A800010B50C4600F0BAFD42F65071C0F60101D7
:102A90000831C0E9001410BD2DE9F047A2B0466826
:102AA000002E5BD08046B0F85C700089874262D20D
:102AB000D8F86000D8F8102000F15803934269D884
:102AC000D8F80C20002A7AD002EB000A8A450BD0F5
:102AD0008A4503D20AF15800884205D98A457BD934
:102AE00001F15800824577D350465822FDF7C4FCC7
:102AF00006EBC7005146FFF7C3FFD8F8600002AEEF
:102B00005830C8F86000DAF80400C488304600F095
:102B1000D1FE5046314604F0E9FC94B108F12C0690
:102B200000270DF1080900BFB8F85C30BDB250466F
:102B300031464A46009504F0E9FA0137B8B2A0429E
:102B4000F2D3B8F85E00B8F85C102044A8F85E0034
:102B5000481CA8F85C0022B0BDE8F08743F2DB20F7
:102B6000C0F60100FDF768FB43F21220C0F6010039
:102B7000FDF748FCFEDE1DA0FDF75EFB43F23F3093
:102B8000C0F60100FDF758FBB8F8081020A0FDF7CB
:102B900053FBFEDE43F21C30C0F60100FDF74CFB98
:102BA00043F23F30C0F60100FDF746FBD8F81010A5
:102BB00043F27100C0F60100FDF73EFBFEDE43F27A
:102BC0006320C0F60100FDF737FB43F29700C0F623
:102BD0000100FDF717FCFEDE18A0FDF72DFB43F208
:102BE000C600C0F60100FDF70DFCFEDE2E2E2F2ED6
:102BF0002E2F4C69622F65676C5F7261737465720A
:102C0000697A65722E682838373729203A20000003
:102C1000457863656564696E67206D6178205053FF
:102C20004F20646973706174636820636F756E749C
:102C300020282569292E0D0A000000002E2E2F2E97
:102C40002E2F4C69622F65676C5F636F72652E680B
:102C50002835333129203A20000000002DE9F04FBB
:102C600003AFA3B08146967999F8524047F8946C27
:102C7000A640B9F84A409B46D57999F8533090F868
:102C80004E0047F8306CA61B47F8985C9D40B3B2E5
:102C90008342B9F84C3047F8641C99F84F10A3EB05
:102CA00005081FFA88F328BF064647F8345C8B42B4
:102CB00028BF8846B2F804A0158801FB00F4A7F1EC
:102CC000240047F88C2C00F0D1FDB9F82A0000222E
:102CD000073020F00700ADEB000027F8246C27F840
:102CE000228C47E9062247F8202C07F81C2C47F8CD
:102CF000380C8546BAF1000F47F8904C00F0E2819D
:102D000057F830EC57F8343CCEF30B1047F8780CFA
:102D1000C3F30B1047F87C0C99F8640002220028DA
:102D20004FEA142000FB0BF008BF012247F8800C8B
:102D300004FB0BF047F8680C98B247F86C0C1FFACC
:102D40008EF047F8700C4FF6FF7047F8300C0020FB
:102D500047F8340C0020002447F8440C0020534668
:102D6000D44647F8602C47E9158647E9136847F8C9
:102D7000400C47F85C9C47F874BC07E057F8880C97
:102D800057F8843C0588180400F0A481B9F858006D
:102D9000A84240F2D483D9F84000B9F84410B9F8F9
:102DA000462001FB0506501C81B29AB28A4238BF08
:102DB0001846C0B206F1020A1B1A0AEB400047E9A6
:102DC000226347F83C0C2DE02268D9F80010B8F8CF
:102DD0000200BAF8003096688AB057F8542C57F8B9
:102DE000705C92B2089357F8503C039257F8682CE5
:102DF000009557F86C5C9BB2049257F8382CCDE9DB
:102E0000015357F8643C059207902046A7F124022D
:102E1000CDF818B0B0470AB057F83C0C0AF1020AD6
:102E20008245ABD2BAF80000B9F85610814240F2A0
:102E30006983D9F8381000EB400231F8220057F8C6
:102E4000303C01EB8208834200F0B780D9F80410CF
:102E5000B9F82A2051F8303001EBC0061B6857F84A
:102E6000381C30469847D9F8180047F8586C0028A5
:102E700070D057F84C1C37F8245C88B2A84238BF91
:102E80000D4657F8481C37F8229C88B2484537F859
:102E900020BC38BF894657F8400C584588BF834648
:102EA000306837F81E4C57F8442C41683046A2422F
:102EB00088BF1446884757F8302C4FF6FF71511AD7
:102EC00018BF0121B0FA80F30028024618BF012282
:102ED00003284FEA531315D057F8606CF6B2B0428E
:102EE00010D07BB9012607F81C6C002647F8246C2B
:102EF00057F8506C47F8600C27F8206C57F8546C62
:102F000027F81E6C17F81C0CB0FA80F04009184323
:102F100001EA020047F8340C43D137F8200C0028AE
:102F20003FD037F81E0CE0B357F85C0C007F032845
:102F300021D0022813D0012840F0EE8257F8600C0F
:102F400057F8743CC2B257F85C0CA7F12401FFF7A4
:102F5000B5FA1BE057E9114B57E9135921E057F82F
:102F6000600C57F8743CC2B257F85C0CA7F124010E
:102F7000FFF7BEFB0AE057F8600C57F8743CC2B28A
:102F800057F85C0CA7F12401FFF714F957F8500C1F
:102F900027F8240C57F8540C27F8220C002047F887
:102FA000200CB8F8000047E9114B47E9135957F8CE
:102FB00074BC57E9179447F8300C57F8340CC00725
:102FC0003FF402AF98F8040057F8781C98F80630E0
:102FD00098F80520401A57F87C6C99F84EC0A64620
:102FE00098F8074020EAE0711844951BC1EB1C16C5
:102FF000431A99F84F0025EAE5729E42B8BF33465E
:103000002E19C2EB1010B41AA042B8BF0446002B10
:103010004FF0050018BF5FEA044604D1002874464B
:103020007FF4FAAED0E64FEA1C161FFA81FCD9F8FD
:10303000185057F8801C92B205EB410505EB4C0186
:10304000724301EB4201A2B298B27243F31A57F8ED
:10305000606C9BB2F6B201EB4202012E4FEA4303D1
:103060004FF0000618D100BF01EB4004354631F89F
:10307000026BAE4238BF2E46A142F7D319449142AB
:10308000F2D3B8F8080086424FF0000038BF0520A0
:10309000C4D30020C2E700BF01EB4004354631F83D
:1030A000026BB54238BF2E46A142F7D31944914274
:1030B000F2D3B8F80A0086424FF000008CBF05201A
:1030C0000020ABE7002047F8400C002047F8440CF4
:1030D00047E9136857F84C3C37F8240C99B28842FA
:1030E00038BF034657F8482C37F8220C91B2884273
:1030F00038BF024698B237F8201C57F8405C40EAC7
:10310000024047F8240CA94237F81E2C88BF0D4610
:1031100057F8441C80B28A4288BF114645EA0141F3
:1031200047F8201C57E90612D9F87030D9F87860B2
:103130008B4238BF0B46C9F87030964238BF1646EE
:10314000C9F8786057F88C6C37F8223C317A727A7B
:10315000884238BF0146934238BF1A4641EA0240CE
:1031600047F8280CB07AF17AAAB237F81E3C8242AE
:1031700088BF10468B4288BF194640EA014147F894
:103180002C1C17F8241C17F8222C317217F81E1C5F
:1031900000287272B572F17200F0AF8137F82A0C14
:1031A000002800F0AA81D9F8000001684E6882B0BA
:1031B000A7F12C01009157E92621A7F12803CDF8AA
:1031C00004B0B04702B037F8241C19B1012047F809
:1031D000300C16E037F8200C99F84E2090424FF052
:1031E000010047F8300C0CD337F8220C48B937F8F7
:1031F0001E0C99F84F200023904238BF012347F856
:10320000303C37F8203C002B00F0778137F81E2C3B
:10321000002A00F0728199F81C0047F85C9C032892
:1032200000F2948157F8905C05FB0BFADFE810F090
:10323000FA0004003200730057F85C4C4FF0000CA9
:1032400094F86400002808BF4FF0FF3C666957F807
:10325000300C002806EB0A0000F0AF805D1A94F8ED
:103260004E9037F8223C084403FB0906D01A00FBB5
:1032700009645FFA8CF808E0304629464246FDF7BB
:1032800040F94E44A64280F0CD80002DF4D0002EAF
:10329000F2D133E057F85C5C4FF0000895F8640019
:1032A000002808BF4FF0FF386E6957F8300C00282F
:1032B00006EB4A0074D05C1A95F84E3037F8225C61
:1032C00000EB410005FB03F100EB4106501B5843A6
:1032D0004FEA440B06EB40054FEA43090AE000BF02
:1032E0005FFA88F230465946FDF70BF94E44AE427C
:1032F00080F09880002CF3D0002EF1D143F2F540FD
:10330000C0F60100FCF798FF43F28940C0F60100C7
:10331000FDF778F8FEDE57F85C4C57F8300C65691D
:10332000002805EB8A0054D037F8226C94F84EC080
:1033300000EB810094F864E00CFB06F4921B00EBB8
:10334000840002FB0CF2A3EB0109BEF1000F00EBBD
:1033500082064DD057F8902C4FEA890047F8340C7C
:1033600002FB0BF0800005EB840400EB810502FBFF
:103370000B104FEA8C084FEA800B09E057F8341C19
:10338000FDF7C7F8C34404EB0B00B042454449D2F3
:10339000B9F1000F04EB0500F0D00028EED19FE05A
:1033A00057F8901C09B1002EA8D057F8901C5FFA6E
:1033B00088F24900FDF7A5F834E057F8901C09B1F0
:1033C000002E9BD057F8901C5FFA8CF2FDF799F80D
:1033D00028E094F86410D9B157F8901C11B1002D71
:1033E00000F07E8057F8901C8900FDF792F819E0F4
:1033F0006144C91A89004FF07E5200BF00EB890377
:1034000040F8042B9842FBD30844B042F6D309E0BD
:1034100057F8901C4FF07E5200EB810140F8042BCE
:103420008842FBD357F85CBCDBF8180070B14FEA58
:103430001A2100EB410057F8901C9BF86430C90931
:103440000022002B08BFFF22FDF75BF84FF00008B9
:1034500009E000BF0AFB0020FDF75BF808F1010856
:10346000B8F1040F49D00BEB080090F820000028B9
:10347000F4D09BF84E1057F8302C01FB00F91AB32A
:1034800037F8202C37F8243CDBF8246037F8224C3E
:10349000D21A534456F8286004FB013137F81E3C19
:1034A00001FB0065191B01FB095402FB00F606E055
:1034B00028463146FDF72DF84D44A542CED2002EC8
:1034C000F6D0002DF4D10BE0DBF8241051F82820C1
:1034D0009BF84F10002A09FB01F1BBD10029B9D09C
:1034E00043F26150C0F60100FCF7A6FE43F28940AA
:1034F000C0F60100FCF786FFFEDEA7F10C04A5462E
:10350000BDE8F08F43F23750C0F60100FCF794FE9F
:1035100030A0FCF777FFFEDE43F27E50C0F60100DC
:10352000FCF78AFE43F2A350C0F60100FCF784FECC
:1035300043F26E40C0F60100FCF764FFFEDE0DA012
:10354000FCF77AFE16A0FCF75DFFFEDE43F2125098
:10355000C0F60100FCF770FE43F2A350C0F6010074
:10356000FCF76AFE43F26E40C0F60100FCF74AFF2A
:10357000FEDE00BF2E2E2F2E2E2F4C69622F656788
:103580006C5F726173746572697A65725F74696C7D
:10359000696E672E682832353229203A20000000F3
:1035A000617373657274206661696C6564203A208A
:1035B00073747269705F6964785F3C6D5F6E756D7E
:1035C0005F636C75737465725F7374726970730D89
:1035D00000000000617373657274206661696C6538
:1035E00064203A206964785F3C6D5F6E756D5F633F
:1035F0006C7573746572730D0000000042F664719F
:10360000C0F6010108310160704700002DE9F0416A
:103610008046007F0D4618B1D8F81400002850D01D
:1036200008F12C00114608F1040400F0F7FC95E8BD
:10363000CF0004F1180CCFC405F118030FCB8CE8B0
:103640000F000020C8E91700287A80072FD198F8CA
:103650004E0098F84F10B8F82820484300FB02F5B8
:1036600008F12006002700240AE000BFFCF751FF04
:10367000032C04F1010407F1010728BFBDE8F08124
:10368000D8F82400F15D50F8270069430028EDD1F7
:103690000029EBD043F26150C0F60100FCF7CCFDED
:1036A00043F28940C0F60100FCF7ACFEFEDE14A038
:1036B000FCF7C2FD1CA0FCF7BFFD20A0FCF7A2FE9A
:1036C000FEDE05A0FCF7B8FD43F2AC40C0F60100F9
:1036D000FCF798FEFEDE00BF2E2E2F2E2E2F4C69FB
:1036E000622F65676C5F726173746572697A657267
:1036F0002E6370702831313629203A2000000000F6
:103700002E2E2F2E2E2F4C69622F65676C5F7261F3
:1037100073746572697A65722E6370702831323203
:1037200029203A20000000006173736572742066DE
:1037300061696C6564203A200000000050534F20FE
:1037400073746F7265206E6F742070726F70657223
:103750006C7920616C69676E65642E0D0000000055
:103760002DE9F04389B004460068002855D00DF1DA
:103770000408404600F0F0FDB4F84A00B4F84C608C
:103780006FF00805ADF8040005EAC00004F12C094B
:10379000ADF8066005F006FE074605EAC60005F02E
:1037A00001FE04F11402CDE9027007CA06910590EA
:1037B00094F84E00A16EADF81000B4F85C00636A96
:1037C0000792814238BF0146A166206EE16E0893E0
:1037D000814238BF0146E166B4F85810626F206834
:1037E0008A4238BF0A466267B4F85E10E26F236B04
:1037F0008A4238BF0A46E2670168B4F850700E6822
:10380000214642460097B047484600F083FD00201D
:10381000C4E9170009B0BDE8F08303A0FCF70CFD74
:103820000BA0FCF7EFFDFEDE2E2E2F2E2E2F4C6967
:10383000622F65676C5F726173746572697A657215
:103840002E6370702831383129203A2000000000A2
:10385000617373657274206661696C6564203A20D7
:103860006D5F63616C6C6261636B0D00704700009B
:10387000B0B50446043000F041F804F12C0000F02B
:103880005FFD0020A4F85C0084F8640020462C2131
:1038900004F16805FCF75FFE284600F0A1F8204619
:1038A000B0BD000010B504462C3000F053FD20469A
:1038B00010BD00004FF07E510022C0E90012C0E9A7
:1038C0000222C0E90421C0E90622C0E90822C0E9B9
:1038D0000A127047C0E90212C384704701608280F7
:1038E0007047000080B5DDE902EC0162C0E9042305
:1038F00080F818E0A0F824C080BD0000002101601D
:103900008180C0E90211C0E904110176C0E9081103
:103910007047000010B540F27801C2F2000109784A
:103920000446C807BFF35F8F0DD049F6F81049F67B
:10393000F511C2F20000C2F20001C0E9014100200D
:10394000C4E9010010BD40F27800C2F2000004F0AA
:10395000B5FF0028E9D049F6F810C2F2000001F0E6
:10396000BDFD40F27800C2F2000004F0D5FFDCE7B4
:10397000B0B505460C301C46FFF748FE05F1900037
:103980002146ED6001F088FBB0BD000010B5044693
:1039900001F0B6FD42F67870C0F6010008302060F4
:1039A00004F10C00FFF764FF04F1900001F040FC0B
:1039B000002120466160A16010BD000010B50446E2
:1039C00042F67870C0F6010000F10801204640F888
:1039D0000C1BFFF767FF204610BD0000704700007A
:1039E00000210183C0E90011C0E90211C0E90411FE
:1039F0007047000070B50C460A0B0CA10546FCF799
:103A000027FC28462601FCF718FD2C1808A500BF46
:103A1000B0B2020B20462946FCF71AFC36013004EE
:103A200004F10104F4D10020207070BD25692E003E
:103A3000257800002DE9F0419CB012AD064600F556
:103A40000F4728468846FFF759FF44F224003118F3
:103A5000284601220124FFF741FF44F22C003118CF
:103A6000284680228023FFF735FF42F220003044B1
:103A70004FF40F417050022000211990C7E9011145
:103A8000F96006F500530090284639463246019405
:103A9000FFF728FF09AF384600F096FDA02150221D
:103AA00000F084FD44F2B800311844F2AC00321842
:103AB000402438464023009400F07CFD3846012124
:103AC00000F024FD06F5824138464FF4807200F084
:103AD00019FD06F59A4138464FF48072202300F014
:103AE00017FD03AC204601F01FFD48F61070311899
:103AF00020464FF4006201F00FFD49F210703118BA
:103B00002046002201F00CFD20460021002201F099
:103B1000FFFC404629463A46234600F09FFF4046B8
:103B2000FFF7F8FE1CB0BDE8F0810000B0B5044618
:103B300044F2B8056019FFF751FF0C35B5F5824F17
:103B4000F8D12046B0BD00002DE9F04F87B0824685
:103B500040680028069000F04F811098059300B24D
:103B6000B0F1FF3F40F35581BAF81E000D681446CE
:103B7000884607B205F02EFC06462846314605F079
:103B8000A5FC05F0F3FB216881460846314605F0A7
:103B90009DFC05F0EBFBB7F1FF3F40F3208183462E
:103BA000BAF82000D8F80450CDF8088006B205F025
:103BB00011FC80462846414605F088FC05F0D6FBFE
:103BC0006168054608464146039405F07FFC05F010
:103BD000CDFBB6F1FF3F40F302810BF1010212B2BF
:103BE0000130BA4200B2D8BF1746002A29EAE9716B
:103BF00048BF0027B042D8BF0646002848BF00266D
:103C00001FFA81FC9AF82210BFB29AF82620394494
:103C100025EAE5739AF8235001392CFA02F441FAA7
:103C200002F299B2B3B29AF827005E19013E21FA66
:103C300000FE46FA00F0161B32B2A0EB0E00002A7E
:103C400002B24FF00005D8BF2E46002AC8BF054675
:103C5000300618BF5FEA056002D107B0BDE8F08FFB
:103C6000BAF82A805FFA86FB08F10100EAB2AAF8E6
:103C70002A008BF0010082F001021043DAF80C00F8
:103C8000059E08EB480220F8226000EB820610989F
:103C900008BF40F4004070804FEA1C10307107F1FB
:103CA0000F000009A0EB1C10B0710809707103F13E
:103CB0000F000009A0EB1110F07102984FF600718F
:103CC0008068DAF80890C4F27F71774605F0FEFB51
:103CD00005F04CFB03993081896808464FF6007166
:103CE000C4F27F7105F0F2FB05F040FB9AF8281052
:103CF000708109EB440007FB01F249002B4600EB01
:103D00004200A1EB4B01CDF808B00191CDE9048947
:103D100006E000BF039B013B1906019908449CD0B3
:103D20000299039300EB410B43080FE0DAF81420EB
:103D30007788BAF8186006FB072C02300CEB4E01AE
:103D4000584503F10103A1F80280E3D2B9F1000F55
:103D50000CBF1946018889B201EB4107069901EBB6
:103D60008706B288BAF81A10551C11EA020EB580FF
:103D7000DCD1BAF82C50BAF81C40A5421DD2BAF8D2
:103D80001890DAF8148051466C1C09FB058CAAF8CF
:103D90002C4009FB05F44FF0FF3128F804102AB13C
:103DA000728802FB09F228F8025002E0069921F815
:103DB0002750DDE904897580BFE743F2E570C0F65E
:103DC0000100FCF739FA43F23F30C0F60100FCF77E
:103DD00033FABAF81C102FA0FCF72EFAFEDE43F2DD
:103DE000C770C0F60100FCF727FA43F2A860C0F6DE
:103DF0000100FCF707FBFEDE43F22570C0F6010070
:103E0000FCF71AFA43F2C460C0F60100FCF7FAFAB4
:103E1000FEDE08A0FCF710FA43F23F30C0F60100C6
:103E2000FCF70AFA10990EA04FF40042FCF704FACE
:103E3000FEDE00BF2E2E2F2E2E2F4C69622F6567BF
:103E40006C5F726173746572697A65725F74696CB4
:103E5000696E672E6370702832313429203A200051
:103E60004C6F63616C20636C757374657220696E4E
:103E70006465782028256929206D75737420626532
:103E800020736D616C6C6572207468616E202569A9
:103E90002E0D0A004F7574206F6620636C75737465
:103EA00065722073747269707320282569292E0D3C
:103EB0000A0000002DE9F04F8DB094680F4681464E
:103EC00083F0004120461D46164605F002F9002801
:103ED00040F08B804CF6CD41DDE916A8C3F6CC51FD
:103EE000284605F06BF80146204605F0E4F838B99D
:103EF00048465146424600F07BF80DB0BDE8F08FD1
:103F000009A831462A463B4600F06AFBB4682946B8
:103F1000204605F069FCBE6ABF6B3146824605F05B
:103F2000D5FA394605F04AF883462046294605F079
:103F300045F83146029005F0C9FA394605F03EF8D9
:103F40000546DDE90901DDE90B8701914FF07C5160
:103F500005F0BCFA4FF07C5105F030F806463846C3
:103F60004FF07C5105F0B2FA01464FF07C5005F05D
:103F70003BFC07465846002105F096F80446584693
:103F8000514605F0FDF8002C08BF20460890404639
:103F90004FF07C51CDE9066705F098FA4FF07C515F
:103FA00005F00CF8044601984FF07C5105F08EFAAC
:103FB00001464FF07C5005F017FC064628460021CC
:103FC00005F072F802990746284605F0D9F8002F47
:103FD00008BF3846DDE91637059006A903AA48460A
:103FE000CDE903460097FFF7AFFD0DB0BDE8F08FB8
:103FF00080B588B00B460021CDE9051107914FF03F
:104000007E519446CDE90211049105A902AACDF88A
:1040100000C0FFF799FD08B080BD00002DE9F04F0A
:1040200087B088464968002900F00A818446D8F89C
:104030000C00002800F00481D8F81400002800F0DB
:10404000FF8098F82200411E0840000601BF98F842
:104050002300411E08405FEA006010D08BA0FCF7EF
:10406000EBF843F23F30C0F60100FCF7E5F898F8B2
:10407000221098F8232090A0FCF7DEF8FEDE98E8E6
:10408000CF008CE8CF00D8F82010D8E90602CCF891
:104090002010CCE9060298F822000022B2EB500F63
:1040A0008CF826200AD09CF826104308C3F34E0350
:1040B000002B01F10101F9D18CF8261098F823109A
:1040C0008CF82720B2EB510F0AD09CF827204B0820
:1040D000C3F34E03002B02F10102F9D18CF8272023
:1040E000B8F81E209CF8273010449CF82620013890
:1040F0001041B8F8202011440139194141EA000269
:1041000012F47F4F40F0A9808CF82800C2B2D8F892
:1041100008008CF82910C9B25143ACF8241020B122
:1041200049006446FCF7F5F9A446BCF82400D8F829
:10413000049000EB400098F822E098F8235098F89B
:104140000040D8F8086009EB80074FF000084FF0F6
:10415000000A4846CDF81890CDE9045CCDE9026E1E
:1041600004E000BF09F10C09B94550D289F808E014
:1041700089F80950A9F80A8024B3012C4DD1A04632
:104180009CF828B09CF829401FFA8AF63046FDF7C3
:10419000F5FF05467008FDF7F1FF5D450AF1010ADC
:1041A000F2D2A042F0D289F80650DDF814C0DDE961
:1041B00003E5029E89F8070044464FF0000896B9CF
:1041C000D0E700BF9CF828001FFA8AF182B2B1FB49
:1041D000F2F101FB10A00AF1010A89F8060089F842
:1041E0000710002EBED0069899F8061099F80720FF
:1041F0009CF82830A9EB000003FB02114AF6AB2221
:104200008008CAF6AA22504326F81100AAE76046A1
:1042100000F080F807B0BDE8F08F43F27D70C0F683
:104220000100FCF709F843F2A350C0F60100FCF7C7
:1042300003F843F27660C0F60100FCF7E3F8FEDE17
:1042400043F25170C0F60100FBF7F6FF43F2E16064
:10425000C0F60100FCF7D6F8FEDE23A0FBF7ECFF6A
:1042600043F23F30C0F60100FBF7E6FF98F822105A
:1042700098F82320B8F81E30B8F8207043F23E605A
:10428000C0F601000097FBF7D7FFFEDE2E2E2F2E83
:104290002E2F4C69622F65676C5F72617374657253
:1042A000697A65725F74696C696E672E63707028D5
:1042B00031313529203A200054696C652064696DDC
:1042C000656E73696F6E73202825692078202569D3
:1042D00029206D75737420626520706F7765722D6B
:1042E0006F662D322E0D0A002E2E2F2E2E2F4C698A
:1042F000622F65676C5F726173746572697A65724B
:104300005F74696C696E672E63707028313237296B
:10431000203A20004168002908BF704790F8282003
:1043200090F829305A4302EB420201EB820200234B
:104330008B800C319142FBD30021C0F82A107047CA
:1043400010B5044600F040F92E21FCF7E2F82046B3
:1043500010BD000070470000704700002DE9F04FCD
:1043600081B08A460446184600219B46904604F0D8
:10437000A2FE00285CD00A9D5946284604F094FE0F
:10438000002862D040F6DB71C4F24901504604F0C7
:10439000A0FE002860D02846594605F025FA0021E5
:1043A00007464FF0000904F071FE00285BD10B9E18
:1043B0004FF07E50394604F0E3FE294605F086F8BA
:1043C000074650464FF07C51002E1CBF4FF07E56E2
:1043D00087F0004705F07AF804F036FD01464FF00B
:1043E0007E5004F0CDFE4146054605F06FF880464C
:1043F0003046394604F0E2FD064687F00040594653
:1044000005F064F84FF07E51C4E90059C4E90299FF
:10441000C4E90498C4E90699C4E90899A662C4E904
:104420000B19C4E90D90C4F83C9001B0BDE8F08FC1
:1044300043F29E20C0F60100FBF7FEFE43F2E410BB
:10444000C0F60100FBF7DEFFFEDE0DA0FBF7F4FE79
:1044500013A0FBF7D7FFFEDE18A0FBF7EDFE1FA0B1
:10446000FBF7D0FFFEDE43F2FE20C0F60100FBF7B3
:10447000E3FE43F2CD10C0F60100FBF7C3FFFEDE02
:104480002E2E2F2E2E2F4C69622F65676C5F74665F
:104490006F726D332E68283139393129203A200066
:1044A000617373657274206661696C6564203A207B
:1044B0006661725F3E6E6561725F0D002E2E2F2E5B
:1044C0002E2F4C69622F65676C5F74666F726D3357
:1044D0002E68283139393229203A200061737365FA
:1044E0007274206661696C6564203A20666F765F3D
:1044F00077696474685F3C6D6174683C543E3A3A15
:1045000070690D00C1600282704700000170704741
:1045100080B5A3F1010C13EA0C0F08D1416104210D
:1045200001EB4C018283A0F81AC0018380BD06A074
:10453000FBF782FE43F23F30C0F60100FBF77CFE42
:104540000CA0FBF75FFFFEDE2E2E2F2E2E2F4C69C8
:10455000622F65676C5F726173746572697A6572E8
:104560005F74696C696E672E63707028383129201A
:104570003A2000004E756D626572206F6620636C94
:1045800075737465727320696E20636C75737465DE
:1045900072207374726970206D7573742062652067
:1045A000706F7765722D6F662D320D00C1830284A6
:1045B00070470000DDF800C0C0E9011280F8223029
:1045C00080F823C070470000012101700021416183
:1045D000C0E90111C1600182C0E907117047000004
:1045E0002DE9F04F87B08B46D96A054608464FF053
:1045F0007E511E46144604F049FD002800F0C2809A
:10460000F06B002104F042FD002800F0BB80204642
:1046100021460696049504F059FFDBF80870DBF894
:10462000005006463846214604F050FF05902846C3
:10463000294604F04BFF05463846394604F046FF4C
:10464000294604F0BBFC3146039605F0CDF8002165
:10465000054604F030FD002800F09B80284604F059
:10466000DDFB0646DBE90070DBF8085002903046BF
:10467000394604F02BFF81463846214604F026FFD8
:10468000804630462946019404F020FF059C82466E
:104690004846214605F0A8F806990E68314604F010
:1046A00015FF07464046514604F088FC014638464F
:1046B00004F066FD049A494610602046914604F0D5
:1046C0007DFC314604F002FF06465046414605F0A7
:1046D0008BF80146304604F053FDC9F808000298F3
:1046E000014604F0F3FE06462846294604F0EEFE95
:1046F000314604F063FC039905F076F80021054685
:1047000004F0D9FC002844D0284604F087FBDBE9FC
:1047100001740646394604F0D9FE019982463846AE
:1047200004F0D4FE80463046214604F0CFFE059DBD
:1047300006465046294605F057F806994C69214629
:1047400004F0C4FE07464046314604F037FC0146FB
:10475000384604F015FDC9F804002846514604F017
:104760002DFC214604F0B2FE04463046414605F0D9
:104770003BF80146204604F003FDC9F80C0007B0E1
:10478000BDE8F08F09A0FBF757FD10A0FBF73AFE3C
:10479000FEDE43F2A970C0F60100FBF74DFD43F2C7
:1047A0009160C0F60100FBF72DFEFEDE2E2E2F2EAF
:1047B0002E2F4C69622F65676C5F74666F726D3364
:1047C0002E68283230363529203A2000617373650F
:1047D0007274206661696C6564203A207632705F7D
:1047E0002E7A2E773D3D31202626207632705F2EA0
:1047F000772E773D3D300D002DE9F04F8BB083468D
:104800009BF8CC501E889BF8CDC05F8805FB0163E8
:10481000149808930CFB027304880793B0F8028085
:10482000DBF8C830DBF80400A4EB0609A8EB070EA0
:1048300003EB46066F4306EB470AD0B10768079EB5
:10484000D7F804C0B7B2089EDBF83010AAEB030318
:104850000BF120025B101FFA8EFE1FFA89F4B6B22C
:10486000CDE90067CDE9024E0495E0470BB0BDE805
:10487000F08F4D43DBF8B000BBF8C0100CFB02F624
:1048800000227746FCF7F8FA281901380590B8B2EB
:10489000069007982A211830079006EB080000F1CF
:1048A0001706DBF8B8008DF82510102100221FFA3A
:1048B00089F9FCF7E1FADBF8AC000DF125010122E2
:1048C0004FF0FF33FCF78EFEDBF8B8001021012219
:1048D000FCF7D2FA089DDBF8AC00290A0DF126049A
:1048E0008DF82610214601224FF0FF33FCF77AFEA7
:1048F000DBF8AC00214601224FF0FF338DF8265043
:10490000FCF770FE059CDBF8AC00210A0DF12705D1
:104910008DF82710294601224FF0FF33FCF762FE85
:10492000DBF8AC00294601224FF0FF338DF8274019
:10493000FCF758FE2B21DBF8B8008DF82810102169
:104940000022FCF799FADBF8AC000AA901224FF02B
:10495000FF33FCF747FEDBF8B80010210122FCF71B
:104960008BFA079CDBF8AC00210A0DF129058DF8C4
:104970002910294601224FF0FF33FCF733FEDBF804
:10498000AC00294601224FF0FF338DF82940FCF797
:1049900029FE310ADBF8AC000DF12A058DF82A104A
:1049A000294601224FF0FF33FCF71CFEDBF8AC0078
:1049B000294601224FF0FF338DF82A60FCF712FEE2
:1049C0002C21DBF8B8008DF82B1010210022FCF709
:1049D00053FADBF8AC000DF12B0101224FF0FF334D
:1049E000FCF700FEDBF8B80010210122FCF744FAC6
:1049F0009BF8CC00069909AD48430AEB400800BF7C
:104A00000AEB4907AAF1020636F8024FDBF8AC00C0
:104A1000210A8DF82410294601224FF0FF33FCF7BC
:104A2000E1FDDBF8AC00294601224FF0FF338DF8A1
:104A30002440FCF7D7FDB01CB842E5D39BF8CC006E
:104A40000AEB400AC245DBD3DBF8B000BBF8C0106C
:104A50000122FCF711FA0BB0BDE8F08F70B51446D7
:104A60000D460646FEF784FF286A0068C6F8C800AF
:104A7000608CA6F8CC0070BD2DE9F04F83B0DDE965
:104A80000EB8DDE90CA904464FF47A701D461646AF
:104A90000F46FCF7E9F810984146A4F8C4001198B5
:104AA0000022A4F8C6002846C4E92B76C4E92D5A92
:104AB000C4F8BC90A4F8C0B0A4F8C280FCF7DCF93C
:104AC0000520FCF7D1F8D4F8B400B4F8C2100122E4
:104AD000FCF7D2F90520FCF7C7F8D4F8B000B4F819
:104AE000C0100022FCF7C8F942F6D860C0F60100F9
:104AF000471C0F250DF1020808E000BFB878033706
:104B0000FF2808BFF420FCF7AFF8013D280625D0A8
:104B10003978D4F8B8008DF8021010210022FCF783
:104B2000ABF9D4F8AC00414601224FF0FF33FCF75B
:104B300059FD7E783006E1D4D4F8B8001021012266
:104B40000237FCF799F9D4F8AC00394632464FF0F9
:104B5000FF33FCF747FD3744013DD7E717F8015B0A
:104B6000002DD3D12021D4F8B8008DF803101021E6
:104B700000220026FCF780F9D4F8AC000DF1030107
:104B800001224FF0FF33FCF72DFD2A21D4F8B800A5
:104B90008DF8041010210022FCF76EF9D4F8AC0057
:104BA00001A901224FF0FF33FCF71CFDD4F8B80037
:104BB00010210122FCF760F9D4F8AC000DF10505D5
:104BC000294601224FF0FF338DF80560FCF70AFDFE
:104BD000D4F8AC00294601224FF0FF338DF8056070
:104BE000FCF700FDD4F8AC000DF1060529460122C2
:104BF0004FF0FF338DF80660FCF7F4FC9F21D4F8EA
:104C0000AC008DF80610294601224FF0FF33FCF767
:104C1000E9FC2B21D4F8B8008DF8071010210022F0
:104C2000FCF72AF9D4F8AC000DF1070101224FF08E
:104C3000FF33FCF7D7FCD4F8B80010210122FCF7B1
:104C40001BF9D4F8AC0002AD294601224FF0FF3326
:104C50008DF80860FCF7C6FC1821D4F8AC008DF87C
:104C60000810294601224FF0FF33FCF7BBFCD4F8B3
:104C7000AC000DF10905294601224FF0FF338DF8F4
:104C80000960FCF7AFFC6721D4F8AC008DF809107F
:104C9000294601224FF0FF33FCF7A4FC2C21D4F865
:104CA000B8008DF80A1010210022FCF7E5F8D4F8BE
:104CB000AC000DF10A0101224FF0FF33FCF792FC2A
:104CC000D4F8B80010210122FCF7D6F84FF4485769
:104CD0000DF10B05D4F8AC00294601224FF0FF334B
:104CE0008DF80B60FCF77EFCD4F8AC00294601225D
:104CF0004FF0FF338DF80B60FCF774FC013FE9D1F6
:104D00000BA0FBF77FFBD4F8B000B4F8C010012271
:104D1000FCF7B2F84FF47A70FBF7A6FFD4F8BC00AA
:104D2000B4F8C6100022FCF7A7F803B0BDE8F08F76
:104D30005354373733352067726170686963732065
:104D400064657669636520696E697469616C697A06
:104D50006564210D0000000080B5FEF717FE49F6DE
:104D6000F011C2F2000142F688720B68C0F601022F
:104D70000832002B026001BF08600021C0F8C81093
:104D800080BD03A0FBF758FA0DA0FBF73BFBFEDE4E
:104D90002E2E2F2E2E2F4C69622F6472697665722B
:104DA000732F65676C5F6465766963655F737437DD
:104DB0003733352E63707028393629203A200000A9
:104DC000617373657274206661696C6564203A2052
:104DD00021735F6163746976655F6465760D0000B9
:104DE00080B542F68871C0F601010831016049F6CC
:104DF000F011C2F2000100220A60FEF7DFFD80BD63
:104E00002DE9F04381B00668002E4ED043698B42F5
:104E100009D90F32012303EB121CC2681FFA8CF36D
:104E2000B2EB031F03D2406801B0BDE8F08387698D
:104E30004FF6FF791F44B2EB071F3CBF002282618F
:104E4000D0F818805FEA0C4706EB081E10D000254A
:104E5000774600BF3E887C884E451CBF826822F89A
:104E600016902E19B5B29D4207EB0417F2D301E05C
:104E700000260025826808F10104AEF80010AEF8A3
:104E800002C022F8114008EB03019D42816107D95D
:104E900018010EEB00012EF80090A6EB0C004880E4
:104EA0000EF1100001B0BDE8F08306A0FBF7C4F9D5
:104EB00043F23F30C0F60100FBF7BEF90CA0FBF750
:104EC000A1FAFEDE2E2E2F2E2E2F4C69622F656743
:104ED0006C5F726173746572697A65725F63616336
:104EE00068652E63707028383229203A200000004F
:104EF000566572746578206361636865206E6F74AF
:104F000020696E697469616C697A65642E0D0000B0
:104F10002DE9F04F81B08946196806460A984FEA94
:104F2000116B00B20BEB8B011D46904600284FEA37
:104F3000810718D4F068B0B1B068002863D00B992D
:104F400072698A423ED94FF0FF3230F8110092B2B6
:104F500090421ABF326802EB001A4FF0000ABAF111
:104F6000000F34D137E0306987423AD8D6F804A030
:104F70004846514642462B4603F032F8BBF1000F3B
:104F800025D0AAF1140700BF57F8145F4FF07E50E8
:104F9000F968D7E9016804F0F3F804462846214689
:104FA00004F094FA38602046314604F08FFA7860B5
:104FB0002046414604F08AFABBF1010BB860FC6060
:104FC000E2D104E04FF0000ABAF1000F03D05046DE
:104FD00001B0BDE8F08F30463A46FFF711FF824638
:104FE000C6E722A0FBF728F943F23F30C0F60100E4
:104FF000FBF722F9316943F21500C0F601003A4689
:10500000FBF71AF9FEDE03A0FBF716F90CA0FBF77D
:10501000F9F9FEDE2E2E2F2E2E2F4C69622F65679A
:105020006C5F726173746572697A65725F636163E4
:1050300068652E682831363229203A2000000000A9
:10504000617373657274206661696C6564203A20CF
:105050006D5F6366672E636C75737465725F7663EC
:10506000616368655F6F6666730D00002E2E2F2EDC
:105070002E2F4C69622F65676C5F72617374657265
:10508000697A65725F63616368652E6828313431BF
:1050900029203A200000000010B50C46C96809B16B
:1050A0002268AAB3227892070ED14FF6F072C0F2AE
:1050B0000F02914218D294E80E50646980E80E50B5
:1050C000446100F071F810BD43F2EA50C0F60100EF
:1050D000FBF7B2F843F23F30C0F60100FBF7ACF843
:1050E00026A0FBF78FF9FEDE43F21460C0F6010044
:1050F000FBF7A2F843F23F30C0F60100FBF79CF843
:10510000E16843F2AC50C0F60100FBF795F8FEDE13
:1051100003A0FBF791F80DA0FBF774F9FEDE00BFCA
:105120002E2E2F2E2E2F4C69622F65676C5F7261B9
:1051300073746572697A65725F63616368652E6313
:10514000707028353929203A20000000617373659A
:105150007274206661696C6564203A202163666719
:105160005F2E63616368655F73697A65207C7C206C
:105170006366675F2E63616368650D0056657274D0
:1051800065782063616368652064617461206E6F77
:10519000742070726F7065726C7920616C69676ED3
:1051A00065642E0D0000000080B5014600680028EF
:1051B00008BF80BD002088610A68D1E90203D1F8E8
:1051C00014C04FF6FF711180190951804FEA4C014C
:1051D00000B919B9FF22FBF794F980BD03A0FBF7D2
:1051E0002BF80AA0FBF70EF9FEDE00BF2E2E2F2EA5
:1051F0002E2F4C69622F65676C5F636F72652E6836
:105200002835353229203A2000000000617373658B
:105210007274206661696C6564203A20216E756D38
:105220005F62797465735F207C7C20705F0D000085
:1052300080B500F079F90021816141610161C160AF
:1052400081604160016080BDF0B581B006981C4668
:1052500000EB400015460E4603EB8007B6F88000D1
:10526000A1882246814238BF0146A6F88010304608
:1052700029460023FDF7F2FC0C34BC42EED301B00A
:10528000F0BD000070B5DDE907C0099C00FB0CF023
:10529000049B01EB400EA4EB0C0080B201EB4C042C
:1052A0008D1E00BF11685E1C31F81310334625F8BF
:1052B000021FA91CA142F5D3714500EB060328BFCC
:1052C00070BDEBE72DE9F04F85B00C46DDE90E8AA5
:1052D000DDE91012476801EB0806D7F8B000B7F80F
:1052E000C01002EB0A050022029301960095FBF71D
:1052F000C3FD2A21D7F8B8008DF80C101021002228
:10530000A6F1010B0AF1180605F11709FBF7B4FD28
:10531000D7F8AC0003A901224FF0FF33FCF762F984
:10532000D7F8B80010210122FBF7A6FD4FEA18219B
:10533000D7F8AC000DF10D058DF80D1029460122AE
:105340004FF0FF33FCF74EF9D7F8AC0029460122A5
:105350004FF0FF338DF80D80FCF744F94FEA1B2125
:10536000D7F8AC000DF10E058DF80E10294601227C
:105370004FF0FF33FCF736F9D7F8AC00294601228D
:105380004FF0FF338DF80EB0FCF72CF92B21D7F836
:10539000B8008DF80F1010210022FBF76DFDD7F833
:1053A000AC000DF10F0101224FF0FF33FCF71AF9A9
:1053B000D7F8B80010210122FBF75EFD310AD7F8BB
:1053C000AC0004AD8DF81010294601224FF0FF33D8
:1053D000FCF708F9D7F8AC00294601224FF0FF335B
:1053E0008DF81060FCF7FEF84FEA1921D7F8AC00F1
:1053F0000DF111058DF81110294601224FF0FF33F0
:10540000FCF7F0F8D7F8AC00294601224FF0FF3343
:105410008DF81190FCF7E6F82C21D7F8B8008DF83C
:10542000121010210022FBF727FDD7F8AC000DF178
:10543000120101224FF0FF33FCF7D4F8D7F8B8007F
:1054400010210122FBF718FD02980DF11305A0EBC6
:1054500008000290019886B2009880B2019000BFC7
:105460000F991FFA8AF0401A1299029ADDF838B0A3
:1054700000FB01281FFA8BF02168404431F810909E
:10548000D7F8AC004FEA19218DF8131029460122F4
:105490004FF0FF33FCF7A6F8D7F8AC0029460122FD
:1054A0004FF0FF338DF81390FCF79CF80BF1010BD4
:1054B0001FFA8BF0B042DDD30AF1010A01991FFAFD
:1054C0008AF08842CCD3D7F8B000B7F8C0100122D8
:1054D000FBF7D2FC05B0BDE8F08F000080B500F00E
:1054E00007F842F69871C0F601010831016080BDED
:1054F00042F6A871C0F60101083101607047000052
:1055000042F6B871C0F60101083101607047000031
:105510008160426170470000416002617047000095
:105520000160C260704700000021C0E90011C0E9BD
:105530000211C0E9041170472DE9F04FABB081466C
:10554000D9F83CB0806A5946289003F0BFFFD9F8DB
:105550002C10D9F838402A9105460846214603F018
:10556000B5FF0146284604F03FF9D9F80010D9F8F4
:105570000C602291D9F80410D9F80870299125906F
:10558000204631462697279603F0A0FF0546584649
:10559000394603F09BFF0146284604F025F9D9F867
:1055A0001C801D903846414603F090FFD9F818A0A2
:1055B00005463046514603F089FF0146284604F06F
:1055C00013F924902A98514603F080FF0546289845
:1055D000414603F07BFF0146284604F005F9D9F85F
:1055E0001410074620902598239103F06FFFD9F8F7
:1055F00024500646204641460A94CDF8648003F0C4
:1056000065FF04461C9058465146CDF830B0CDF8A1
:1056100084A003F05BFF01461B90204604F0E4F8F1
:10562000014628461F9503F051FF0146304603F01E
:10563000C5FCD9F8344006463846214603F046FFFB
:105640000146304603F0BAFCDDF874A01E9085F0E8
:105650000041504603F03AFF06462A98269903F087
:1056600035FF0746DDE9271003F030FF01463846D5
:1056700004F0BAF82146804603F028FF0146304680
:1056800004F0B2F8299F06462598394603F01EFF1C
:105690000146304604F0A8F8DDF890B01A9058465C
:1056A0002146139403F012FF0646DDE91B0104F0C6
:1056B0009BF8394603F00AFF0146304603F07EFCB2
:1056C000239C05465046214603F000FF294603F07F
:1056D00075FC82462098394603F0F8FE05464046A0
:1056E000214603F0F3FE294604F07EF805461F9894
:1056F00059461E9E03F0EAFE0146284604F074F85F
:1057000083462298314603F0E1FED9F81010054691
:10571000249108461A99884603F0D8FE0146284687
:1057200003F04CFCD9F82010054625910846514657
:1057300003F0CCFE0146284603F040FCD9F8304087
:10574000054658462146CDF8489003F0BFFE014675
:10575000284603F033FC0021074603F097FC00289D
:105760000B9440F0AF824FF07E50394603F008FDB5
:10577000054620903046294603F0A8FE1890404682
:10578000294603F0A3FE16905046294603F09EFEDC
:1057900015905846294603F099FEDDF8A8B01490FC
:1057A0005846214603F092FE0C9EDDF89480054693
:1057B0003046414603F08AFE0146284604F014F8BC
:1057C000229F82461C9030463946254603F07EFED5
:1057D000279C06462046294603F078FE01463046BF
:1057E00004F002F81D902046249C214603F06EFE32
:1057F000199D06462846394603F068FE01463046A4
:1058000003F0F2FF1B902846414603F05FFE064678
:105810005846214603F05AFE0146304603F0E4FFA5
:1058200080461E90219880F00041504603F04EFEC5
:1058300007460C98214603F049FE0B990646284678
:1058400003F044FE0146304603F0CEFF289D044697
:105850002846214603F03AFE0146384603F0C4FFCD
:10586000DDF828B007465846414603F02FFE0146B2
:10587000384603F0B9FF209E0146304603F026FE6D
:10588000DDF8748011902846414603F01FFE8246E1
:105890002798259903F01AFE05461A902A9822990E
:1058A00003F014FE81462846494603F09DFF014659
:1058B000584603F00BFE514603F080FB269F1C99CF
:1058C0000546384603F002FE294603F077FB014601
:1058D000304603F0FBFDDDF86CA0109050465946B1
:1058E00003F0F4FD05463846214603F0EFFD294656
:1058F00003F07AFF219C05462046414603F0E6FD71
:105900000146284603F070FF0146304603F0DEFDF5
:105910001E990F90384603F0D9FD1A99054648465E
:1059200003F062FF0146204603F0D0FD294603F054
:1059300045FB05462898514603F0C8FD294603F06B
:105940003DFB0146304603F0C1FD139E259F0E909E
:105950003046394603F0BAFDDDF87CA0DDF82CB006
:1059600005465046594603F0B1FD0146284603F06E
:105970003BFF299C1E902046594603F0A7FD054693
:105980003046229E314603F0A1FD0146284603F031
:105990002BFFDDF88C801D904046314603F096FDCC
:1059A00005462046249C214603F090FD01462846EA
:1059B00003F01AFF1B905046214603F087FD054671
:1059C00040463946464603F081FD0146284603F02D
:1059D0000BFF07461C9019981E9903F077FD80462F
:1059E0003046594603F072FD05461A901398214639
:1059F00003F06CFD81462846494603F0F5FE2A9DDA
:105A00000146284603F062FD0146404603F0D6FAFF
:105A1000DDF830B006465846394603F057FD3146AA
:105A200003F0CCFA209F0146384603F04FFD0D905D
:105A30001D9885F0004103F049FD22990646504625
:105A400003F044FD05462998259903F03FFD0146E2
:105A5000284603F0C9FE80465846414603F036FD0D
:105A60000146304603F0C0FE279C1E99054620469D
:105A700003F02CFD0146284603F0B6FE01463846E9
:105A80003E4603F023FDDDF86CA01E9058465146BB
:105A900003F01CFD1A990546484603F0A5FE014691
:105AA000204603F013FD0146284603F087FA199FAC
:105AB0001D990546384603F009FD294603F07EFA94
:105AC0000146304603F002FD1D901C98214603F06C
:105AD000FDFC05463846414603F0F8FC294603F034
:105AE00083FE05462A98514603F0F0FC01462846FD
:105AF00003F07AFE0146304603F0E8FCDDF828B0FA
:105B0000DDF87CA01C905846514603F0DFFCDDF820
:105B1000A090139E05464846314603F0D7FC014647
:105B2000284603F061FE269C1A902046314603F079
:105B3000CDFC299F06465846394603F0C7FC01466E
:105B4000304603F051FE219D07902846394603F068
:105B5000BDFCDDF88C8006462046414603F0B6FCCD
:105B60000146304603F040FE17904846414603F098
:105B7000ADFC06462846514603F0A8FC01463046D7
:105B800003F032FE04460990249880F000411A98F0
:105B900003F09CFC13990746284603F097FC064641
:105BA0005846414603F092FC0146304603F01CFE85
:105BB000259E0690314603F089FC0146384603F0E5
:105BC00013FE0B9D07462046294603F07FFC014645
:105BD000384603F009FE209C214603F077FCDDF8EF
:105BE0001C801B904046314603F070FC2999074603
:105BF000484603F06BFC81462698514603F066FC4C
:105C000082464846514603F0EFFD294603F05EFC0C
:105C10000146384603F0D2F9229E1A9907463046CB
:105C200003F054FC394603F0C9F90146204603F05D
:105C30004DFCDDF85CB008905846294603F046FC60
:105C4000069905463046374603F040FC294603F0E6
:105C5000CBFD249E05463046414603F037FC014605
:105C6000284603F0C1FD0146204603F02FFC1A90A0
:105C70000998394603F02AFC054650464946DDF8A6
:105C8000388003F0B1FD0146304603F01FFC0146A9
:105C9000284603F093F925990546584603F016FC6B
:105CA000294603F08BF9214603F010FCDDE90FECE7
:105CB000DDF844A0DDE914B4169F189B0D9D089EE5
:105CC00017901AE000201A9000201B9000201C90D2
:105CD00000201D9000201E90002000261790002517
:105CE0004FF000084FF0000E4FF0000C4FF0000A8C
:105CF0004FF0000B002400270023DDF8489017998F
:105D000009F1500080E800541E98D9F8D8A0C9F8CD
:105D100064001D98C9E91037C9F868001C98C9E9E2
:105D2000124BC9F86C001B98C9E91785C9E91C0614
:105D30001A98D9E92C84C9F87800D9F8C000D9F8A4
:105D4000B8701D90D9F8C400C9F87C105146209055
:105D500003F0BCFBD9F8C8B0D9F8D4600546584662
:105D6000314603F0B3FB0146284603F03DFD0146F2
:105D70004046CDF87080169103F0A8FB05463046EA
:105D800039461E9603F0A2FB064650462146CDF842
:105D90006CA003F09BFB0146304603F025FD8246D4
:105DA0001D98514603F092FB0146284603F006F980
:105DB000D9F8D080064658462146CDF85CB01894F4
:105DC00003F084FB0546209839461A9703F07EFBC2
:105DD0000146284603F008FD04464046214603F0EC
:105DE00075FB314603F0EAF800210646002503F072
:105DF0004DF90028CDF8448040F0F180179D4146D0
:105E0000284603F063FB15942C461B9DDDF874B007
:105E100007462846594603F059FB0146384603F029
:105E2000E3FCCDF83CA0DDF870A014905046294664
:105E300003F04CFB1A9D07462846414603F046FBFB
:105E40000146384603F0D0FC10905846294603F02E
:105E50003DFB07465046214603F038FB01463846D5
:105E600003F0C2FC1E9C0E902046594603F02EFB08
:105E7000209D07462846414603F028FB0146384648
:105E800003F0B2FCB146189E0D903046414603F037
:105E90001DFB07465046214603F018FB01463846D5
:105EA00003F0A2FC08905046294603F00FFB07467A
:105EB0005846314603F00AFB0146384603F094FC8D
:105EC00080464FF07E50494603F05AF9074616982F
:105ED000394603F0FBFA81460F98394603F0F6FA8B
:105EE00009901598394603F0F1FA0790149839464D
:105EF00003F0ECFA06461098394603F0E7FA8246BA
:105F00000E98394603F0E2FA15900D98394603F0E1
:105F1000DDFA04460898394603F0D8FA1690404650
:105F2000394603F0D3FA149012981299D0F8BC5065
:105F30001298D1F8DC80D0F8CC000D9680F00047A4
:105F40003046394603F0C2FA834648462946CDF822
:105F5000149003F0BBFA0146584603F045FC064690
:105F600020460F94159C414603F0B0FA0146304696
:105F700003F03AFC834650463946CDF838A003F08A
:105F8000A5FA06460998294603F0A0FA01463046CC
:105F900003F02AFC06461698414603F097FA01469C
:105FA000304603F021FC10902046394603F08EFA6B
:105FB000064607982946074603F088FA0146304608
:105FC000149C03F011FC05462046414603F07EFA7E
:105FD0000146284603F008FC1299054615E000200A
:105FE00014900020169000200F90002010900020A8
:105FF000159000200E9000200D90002009900020A8
:106000004946002705904FF0000B0D983E46C1F819
:1060100090001598C1F88870C1F898001098169FE4
:10602000DDF81490099CCDF810B0C1F88CB0DDF803
:1060300038B0C1F89C00DDF83C80C1F8A470149819
:10604000229F4A46C1F88090C1F88440C1F894B0BC
:10605000C1F8A080C1E92A0538468946114606954F
:10606000934603F033FA05462498214603F02EFAAE
:106070000146284602F0A2FF05462598314603F066
:1060800025FA0146284602F099FF129029985946B0
:1060900003F01CFA05462398214603F017FA01463F
:1060A000284602F08BFFDDF87C80054640463146ED
:1060B00003F00CFA0146284602F080FF089026986B
:1060C000594603F003FA05462198214603F0FEF9EC
:1060D0000146284602F072FF05462898314603F033
:1060E000F5F90146284602F069FF079027985946BE
:1060F00003F0ECF9DDF864A005465046214603F0B4
:10610000E5F90146284602F059FF05462A9831462E
:1061100003F0DCF90146284602F050FF0D9E09907D
:106120003846314603F0D2F90E9C054624982146A4
:1061300003F0CCF90146284602F040FFDDF894B0A8
:10614000159F05465846394603F0C0F901462846D2
:1061500002F034FF05902998314603F0B7F905465F
:106160002398214603F0B2F90146284602F026FFA3
:1061700005464046394603F0A9F90146284602F093
:106180001DFF03902698314603F0A0F9054621989B
:10619000214603F09BF90146284602F00FFFDDF887
:1061A000A08005464046394603F090F9014628464E
:1061B00002F004FF02902798314603F087F9054664
:1061C0005046214603F082F90146284602F0F6FEC9
:1061D00005462A98394603F079F90146284602F027
:1061E000EDFE229F0F9C15903846214603F06EF974
:1061F000169E05462498314603F068F90146284664
:1062000002F0DCFE05465846DDF850B0594603F072
:106210005DF90146284602F0D1FE0E9029982146EC
:1062200003F054F905462398314603F04FF901462F
:10623000284602F0C3FE05461F98594603F046F96A
:106240000146284602F0BAFE0D902698214603F03A
:106250003DF905462198314603F038F901462846B4
:1062600002F0ACFE05464046594603F02FF90146C0
:10627000284602F0A3FE01902798214603F026F954
:1062800005465046314603F021F90146284602F002
:1062900095FE05462A98594603F018F90146284606
:1062A00002F08CFEDDF8108083463846414603F04C
:1062B0000DF9109F05462498394603F007F9014669
:1062C000284602F07BFE069C05462598214603F0F1
:1062D000FDF80146284602F071FE01460B9802F0D7
:1062E0006DFE25902998414603F0F0F80546239865
:1062F000394603F0EBF80146284602F05FFE0546FA
:106300001F98214603F0E2F80146284602F056FEA7
:106310000146139802F052FE05462698414603F0C6
:10632000D5F806462198394603F0D0F801463046A4
:1063300002F044FE06462898214603F0C7F80146BD
:10634000304602F03BFE01460A9802F037FE064650
:106350002798414603F0BAF882461998394603F067
:10636000B5F80146504602F029FE07462A98214614
:1063700003F0ACF80146384602F020FE01460C98C6
:1063800002F01CFE129909F58872C9F8E01008990C
:10639000C9F81C01C9F8E41007991C98C9F8E8105D
:1063A0000999D9E91284C9F8EC100599C9F8F010D7
:1063B0000399C9F8F4100299C9F8F8101599C9F8A9
:1063C000FC100E99C9F800110D99C9F80411019932
:1063D000C9E9421B259962C2D9E91076394603F012
:1063E00075F8DDF874A005465046314603F06EF8A6
:1063F0000146284602F0E2FDDDF844B00546584665
:10640000414603F063F80146284602F0D7FDD9F86B
:10641000BC1005462046289103F058F8014628464E
:1064200002F0CCFD27901898394603F04FF8054646
:106430002098314603F04AF80146284602F0BEFD96
:1064400005461E98414603F041F80146284602F0F1
:10645000B5FDD9F8CC10054620462A91259403F0C5
:1064600035F80146284602F0A9FD26901A983946CB
:1064700003F02CF805461798314603F027F801463B
:10648000284602F09BFD05461B98414603F01EF886
:106490000146284602F092FDD9F8DC100546204658
:1064A000299103F013F80146284602F087FDD9F838
:1064B000508024901C98414603F008F8D9F8547095
:1064C00005465046394603F001F80146284602F0D9
:1064D00075FDD9F8585006465846294602F0F6FF91
:1064E0000146304602F06AFDD9F85C40DDF8A0A014
:1064F00006465046214602F0E9FF0146304602F0CA
:106500005DFDDDF860B023905846414602F0DEFFA5
:1065100006462098394602F0D9FF0146304602F07F
:106520004DFD06461E98294602F0D0FF0146304632
:1065300002F044FD06462A982146219402F0C6FF47
:106540000146304602F03AFD22901A98414602F088
:10655000BDFF06461798394602F0B8FF014630469F
:1065600002F02CFD06461B98294602F0AFFF0146BB
:10657000304602F023FD05462998214602F0A6FF89
:106580000146284602F01AFDD9F860801F901C9839
:10659000414602F09BFFD9F8647005461D983946C4
:1065A00002F094FF0146284602F008FDD9F8685031
:1065B00006461198294602F089FF0146304602F04E
:1065C000FDFCD9F86C4006465046214602F07EFF9D
:1065D0000146304602F0F2FC19905846414602F05E
:1065E00075FF06462098394602F070FF0146304696
:1065F00002F0E4FC06461E98294602F067FF0146B9
:10660000304602F0DBFC06462A982146159402F03B
:106610005DFF0146304602F0D1FC16901A984146C3
:1066200002F054FFDDF85CB006465846394602F0E9
:106630004DFF0146304602F0C1FC06461B98294634
:1066400002F044FF0146304602F0B8FC05462998A6
:10665000214602F03BFF0146284602F0AFFCD9F884
:10666000707014901C98394602F030FFD9F87450BD
:1066700006461D98294602F029FF0146304602F0E1
:106680009DFCD9F878A006461198514602F01EFFED
:106690000146304602F092FCD9F87C400646289824
:1066A000214602F013FF0146304602F087FC289095
:1066B0001898394602F00AFF06462098294602F04B
:1066C00005FF0146304602F079FC06461E98514609
:1066D00002F0FCFE0146304602F070FC06462A98A5
:1066E000214602F0F3FE0146304602F067FC804688
:1066F0001A98394602F0EAFE06465846294602F044
:10670000E5FE0146304602F059FC05461B9851460D
:1067100002F0DCFE0146284602F050FC05462998AE
:10672000214602F0D3FE0146284602F047FC279995
:10673000C9E95604C9F820112699C9F824112499E9
:10674000C9F828112599C9F82C112399C9F83011D5
:106750002299C9F834111F99C9F838112199C9F83B
:106760003C111999C9F840111699C9F844111499A6
:10677000C9F848111599C9F84C112899C9E9541854
:106780002BB0BDE8F08F000010B504464FF07E50EE
:106790000021C4E90001C4E90410C4E90A01C4E904
:1067A0000E10C4E92001C4E92410C4E92A01C4E997
:1067B0002C01C4E93010C4E93601C4E95810204660
:1067C000C4E90211C4E90611C4E90811C4E90C11B5
:1067D000C4E92211C4E92611C4E92811C4E92E1123
:1067E000C4E93211C4E93411FEF7A6FE204610BDFB
:1067F000B0B584B0A9B30C4689073FD1216843F2F4
:106800007032C6F26472914245D1A188B1F5805FC1
:1068100051D10460A17BFB2304EB011128314160BD
:10682000E18841F0FB0243EA51031A4401F00C01F4
:106830001232082902721CBF04B0B0BD43F2CD3041
:10684000C0F60100F9F7F8FC43F23F30C0F6010052
:10685000F9F7F2FC43F20940C0F60100F9F7ECFC4D
:10686000FEDE43F2AF30C0F60100F9F7E5FC43F27B
:106870007630C0F60100F9F7C5FDFEDE1EA0F9F77F
:10688000DBFC43F23F30C0F60100F9F7D5FC22A053
:10689000F9F7B8FDFEDE43F2EB30C0F60100F9F780
:1068A000CBFC43F23F30C0F60100F9F7C5FC28A04D
:1068B000F9F7A8FDFEDE43F29130C0F60100F9F7CA
:1068C000BBFC43F23F30C0F60100F9F7B5FCA188EC
:1068D00002AC2046FDF78EF86D4628464FF48051F5
:1068E000FDF788F843F25030C0F6010021462A46F1
:1068F000F9F7A2FCFEDE00BF2E2E2F2E2E2F4C69A4
:10690000622F65676C5F6D6573682E6370702833E6
:106910003829203A20000000503347206461746118
:10692000206973206E6F742070726F7065726C795D
:1069300020616C69676E656420746F20342D627904
:10694000746520626F756E646172792E0D000000AF
:10695000496E76616C6964205033472066696C65C6
:10696000207369676E61747572652E0D00000000FA
:106970000021C0E9001101727047000010B57F2AA4
:1069800003D9406800F0B2FD10BD09A01446F9F724
:1069900053FC43F23F30C0F60100F9F74DFC42F6DC
:1069A000C870C0F6010021468022F9F745FCFEDEE2
:1069B0002E2E2F2E2E2F4C69622F65676C5F726111
:1069C00073746572697A65722E68283536392920A4
:1069D0003A2000002DE9F04FABB004921A7E0F93DD
:1069E000022A40F0438345683B9F28683B46026883
:1069F0006FF3DF3392899A4240F242836A683C9E89
:106A00009488DDF8E8C023444468007A9BB200FB18
:106A10000344399A01F1900029462346CDE90076D6
:106A2000CDF808C0FEF774FA049A0890D1680123E3
:106A3000802998BF8021D160E078116900EB800047
:106A4000B1EB800F98BF81000F981161C169606838
:106A50000968099417910021B1EB106F137200F0CF
:106A6000FB82DDE93621DDE93437000E3944079039
:106A70000F9809B21A4405910069179912B206924B
:106A80000231023000220C910B901E9507E000BFEE
:106A90000A9A079801321E9D824200F0DD82099910
:106AA00028684968006821F07F41084402EB4201F0
:106AB0000A924218405C089B00EB8000517803EB7F
:106AC0008007D7E901562297FF6801EB81011D97E6
:106AD00003EB810753F82140D7E901919278249183
:106AE000F96853F820001C9102EB820103EB81024C
:106AF00053F8211025962991516821972A91916880
:106B000018922391D1681B914FF07E5102F056FAF2
:106B10000F99D1E90167314602F0D8FC02F026FC5A
:106B20002890A0F107084FF07E50294602F05CFE45
:106B3000394602F0CBFC02F019FC2090A0F10805C8
:106B400020464FF07E5102F039FA314602F0BEFC89
:106B500002F00CFC8346A0F1070A4FF07E50494634
:106B600002F042FE394602F0B1FC02F0FFFB1F903A
:106B7000A0F1080929984FF07E5102F01FFA314622
:106B800002F0A4FC02F0F2FB2A99C61F4FF07E50DF
:106B900002F02AFE394602F099FC02F0E7FBA0F170
:106BA00008022990AAEB0800541B11906043A9EB3E
:106BB0000503A8EB060103FB0100CDF8A88001281E
:106BC00010911A93FFF664AF289851462A9B83458B
:106BD000C4BF194653461846B342B8BF3046B14207
:106BE000C4BF31461846DDE91F73A846BB424B4679
:106BF000BCBF2B464D462F469542B8BF1746DDF821
:106C0000D0C09342C4BF13462F4627944FF470243C
:106C1000DDF8D4E004EB01410FFA8CF5B5EB215F10
:106C2000D8BF4FEA215C04EB03410FFA8EF3012534
:106C3000B3EB215FD8BF4FEA215E05EB1010069B36
:106C400001B28B42B8BF184605EB1711059B0DB278
:106C5000AB42A0EB0C05B8BF19462BB2012BFFF6D7
:106C600017AFA1EB0E052CB2012CFFF611AF199353
:106C70004FF6F073C0F20F0303EA0C1503EA0E1B84
:106C8000A2EB09032895AAEB05051694A6EB0A04C6
:106C9000ABEB09075D4307FB045A0E94B9EB020402
:106CA00007D40E9B012B06DB002C08BFAAF1010ABA
:106CB00001E0AAF1010A289FABEB0205A8EB020252
:106CC000F61B109B724305FB0323279D002D06D462
:106CD000109A012A04DB002D08BF013B00E0013BB4
:106CE0002A9AABEB0805D61B1A9A159306FB02F7F6
:106CF000119AB8EB090305FB0276269406D4119A83
:106D0000012A04DB002B08BF013E00E0013EDDF854
:106D1000D0B0049DACEB0B042F88DDF8D4C01FFA73
:106D200084F82893AEEB0C03474538BF3C466A888D
:106D30009FB2BA4238BF1346A2B242EA0342A0EB66
:106D40000B002A60AA8883B2A1EB0C019A4288BF8B
:106D50001046EA888BB280B29A4288BF114640EA58
:106D60000140686015984FEA2A1B4FEA201909EB89
:106D70002A1000EB2610351102F014FB01464FF0EB
:106D80007E5002F0FDF904462598214602F09EFB54
:106D900025902498214602F099FB249023982146BF
:106DA00002F094FB0F99199A898992B208EB0203B9
:106DB00001FB073323901698013B80B201FB0030A2
:106DC0001F990D90504212902298299A10301A90D3
:106DD0002198DDE926E7103019901898AC4610305C
:106DE000189020988D1A141A461A16932295CDE9F8
:106DF000206415E00E98DDF854B0109983440F9884
:106E0000DDF85090808989441699DDF84CC0014422
:106E100008460D981691814211988444BFF438AE0B
:106E200049EA0C00129940EA0B000840CDE9149B96
:106E3000D846DDF8A0B00028E246084616DC1298D5
:106E4000DDE91423614600BF02EB0709224401EB90
:106E50000B0A314403EB0E082B4411430130194354
:106E60000140012943464A465146EDDB49EA0A0101
:106E700041EA080161EA00010129CDF84CC0B9DB03
:106E80003899169A014411440C9A02EB41022A9255
:106E90000B9A02EB410B6FF001010A1A1CE000BFD4
:106EA000219C209E229D04EB090106EB0A0205EBC2
:106EB00008001143299ADDF898E0279F289B084392
:106EC0002A991043F044B9449A4402310BF1020B61
:106ED000013A00282A918DDD4046299202F062FA9B
:106EE0000746484602F05EFA0646504602F05AFA55
:106EF00005462598394602F0E9FA044624983146B9
:106F000002F0E4FA214602F059F804462398294693
:106F100002F0DCFA214602F051F8BBF800100446FA
:106F2000084602F057FA4FF60071C4F27F7102F082
:106F300027F90146204602F0B7F80028B0D14FF6F5
:106F400000712046C4F27F7102F0C0FA02F00EFA1E
:106F5000ABF800001D983946CDF87CB002F0B6FAC7
:106F600004461C98314602F0B1FA06461B982946A1
:106F700002F0ACFA05463046214602F01FF8014601
:106F8000284602F01BF801464FF07E5002F0F8F858
:106F900007462046394602F099FA044630463946FB
:106FA00002F094FA06462846394602F08FFA1A99FA
:106FB00005460968204602F089FA199904460968CD
:106FC000304602F083FA0146204601F0F7FF189997
:106FD00004460968284602F079FA0146204601F085
:106FE000EDFF1799D9B31E9920F00047D1E9124659
:106FF000096D384602F06AFA05463846314602F015
:1070000065FA06463846214602F060FA4FF6F45714
:10701000C4F2FF17394602F059FA02F0A7F94FF609
:10702000FA6104463046C4F27F2102F04FFA02F0C2
:107030009DF900F03F062846394602F047FA02F073
:1070400095F900F01F0040EAC4202A99DDF87CB0D1
:1070500040EA4610088023E72BB0BDE8F08F18A067
:10706000F9F7EAF821A0F9F7CDF9FEDE0BA0F9F760
:10707000E3F843F26110C0F60100F9F7C3F9FEDE50
:1070800043F2BE20C0F60100F9F7D6F843F23420EF
:10709000C0F60100F9F7B6F9FEDE00BF2E2E2F2E46
:1070A0002E2F4C69622F65676C5F72617374657215
:1070B000697A65722E682835393829203A2000000F
:1070C0002E2E2F2E2E2F4C69622F65676C5F7261FA
:1070D00073746572697A65725F7461726765742E24
:1070E000682831333129203A20000000617373652C
:1070F0007274206661696C6564203A206D5F7274F9
:10710000735B305D0D000000012070472DE9F04FEA
:1071100091B00668079335681A9FAB890B92BB4202
:10712000089140F2C981D0F804800690B8F80410A4
:1071300072683944307A89B200FB0129A869D5F810
:1071400024A00990E8694FF600610D90286AC4F206
:10715000FF610C9050460A9502F012F80546B8F906
:107160000800B8F90A70B8F90C6002F01BF9834600
:10717000384602F017F90746304602F013F9064682
:107180002846594602F0A2F904462846394602F03C
:107190009DF907462846314602F098F909990546B7
:1071A000204601F00BFF0D998346384601F006FF9B
:1071B0000C990D90284601F001FFB8F80E100C90C4
:1071C000084602F007F90146504602F07FF94FF6F3
:1071D0000071C4F27F7101F0D3FF0021C4F2FE21DF
:1071E000824601F0CDFF99F908100646084602F0E4
:1071F000D9F899F909100746084602F0D3F899F929
:107200000A100546084602F0CDF8044630463946D5
:1072100002F05CF907463046294602F057F9054668
:107220003046214602F052F904465846394601F0EC
:10723000C5FE80460D98294601F0C0FE83460C9895
:10724000214601F0BBFE99F80B100C90084602F0A5
:10725000C1F80146504602F039F90021C4F27F31ED
:1072600001F08EFF99F90C100D90084602F09AF883
:1072700099F90D100446084602F094F899F90E1099
:107280000546084602F08EF840F20427C3F601478F
:1072900006462046394602F019F904462846394682
:1072A00002F014F982463046394602F00FF999F996
:1072B0000F100646084602F075F80021C4F2FE21C0
:1072C00001F05EFF0A990B9FC988090740F185808C
:1072D0000D9DCDE903402046294602F0F7F804460B
:1072E00028465146CDF808A002F0F0F8824628461C
:1072F0003146059602F0EAF8814620464146CDF82F
:10730000288002F071FA07F1700532CD01F056FEC7
:10731000064650465946CDF824B002F065FA21469B
:1073200001F04CFE0C9982464846344602F05CFA65
:10733000294601F043FE80463046314602F0C6F849
:1073400005465046514602F0C1F80146284601F074
:1073500035FE05464046414602F0B8F8014628464B
:1073600001F02CFE0021064601F090FE002840F0BE
:10737000B080304601F052FD01464FF07E5001F0E2
:10738000FFFE05462046294602F0A0F80646504674
:10739000294602F09BF804464046294602F096F83A
:1073A00005460398314602F091F8064602982146B8
:1073B00002F08CF80146304601F000FE04460598C4
:1073C000294602F083F8214601F0F8FD049901F006
:1073D00080FEDDE909B800286BD1069897E8220203
:1073E0008068FC680A90404602F070F839690646E9
:1073F000584602F06BF80146304601F0DFFDDDF83B
:1074000030A0396A0646504602F060F80146304620
:1074100001F0D4FD0146204601F0D0FD044640466F
:10742000294602F053F879690646584602F04EF8AC
:107430000146304601F0C2FD796A0646504602F028
:1074400045F80146304601F0B9FDF96902460846A3
:10745000114601F0B3FD06464046494602F036F8B3
:10746000B9690546584602F031F80146284601F050
:10747000A5FDB96A0546504602F028F8014628469F
:1074800001F09CFDF96A02460846114601F096FD9E
:10749000F96F10900D98CDE90E4602F017F80346EB
:1074A00007980A99009008981A9F0EAA0197FCF76E
:1074B00001FD11B0BDE8F08F43F2BE20C0F601001F
:1074C000F8F7BAFE43F23420C0F60100F8F79AFF4D
:1074D000FEDE43F28020C0F60100F8F7ADFE43F275
:1074E000FE10C0F60100F8F78DFFFEDE2DE9F04F2B
:1074F0009BB0D0E902648246D6F8802019912046DC
:107500001146934601F0E2FFDAF81080D6F89010A9
:1075100007464046119101F0D9FF0146384601F077
:107520004DFDDAF81490D6F8A07005464846394665
:1075300001F0CCFF0146284601F040FDD6F884104A
:1075400010902046089101F0C1FFD6F8941005462E
:107550004046079101F0BAFF0146284601F02EFD92
:10756000D6F8A41005464846129101F0AFFF014637
:10757000284601F023FDD6F888100F902046189178
:1075800001F0A4FFD6F8981004464046179101F088
:107590009DFF0146204601F011FDD6F8A8100446D3
:1075A00048461591049601F091FF0146204601F0EE
:1075B00005FDDAF818100E9058461691CDF818B05F
:1075C00001F084FF119DDAF8281004462846149132
:1075D00001F07CFF0146204601F0F0FCDAF838109B
:1075E000044638461391B846059701F06FFF0146EF
:1075F000204601F0E3FCD6F88C10024608461146FE
:1076000001F0DCFCDAF81C400D905846214601F0F0
:107610005DFFDAF820B007462846594601F056FFCC
:107620000146384601F0CAFCDAF8247005464046A7
:10763000394601F04BFF0146284601F0BFFCDDF85A
:1076400020800C904046214601F040FFDDF81C9060
:1076500005464846594601F039FF0146284601F0E3
:10766000ADFC129E05463046394601F02FFF01461B
:10767000284601F0A3FC0B901898214601F026FF44
:1076800004461798594601F021FF0146204601F0B3
:1076900095FC04461598394601F018FF014620462E
:1076A00001F08CFC16990A90404601F00FFF1499E6
:1076B0000446484601F00AFF0146204601F07EFCE0
:1076C00013990446304601F001FF0146204601F0BF
:1076D00075FCDDF810B0DBF89C1001F06FFCDAF8F7
:1076E0002C6009900698314601F0F0FEDAF830700F
:1076F00004461198394601F0E9FE0146204601F0A2
:107700005DFCDAF8344005460598214601F0DEFEBE
:107710000146284601F052FC11904046314601F0E6
:10772000D5FE05464846394601F0D0FE01462846BA
:1077300001F044FC05461298214601F0C7FE0146BF
:10774000284601F03BFCDDF860808146404631462A
:1077500001F0BCFE179E05463046394601F0B6FEE4
:107760000146284601F02AFC159F05463846214669
:1077700001F0ACFE0146284601F020FC16990446B3
:10778000404601F0A3FE14990546304601F09EFEE6
:107790000146284601F012FC13990546384601F0CF
:1077A00095FE0146284601F009FCDBF8AC1001F01B
:1077B00005FC1999109AC1E90A400A600F9ACDF8A0
:1077C00068A04A600E9A8A600D9ACA600C9A0A6193
:1077D0000B9A4A610A9A8A61099ACA61119AC1E9A7
:1077E0000829DAE90284DAE90476D8F8E010D8E961
:1077F00039A9D8F8ECB020461691CDF8389001F0B0
:1078000065FED8F8F01005463846159101F05EFE89
:107810000146284601F0D2FBD8F800110546304653
:10782000149101F053FE0146284601F0C7FB0D906C
:1078300020465146CDF848A001F048FED8F8F41093
:1078400005463846189101F041FE0146284601F0F0
:10785000B5FBD8F8041105463046179101F036FE05
:107860000146284601F0AAFB0C902046494601F04B
:107870002DFED8F8F890054638464946CDF84C908C
:1078800001F024FE0146284601F098FBD8F80811C3
:1078900005463046119101F019FE0146284601F0D7
:1078A0008DFB0B9020465946CDF804B001F00EFE3A
:1078B000D8F8FC1004463846109101F007FE014646
:1078C000204601F07BFBD8F80C11044630460F919E
:1078D00001F0FCFD0146204601F070FB1A9D0A9064
:1078E000EC691698214601F0F1FD2E6A07461598BD
:1078F000314601F0EBFD0146384601F05FFB6F6A4F
:1079000005461498394601F0E1FD0146284601F08C
:1079100055FB09905046214601F0D8FD05461898C0
:10792000314601F0D3FD0146284601F047FB0546EC
:107930001798394601F0CAFD0146284601F03EFB82
:10794000DDF838A008905046214601F0BFFD0546FD
:107950004846314601F0BAFD0146284601F02EFBAB
:1079600005461198394601F0B1FD0146284601F05F
:1079700025FB07905846214601F0A8FDDDF840B0F0
:1079800004465846314601F0A1FD0146204601F06B
:1079900015FBDDF83C9004464846394601F096FD5B
:1079A0000146204601F00AFB1A9D0690EC6A1698E3
:1079B000214601F08BFD2E6B07461598314601F0EC
:1079C00085FD0146384601F0F9FA6F6B05461498BB
:1079D000394601F07BFD0146284601F0EFFA05909B
:1079E0001298214601F072FD05461898314601F0C3
:1079F0006DFD0146284601F0E1FA05461798394623
:107A000001F064FD0146284601F0D8FA0490504682
:107A1000214601F05BFD05461398314601F056FD05
:107A20000146284601F0CAFADDF844A00546504652
:107A3000394601F04BFD0146284601F0BFFA019D91
:107A400003902846214601F041FD04465846314640
:107A500001F03CFD0146204601F0B0FA04464846DC
:107A6000394601F033FD0146204601F0A7FA1A9C81
:107A70000290D4F818B01698594601F027FDA76A6D
:107A800006461598394601F021FD0146304601F0C1
:107A900095FAA66B04461498314601F017FD01468D
:107AA000204601F08BFAD8F810110246084611461C
:107AB00001F084FA16901298594601F007FD044629
:107AC0001898394601F002FD0146204601F076FA89
:107AD00004461798314601F0F9FC0146204601F0B2
:107AE0006DFAD8F8141101F069FA81460E985946DA
:107AF00001F0ECFC04461398394601F0E7FC01461E
:107B0000204601F05BFA04465046314601F0DEFCA7
:107B10000146204601F052FAD8F8181101F04EFA49
:107B200004462846594601F0D1FC054610983946CE
:107B300001F0CCFC0146284601F040FA05460F98BA
:107B4000314601F0C3FC0146284601F037FAD8F867
:107B50001C1101F033FA19990D9ADDF868800A6357
:107B60000C9AC1E91A404A630B9A8A630A9ACA635B
:107B7000099A0A64089A4A64079A8A64069ACA6447
:107B8000059A0A65049A4A65039A8A65029ACA6543
:107B9000169AC1E91829D8E90207D8F81010D8F8C0
:107BA00020B01891D0F8BC10D8F834901491D0F8C7
:107BB000CC10D0F8DC00D8F8144015911690584637
:107BC0004946179401F082FCD8F824A0D8F8306018
:107BD00005465046314601F079FC0146284601F041
:107BE00003FE014638461297119101F06FFCD8F858
:107BF0001C501390304621460F9601F067FC189CEC
:107C0000074648462146CDF8349001F05FFC014616
:107C1000384601F0E9FD014628460E95109101F025
:107C200055FC0146139801F0C9F9D8F82C600546B7
:107C300050462146D14601F049FC179980465846E6
:107C4000CDF84CB001F042FC0146404601F0CCFDBD
:107C5000824630465146374601F038FC294601F04D
:107C6000ADF900210546002401F010FA002840F08B
:107C7000EC80484639464E46B94601F027FC0D9C3B
:107C8000DDF838B00B9505462046594601F01EFC3C
:107C90000146284601F0A8FDDDF848800C904046DA
:107CA000214601F013FC179C05462046394601F099
:107CB0000DFC0146284601F097FD0D9058462146DF
:107CC00001F004FC04464046314601F0FFFB01464A
:107CD000204601F089FD0F9F179038465946CDF890
:107CE00024A001F0F3FB139E04463046494601F000
:107CF000EDFB0146204601F077FD189D0A902846CD
:107D0000494601F0E3FB04464046394601F0DEFBFC
:107D10000146204601F068FD04464046314601F028
:107D2000D5FB06465846294601F0D0FB01463046B1
:107D300001F05AFD0B9906464FF07E5001F020FAF3
:107D400007461198394601F0C1FB0F90109839464B
:107D500001F0BCFB82460998394601F0B7FB189048
:107D60000C98394601F0B2FB05460E900D98394645
:107D700001F0ACFB81461798394601F0A7FB17903C
:107D80000A98394601F0A2FB83462046394601F0A5
:107D90009DFB80463046394601F098FB1A990D90BC
:107DA000886A8E6980F000478C6B2846394601F05E
:107DB0008DFB05460F98314601F088FB01462846A9
:107DC00001F012FD05465846214601F07FFB0146B1
:107DD000284601F009FD109048463946CDF84C90F0
:107DE00001F074FB05465046314601F06FFB014639
:107DF000284601F0F9FC054640462146CDF848806A
:107E0000D84601F063FB0146284601F0EDFC1190D5
:107E10001798DDF834B0394601F058FB074618983A
:107E2000314601F053FB01463846574601F0DCFC71
:107E30000646584621460F9C01F048FB0146304655
:107E40000E9E01F0D1FC824613E000201890002025
:107E50001090002013900020179000201190002017
:107E6000002700264FF0000812904FF0000B4FF053
:107E7000000A149D2146284601F028FBDDF85490A5
:107E800004464846314601F021FB0146204601F0F8
:107E900095F8169E04463046414601F017FB014610
:107EA000204601F08BF80146109801F087F804464F
:107EB0002846394601F00AFB13990746484601F067
:107EC00005FB0146384601F079F81299074630461D
:107ED00001F0FCFA0146384601F070F801461198AD
:107EE00001F06CF818990746284601F0EFFA179947
:107EF0000546484601F0EAFA0146284601F05EF8D8
:107F000005463046594601F0E1FA0146284601F09F
:107F100055F80146504601F051F8DDF86480C8E993
:107F20001C471A9FC8F8780007F10C0531CDD7F827
:107F30001C90014601F0CAFA06462046214601F08F
:107F4000C5FA0146304601F039F80446284629466C
:107F500001F0BCFA0146204601F030F804464846DC
:107F6000494601F0B3FA396A0546084601F0AEFA0F
:107F70000146284601F022F8796A0546084601F0D4
:107F8000A5FA0146284601F019F8F96A064608469E
:107F900001F09CFA396B0546084601F097FA014654
:107FA000284601F00BF8796B0546084601F08EFA79
:107FB0000146284601F002F805463046214601F008
:107FC00088F8002818BF26463046294600F03AFEB9
:107FD00000F024FFC8F87C001BB0BDE8F08F000063
:107FE0002DE9F04F8BB004900068884606684FF684
:107FF0000061D6E906901C680390306A37690290E8
:10800000706AC4F2FF61934601F0BAF80021B1EB47
:10801000146F00F01681054624F07F40F2193044B9
:10802000210E00920238A8F11402CDF80490CDE997
:10803000082500BF0A9007910A99009A31F8020FAB
:108040000A9100EB800132F9110002EB410601F0C8
:10805000A9F90446B6F902000696B6F9046001F0E3
:10806000A1F90746304601F09DF90646284621460B
:1080700001F02CFA0146484600F0A0FF824609981C
:10808000394601F023FA0146039800F097FF814634
:108090000998314601F01AFA0146029800F08EFF65
:1080A000DBE90C178046DBE90E45504601F00EFA7D
:1080B000DBF840100646484601F008FA0146304613
:1080C00000F07CFFDBF850100646404601F0FEF958
:1080D0000146304600F072FFDBF8601002460846A9
:1080E000114600F06BFF05905046394601F0EEF95D
:1080F000DBF844100646484601F0E8F901463046F0
:1081000000F05CFFDBF854100646404601F0DEF953
:108110000146304600F052FFDBF864100246084684
:10812000114600F04BFF07465046214601F0CEF9BC
:10813000DBF848100446484601F0C8F901462046DD
:1081400000F03CFFDBF858100446404601F0BEF951
:108150000146204600F032FFDBF868100246084670
:10816000114600F02BFF04465046294601F0AEF9B7
:10817000DBF84C100646484601F0A8F901463046A7
:1081800000F01CFFDBF85C100646404601F09EF94B
:108190000146304600F012FFDBF86C10024608463C
:1081A000114600F00BFFDDF82080059948F8141FF8
:1081B0000699C8E90174C8F80C0091F9060091F914
:1081C000074091F9086001F0EDF840F20427C3F68A
:1081D0000147394601F07AF90546204601F0E2F8F8
:1081E000394601F073F98246304601F0DBF8394632
:1081F00001F06CF981460498D0E90F17466C2846C7
:1082000001F064F904465046099D394601F05EF9D3
:108210000146204600F0D2FE04464846DDF80490B0
:10822000314601F053F90146204600F0C7FE079998
:10823000C8F810000A9801394246CDF820807FF432
:10824000F9AE0BB0BDE8F08F10B50446016843F2FB
:108250005740C0F60100F7F7EFFF616843F2414075
:10826000C0F60100F7F7E8FFA1680AA0F7F7E4FFFE
:10827000E1680EA0F7F7E0FF216913A0F7F7DCFF34
:10828000616918A0F7F7D8FF218B1CA0F7F7D4FF7E
:1082900010BD00BF3E204D61782050534F207374B5
:1082A0006174653A2025690D0A0000003E204D6189
:1082B0007820636C7573746572207374726970735F
:1082C0003A2025690D0A00003E204D617820505467
:1082D00056206275666665722073697A653A202554
:1082E000690D0A003E204D617820636C75737465DA
:1082F00072733A2025690D0A000000003E204D618E
:10830000782074696C6520636C7573746572733A58
:108310002025690D0A000000002848BF704700F0C2
:108320001F01012202FA01F14EF200124009CEF2C1
:10833000000242F8201070474EF60C50CEF20000BA
:108340000068C0F3022070474EF6145300F00F028D
:10835000CEF2000309011A4400F16043B0F1FF3F7F
:10836000C8BF03F564421170704700004EF60C510F
:10837000CEF200010A684FF6FF031A4060F30A22AA
:1083800042F0806040F0FD700860704701A000F08E
:108390003EF800BF50757265207669727475616C25
:1083A0002066756E6374696F6E2063616C6C6564C2
:1083B0002100000010B540F28804C2F200042046FB
:1083C000FCF7CAFC44F6E15040F20002C0F600009F
:1083D000C0F600022146F8F72BF810BD80B540F238
:1083E0005810C2F20000FEF7C3FA80BD80B540F21B
:1083F0006410C2F20000FBF799FB80BD80B549F61E
:108400008800C2F20000FEF7BFF980BD7047F8F7A0
:108410000EFA0000B8B041F20003C4F201031021CB
:10842000202640F28804A3F58060CDE9021604916D
:10843000C2F2000449F60821A3F500624FF4804718
:10844000CDE90030C2F2000120460597FCF714FB8D
:1084500040F26410C2F200002146FBF7EBFA04F18F
:108460000C00002106904FF00008FAF77FFA40F266
:10847000581049F61421C2F20000C0F60001FEF7C0
:10848000B7F90020C4F2C82040F692214CF6CD4343
:10849000009028A8C3F68671C3F6CC534FF08042F3
:1084A000CDF80480FBF75AFF28AF49F688048FCF38
:1084B000C2F20004DDE92FC984E88F0034AB0FCB92
:1084C000C4F81CC004F1300C8CE80F004CF6CD4011
:1084D000C3F6CC50C4F860010020DDE92D65DDE96C
:1084E00031EADDF8CCB0C4F2C820C4F864012046FB
:1084F000C4E90565C4E9089EC4E90AABFDF71CF8A8
:1085000000204FF07E51CBF6C070C4E936102046F3
:10851000C4E92C18C4E92E88C4E93081C4E9328842
:10852000C4E93488FDF708F840F27C014CF63A5073
:10853000C2F20001C3F61370086040F28001C2F27B
:108540000001086040F284014CF63A50C2F200018A
:10855000CBF61370086012A800F110010A9100F127
:108560002401099100F13C0148300891079000BFB7
:1085700040F2040AC2F2000ADAF8004040F20800B1
:10858000C2F200000568204600F084FB0746204642
:1085900000F09AFA8046284600F07CFB0646284602
:1085A00000F092FA044686F000400E9038463146BC
:1085B00000F08CFF0F9038462146119700F086FF9F
:1085C00081464046314600F081FF83460D9087F09A
:1085D00000400C90404621464746CDF82C8000F0E4
:1085E00075FFDAF8001080461090084648F2F05106
:1085F000C3F6494100F0E2FC40F20805C2F2000572
:108600002968CAF80000084647F64A31C3F6035104
:1086100000F0D4FC28600A980025C0E90055C0E9A4
:10862000025509984FF07E51C0E90055C0E9025546
:10863000089815911A91CDE91F15F9F7B9FD07981A
:10864000F9F7B4FD49F68800C2F2000014A931C15F
:108650000E98CDF874B0CDE917050C98DDF83CA064
:10866000CDE91E0840F27C00C2F20000D0F800B054
:108670000020C4F24000209020465946CDE9125512
:10868000CDE919A7CDE91B9500F020FF40F280014C
:10869000C2F200010F6840F28401C2F200010C68CE
:1086A00005463046214600F011FF0146284601F0FC
:1086B0009BF880465046594600F008FF05460B9847
:1086C000394600F003FF0146284600F077FC0546D6
:1086D0004846214600F0FAFE0146284600F06EFCAE
:1086E00005460D98594600F0F1FE064611983946A8
:1086F00000F0ECFE0146304601F076F80646109890
:10870000214600F0E3FE0146304600F057FC0446E7
:108710004046414600F0DAFE06462846294600F06B
:10872000D5FE0146304600F049FC0646204621466B
:1087300000F0CCFE314600F041FC0021064600F07E
:10874000A5FC002851D1304600F068FB01464FF0EF
:108750007E5000F015FD06464046314600F0B6FE5C
:1087600007462846314600F0B1FE05462046314610
:1087700000F0ACFE40F2581223904FF07C50C2F251
:10878000000224904FF07E511068CDE921752591AB
:108790002691817B1292A9B3069D40F2880428306D
:1087A000C2F200041390284612A92246FAF774F97F
:1087B0002846FAF7D5FF04F19000FCF7F5FC49F6DE
:1087C000F410C2F20000007800287FF4D1AE40F22D
:1087D0008800C2F200007430FFF736FD49F6F4104D
:1087E000C2F2000001210170C2E643F28020C0F60F
:1087F0000100F7F721FD43F2FE10C0F60100F7F784
:1088000001FEFEDE03A0F7F717FD0AA0F7F7FAFD59
:10881000FEDE00BF2E2E2F2E2E2F4C69625C656768
:108820006C5F6D6573682E682833313529203A20D6
:1088300000000000617373657274206661696C6585
:1088400064203A207365675F6964785F3C6D5F6898
:1088500065616465722D3E6E756D5F736567730D3E
:108860000000000010B582B0019049F6602001AC14
:10887000C2F2000021460122FF23F9F711F949F65F
:10888000A420C2F2000021460122FF23F9F708F9D3
:10889000019802B010BD0000F8F708FBF9F704FBDF
:1088A000F9F768F9F9F7FEF9F9F7D4F9F9F716FAD3
:1088B0000020FFF7AFFD00BFFEE7000080B50178A4
:1088C00011B94178012901D1002080BD89075FBF1E
:1088D00002214170012080BD01A0FFF798FD00BF7B
:1088E0005F5F6378615F67756172645F6163717513
:1088F000697265206465746563746564207265637C
:1089000075727369766520696E697469616C697ADC
:108910006174696F6E000000012101704170704741
:108920004100080218BF04200A0E18BF40F00100E1
:108930004FF07F4232EA010108BF40F002000128F7
:1089400008BF05207047012100F0F5BF002108464F
:1089500000F016BC6FF05E01080700F0ECBF0000ED
:108960002DE9F04D0D4614464FF07F41B1EB440F19
:108970009EBF4FF0FF312960BDE8F08D4FF0004001
:1089800040EA0421C4F3C750783810F01F024A4B64
:108990004FEA601CC2F120067B44C4F3C750A0F12B
:1089A00078004FEA601003EB800053F82C3008BFCA
:1089B000D0E901C612D0D0F804C093402CFA06F7D3
:1089C0003B4387680CFA02FC27FA06F8C06807FAEE
:1089D00002F2F0404CEA080C42EA0006A3FB013226
:1089E000ACFB01C0A6FB016101EB0C068E4234BF5B
:1089F0004FF0010C4FF0000CC1186144BCF1000FA6
:108A000002D0814202D903E0814201D2012000E07C
:108A10000020104400F120024FEA92188006CA0C90
:108A200040EA42304F03C5F8008000F0BBFC8246AC
:108A3000384600F0CFFC6FF0120100F07CFF0746D3
:108A4000304600F0C7FC6FF0250100F074FF83464C
:108A50003946504600F0B2FA594600F0AFFA00F538
:108A600000666FF30B065146304600F0BDFE3946F6
:108A700000F0BAFE594600F025FE104900F026FD30
:108A800007460F49304600F021FD394600F096FABE
:108A900007460C49304600F019FD394600F08EFAC1
:108AA00014F0004F08BFBDE8F08DC8F1805180F090
:108AB00000402960BDE8F08D40100000DB0FC92F99
:108AC00022AAFD290000C92F2DE9F84304460246D9
:108AD0004F486946B0EB420F09D94FF0E640B0EB82
:108AE000420F94BF00204FF0FF30009030E0494B20
:108AF00022F00040834271D94749204600F0E6FC4D
:108B000000F0B0FD804600F031FC00F00300009062
:108B10004249404600F0DAFC05464149404600F033
:108B2000D5FC06463F49404600F0D0FC07463E498A
:108B3000404600F0CBFC214600F0C4FD394600F071
:108B400053FE314600F050FE294600F04DFE04462B
:108B50002546009C002C45DB294614F0010F0846F1
:108B60001CD000F0B3FC0646304900F0AFFC3049A1
:108B700000F024FA314600F0A9FC2E4900F01EFA5C
:108B8000314600F0A3FC294600F0A0FC294600F085
:108B900015FA14F0020F1CD0BDE8F88300F096FC23
:108BA0000546254900F092FC244900F007FA2946C1
:108BB00000F08CFC224900F001FA294600F086FC06
:108BC0004FF07E5100F0FAF914F0020F08BFBDE833
:108BD000F88380F00040BDE8F883FFE71046FFF718
:108BE000BFFEB4E76800B0F17F4F3CBF4FF07E504E
:108BF000BDE8F88307D14FF00100F7F7EEFCBDE8C0
:108C0000F843FFF7A3BE2846BDE8F843FFF79BBE35
:108C1000B61F927E490E494683F9223F1A61342CD1
:108C20000020A23300A0FD390000C93F336D4CB9CC
:108C3000DA82083CA0AA2ABEB93AB2BACA9F2A3D33
:108C4000DDFFFFBE70B50C46054600F072FA00F07D
:108C50007040B0F1005F07D024F00040C0F1FF4049
:108C6000C00F04BF204670BD284670BD70B50C46CD
:108C7000054600F05EFA00F07040B0F1004F07D0FA
:108C800024F00040C0F1FF40C00F04BF204670BD7B
:108C9000284670BD2DE9F84304460246524869460D
:108CA000B0EB420F09D94FF0E640B0EB420F94BF52
:108CB00000204FF0FF30009030E04C4B22F000409D
:108CC000834271D94A49204600F000FC00F0CAFCFA
:108CD000804600F04BFB00F0030000904549404601
:108CE00000F0F4FB05464449404600F0EFFB064621
:108CF0004249404600F0EAFB07464149404600F041
:108D0000E5FB214600F0DEFC394600F06DFD314602
:108D100000F06AFD294600F067FD04462546009CE8
:108D2000002C45DB294614F0010F08461ED000F048
:108D3000CDFB0546334900F0C9FB334900F03EF94D
:108D4000294600F0C3FB314900F038F9294600F00C
:108D5000BDFB4FF07E5100F031F914F0020F08BF57
:108D6000BDE8F88380F00040BDE8F88300F0AEFB7A
:108D70000646274900F0AAFB264900F01FF93146B4
:108D800000F0A4FB244900F019F9314600F09EFBE5
:108D9000294600F09BFB294600F010F914F0020F61
:108DA000E0D1BDE8F883FFE71046FFF7D9FDB4E74F
:108DB0006800B0F17F4F09D22846FFF7B1FD0428C3
:108DC00008BFFFF7C7FD2846BDE8F88306D101209C
:108DD000F7F703FCBDE8F843FFF7B8BD2846BDE848
:108DE000F843FFF7B0BD0000B61F927E490E49461A
:108DF00083F9223F1A61342C0020A23300A0FD39F0
:108E00000000C93FB93AB2BACA9F2A3DDDFFFFBE92
:108E1000336D4CB9DA82083CA0AA2ABE70B505466B
:108E200000F05AFC044620F00040C0F1FF40C00FA3
:108E300008D025F00040C0F1FF40C00F04BF012062
:108E4000F7F7CBFB204670BD2DE9F84304460246F8
:108E50004C486946B0EB420F09D94FF0E640B0EB01
:108E6000420F94BF00204FF0FF30009030E0464B9F
:108E700022F00040834265D94449204600F026FB99
:108E800000F0F0FB804600F071FA00F00300009063
:108E90003F49404600F01AFB05463E49404600F077
:108EA00015FB06463C49404600F010FB07463B498F
:108EB000404600F00BFB214600F004FC394600F070
:108EC00093FC314600F090FC294600F08DFC0446EE
:108ED000009D002D3ADB2146084600F0F7FA0646D1
:108EE0002F4900F0F3FA2F4900F068F8314600F0FE
:108EF000EDFA2D4900F062F8314600F0E7FA2B490F
:108F000000F05CF8314600F0E1FA294900F056F82B
:108F1000314600F0DBFA274900F050F8314600F006
:108F2000D5FA214600F0D2FA214600F047F815F0B4
:108F3000010F08BFBDE8F8830146BDE8F8431E48AD
:108F400000F01EB91046FFF70BFDC0E76000B0F15E
:108F50007F4F09D22046FFF7E3FC042808BFFFF744
:108F6000F9FC2046BDE8F88306D10120F7F735FB70
:108F7000BDE8F843FFF7EABC2046BDE8F843FFF739
:108F8000E2BC0000B61F927E490E494683F9223F9B
:108F90001A61342C0020A23300A0FD390000C93F23
:108FA000BCE9223C0B6D063B8A76CE3CACB5593D04
:108FB00035A1083E29AAAA3E000080BF90EA010F11
:108FC00048BF81F0004100F11684421A3CBF801A6C
:108FD00089184FEAD052A2EBD1534FF07F4C1CEAD4
:108FE000410F18BF9CEA026F00F03B804FF0004C2D
:108FF0004CEA00204CEA012121FA03FC10EB0C0C96
:109000001ED202F1FF325FEA1C2040EBC25038BF93
:1090100070471CF07F0F4FEA400C18BFBCF17F4F28
:1090200038BF7047C3F12003994008BF20F001000A
:10903000BCF17F4F38BF7047A0F1C04000F00DBBBE
:109040004FEA3C00000A40EBC25028BF1CF0FF0F63
:109050004FEA400CE6D018BFBCF17F4F38BF7047D5
:10906000EAE79CEA026F05D010EA5C0F08BF00F047
:109070000040704710B500F0AAFA00BF64FBBE3E86
:10908000014800F026BC00BF0000C07F10B500F012
:1090900039F90CBF0120002010BD10B500F032F9E5
:1090A00014BF0120002010BD10B500F0A7F98CBF3F
:1090B0000120002010BD10B500F0A0F92CBF012048
:1090C000002010BD10B500F0CDF994BF01200020A4
:1090D00010BD10B500F0C6F934BF0120002010BD4E
:1090E00050EA010C00F113801CF5000F58BFBCF5CD
:1090F000000F01D48842704707D710F5000F58BF02
:1091000011F5000F22D488427047894270471CF540
:10911000000F04D5BCF5000FF7D5814270474FF022
:10912000807C1CEB400F38BF1CEB410F0ED28142FC
:10913000704710B5FFF7D4FFEFF3008020F0104028
:1091400038BF40F0004080F3008810BD00F03FFAC7
:109150000000000900F007B84FF0404010F1004F48
:10916000EFF300807047401058BFC0F140404910F5
:1091700058BFC1F140418142EFF3008070470000C9
:109180004FF47F0C1CEAD0121EBF1CEAD11392EAE6
:109190000C0F93EA0C0F00F0858090EA010F48BF96
:1091A00042F4807240F4000C41F400002CF07F4146
:1091B00020F07F4000B5A2EB030281420FF2081CB1
:1091C000ACEB504E9EF800E0C0F100004FEA4E0EAE
:1091D00000FB0EFC38BF49004FEA2C1C0CFB0EF3C1
:1091E0004FEACE1E0EEB635E4FEA112C0EFB0CFC19
:1091F0004FEAC1214FEA1C5300FB031102F5FA02AA
:109200004FEA112C0EFB0CFC4FEA01314FEADC4C0B
:1092100000FB0C1142EB2242C14228BF09184CEB63
:1092200003335DF804EB10EB410143EBC250B2F5A0
:109230007C0F38BF704729D512F0F00F1CBF00F12A
:10924000C04000F00040704700818283848586879B
:1092500088898B8C8D8E8F919293959697999A9CF5
:109260009D9FA0A2A3A5A7A8AAACAEB0B2B3B5B764
:10927000B9BCBEC0C2C5C7C9CCCED1D4D7D9DCDF3A
:10928000E2E6E9ECF0F3F7FAFE0000004FEA400CEA
:109290000CF1807CBCF17E4F28BF7047B0F1C0401C
:1092A00000F0DBB90CEAD11390EA010F48BF42F499
:1092B0008072624538BF634507D213F47F0F16D022
:1092C00080EA010000F00040704710B500F07FF91F
:1092D000097EFC3E00F005B880EA010000F0004085
:1092E000704780EA010000F0004000F0B6B912F4C7
:1092F0007F0F04BF0248704780EA010000F0ADB95B
:109300000000C07F50EA010C00F113801CF5000F33
:1093100058BFBCF5000F01D48842704707D710F53D
:10932000000F58BF11F5000F15D4884270478942CD
:1093300070471CF5000F04D5BCF5000FF7D581422E
:1093400070474FF0807C1CEB400F38BF1CEB410F87
:1093500001D28142704710B500F039F992244900DA
:109360004FF000504FF08051FFF7FDBE41000B0E53
:10937000D3F19E0208D950F400034FEA032323FAE5
:1093800002F048BF4042704710B500F020F900BF1E
:1093900049922480002070476FF0004282EA20004A
:1093A0007047000010F0004148BF4042B0FA80F31F
:1093B00010FA03F2C3F19D030BD051EAC35101EB44
:1093C0001220530638BF704700F1010008BF20F09B
:1093D00001007047B0FA80F310FA03F2C3F19D0365
:1093E0000AD0D90501EB1220530638BF704700F1AF
:1093F000010008BF20F001007047000050EA010C96
:1094000000F113801CF5000F58BFBCF5000F01D40C
:109410008842704707D710F5000F58BF11F5000FAD
:1094200015D488427047894270471CF5000F04D557
:10943000BCF5000FF7D5814270474FF0807C1CEBE4
:10944000400F38BF1CEB410F01D28142704710B56D
:1094500000F0BDF8922449004FF080504FF00051C9
:10946000FFF781BE50EA010C00F113801CF5000FDC
:1094700058BFBCF5000F01D48842704707D710F5DC
:10948000000F58BF11F5000F15D48842704789426C
:1094900070471CF5000F04D5BCF5000FF7D58142CD
:1094A00070474FF0807C1CEB400F38BF1CEB410F26
:1094B00001D28142704710B500F089F8922449002A
:1094C0004FF000504FF08051FFF74DBE4FF47F0C2E
:1094D0001CEAD0121EBF1CEAD11392EA0C0F93EAC9
:1094E0000C0F00F0478090EA010F48BF42F48072F1
:1094F0004FF0004C4CEA00204CEA012102EB030241
:10950000A0FB0113A2F50002002918BF43F00103DC
:109510005B0028BF4FEA330342EB22425FEA132C81
:109520004CEBC2502EBFBCEB436FB2F57C0F7047C3
:109530004FEA036CBCF1004F08BF20F00100B2F508
:109540007C0F38BF70470BD582F0FF0212F5803FC9
:10955000C8BF704700F1C040D8BF00F0004070475E
:1095600000F5000C5FEA4C0C48BF7047B0F1C040FA
:1095700000F073B80CEAD11390EA010F48BF42F42F
:109580008072624538BF634504D280EA010000F072
:109590000040704710B500F01AF800BF8900013E86
:1095A00000F007B800F009B85FEA410C5FEA1C6CF4
:1095B00008D080EA010000F050B85FEA400C5FEA92
:1095C0001C6CF6D14FF00040A0F5800070470EF102
:1095D000020E2EF0030E5EF8044B244204D44FEA30
:1095E0004102B2F17F4F11D84FEA4003B3F17F4FF0
:1095F0000CD80ED14FEAD07C0CEB4C0C0CF1020CC9
:10960000B2F17F4F08BF4CEBD17C04E04FF0080C67
:1096100001E04FEAD17C0CEB4C0324FA03F404F094
:109620000704B4F1040C06D20EEB840CBDE8104024
:109630004CF0010C6047DFE80CF0070802024FF025
:109640000040A0F5800010BD0846420018BFD2F1CE
:10965000807288BF00F0004010BDFF2141EAD05069
:10966000C00570475FEA400C5FEA1C6CBCF17F03E9
:1096700014D4D3F1170240F31C804FF0010C0CFA04
:1096800002FCACF10103034020EA0300B3EB5C02EF
:1096900008BF10EA0C0F88BF60447047B3F1FF3F6A
:1096A00028BF5FEA002C00F0004088BF40F07E50E9
:1096B0007047BCF1FF0FB8BF704710B5FFF787FFC9
:1096C00040DBB6BE80F0004090EA010F7FF57DAC34
:1096D00081F0004100F08FB84FEAD051002988BFD7
:1096E000D1F1FF0240F275804FEA002040F00040C7
:1096F00070B501F17D01490838BF40080EA2430E44
:10970000D25C040C02FB02F304FB03F3C3F14043FD
:10971000A3FB0254ED0D45EA442202FB02F3A0FB39
:1097200003546D42C4F1404438BF641EA2FB0535AA
:109730000023E2FB0453EA0B42EA4342A0FB02325D
:1097400012F14004E409A2F1210303F07F031F2B6F
:1097500032D904EBC15070BDFEFAF7F3F0ECE9E644
:10976000E4E1DEDCD9D7D4D2D0CECCCAC8C6C4C2DC
:10977000C1BFBDBCBAB9B7B6B4B3B2B0AFAEACAB93
:10978000AAA9A8A7A6A4A3A2A1A09F9E9E9D9C9BB8
:109790009A999897979695949393929190908F8E8B
:1097A0008E8D8C8C8B8A8A8989888787868685842A
:1097B000848383828281818004FB04F6B6EB0046B9
:1097C00003D5E64248BF641CC3E7A64258BF641CE9
:1097D000BFE711F0FF0F02D100F00040704710B555
:1097E000FFF7F5FE7FDBFFBE90EA010F48BF81F077
:1097F00000413FF5EAAB421A04D882F00042A0EBE8
:10980000020011444FEAD052A2EBD1534FF07F4CEB
:109810001CEA410F18BF9CEA026F4AD04FF0004C7F
:109820004CEA00204CEA012121FA03FCB0EB0C0CBD
:109830000FD412F0FE0F36D05FEA4C001DD5001297
:1098400040EBC25038BF70471CF03F0F18BF704745
:109850000BE05FEA1C20A2F1010240EBC25038BFCE
:1098600070471CF07F0F18BF7047C3F12003994069
:1098700014BF401E20F0010070474FEA12238008F9
:1098800008BF7047B0FA80FCA2EB0C02CCF1280CA8
:1098900060FA0CF093EA122F04BF00EBC25070473D
:1098A0004FEAC3707047130A5FEADC1008BF7047C5
:1098B000F6E79CEA026F04D010EA5C0F08BF0020B4
:1098C000704710B5FFF783FE40DFF63E81F00040A1
:1098D00070470CF00F03092B08BF082000F05180DF
:1098E0000A2B0BD0082B18BF704708BF1CF0400F85
:1098F0000AD04FF000004FF0000170471CF0400FFD
:1099000018BF4FF0004070471CF0100F08D000F057
:109910007F4220F0704342EAD3014FEA4370704720
:1099200000F0604021F07F4242EA000201F07F40F7
:1099300040EA727070474FF0FF0212EAD0521CBF2B
:1099400092F0FF038B42C2BFD14200EBC15070477F
:10995000002A0AD0002B0BD000F000400029A4BF41
:1099600040F0FE4040F40000704700F000407047B7
:1099700043024FF00B0C18BF4CF0806C7FF480ABAF
:1099800070471CF4801F11D01CF4E02F03D06FEA45
:10999000CC31490070474FF04050EFF3008222F085
:1099A000704242EA000282F3008870474FF00000E4
:1099B00070473031323334353637383941424344D9
:1099C0004546403058003031323334353637383937
:1099D000616263646566403078000000000000004A
:1099E0006E83F9A22915444ED15727FCC0DD34F50A
:1099F000999562DB4190433CAB6351FE000000004F
:109A0000000000000102030406070809000000002E
:109A1000010203047033646700100C00C49400005A
:109A20002B0001072C460000984E0000DCF2713B31
:109A3000C579243E370BF83D12C3BE3F000000003D
:109A400000002B002EFE8CFF7B00FFFFE802004091
:109A50000C1800659CCC0B2388D802866803004054
:109A60003B19005CA9D2FD2E8FCCE88EE8030040A4
:109A70004F1A0060AAD1112A8BD1108E68040040C1
:109A80006F1B0066BADDF81CAD5FF9E9E804004021
:109A9000A11C0056BED8093993C8DF9C6805004058
:109AA000A31D005ACCE8F25B99D9C29EE80500409C
:109AB000B11E005FCFFE245A941F3A9768060040FB
:109AC000CE1F0062CA270C2C98451594E80600406A
:109AD000F420005CD919F53EB14ABEAA68070040DF
:109AE00008220060F9D11880D0912882E807004050
:109AF0002823005DDA2B212ACD6040A368080040AE
:109B00003F240065DA2C0926CF73E9CEE80800402F
:109B10006E250063E62D122AED7DF5D5680900401B
:109B200097260053ED2EFA29E978DDD4E8090040A4
:109B30009027005FF2272935E36547A7680A0040B0
:109B4000AD280063EC15DA39B71E9D92E80A004093
:109B5000D629005C03F7D75D04F98191680B0040BA
:109B6000EA2A0068F020AF2BD41C8C8AE80B004056
:109B7000222C005DF62AC22CA950D198680C004016
:109B8000392D004B001CB3390421858DE80C0040B1
:109B90001A2E0066F631E820D470D9A9680D00406D
:109BA0004C2F005BFC300B31FE7336B8E80D0040E3
:109BB0005D300064101A324F1C624BA6680E0040E4
:109BC0008931006321F72E6F5207609EE80E004036
:109BD000B232005A0032D922077BE3A2680F00405C
:109BE000C033005E1FD8F06152C7B29BE80F00403F
:109BF000DA340058032DAF150A72C9E3681000402B
:109C0000E23500630B30EC26326FDCA5E810004033
:109C10000B3700601326C3365930B38C68110040EF
:109C20002B38005E1234082B0D7BE5E5E81100406F
:109C30004539005C21311E322F653BA76812004078
:109C4000593A00521A1DCB54410C9499E812004025
:109C50004F3B006816310D21177BEED06813004092
:109C6000873C00631F2D03282976E8CCE8130040C9
:109C7000B03D0051262C10302A77F3DF68140040E5
:109C8000A33E005D3020FA3C484FBDB0E8140040D0
:109C9000BA3F00553DCA114971C6FF8D6815004095
:109CA000B94000513FFAFA496901B89EE8150040F1
:109CB000AC4100524701136960452E96681600407A
:109CC000A24200604FD8FC1C506209F9E81600401F
:109CD000C243005A56D4FE3575D3ED8B6817004049
:109CE000D044005F64CE0E2578D80C86E8170011AA
:109CF000ED4500156ECB0B2177D4038D5704090475
:109D000073019803C903E7041C02CC036301C80074
:109D1000A807AC001605ED0189010707EF064F06FD
:109D2000AD074706F1017C053D0317046B07DE060E
:109D3000A001A700C9013502A602F3061507B60166
:109D40003F0199065D042101DA05EC01C10285039A
:109D5000DC054F05B702D702870617028A03700792
:109D600010030402A70474073801E103F9056B042A
:109D70003A036F0795008B013F07EE049500A70497
:109D8000AF0131078B0110031A005401BA05040218
:109D9000B905740776025507C10638016704120534
:109DA0007C013304E103F905CF04D9076F073700BD
:109DB000BD02D8046B00700720044E010507390767
:109DC0009201D705B102580058036E00D307A801CD
:109DD0006302260764079400680000038D071702DA
:109DE0005B03D50447040D041101490112028706E3
:109DF00068040606D50184073F075C0485034F0607
:109E0000D7045505DC052B01C1023D033F0766045D
:109E10004B06EE04CD062E047507DF01E8008A0329
:109E2000D8014F05D502B70264006B040903830112
:109E30003A0326062E02B00684079B06E204790147
:109E4000B50572028D07870601051B07A200D50123
:109E5000EE0179002607BC00C3069D0158009C0254
:109E6000D4040200B40306066203EF023C065F035B
:109E70005F0468040A008B00C6024404A8015C0465
:109E80008B037D0393071101F105FB026302560466
:109E9000D50407006D0479051F016D024C054501CD
:109EA000C803AF071C007C038C0719047F046205FC
:109EB0005706ED03800665001E024704B2003D020E
:109EC000B6055B03010612029E0003072C05A904D8
:109ED0007506EC0212078C00F0001307E600000480
:109EE000BD043A06E301FB04F302000362017902B8
:109EF000BF00E7022406910049018B0400036804B7
:109F0000F3020A0024068B00C004F000FB04910059
:109F10001700F702620339048805EF028B040C0571
:109F200061043C066F05790260051F05B3076201F5
:109F3000E70244048B07E500BD03C603C6024C02DA
:109F4000BF025D035F03F2045F0492049D01880376
:109F5000580033052E01B102A0075A03C802B1030D
:109F6000C4028C009D02CE02CE070E0312030E0720
:109F70009701E6003B077D077C06BA0349013705D8
:109F80000D04DB059400BB0101060004C4065B055B
:109F9000AF002E019D023A06EF00830653008507AD
:109FA000E6005A06C402F90094039701B102CB01FE
:109FB0005C013301CE07CC02B1037D005B01E705F4
:109FC000020114044E067D07F7065D0324025404C3
:109FD0008607840478059001ED00C501DF037C0647
:109FE00096028E05A104BE00520692063B0734007D
:109FF0000E075005A7053E010F0292070D06450703
:10A0000092063400B9029901E0033B0740047E0246
:10A01000AC051C067803CD004200FF0684040E0345
:10A02000F5044605AB07B301720067072B00440136
:10A0300082072F01C802450027024603F100780578
:10A040009903E2051F048001D7036700F300290587
:10A05000FA0669057E064306B405BA03540086076E
:10A06000D200410441030800900673029F070F06C7
:10A070007001BE074407EF017104A3057A05C90604
:10A0800024038107DC06F4047B07410308003B0638
:10A0900096041802F4023B02C205070307063B04BC
:10A0A0009003E206350633038F018E079006730294
:10A0B00008037401500471062D0746072C0246015F
:10A0C000AE0161062E050600BC03B7052C06470548
:10A0D0005E04A40052079F072F0696053C01170552
:10A0E0005705AF024C030C070400A505E402D40396
:10A0F0004405990211006B0364032E0799057E063F
:10A100007302860754040F055D07C4033B026C000D
:10A11000C205A104F9018C046B033E00F006640340
:10A120004106DA000902910662002E078E05B2028E
:10A1300085007A01BC03D9034C039C05F0053F045C
:10A140004D003104CB06140036011100FE00020759
:10A15000AB037903AF029A0547079E06E4020F009E
:10A16000F7052703F50630056E05B201DA0312067E
:10A1700045063D019702710287078E0112035400C4
:10A18000BA036B016303670719060E073F054B000F
:10A19000FB052F019C04CE04B405A603DF037F0654
:10A1A0007402D806C0052C077404CA04F30582079C
:10A1B00092076306B2071005B305A502B502430670
:10A1C0003103B4000F0248030E069D03E40380012F
:10A1D0008003E3059602C3019406F7003E010E04D6
:10A1E000BE0736048D04DA0258075005D3035E011A
:10A1F0001500290367022F059C07A705B705D5039E
:10A20000CA02A3051B02BF0646019F07D200D10563
:10A210004607D403ED05430004006904A505D003F7
:10A2200097057104A9029507A3009902B0050B02D6
:10A23000FE061C03D6062F065D014104D7010C075C
:10A2400001017B050B004405700405060505390274
:10A25000D803DB022D025905D10011034F01D302AF
:10A260005D0660074E07A504A9065306EA04F80137
:10A27000BA076701C2011606D600810064062D01E7
:10A280002801CE008904C604F40030022000A8048E
:10A2900065018C01E1027F054C06FC02F600FA0024
:10A2A000CF07E10027045F02AE05FE03F004CA05F4
:10A2B00077055103BB03B402AF06F5055D05220027
:10A2C000CC063D074B0366021907DD034E021E0351
:10A2D00091011304B5074406DD04740097048F064A
:10A2E0004E00D40210029407DD0595020C00140202
:10A2F00056024900E905C00688023706FC024C06F2
:10A300002A02DD04780614031304C8059101F20142
:10A310001D043607FD06440637060C036802860254
:10A320002303EB0446064E009103DD05B904FE0449
:10A330005201940703050C00030251078102E60451
:10A340008F06C907F2027B022A00C6000104CD0273
:10A350000306D0069F046B024C07A9073300950241
:10A360008701D10429064E05E300BB064A03900489
:10A37000BF05A2054800D1037706E9004A00140290
:10A38000B4025805AF069205EE06E9050607560227
:10A390009A045002BC05F301490091047100C00603
:10A3A000D103EC0688027706E9004A03B1057A007A
:10A3B0004800A20595029004D104BF059702480504
:10A3C00019003D018E0135054B018707E703710236
:10A3D00045065B02410205019D06EA00C1046E05C7
:10A3E000DD020A02AE0798016A07030389029A0791
:10A3F0007203190103009005A50065034104EF01F4
:10A400005D017101A405BA07DA0144073D04A30602
:10A410005D06D201A7064307D302BF018002700187
:10A4200009064101C70108061806B704550260076E
:10A430007406A8026105690118014E07A9011406F6
:10A4400067014F012306A906180413019C00C201ED
:10A450006C02C7073A020A07E3027E007201D001CC
:10A4600075021606B903AC04D60015032C01870348
:10A47000CB021706A60081008D01D0006E034106B5
:10A4800031045104B300CB068E05BE00AD06980022
:10A49000AB004A073B00E000FD0416000F03500329
:10A4A000B304FA01570212019C050D00320419058C
:10A4B00073039B01220485022F03B0006000D805BE
:10A4C000B406F005DF02830014006207810368050B
:10A4D0004A01EC059E04E4006C067603FE00A5012B
:10A4E000BA014302C20656038E06480752009F0077
:10A4F000270697066F064806E002C307DB065206EA
:10A50000BE00A7059C07F0025603AB0087027D0141
:10A5100043020C024C00880120035807F203870015
:10A52000C2066806A0006E07E9038303E0027B030E
:10A53000F9029A025C06C307D205AA033605A403F2
:10A54000D5074E03FE023402EB01F80414019B030D
:10A5500061015B078A00E400B002BC0705046606DF
:10A560007A024204400081045C05C7026C06D202F4
:10A570003E04070218032A04680166036D006C0597
:10A580004B071E059806B8003F00E6058A01DB0070
:10A590003603820621032C04F4019B0022011903D7
:10A5A000F1044F03570723074D05B1014B05000088
:10A5B000EE05540269034A06CF004304EB006F0323
:10A5C0009F036703A401CB058606B703C606AF0346
:10A5D00068011102D0028506FD039305E706EB032F
:10A5E00072072A049F029706B9019805810578042D
:10A5F00013002806B90725004D0355013205430411
:10A600008E0697064807EB00EB033003110448065B
:10A610009F05E706090095063500B5002706B90134
:10A620003C045A02080125061E061D0104073804D1
:10A63000BC04D7060005B801270593056204F103A1
:10A6400020065205730626018E030807CA065B061C
:10A650002500E006D401310079041C0510009300A8
:10A6600054031B055C023001CB073806DC022401D1
:10A670006C036E02A004BC028A07B6039F026C063C
:10A6800097068A00AF039B03680118032A0411028E
:10A69000550134010702BE032806370496005B0704
:10A6A000BC07C5001E011300140728045C055601F1
:10A6B0008807EB027804D0075605B9073703690706
:10A6C0006006B80611053606A105F50285062D06B9
:10A6D000C50298050603BB07FA05C1001602120061
:10A6E0008105D9065506AD0486006102CF01150526
:10A6F0007A03FA020304C107240122056E05A501AD
:10A70000FE00A5002D0376036F06460070033D068C
:10A71000390565032105B50693033805220287052F
:10A72000B10469009E075E0315064B0461007B06B9
:10A730001007E60625029E03590052003E056F00F1
:10A740001A0351000604A404B0038B0535048906DE
:10A750005F003B051D0605006E010D059B054F02C0
:10A76000F003C8078204310656068406690684058C
:10A77000FD01D1013B0339030E02AC02CB02EF0510
:10A78000D0001001B100B903F802170640024905D4
:10A79000E50523041604A6005C0076016E06AA02F5
:10A7A000C6058D0178078A04370799075102760597
:10A7B000640489020303CD011901030090052707F2
:10A7C000D0010E0063057C00A4076A0785012C01F7
:10A7D00098022C037203C00109013A02D301C70495
:10A7E000B4075A0787031E0773049404FD05150375
:10A7F000430196032B0565037F07500670011B0379
:10A800008002B401BA06BF010F06DB047E037700A5
:10A81000A406B1074504D4058505C7018B02CB0307
:10A82000A003170333074907EA01FC056F0111076D
:10A83000980762028304990489075A052E06E804E2
:10A840003000290415031D02D204270086033802B4
:10A85000FD05FB01DE04CC051A04BB053E079B0287
:10A86000A1001E07CF033207C405500622062407A5
:10A87000EE025302AE047707210731010F06BE072F
:10A88000DB04E403B107A1033604DE004504C30280
:10A890007B002F05B2051E04B206AA04770006024B
:10A8A0007C02BF046C043E075303C1012D055A010D
:10A8B000AC06130249035E0183078804F7011F03F6
:10A8C000CC003807E501D102A7024B02B504D4073A
:10A8D0001A02E90247029B0291077D060C06590203
:10A8E000C5042305E801DE024F0477043C03BD07DD
:10A8F000BA04CC017B044902340420051E06270655
:10A900009F000D05520000059B052807D70666012C
:10A910001D0602030500C900ED0675012A016E013E
:10A92000A201040766051B005606DC04910596018A
:10A930007702840664013B035007A0046E02E10520
:10A9400029075F0180050A0166072400EA058302E2
:10A95000D10100020A032605BB0215045000A3041E
:10A9600062063903DD007E0528029A060E022504E0
:10A97000AC02B602720469068405D10758070C02BE
:10A980002903C5036A058D0420031D006D07050416
:10A9900067024F07FD00CF06010066065607A101BA
:10A9A0003E04A202D605BD06DA02FC019203F800BD
:10A9B00044034305CC04B701D207150016013F023A
:10A9C000E904AA011D039900D9007403D202080208
:10A9D0008900B203590174052405AC07A204DF0005
:10A9E0007D02570030067F01FB00BE02D604E20064
:10A9F000CA03AF04B8054604D5003501E0064D038F
:10AA00002500B603C904810529028A07C705B807CE
:10AA1000BC022F00F604C207160222051C056C03B7
:10AA2000AD046102CF017A03120003042401B404CF
:10AA3000860015058F05FA025506E104C1008F0353
:10AA4000C107D906C103A8003001BE015C028C0316
:10AA5000BA0278005203A20379044D01D2032901FE
:10AA6000C804F10648019C015B06D707C002FA053D
:10AA7000AE02B00195045F074D02DC026503960348
:10AA8000FD0149061E005F002B054A043A01FF0044
:10AA9000DC03B700D10760013E0384050C04C00746
:10AAA0005B0025049E01A50682015001FD02B30250
:10AAB000D8029A06B604DE030F0763006206280276
:10AAC000170193043B016D0304047E05C801E802ED
:10AAD000750354069002E303BD05A3041504BB02ED
:10AAE0002605860450001A06CB04A8030B055B0458
:10AAF000750453055106650747012602660754038E
:10AB0000A004E5036502DD008C051B05DE013F06A0
:10AB1000A806CA00E50260038E001F06E601930046
:10AB200048020B06650750002C00DC009A00530118
:10AB300092002A07DC0294057107E901F1023C0743
:10AB40002600B00796078806840184039C015F07EE
:10AB50004D022E00D905AE026A06B001C706F30306
:10AB60002F0766036907C702AB02C00273077906A5
:10AB70004701800081042106A60660067304900741
:10AB8000B407D106C607A607EA022100AD053F03B8
:10AB9000940440069F06A107D902C50765047B01FE
:10ABA00028007D04FF051902C902F903C704AD029C
:10ABB0004207DD015F06AE03F806C303CE05C404F9
:10ABC0009700120443012B055B0475009503A70150
:10ABD00038000B059D04EA06C2021405A206BD0159
:10ABE0001502E8059A01C8063D05E30481010D023E
:10ABF0007A077F0726045101A80342015006220666
:10AC00007F073101BD017A07D50553029B070D026D
:10AC10007707E30442013206F9040D03810126049B
:10AC2000650521076A004003F403A70348041A01DD
:10AC30000B03E2030A0439019B0459064703EE02A1
:10AC4000E4066002DF06F001510500060401BB05C1
:10AC500024078903DB031A070103320226035C037E
:10AC60004D078F070D01FC06A1009A038C022B02F1
:10AC7000BB002700AC03A90302029401C002AB028F
:10AC8000FA05BB078D00C70636068004F303760677
:10AC90004A056C01D0072F072D06AC0137033A0097
:10ACA0002106CE0156019301A6061105B8066006DD
:10ACB0005C0569076603810473077A020805790653
:10ACC000800042044202CE063C00260247017A047C
:10ACD000E0044000A50351061006070575041C0199
:10ACE0003A051D07D50682035305EF034505D20239
:10ACF0001C049D053C02E40473056D03E504DE05B8
:10AD0000DD06C40020014904870454052B077A0698
:10AD1000B707E806F30464020B078A06F20069022B
:10AD200076073004BE055907700642030503610724
:10AD3000EC0418077000B8037D057C072300E906C2
:10AD4000A604ED048202E7001F07A3039D0075051A
:10AD50008D020A056A013A04330642054005A70739
:10AD60001D05D206C20368037604CA07B804E202CE
:10AD700090004100F405FE05C204F9060601F30443
:10AD800064028D02B607FF01C1051B0441001603D2
:10AD9000280535071C0767066803C505C2031F00A1
:10ADA0005E070E01CF027604CA01DA06CA07310532
:10ADB000B80470055D006D063900AA00FE057F022B
:10ADC000330204050403D406F4051B01F500400119
:10ADD000ED02B501F2068106A002E202B2045F05AF
:10ADE000D300DB07F5035904900059030C01F20569
:10ADF0007C04AB01C20416072203F9067006200189
:10AE00008A052F04D800D2069402B6006B05A70766
:10AE1000420644004205550016075D020C01F90682
:10AE200059034C0159047C04D305F2053C05BD00CF
:10AE3000AB01EE00EE0322032D00F605AC03020287
:10AE40009401EC00A3015804C0039A038C02BB04D4
:10AE50002B0232033803C00058063A07D0059E057E
:10AE60006304A9032A03D6015701F4062D04470001
:10AE70008305FC03520217073201FB066D03A8038A
:10AE8000CC078D055101A900C806C40168077305E8
:10AE900053047E01E0019A01150235034F00570368
:10AEA000E805FA039E02FB061707E6023201450297
:10AEB000E40430074700520273002B0420073C02D1
:10AEC000A3072D040007AE00830570029D058A02CA
:10AED0008601AB06BC061C042A0325019C06AF05AF
:10AEE000BE04FC034505D603AD0336028D060A06F3
:10AEF000E6038F00D601AB0576004105DF00D303E2
:10AF00001500E5015E017D062405E801AC07FB00A4
:10AF1000CC017B042301D90015012B03C300CD0311
:10AF20007704630780074303A20425050F04840008
:10AF3000A10234054007A601A80536007E07E106F8
:10AF40004F0434037F00DA077105A106F6035204AB
:10AF50003200F602EA0393066B065802C700D304D8
:10AF60009C03CB00E50621041004C3049804540795
:10AF7000F8055C076A028E04EB0625078D0674034C
:10AF8000D202AB05BE0245052A067600EB05D604C3
:10AF900078010001E60349025E020F015700230514
:10AFA00034043C03FB037F0153079D07DE02B9060F
:10AFB000CA03AF043501A605F7032F02E401B80266
:10AFC000D5006A022900E1064F04F603DF04E70119
:10AFD000B805D901E20009074604FE019606B70646
:10AFE0007405B00404064C040605E2013200F501C4
:10AFF000A2073E02780259013D00A402BB002700CF
:10B000007907CF0377017206FA04FC0620059B023C
:10B01000EF04BA008200A90334076304D904BD0712
:10B02000A006460295010B04D6010A06EC03BE06F3
:10B03000410507043602BA042F028F00E6033404E8
:10B04000A6013600DC01DA07EB06FF04F80564050B
:10B0500001028400340384025C07A005D807250799
:10B0600091025504CF05AA05370223020701E50620
:10B0700010043102CD052104CD049804E2015E05DF
:10B080000605F5014D04C2006A043E024A020B01A6
:10B09000C905FF0389058E04CB006A02C304A20719
:10B0A000020698045E06B3064C049707CD04AD0172
:10B0B00045038D03E005B900E405DF040301AA069A
:10B0C000CD0556002002A5079505E70118005A0096
:10B0D000BF072A05D700DF05FE01A4027F036D012B
:10B0E0005E0031023D004D06C305D4001303F70492
:10B0F000DA0485046F04B0048B0607017802C703E5
:10B1000059011B06F803A204A8053701B706B004CD
:10B110006F0411068007BF03A90572058504C506E3
:10B12000DA0460046E04F7046D0513036C07C601AE
:10B13000D400FC00C3052B06A1025A04DB01550311
:10B140004D06FC0488007E04CE032E03A3024107B3
:10B15000F6018B06250397030204E1019302E8033D
:10B1600092024402180586052207D0042701230213
:10B17000070134052803AA0721028E023702CD07F2
:10B180002302970327018C0605027703D8078E0256
:10B19000CF054E04D607B6063E06AE06AA07AA0598
:10B1A00013062803E3061A056705B3036600910238
:10B1B000AB049302AD00D60239060205D306B106F0
:10B1C00022078205B5030107FF025504BC0158019F
:10B1D000E803860524049202D00421026A033403A2
:10B1E0007F006F0234059F0118050D07C407610336
:10B1F000440234068F04130571030E0513050D0771
:10B200008F028F0461030E0565061F02F606C40750
:10B2100071030804090544022503CE03210200003E
:10B2200000010202010300040105030104060105F7
:10B2300001060704000407060705060800020900C6
:10B2400008090A0007000A08020B0C080B0C0D087D
:10B250000D09080E0D0C0E0F0D0D10090F100D022B
:10B2600003110B0211120F0E12130F0F14101314EF
:10B270000F07150515070A051603110316051716FE
:10B280001517051813121819131A19181A1B191C57
:10B290001B1A1D1A181E1A1D1E1C1A131F14191F03
:10B2A000132018121D182019211F1B21191C221BE5
:10B2B0001B232122231B24221C251C1E241C252683
:10B2C000120E201226242722222723280E0C260EB7
:10B2D000280C0B290B11290C292A280C2A2B1D209C
:10B2E0002C1D2B2C1E1D2D1E2C251E2D2E252D2FED
:10B2F000252E2F24253020262B20302431272F31B6
:10B3000024103209103332143310340A093409324C
:10B31000150A341435331F35141F363521361F21D5
:10B3200037362138372123382738232D2C393A2D29
:10B33000392E2D3A273B38313B27153C173C153425
:10B340003C3D17173E16173D3E3F262830263F004E
:10B3500001020300020003040201050205060702C0
:10B3600006030207070608090605090A060A080671
:10B370000B0A090B0C0A0D0C0B0E0C0D0D0B0F100C
:10B380000D0F110D10110E0D1012111013121413B8
:10B3900010100F1414151315161313171213161774
:10B3A000151816191618191A161A17160E1B0C1B33
:10B3B0000A0C0A1C081B1C0A1D19181E1A191E1F2C
:10B3C0001A1A20171F201A21191D211E19121722BF
:10B3D0002317202322172403070324250325041100
:10B3E00012261222261F2720282320282027290E54
:10B3F000111126292A1B0E292A0E1F1E2B1F2B2C4A
:10B40000271F2C2D070824072D272C2E272E2F270A
:10B410002F281E21301E302B31211D2A321B321CB9
:10B420001B3322233423283433231C35082D0835BD
:10B4300026223633362232371C1C3735282F38283F
:10B4400038342131392139302F2E3A2E2C3B2E3BE6
:10B450003A2C2B3C2C3C3B04253D043D3E29263F09
:10B4600026363F0001020002030400030403050620
:10B47000040501070202070802080903020906057C
:10B480000A0B060A03090C05030C050C0D0A050D31
:10B490000A0D0E0F0A0E0F0B0A100B0F10110B12D4
:10B4A00011101213111413121415130816090C0994
:10B4B000161417150C1618180D0C1419171A17193D
:10B4C0001B100F1C101B1C12101D121C1D14120827
:10B4D0001E161F0F0E1B0F1F20191420141D210EE6
:10B4E0000D18210D21220E1F0E22231920231A19B7
:10B4F000241A2324251A26201D271D1C261D272833
:10B500001C1B271C282920262923202A1B1F281B17
:10B510002A1E2B1618162B2C24232C23292A1F2DE8
:10B520002D1F222E2118182B2E1E2F2B302F1E31AF
:10B5300022212E31213132222D2232332728342765
:10B540003334262735263435292636282A3328361B
:10B55000372A2D362A37382D32372D38392E2B31D0
:10B560002E39392B3A3A2B2F3B35343B343C3C3483
:10B57000333D33363C333D32313E31393E323E3F4E
:10B5800038323F00010202010301040301050402F5
:10B590000306060702020800020708050904050A57
:10B5A00009040B03030C06030B0C040D0B040E0D16
:10B5B00004090E0A0F0909100E090F100D0E110DC6
:10B5C000110B0E12110E10120B130C0B1113111480
:10B5D000131112141412151015120616070C160664
:10B5E0000F1710101715180C131913141918130C22
:10B5F0001A16181A0C14151B141B1C141C191517D9
:10B600001D151D1E1B151E0A1F0F1F200F0F2017B3
:10B6100017202117211D1B1E221C1B220723080790
:10B6200024231624071F2520202526202621221E1C
:10B63000271E1D281E28271C22292227292A1D21D2
:10B640002A281D191C2B1C292C1C2C2B192B2D2DA9
:10B6500018192E21262E2A2129272F292F2C301A7E
:10B66000182D30181631241A311627283227322F78
:10B6700030331A1A333134282A343228352A2E35F9
:10B68000342A253626253736382B2C2F392C382CC2
:10B690003932343A323A2F2F3A393B2B383B2D2B63
:10B6A000263C2E26363C34353D343D3A243E233A62
:10B6B0003D3F3A3F39000102020103020304040343
:10B6C0000504050607040607060809080609060A10
:10B6D00006050B060B0A050C0B090A0D0D0A0B0DCE
:10B6E0000B0E0B0C0F0B0F0E090D1011100D120D80
:10B6F0000E110D120E0F130E1314120E141115103D
:10B7000016111217121416121718141317141811F1
:10B7100019151A19111A111618131B171C16171DB3
:10B720001C181D171B1E18181E1D1F1A161F161C6D
:10B730001B201E20211E1D1E211D21221D22231D16
:10B74000231C2024212425212426252526272628BC
:10B75000272927282A2928292B272C2B292D292A54
:10B760002D2C2925272E2B2E272F252E2F30253027
:10B770002125311C23311F1C321A1F32331A2C345D
:10B780002B2B352E2B36352B3436372221303721D3
:10B79000382F2E35392E382E393A1F313A321F3B89
:10B7A00033323C2322373C223D35363D3E35353E53
:10B7B000393F302F383F2F000102030201030402FA
:10B7C0000005010605000506070803010105090536
:10B7D000070901090A08010A0B04030C03080C0BF2
:10B7E0000309070D090D0E0A090E0A0E0F080A0FAC
:10B7F0000E0D100D11100D1211080F130C0813125D
:10B8000014111410110E150F0E16150E1016161019
:10B81000171417100B18041617191516191A0F15E7
:10B820001A1B0F1B130F0C131C171D19171E1D1F9E
:10B830001C131B1F13151920211520211A15191D62
:10B8400022192220231B1A231A2123241B241F1B05
:10B850001F251C1E261D1E272628251F24281F21C4
:10B86000202920222A202A291D2B221D262B222B8B
:10B870002C222C2A2D24232E242D2E2824282F253B
:10B88000252F3025303132282E322F282321332105
:10B8900029343321342333352335362D23363726C7
:10B8A00027383727373926392B26303A313B2E2D8A
:10B8B0003C2D363B2D3C3D322E3D2E3B2F323E2F34
:10B8C0003E3F302F3F000102010302010403010546
:10B8D0000401060500060100020700080609080029
:10B8E000090007060A05060B0A080B06040C0304E8
:10B8F0000D0C040E0D04050E050F0E050A0F030CAA
:10B900001009071109120808130B1213080F0A1463
:10B91000140A0B140B150B13160B16150917120925
:10B920001817180911121913131A1613191A121BC2
:10B930001912171B18111C1D0D0E1E0D1D1E0C0DAE
:10B940000E0F1F0E1F201D0E20210C1E21100C0F8C
:10B9500014221F0F22141523142324221424151635
:10B96000251525231F2226222427262227281D20AD
:10B97000201F29291F2620292A28202A2B1D282B71
:10B980001E1D2C211E2C1E2B161A2D162D25192E90
:10B990001A191B2E2F181C182F3018301731212C74
:10B9A000292632262733322633342B2835282A34C9
:10B9B0002835362A29352A36372C2B372B34382987
:10B9C0003236293824233924393A27243A23253B8F
:10B9D000233B39273A3C273C3D273D3332333E3227
:10B9E0003E3F0001020302010401000405010503BA
:10B9F0000100020606070000080400070803090208
:10BA000009030A050B03030C0A030B0C020D0602C3
:10BA10000E0D090E02090A0F10090F09100E0A0C6B
:10BA2000110A11120F0A12130B0513140B0B150C2C
:10BA30000B14151605041613050C17110C15170415
:10BA400008180418160619070D1906100F1A0F12F8
:10BA50001B1A0F1B1C12111C1D121D1B121E11176D
:10BA60001E1C111F15141F2015201715211413213A
:10BA70001F14202217221E171E231C231D1C2324E3
:10BA80001D1D251B24251D1A1B2625261B271316C5
:10BA90002721131E282329281E22291E2A24232871
:10BAA0002A232A2B24242C252B2C2416182D162D42
:10BAB00027292E28282F2A2E2F28302B2A312A2FCB
:10BAC00031302A30322B32332B2B332C2C3425259A
:10BAD00034262E352F35312F36222036372237297E
:10BAE0002232383339201F393620353A313B2E295E
:10BAF000373B29333C2C2C3C34103D0E103E3D3E50
:10BB0000101A3E1A3F3F1A260001020301000403E7
:10BB100000040005000206050006050607080602E7
:10BB20000706080708090A09080B04050B050C0C91
:10BB300005070C070D0D07090A0E090D090F0E0F59
:10BB4000090E100F11100E120B0C130C0D120C130A
:10BB5000140D0F130D1410150F140F1511161016C8
:10BB60001117180B1210191516191016171A1A1783
:10BB70001B171C1B1D161A161D191E1B1C1F131428
:10BB80002014151F14201A1B211E221B22211B23E7
:10BB9000121324131F2313241925152015251D1AEC
:10BBA00026261A2127221E1D281919282527292271
:10BBB000222A21292A222B29272C2B2726212D2A0C
:10BBC0002D212B2E292F2E2B302B2C302F2B2F31AC
:10BBD0002E29322A2E32292E31332E33342E34326E
:10BBE0002A352D32352A1D3628361D263437323275
:10BBF000373534333834393734383936263A3A26FB
:10BC00002D3A2D3B353B2D373C35353C3B39383DC6
:10BC100037393E393D3E373E3F373F3C0001020356
:10BC200001000304010501040603000600070403E4
:10BC30000803060903090804080A0B040A05040B93
:10BC400008090C080C0D0A080D0B0A0E0E0A0F0A43
:10BC50000D0F10060706101106110909111209121D
:10BC60000C0D130F0D14130D15140D0C150C1615CA
:10BC70000C12160E0F170F13180F1817190E171096
:10BC80001A11111A1B111B12151C14141D13141C4C
:10BC90001D121E16121B1E151F1C15201F15162007
:10BCA000191721211718132218131D2216232016E5
:10BCB0001E231B1A241B251E1B26251B2426211888
:10BCC000271822281828272921271C1F2A2A1F2045
:10BCD0001C2A2B1D1C2B2C26241D2B2D221D2D1E1A
:10BCE0002E231E252E2A202F2F20232C30262630CF
:10BCF00031263125292732322728222D3328223395
:10BD000025313425342E2F233535232E303631304E
:10BD10003736382A2F392A38392B2A2D2B393A2F02
:10BD200035382F3A313B3431363B3C2E34352E3CBE
:10BD30002D393D332D3D373E36373F3E000102025F
:10BD400001030203040405020206000205060007BF
:10BD500001070801080301040905050A06050B0A85
:10BD6000090B05090C0B0B0C0D0B0D0E0E0D0F0E18
:10BD70000F10040311031211031312140904041108
:10BD800014141509160C091609150F17100C16189E
:10BD90000C180D0D18190D190F1A0F191A1B0F0F6A
:10BDA0001B171B1C17171C1D12131E1F1E131B20F5
:10BDB0001C1C211D1C222120221C231B1A23201B9A
:10BDC0002024222225212226252426222427262833
:10BDD0002023282420292428292724182A192B1A2B
:10BDE000192B192A2C231A2C1A2B162D18182D2A28
:10BDF0002E232C2E28232F29282F282E16302D30A5
:10BE00001615141131111232113231331514143147
:10BE100033333415301534352B2A2D362A352A364E
:10BE2000372B35372C2B382C37382E2C392F2E39F1
:10BE30002E38121E3A32123A2D3B36303B2D3C350D
:10BE4000363D353C3D37353E373D3E38373F393856
:10BE50003F383E000102020103020304050204060A
:10BE6000020500020606050705040809050807057E
:10BE7000090A00060A060B0B06070B070C07090D3B
:10BE80000C070D04030E040E0F08040F080F101109
:10BE900008100908111209110D09120D1213140DC1
:10BEA000130C0D1411101516111512111616171268
:10BEB000171312141318171913191813161A171B1E
:10BEC0001A1616151B1C19171A1C171D0B0C1E0C05
:10BED000141D0C1E1F14181E141F1C2019192118C4
:10BEE0002021191B221A1A231C22231A1C24201C6D
:10BEF00025241C26251C23262027212720241F1823
:10BF0000282128182926232229231B152A15102B1E
:10BF1000152B2A212C28272C212D221B1B2A2D10E2
:10BF20000F2E102E2B27242F252F242930263025A5
:10BF30002630312525312F2D3222322922272F3349
:10BF400027333427342C2935302936353236292FFA
:10BF500031372F3733383130383035390A0B390B18
:10BF60001D3A1F282C3B283A283B3C1E1F3C1F3AF9
:10BF7000343D2C2C3D3B343E3D3E34333E33373F45
:10BF8000322D00010200020303020403040506032C
:10BF90000506050708060705040905090A07050A35
:10BFA00008070B070A0C0B070C0D080B0D0B0E0EE8
:10BFB0000B0F0B0C0F0A09100A10110C0A110F0CB1
:10BFC000120C11120E0F1313140E0E14150F12165D
:10BFD000130F161417151318141419171819141A07
:10BFE000181313161A191B17181C19191D1B191EC3
:10BFF0001D191C1E1A1F181F1C181F201C201E1C78
:10C00000211D1E20211E21221D1A16231612241660
:10C010002423251F1A1A2325121126122624252728
:10C020001F27201F2728202029212028292A2221D4
:10C030002A212911102B112B262C27252C282723C8
:10C040002D252C252D232E2D242E232C2F282F2952
:10C05000282F2A2930222A31223024322E2433322A
:10C060002426332F342A302A342E352D362C2D36E3
:10C070002D35372F2C372C362F37342E3835323894
:10C080002E393437393034393736263A33262B3A7D
:10C09000393B3031303B39363C3C3635383D353C28
:10C0A000353D32333E323E3F323F3800010200021E
:10C0B0000303020405000305030603040706030740
:10C0C0000607080807090A05060A060B0B06080BEF
:10C0D000080C08090D0C080D0D090E0C0D0F0D0EA6
:10C0E000100F0D1011100E0F10121113101312104B
:10C0F000141311150B0C160C0F150C16160F171721
:10C100000F12180A0B180B15141913131A12191AF7
:10C1100013141B19141C1B1D191B191D1A1E18158D
:10C120001E1F1820212220222324212024252124FF
:10C1300026252427262728262729282A2322262899
:10C140002B262B2C25262C252C2D21252D22212E6E
:10C15000212D2E222E2F2F30222A2230312A302B31
:10C16000322C2B33322C342D2C32342D352E2D34D1
:10C17000352E362F2E35363337323338372F393088
:10C180003A392F3A2F36323B3432373B343C353450
:10C190003B3C353D36353C3D31303E3F30393A3F12
:10C1A000393F3E300001020103020402030405028C
:10C1B0000106030706010805040809050A05090B1D
:10C1C00004030C040B0C08040D09080D080C0E09DF
:10C1D0000D0E0A09070F0607100F071110120306AC
:10C1E0001303120B0313060F14061415120615166B
:10C1F0000B13170B16170C0B180D0C180C17190E28
:10C200000D190D1816131A13121B1A131B1A1C16CC
:10C21000161D17161C1D171E18171D1E181F19187E
:10C220001E1F1D201E201F1E1D21201C211D22201F
:10C230002123202220231F222124252224252426D5
:10C240002421271C27212427282624282925262A9B
:10C25000292626282A1A2B1C2B271C2C2B1A1A1BA2
:10C260002C2A2D292E2D2A2A282F2A2F302E2A300B
:10C2700028273128312F2B312732292D32332934E9
:10C280002D2E34322D3533323536331B12373712DB
:10C29000153715142C382B38312B1B37392C1B39FB
:10C2A0003A32343A35323B2E303B342E2F3C303B41
:10C2B000303C353D36313E2F2F3E3C3A3F35353F01
:10C2C0003D0001020300020302040402050006010E
:10C2D0000706000700080003090009080A07080A02
:10C2E0000809040B030C09030D030B0C030D0E0AC4
:10C2F000090E090C040F0B100F04040510110C0D8E
:10C300000D0B12130D12110D13140E0C140C111031
:10C31000051505161510170F1710181015181911F7
:10C320001319141119131A13121B1A131B0B0F1CB8
:10C33000171C0F0B1C1D120B1D121D1E1B121E1F86
:10C3400018151F1516171820181F2118212022173D
:10C350002017221C1F16231F2321202124202425DF
:10C3600022202521232621262422271C1C281D1CAF
:10C370002728281E1D1B1E292A1B291A1B2A222B8F
:10C38000272B2225282C1E2C291E2D191A2E1A2A5D
:10C390002D1A2E2B252F2F25243024263031242F03
:10C3A00024311932142D321914330E143433341449
:10C3B000320E350A0E33352A29362C3729373629DD
:10C3C0002B3827273928273839283A2C28393A3B5F
:10C3D0002A362E2A3B3C2B2F2B3C382C3D372C3A2F
:10C3E0003D34323E2D3F323E323F00010203010018
:10C3F0000004030005040006050007060002070606
:10C4000008050405080609080A090604080B0809B6
:10C410000C080C0D0E080D0E0B080F040B0A10096A
:10C4200009110C09101112100A0E0D13130D0C1323
:10C430000C140C11150C15141216101017111016DF
:10C440001716121811191511171916181A161A1B82
:10C45000161B171A181C181D1C171B1E171E191A3D
:10C460001F1B1A201F1A1C20131421152214142319
:10C47000211422231524221924151B251E1B1F25D8
:10C4800026191E262719192724201C281C1D291CA3
:10C49000292820282A202A2B202B1F1D2C291D2D3E
:10C4A0002C2E1E252E261E1F2B2F1F2F250E133040
:10C4B0001321313013312732242433222432332202
:10C4C00034232233343421233527262735323625A9
:10C4D0002F362E2535263737262E2C2D3834392168
:10C4E000213A3121393A2A3B2B2A3C3B2A3D3C2A2E
:10C4F000283D283E3D28293E363F2E372E3F00015D
:10C500000203020100040105030105010403060200
:10C510000002070608020702080009040A00070BC8
:10C52000000A0B09000C0504090D040C040D070892
:10C530000E0F070E0A070F0B100909100D11030546
:10C5400012050C12110513060311130310140D1517
:10C550000C0D150D14160C1516120C1117131112C3
:10C56000170B1810101914181910121A1712161A7E
:10C57000131B06171B131B1C06061C081D0B0A1891
:10C580000B1D1D0A1E1E0A0F1C1F08200E08200866
:10C590001F0F0E21210E201E0F2221220F181D23F6
:10C5A00024182318241925151419261425142627B0
:10C5B000161527152524281919282617291B172A87
:10C5C00029171A2A2B1A162B16272C1D1E231D2C51
:10C5D000242D282D242E24232E2F1E222C1E2F21E5
:10C5E0003022313021212031232C322E2332332AA4
:10C5F0001A331A2B1B341C29341B1C351F34351CD1
:10C600003036222F22362D2E372E3238372E38282C
:10C6100039263A25263A26393B27253B253A283C18
:10C62000392D3C282F3D2C2C3E322C3D3E3E3832BD
:10C630003F2B273F273B00010203020104000200B9
:10C6400005010605000600070700040806070704A1
:10C65000090A070908070A06080B0C080A0A090D47
:10C660000E0A0D0C0A0E080F0B080C0F0D09100B0B
:10C670000F110C120F0C13120E130C0E14131514B1
:10C680000E0E0D15150D160D10160F17110F121792
:10C69000151814141913121319141A19181A141B33
:10C6A000181515161C1B151C171D11111D1E111E0A
:10C6B0001F17122012192017211D221E1D21221DB5
:10C6C00022231E2423222125222524222426232737
:10C6D00026242528242827241720292921171F1E2E
:10C6E0002A232A1E232B2A262B23262C2B2D2C26CD
:10C6F000272D26292E212E25212D272F2830272FA3
:10C70000273031201932191A3233193119332E34A6
:10C71000253428253530283435282D362C362D372C
:10C720002D2F373820313829203539302F303A3AFB
:10C730003039183B1A3C321A3C1A3B36373D2F3DF4
:10C7400037363D3E363E2C2C3E3F2C3F2B0001021F
:10C750000301000403000503040504060708090794
:10C76000090A070A0B070B0C0A0D0B0A0E0D0C0B1E
:10C770000F0C0F10110C101110120B0D130B130FC7
:10C78000140D0E140E1516121017100F1716101682
:10C790001812190F1319170F1A0D141A130D1B1451
:10C7A000151B151C1D1A141D141B1E1B1C1E1C1FE3
:10C7B00020131A20191316211816222122161722C7
:10C7C0001723241719242317251D1B251B1E261E7E
:10C7D0001F261F2728271F291A1D29201A2A262726
:10C7E00027282B272B2C2A272C2D251E2D1E262EC5
:10C7F0002D262E262A2F2A2C2C2B302C30312F2C74
:10C80000312B3230332E2A332A2F31342F31353425
:10C8100035363435373636373836383939383A39A7
:10C820003A3B3C3B3A3C3D3B3E3D3C3F3C3A0001C1
:10C8300002000301040103040501060504070604C0
:10C84000040308040809070409030A08030B0A0C77
:10C85000070909080D090D0E0C090E0F0C0E100E1C
:10C860000D10110E0F0E11080A1208120D131110DF
:10C87000131411150F11151114160D1216100D1792
:10C88000101617131018060719070C1918071A1491
:10C89000131A1B141B15141C13171C1A131D0C0F31
:10C8A0001D190C1E0F151E1D0F181F06201B1A2008
:10C8B000211B1B221521221B231A1C23201A241E94
:10C8C00015241522251716261725261C17231C2686
:10C8D000271612251627202328202821212922293E
:10C8E00024222921280A2A1227122A28232B232628
:10C8F0002B2C191D2D1D1E2D2C1D2E1E242E2D1EE4
:10C900002F18192F1F182F19302C301929283132C0
:10C910002931293224322E24282B3331283334254F
:10C92000272625342634352B26352B353332362E23
:10C93000363237323137342738272A392739380BFE
:10C940003A0A0A3A2A31333B3C313B3C37313335E2
:10C950003D333D3B35343E353E3D34383F343F3E3C
:10C96000000102030100030004040005040506079A
:10C97000060508030408040909040609060A0B064B
:10C98000070B0A060C0B070C070D0E08090E090F02
:10C990000F090A0F0A10100A0B100B11120B0C12C0
:10C9A000110B130C0D140E0F140F15150F1015107D
:10C9B0001616101113170C18120C180C1716111943
:10C9C0001A11121A19111B14151B151C1C15161DF2
:10C9D0001A121D12181C161E1E16191E191F1F19B9
:10C9E0001A1F1A20201A1D21171322211321231781
:10C9F000241817241723251824251D18201D262642
:10CA00001D252720262823212921222821292A25DE
:10CA1000242B24232B2A2427262C282D232D2B239B
:10CA20002E28292E292F2C26302625303130252A54
:10CA3000322531253228332D2E33282F342E2E3512
:10CA400033352E3436322A372A2B37362A353438C6
:10CA50003834392D3A2B3A372B2C303B3C30313C93
:10CA60003B302C3B3D333E2D3E3A2D333F3E353F50
:10CA7000330001020302010402030405020006015F
:10CA80000607010301080801070903080A03090A48
:10CA9000040308070B0C080B09080C0D05040E0411
:10CAA0000A0D040E0F050D0F0D10110D0E0D1112B4
:10CAB0000D12100E0A13140E13110E141511141664
:10CAC00011151514171815171915181916151A19FF
:10CAD0001818171B1A181B141C17171D1B171C1DC1
:10CAE0001E1A1B1E1B1D14131F141F1C16201120A1
:10CAF000121121161922191A222119232016212375
:10CB000016240F1024101225221A251A1E261D1C69
:10CB1000261E1D271C1F27261C28251E281E2623EF
:10CB20002920202A12292A202A241223212B2122DB
:10CB30002C212C2B29232D232B2D22252E222E2C6C
:10CB400025282F252F2E09300A31130A310A3032B9
:10CB5000262732282629332A341331341F13271F5E
:10CB6000342D2B352B2C362B36352E362C292D37C4
:10CB7000332937372D382D353828392F2832392E9B
:10CB80003A362F3A2E3B38353C35363C3B353C3631
:10CB90003A3D3B3C3C3A3E3D3C3E3B3F3800010287
:10CBA0000103020402030403050306050704050844
:10CBB000040709050607050909060A060B0A070CFA
:10CBC00008070D0C090D07090E0D0A0E09080C0FB8
:10CBD000080F100A110E0B110A0D120C0F0C120D7A
:10CBE00013120E130D0E141311140E100F150B1635
:10CBF00011111714161711121318131419131918E9
:10CC000019141712181A1B121A0F121B0F1B1C0FC4
:10CC10001C151D160B18191E181E1F1A181F16207A
:10CC2000171917212117201E19211C1B221B1A223C
:10CC30001A1F23221A231D24162420161E21252103
:10CC4000202625212627231F281F1E271F282223B1
:10CC5000292A22291C222A252B1E281E2B2C151C92
:10CC60002C1C2A2C2D152E23272E2923242F202F50
:10CC7000262025302B3130252526312A293233290B
:10CC80002E3332293431262F342635272836282BC7
:10CC900035283630372B362B37382735382E272C8A
:10CCA0002A393A2A323A392A313B30343B313B3C3B
:10CCB00030303C373D2E383D332E3E32333E3A3213
:10CCC0003F2D2C3F2C390001020002030302040512
:10CCD0000003050306070506070805060907060AF7
:10CCE000090A0B090A0C0B0D080707090E070E0DA0
:10CCF000090B0F090F0E0C100B0C11100D1208125E
:10CD000013080B140F0B1014111510111615101712
:10CD1000141015170D18120D1918190D0E190E1AD9
:10CD20001A0E0F161B151A0F1C1C0F14151B1D15A0
:10CD30001D171C141E1E141712181F121F2012205C
:10CD4000131D21171E172122191A1922231923181E
:10CD5000241A1C221A24251C1E241C2518232618DC
:10CD6000261F271E21251E271D28211D29281D2A93
:10CD70002927212B282B21282C2B292C282C272B29
:10CD80002D22242E24252D242E2F25272E252F231A
:10CD900022302D30222C31272F2731292A323332CD
:10CDA0002A23303426233435312C29352C293236A8
:10CDB0003529363337323837333839373A39383A14
:10CDC0003B393C3B3A3D3C3A3C3E3B3D3E3C3E3FA2
:10CDD0003B393B3F00010203020104020304050248
:10CDE0000301060703060803070804030706090AE8
:10CDF00005040B0A040B040808070C07090D070DAE
:10CE00000C0B080E080C0E090F0D0E0C100C0D115A
:10CE10000C11100D0F120D12110B0E130E10141415
:10CE2000130E150A0B150B1315160A1117101018EF
:10CE300014101718151319141913111A17121A119F
:10CE40001B1914181B141A1C17171D18171C1D1E4C
:10CE500015191B1E191F16151E1F1520181D202120
:10CE60001818211B12221A1A231C22231A1C241DF3
:10CE70001C252423251C26201D261D24272212279D
:10CE80001228222923272922292A23232B252B2351
:10CE90002A24252C252B2D252D2C2E1E1B2F1B2126
:10CEA0002F2E1B202F21242C30262430311F1E2E04
:10CEB000311E2B2A322D2B3229332A322A342A339F
:10CEC000352A353420362F3620262737292938337E
:10CED00029373832343934353A343A3B3B3C3439EB
:10CEE000343C2D323D3D32393B3E3C3F3E3B000120
:10CEF00002000301030401010405030604070603FD
:10CF0000070806070908070A09060B04060C0B06A2
:10CF10000D0C06080D040E05040B0E080F0D080974
:10CF20000F10090A09101109110F0C120B0C131222
:10CF30000C14130C0D140D15140D0F150B160E0BF0
:10CF400012160F1117111817191A1B191B1C1C1B6D
:10CF50001D1E1A191E191F201E1F1C1D2122211DF6
:10CF6000201F2322242125242218252226251826A5
:10CF70002725282726191C29291C2119292A1F1988
:10CF80002A29212B2B2124231F2C1F2A2C282D2733
:10CF90002E2D28252F24272F25292B302930312AE3
:10CFA00029312C2A322A31322B2433302B33242FAF
:10CFB000342434333033343130342E352D36352E5D
:10CFC00027372F2D3727232C383839232C323A3B5B
:10CFD0002C3A3B382C32313C31343C3C342F3C2F02
:10CFE000372D3D37353D2D323C3E3A323E3E3C37C3
:10CFF0003E373D363F3500010202010302030405BE
:10D0000002040603010607030403080903070908CD
:10D010000305040A04080B0A040B0C050A0A0B0D8D
:10D020000E0A0D0C0A0E0F050C100C0E0E0D11122F
:10D030000E11100E12130C101310141410121412DF
:10D04000151211161512160D0B170B08180B1817C1
:10D0500014151915161A19151A13141B1B141C1460
:10D06000191C0D171D110D1D111D1E16111E161E4A
:10D070001F1A161F1B1C2021201C211C19211922DC
:10D08000191A221A1F23221A2322232421222409B7
:10D0900025082618082608252721241E281F231FB7
:10D0A000281E29281D291E1D2A292A1D17242B2741
:10D0B00024232B23282B2C17182A172C2C182D2629
:10D0C0002E182E2D18272B2F282F2B28302F2930C4
:10D0D000282931302A31292A3231322A2C322C3374
:10D0E000332C2D3233342E352D332D3635362D3429
:10D0F00033360937253837093909073938093907E7
:10D10000063A2E2626253B3A263B3C352E3A3C2E27
:10D1100034363D353E363E3D363C3F353F3E3500AC
:10D1200001020003010403000005040406030307D1
:10D130000103080706080309060404050A040A098E
:10D14000090B06060C080B0C060D0B090E090A0E3E
:10D150000D090D0F0B0B100C0F100B110708110808
:10D160001212080C120C13130C1005140A051514D6
:10D17000160A14160E0A0D170F0D1817180D0E0F9C
:10D1800019100F1A190F171A13101B191B101C1145
:10D19000121C121D1D1213180E1E1E0E161D131F1B
:10D1A0001F131B17201A17212018211722181E18C9
:10D1B0002221191A2319232419241B1C1D25261D7D
:10D1C0001F1D26271D27251C252828252927292519
:10D1D000272A291F1B2B242B1B261F2C2C1F2B2DF2
:10D1E0002A27262D271A202E1A2E23262F2D2F26CA
:10D1F0002C2F2C302C2B31302C3124322B23322469
:10D2000032312B21332020342E203334223521217A
:10D2100035332F30362F3637221E381E1639381E3A
:10D22000393A16143B163A3B3916223C353C223823
:10D23000233D32233E3D232E3E2E343F2E3F3E00E3
:10D2400001020302010100040104050105060106B3
:10D2500003050706050807040805000904000A0974
:10D26000040B08090B04080C07080D0C0B0D08092A
:10D270000E0B0B0F0D0E0F0B0D100C0D11100F11CF
:10D280000D030612060713061312070C14071413D6
:10D290000F15110E160F16150F0C10170C1714037F
:10D2A0001802191803031219161A1512131B131456
:10D2B0001C131C1B14171D141D1C19121E121B1EDF
:10D2C000091F0E1F160E09201F0A20091F211621F3
:10D2D0001A1621221A0A232024230A192518262582
:10D2E00019191E26271C1D271D28291B1C291C2730
:10D2F0002A1E1B2A1B292B261E2B1E2A2C211F20EF
:10D300002C1F2C2D212D22212D2E222F20232F309A
:10D310002020302C312324312F2332272832283368
:10D320003427323429272A29342B2A352A34352D1B
:10D33000362E372D2C37382D2D3836392C303937BD
:10D340002C3A302F3A39303A2F313B3124383C36A1
:10D350002B353D2B3D3E3F383700010203020103D0
:10D36000040205040306050306030705060805086D
:10D37000090A06070A0806080B09080C0B0D0C0819
:10D380000A0D080D0E0C0E0F0C0C0F10100F1112C1
:10D390000D0A0A13120E140F14110F150E0D12158B
:10D3A0000D14161115170E17140E1718141816143D
:10D3B0001819161A15121B12131B1A121C17151AFC
:10D3C0001C151C1D171D18171D1E181E19181E1FB1
:10D3D00019201B13201321221C1A231A1B23221A83
:10D3E000241D1C22241C24251D251E1D25261E2629
:10D3F0001F1E26271F281B2028231B2920212A2007
:10D40000292A2820262B27252C26262C2B242D259F
:10D41000252D2C242E2D222E24222F2E302F22306B
:10D4200022233130233123282A31282C322B2D334B
:10D430002C2C33322E342D2D34332A353136352AE7
:10D440002E37342F372E382F302F383738303939A0
:10D450003031363A353A363B333C3239313D353D61
:10D4600031343E33333E3C343F3E373F34000102DB
:10D470000103020104030504010406030507040572
:10D4800008070409060709040A07080A0B07070B1F
:10D4900009090C060D0A080B0E09090E0C0A0F0BE0
:10D4A0000B0F0E0F100E0A110F12110A120A0D0F98
:10D4B000131011130F131410121511111513121646
:10D4C00015151713131714161815151817161918FC
:10D4D0001A1B1C1D1E1F1F1E201E21202021221F63
:10D4E000202320242320252420222522262522270C
:10D4F000262722282529242526292A23242A2B23C6
:10D50000272C26272D2C262E29262C2E2F24292F7A
:10D510002A24302C2D30312C312E2C29322F292E3B
:10D520003231332E33322E313034313435333135DC
:10D53000303634333537333732372F32382B2A38B9
:10D54000392B3A2A2F3A382A373A2F373B3A373590
:10D550003B353C3B35343C343D3C34363D363E3D3A
:10D56000363F3E00010203000203020400050106EB
:10D5700005000700030706000608050908060A0655
:10D58000070A0B0609060B050C01050D0C080D0515
:10D590000E08090E0F08080F0D100B0A10110B12C0
:10D5A000090B120B11130912130E091407031507A7
:10D5B00014150A07160304140316170A1517100A80
:10D5C00011101811181911191A111A12121A1B1206
:10D5D0001B131A191C19181D191D1C10171E101EBB
:10D5E000181A1F1B1A201F1A1C20201C211D211C69
:10D5F000181E2218221D20212320232420241F2529
:10D600000F0E260E1326250E1D22271D27281D2846
:10D6100021282321131B29132926252A0F2A0D0F20
:10D620001B1F2B1B2B292B1F24282C23232D2423AA
:10D630002C2D2B242D2E2C282E28272F1715172F75
:10D640003017301E3115142F15311E30321E322284
:10D65000322722322E27331416311433262934264A
:10D660003435352526292B362936342B2D372B37C3
:10D67000362D2C382D3837392C2E323A2E392E3A79
:10D680003B2A25353B253C2C393D2C3C382C3D3262
:10D690003E3A303E32303F3E2F3F30000102030021
:10D6A0000200040105040006000306050005070446
:10D6B0000806030907050A05060A09050B06080BF3
:10D6C0000A06090C070D0B080D080E0E0F0D0E10A3
:10D6D0000F11090A120A0B12110A130B0D13120B68
:10D6E00010140F1015140D0F160D1613170C091129
:10D6F00017091415180F19160F141914181A141ADB
:10D700001B141B191C11121D12131D1C1213161EA3
:10D71000131E1D16191F161F1E1F191B1A201B1F53
:10D720001B202117111C2111221C1D1D1E231D232E
:10D73000221E1F241E24231F20251F2524202625CA
:10D7400027211C22271C17280C2928172129172AD2
:10D7500024252A252623242A232A2B22232B2C275F
:10D7600022222B2C2D2921272D212A262E262F2E31
:10D77000302D272C3027312B2A2A2E32312A3233D2
:10D780002C2B332B31342E2F34322E2C35302C339E
:10D7900035342F3637313237323438333138313748
:10D7A00030392D303A3930353A2D3B29393B2D343B
:10D7B000363C333D3533383D293E283B3E293F3703
:10D7C000343F343C0001020300020302040500035D
:10D7D00006050307030406030708050608090507ED
:10D7E000040A0B09080B0C090D06070E060D0E089E
:10D7F000060F070A0D070F10080E100B080C0B116F
:10D800000B12110B10120F0A13140E0D140D151517
:10D810000D0F160F13150F161715161613181716CA
:10D820001919161817191A19181B191C1A191B1C63
:10D830001A1C1D1E1F201E2021221E21231F1E23F5
:10D84000241F22251E26252227262228262728298E
:10D850002629282A2B231E2B1E25262C252D2C2657
:10D860002D26292E24232E2F24302B2530252C3114
:10D87000232B312E23292A32322A33342C2D3430D3
:10D880002C352932352D29362F2E36372F382B308F
:10D8900038312B392E3139362E3A30343A38303B44
:10D8A0002D353B342D3C31383C39313D37363D3E0A
:10D8B000373F36393F3D36000102010302010403C0
:10D8C000040503040605020307030508030807000F
:10D8D000020909020A02070A060B05050C08050BD6
:10D8E0000C060D0B0B0D0E0B0E0F0B0F100B100C6F
:10D8F000100F110F0E120F12111011130708140838
:10D900000C150815140C10160C16151610130A0712
:10D9100017071417161318090A191A09190A171BD9
:10D92000190A1B14151C141C1D17141D171D1E1B72
:10D93000171E1A191F191B201F1920211A1F1B1E21
:10D9400022201B221E1D23211F241F2025241F25CA
:10D950001E2326221E262022272520272428212494
:10D9600029282A292424252A22262B27222B252749
:10D970002C2A252C292D282B262E2A2F2929302DFB
:10D980002F30292A2C31312F2A2C2732272B3232C3
:10D990002B332B2E3330342D31352F2F3630353677
:10D9A0002F312C372C323730383436383037323943
:10D9B000323339313A35313B3A31373B39333C3602
:10D9C0003D383E3D36353E363A3E353F3B37000129
:10D9D0000201000301030400050300060506070514
:10D9E000060807090708090A070A090B0B090C09A9
:10D9F0000D0C0B0C0E0C0D0F0C0F100E0C100B0E53
:10DA0000110B11120E1013110E1314100F14151008
:10DA10001310150D160F11131713151819131819C4
:10DA200017131A15141A1B1518151B12111C111790
:10DA30001D111D1C1E0F161E140F17191F171F1D59
:10DA4000121C20211220212212231918181B242312
:10DA500018241C1D251C2526201C262026272120B5
:10DA60002721272828272928292A2A292B2A2B2C2D
:10DA70002C2B2D2C2D2E2F2D2B2F302D2D312E2DCF
:10DA8000323130322D2C2E33332E31303432323588
:10DA90003132363536323433313731353831383743
:10DAA000392B29392F2B2739292726392539263A89
:10DAB000302F3A3B303B34303C2A2C2C333D3C2C2D
:10DAC0003D3E2F393E3A2F253E393B3F340001027F
:10DAD0000301000304010002050604030706030610
:10DAE00008040809040A08060B06070B0A060C0BB3
:10DAF000070A0D08080E090D0E080E0F0910090F70
:10DB00000A110D0A12110B120A0D130E13140E0E28
:10DB1000140F100F15150F160F14170F17161318D3
:10DB20001414181914191715161A161B1A161C1B7B
:10DB3000161D1C16171D171E1D17191E0B1F120C64
:10DB40001F0B1D201C20211C1C2122231D1E2324F1
:10DB50001D1D242018251918262519271E192527CB
:10DB600021282222282922292A2B2A292C2A2B2D36
:10DB70002C2B2E2C2D2B292F302B2F2D2B30312ED3
:10DB80002D31322E332D30312D33203421213528C3
:10DB90003435212436203634202337242437361ECA
:10DBA00027381E3823363934343A35343B3A343941
:10DBB0003B313C323C3D3233303E302F3F3E303FF4
:10DBC0000001020103020402030502040500020031
:10DBD00005060006070403080803090A05040B04E8
:10DBE000080A040B050A0C050C0607060D060E0DA7
:10DBF000060C0E0F0D0E0B08100811100C120E1251
:10DC00000F0E0C13120A130C0A1413140A0B140B24
:10DC100015150B1012160F171612131712181011D4
:10DC20001510181319171419131A1415141A191A90
:10DC3000151B1B15181C17191A1C1918111D1E1855
:10DC40001D1B181E1F1A1B201B1E1F1B201E1D2103
:10DC50002223242224252426252427262728262378
:10DC60002924292724232A292B2A232B2C2A272D30
:10DC7000282D2E28292F272F2D272D302E30312EDD
:10DC80002F29322A32292C332A2A33322F342D34A9
:10DC9000302D2F3235342F3530363136373138315B
:10DCA000373839313A39383B3A383A3B3C3A3C3DDF
:10DCB0003D3C3E3D3E3F00010203020103010400E2
:10DCC000050104010605060107030407040804060C
:10DCD00009080409050A0609060A08090B090A0CBD
:10DCE0000B090C0D05000D0E050E0A050F0D000E9B
:10DCF000100A0C0A1011070811081212080B0C1058
:10DD000013140C130B0C14150B14120B1516111203
:10DD100015141714131817141816121912151A12AD
:10DD20001A1915171B151B1A17181C171C1D171D60
:10DD30001B16191E161E1F191A2019201E211A1B28
:10DD400021201A1C1822231B1D23211B1F1E241EE9
:10DD500020251E25242620212625202425261F2493
:10DD6000272826212821231C291D1C2A291C222A78
:10DD700027242B24262B2C2B262C26282D231D2D27
:10DD80001D29272B2E2F2E2B2F2B2C3028233023F1
:10DD90002D312C28312830322F2C322C312A2233AD
:10DDA000342F322A33352A35362A3629372D29376A
:10DDB0002936382D3738302D3930383931303A312D
:10DDC000393A32313B34323B323A3C343B3C3D34DD
:10DDD00035333E333F3E00010203010004030001DE
:10DDE00005020106050706010307010400080408EF
:10DDF0000904090A070B060B0C060D03040D040A9F
:10DE00000E07030D0E030D0A0F0F0A100F1011114C
:10DE10001012130B070E13071112141412151415F8
:10DE20001616151716171819181719171A1B191A75
:10DE30001B1A1C131D0B0B1E0C1E0B1D1F0D0F1F81
:10DE40000F111F11202011141C211B1C2221230E35
:10DE50000D1F230D2014242414162416252516180E
:10DE600026130E23260E27181928191B28271925D3
:10DE700018292729181B212A1B2A28222B212C1D6F
:10DE800013262C13212B2D212D2A2E2728282A2F2B
:10DE9000282F2E3029272E3027311F2032202432E0
:10DEA00031203224252C331D1E1D34341D333523DF
:10DEB0001F31351F2529363036293225372536378B
:10DEC0002A2D382A382F2B392D2B3A393B1E343C3A
:10DED000302E2E2F3D2E3D3C3E2623353E232F381F
:10DEE0003F2F3F3D0001020103020104030504012D
:10DEF0000601000605010706000700080509040AD7
:10DF00000708060B0509050B060C0B0D0C060D0684
:10DF1000070E0D070E070A090B0F0C0F0B0F100948
:10DF20000A110E0F1210121310140C0D150D0E15F0
:10DF3000140D14160C0C160F16120F0E11170E17C7
:10DF400015111817111918121A13131A1B161C126F
:10DF50001C1A121D1C161D16141E14151E1D141538
:10DF60001F1E15171F17201F1718201C211A1A22F1
:10DF70001B1A2122231C1D23211C241D1E24231DAA
:10DF80001E1F251E25241F26251F20262718191889
:10DF9000282018292827291824252A25262B252B2F
:10DFA0002A202C2620282C2D2324242A2D2E212300
:10DFB0002E22212D2E23262F2B262C2F30292731C0
:10DFC0003027303132303233333234333435343633
:10DFD00035373335353638353839373539363A38D7
:10DFE0003B30333B3337303B293B2829283C2C2816
:10DFF0003D3C3B3D283D3B372C3E2F2C3C3E3F39A2
:10E0000038000102030002020104020405060205B1
:10E010000302060605070705080509080A03060A9C
:10E02000060B06070C060C0B07080C090C08090D5B
:10E030000C0B0C0D0A0B0E0B0D0E0A0E0F100A0F17
:10E04000FEF1192544A4EB328E0086215FC628EF2D
:10E0500048C0AE0090AFECD55C0BB45DD700C0F10A
:10E06000E9333305177BEE007AD17930BF1BF275A7
:10E07000D100B7F84D353FDEC13CA40064CDA72BDD
:10E08000FC05C66EEA006BB8CAD9B2F4C63A6100A4
:10E090001BBB1C1E6D168FE83500E6F5CA3025BD8A
:10E0A000E77CFA001BB042D5EA06CD73F1001EDB17
:10E0B00056322317F46EC2006AE1F8375010E77B3E
:10E0C000150066EC5F1E5DE188290B00AFFF2C3761
:10E0D000F413007FF90019D87B2E8E000A6D4000E2
:10E0E00024FC632BA2B2F95BA70072D2952D5402D7
:10E0F000D376F500AFFFB12CCFA8006ABB00AFFF0D
:10E10000181E73A200E085009DE401234AE9D22293
:10E110008F005B1EA3B71D0B348DF700AAEB581DB3
:10E12000BFDE8620100061B5E8D82207AB40BB00F7
:10E13000544D99D886F512545D0024ED903244FB7D
:10E14000F07DF100B79C76D0B3F4B227A4002AFC8E
:10E150004F37E1DEF26DC10079B91DDBB5F7A2558D
:10E1600005006A18FFCE3CE33ACF9B00A6041E339D
:10E1700033EEF67F0000FC231B2EE4FB324DA9009A
:10E18000C3D2442C83109F4A2100060F4134C2059C
:10E190000E7EFD00A1DAB9340504B14CC000B615FD
:10E1A00068387F0AC470000043068536FCDE2E52B4
:10E1B000AB0031F7032F14AF1E79EA00C616111C0D
:10E1C00013D27AE61800D0295127812733D76C0063
:10E1D000C60EB0337B02E67AEA00C04202DEA60039
:10E1E000701CCC00C9F2F82D97115D4C2900AFBD11
:10E1F000CBDBF6248EE6300090128028F8D96D38FB
:10E20000200040308B2CC20DEF7DF2002C15492AE6
:10E21000F3AF4766E50041FD432D26AA0E7E0C00B4
:10E22000F0149331E731E6177A0058F80C2BB2B1AD
:10E230005E4AD6000048A1DD15095B44C90059E5D6
:10E24000AE388B06FD7EF200B6BA29FCEF15851BB1
:10E250001200CDF6503110C5E87DFC009752FFDA70
:10E26000E81816654900559F81CDA901C971EE00D6
:10E27000C1131833DAFDFE77D400BD24B934050488
:10E280004F4CC0004D1B601F49A97410CF0098ED82
:10E29000520D7DD691EEC600F8125F1E5DE1782921
:10E2A0000B00F8500ADCE0F22A53560074D26720C3
:10E2B00010F0C31E950056E40E1AE7B18AD108008B
:10E2C0000C1ADF0B6CE15817A80017194833D8FE59
:10E2D000EE5EAD0012C4D10B371DB0285A00FED837
:10E2E000BB32791FF278D800F921EB332A14334C72
:10E2F0005800DCBE7F11841693FB4100BEF35431FD
:10E300000FE2A456F100EB2C952D54022D76F5006A
:10E31000DEE7573705043F52B70066E1B4346800C2
:10E32000F152A0007EE11927D3F5F4399000A0D373
:10E33000ACBE2F17C0941000010915FC3DD227EE8A
:10E340008900D0D5C22D9AFDC564CD00BADD6735F0
:10E350006413CC495A00D5232A30B0FD1578230028
:10E360006F0B7E30ADDA436CFB00D5F9B937D8E7D7
:10E37000F56D3F00D3F0A82DF9DD9B4C070001C2DD
:10E3800011E88FF48E17CE00C3C2CCD1B426A4BE40
:10E3900039002C29072DB1154F4B4000474EDDD6D3
:10E3A000EAF71F713100473BFFEACAF15F19B1007C
:10E3B000C2AF5CCEDC02318BFE008CF6B93543E097
:10E3C000A02CBA00335241D4ECFC33740900A505EB
:10E3D0003E35B5E916127C00D4EEF432160C9E4F91
:10E3E000F30005279C308A014B54C600F6515CD9D6
:10E3F0003BF40F347300AFFFBD324BEA007B1E00CD
:10E40000CBEC3D1FDCE38B24DD00B1F3A83091DEC3
:10E41000A95CF600F6D4F52850F5CA5CBB007E096D
:10E42000C735D2E576192600F0ADBFD30A1942C729
:10E430005C003EB841D74FFCCB6B2B00CB64CAD0FD
:10E4400099182476E400B2DBB615C426D6476000DE
:10E45000ADAB6ED34002D075FE0056F765357FE850
:10E46000AA105C000C1A98331519147CF00015A73B
:10E47000DED71AF1B559CF0040CA111F3FF5B21BC4
:10E48000A0008FE6AA2488A9A546CA00CDA97CD2FF
:10E4900063FFC972FB00E5F7253875E5D5751600F1
:10E4A00045166038CF0DC76E1A004CE56F352D014B
:10E4B0001754A40040D1C2F2413AB71C64009F3007
:10E4C000DE2AD6003B6ADC0061DD06378B06D57795
:10E4D000F20041159333B7FF26722800803C0D11DE
:10E4E000ABFC6406B2000A23720DE32F33525300D3
:10E4F000D5052D2ADEAEB95C33009BB356D60C167B
:10E5000049D25D0098E4C737CA020B69BA00CC2231
:10E5100035DCE53F28DE7300AFFFE3339A07007C6C
:10E52000E40034D1B2D552EFD4C89700EDF33A37B6
:10E53000491ADE76E200975819D0641BCBBE5E0004
:10E540005613A122D1DD771923006BE7A0335E17A4
:10E55000E275DB00633FB429D41955552800A9EDB5
:10E56000EC23BFE38921E3000F528ED82E1AD8186E
:10E57000760067D78F2B9FF7CE68CA00CE018F2C0D
:10E58000E1AAE54E6100DA07EB0447D028DD8D00F3
:10E59000CB6414CD4EFEA00F5100E83A25E694EF6F
:10E5A0003D43A70066EEA71241BFCE8BFD0013B21C
:10E5B000BCD6D908B85ED30074BF8CE13DFA892976
:10E5C000F200C90F4728F4A62254A8000B14AC2867
:10E5D00003D56B3E1D006D427A1C7D047116CA0086
:10E5E0007C203D37B11025771900ECB7DDD8200429
:10E5F000AC3DB800BE1AF02159BD7D0E0E008D0451
:10E600002F31B2B8097EF90042B196D649ED08C75C
:10E610008F00CF9B6FC817FB018AD200F20B8112CB
:10E62000FBB41285E90038124A33B9114C5CD500AD
:10E6300088EB850AC0D99D08B2003F3C43DBEFED73
:10E64000F6C98E00D117AA2264CF7B121A0032EAD3
:10E65000492AF3AFB966E50039F04837F61EDC7594
:10E66000E100051AAE38950E037E0D0040B3D7D5F4
:10E6700084FFE57C01002DF08C2D20DAA3550F00DE
:10E68000ED1119FFA4D64CFE9B00EA29A22C2928E3
:10E6900049116600C2AD71D6D00EAA43C000C3DED8
:10E6A0007E359C27D9780B0037CF672C820A0D7EE8
:10E6B000050085F225338AEDDA76E700BAF35035A6
:10E6C0008814E379E8007D965ECA0B0A6250FC006C
:10E6D0003A03632BA2B2075BA700341F60305EFAD7
:10E6E0001A6BC100FF23C835AE044064D50070ED3D
:10E6F00019FFA4D6B4FE9B00DA9104CD7A17A33C8F
:10E700003E00526672CAF30D167DFD005634862314
:10E710004FF74945B30001C33EE260EC051B84009E
:10E7200088E9611DCFE6BE19960009EE3A3416124B
:10E73000C36AE00071B44BD664FBE57B1100FFE9CE
:10E740002A18F0E09128D200AFFF75B136FE00859F
:10E75000E1009AF576306FB8E57CF7001025052AC0
:10E76000B41B33425F009D089F3394EA087EF50096
:10E770001EE68C1A6FA7B2CDAA00C44EC9D5C8FA3E
:10E7800021781A00754096204C1B4CED64007332C2
:10E79000302AF02242126B0040AF7FDBE511AE520F
:10E7A000CE009E309D27750A6E40000049E554FD5D
:10E7B000E5DDAD0BA100AABAD9D80701A336BC008C
:10E7C0009C36C12A690F2378ED00F102C72C08A9F5
:10E7D000046ABB00B444D9D807015D36BC00114AB5
:10E7E00000D24C0FD29531009B10842DAD17BC4A3E
:10E7F0004D009B0D4318C7A607A4A900DAE9893785
:10E800002A0E5A502700CD4EF7D7840C5841C0002D
:10E810000790C9CC8805A150E700AFFF9E32D2D83F
:10E82000007BE000FF12FB2C8BC44D650500724796
:10E83000DDD82004543DB800AD3B11032323503BE9
:10E840004E0088BFE909D318941C3C00DACD482358
:10E850009712973D25001AF0E12CF9AED170DC003B
:10E8600084E999330A16D96DCD0083E23B33171939
:10E87000F77CE80058CEC61E3F21D9E27500D425AA
:10E880005135CF0D4E6214006F5739D18EFB3D6F5D
:10E8900000004242D4DE01F65D4F2200D6E7073485
:10E8A0005C18E87BEE00C14CBEDA54F40830750009
:10E8B000E01D1927A51F0D406D0090419DD0DA0085
:10E8C000278AE90090DC141874EBC9118F00D6E890
:10E8D0004324C5A6C23FA6006A198122BCC67D0F8B
:10E8E0001300B10B7D3039D536730400CE2234F7D6
:10E8F000C83F2E227100BD2BACBE2F1740941000D4
:10E90000AEEB211556D884E7F700C7D7B932970682
:10E91000A04CE0004442C8E3F0F0206F3400DAE994
:10E920008937F7065A50D800FDEE0E127AC7BA970B
:10E93000F40071B8D9E3260E8419F20045C09CE2B8
:10E9400039F6913D01000215E4338A01CD61C00022
:10E95000ABA66BD38C13BE48B0001CF066316604C6
:10E960005259DB0007F1FD32E1FD057FF9009AE61F
:10E97000B8275DBB964506002730672C820AF37ED8
:10E980000500BEDE1CD127E8B7D5A2001F33F62252
:10E99000820A703C000075C425E694EFC343A700CB
:10E9A00050B552D6B301E17AF100E2C2A113B21A16
:10E9B000B3006500D016F435ED11C25547000DBD0A
:10E9C0004D181F1695E13D002FD0EC276503993FA8
:10E9D000DA000E2690256BF736399D0032D6072DCA
:10E9E000B115B14B4000591013B2C60D2185FF007F
:10E9F00091239BBE93FB439ED200EBC87EED60EE5D
:10EA0000BC12970099D5FF2F5C0FA4511E00BD408A
:10EA100013CF8B0E57A50900C45820D10E023672B1
:10EA2000F400A0201CD127E849D5A2004FE65929BF
:10EA3000A9EBCF419F00BB0F1A3314F6177DFA00E4
:10EA4000A0414F112D0578FED70059D64C30451501
:10EA5000F368B800A7BDC6FA70FE8F0FCA0047481A
:10EA6000C5D713F62A6F2B0066278D3372232978BA
:10EA70000900C7ED21340601007EF4009B10842DAF
:10EA80006CFDBC47B100CE515FD474093971F500FB
:10EA90006EFBDB313DC5F87FFB00AFFF5A31DF1A5B
:10EAA00000227A00A7064D353FDE3F3CA4003545E5
:10EAB0005ED7C9FD366C270063253733ED11504B07
:10EAC0003F00722E2A2EB7132777EE00F921EB3381
:10EAD0002D013250AB00693F36EB1EF974F8CD00C2
:10EAE00026ED4A33B911B45CD5000AB299D886F53F
:10EAF000EE545D001AE73C1B48E7C13BA30062F2FD
:10EB00006D3873220F7E0700E9F933103FBCED84A6
:10EB1000EB0094473AD71713E0C06900EB3B06CDF2
:10EB20008D01439BDC001E07A63750E7296A37009A
:10EB300030EAF835552F0A5D550058F04134C205CA
:10EB4000F27EFD00DE1CD73227180774CD00C529E0
:10EB5000FF2F9E055C52E200D8147F1F5BE6491030
:10EB6000990006FB053159B6F97CE900FF06AD1D99
:10EB7000E2A208DC870017B7C5D713F6D66F2B00C3
:10EB8000C70E8F297E19BB455100629C98CC6E0C34
:10EB9000C36D1600AEEC7F2430A5DC3794000F4522
:10EBA000CAD1FA0C218C2600AFFF502B47B2005D72
:10EBB000AA00DB341C1A23F54CFE9B00B8FB852F02
:10EBC0008AB4FC308B00AD5939D1620B2A76120021
:10EBD000C0CE9D27750A924000000F07612CDFAF61
:10EBE0008A1A260015FC4F367ADDE65BAC00ED9FF5
:10EBF00099D3681CD2663B00F6FBA7357F1A3E54BA
:10EC000048003ECCF622820A903C0000C6B9AAD445
:10EC100062F31593C30025C963D9F032AFDB5A0004
:10EC2000AFFF732D9AB300338C00250F4837F61EC3
:10EC30002475E10045277B2E8E00F66D400027D21B
:10EC400009E2B7EAD2EB8C003B06EC144DAB07901F
:10EC5000C500E93F8CE13DFA7729F2002DDFC82D90
:10EC600065F5D46DD000E4589FD01EF00BC1930021
:10EC7000299ACFCE0DFE48444F004F202133721900
:10EC8000147C1400D90C25338AED2676E700790729
:10EC9000253875E52B7516007ED0052C870D297754
:10ECA000F100F1E608311CF9E979E200F4E56BC402
:10ECB00091EAC9B7A800AF973FCA8509EB7D01006B
:10ECC000282BC7286CFD533FB800E4F7972CBC20D5
:10ECD0005CE25100F1162A349B19117E05003C08B4
:10ECE000CE36E8151779E2001DC952E4E934ACFCD0
:10ECF0005F005CB805D9C6F5A0520F00BAC5212C3B
:10ED0000231DBA51440078118928A5DD71321C00F9
:10ED100006070C2BB2B1A24AD600A7B061DE75EE91
:10ED2000BF58C00062E7D61BB3CA88DD12001DEAD7
:10ED30009333B7FFDA722800F92C31247E19553E3F
:10ED40004700E8055C2BC8B2E154A6009AA620D182
:10ED50000E02CA72F40049E4E736402AE07A0F0056
:10ED6000BA0AA3322BE6476906006C1808311CF971
:10ED70001779E2008EE8F435ED113E554700C418CE
:10ED8000B8275DBB6A45060079A69FD01EF0F5C185
:10ED90009300AFFFF0149DAA0092C1000A146C17F3
:10EDA00033A8119DB200D42BB62D1603067B1F008D
:10EDB000576667D0341B376A2A0057440BDBAEEC2A
:10EDC000F1CC8D001E3DD5E4552E61FC5200C6C429
:10EDD00091F874F3A814A7005AD1CEEE49EAC806F8
:10EDE0008E006BE79B23EC2319B86600AA2261C250
:10EDF0000B2C30A043004407CF315AD51B7CFD00BB
:10EE0000CA072D33E3E822742500AFFFB00F88BB9B
:10EE10000083E9009EBC02DEA600901CCC00218F7E
:10EE2000DBCC430F9E4F0C0072031B357DDC234867
:10EE30009E0065D23124DDFBAA3BB800EAFBB0336B
:10EE400096DBE05BAE002CE87336AC24E678DF009E
:10EE50006CF38112FBB4EE85E9008CEF83361F2C36
:10EE6000395B4300EF1D7C387D0A187D000021CA04
:10EE7000BBC71D21B7A0270088164324C5A63E3F67
:10EE8000A6007B52EBD609F5123C6E001BF98536C5
:10EE9000FCDED252AB00B01173292B2CC0A63E0071
:10EEA00077EC17126632E859570030F4FC26BB2085
:10EEB0003AEB6F004CF178357D18DB76E6009B90DD
:10EEC000C6C9D6169DE54B00CACA312AF105C76EE0
:10EED000E700AFFF1435B1DB004C9A00B7EF0934FF
:10EEE000EF0BB263F5002C3A7922911E34EE7200DA
:10EEF000CA429C079F067B0EE400C7ACFFDAE81805
:10EF0000EA654900F6D3002C67FCC868D10091106F
:10EF1000BB3247096250010045A6BDD1BEF6FD4493
:10EF20006B00AFFFC9FBCFD000E98300331F5A311C
:10EF3000EBFB1B76DB005D3D11E88FF47217CE0012
:10EF400090DC34F7C83FD222710029153834E81616
:10EF50001E78E200080865357FE856105C002CA496
:10EF60007ACF3D0FCD701F00D10A2C2F89B12177A8
:10EF7000E500AFFF6635D418006251001E35111F41
:10EF80003FF54E1BA00055F176316F0A5A5A00002A
:10EF90006F0A4FEC15D522E98800239636CF44142A
:10EFA000FB7DEA00ABE3F220E7B4820E070082A605
:10EFB00005CA4B052D8AFE0036D4C7286CFDAD3F2F
:10EFC000B80022F7CE36E815E979E200CCE5BB328D
:10EFD000F7FCF079DC005FBEB525501BA71D55007E
:10EFE000B8E0F6DE22E2B7EB9A0088DC79314C1605
:10EFF000CF555000B1AC2CD577F6CE614100171B30
:10F00000FC19A9AB71CDE700F430FB2C1611207A66
:10F01000F300B344FB227016781B20006603923283
:10F020007DD9107AE000F4BF36EB1EF98CF8CD00E4
:10F0300098F0B0337B021A7AEA00B0C3110323239D
:10F04000B03B4E009219BB32F7FC1079DC0098E817
:10F05000111C13D286E61800EA039F302BB5046218
:10F06000B0004DB500D24C0F2E9531009403C93637
:10F07000D1E8E24863009F615BC81216DD8C260070
:10F080000B98ACCAF90E485BCD00AF2580E023E7B2
:10F0900043EA9600AFFF53328AD4007FFC00CA2EA9
:10F0A000FA2BA90ADD790C00D0F36728FAA5EC4DFC
:10F0B0009E00C2ED532BC7E8B142B600114E8CDD65
:10F0C0002616056A45009D14CB33F0FE057CE5004D
:10F0D00067AD5CD93BF4F134730052E9DB37762A33
:10F0E000F37D110063359BE3CCEC1C0084002F2FD3
:10F0F000EC276503673FDA00E618701F33A64D0C56
:10F100009C009747D6D88AF76152FC005CCD1E2D33
:10F110001016EF77D700DB9B5BCC34F5D0C59B0096
:10F12000490A462ED8AD1D74D6002CECB71441AE5A
:10F13000EA87E1002BE05A31EBFBE576DB0045D1B5
:10F14000E6FDFB34B5385500E71217126632185940
:10F1500057005E271B34810A654D00005B9710CC79
:10F16000720478092800BA379AD092F629A3B4001D
:10F1700026F86E30EDB40774CE00EAF5413097B54D
:10F18000E67BF0006FF3C30D55CCC4A1C6007FB978
:10F1900061E39FEDDD6AC500696BE6CE58163571F7
:10F1A0001300710B3A37491A2276E2008403892D45
:10F1B000FBB305318B00AFFFF91F4226005F5400FF
:10F1C00000059337E017F07E0700393663D9F03237
:10F1D00051DB5A0053E90C346B1BEA7DFE00B5127B
:10F1E00091CB993C19BC6800C3255C2D61F92F684F
:10F1F000C9004ED654C63DF7B7B2BC00115CE7CE8D
:10F2000056FE3971F500AFFFE2245F1F00644E0027
:10F21000C809FE35BDE27921EF000C9972CAF30DE1
:10F22000EA7DFD00A32167350902334AA700AAC081
:10F230003FF0FAF69605BB00FF40D2D13B1A6CC2F4
:10F240001700FDF9C233BD07FD7DE80040198C1A97
:10F250006FA74ECDAA00AFFFF42A78AB004F630032
:10F2600071F61E387A1C147D0600AFFFA83851E4F1
:10F27000007D1300DEF3F82C9D2761D04200AFFF24
:10F280009F32BC01007EF1004FF8612CDFAF761A8F
:10F29000260096A851D27C09D4770400413A5E2A10
:10F2A00054112574DD00ABDA6032F717D8780F00FF
:10F2B00020A617D12512BE4EB6007B45E8E0BFF26E
:10F2C000184667005BF697239C21094B660034655E
:10F2D000CFCE0DFEB8444F001F53F6DA9D16486896
:10F2E000F200961121340601007EF4007709CA303D
:10F2F00025BD197CFA0005A7F2D5D415B954C10073
:10F300002B241B3094FC2874DF00895BDCD01209AD
:10F310002C770200E64319DBF1006824C100ACB988
:10F320005DD79C00C266D6007A41C4DDADFC762F65
:10F33000FF008D2D41C5B5263C9F36005014302C62
:10F340008BBB4C65FF009D454ADC7BF43B3861007C
:10F35000E73BC0CB7B1C59A91A00890FD72DFFB200
:10F360003073E8007F0BF82C9D279FD0420092104D
:10F37000CB1036CE5FB1E5008D9874CA5304E67C9D
:10F3800003009B9178CEA70ED376000067AEE5D838
:10F390000610A941BF0002E93A207023FF26790038
:10F3A000B2246032F71728780F001695ACCE4E05C0
:10F3B000197C0E00ABE97F28091E1E42680047E653
:10F3C0004833D8FE125EAD00BAE5AD2698B3954439
:10F3D000FB0090439DDA73FC56404300D558A6D1FC
:10F3E00037072A78FB00FE3581CF9E2C4BB74700AC
:10F3F00020E546330E18EA78DE0055D2DB1437F0EC
:10F40000C009930050EB6015FAD38CCE0500D10FE4
:10F4100083361F2CC75B43002A2EB2D552EF2CC86F
:10F420009700AFFF7A32D0EF007F0300C447ADDD15
:10F43000B2F30E297700B2169F2C73F9E1439900BD
:10F440009405493792DF1A65B8005F5885D7261BA7
:10F4500024644500702FF32C8E10F879D900DFE377
:10F460004E38B110F67C1900C8968CCFC6FCC97115
:10F47000F200025AB0CFF210416AE9001B2ECEDA38
:10F48000E73941DD6700C905E61153B30D86E00099
:10F4900072367EED60EE4412970018DB2E1D09ECEB
:10F4A000D1028A00CBEDBB327804AF58290005DFCA
:10F4B00097320B1EF17BE400AFFF4ED930D800D855
:10F4C0008800F7128C349F19147DFB00AFFF0236C1
:10F4D000E0E600207B00FEDE6DC0F5F3C0A8BF00B3
:10F4E00017DE6736CA02D163C00023F9EC144DABB6
:10F4F000F990C50073B18DD546FDE27B0B00AB35AD
:10F50000BD0394274A3F500050D990256BF7CA3964
:10F510009D00F119A032F2FD237523006CFCC72C6D
:10F5200008A9FC6ABB00179FB3CED508C46F0000C2
:10F53000F3C077299613C169DF008A10F432160CE4
:10F54000624FF3004C3BD10B371D50285A0073D546
:10F55000A22C2928B71166000390A7C5F00CD48906
:10F5600003006F1B66307B312517770068B9B3D86D
:10F57000DDFBB44848006E71B4C73A0E74CE0D007E
:10F58000F346CAD9B2F43A3A6100D46C70CE8C0515
:10F590002D76F80081F7EA337AE8A90D5B008E54E6
:10F5A00025D3BB0B3A71FF0010D8CCD203EDBCD0F1
:10F5B000A10096F9A43626E9EC46680057122623E6
:10F5C000BEE0791D1A005CBC780C820F82050F002A
:10F5D00001057838CFE5067C190074FBD72CA9AB60
:10F5E0003A4C530050D99025091ECB3E6000B434EC
:10F5F000182E1D180F74D000AACA182E1D18F174E9
:10F60000D0009CE245334C1AF27D0D0069AA0AD461
:10F61000B510B049BE0080437A14660E7DED060039
:10F62000C3D2442C66049F4ADE00A25138D4900411
:10F630002D77FE00302C332F10191877DD00972717
:10F64000B9329706604CE000250B0B1004C62A8CDB
:10F65000E200A99BCCCB16120D5EAC0051405C21A0
:10F6600084055E44CE00F75550D2790F4A64E70016
:10F670008506E931B520980E47005EDF8532B41764
:10F680000363B0005BFC8831491C4C196200B3C2B3
:10F690000D1D08FCA017B10007247D2135EC2F209B
:10F6A0008F000EB668D68DFDE57B0B003D4506DA72
:10F6B00095FB4D444A009435F2C70603449DD7009C
:10F6C0005AEE2D33FB0EA452E20004EDCE33B3010B
:10F6D000D36F29005E152A18F0E06F28D20083F757
:10F6E000EB0447D0D8DD8D002B6CF1C6E9002D92DC
:10F6F000D300682AF52850F5365CBB006442EC263E
:10F7000070156151FC000337F114931D3A08710024
:10F71000C30976306FB81B7CF700AE4485FDE8085E
:10F720007D10EE00F545B3D8DDFB4C48480094450C
:10F73000A0F4F4197C101600AEB87EE03F149115C9
:10F740003A00C107FE2E6AB2963AD90065DDEB3366
:10F750002D01CE50AB0027FBB53854E3FB7FFA00F8
:10F76000C2EE842D6CFD4447B1002CFAF234B50C86
:10F77000F57BE3004C2E882C7A013E69DC001E13D9
:10F780000137D0222176E100FAE76E15C8B5B29CA8
:10F7900004006EEA9331E7311A177A006FE16B3299
:10F7A000E0FDF05BAA0044F2C50A9FD0B0C5B100ED
:10F7B000214E5DDA960D5742C0006E40CCD45B22DC
:10F7C0006DCD2900F0FA69316BBDF87FFA0057EC76
:10F7D000E6325F02C25C3D00AFFF732F24B4002D00
:10F7E0008900282BC728AD17534146003943CBF277
:10F7F000AC007800D70059D89C308B13B4533B0031
:10F800006026BB32791F0E78D800AFFF812CACAADE
:10F81000004E640092162A28D72DE39C490066AE5C
:10F820000ADCE0F2D6535600950CF82D6503A34B85
:10F83000D600820C5B30D9CD31750200CFDBA23609
:10F840007A0AD0750000ED0DFBB87CF11F96C1005F
:10F8500096F08F297E1945455100A8142A367F0E4F
:10F86000AB5724007D45C7DD39056430C2007BEB12
:10F8700032367D0A5C57000020EE4235E81BDA750F
:10F88000E300E6B394D60EF9EE792000AFFF4832DC
:10F89000D3CD007FFD00EE608ECCD11CE8B86600B1
:10F8A0004838FC25B5FF495CD00019E5E431CCFEB1
:10F8B000D9634500B0A539D1620BD676120032BDAE
:10F8C000C41764048CF5CE0002E1A3B71D0BCC8DE8
:10F8D000F7001CEB8B340518F07EFD00389FEED24C
:10F8E00060F7E76F37007303B03396DB205BAE0041
:10F8F000184EFBDBB4EC2218880078BB19DBF10052
:10F900009824C100B013211556D87CE7F700B6EA59
:10F910002A367F0E555724000836ECF9522F513302
:10F920005300E53ED4E42FEE1172CA002ABD9BE5D8
:10F93000A7268EFA37002C29072D4BFF4F4BBF000F
:10F94000AFFF2A142333005A5A0035E7353899108F
:10F9500024702E000618C5380408F57EF700370419
:10F96000B53854E3057FFA0056547AD6081251434D
:10F97000B900DEEA7A226DDA89152700C2EE842DFD
:10F98000AD17444A4D00AFFFAEEBA9D300E78400AA
:10F9900064E129373C02EC68BA0081EEA532BF066B
:10F9A000A2531200E42CBB1BFBEF3C00910072033E
:10F9B0004A25031FF55D560001321E2D10161177E2
:10F9C000D700AC1212314BFFC557B900165D7CCF82
:10F9D000290D30702200C26EC6C9D61663E54B00F1
:10F9E000A00B54310FE25C56F100995EE5D3B019DB
:10F9F0003B6DE300036810CC720488092800CD62D7
:10FA0000C6CC51053C6EF100FC231B2E2019324D53
:10FA100057006AE1F837E204E77AEA00D8DD5FC60A
:10FA200028EFB8C0AE0044E6E5319CFBF572C90092
:10FA30003205F234B50C0B7BE30078D4822F3217F9
:10FA4000CF7509002706690C4FCA1D97BF00A32F69
:10FA50000218B5202E0C76004CB18CDD2616FB6A00
:10FA6000450024C116D4A6F4F498B9008D29C22DFE
:10FA70009AFD3B64CD002EE9751547BEAAA30B0085
:10FA8000F8236236050D34730900DB5805CA4B05AF
:10FA9000D38AFE0060206DC0F5F340A8BF00B35BC1
:10FAA00036D0A8043273EE00FD4B55DD8DF31033D4
:10FAB0007300AFFF2AB2102100882A00399C4ACB7C
:10FAC000DF10DF79EF009A3CCCD1B4265CBE390060
:10FAD000F1FB5B2C881C43026B0010DDBE2EA22DB7
:10FAE000BA146700B1F27634D50B0A7EF700FA0B30
:10FAF000722B3DA91E64B800AFFF8534FAE60021E1
:10FB00007B00300CF432DB00F27EF4002C08032F73
:10FB100014AFE279EA0094D0B82CE006017D16001B
:10FB200061100E127AC74697F400B1B007D108F4FD
:10FB30002893CE0082DCB8267BEED044A000880556
:10FB4000B937D8E70B6D3F004EDA052A73F9CD3F80
:10FB50009F00AFFF5DAFFA0E0081020095003F34B9
:10FB6000D1E7B7375800A0A014CDC211CE70E20083
:10FB7000B542FADD53F860501400A6BEC201A31DC1
:10FB8000962D3500E905732D36ADA8483800F308E9
:10FB90001934D4DF642BC00088F92D2ADEAE475C0F
:10FBA00033004CA3E7CE56FEC771F500983A91F8A2
:10FBB00074F35814A70081B8E7E7931382030A008F
:10FBC0008C08902D4CAB1470C700929ACAD099182B
:10FBD000DC76E400EC13663320143764CA00CC22D0
:10FBE000F3E99F412B0177000FC0A8E627FA8801AF
:10FBF000D60075041E2B4CA70959A600DDB42CDFD6
:10FC00003413DC693D00831493150BCE6ABA0500EA
:10FC1000A6BB42DA811B88E21D002C102B340E0F8C
:10FC20004965EA00EBCC302AF022BE126B0054EC9E
:10FC30003D34C714D371DB0024BCCBF2AC00880088
:10FC4000D70058E7C538050D0B7E080072C306CDF6
:10FC50008D01BD9BDC00F91D29373C021468BA00F8
:10FC600014F5462ED8ADE374D600AE41CBDBF624B6
:10FC700072E630007D221D00ACE549129A008AE34D
:10FC8000442BCA30E6D37400E2DE3D378B04DB76CA
:10FC9000E6005BA5B0CFF210BF6AE9005367ACCABB
:10FCA000F90EB85BCD00979EF5CC180FCB6E2200F5
:10FCB000C307C9360DE848454E00FC0EB934390F6C
:10FCC000177DF800A70E22B4CDFD208ADF00DDE20B
:10FCD000EE32221CEE7E03005704053159B6077C34
:10FCE000E90089EEB333DB03C36A21009446EAEDF1
:10FCF000B80E7E06F50080EB1924A7E6B423A10018
:10FD000037F9690C4FCAE397BF0032D6072D4BFF76
:10FD1000B14BBF00FD210637950E2B770D001DEF6F
:10FD2000D534EB16EF7EF800D6D15B2C6107157841
:10FD30002200EF0E272F62BC3175FB00682B002CD0
:10FD400067FC3868D1006CBDEBE1B3008C0ED000CD
:10FD5000E709503494E27C15F200E344B0E3EB1C75
:10FD60007BF51E009D0DE9333305E97BEE001C0792
:10FD7000182296A20B0D8200E4BDC4DDADFC8A2FD3
:10FD8000FF00502637357F0A4E640000141BE7360B
:10FD9000402A207A0F003DB15DDA960DA942C000DD
:10FDA000EFF44FEC15D5DEE988001F19611B33C253
:10FDB00077D712001CF066318310525924006CB0C2
:10FDC0001BD5EF01DB79FF001CC55E2A5411DB74E3
:10FDD000DD00AFFFC7280BA5004B9A009D4B05DB4C
:10FDE000D30A5743C0000AB3B6D8EC09A940BE00F5
:10FDF00040EFC8349D12EA7CF500AFFF200C65C9C6
:10FE00000092C100FF01BD2941ADF2772A0006B57D
:10FE100047E03CF2DD53590036D4C728AD17AD4159
:10FE20004600D30C953037E65E53EF00C511520DF6
:10FE30007DD66FEEC600306BAFCE6A0DEE7DF8005A
:10FE400078AE8CD4A3FFD6770300E52A822F321731
:10FE500031750900EBFB1B357DDCDD489E005CEF56
:10FE6000B9334106B5650F00D42551354B074E62B5
:10FE7000EA007F1757375011BF524800AFFF1C2BC5
:10FE80000EA70058A50012C771285E06C36BE100DB
:10FE900011CBDD288800C469DB004FAD8ED82E1A47
:10FEA000281876009906E537EFE01E70CD0058203F
:10FEB00097320B1E0F7BE40047E648334C16145C68
:10FEC0005500871707345C18187BEE007ABAB0E348
:10FED000EB1C85F51E0073EAE61A5AE39C42D70034
:10FEE000AA94A3CD24FCA43FC3007FE2D7322718F5
:10FEF000F974CD0076C3C0CB7B1CA7A91A00C658E5
:10FF0000A8D03AF8316C2C007DE1652B231DF44418
:10FF10006A00AFFFBC27141C00367300E11D652B7F
:10FF200006F80B409300EB24361C302315097D00A6
:10FF3000AFFF971193B20087DB0079E778178EA99E
:10FF4000C99FC40040F66737D2E2A455ED00AFFF69
:10FF50001F08EA3D00466A0036DA7E316219D6741F
:10FF60001B003A3E16D4A6F40C98B9005FDBC835E6
:10FF70009910BF652800013D84DA5C2C61DF4B00DD
:10FF8000E40B95DA84D91FDC8B00B5EA771B26A534
:10FF9000E3D08E00F92C3124DDFB563BB800B1ECE8
:10FFA0001231B1153C5746000DBF5C218405A244B7
:10FFB000CE000F6C3ECA7DFC5ADDAF00E42D7930D7
:10FFC000BF1B0E75D100DFDB992F8FFEFB69470049
:10FFD0004660B3CED5083C6F0000AFFF07CAC0DE55
:10FFE00000C192007736352AF80A3174EE00C64710
:10FFF00054D15701F082F800E50513369011107ABC
:020000040801F1
:10000000E2008BF2953037E6A253EF00086081CD15
:10001000A9013771EE004AE99222DCD5881323004A
:100020005EECFB2C8BC4B3650500AFFFE5D96A44D9
:1000300000E07B00B731522C640A207BFA00ADC689
:100040000D2CF714E573D3008D58F7D4921CEC13E4
:100050007C00371F57310FFD1E772100F0EA45293C
:10006000D9ABC164D200A914771B26A51DD08E0080
:10007000DC33AC2B690E2F75F800AFFF7D3755E6EA
:1000800000585B0048A27CCF290DD0702200AFFF42
:100090004038D2E0007ADF00EC45CDF5040C7E0953
:1000A000F300BF9D5BC81216238C26000805C433DD
:1000B000BEE914307400180DAD34990F007FF900BB
:1000C000811CEE32221C127E03007BBA6E1A170EC0
:1000D00083ECFD00111A6F352A14E6505E009D5026
:1000E00064CFD911C3982800362D09E2B7EA2EEB68
:1000F0008C00F84855D7EEF7347213005BC8F11442
:10010000931DC60871009A207E359C2727780B0026
:1001100070F1FBB87CF1E196C100CF35BE0C7720C1
:1001200045315F0010ED24349E054962DF0066DB37
:1001300062360408CC73F70012D1882C7A01C269A8
:10014000DC00B8F8372E88AC1F7AF300C8170C070C
:100150008FDD5D11AC0022E7131639AEBA97F100BE
:1001600040EE240F27D392CCDD00FBD93733ED11BD
:10017000B04B3F00A606372E88ACE17AF300012E83
:100180004DCF3F333CB85500F003DB313DC5087F10
:10019000FB004B5673D2E2042F76FB005CF615FC95
:1001A0003DD2D9EE8900381FB730FDFD19674500F3
:1001B000E3ACEBD609F5EE3C6E00BD24B93450112A
:1001C000504B3F005EBED2D13B1A94C217009AAF8B
:1001D0000DDED8F0BD691600C52F1431C71E2B7770
:1001E0000700CAB8EAEDB80E8206F50095F5FE35AF
:1001F000BDE28721EF002AB6EEDC4C1419157B0016
:10020000BE15BA2807CE6A421400C969A9C63716B6
:10021000068B300091B0F7D7840CA841C0005FC9AD
:1002200081CF9E2CB5B7470040CD5327E8F9C15D7B
:10023000C600CFF872338DF3077F02002715A21591
:10024000A2C65EAC090064F3722B3DA9E264B8005B
:10025000111A6F352D01E954A40027E5AA1AA8B98F
:100260008AD51000526017D1EC1D0A167D0007CB0D
:1002700086234FF7B745B300C3FCEF29FEAFFF7AE3
:10028000DD006717F52ED3EF2F63C10052E5DF0BBA
:100290006CE1A817A80046EA472BDDB4B565F40069
:1002A000C1F69F3394EAF87EF500566FC9CC8805F5
:1002B0005F50E70004F88132C1FD067F0100DBEAF0
:1002C00093150BCE96BA0500FA2E26FC64EC421369
:1002D0009500490ABF3259E26A43F000BEEFA82AEE
:1002E000E1E49034E3003D5917D12512424EB600A7
:1002F000D6BBE003F811841612008AD3B62D16037C
:10030000FA7B1F00AFFFB52906AD007828001A0D53
:10031000C50A9FD050C5B10017B8C3D8D6F9A44FAD
:10032000240092B612DB3BF4FA257900B712E206FC
:10033000E33C16466700AC522CD577F6326141009B
:100340000712CCB4661F218B2600CDEC8028F8D98B
:1003500093382000601BAF1EF9E82C0389000507C5
:10036000420914CE24B99D008A08D22F65B2E677DF
:10037000DD007F9724CEA91CC8226C004E22BE2E21
:10038000A22D46146700AFFF3C2C3F1B000E7E00E1
:1003900097B754D157011082F8002D28952FBA1421
:1003A000F9529F0029A135D05914D650A80061B345
:1003B00055DD8DF3F0337300B105AA2BD1ADA62D19
:1003C0004D00784B94D60EF912792000E8F70B2DEA
:1003D0004CB27421DA001E04DA29E1ADDB6F300083
:1003E000E6C8352AF80ACF74EE005CEAE4338B13D2
:1003F000355F4000083117CCC2F738ABB400A1F527
:100400001533C7E5A4521C0016C4FFEACAF1A119AE
:10041000B100D315BB327200305E4600AFFF3132FF
:10042000FAF8007F0400C75651D27C092C770400EB
:100430009595A9C63716FA8B3000D1D06510D32315
:10044000C1385F00F72F6E2DA7142A77F7001FF42D
:100450004A11D9BDE385F1004B4DBCD6D908485EA1
:10046000D300B4ECDFEA2745EF017E006AF61934C9
:10047000D4DF9C2BC000D5EFD72DFFB2D073E8009E
:10048000E403C027FF1CD4247100AA12DFEA274529
:1004900011017E00A603852F8AB404308B007F1BD8
:1004A0004E38B1100A7C1900141A54FDE5DD530BC7
:1004B000A10092123D1FDCE37524DD008DDCAACE85
:1004C0001139D6BA6100C21C45334C1A0E7D0D009D
:1004D0009017C230E4F42177E3007C376C2E9D1A2C
:1004E000307600008405BE0E61C41888DF00BEDAD5
:1004F000042F13FBD365C200172E5E2C1210E2717D
:10050000CE004435B1129EF550099E000713E63225
:100510005F023E5C3D004FED431373B6DC87F7008E
:10052000CAFBC936D1E81E48630026BCD3EC44029E
:1005300088F8D8005C3C3EE260ECFB1B8400D4638E
:10054000A1CFC7150C6BBD008FAD5FD47409C77107
:10055000F500D76800CCCA0A841BF60075F9732D24
:1005600036AD58483800B4F80A1988A5FBABA2008C
:10057000291835389910DC702E007AEDBE34A71595
:10058000EC7DF600EFBECCD45B2293CD29000ED9D2
:1005900037357F0AB2640000BFCEDE2AD600C56AB6
:1005A000DC0046B700E1A310A95A1400AA060A19F4
:1005B00088A505ABA2005A61AFD2DBF54666E40020
:1005C000D232382CC7112977F600F704F92967B021
:1005D000FC7ADE00711ADC360902E64D9F001E101F
:1005E000C8349D12167CF50082CA1C1A23F5B4FE8D
:1005F0009B00070DCECBEDDF1FC5940001BD0EE7BC
:10060000AE018BFBD0001C4E96D649EDF8C78F008B
:10061000C7B7D6D88AF79F52FC00EF8DB4C73A0E01
:100620008CCE0D00103ED7E578F6791BE5002D0B3A
:10063000FC26BB20C6EB6F00948E03C7CF07A2B089
:10064000E6003449EEDC4C14E7157B00B46AA3CD18
:1006500024FC5C3FC3000531C61E3F2127E2750024
:10066000FCDC9029ED2CC9CF67008EE8F4355503EA
:100670003B57B900D706F32A20B08F301F00612105
:1006800003BA951B34901C0098CF1431C71ED57740
:1006900007001DCDCA248F22C9EA70005F3C2A18CA
:1006A000E9FB5FFCAC00BACF0218B520D20C760093
:1006B0004CE37533621FF079DE00FDDD592B01F24A
:1006C000CF5CB70026E0B730FDFDE76745000429A1
:1006D0004C3045150D68B8006304E832BBEAFB7A7C
:1006E00021005FDBC835AE04C064D500BD091533F9
:1006F000C7E55C521C0082D072C22A05BA9DDD009B
:10070000BAC283F99729AA304F00929A14CD4EFEAF
:10071000600F510051206C3498220E78DB00D40D0C
:10072000892E9FE16B45FE00AFFFB7EA434600010B
:100730007F009108503110C5187DFC002C42C41771
:10074000640474F5CE008BE9BB327200D05E4600C3
:100750009E68B5CDE5049F492300AFFF3409EECC78
:1007600000B19C003C4924DBD407583DBD000DEB93
:10077000302C8BBBB465FF0050424D181F166BE147
:100780003D008FB9A0DA01FAA9532800843148232B
:100790008E02693CDA00981A341CD8E832148D00B5
:1007A000C4F8E537EFE0E270CD0074FB9F302BB565
:1007B000FC62B000AFFFDF04FBCE00D888006E14EF
:1007C0004529D9AB3F64D2003E1A46330E1816783D
:1007D000DE00FF23C83599104165280001477AE003
:1007E0001A0B6A34D300D0445CE1C306701DCD00FF
:1007F0004958DED71AF14B59CF009311BB32780418
:10080000515829007F23992F8FFE056947003843EF
:10081000D3EC440278F8D800313A0B29450C3370F8
:10082000E300A9F6322B01A8EE5DAC00FFD71B3424
:10083000810A9B4D00001F4741D74FFC356B2B00B1
:100840001ABDC8E3F0F0E06F340019E96038CF0D4D
:10085000396E1A004A5E87CFF7063572F200AFFF95
:10086000E129B1AF007ADE009C11532BC7E84F425B
:10087000B600881604DD17DD3AE4930026F70B373F
:10088000ADE0B953BF00E3446E1A170E7DECFD00D6
:10089000D170E0C995057805D6001590C7C632130A
:1008A000B6A32C005D207C321B1B197B1300434434
:1008B0001C1E6D1671E835002103653556E9D926F1
:1008C000730045B1FBDBB4ECDE188800B1F1B5C0B4
:1008D000F7E7E1ADA6006D51BFD30A19BEC75C00B2
:1008E000434F42D5EA063373F1006FF0272F62BC05
:1008F000CF75FB00A30B503588141D79E80061DB30
:100900001B2E2019CE4D5700BBDA35EF3AE5BB015F
:100910009600D208B93543E0602CBA0036F5E434CD
:100920005310EF7CEB00AD9CE2C667081C84FD0011
:100930009BEAC834601EDE76E100C8B639D736FAC5
:10094000C46C1B00151BE434072F28585200B31544
:100950007F286BF7E03C9500CE22141874EB37111A
:100960008F00ABE89F2CB41B1E4765001E2EC2F201
:10097000413A491C640054DC720DE32FCD52530000
:10098000ABA336D0A804CE73EE00B94CE5D54A042B
:100990002A77EF0008ECA122D1DD8919230046F265
:1009A000AD34990F007FF900C36D78CEA70E2D7678
:1009B00000003401C735D3E7BD296300F317A03326
:1009C0005E171E75DB0059D89C308A01B554C600ED
:1009D0003213B71441AE1687E100700A3932C127CD
:1009E000960D440095F9E61153B3F386E000212CEF
:1009F000FB2443F23A46A8000AEB29206CA4DC0948
:100A00008700F931A72BFC053A6EEA00FFA685D7CF
:100A1000261BDC644500E11D652B231D0C446A0088
:100A2000A8142A369706AC57DB0022E4A612E8E4A5
:100A3000AF23A500FAEA931C3EE5A23AC100C49F89
:100A4000CDCDDAF91E4C61000143780C820F7E0592
:100A50000F005CFA7838CFE5FA7C1900AB1216DB90
:100A60005E4312DF7900CF0CCA14D1AC098BD000E1
:100A7000AFFF80316CBD007FFA0022B624DBD407C3
:100A8000A83DBD00051AAE388B06037EF200C2C831
:100A9000C12A690FDD78ED00D1FA2F31B2B8F77EA7
:100AA000F900AEED73292B2C40A63E00A32435EFB0
:100AB0003AE5450196009BD95C2D61F9D168C900E2
:100AC00048C257EF732DA215530073DA361C30233A
:100AD000EB097D00A0143B1400DD730BCD009FE4F7
:100AE000F02159BD830E0E00A3B3B8DE4D11BE6ACE
:100AF000EC00DA223D03D53932426000DF4561E384
:100B00009FED236AC5009AB0C9D5C8FADF781A00EC
:100B1000DB1C3B331719097CE800260B152E750AE0
:100B20009B4C00008A0A2E3365F9FD7F0700B9F956
:100B30003E35B5E9EA127C00E4451DDBB5F75E55AC
:100B400005001244C8D828FD51444600635E8BCD91
:100B5000601033702000DC46E7E793137E030A0041
:100B600082CBAC2B690ED175F800BEEA3B1400DDD8
:100B70008D0BCD005F4A6CDD530C5252CC00F72731
:100B80008F2B9FF73268CA00AEC72C070EF5AC1644
:100B9000A400715F99D3681C2E663B00B6B48FD752
:100BA000C7F6FE6D4000CE8D0ECAF20E8413120001
:100BB000D631862C030E1D7BF700C529FF2F5C0F55
:100BC0005C511E008266D6CF81FDF7772B00570E51
:100BD000FD32E1FDFB7FF9009CB2BEDA54F4F8303F
:100BE0007500719B77CC0409C06D02001ECF8B2C61
:100BF000C20D117DF200C9B73AD7171320C06900A2
:100C000082635BCC34F530C59B005EB7A1DD15096E
:100C1000A544C900AFFF48317EB8007FF900B03865
:100C20000D2CF7141B73D30057F5C1330808077E4A
:100C3000EF00DC10A532BF065E531200C7A619D024
:100C4000641B35BE5E00F29FA7CF6FF9391F6D00A0
:100C5000BBAD38D49004D377FE00AED93D31D31B61
:100C6000EA7AE7003C44ADD7DBFE4F63F900FAA017
:100C70008BCD6010CD702000413652E4E93454FC35
:100C80005F00C1B94ADC7BF4C53861006C5FA7CF57
:100C90006FF9C71F6D002D58E8D72DF3396A28006A
:100CA00030D7952FBA1407529F0069D935222F25C6
:100CB000F3BF6C00AFFFF63339E7004E6400B509AF
:100CC0005834190C037EEE0005EF13B2C60DDF8514
:100CD000FF00DE131924A7E64C23A100C61AC7376C
:100CE000CA02F569BA00AF467EE03F146F153A00BC
:100CF000AFFF7A2240A2000F8200AFFF9B30BCB44E
:100D0000005DAA00EB14E61A5AE36442D700EE44F1
:100D100002D8DB1353C44B009B2C442C8310614A34
:100D20002100FD0F21343D03037FFF00E7647BCBEF
:100D300066FEBE5049001CBDD4DE01F6A34F220062
:100D4000B1128428C1A8325DBA000E146015FAD31E
:100D500074CE05002AFEC735D3E743296300721F0E
:100D6000EC25B42A0C9A4A00AFBA85FDE808831036
:100D7000EE0065584BD6F0F40E4C6400AC0BA83076
:100D800091DE575CF600410F66318310AE592400A6
:100D900066428DEFFE25700D3A002FD0EC2797119B
:100DA00099402500BAEFDE33F208B1630000B6B80F
:100DB00014DB8204A532B7007AD2BB1BFBEFC40060
:100DC0009100AFFF94BE19E700A8A500A84614DB68
:100DD00082045B32B7003D70DBCC430F624F0C00E6
:100DE00035E73538AE04246FCF005CEAE4338A017E
:100DF0003361C0004FBACAD1FA0CDF8C2600EE086E
:100E000033379DE55E4F2000280AE4345310117CEF
:100E1000EB0075070B2D4CB28C21DA002DC50B2988
:100E2000450CCD70E30061DD0637950ED5770D00DA
:100E30000E4A52D6B3011F7AF100871BF727682E9E
:100E400006A2550096F08F29DDFB4741AD002D200D
:100E500018336E180478D700FDDD03BA951BCC90CB
:100E60001C00E411BE34A715147DF60053EBAC282A
:100E700003D5953E1D008EEA9037810A625100002D
:100E800072033632E6CD087FFE0019D1AB09DEEEE3
:100E9000BC1597009845AAD462F3EB93C3003808B9
:100EA0000B37ADE04753BF003DFC653556E92726BB
:100EB000730033E67433411CEA7DFE00C61AC7375F
:100EC0009512F66B44004E933ECA7DFCA6DDAF0042
:100ED000A0D4C42F740A9F510000CDBB9DDA73FCCF
:100EE000AA4043001F2EC207FF2B48454E00ED636A
:100EF00077CC0409406D020035EA3834E816E27810
:100F0000E200AFFF2C2DF0A9007E110032177336DE
:100F1000AC241A78DF00193F9CE239F66F3D0100DE
:100F2000C44F0DDED8F043691600FBFAE832BBEA85
:100F3000057A2100BE2AC42F740A61510000E1E93C
:100F4000331C87D786F01E00E903D72CA9ABC64C0B
:100F500053008D4592EC8B1C7C021B00E003A637EE
:100F6000EEE7F269460037F030327B2E53145D0015
:100F7000F41DF837E204197AEA00ECE4DC36641375
:100F80001C4C610082407F1184166DFB4100593575
:100F9000AA2BFB121878DF00AFFFEF314AC5007FA4
:100FA000FA0022BBADD7DBFEB163F900843CAF256C
:100FB00072064C5DD7003A3657EFD23354175C00B7
:100FC00073B41BD72E06BF62D000A2EF1A3314F6FB
:100FD000E97DFA0047216736951230643D005F488D
:100FE0003DD75F033A65CF0055113A3416123D6A7A
:100FF000E000D63FE909D3186C1C3C0089D1FB2BDB
:101000006F0A994A0000F405C832BF02FE7EF00064
:101010005C073D2E8FAF94401300E3FA982DF0AAA1
:101020001B7C000091DC35DCE53FD8DE73008B0EC5
:10103000A82DF9DD654C07002635E1D863EF10C611
:1010400091001E4CD7D584FF1B7C0100B4DC61C22B
:101050000B2CD0A0430094A04FCD2AFBD9761900C9
:10106000126882CA2204A44F260038F4152E750A8D
:10107000654C000062229029ED2C37CF6700EA4AC8
:101080001BD72E064162D00044B05FDD2014BF6C38
:10109000F40017B1DDD6EAF7E1713100B43E3FF05C
:1010A000FAF66A05BB006F9E8ECCD11C18B866009C
:1010B00031A7E8D72DF3C76A2800923E891AA51AEE
:1010C00047E56500CB58EBD316F6F22B7600AFFF61
:1010D0004DFA454400237A00AFFF50376ADE0071B5
:1010E000C6004EDA052AB41BCD425F002E15F83536
:1010F000552FF65D5500694578DBCFF5624D190037
:101100003C1BA612E8E45123A5007A04982DF0AA0E
:10111000E57C0000B0A785D1A20DCA720F00411472
:101120008B340518107EFD00DB22B8267BEE3044A0
:10113000A000950CF82D9711A34C290059E5AE3865
:10114000950EFD7E0D005D9479C54A0B0381FD006F
:10115000270F30327B2EAD145D00032ECEEE49EA10
:1011600038068E0052E598331519EC7CF0004CE5FA
:101170006F352A141A505E00D0149037810A9E51A0
:1011800000005C18D4387A0AFB7F000032A178D2C4
:10119000C116CD5EBC00FF40B525501B591D550042
:1011A000FBD937335503B24EC10054EB6C1733A84B
:1011B000EF9DB2006FBA02D8DB13ADC44B003C0AFE
:1011C000292A8E029F45D400FABCEC2670159F5147
:1011D000FC0040C2D5E4552E9FFC520090FD8F2CA0
:1011E000E1AA1B4E61001959BDD1BEF603446B0044
:1011F0001D11240F27D36ECCDD00B919A6335D1A5B
:10120000127D0A00A439212C231D46514400FFB64B
:101210003DD75F03C665CF0096688CCFC6FC37719B
:10122000F200FCF00E074CD3AEEDA10064E12937CB
:101230002513EC694400B9531ED91D145150C9003F
:101240001AF8CF315AD5E57CFD00CFAA25D3BB0BC8
:10125000C671FF00CB672DCEFC11D36CCF0098E494
:10126000C73795120A6B4400B7264334F706614B23
:10127000E00031DF18336E18FC78D7007B4205DBC5
:1012800006FE762D0000821A8118E8E64534A30098
:101290007014771C95DB7E051200C97003C7CF0759
:1012A0005EB0E60029183538AE04DC6FCF003A1284
:1012B000903244FB107DF100E1B9C7DD39059C3067
:1012C000C200EFF37E30ADDABD6CFB00496FC7C6DC
:1012D00032134AA32C0019CAB1129EF5B0099E0020
:1012E000AFFF77C9BA3D00BC6B00E41778178EA931
:1012F000379FC40093A6EBD316F60E2B7600846DB1
:1013000004CD7A175D3C3E00120E78357D182576A7
:10131000E600BF01FC2AADABE74D6100F593E6CED8
:101320005816CB71130046D15E2C12101E71CE00E0
:10133000B162E2C66708E484FD00CCEECB1036CE85
:10134000A1B1E5008C63A8CD7913F657A4006D0414
:1013500069316BBD087FFA0067FAF92967B0047A32
:10136000DE00F91D293725131469440047E4FC19F0
:10137000A9AB8FCDE7005DB87AE01A0B9634D300A5
:10138000BC38371CB01D31EB730014F5BF3259E285
:101390009643F0005EFDBD2941AD0E772A008843DB
:1013A000E003F8117C16120011331CC30213499993
:1013B0000200FE4C35DB3817C71F6D009B096932F0
:1013C0003BDF5458DB00D3F6D22F65B21A77DD002D
:1013D000E51D482FABFA0E509F00A2C6371CB01D6A
:1013E000CFEB7300CB4812DB3BF40625790059079D
:1013F0008132C1FDFA7F010029BA5ED7C9FDCA6CEE
:101400002700163D57EF732D5E155300A6CD522CC5
:10141000640AE07BFA00D022AACE11392ABA610010
:101420002AE060305EFAE66BC10047216736CA02E7
:101430002F63C000F9E76C28D6C496440D00CEBDDA
:101440009DD0DA00D98AE900A4588DCB2A14CA931A
:101450002400C1EACB33F0FEFB7CE500AFFF3C0E7D
:10146000A6C30085E000F7BA01E1D5EBF81C8500C2
:1014700077F5503494E28415F200B8FA1E3333EE57
:101480000A7F000044183C1B48E73F3BA3007EFB5B
:10149000A637EEE70E694600843148239712693D6E
:1014A0002500DA1599330A16276DCD0040F8A637C6
:1014B00050E7D76A3700D1D141C5B526C49F360061
:1014C000FC1D2C361B140E4B65003345221F240EC9
:1014D0007B17EC00F81DB434F2140E4E6300DB2EC3
:1014E00072C22A05469DDD0066D3792D73120C6009
:1014F000AE001F246D0DBCE94318980024C957EFB6
:10150000D233AC175C0066CF6E2DA714D677F700E8
:101510009CEB1833DAFD0277D40031EF2B340E0F39
:10152000B765EA00CF18AA2488A95B46CA0094EFE1
:101530004728F4A6DE54A80066B655D7EEF7CC725D
:101540001300C3F14318C7A6F9A4A900B6EA2A36C6
:1015500097065457DB00CDA019CEE912D853A90045
:10156000F3E6FFCE3CE3C6CF9B0040245632231760
:101570000C6EC2009DF7FE2E6AB2693AD9000F19AF
:101580005929A9EB31419F00AC121231B115C45752
:1015900046000B9F17D1EC1DF6167D00D906B42529
:1015A00097A30B338C0094D0FA2BA90A23790C0053
:1015B0007DE1652B06F8F5409300DFE39B35802441
:1015C000EE78DC00F42535222F250DBF6C0079C0A4
:1015D000D4E42FEEEF72CA00F710A71241BF328B8E
:1015E000FD0089D951354B07B262EA003843DFD894
:1015F00094FE703CFD00B72643342A0E614B1F0059
:101600008EBA5CE1C306901DCD002DF48536C7254A
:1016100051533300A8BCFADD53F8A0501400AFFFBB
:1016200074352C0D007BE0003B58A6D7991846670F
:10163000E900111C7533621F1079DE00AFFF4836D8
:10164000C2DC005FAD0024634ACBDF102179EF00DC
:101650008CE7AA2264CF85121A00DEBB7A14660ECC
:1016600083ED0600AD0DB5C0F7E71FADA600D6228D
:1016700079314C163155500011E4601F49A98C1086
:10168000CF00995FCDCDDAF9E24C6100F6E7F52E97
:10169000D3EFD163C100FFB46CDD530CAE52CC006C
:1016A0007C203D378B042576E600BA4BB8DE4D1121
:1016B000426AEC002560EED260F7196F37006121B5
:1016C000592B01F2315CB700674401E1D5EB081CEE
:1016D00085007F1757370504C152B70079F23534BA
:1016E0005408127DF400A7D843342A0E9F4B1F00E4
:1016F00094BC9C079F06850EE40087B7A7D812F517
:10170000E3505E002BBA221F240E8517EC000FDF7A
:1017100021337219EC7C14003293F1C6E900D392A4
:10172000D300711ADC366413E44C61005C0757384F
:10173000F6E22578F10099D5FF2F9E05A452E2002C
:10174000BF06CA3375DD3F4DB20063F9102DCCA939
:10175000F66CBE00E0685ECA0B0A9E50FC00943432
:10176000312AF105396EE700AFFF8733DAE7006D04
:1017700041005C163A20702301267900486AACCEFD
:101780004E05E77C0E00D2F53034C3E5880B280007
:10179000C1B305DBD30AA943C0005047AAD65DFFF9
:1017A0001F7BFE00B3157F28091EE242680036FD4C
:1017B000DC335CE9264B5F00C40DD72FC2C4307503
:1017C0000000761F0A2F3AF82370CF00E1DC1D00DD
:1017D000ACE5B7129A00C9032E2B6AACC8435C0073
:1017E00086F4393341040D7DED004E034332DED4DF
:1017F000087FFC00ABE97F286BF7203C95008DF457
:101800002C2F89B1DF77E5007309413097B51A7B3A
:10181000F000864921D912F5F9446B00EDCFF32C85
:101820008E100879D900ECDFEC25B42AF49A4A002E
:10183000E9FA1E2B4CA7F759A600DEC20D11ABFC2E
:101840009C06B200E8DF0A2F3AF8DD70CF00D9F726
:101850002D3268DBD572DF00C6E4341CD8E8CE1424
:101860008D0046242E1D09EC2F028A003230992C5F
:1018700064062679FA009AF1D72FC2C4D075000009
:101880005958F2D5D4154754C100FD05A52851A5D6
:101890000A4B9A00DFE34E388B04F67CE5008ED5C8
:1018A00051278127CDD76C00CBEF5A2829273EA19D
:1018B00037002ED3332F1019E877DD00F241EBE12A
:1018C000B300740ED000D6E804DD17DDC6E4930043
:1018D000AD4E07D108F4D893CE00A76276D0B3F40A
:1018E0004E27A4002C5E78D2C116335EBC00AF3701
:1018F0002C070EF55416A400B3C9BD039427B63FB8
:101900005000840E7634A008147DFA00C7D7B9328F
:101910007F0E9F4B2000AA3C0D1D08FC6017B100F4
:101920000CDF6C349822F278DB0022F5292A8E0233
:101930006145D400192EE6FDFB344B385500B6F056
:1019400022B4CDFDE08ADF0043D1CEDAE739BFDD36
:1019500067003FACF6DA9D16B868F20020BA06DAE6
:1019600095FBB3444A00BBC4CF27B21EC0176B001F
:10197000C442C2DF1CF43F4A5100039EAFD2DBF5E4
:10198000BA66E400C8A673D590EFC81A91006B211F
:101990004F33A82B40524800B1EC12314BFF3B575C
:1019A000B900A00FA82AE1E47034E300D317543043
:1019B0002019E7545C00BDF6582A820A69470000E6
:1019C000ADECF1BDEE2FE19F4C00D3175430E4FB9A
:1019D000E753A40011C4CC21C0FDA943C100915517
:1019E0007CD263FF3772FB000C16DB37762A0D7D45
:1019F0001100FC1D2C3655010E4C9B00A9F55834E6
:101A0000190CFD7EEE0095FB2E2B6AAC38435C0072
:101A100079E1482F5A1AF2506100B2455DD79C0017
:101A20003E66D600A7D84334F7069F4BE0005EF829
:101A3000AD1DE2A2F8DC8700310B8536C725AF5318
:101A40003300F24E1BD5EF012579FF00460ED73447
:101A50007013097EF700B3586BD38C134248B00063
:101A6000B6336D2B6A0A3572F30093D63B31A32649
:101A7000BC4F4800EF0BC30D55CC3CA1C6002F2F27
:101A8000EC27971167402500030997239C21F74B0A
:101A90006600C314C834601E2276E100102954C6C3
:101AA0003DF749B2BC00AEAC5CD476F9C56E14000B
:101AB00086EA7F1F5BE6B7109900430FE02CF9AE72
:101AC0002F70DC008A9BA1CFC715F46BBD0007BB4C
:101AD0000BDBAEEC0FCC8D00079967D0341BC96AC5
:101AE0002A0017DE67369512D0643D00A108582AF7
:101AF000820A97470000B0525CD476F93B6E14001E
:101B0000EA4D8DD546FD1E7B0B0034034F37E1DED9
:101B10000E6DC10084DC3D03D539CE426000B112A8
:101B2000F1BDEE2F1F9F4C00024705D9C6F560524C
:101B30000F0062F0B934390FE97DF8009FE58E257A
:101B4000BCAD9946E80063D026FC64ECBE1395005A
:101B5000451AE431CCFE2763450079E1482FABFA02
:101B6000F2509F0097033538E0E00878D700B6417F
:101B7000C6FA70FE710FCA00EBEE362905E18B2E16
:101B80001000F7D78D337223D77809008EF2CA146C
:101B9000D1ACF78BD00072EB66332014C964CA0055
:101BA000FEE3AF1EF9E8D40389009AB7ADDDB2F3C6
:101BB000F2297700D42DFB2B6F0A674A0000B2ECA4
:101BC00016DB5E43EEDF79008E23A2367A0A30758B
:101BD000000088DC7931D8FED058B200E02E052C08
:101BE000870DD777F10033DB1B3094FCD874DF000E
:101BF000F750E5D806105741BF00779A7BCB66FEB9
