:03000000020003F8
:0C000300787FE4F6D8FD75811302004AF6
:1000D000C0F9A4B0999282F8809080402010080462
:1000E0000201C0F9A4B0999282F880908CBFC6A199
:0300F00086FFBFC9
:06012500040800000000C8
:10011400750C01750D02750E03750F0412008F80A6
:01012400FBDF
:10008F0074E2250C1200F37F011200FDC291D29190
:10009F0074E2250D1200F37F021200FDC291D2917E
:1000AF0074E2250E1200F37F041200FDC291D2916B
:1000BF0074E2250F1200F37F081200FDC291D29156
:0100CF00220E
:0A00F300F582E43400F583E493FF86
:1000FD007E08EF30E704D2908002C290EF25E0FF3A
:07010D00C292D292DEEC2247
:10000F00020114E493A3F8E493A34003F68001F2F2
:10001F0008DFF48029E493A3F85407240CC8C333F2
:10002F00C4540F4420C8834004F456800146F6DFC1
:10003F00E4800B0102040810204080900125E47E2B
:10004F00019360BCA3FF543F30E509541FFEE493B6
:10005F00A360010ECF54C025E060A840B8E493A37D
:10006F00FAE493A3F8E493A3C8C582C8CAC583CAA8
:10007F00F0A3C8C582C8CAC583CADFE9DEE780BE60
:01012B0000D3
:00000001FF
