:020000040800F2
:1000000098060020E1010008150F00080D0F0008F8
:10001000110F00088D060008911300080000000071
:10002000000000000000000000000000B510000803
:1000300091060008000000009D0F0008F51100085F
:10004000FB010008FB010008FB010008FB010008A0
:10005000FB010008FB010008FB010008FB01000890
:10006000FB010008FB010008FB010008FB01000880
:10007000FB010008FB010008FB010008FB01000870
:10008000FB010008FB010008FB010008FB01000860
:10009000FB010008FB010008FB01000895060008B1
:1000A000FB010008FB010008FB010008FB01000840
:1000B00059120008FB010008FB010008FB010008C1
:1000C000FB010008FB010008FB010008FB01000820
:1000D000FB010008FB010008FB010008FB01000810
:1000E000FB010008FB010008FB010008FB01000800
:1000F000FB010008FB010008FB010008FB010008F0
:10010000FB010008FB010008FB010008FB010008DF
:10011000FB010008FB010008FB010008FB010008CF
:10012000FB010008FB010008FB010008FB010008BF
:1001300000F002F800F045F80AA090E8000C8244B4
:100140008344AAF10107DA4501D100F03AF8AFF291
:10015000090EBAE80F0013F0010F18BFFB1A43F0A5
:100160000103184780180000A0180000103A24BFAF
:1001700078C878C1FAD8520724BF30C830C144BF0C
:1001800004680C607047000000230024002500264E
:10019000103A28BF78C1FBD8520728BF30C148BFEA
:1001A0000B607047642900F09980782900F0D280B4
:1001B000732900F00682002070471FB51FBD10B5DF
:1001C00010BD00F031FA1146FFF7F7FF01F098F982
:1001D00000F04FFA03B4FFF7F2FF03BC01F0E1F8BF
:1001E0000948804709480047FEE7FEE7FEE7FEE7CB
:1001F000FEE7FEE7FEE7FEE7FEE7FEE70448054907
:10020000054A064B70470000F9110008310100084B
:1002100098000020980600209802002098020020F4
:10022000704700000FB4044910B503AA029800F00B
:10023000CDF910BC5DF814FB2800002070B5044611
:1002400085690068C10601D5302600E02026C00778
:1002500007D070BDD4E9012130469047206A401C88
:1002600020626D1EF6D570BD70B5044685690078B4
:10027000C00707D170BDD4E9012120209047206A32
:10028000401C20626D1EF6D570BD70B50C4605464B
:10029000012A05D02878800600D5EA69002302E00B
:1002A000012305E05B1C934202D2E05C0028F9D1F7
:1002B000A869E618C01AA861286A18442862284666
:1002C000FFF7BCFF04E0D5E9012114F8010B9047CA
:1002D000B442F8D32846FFF7C7FF70BD2DE9F041BF
:1002E0000646002410687529314616A510D0AFF3D4
:1002F0000080002802DA404213A507E031688A072F
:1003000001D512A502E0490704D511A5012401E099
:10031000AFF3008000210A2206F1240709E0B0FBB8
:10032000F2FCB0FBF2F302FB1C00303078541846AC
:10033000491C0028F3D123462A463046BDE8F04147
:1003400000F0D4B8000000002D0000002B000000D9
:100350002000000070B504460D4621461068AFF33A
:1003600000802188090502D50F4A7A4402E00E4A2E
:100370007A440E32002104F1240305E000F00F0658
:100380000009965D5E54491C0028F7D120780023AF
:10039000000704D5702D02D009B102231132204686
:1003A000BDE8704000F0A2B83A1600002DE9F05FF9
:1003B000894604464FF0000ADFF824B1FB44C0F838
:1003C00020A02046E168884700287DD0252806D057
:1003D000D4E901219047206A401C2062F1E7002502
:1003E0005F462046E16888472028064607DB312E15
:1003F00005D2B81910F8200C08B10543F1E7A80799
:1004000001D525F00405C4F81CA00027C4F818A0E5
:100410002A2E09D0304600F0BDFF38B304EB870820
:10042000303EC8F8186019E059F8041B204604EB68
:1004300087029161E1688847012F064618D1E0697B
:10044000002820DA25F020051DE0D8F8180000EB80
:10045000800006EB40003038C8F818002046E168FC
:100460008847064600F096FF0028EED1012F0AD0FB
:100470002E2E08D12046E16888477F1C0646022FB1
:1004800045F02005C4DBA069002803DA404245F0AE
:100490000105A061E80701D025F01005A6B1A6F17D
:1004A0004100192802D8203645F400654A463146F5
:1004B000204625604D46FFF775FE60B1012807D044
:1004C000ED1D25F0070000E007E000F1080978E7DE
:1004D00005F1040975E730467AE7206ABDE8F09F28
:1004E0001016000070477047704770472DE9F047BD
:1004F0000D4699469246044600F124080168880694
:1005000004D5E06921F01001216000E00120A8423B
:1005100001DD471B00E00027A1697A1902EB090001
:10052000081AA0612078C00602D42046FFF786FE94
:10053000002608E0D4E901211AF806009047206A55
:10054000401C761C20624E45F4DB2078C0060AD59C
:100550002046FFF773FE06E0D4E9012130209047E2
:10056000206A401C2062381EA7F10107F4DC07E076
:10057000D4E9012118F805009047206A401C206248
:10058000281EA5F10105F3DC2046FFF76DFE20785B
:10059000000602D50220BDE8F0870120FBE710B578
:1005A000436913B1AFF3008001E0FFF76EFE012055
:1005B00010BD127800F124010A7000224A70012255
:1005C000EDE711684FF0FF32E9E70000074B70B527
:1005D0000D467B4400F011F80446284600F020F850
:1005E00010B14FF0FF3070BD204670BD3B0E0000D3
:1005F00001694A1C02610878704700B58FB0CDE9E7
:1006000001310021059105497944CDE903101146D6
:100610006846FFF7CBFE0FB000BD0000E5FFFFFF0F
:10062000007B00F080007047754600F02BF8AE4666
:1006300005006946534620F00700854618B020B5EE
:10064000FFF7DCFDBDE820404FF000064FF000074B
:100650004FF000084FF0000B21F00701AC46ACE86A
:10066000C009ACE8C009ACE8C009ACE8C0098D46D7
:10067000704710B50446AFF300802046BDE8104037
:10068000FFF7A8BD004870473800002000BFFEE714
:100690007047000070B500250026202000F024FBE4
:1006A00001281DD10EE320210C4800F026FC012872
:1006B000F8D1002407E0601CC4B2102000F07AFEDC
:1006C000FA2C00D1FFE22021044800F016FC01289A
:1006D000F1D0A4F10A00F02803D203E000080140A1
:1006E000F4E2E0E2810000BF794449688F440000F1
:1006F000C0030000C2030000C4030000C6030000E2
:10070000C8030000CA030000CC030000CE030000B1
:10071000D0030000D2030000D4030000D603000081
:10072000D8030000DA030000DC030000DE03000051
:10073000E0030000E2030000E4030000E603000021
:10074000E8030000EA030000EC030000EE030000F1
:10075000F0030000F2030000F4030000F6030000C1
:10076000F8030000FA030000FC030000FE03000091
:10077000000400000204000004040000060400005D
:10078000080400000A0400000C0400000E0400002D
:1007900012040000140400001604000018040000F5
:1007A0001A0400001C0400001E04000020040000C5
:1007B0002204000024040000260400002804000095
:1007C0002A0400002C0400002E0400003004000065
:1007D0003204000034040000360400003804000035
:1007E0003A0400003C0400003E0400004004000005
:1007F00042040000440400004604000048040000D5
:100800004A0400004C0400004E04000050040000A4
:100810005204000054040000560400005804000074
:100820005A0400005C0400005E0400006004000044
:100830006204000064040000660400006804000014
:100840006A0400006C0400006E04000070040000E4
:100850007204000074040000780400007A040000B0
:100860007C0400007E04000080040000820400007C
:100870008404000086040000880400008A0400004C
:100880008C0400008E04000090040000920400001C
:100890009404000096040000980400009A040000EC
:1008A0009C0400009E040000A0040000A2040000BC
:1008B000A4040000A6040000A8040000AA0400008C
:1008C000AC040000AE040000B0040000B20400005C
:1008D000B4040000B6040000B8040000BA0400002C
:1008E000BC040000BE040000C0040000C2040000FC
:1008F000C4040000C6040000C8040000CA040000CC
:10090000CC040000CE040000D0040000D20400009B
:10091000D4040000D6040000D8040000DA0400006B
:10092000DC040000DE040000E0040000E20400003B
:10093000E4040000E6040000E8040000EA0400000B
:10094000EC040000EE040000F0040000F2040000DB
:10095000F4040000F6040000F8040000FA040000AB
:10096000FC040000FE040000000500000205000079
:100970000405000006050000080500000A05000047
:100980000C0500000E050000100500001205000017
:100990001405000016050000180500001A050000E7
:1009A0001C0500001E0500002005000022050000B7
:1009B0002405000026050000280500002A05000087
:1009C0002C0500002E050000300500003205000057
:1009D0003405000036050000380500003A05000027
:1009E0003C0500003E0500005005000052050000D7
:1009F0005405000056050000580500005A05000087
:100A00005C0500005E050000600500006205000056
:100A10006405000066050000680500006A05000026
:100A20006C0500006E0500007005000072050000F6
:100A30007405000076050000780500007A050000C6
:100A40007C0500007E050000800500008205000096
:100A50008405000086050000880500008A05000066
:100A60008C0500008E050000900500009205000036
:100A70009405000096050000980500009A05000006
:100A80009C0500009E050000A0050000A2050000D6
:100A9000A4050000A6050000A8050000AA050000A6
:100AA000AC050000AE050000B0050000B205000076
:100AB00000BF00BF00BF00BF00BF00BF00BF00BF3E
:100AC00000BF00BF00BF00BF00BF00BF00BF00BF2E
:100AD00000BF00BF00BF00BF00BF00BF00BF00BF1E
:100AE00000BF00BF00BF00BF00BF00BF00BF00BF0E
:100AF00000BF00BF00BF00BF00BF00BF00BF002697
:100B0000D2E000BF00BF00BF00BF00BF00BF00BFFA
:100B100000BF00BF00BF00BF00BF00BF00BF00BFDD
:100B200000BF00BF00BF00BF00BF00BF00BF00BFCD
:100B300000BF00BF00BF00BF00BF00BF00BF00BFBD
:100B400000BF00BF00BF00BF00BF00BF00BF00BFAD
:100B500000BF00BF00BF00BF00BF00BF00BF00BF9D
:100B600000BF00BF01269FE000BF00BF00BF00BF65
:100B700000BF00BF00BF00BF00BF00BF00BF00BF7D
:100B800000BF00BF00BF00BF00BF00BF00BF00BF6D
:100B900000BF00BF00BF00BF00BF00BF00BF00BF5D
:100BA00000BF00BF00BF00BF00BF00BF00BF00BF4D
:100BB00000BF00BF00BF00BF00BF00BF00BF00BF3D
:100BC00000BF00BF00BF00BF00BF00BF00BF00BF2D
:100BD00000BF00BF00BF00BF00BF00BF00BF00BF1D
:100BE00000BF00BF00BF00BF00BF00BF00BF00BF0D
:100BF00000BF00BF00BF00BF00BF00BF00BF00BFFD
:100C000000BF00BF00BF00BF00BF00BF00BF00BFEC
:100C100000BF00BF00BF00BF00BF00BF00BF00BFDC
:100C200000BF00BF00BF00BF00BF00BF00BF01206A
:100C30002749087027480078401C2649087033E08F
:100C400000BF00BF00BF00BF00BF00BF00BF00BFAC
:100C500000BF00BF00BF00BF00BF00BF00BF00BF9C
:100C600000BF00BF00BF00BF00BF00BF00BF00BF8C
:100C700000BF00BF00BF00BF00BF00BF00BF00BF7C
:100C800000BF00BF00BF00BF00BF00BF00BF00BF6C
:100C900000BF00BF00BF00BF00BF00BF00BF00BF5C
:100CA00000BF012500E000BF00BF5DB10A48006839
:100CB0004000094908600846006830430860002089
:100CC00004490870EFE4202000F008F870BD00002F
:100CD0003500002034000020300000200149086069
:100CE0007047000014040140014600200022074B19
:100CF0001B6803EA0102054B14331B680B4013B158
:100D00000AB1012000E0002070470000000401400B
:100D1000002123498279002A3AD00A4612680368E2
:100D20009A430B461A600A1D126803689A430B1D0A
:100D30001A60027911440A6803681A430A60184A63
:100D40000832126803689A43154B08331A601A1D5B
:100D5000126803689A43124B0C331A604279102AC6
:100D60000ED11A1F126803681A430D4B08331A601C
:100D70001A1D126803681A43094B0C331A600DE000
:100D80000749427911440A6803681A430A6005E07A
:100D9000027911440A6803689A430A6070470000A8
:100DA0000004014030B500228B071C0F0F2303FA0B
:100DB00004F20B4B8C1053F824309343084C8D10E5
:100DC00044F8253023468C1053F824308C07240F28
:100DD00000FA04F42343024C8D1044F8253030BD52
:100DE000080001402DE9F0410246002500260020C0
:100DF00000230024002791F803C00CF00F0591F8A0
:100E000003C00CF0100CBCF1000F03D091F802C02D
:100E10004CEA050591F800C0BCF1000F31D0146810
:100E200000202BE04FF0010C0CFA00F3B1F800C0E9
:100E30000CEA03069E4220D183004FF00F0C0CFAFF
:100E400003F7BC4305FA03FC4CEA040491F803C021
:100E5000BCF1280F06D14FF0010C0CFA00FCC2F8CF
:100E600014C00AE091F803C0BCF1480F05D14FF05F
:100E7000010C0CFA00FCC2F810C0401C0828D1D3A9
:100E80001460B1F800C0BCF1FF0F34DD54680020DD
:100E90002EE000F1080C4FF0010808FA0CF3B1F84D
:100EA00000C00CEA03069E4221D183004FF00F0CD4
:100EB0000CFA03F7BC4305FA03FC4CEA040491F86E
:100EC00003C0BCF1280F05D100F1080C08FA0CF89A
:100ED000C2F8148091F803C0BCF1480F07D100F1AB
:100EE000080C4FF0010808FA0CF8C2F81080401CFA
:100EF0000828CED35460BDE8F081024600209368F4
:100F00000B400BB1012000E00020704700BFFEE75E
:100F100000BFFEE77047000070B5002100230F22DC
:100F2000C47804B3154C246804F4E064C4F5E064A8
:100F3000210AC1F10403CA40447804FA03F1847819
:100F40001440214309010E4C0678A155047804F0A1
:100F50001F050124AC4005786D11AD0005F1E025B9
:100F6000C5F8004109E0047804F01F050124AC40F5
:100F7000044D0678761145F8264070BD0CED00E072
:100F800000E400E080E100E002490143024A116010
:100F9000704700000000FA050CED00E0704700000B
:100FA00029B1064AD2690243044BDA6104E0034ADC
:100FB000D2698243014BDA617047000000100240A1
:100FC00029B1064A92690243044B9A6104E0034A3C
:100FD00092698243014B9A61704700000010024001
:100FE00030B500210022002400232D4D6D6805F04E
:100FF0000C0121B1042905D0082923D105E0294D90
:10100000056022E0274D05601FE0254D6D6805F461
:101010007012234D6D6805F48034022505EB924271
:101020001CB9214D554305600BE01D4D6D6805F45D
:1010300000351DB11C4D5543056002E0194D554367
:10104000056002E0174D056000BF00BF144D6D68DC
:1010500005F0F0010909154D6B5C0568DD40456040
:101060000F4D6D6805F4E061090A104D6B5C456831
:10107000DD4085600A4D6D6805F46051C90A0B4D6D
:101080006B5C4568DD40C560054D6D6805F4404109
:10109000890B074D6B5CC568B5FBF3F5056130BD89
:1010A0000010024000127A0000093D0014000020E8
:1010B00024000020704710B500F002F810BD0000B9
:1010C0000CB50020019000903348006840F4803057
:1010D0003149086000BF3048006800F400300090DB
:1010E0000198401C0190009818B90198B0F5A06FC4
:1010F000F1D12948006800F4003010B101200090BF
:1011000001E0002000900098012843D123480068A6
:1011100040F01000214908600846006820F00300F4
:1011200008600846006840F0020008601A484068FD
:10113000194948600846406848600846406840F4DD
:10114000806048600846406820F47C10486008468B
:10115000406840F4E81048600846006840F080703D
:10116000086000BF0C48006800F000700028F9D04B
:101170000948406820F00300074948600846406875
:1011800040F00200486000BF0348406800F00C00D7
:101190000828F9D10CBD00000010024000200240D8
:1011A00030B50146481EB0F1807F01D3012030BD2B
:1011B000481E4FF0E022506150170F22002807DA36
:1011C00013071D0E094B00F00F04241F1D5503E0EB
:1011D00013071C0E064B1C5400BF00204FF0E022EA
:1011E0009061072010610020E1E7000018ED00E0A9
:1011F00000E400E07047000010B51348006840F0BC
:1012000001001149086008464068104908400E492D
:101210004860084600680E4908400B4908600846C7
:10122000006820F4802008600846406820F4FE0032
:1012300048604FF41F008860FFF73DFF4FF00060EB
:101240000449086010BD0000001002400000FFF8D3
:10125000FFFFF6FE08ED00E010B50121880700F061
:101260000EF8012805D1034908700121800700F01C
:1012700003F810BD2C000020CA430282704730B52D
:101280000246002000230024158A05EA01039589FF
:1012900005EA010413B10CB1012000E0002030BDCB
:1012A00021B1828942F40052828104E082894DF6A4
:1012B000FF731A40828170472DE9F04786B00546DA
:1012C0000E460024A24600BFA1460027B08900B107
:1012D00000BF2F462C8A4CF6FF700440F088044370
:1012E0002C82AC894EF6F3100440B0883189084353
:1012F000718908430443AC81AC8A4FF6FF40044037
:10130000B0890443AC8201A8FFF76AFE1F488742F8
:1013100002D1DDF810A001E0DDF80CA0A88900F4EE
:10132000004040B10AEBCA0000EB0A1031684900E6
:10133000B0FBF1F807E00AEBCA0000EB0A103168D5
:101340008900B0FBF1F86420B8FBF0F0040120093B
:10135000642101FB1089A88900F4004040B13220CB
:1013600000EBC900B0FBF1F000F00700044308E017
:10137000322000EB09106421B0FBF1F000F00F0007
:1013800004432C8106B0BDE8F0870000003801401E
:1013900000BFFEE730380A2801D201207047002044
:1013A000704700BF704710B500F040F800F0D2F869
:1013B00010BD00002DE9F04704461348006800F016
:1013C0008CFA07460022114B00F002F9054600F0A6
:1013D00057FA8146FFF7E4FE07E000BF4FF0E02038
:1013E000006900F480300028F8D0201EA4F1010428
:1013F000F3D14FF0E020006920F001004FF0E02130
:101400000861BDE8F08700000000002080842E41C4
:1014100000BF054A128802F04002002AF9D0C2B289
:10142000014B1B1D1A8070470044004070470000AC
:1014300008B515480068000E8DF8000012480068D5
:10144000000C8DF8010010480088000A8DF8020099
:101450000D4800788DF8030000200C4908709DF8B5
:1014600000009DF80110C943C9B288420AD19DF815
:1014700002009DF80310C943C9B2884202D19DF809
:10148000020008BD0020FCE73000002035000020ED
:101490001CB501210520FFF793FD2020ADF80400C5
:1014A00004208DF8070001A91448FFF79BFC0521D3
:1014B0000020FFF777FC2020009000208DF804002A
:1014C0000C208DF8050001208DF806006846FFF716
:1014D0001FFC4FF4C060FFF757FD17208DF8040084
:1014E00001208DF8050005208DF8060001208DF8FB
:1014F000070001A8FFF710FD1CBD00000008014017
:10150000FFF751FFFFF7C4FF00BF0948007801282B
:10151000FBD1FFF78DFF0446002CF6D000BF054835
:101520000378224604A106A0FEF77CFEEDE700004A
:1015300035000020340000206D61696E000000005D
:101540005B442F25735D3078253032582C25640D8F
:101550000A00000000B585B001210420FFF730FD2E
:1015600001214804FFF71CFD0420ADF81000032002
:101570008DF8120018208DF8130004A91248FFF707
:1015800031FC0820ADF8100004208DF8130004A9E8
:101590000D48FFF727FC4FF4E13000900020ADF834
:1015A0000400ADF80600ADF80800ADF80C000C2002
:1015B000ADF80A0069460548FFF77EFE01210348A1
:1015C000FFF76EFE05B000BD00080140004400407A
:1015D0002DE9C04130B4DFF8A0C23CEA111418BFB5
:1015E0003CEA131400F0EC8081EA03051CEA1114B4
:1015F00044EAD57418BF1CEA131500F0C780A4EBA9
:1016000005044FF0004545EAC12145EAC32341EAFC
:10161000505143EA525304F17F74994204F5003467
:101620004FEAC0204FEAC22208BF904200F09C80DF
:101630004FEA13650FF24016765D4FEA134506FB3D
:1016400005F7C7F1807706FB07F74FEAD737A7FB07
:1016500003687642C8F58038A7FB06CE38BFA8F1EC
:10166000010807FB08E64FF0000EA6FB028CE6FB24
:1016700003CEDCF1000CCEF1004E38BFAEF1010E0E
:10168000A6FB0C584FF000074FF00005E6FB0E8755
:10169000A1FB08C6A0FB07CE16EB0E0645F1000520
:1016A000E1FB076515F1E04E7EBFA4F580345FEAEB
:1016B00046066D4116F1800745F100054FEA1727F0
:1016C0004FEA066647EA0567A6F1DE46B6F1805F97
:1016D0004FEA15251FD9384624F0010C05EBC471DB
:1016E000BCF1FE6F01EB0C1102D8F0BCBDE800812B
:1016F00024425CBF01F5801E9EEAC47F02D4F0BC88
:10170000BDE80081244238D4F0BCA1F1C041BDE85D
:10171000004100F043B94FEAD22242EA43524FEA75
:10172000D323A7FB02864FEAD02040EA415007FBB3
:1017300003661EEA0E0F4FEAD12105FB026658BF71
:10174000A6EB0056B6EB00564FEA520E4EEAC37EA9
:1017500018EB0E0E56EB530EBDD518EB02085E418A
:101760007F1C55F10005B6E74FF480154FF00007D8
:101770004FF000064FF00008ADE7F0BC4FF000005E
:1017800001F1C04101F00041BDE8008111EA0C1FE8
:101790000CEA131500D00CE013EA0C1F00F02580B2
:1017A0004FF00000F0BC81EA030101F00041BDE808
:1017B0000081F0BCBDE8004181EA030100F0EEB811
:1017C000F0BCBDE8004170B500F09AF8097EFC3E1F
:1017D00000F007B881EA03014FF0000001F000417A
:1017E000704781EA030100F0D9B8F0BCBDE80041C0
:1017F0004FF0000021497047FFFDFBF9F7F5F4F2C7
:10180000F0EEEDEBE9E8E6E4E3E1E0DEDDDBDAD89B
:10181000D7D5D4D3D1D0CFCDCCCBCAC8C7C6C5C4F9
:10182000C2C1C0BFBEBDBCBBBAB9B8B7B6B5B4B310
:10183000B2B1B0AFAEADACABAAA9A8A8A7A6A5A4FB
:10184000A3A3A2A1A09F9F9E9D9C9C9B9A999998BF
:101850009797969595949393929191908F8F8E8E62
:101860008D8C8C8B8B8A89898888878786858584EF
:1018700084838382828181800000FF070000F87FDB
:101880004FEA1153A3F58063D3F11E03A8BFD3F130
:10189000200C08DB4FF0004242EAC12252EA5052CB
:1018A00032FA03F0704709420BD4102BC4BF00205A
:1018B000704703F5787CBCF1FF3F05D04FF0FF3057
:1018C00070474FF00000704770B500F019F800BF86
:1018D0004992248000207047F0E7B0FA80F310FAB4
:1018E00003F10AD0C3F11D0303F580634FEA4150B1
:1018F0004FEA035202EBD12170474FF000007047CE
:101900000EF1020E2EF0030E5EF8046B364205D483
:10191000012A43EB030515F5001F12D8012841EBFE
:10192000010C1CF5001F0CD80ED14FEAD17C15F527
:10193000001F0CEB4C0C0CF1020C08BF4CEBD37CE1
:1019400004E04FF0080C01E04FEAD37C0CEB4C05AF
:1019500026FA05F606F00706B6F1040C06D20EEBE1
:10196000860CBDE870404CF0010C6047DFE80CF0DD
:10197000090B02024FF000414FF00000A1F50021D9
:1019800070BD19461046012851EB010418BFD4F56B
:10199000001484BF002001F0004170BD0808A0F5CC
:1019A00000114FEA31017047303132333435363768
:1019B0003839414243444546403058003031323393
:1019C0003435363738396162636465664030780093
:1019D00004000008000000000000000200010000F8
:1019E00010000000041A0008000000203800000069
:1019F0006C0100083C1A0008380000206006000056
:101A00008801000800A24A04000000000000000055
:101A10000102030406070809000000000102030494
:101A2000010203040607080902040608000000007A
:0C1A3000000000000000000000000000AA
:0400000508000131BD
:00000001FF
