:020000040800F2
:10000000100500204501000815270008251E0008DE
:1000100011270008BD0A00086D2A00080000000032
:10002000000000000000000000000000752700082C
:10003000C10A00080000000045270008A9270008A1
:100040005F0100085F0100085F0100085F01000810
:100050005F0100085F0100085F0100085F01000800
:100060005F0100085F0100085F0100085F010008F0
:100070005F0100085F0100085F0100085F010008E0
:100080005F0100085F0100085F0100085F010008D0
:100090005F0100085F0100085F0100085F010008C0
:1000A0005F0100085F0100085F0100085F010008B0
:1000B0005F0100085F0100085F0100085F010008A0
:1000C0005F0100085F0100085F0100085F01000890
:1000D0005F0100085D2A00085F0100085F01000859
:1000E0005F0100085F0100085F0100085F01000870
:1000F0005F0100085F0100085F0100085F01000860
:100100005F0100085F0100085F0100085F0100084F
:100110005F0100085F0100085F0100085F0100083F
:100120005F0100085F0100085F0100085F0100082F
:10013000DFF80CD000F070FC00480047B13B00082D
:10014000100500200648804706480047FEE7FEE706
:10015000FEE7FEE7FEE7FEE7FEE7FEE7FEE7FEE777
:1001600009280008310100082DE9F0410024061B90
:10017000254671F1000605DA01240027D0EB0700BF
:1001800067EB0101161E73F1000605DA0027D2EBBA
:100190000702012567EB030300F0ADFA86460E4621
:1001A00017469C46AC4204D00025D0EB050E65EB0B
:1001B000010624B10020D2EB000760EB030C70466F
:1001C00031463A466346BDE8F081D2B201E000F81C
:1001D000012B491EFBD270470022F6E710B51346EB
:1001E0000A4604461946FFF7F0FF204610BD30B519
:1001F00004460020034600E05B1C934203D2E05C0F
:10020000CD5C401BF8D030BDF0B480EA0102D40FC1
:100210004200B2EB410F02D20246084611464A00A4
:1002200042D0C30DDDB2C1F3C752AD1A202D35DA6D
:10023000C1F3160141F4000204B15242C5F1200697
:1002400002FA06F12A411044B3EBD05F23D0C4B1C7
:10025000012DA0EBC35009DCF0BC4FF0004202EAD4
:10026000C352DBB200F5000000F0A0BA400000F17C
:10027000807000EBC350A0F1807040EAD17049005B
:1002800009E0490841EAC071A0EBC35000F5000045
:10029000400800EBC350F0BC00F07FBA614201227D
:1002A00002EB4101001BF6E7F0BC704781F0004112
:1002B000AAE780F00040A7E780EA010210B502F04B
:1002C0000043400022D04A001FD0010E01EB126112
:1002D000C0F35600C2F3560240F4000042F400029C
:1002E000A0FB022000047F39140400D0401C50EA17
:1002F000124001D44000491EC2B20C0604EBD010DB
:10030000401C4008802A02D003E0002010BD20F0ED
:100310000100002900DA0020184310BD30B480EA43
:10032000010202F0004530F0004221F0004013D0FD
:1003300090B1C30DD40DC2F31601C0F31600E41A38
:1003400041F4000140F400027D34914201D3641C69
:1003500000E04900002C02DA30BC002070474FF466
:1003600000000023914201D3891A034340084FEA59
:100370004101F7D151B1914202D14FF0004105E066
:1003800002D24FF0010101E06FF0010103EBC45014
:10039000284430BC00F001BA2DE9FE4F804681EAC6
:1003A0000300C00F0C46009021F0004123F00045EF
:1003B000B8EB0200A94105D24046214690461C46B2
:1003C0000B46024623F00040104347D0270DC7F3E9
:1003D0000A00C3F30A510290401A019040286BDAD8
:1003E000C3F3130040F4801B0098924620B1002311
:1003F000D2EB030A63EB0B0B01985946C0F14002A4
:10040000504600F0A9F906460D4650465946019A55
:1004100000F0B1F910EB08006141002487EA1152A5
:1004200084EAE7731A4340D0009A62B3019A012A22
:100430004FEA075215DC001B61EB02014FF000424E
:1004400002EA0752CDE90042001C41F58011324614
:100450002B4600F0F4F903B0BDE8F08F404621468A
:10046000F9E7001B61EB0201001C41F58013001845
:100470005B412018A2F5001747EB030140EAD57055
:10048000B6196D4111E06D084FEA360645EAC075B0
:100490004FEA0752001B61EB0201001C41F580117D
:1004A00049084FEA30000019514132462B4603B04B
:1004B000BDE8F04F00F0B4B90098012240000023DD
:1004C000D0EB020263EBE073009821464FEAE07440
:1004D000B8EB000061EB0401E9E783F000435BE760
:1004E00081F0004158E72DE9FE4F81EA030404F052
:1004F000004421F0004100944FF0000B23F0004332
:1005000050EA01045ED052EA03045BD0C3F30A54FC
:10051000C1F30A552C44A4F2F3340194A0FB025415
:10052000C1F3130141F48011C3F3130343F48013A7
:1005300001FB024400FB034E840A970A44EA8154FB
:1005400047EA8357A4FB076802958D0A05FB0785D8
:100550004FEA932C04FB0C542705029D4FEA0658E2
:1005600047EA1637B5EB08056EEB070C870E920EBF
:1005700047EA811742EA8312A7FB0201B6EB0B019F
:1005800064EB00042B0D43EA0C335E1844EB1C5063
:10059000DA465146E7FB0201C5F313044FEA0B3379
:1005A00043EA14534FEA0432019C43EA0603A4F1E0
:1005B0000C040294009CCDE900B400F040F903B0B3
:1005C000BDE8F08F00200146F9E7002801DBC0F10B
:1005D0000040002901DBC1F10041814201D8012026
:1005E000704700207047002801DBC0F1004000295F
:1005F00001DBC1F10041814201D20120704700209E
:100600007047002801DBC0F10040002901DBC1F187
:100610000041814201D10120704700207047C10F85
:1006200080EAE0700844CA079623002100F0BEB8B3
:1006300096230022114600F0B9B800F0004220F0E5
:100640000040C10DC0F3160040F400007F2901DA1C
:1006500000207047962903DCC1F19601C84001E0F3
:1006600096398840002AF4D04042704700F000429A
:1006700030F000400AD0C10D01F56071C0F31600E2
:1006800042EA0151C2084007114370470020014669
:10069000704701F0004330B421F0004150EA0102FC
:1006A00006D00A0DA2F56072C1F31301002A02DC24
:1006B00030BC00207047440F44EAC104C100E01878
:1006C00030BC00EBC25000F068B830B50B460146B4
:1006D00000202022012409E021FA02F59D4205D3E1
:1006E00003FA02F5491B04FA02F52844151EA2F18B
:1006F0000102F1DC30BD2DE9F05F05460020924695
:100700009B4688460646814640241BE028464146D3
:100710004746224600F092F953465A46C01A914184
:1007200010D311461846224600F016F82D1A67EB32
:1007300001084F4622460120002100F00DF817EB7A
:1007400000094E41201EA4F10104DFDC4846314679
:100750002A464346BDE8F09F202A04DB203A00FAEF
:1007600002F1002070479140C2F1200320FA03F308
:10077000194390407047202A06DBCB17203A41FAF4
:1007800002F043EAE07306E041FA02F3D040C2F11E
:10079000200291400843194670470029A8BF7047BE
:1007A000401C490008BF20F00100704710B4B0FAA7
:1007B00080FC00FA0CF050EA010404BF10BC704742
:1007C00049B1CCF1200421FA04F411FA0CF118BF5C
:1007D000012121430843A3EB0C01CB1D4FEA00612B
:1007E0004FEA102042BF002010BC704700EBC350FE
:1007F00010440029A4BF10BC7047401C490008BF2A
:1008000020F0010010BC7047420005D0C0F3C75271
:100810005242914201DC0020704700EBC15070470A
:1008200010B5141E73F1000408DA401C41F10001F8
:1008300092185B411A4301D120F0010010BD2DE94F
:10084000F04D92469B4611B1B1FA81F202E0B0FA46
:1008500080F220329046FFF77FFF04460F4640EAC1
:100860000A0041EA0B0153465A46084313D0114689
:1008700053EA010019D0C8F14002504600F0DEF8FA
:1008800005460E46504659464246FFF765FF084367
:1008900005D0012004E020463946BDE8F08D002057
:1008A000054346EAE0762C4337430A986305E40A99
:1008B000A0EB08000022FD0A44EA47540A3002D5A2
:1008C00000200146E9E7010510196941DDE9084505
:1008D00000196941BDE8F04DA2E72DE9F04D81EA2C
:1008E000030404F0004B21F0004514464FF0000AC9
:1008F00023F0004150EA050220D054EA01021DD045
:10090000C5F30A570246C5F31303C1F31300C1F33D
:100910000A5640F4801543F48013A7EB0608101B19
:10092000D64608F2FD3873EB050002D308F1010842
:1009300001E092185B41B8F1000F03DA0020014694
:10094000BDE8F08D00204FF48011064684460EE08D
:10095000171B73EB050705D3121B63EB0503064357
:100960004CEA010C49084FEA300092185B4150EA0A
:100970000107EDD152EA030012D082EA040083EAB3
:100980000501084305D0101BAB4106D2012200230C
:1009900006E000224FF0004302E06FF00102531026
:1009A0001AEB06004CEB085110EB0A0041EB0B016F
:1009B000BDE8F04DFFF734BFC1F30A52C1F3130194
:1009C00040F2FF3341F480119A4202DA00200146DE
:1009D000704740F233439A42A2F2334202DC524261
:1009E00000F02CB8FFF7B8BE30B5041E71F100045A
:1009F00004DB4FF00044404264EB0101141E73F12C
:100A0000000405DB1C464FF00043524263EB040335
:100A1000994208BF904230BD064C074D06E0E068A1
:100A200040F0010394E8070098471034AC42F6D335
:100A3000FFF782FBF865000818660008202A04DB2F
:100A4000203A21FA02F00021704721FA02F3D04047
:100A5000C2F120029140084319467047F0B40028C3
:100A600002DCF0BC00207047C0F3C751C0F3160091
:100A700040F40000CA0701D14000491E3F2202EBAA
:100A80006105002211464FF4000626FA01F31344D3
:100A9000D418844201D8001B1A464000491C17296B
:100AA000F3DD5100814202D24FF0FF3100E000211E
:100AB00002EBC550F0BCFFF770BE0000FEE700007F
:100AC0007047000070470000014690F8210002289E
:100AD00013D10868D1E90FC3026822F00E02026048
:100AE000026822F001020260012000FA03F2CCF851
:100AF000042081F82100002002E004208863012006
:100B0000002281F82020704780B590F8211002293A
:100B100027D1026840F2040C1368C4F2020C23F0DF
:100B20000E03136013680CF17C018A4223F001016B
:100B300011601AD940F20841C4F202018A4247D03A
:100B400040F21C41C4F202018A4245D040F23041D9
:100B5000C4F202018A4243D14FF48073CCF80034CE
:100B600057E004218163012080BD4321C4F20201CA
:100B70008A420EDD6B21C4F202018A421BDC442151
:100B8000C4F202018A4239D05821C4F202018A42D9
:100B900031E00821C4F202018A4232D01C21C4F2A1
:100BA00002018A4232D03021C4F202018A4222D1AB
:100BB0004FF480722BE06C21C4F202018A4222D0F1
:100BC0008021C4F202018A4215D14FF080721EE0EA
:100BD0000123CCF800341CE01023CCF8003418E0DA
:100BE0000CF588614FF480338A4208BF4FF480537C
:100BF000CCF800340DE04FF4803208E04FF480521E
:100C000005E0012203E04FF4801200E01022CCF84E
:100C10000020416B4FF48072028401B188470020AC
:100C200080BD0000B0B5044600F004F9054640F26E
:100C30004400C2F200000078611C18BF044400BFE9
:100C400000F0F8F8401BA042FAD3B0BD2DE9F04FF8
:100C500083B00C68002C00F0EA80A0F18042A2F57D
:100C6000843240F2004E4FEAB22241F60047C4F20D
:100C7000010E0092C4F20107062200254FF001097F
:100C80004FF0000B4FF0000AB84208BF0522019256
:100C900009E000BF0C680BF1010B34FA0BF205F10F
:100CA000040500F0C48009FA0BF814EA080CF1D02E
:100CB0004C684FF6FF72C1F21002944210DC122C05
:100CC00050D8DFE804F0330A41454F4F4F4F4F4FA4
:100CD0004F4F4F4F4F4F4F484C00D1F80CA041E0C1
:100CE0004FF6FF72C1F2210294420FDC0022C1F2E2
:100CF000110294421AD00022C1F21202944215D07D
:100D00000022C1F22102944210D02BE00022C1F255
:100D1000220294420AD00022C1F23102944205D04C
:100D20000022C1F2320294421CD100BF8C6844B14F
:100D3000012C14BFC0F81480C0F810804FF0080ACE
:100D400010E04FF0040A0DE0CC6804F1080A09E055
:100D50004FF0000A06E0CC6804F1040A02E0CC6817
:100D600004F10C0A2C460746BCF5807F24BF203CCA
:100D700004373A680F2303FA04F6B2430AFA04F47C
:100D800022433A60CA79D2067FF584AF41F2180453
:100D9000C4F2020422684FF6084842F001022260C1
:100DA0002268CFF6FF7802F001020292029A2BF03D
:100DB0000302724452F8084005F00C0603FA06F7E5
:100DC000009BBC43019F052B38BF1F4607FA06F660
:100DD000344342F808404C68E203DEF8002054BF78
:100DE00022EA0C0742EA0C07A203CEF80070DEF8F4
:100DF000042054BF22EA0C0742EA0C07E202CEF8B4
:100E00000470DEF8082054BF22EA0C0742EA0C07FF
:100E1000A20240F20C44CEF80870C4F20104226829
:100E200054BF22EA0C0242EA0C02226032E703B00D
:100E3000BDE8F08F40F20C10C2F20000006870476D
:100E4000F0B581B0B0B3044690F83D0028B9002059
:100E500084F83C00204600F0BFFA242084F83D00CE
:100E60002068016821F001010160016841F400413E
:100E70000160016821F40041016000F027FC48F2A4
:100E80008041C0F21E0140F60012656888424FF0B2
:100E90000001C0F23D0248F2A16C4FF0000338BFE0
:100EA00001219042C0F2010C38BF0123654538BFD3
:100EB0000B4613B1012001B0F0BD4DF68361C4F2C1
:100EC0001B31A0FB011221684FEA924E4B684FF490
:100ED000967623F03F0343EA92434B6044F6D353A4
:100EE0000F6A0EFB06F6C1F26203A6FB033627F07B
:100EF0003F03B709654538BF970C7A1C1A430A624D
:100F0000CA6948F2A0674CF6FF73C0F20107BD4200
:100F100022EA030C0AD801386A00B0FBF2F0013073
:100F20006FF31F30042898BF04202BE0A368A0F1C2
:100F3000010E9BB119206843BEFBF0F00422013082
:100F400062F31F30000512D09BB119206843BEFB2D
:100F5000F0F00422013062F31F3011E005EB450090
:100F6000BEFBF0F001306FF31F300005ECD1012023
:100F700008E005EB4500BEFBF0F001306FF31F30D9
:100F800040F4004040EA0C00C8610868D4E9072337
:100F900020F0C000104318430860886848F2FF3210
:100FA00004F10C0790438CCF18431043A669886066
:100FB000C86820F0FF0038433043C860086840F03C
:100FC0000100086000202021206484F83D10206387
:100FD00084F83E0001B0F0BD2DE9F04784B004462E
:100FE00000201F4616460D460390FFF723FF94F896
:100FF0003D1020290FD102218146C0F21001204668
:1010000001221923CDF8009001F03CF818B994F8AA
:101010003C00012803D1022004B0BDE8F087012183
:10102000226884F83C101368DDE90D080C99DB0791
:1010300003D1136843F001031360136823F40063C2
:101040001360222284F83D20402284F83E200022B2
:10105000226461626085608D294620850020CFF67C
:10106000FF70E062204632463B46CDF80080CDF866
:10107000049000F0F1FE18B1012004B0BDE8F08743
:10108000208D022810D0012824D0002838D100203B
:101090000290206841690291816902910299016878
:1010A00041F40071016037E02068016841F400619B
:1010B0000160EFF3108072B6002002902068416951
:1010C0000291816902910299016821F480610160B5
:1010D00062B621E02068016821F480610160EFF3CD
:1010E000108072B6002002902068416902918169E7
:1010F00002910299016841F40071016062B60BE04F
:101100002068016841F48061016000210291416919
:101110000291806902900298208D002800F0AC8036
:10112000042740F2080A4BF28956C0F20107C2F2C6
:10113000000AC1F2F846232517E0204641464A46F8
:1011400001F020F8002897D12068616A00690870D2
:10115000606A218D01306062481E2085608D0138F3
:101160006085208D002800F08780032847D802285A
:1011700061D00128E1D02046394600224346CDF80F
:10118000009000F07FFF00287FF476AF20680168B0
:1011900021F480610160EFF3108072B62068616A0B
:1011A00000690870606A218D013001396062218513
:1011B000618D01396185DAF80010C908A1FB0612BA
:1011C000110A6943039100BF0399013903910399FF
:1011D00000295CD021684A695207F5D50A6842F4B3
:1011E00000720A6009690170606A218D01306062D5
:1011F000481E2085608D0138608562B6A4E72046D0
:1012000041464A4600F0BEFF00287FF435AF206813
:10121000616A00690870606A228D0130013A60627B
:1012200022852168628D013A62854A69520798D504
:10123000096901708CE72046394600224346CDF803
:10124000009000F01FFF00287FF416AFEFF310802E
:1012500072B62068616A026842F400720260006936
:101260000870606A218D01306062481E2085608DA3
:101270000138608562B667E7202084F83D000020D1
:1012800084F83E0084F83C0004B0BDE8F0870020FC
:101290002021206384F83D1084F83E00216C41F049
:1012A0002001216462B684F83C00E5E62DE9F043B4
:1012B00083B0994616460F460446FFF7BBFD94F8E7
:1012C0003D1020290ED102210546C0F21001204612
:1012D00001221923009500F0D5FE18B994F83C00BE
:1012E000012803D1022003B0BDE8F0830121226868
:1012F00084F83C101368DDE90B080A99DB0703D179
:10130000136843F001031360136823F40063136050
:10131000212284F83D20402284F83E2000222264CD
:1013200061626085608D394620850020CFF6FF70B0
:10133000E062204632464B46CDF80080019500F031
:1013400011FE30B3012003B0BDE8F08320464146D2
:101350002A4600F047FF28BB606A2168034613F85D
:10136000012B0A61228D6362571E2785638D3F041E
:10137000A3F1010363854B6918BF13F0040308D080
:10138000437802300B616062901E2085608D0138C9
:101390006085208D0028D9D1204641462A4600F09C
:1013A00041FE40B1206C0428CCD12068016841F492
:1013B00000710160C6E72068016841F400710160B6
:1013C000202084F83D00002084F83E0084F83C0092
:1013D00003B0BDE8F083000010B586B0016845F6A3
:1013E0000000C4F2000081424FF00001CDE9041179
:1013F000CDE9021101D006B010BD41F21804C4F2CB
:101400000204216800F5344041F0080121602168A0
:1014100001F00801019101994FF4406102911221FC
:1014200003910321059102A9FFF710FC606840F4C5
:1014300080006060606800F480000190019806B050
:1014400010BD000040F2440040F20C11C2F2000056
:10145000C2F2000100780A6810440860704700007A
:1014600080B542F20000C4F20200016841F01001B0
:101470000160032000F066F8002000F005F800F09D
:101480002BF8002080BD0000B0B540F24402C2F24B
:10149000000240F208011278C2F200014FF47A73A0
:1014A0000968B3FBF2F20446B1FBF2F1084600F022
:1014B000E7FA0F2C4FF001050CD858B94FF0FF3068
:1014C00021460022002500F02DF840F24800C2F22B
:1014D000000004602846B0BD82B041F21800C4F29A
:1014E00002000168022241F001010160016801F07F
:1014F000010101910199416841F0805141604068CA
:1015000000F08050009000980420C4F201000168AF
:1015100062F31A61016002B07047000080B501F00B
:10152000A7FA80BD70B514460D46064601F0B0FA24
:101530002946224601F0F0F80146304601F0B0FAA3
:1015400070BD000080B501F0BDFA80BD2DE9F0430B
:1015500081B0002800F0898042F20008C4F202083D
:101560000446D8F800000D4600F0070088420CD26F
:10157000D8F8000020F007002843C8F80000D8F889
:10158000000000F00700A8426FD1206841F2040972
:101590008107C4F2020917D5410705D5D9F8001013
:1015A00041F4E061C9F80010010705D5D9F8001031
:1015B00041F46051C9F80010D9F80010A26821F078
:1015C000F0011143C9F80010C00745D1D8F8000058
:1015D00000F00700A8420CD9D8F8000020F007005E
:1015E0002843C8F80000D8F8000000F00700A8421F
:1015F0003BD12068410707D5D9F80010E26821F4F3
:10160000E0611143C9F80010000708D5D9F80000BF
:10161000216920F4605040EAC100C9F8000000F0E0
:1016200079F8D9F8001045F64602C1F30311C0F667
:101630000002515C40F2080220FA01F140F2480039
:10164000C2F200000068C2F200021160FFF71CFF46
:10165000002001B0BDE8F0836068022809D00128AD
:1016600029D159F8041C890307D4012001B0BDE831
:10167000F08359F8041C8901F7D5D9F8001021F03E
:1016800003010843C9F80000FFF7D4FB064641F206
:10169000883700BFD9F80000616800F00C00B0EB9B
:1016A000810F93D0FFF7C6FB801BB842F2D903200D
:1016B00001B0BDE8F08359F8041C8907D5D5DCE7F3
:1016C00040F20800C2F200000068704780B5FFF7E2
:1016D000F7FF41F20401C4F20201096845F656021F
:1016E000C1F30221C0F60002515CC84080BD000079
:1016F00080B5FFF7E5FF41F20401C4F20201096879
:1017000045F65602C1F3C221C0F60002515CC84042
:1017100080BD000041F2040CC4F2020CDCF8003081
:1017200003F00C00082841F20020C0F27A0018BF34
:101730007047C3F383420AA18A5CD90305D440F6FB
:101740000010C0F23D0050437047DCF8001008A3C1
:10175000C1F34041595C5043B0FBF1F0704700BF0A
:1017600002030405060708090A0B0C0D0E0F1010E2
:10177000010200002DE9F04182B0002800F0C48091
:101780000446007841F20006C007C4F2020643D0C6
:10179000706800F00C00042817D0706800F00C008E
:1017A000082802D17068C0030FD465682DB1B5F563
:1017B000A02F10D0B5F5803F11D0306820F48030D4
:1017C0003060306820F480200CE03068800323D53E
:1017D000606808BB98E0306840F480203060306872
:1017E00040F480303060FFF725FB002D054610D017
:1017F0003068800310D4FFF71DFB401B6428F7D925
:1018000004E100BFFFF716FB401B64284FF0030004
:1018100077D830688003F5D42078800718D57068B1
:1018200010F00C0F07D0706800F00C00082826D1CB
:101830007068C00323D43068800702D5206901286E
:1018400062D13068616920F0F80040EAC100306080
:10185000207800073DD5A06938B30020C4F24220AB
:101860000121C0F88014FFF7E5FA0546706A800789
:101870002DD4FFF7DFFA401B0228F7D9C6E0206914
:10188000002840F20000C4F2422000F096800121BE
:101890000160FFF7CFFA054630688007D1D4FFF723
:1018A000C9FA401B0228F7D9B0E00020C4F2422058
:1018B0000021C0F88014FFF7BDFA0546706A800762
:1018C00007D5FFF7B7FA401B0228F7D99EE000F0D2
:1018D0003BFF207840071BD4E5698DB1706800F0AC
:1018E0000C00082847D1012D0ED07068216A00F441
:1018F00080328A4208D1616A00F47010884203D1B4
:10190000002002B0BDE8F081012002B0BDE8F08106
:10191000F06910F0805808D1F06940F08050F06113
:10192000F06900F080500190019847F20007C4F27E
:1019300000073868C00510D4386840F480703860FB
:10194000FFF778FA054600BF3868C00505D4FFF7F1
:1019500071FA401B6428F7D958E0E5681DB1052DE0
:101960003CD0012D3ED0306A20F001003062306A58
:1019700020F0040039E00027C4F242270020386636
:10198000FFF758FA022D05460CD100BF30688001E0
:1019900054D5FFF74FFA401B02284FF00300F5D94A
:1019A000AFE700BF30688001AAD5FFF743FA401BBC
:1019B00002284FF00300F5D9A3E700210160FFF7EB
:1019C00039FA0546306880077FF542AFFFF732FAF3
:1019D000401B02284FF00300F4D992E7306A40F030
:1019E00004003062306A40F001003062FFF722FAF2
:1019F000002D054641F2883714D000BF306A8007B9
:101A000013D4FFF717FA401BB842F7D9032002B0EE
:101A1000BDE8F081FFF70EFA401BB8424FF003001B
:101A20003FF66FAF306A8007F4D4B8F1000F7FF44F
:101A300053AFF06920F08050F0614DE7206AB0F5B7
:101A4000803F05D17168A26821F4003111437160B3
:101A50007168626A21F474111043084370600120B8
:101A60003866FFF7E7F90446306880013FF548AF74
:101A7000FFF7E0F9001B02284FF00300F4D940E71C
:101A800080B500F079FE80BD70470000704700000F
:101A9000B0B582B0016805460868CA684C6900F0B4
:101AA0002F03202B02F0200305D123B1284600F09C
:101AB000D7FE02B0B0BD5FEA007C1EBF04F0010E8D
:101AC00002F4907414EB0E0424D12B6B1040C20668
:101AD00017D5012B15D100200190086801904868A6
:101AE00001900198486940061CD4A88DEA8DEB8DC1
:101AF000002B1CBF801A5FEA004240F09A8002B0BF
:101B0000B0BD010636D44006F9D5284600F09CFE4B
:101B100002B0B0BDC10718BF12F480712FD14107C8
:101B200033D439E0A86B0268526893B2002BE6D038
:101B3000AC8DA342E3D2EA858269202A16D0CA6816
:101B400022F48072CA604A6922F001024A614A693D
:101B500022F040024A61202285F83E2000222A63BA
:101B6000CA6822F01002CA60FEF7AEFFA88DE98DA8
:101B7000401A6FE0284600F015FF02B0B0BD296C96
:101B800041F001012964410706D5BEF1000F03D0E1
:101B9000296C41F002012964810706D5BEF1000FCE
:101BA00003D0296C41F004012964BCF1000F06D573
:101BB0005EEA030103D0296C41F008012964296C15
:101BC00000299CD01040800602D5284600F048FE2F
:101BD00028684069296C00F0400001F008014018B5
:101BE00020D0284600F01AFE28684169490614D51D
:101BF000416921F040014161A86B70B142F60D01CD
:101C0000C0F600014163FEF77FFF00283FF477AF85
:101C1000A86B416B884702B0B0BD2846FFF736FF7E
:101C200002B0B0BD2846FFF731FF0020286402B0A3
:101C3000B0BDCA6822F49072CA604A6922F00102FB
:101C40004A61202285F83E2000222A63CA6822F0D9
:101C50001002CA6081B22846FFF716FF02B0B0BD7D
:101C6000002804BF0120704710B5044690F83D00DD
:101C700028B9002084F83C00204600F021F82420F8
:101C800084F83D002068C16821F40051C1602046FD
:101C900000F040FE2068016921F490410161416932
:101CA00021F02A014161C16841F40051C160002066
:101CB0002021206484F83D1084F83E1010BD0000FF
:101CC00070B586B040F60004C4F20104006804F563
:101CD0004051002688420596CDE90366029601D060
:101CE00006B070BD41F21800C4F20200016802ADF6
:101CF00041F480410160016801F480410191019942
:101D0000016841F0040101600068294600F0040008
:101D1000019001984FF4007002900220039003207C
:101D200005902046FEF792FF4FF48060CDE9020651
:101D3000204629460496FEF789FF2520002100222F
:101D4000FFF7F0FB2520FFF7E9FB06B070BD0000B0
:101D5000704700002DE9F04381B0044690F83D0043
:101D600020280BD10E4600294FF0010055D0174610
:101D7000002A52D094F83C00012803D1022001B07F
:101D8000BDE8F083012084F83C004FF000092120D9
:101D90001D46C4F8409084F83D00FFF74BF8A78437
:101DA000E784A1680746B1F5805F07D12069002864
:101DB0001CBF30464E46B046064601E04FF00008D4
:101DC00084F83C9007E000BF16F8010B21684860DA
:101DD000E08C0138E084E08C80B1204680213A46D6
:101DE0002B4600F009FE80B9002EEDD138F8020B29
:101DF00021686FF35F2048600026E9E72046402114
:101E00003A462B4600F0F8FD18B1032001B0BDE8BA
:101E1000F083202084F83D00002001B0BDE8F0836D
:101E200070470000FEE700000268516949054FF065
:101E300000010FD56FF4806353612022016380F8A5
:101E40003D2080F83E10026C42F00402026480F8EB
:101E50003C100121084670472DE9F04782B0044646
:101E600000680E460168DDF828A041F48061016039
:101E70000168DDF82C9041F480711D461746016021
:101E800020464FF0011100225346CDF8009000F09B
:101E9000F9F850B120680068C00544BF4FF40070E5
:101EA0002064032002B0BDE8F08740F202082068F9
:101EB000C0F2010806F0FE06066120464146524681
:101EC0004B4600F019F948BB0020019020684A46B3
:101ED000416901918069514601900198204600F0C6
:101EE00081F998B9012D08D02068390A016120468E
:101EF00051464A4600F076F940B92068F9B20161CE
:101F0000204651464A4600F06DF958B1206C04282D
:101F100004D12068016841F400710160012002B021
:101F2000BDE8F087206800220168534641F48071C3
:101F3000016020464FF00111CDF8009000F0A2F8AA
:101F40000028A7D1206846F00101016120464146E2
:101F500052464B4600F0D0F8002818BF012002B0CE
:101F6000BDE8F0872DE9F04383B0044600680D46D4
:101F700001680A9F0B9E41F480719946904601606A
:101F800020464FF0011100223B46009600F07AF8FF
:101F900050B120680068C00544BF4FF40070206451
:101FA000032003B0BDE8F083206805F0FE01016165
:101FB0000221C0F2010120463A46334600F09CF867
:101FC00018B1012003B0BDE8F08300200290206822
:101FD0003246416902918069394602900298204652
:101FE00000F000F940B1206C0428EAD120680168B3
:101FF00041F400710160E4E7B9F1010F0AD02068F3
:102000004FEA1821016120463946324600F0EAF8CD
:102010000028E8D120685FFA88F10161002003B050
:10202000BDE8F083F0B581B0044600684069400720
:1020300024D415460E464F1C04E000BF20684069BA
:1020400040071BD42046FFF7EFFEA0B9002FF5D0C4
:10205000FEF7F0FE16B1401BB042EFD90020202160
:10206000206384F83D1084F83E00216C41F020018B
:10207000216484F83C00012001B0F0BD002001B0D3
:10208000F0BD00002DE9F047DDF820801D469146A7
:10209000824601F47F078EB25C1C00BFDAF80000B4
:1020A000B7F5803F14BF1830143000683040801BF3
:1020B000B0FA80F0400948451BD1002CEED0FEF765
:1020C000B9FE1DB1A0EB0800A842E7D900202021ED
:1020D000CAF830008AF83D108AF83E00DAF840105D
:1020E00041F02001CAF840108AF83C000120BDE808
:1020F000F0870020BDE8F0872DE9F0410446006834
:10210000984643698FB203EA0701B94202D1002021
:10211000BDE8F0814169490512D41646551C00BF3F
:1021200035B1FEF787FE16B3A0EB0800B0421ED80B
:10213000206841693940B942E9D041694905EFD584
:10214000016841F4007101606FF480614161002019
:102150002021206384F83D1084F83E00216C41F07A
:102160000401216484F83C000120BDE8F0810020D6
:102170002021206384F83D1084F83E00216C41F05A
:102180002001EEE770B515460E4604462068416909
:10219000490613D44169C90612D4FEF74BFE16B1A5
:1021A000401BB042F2D900202021206384F83D106A
:1021B00084F83E00206C40F020000CE0002070BD50
:1021C0006FF01001416100202021206384F83D1050
:1021D00084F83E00206C2064002084F83C0001203C
:1021E00070BD0000F0B581B004460068406900068B
:1021F00024D415460E464F1C04E000BF20684069F9
:1022000000061BD42046FFF70FFEA0B9002FF5D023
:10221000FEF710FE16B1401BB042EFD9002020217E
:10222000206384F83D1084F83E00216C41F02001C9
:10223000216484F83C00012001B0F0BD002001B011
:10224000F0BD000010B500F0D1F8682840F084809F
:102250000020002401F0DAFD20B146F21B50C0F648
:1022600000006DE0782002F027FB10B101243BA0B4
:1022700066E040A003F0BCFA782001F0E5FC10B164
:10228000022443A05CE047A003F0B2FAC82002F0A9
:10229000CDFA10B1032449A052E046F27E50C0F6B8
:1022A000000003F0A5FA00F0E5FD10B104244AA0F7
:1022B00046E046F23B50C0F6000003F099FA01F008
:1022C00043FC00F0B5FF28B146F2EF400524C0F60C
:1022D000000035E046F29B50C0F6000003F088FA9B
:1022E00040F2731000F09EFC28B146F2DE40062456
:1022F000C0F6000024E046F26950C0F6000003F08A
:1023000077FAC82000F0FCFE00281CBF072010BD93
:1023100002F062FB28B146F208500824C0F6000023
:102320000EE046F2B850C0F6000003F061FA01205A
:1023300002F08AF940B146F2CA400924C0F6000012
:1023400003F056FA204610BD46F25150C0F6000088
:1023500003F04EFA002480E700F0C4FB736574209C
:1023600073656E736F7273206661696C6564200DAE
:10237000000000007365742073656E736F727320C4
:102380007375636365737366756C200D00000000E0
:10239000736574204649464F206661696C65642008
:1023A0000D000000736574204649464F2073756325
:1023B0006365737366756C200D000000736574208F
:1023C00073616D706C652072617465206661696C03
:1023D0006564200D000000006C6F616420444D5066
:1023E000206661696C6564200D00000010B540F244
:1023F0005004C2F200040020A081C4E90000A060E3
:10240000682075210122234601F076FB207810BD5B
:10241000B0B582B080200DF107048DF80700682068
:102420006B210122234601F07BFB3C20FEF7FAFBE7
:10243000002568206B21012223468DF8075001F00A
:102440006FFB3C20FEF7EEFB68206B210122234648
:1024500001F066FB09208DF8070068201921012290
:10246000234601F05DFB04208DF8070068201A2147
:102470000122234601F054FB68201B210122234640
:102480008DF8075001F04CFB08208DF807006820FC
:102490001C210122234601F043FB02B0B0BD000025
:1024A0002DE9F04F91B005460DF11E00144606913E
:1024B0000DF13F0700900DF1260008A90BAA10AB03
:1024C000019700F0E5FCBDF81E00C00540F1BF809B
:1024D0000B980CAF0594D0CFFEF7A1F84FF0425106
:1024E000FDF7EAFE039505462046FEF798F84FF003
:1024F0004251FDF7E1FE81463046FEF790F84FF07D
:102500004251FDF7D9FE04463846FEF788F84FF0F1
:102510004251FDF7D1FE834648464FF04041FDF75A
:10252000CBFE59468046FDF7C7FE0646284629469B
:102530000495FDF769FE21468246FDF7BDFE314652
:10254000FDF762FE02F070FFFEF790F84AF2666354
:10255000C4F24C034FF06632FDF7C5FFFEF799F861
:102560000399086020462146FDF74EFE594606466F
:10257000FDF7A2FE074650464946FDF79DFE394647
:10258000FDF742FE074648464146FDF795FE0546E3
:1025900020463146FDF790FE01462846FDF786FEAF
:1025A0004FF07E51FDF730FE0146384602F0CEFF77
:1025B000FEF75CF84AF26668C4F24C084FF06632E7
:1025C0004346FDF790FFFEF764F806990860484619
:1025D0002146FDF771FE049F054638465946FDF732
:1025E0006BFE01462846FDF70FFE0146FDF70CFE87
:1025F000064638463946FDF75FFE054648464946D9
:10260000FDF75AFE01462846FDF7FEFD0546204629
:102610002146FDF751FE01462846FDF747FE0446D8
:1026200058465946FDF748FE01462046FDF73EFE56
:102630000146304602F08AFFFEF718F84FF0663286
:102640004346FDF750FFFEF724F80599086011B0E6
:10265000BDE8F08F83B041F21800C4F202000168B7
:1026600041F020010160016801F02001029102990E
:10267000016841F008010160016801F00801019161
:102680000199016841F004010160006800F0040054
:102690000090009803B0704780B540F2740045F692
:1026A0000001C2F20000C4F2000148F2A06200235F
:1026B0004FF4804CC0F2010280E80E00C0E9033CF8
:1026C000C0E90533C0E90733FEF7BAFB002818BF9D
:1026D000FEF7F8F980BD000080B540F2C80043F66F
:1026E0000001C2F20000C4F2010100234FF00C0C03
:1026F0004FF4E13280E80E00C0E90333C0E905C3BE
:10270000C361FFF7ADFA002818BFFEF7DBF980BD03
:10271000FEE700007047000000F0070080F00703AC
:10272000042B28BF04234FF0FF3C03380CFA03F3BB
:1027300038BF0020994381400CFA00F022EA0000E3
:10274000084370477047000081B040F20800C2F2B1
:102750000000006844F6D351C1F26201A0FB010100
:10276000480A009000BF0098411E00280091F9D14E
:1027700001B0704770470000B0B501380024B4EBD9
:10278000106F1CBF0120B0BD4EF21005CEF2000547
:1027900068604FF0FF300F2100F082F90720AC6035
:1027A00028602046B0BD000080B5FEF74BFE80BD1E
:1027B00070B590B006AC20462821FDF70DFD012034
:1027C00006900A904FF4E01000254FF48031022665
:1027D0000F9020460595CDE90355CDE90155CDE98A
:1027E0000715CDE90D61FEF7C5FF0F20CDE9010604
:1027F0004FF48060CDE9040501A802210395FEF79E
:10280000A5FE10B070BD00007047000080B5406AA2
:102810000021C185C184FFF739F980BD0168CA680C
:1028200022F49072CA604A6922F001024A61026B86
:10283000012A03D1CA6822F01002CA60202180F860
:102840003E1000210163704780B50168CA6822F01C
:102850004002CA60202180F83D10FFF7E1FA80BDF8
:1028600080B582B090F83E1022291ED18268B2F560
:10287000805F02D10169002940D0816AB2F5805F92
:1028800007D00AB9026922B10268526802F07F02D9
:1028900001E0026852680A700121826A1144816273
:1028A000C18D01390A04C18501D002B080BD016823
:1028B000CA6822F02002CA60CA6822F48072CA6024
:1028C0004A6922F001024A61202280F83E20026B10
:1028D000012A1BD100220263CB6823F01003CB60D6
:1028E0000B68DB0605D501920A68019249680191DF
:1028F0000199818DFFF7C8F802B080BD0168826A36
:1029000049686FF35F2111800221C6E7FFF720FAC3
:1029100002B080BD10B504460068D4E902C2236944
:10292000016921F4405111430161616943EA0C02DC
:102930001143C26841F20C639A431143C16041697B
:10294000A26921F44071114343F60002C4F201026E
:102950009042416102D0FEF7B9FE01E0FEF7C8FEE9
:102960006268192148439100B0FBF1F048F21F5111
:10297000C5F2EB11A0FB01235A096FF0630302FBC0
:102980000300322303EB0010A0FB0101F02303EA54
:102990005113206803EB0212C1F34311114481600B
:1029A00010BD000090F83D10212923D18168B1F5B8
:1029B000805F01D1016931B1016A02684B1C036279
:1029C0000978516007E0016A036831F8022B6FF360
:1029D0005F225A600162C18C01390A04C18418BFA8
:1029E00070470068C16821F08001C160C16841F092
:1029F0004001C160704700002DE9F04104460068C5
:102A000000680840884202D10020BDE8F0811D46E0
:102A10000E4690465F1C04E0206800683040B042DB
:102A2000F2D0002FF8D02DB1FEF704FAA0EB080089
:102A3000A842F1D92068C16821F4D071C160416910
:102A400021F001014161202084F83D0084F83E001E
:102A5000002084F83C000320BDE8F08180B540F2FE
:102A6000C800C2F20000FFF713F880BDFEE70000C7
:102A7000002848BF704700F01F01012202FA01F14F
:102A80004EF200124009CEF2000242F820107047C8
:102A90004EF60C50CEF200000068C0F302207047E2
:102AA0004EF6145300F00F02CEF2000309011A444F
:102AB00000F16043B0F1FF3FC8BF03F564421170FD
:102AC000704700004EF60C51CEF200010A684FF636
:102AD000FF031A4060F30A2242F0806040F0FD706C
:102AE000086070474EF60C50BFF34F8FCEF20000D7
:102AF0000168042201F4E061C0F2FA52114301605E
:102B0000BFF34F8F00BFFDE72DE9F04F83B06E4656
:102B1000054630460C4600F057FD45F6294B4FF070
:102B20000008C3F60F6B00270BE000BF012000FA7E
:102B300008F0074308F10108B8F1030F06F1040695
:102B400035D055F8280054F82810401A48BF4042A4
:102B5000FDF765FD4FF05E51FDF7AEFBD6F8009036
:102B6000824648460021FDF74CFD68B9504649466B
:102B7000FDF7D4FB0021CBF68071FDF745FB20F07B
:102B8000004059460EE000BF49F69A115046C3F680
:102B90009961FDF728FD0028C8D143F23331504632
:102BA000C3F67371FDF711FD0028C3D1BEE73846A7
:102BB00003B0BDE8F08F0000B0B504464078E5787A
:102BC000C0070BD040F26000C2F2000002682AB1D8
:102BD00005F00700411CC5F3C2009047607800076C
:102BE00009D540F26400C2F200000168002908BF64
:102BF000B0BDA8098847B0BD80B582B000280EBF1F
:102C00004FF0A33042F62000C3F63000019001AA35
:102C100040F69E20042101F0ADFE01F025FB02B03C
:102C200080BD00002DE9F04184B004464CF602203E
:102C3000C0F6E3100DF10605CDF80600682004216A
:102C40002A4601F097FEA3206FF03F018DF80600A1
:102C500014F0400608BF6FF05C016FF037026FF0B0
:102C60003D0308BF6FF05C0208BF6FF05C038DF896
:102C700007106FF03B018DF808208DF8093014F42F
:102C8000C07708BF6FF05C016FF033026FF039035B
:102C900008BF6FF05C0208BF6FF05C038DF80A108C
:102CA0004AF2A3318DF80B20ADF80D108DF80F000E
:102CB00040F6A7200A212A468DF80C3001F05AFE72
:102CC000202014F0030808BF6FF027008DF80600DD
:102CD00040F6B62001212A4601F04CFEC4F3401014
:102CE00000F08CF8CFB1E00504D49020B42180220C
:102CF000B02303E09B20B6218B22B2238DF807205E
:102D00008DF808108DF809000DF1060240F6A2209A
:102D100004218DF8063001F02DFEE0070AD1D820FD
:102D20008DF806000DF106024FF40B60012101F051
:102D300021FE27E0F8208DF806000DF106024FF481
:102D40000B60012101F016FE0720FA2100F06EFB56
:102D5000072000F037FB012000F054FB642000F056
:102D6000F7FB4FF4FA7000F009FC4EF20930C0F2A4
:102D7000CA20C82100F0E4FA282000F0F7FA0A205F
:102D800000F00AFBA0076FF0260058BF6FF0270085
:102D90008DF806000DF1060240F23D70012101F0B0
:102DA000E9FDC4F3800000F04FF8C4F30010FFF712
:102DB00023FF40F26C0144F00800C2F200010880D9
:102DC00001F052FA002E18BF0626002F40F27200C2
:102DD00018BF0636C2F2000014F0140F067002D0BD
:102DE000017810310170B8F1000F02D00178043180
:102DF0000170002004B0BDE8F081000080B584B00F
:102E000060B15D208DF80C0049F6B400C3F20D509E
:102E100002904AF6B820C8F6B3500BE0C7208DF8F0
:102E20000C0048F6B000CCF2C35002904AF6B8202D
:102E3000CAF6AA20019001AA4FF49760092101F077
:102E400099FD04B080BD000080B582B000280EBF9F
:102E50004FF08B304CF2C020CCF2C460019001AA3C
:102E600040F69820042101F085FD01F0FDF902B043
:102E700080BD000080B545F65E01C0F6000140F659
:102E8000F6304FF48062C82301F09EF880BD000048
:102E90002DE9F04F89B01446DDE9129288460021F1
:102EA000A9F8001040F27201C2F2000109780DF198
:102EB000040B8246084659461D4601F04FF920B1E1
:102EC0004FF0FF3009B0BDE8F08F40F26C07C2F25E
:102ED0000007388810F0140F50D09DF805109DF8A9
:102EE00004009DF8062009049DF8073041EA0060BF
:102EF00040EA0221194421609DF809109DF808203C
:102F0000090441EA02619DF80A209DF80B3041EA6C
:102F100002221A4462609DF80D209DF80C301204C4
:102F200042EA03629DF80E3000959DF80F5042EA88
:102F300003232B440914A3609DF811300014494366
:102F40009DF8105000FB00101B04111443EA0563A8
:102F500001FB01009DF8126019149DF8135001FB4C
:102F6000010043EA0626711900F17145B5F1007FB1
:102F7000E16005D901F078F9002005E000200AE0C1
:102F8000B9F8000040F48070B5F1007FA9F80000A6
:102F900096D8009D102039884A0629D540F00103B3
:102FA0001BF800201BF8033040F0030643EA02221E
:102FB00040F002031BF803301BF80660A8F800205D
:102FC00046EA032240F0040340F005061BF80330F4
:102FD0001BF80660A8F8022046EA0322A8F804209D
:102FE000B9F8002040F0060042F00802A9F80020DD
:102FF00011F4C07F18D03BF800200BEB000312BA8D
:103000005F88120CAAF800203ABA9B88120CAAF822
:1030100002201ABA120CAAF80420B9F800200630CF
:1030200042F07002A9F80020890702D05844FFF747
:10303000C3FDFDF7FFFE2860002009B0BDE8F08F5A
:10304000B0B584B004460DF1020000F045FE40F238
:103050006801C2F200010988BDF8020001F0030214
:103060004B0754F822204FF00C034FEAC03C48BFF6
:10307000524203EA51038806E358C1F3811048BF66
:103080005B4254F82000C90548BF40428CFB000158
:103090008CFB02E2800F8CFB035440EA810C900D04
:1030A0008DF80400900B8DF8050090098DF806004E
:1030B000A00D8DF80800A00B8DF80900A0098DF86F
:1030C0000A00880D8DF80C00880B4FEA9E73AD0F37
:1030D0008DF80D00880943EA820345EA84058DF8DE
:1030E0000E0001AA4FF425700C218DF807308DF8E1
:1030F0000B508DF80FC001F03DFC04B0B0BD0000D6
:1031000010B586B004464AF6BB70CDF6DF70059068
:103110004FF2AA10CDF6DF7004904FF2FE20CCF2F1
:10312000AB40C82C039015D8C820B0FBF4F001AA1E
:10313000013800BA000CADF8040040F2162002215C
:1031400001F018FC30B903AA40F6C1200C2101F0AF
:1031500011FC18B14FF0FF3006B010BD40F2700006
:10316000C2F200000480002006B010BD70B582B02D
:1031700040F26801C2F2000109884EF2093401F000
:10318000030250F822200C264B0748BF5242C0F2DF
:10319000CA2406EA5106C1F3811582FB042386592D
:1031A00050F82550880648BF7642C8054FEA93512B
:1031B00048BF6D42900F8DF80410990B40EA8300D0
:1031C0008DF8051099098DF806108DF8070001AAF1
:1031D0004FF47470042101F0CDFB68B986FB040143
:1031E000800F40EA810000BA019001AA4FF4757087
:1031F000042101F0BFFB18B14FF0FF3002B070BDE9
:1032000085FB0401800F40EA8100010E8DF8041057
:10321000010C8DF80510010A8DF806108DF80700D5
:1032200001AA4FF47670042101F0A4FB02B070BD36
:10323000B0B582B0054645F64301C0F60001C5F3BE
:10324000C10300F00300CC5C0A5C8DF8054045F634
:1032500040048DF80420C5F38112C0F60004895C97
:10326000205C8DF806108DF80000E05CA15C8DF804
:1032700001008DF8021001AA40F22640032101F05E
:1032800079FBA0BB6A4640F22A40032101F072FBA1
:1032900068BB76208DF8060045F23660ADF8040074
:1032A00044F22660ADF80000662069078DF8020040
:1032B00021D4A8062DD4E8050BD59DF806009DF86D
:1032C000021040F001008DF8060041F001008DF879
:1032D000020001AA4FF48860032101F04BFB30B9D2
:1032E0006A4640F23140032101F044FB00B34FF045
:1032F000FF3002B0B0BD9DF804009DF8001040F012
:1033000001008DF8040041F001008DF80000A806CE
:10331000D1D59DF805009DF8011040F001008DF811
:10332000050041F001008DF80100E805C5D4D0E7A3
:1033300040F26800C2F200000580002002B0B0BD7B
:1033400080B582B044F6D352C1F2620280FB020221
:10335000901100EBD270484300BA019001AA4FF4DB
:10336000AE70042101F006FB02B080BD80B582B0D2
:103370004CF6CD41CCF6CC41A0FB0101880840BA07
:10338000ADF806000DF106024FF4AD70022101F018
:10339000F1FA02B080BD000080B582B04CF6CD419C
:1033A000CCF6CC41A0FB0101880840BAADF806007C
:1033B0000DF106024FF4AC70022101F0DBFA02B00D
:1033C00080BD000080B582B000F001025242410889
:1033D00002F0300261F3820261F3C30240078DF80C
:1033E000072005D59DF8070040F003008DF8070081
:1033F0000DF107024FF4A470012101F0BBFA02B0F5
:1034000080BD000080B582B00428014628BF042199
:10341000002818BF481E8DF807000DF1070240F282
:103420004F10012101F0A6FA02B080BDF0B583B0C3
:103430000446B1F5C86F4FF0FF3055D814F00702BD
:1034400052D00846FDF7F4F80021C4F24831FCF7E9
:1034500065FF05460DF1070000F022FC9DF807000E
:1034600002384FEA7002072A4FF0FF303CD800269E
:10347000C4F240664FF08D41DFE802F01504360AD1
:10348000363636100026C4F2C0564FF08C410AE0A2
:103490000026C4F240564FF08B4104E00026C4F2EF
:1034A000C0464FF08A412846FCF706FF07462846EB
:1034B0003146FCF701FFFDF7C0F806463846FDF738
:1034C000BCF8010A8DF808108DF80900300A02A92D
:1034D0008D1C8DF80A00E0078DF80B6006D1A0075F
:1034E00013D4600720D4002003B0F0BD02AA4FF42B
:1034F000EA70022101F03EFA28BB4FF492700221DB
:103500002A4601F037FAF0B9E9E702AA4FF4EC7065
:10351000022101F02FFAB0B94FF4947002212A462B
:1035200001F028FA78B9DCE702AA4FF4EE70022124
:1035300001F020FA38B94FF4967002212A4601F0C2
:1035400019FA0028CFD04FF0FF3003B0F0BD0000D3
:1035500080B582B04CF6CD41CCF6CC41A0FB010148
:10356000880840BAADF806000DF106024FF4EF707E
:10357000022101F0FFF902B080BD000080B582B0E9
:103580004CF6CD41CCF6CC41A0FB0101880840BAF5
:10359000ADF806000DF106024FF4ED70022101F0C6
:1035A000E9F902B080BD000080B582B0019040F220
:1035B000C800C2F2000001A90122FF23FEF7CAFBE6
:1035C000019802B080BD00002DE9F04F83B040F2B9
:1035D0001801C2F2000149688246097802AB084628
:1035E0000D21042200F088FA10B103B0BDE8F08F7D
:1035F0009DF808009DF80B301C279DF8091007EA7C
:10360000D000C3F3011630449DF80A208DF8050060
:1036100007EAD100C3F3810108448DF8060007EAE8
:10362000D20003F0030141F27B4945F61D25084411
:103630004FF000080DF1050BC3F6AE69C3F68475B3
:1036400000268DF8070004E0C4F800800136032E40
:10365000CBD01BF806000AEB86040028F4D01BF838
:103660000600C4F80090013801060BF80600EDD002
:103670001BF80670484600BF2946FCF71DFE013FB7
:103680003906F9D120600BF80680DFE72DE9F04319
:1036900083B040F2180705460120C2F200070C462D
:1036A000ADF80000D7E9001016460078497D6B465A
:1036B000022200F035FA10B14FF0FF378CE1C8203C
:1036C000FDF7B0FA00208DF80000D7E900106B4636
:1036D0000078497C012200F023FA10B14FF0FF3747
:1036E0007AE1D7E900106B4600784979012200F0B1
:1036F00017FA10B14FF0FF376EE1D7E900106B46B3
:103700000078497D012200F00BFA10B14FF0FF372D
:1037100062E1D7E900106B460078897E012200F053
:10372000FFF910B14FF0FF3756E1D7E900106B46B3
:1037300000780979012200F0F3F910B14FF0FF375A
:103740004AE10C208DF80000D7E900106B460078A4
:103750000979012200F0E4F910B14FF0FF373BE1A5
:103760000F20FDF75FFAB86A3968407A7A688DF8F9
:103770000000107889786B46012200F0D1F910B171
:103780004FF0FF3728E1B86A3968007A7A688DF817
:103790000000107849786B46012200F0C1F910B1A1
:1037A0004FF0FF3718E1B86AD7E90012807A002E8F
:1037B00018BF40F0E0008DF80000107889796B4662
:1037C000012200F0ADF910B14FF0FF3704E126B14E
:1037D000B86AC07A60F01F0000E018208DF8000081
:1037E000D7E900106B460078C979012200F098F9FA
:1037F00010B14FF0FF37EFE016B1C820FDF712FA15
:1038000040208DF80000D7E900106B460078097958
:10381000012200F085F910B14FF0FF37DCE078208D
:103820008DF80000D7E900106B4600784979012235
:1038300000F076F910B14FF0FF37CDE03220FDF700
:10384000F1F900208DF80000D7E900106B460078F0
:103850004979012200F064F910B14FF0FF37BBE065
:10386000D7E900106B460078097B022200F044F98A
:1038700010B14FF0FF37AFE0BDF800004AF6AB21C2
:1038800000BA000CCAF6AA21A0FB0101C1F3C709C6
:103890000020B9F1000FC5E90000A860C4E90000EC
:1038A000A0603ED00026E846D7E900100C22007840
:1038B000497B434600F020F9002840F08B80BDF89A
:1038C0000000BDF80210BDF8042090FA80FCD4E995
:1038D000003009BA92FA82FEA26803EB2C4300EB97
:1038E000214002EB2E41C4E90030BDF80600A16082
:1038F000BDF8081090FA80FCBDF80A20D5E9003028
:1039000009BA92FA82FEAA6803EB2C4300EB21402D
:103910000136C5E90030F0B202EB2E418145A960C5
:10392000C2D895E841018322C117090441EA104138
:10393000000400230027FCF717FC4A460023FCF78D
:1039400013FC2860F017000440EA1641300483227B
:103950000023FCF709FC4A460023FCF705FC6860DD
:103960004FEAE870000440EA18414FEA0840832219
:103970000023FCF7F9FB4A460023FCF7F5FBA8609F
:10398000D4E90006A568C117490141EAD0614001A8
:103990004A460023FCF7E8FB2060F017400140EAAC
:1039A000D66170014A460023FCF7DEFB6060E81731
:1039B000400140EAD56168014A460023FCF7D4FB88
:1039C0004FF480310028C4BF0021CFF6FF710844B6
:1039D000A06001E04FF0FF37384603B0BDE8F08348
:1039E0002DE9F04F81B040F21802C2F20002526895
:1039F0000C4611780DF10106054608460D210322FB
:103A0000334600F079F820B10727384601B0BDE809
:103A1000F08F9DF801009DF802109DF8032000F042
:103A20001F008DF8010001F01F004EF254398DF88F
:103A3000020002F01F00C3F685794FF0000A00274C
:103A40008DF8030009E000BF012000FA0AF00743E7
:103A50000AF1010ABAF1030FD7D055F82A0054F839
:103A60002A10401A48BF4042FCF7D9FD4FF05E5182
:103A7000FCF722FC16F80A108046C9B116F80A00B5
:103A80000138010606F80A0020D016F80AB0002115
:103A9000C4F2C81108464946FCF70EFCABF1010B15
:103AA0005FEA0B610146F5D1002006F80A0010E03C
:103AB00000214046C4F22011FCF795FD0028C3D137
:103AC00000214046C4F2D22111E000BF0021C4F21F
:103AD000C8114046FCF722FC0021CBF68071FCF7B0
:103AE00093FB45F6294120F00040C3F60F61FCF737
:103AF0006CFD0028ACD1A7E780B584B094460A4697
:103B00000A210291410040F274000093C2F20000C9
:103B10000123CDF804C0FDF75FFA04B080BD0000BA
:103B200080B584B094460A460A210291410040F2D1
:103B300074000093C2F200000123CDF804C0FDF729
:103B4000B5FB04B080BD0000B0B540F20C04C2F279
:103B50000004204600F00EF80546E01C00F00AF8CC
:103B600045EAC005A01D00F005F845EA801080B2C6
:103B7000B0BD000090F900100029C4BF00207047BC
:103B800044BF0420704790F901100029C4BF0120F0
:103B9000704744BF0520704790F902000028C4BF59
:103BA000022070474FF0060008BF07207047000052
:103BB00088B0FDF755FCFEF7FBFDFEF74BFDFEF769
:103BC0008BFDFEF769FDFEF723FCFEF73BFB0DF1D5
:103BD0001C080DF118090DF1140A0FF2440B00BF77
:103BE000404649465246FEF75BFC0798FCF73EFD0F
:103BF000044606980D46FCF739FD064605980F4623
:103C0000FCF734FD0290584622462B46CDE900676A
:103C1000039100F069FF6420FDF704F8E0E700BFBE
:103C20007069746368203D20252E32662C20726FE7
:103C30006C6C203D20252E32662C20796177203D4A
:103C400020252E32660D0A00F0B581B040F218052D
:103C5000C2F2000595F8241019B10024204601B0E5
:103C6000F0BDA97AC1B100F0FE07287D3940CC1B18
:103C70002E7C297418BF4FF0FF34384318BF012041
:103C800000F006FF002FE9D000F0EEFA00281CBF7C
:103C90002E744FF0FF34E1E74FF0FF34DEE7000011
:103CA00040F21801C2F200014A7A032A84BF4FF0A1
:103CB000FF30704740F20243D200C1F2080323FAFA
:103CC00002F20270C97C002904BF0020704701780D
:103CD000490001700020704740F2180CC2F2000C3D
:103CE0009CF80930032B84BF4FF0FF3070474FF42E
:103CF0008042DFE803F00A02050841F69C7204E006
:103D00004FF4805201E04FF400629CF813100280DF
:103D1000002904BF00207047018849080180002065
:103D200070470000014640F21800C2F20000027C19
:103D300000200A707047000040F21801C2F2000132
:103D40000B7A0146032B07D8FA22DFE803F00C02B6
:103D5000070A4FF4FA7206E0002204E04FF47A7288
:103D600001E04FF4FA6200200A80704740F2180127
:103D7000C2F200010A7A032A84BF4FF0FF30704775
:103D80000021C4F20331DFE802F00F02060B00212C
:103D9000C4F2832108E043F23331C4F2032103E08B
:103DA00043F23331C4F283110160002070470000F8
:103DB00040F21801C2F20001C97A4B1E052B0146E0
:103DC00007D8BC22DFE803F00E0307090B0D6222BF
:103DD00008E0002206E02A2204E0142202E00A227F
:103DE00000E0052200200A807047000040F2180120
:103DF000C2F2000191F82420002A1CBF4FF0FF30CE
:103E00007047C9890180002070470000B0B582B0BA
:103E100040F218058020C2F200058DF80200D5E9B5
:103E200000100DF102030078497D0122FFF778FEB2
:103E300010B14FF0FF341EE06420FCF7F3FE0020C9
:103E40008DF80200D5E900100DF102030078497DDC
:103E50000122FFF765FE10B14FF0FF340BE0D5E90A
:103E600000100DF102030078497E0622FFF744FEA0
:103E700020B14FF0FF34204602B0B0BD9DF80720BE
:103E80009DF803009DF80510042303EA820261F304
:103E9000410200F00100111805D001292AD00229A1
:103EA0000ED1002027E0D5E900100DF102030078C3
:103EB000C9780122FFF720FE40B14FF0FF34DAE766
:103EC0002FA000F011FE4FF0FF34D4E79DF8020060
:103ED00000F00F0004280AD00028E2D146F27E400C
:103EE000C0F6000001F084FC4FF0FF34C3E72EA0C1
:103EF00001F07EFC0120E8744FF6FF70E881FF209E
:103F00002874A8740120287385F8220000204FF03F
:103F1000FF34C5E90500E8612884C5F8230085F869
:103F200027004FF4FA60AC6000F0D4FB0028A2D167
:103F3000022000F0D7FA10B14FF0FF349BE72A209F
:103F400000F03CFC10B14FF0FF3494E7322000F059
:103F50006DFC10B14FF0FF348DE70020FFF774FEC9
:103F600010B14FF0FF3486E7002000F0F7FA10B1EF
:103F70004FF0FF347FE70020002400F09DFC7AE73B
:103F8000556E737570706F7274656420736F6674AC
:103F9000776172652070726F6475637420726576E4
:103FA0002025642E0A00000048616C662073656E4F
:103FB0007369746976697479207061727420666FB0
:103FC000756E642E000000002DE9F04F87B00746A3
:103FD00000294FF0FF3052D08B4640F21801C2F258
:103FE000000191F82510002949D1CDE900324FB3E5
:103FF00000200DF10C0A4FF0000800BFA7EB0009EC
:10400000B9F1100FA8BF4FF010090BEB00041FFA15
:1040100089F51FFA88F630462946224600F0AAFCA8
:1040200010BB30462946524600F0ECF8E0B9204675
:1040300051462A46FCF7DBF820BBC8441FFA88F03B
:10404000B842DBD3019840F2180440BAC2F200042F
:10405000ADF80A00D4E900100DF10A030078497F99
:104060000222FFF75DFD20B14FF0FF3007B0BDE841
:10407000F08F012084F825000098E084002007B02C
:10408000BDE8F08F6FF0010007B0BDE8F08F0000D1
:10409000B0B582B0282802D94FF0FF344EE0044674
:1040A00048B1012000F056FB2020012C8DF80600BD
:1040B0001CD100201DE00020002400F04BFB40F24A
:1040C00018054FF4E060C2F20005ADF80600D5E92E
:1040D00000100DF106030078497D0222FFF720FD54
:1040E00000280CBF2C754FF0FF3427E0052C28D892
:1040F00001208DF80700052000F060FB9DF8070007
:1041000040F2180580010730C2F200058DF8070063
:10411000D5E900100DF106030078497D0222FFF772
:10412000FFFC10B14FF0FF3408E00820A872012016
:104130000024287500202C73FFF786FD204602B06E
:10414000B0BD142C04D802208DF807000A20D3E754
:1041500003208DF807001420CEE700002DE9F04180
:1041600082B040F21807C2F200070E4697F82410FA
:1041700005464FF0FF30D9B3B97AC9B3D7E900107B
:1041800014460078097B0DF106030222FFF7B4FC08
:1041900020BBBDF80600000490FA80F8A84502D2C2
:1041A000002020701AE078684188B8EB510F0CD9D4
:1041B00039680078C97C0DF106030122FFF79CFCE9
:1041C00060B99DF80600C00615D4D7E90010EAB220
:1041D0000078497B3346FFF78FFC20B14FF0FF306A
:1041E00002B0BDE8F081B8FBF5F001382070002086
:1041F00002B0BDE8F08100F037F86FF0010002B0C6
:10420000BDE8F08170B582B00D4601464FF0FF3039
:1042100042B340F21806C2F200061446B27A0AB35C
:1042200070684ABAC9B2438929449942ADF8062058
:1042300008D831680078C97E0DF106030222FFF725
:104240006FFC18B14FF0FF3002B070BDD6E900101E
:10425000EAB20078097E2346FFF74EFC002818BF1B
:104260004FF0FF3002B070BD10B582B040F21804BC
:10427000C2F20004A07A00B300208DF80700D4E950
:1042800000100DF107030078497C0122FFF748FC7C
:1042900098B9D4E900100DF107030078497901229B
:1042A000FFF73EFC48B9D4E900100DF10703007890
:1042B00009790122FFF734FC18B14FF0FF3002B04A
:1042C00010BD94F82400002845D00C208DF807007C
:1042D000D4E900100DF10703007809790122FFF7F6
:1042E0001FFC0028E9D13220FCF79CFCA07A0DF1DC
:1042F0000703C0076FF01F0008BF6FF03F008DF885
:104300000700D4E90010012200780979FFF708FCC2
:104310000028D2D1607C0DF10703002818BF0120CE
:1043200040008DF80700D4E9001001220078497C94
:10433000FFF7F6FB0028C0D100208DF80700D4E974
:1043400000100DF10703007849790122FFF7E8FB1F
:104350000028B2D145E004208DF80700D4E9001010
:104360000DF10703007809790122FFF7D9FB002836
:10437000A3D1A07AA17CC0074FF0600008BF402005
:10438000002918BF40208DF80700D4E900100DF176
:104390000703007809790122FFF7C2FB00288CD1BE
:1043A0003220FCF73FFC607C0DF10703002818BFAA
:1043B00001208DF80700D4E9001001220078497C23
:1043C000FFF7AEFB00287FF478AFD4E9001004F1CA
:1043D0001003007849790122FFF7A2FB00287FF43F
:1043E0006CAF002002B010BD2DE9F04F89B040F253
:1043F000180AC2F2000A9AF824900D46B9F1000F8B
:10440000064602D0002000F01FF902A8FFF794FC36
:104410000DF10B00FFF744FC01A8FFF7C9FC0DF1FB
:104420000600FFF7E3FC9AF80A800DF10A00FFF797
:1044300079FC0024304629460022FFF727F918B1FD
:104440000134012CF6D00224022C17D000270DF1E4
:10445000180B03AC584621460122FFF717F918B193
:104460000137012FF6D00227022F07D003A92846D3
:10447000FEF74AFB06A93046FFF7B2FA3046294656
:104480000022FFF703F94FF6FF70AAF80E00FF2095
:104490008AF810004FF0FF30CAF80800BDF8080095
:1044A00001218AF80C1000F015F99DF80B0000F0BE
:1044B00019F8BDF8040000F081F9BDF8060000F01D
:1044C000B5F9404600F0F8F99DF80A00FFF7BCFB8B
:1044D000B9F1000F02D0012000F0B6F8072009B0B2
:1044E000BDE8F08F10B582B040F21804C2F20004AB
:1044F000A17A41B302384FEA700107294FF0FF302B
:104500002AD8DFE801F0040629082929290A002011
:1045100004E0082002E0102000E018208DF80700D9
:10452000607A9DF80710B0EBD10F02D1002002B0E5
:1045300010BDD4E900100DF107030078C9790122FC
:10454000FFF7EEFA18B14FF0FF3002B010BD9DF842
:104550000700C0086072002002B010BDB0B582B084
:1045600040F21805C2F20005A97C814202D1002068
:1045700002B0B0BD0446D5E900100DF10703007884
:1045800009790122FFF7B8FA84B3002844D19DF8D5
:1045900007000DF1070300F0DF008DF80700D5E9F3
:1045A0000010012200780979FFF7BAFAA0BB0320B6
:1045B000FCF738FB95F8221095F823206FF07D006A
:1045C000002908BF02208DF807001AB140F0300022
:1045D0008DF80700D5E900100DF107030078C97DBB
:1045E0000122FFF79DFAB8B9AC74C0E7A0B99DF8F5
:1045F0000700A97A00F0DF0001F0010140EA411054
:104600008DF80700D5E900100DF10703007809794E
:104610000122FFF785FA18B14FF0FF3002B0B0BDAC
:104620000320FCF7FFFA95F8220095F823100246C4
:1046300000281CBF01226FF07F00D20100298DF8F5
:104640000720C3D1C6E7000070B582B040F218055C
:10465000C2F2000595F82410814201D1002436E011
:10466000F8B195F8250080B30020002400F010FA7E
:104670000020FFF773FFE88C00F0D8F868688DF829
:10468000074000780DF10703232101220126FFF7DF
:1046900047FA012085F8246000F0FAF9FFF7E4FDFD
:1046A00015E00020002400F0F3F9287C69688DF8FB
:1046B000070008780DF1070323210122FFF730FAE4
:1046C00085F82440FFF7D0FD01E04FF0FF3420468D
:1046D00002B070BD10B582B040F21804C2F20004FE
:1046E000A17A61B30146B0F57A7F4FF0FF3006DA68
:1046F000FA290CD0B1F5FA7F2AD108200AE0B1F5E9
:104700007A7F06D0B1F5FA6F22D1182002E000209E
:1047100000E010208DF80700207A9DF80710B0EB1C
:10472000D10F02D1002002B010BDD4E900100DF16C
:104730000703007889790122FFF7F2F918B14FF0E9
:10474000FF3002B010BD9DF80700C00820720020A5
:1047500002B010BDB0B582B040F21805C2F200053B
:1047600095F82310814225D0A97C0446002818BF63
:10477000302000298DF807001CBF40F002008DF8A2
:10478000070095F8220028B19DF8070040F080004E
:104790008DF80700D5E900100DF107030078C97DF9
:1047A0000122FFF7BDF918B14FF0FF3002B0B0BDE4
:1047B00085F82340002002B0B0BD000010B582B0E3
:1047C00040F21804C2F20004A17A21B3BC2801D33C
:1047D00001200FE0622801D302200BE02A2801D338
:1047E000032007E0142801D3042003E00A2834BF83
:1047F000062005208DF80700E07A9DF80710884212
:1048000010D0D4E900100DF1070300788978012257
:10481000FFF786F918B14FF0FF3002B010BD9DF8D8
:104820000700E072002002B010BD000070B582B039
:1048300040F21805C2F20005A97A04464FF0FF3095
:10484000B9B395F82410A1BB287D60B1601E80B279
:10485000272805D8E0B2FFF71BFC002002B070BD8E
:104860000020FFF715FC4FF47A76B4F57A7F28BF65
:104870003446042C98BF0424B6FBF4F00DF1070372
:1048800001388DF80700D5E9001001220078497839
:10489000FFF746F918B14FF0FF3002B070BD9DF838
:1048A00007000130B6FBF0F0E8814008FFF786FF13
:1048B000002002B070BD0000B0B582B0044610F018
:1048C000700F01D0012003E0002C0CBF402000201D
:1048D00040F21805C2F200058DF80700D5E9001076
:1048E0000DF107030078497D0122FFF719F920B186
:1048F0000020A8724FF0FF3439E09DF80700A106B0
:1049000000F0BF0028734FF0040020EA141058BFD5
:104910000230E1068DF8070005D49DF8070040F04D
:1049200001008DF80700200705D49DF8070040F02E
:1049300038008DF80700D5E900100DF10703007865
:10494000897D0122FFF7ECF820B10020A8724FF01A
:10495000FF340CE044F00800082802D00020FFF7E4
:10496000F9FEAC72002432202C75FCF75BF920466E
:1049700002B0B0BD70B582B00D4601464FF0FF30B9
:1049800042B340F21806C2F200061446B27A0AB3E5
:1049900070684ABAC9B2438929449942ADF80620E1
:1049A00008D831680078C97E0DF106030222FFF7AE
:1049B000B7F818B14FF0FF3002B070BDD6E9001063
:1049C000EAB20078097E2346FFF7AAF8002818BF4C
:1049D0004FF0FF3002B070BD70B588B005A802A9D5
:1049E000FFF702FD03283ED101A8FFF7BFF9DDE97B
:1049F0000506079CFBF713FE019D01462846FBF7C1
:104A00005BFCFBF71AFE05903046FBF708FE0146FB
:104A10002846FBF751FCFBF710FE06902046FBF7FB
:104A2000FEFD01462846FBF747FCFBF706FE079014
:104A300005A8FEF79BFB0DF10200FFF74DF902AB55
:104A4000BDF802000ECB4143029102FB00F1584336
:104A5000049002A80391FEF7F3FA04A000F0C8FE48
:104A6000012008B070BD002008B070BD736574747B
:104A7000696E67206269617320737563636573662D
:104A8000756C6C79202E2E2E2E2E2E0D000000001F
:104A900010B582B040F21804C2F2000494F8241059
:104AA00089B1002818BF012040008DF80700D4E923
:104AB00000100DF107030078497C0122FFF730F860
:104AC00060B102B010BDA17A0029FAD010B1617CAA
:104AD0000029F6D1002818BF0120E6E79DF807005D
:104AE000607402B010BD00000FB4054B10B503A9EF
:104AF000044A029800F000F910BC5DF814FB0000B5
:104B0000A9350008000000204100080218BF042059
:104B10000A0E18BF40F001004FF07F4232EA010157
:104B200008BF40F00200012808BF0520704701219E
:104B3000FBF76ABEFBF768BB00210846FBF7EEBB3C
:104B40006FF05E010807FBF75FBE02E008C8121FA6
:104B500008C1002AFAD170477047002001E001C166
:104B6000121F002AFBD170470149086070470000FE
:104B7000040000202DE9FF5F82B00021DDE9043050
:104B8000020DDDF840B0034318D044F61050A2F2F5
:104B9000FF3242431514119801281FD0A5EB0B00DA
:104BA000401C5FEA000A4FF000064E4FDFF83891D4
:104BB000B046504615D5CAF1000413E011980124FF
:104BC0004AA3012801D16FEA0B010298119AC0E9AA
:104BD0000031C0E9024206B0BDE8F09FCBF1000011
:104BE000DFE704460021404A491842EB0450CDE972
:104BF000001012E0E00707D032463B4640464946E7
:104C0000FBF771FC8046894632463B461046194602
:104C1000FBF769FC06460F466410002CEAD1DDE97B
:104C20000401DDE90023BAF1000F06DAFBF75BFCB3
:104C300042464B46FBF757FC05E0FBF74EFE42466B
:104C40004B46FBF74AFE04460E460022284BFBF774
:104C5000CBFE03D84FF0FF30014607E00022254B82
:104C600020463146FBF798FBFBF7A6FE102409E02F
:104C7000002C0ADB0A220023FBF73DFD039B3032A8
:104C80001A55641E50EA0102F2D1641C039AC4F161
:104C900011031444119A012A03D0012208430DD1B3
:104CA0000AE0084304D000204FF0110B119072E786
:104CB000A3EB0B056D1E0DE05B4504DD4FF000021C
:104CC00005F1010504E003DA4FF00002A5F101054A
:104CD000002AECD002981199C0E90231C0E90045E0
:104CE00079E70000000014400000F03F30000000B1
:104CF0000000F0430000E03F2DE9FF4F95B09B46D8
:104D00008946064600250FE2252877D1002427464C
:104D1000F84A0121059400E0044316F8013F203BC6
:104D200001FA03F01042F7D130782A2811D06FF041
:104D30002F033078A0F13002092A16D8059A44F0E2
:104D4000020402EB820203EB42021044761C05903F
:104D5000EFE759F8042B0592002A03DA504244F495
:104D60000054059044F00204761C30782E2816D1A9
:104D700016F8010F44F004042A280DD06FF02F021A
:104D80003078A0F13003092B09D807EB870302EB39
:104D90004303C718761CF3E759F8047B761C307878
:104DA0006C280FD006DC4C2817D068280DD06A2854
:104DB00014D104E0742810D07A280FD10DE044F407
:104DC00000140AE044F4801401E044F440147278C2
:104DD000824202D104F58014761C761C3078662855
:104DE0000BD013DC582877D009DC002875D0452873
:104DF000F6D04628F4D047281AD19DE118E0632860
:104E000035D0642879D0652812D195E1702873D007
:104E100008DC6728F1D069286FD06E280DD06F2884
:104E200006D1B5E073282CD0752875D0782874D0B9
:104E30005A46179990476D1C75E1C4F30250022839
:104E400009D003280DD0D9F8001004280DD00D602A
:104E500009F1040967E1D9F80010EA17C1E9005225
:104E6000F6E7D9F800100D80F2E70D70F0E719F8B9
:104E7000041B8DF8001000208DF80100EA46012087
:104E800003E059F804AB4FF0FF3061074FF0000129
:104E900002D40DE008F101018846B9420FDA8045DD
:104EA000F8DB1AF808100029F4D108E008F1010134
:104EB00088468142FADB1AF808100029F6D10598D5
:104EC0005B46A0EB080721463846179A00F094FA93
:104ED000284400EB080507E04DE029E10DE01AF851
:104EE000010B5A4617999047B8F10108F7D25B4673
:104EF00021463846179A13E142E00A220092C4F391
:104F000002524FF0000A022A08D059F804CB032AB3
:104F10004FEAEC710AD00DE029E02AE009F107011F
:104F200021F00702F2E802C1914609E00FFA8CFC79
:104F30004FEAEC71042A03D14FFA8CFC4FEAEC7172
:104F4000002907DA0A460021DCF1000C61EB0201BE
:104F50002D2202E0220504D52B228DF80420012207
:104F600003E0E20701D02022F7E7904659E00A214A
:104F700002E010220DE010214FF0000A00910BE03A
:104F800010224FF0000A44F004040827009203E0C6
:104F900008224FF0000A0092C4F30252022A05D000
:104FA00059F804CB0021032A08D009E009F10701D0
:104FB00021F00702F2E802C1914605E01FFA8CFCDD
:104FC000042A01D10CF0FF0C4FF00008220728D56D
:104FD000702806D0009B83F0100353EA0A0305D023
:104FE0000EE040228DF80420012208E05CEA010274
:104FF00006D030228DF804208DF80500022290465C
:10500000009B83F0080353EA0A030AD15CEA010219
:1050100001D1620705D530228DF804204FF0010838
:105020007F1E582804D034A003900EA802900DE0F3
:1050300036A0F9E753466046009AFBF75CFB8446CE
:105040000398825C0298401E029002705CEA0100A4
:10505000F0D1029806A9081A00F1200A600702D5CB
:1050600024F4803400E00127574502DDA7EB0A0055
:1050700000E0002000EB0A01009005984144401A2E
:105080000590E00306D45B462146179A059800F088
:10509000B3F90544002706E001A85A46C05D1799F8
:1050A00090476D1C7F1C4745F6DBE0030CD55B4643
:1050B0002146179A059800F09FF9054404E0302036
:1050C0005A46179990476D1C0099481E0090002978
:1050D000F5DC08E0029802995A460078491C0291D2
:1050E000179990476D1CBAF10001AAF1010AF1DC91
:1050F00065E100000928010030313233343536379C
:105100003839616263646566000000003031323313
:1051100034353637383941424344454600000000B3
:1051200000F058F90544761C307800287FF4ECAD87
:1051300019B02846BDE8F08F620700D4062709F1B0
:10514000070222F0070CFCE80223E14603F00048C6
:105150005FEA080C02D00FF2702C0DE05FEA045CED
:1051600002D50FF2682C07E05FEAC47C02D00FF290
:10517000602C01E0AFF2700C4FF0FF3823F00043D9
:10518000CDF850C065280CD006DC452809D046284B
:105190001DD047283DD13DE0662818D067287ED134
:1051A00038E00021112F01DB112000E0781CCDE94F
:1051B000000106A90EA8FFF7DDFCDDE90F010E9A3C
:1051C00003910021009207F1010A04914DE04FF094
:1051D00000400097CDE9011006A90EA8FFF7CAFC10
:1051E000DDE90F0203920E9B11990022DDF80CA05D
:1051F0000093049211B9791C00EB010AB7EB0A0085
:1052000004D4C0F1FF3007F1010A0490AAEB0700B3
:10521000019044E0012F00DA01270021112F01DD68
:10522000112000E03846CDE9000106A90EA8FFF7DD
:10523000A1FCDDE90F010E9A039100210491009277
:10524000BA4621070CD40399514500DA8A46BAF1CF
:10525000010F05DD009AAAF10101515C302908D047
:10526000B84202DA10F1040F06DA0121CDE901108B
:1052700015E0AAF10101E9E7002805DC04990144E1
:105280000491AAEB000102E0411C514500DD8A4671
:105290000499401A401C01904FF0004002902007F2
:1052A00004D40198504501DBCDF8048000208DF82E
:1052B0004F0002980DF14F07B0F1004F25D02B2081
:1052C0000E9002984FF0020800280CDA404202903B
:1052D0002D200E9007E00A210298FBF7F6F93031F5
:1052E000029007F8011DB8F10001A8F10108F2DCF5
:1052F00002980028EFD1791E0E980870307800F0DF
:10530000200040F0450007F8020D12A8C01B00F174
:1053100007081498007800B1012000EB0A010198F9
:1053200001EBE07105984144401A401E0590E003EE
:1053300006D45B462146179A059800F05DF80544AF
:105340001498007818B15A46179990476D1CE003DD
:1053500024D55B462146179A059800F04DF8054480
:105360001CE00498002807DBDDE90301884203DD27
:105370000098405C179901E0179930205A469047F1
:10538000049805F10105401C04900198401E01900D
:1053900004D12E205A46179990476D1CBAF100018E
:1053A000AAF1010ADDDC05E017F8010B5A4617994E
:1053B00090476D1CB8F10001A8F10108F4DC5B46D0
:1053C0002146179A0598ABE62D0000002B0000003F
:1053D000200000002DE9F041044600251E46174636
:1053E000880404D405E039462020B0476D1C641EB3
:1053F000F9D52846BDE8F0812DE9F04104460025A5
:105400001E469046C80301D5302700E020278804B7
:1054100004D505E041463846B0476D1C641EF9D5F9
:105420002846BDE8F08100002DE9F04104464FF028
:105430000E4000EB4400B0F1506F204655D84FF0BD
:10544000FC41B1EB440F1CD224F000404FF07E51E0
:10545000FAF72FFF4FF0FF31FBF7D6F9054600F0C2
:10546000D9F914F0004F1DBF2F4F304E80F000408F
:105470002F4F08BF2F4E4FF04041FAF71DFF044653
:1054800005E000273E460146FAF716FF05462A4981
:105490002846FAF711FF2949FAF7B6FE2946FAF726
:1054A0000BFF2749FAF7B0FE2946FAF705FF254911
:1054B000FAF7AAFE2946FAF7FFFE2349FAF7A4FEF7
:1054C000804629462046FAF7F7FE4146FAF7F4FEF1
:1054D000054631462046FAF797FE2946FAF794FE2C
:1054E0003946BDE8F041FAF78FBE4FF0E441B1EB29
:1054F000440F08D9FFF708FB042808BFFFF720FB7B
:105500002046BDE8F0814FF07F41B1EB440F03D25C
:10551000BDE8F041FFF70BBB0120FFF725FBBDE81D
:10552000F041FFF709BB00000000C9BF22AAFDB986
:105530000000C93F22AAFD3924FE1C3DC78AD83C81
:105540001E67383D1B93993DAFAA2A3E2DE9F047CF
:105550004FF0684202EB40030C460546B3F1654F3D
:105560003CBF02EB4102B2F1654F80F0CD8000BF3D
:10557000C0F3C752C1F3C753D21A1B2A06DD10F07D
:10558000004F14BF87488848BDE8F08712F11A0F12
:105590002FDA11F0004F06D010F0004F0CBF8348F7
:1055A0008348BDE8F08721462846FAF7B7FE06464D
:1055B000FFF7AAFA042808BFFFF7C2FA2846FFF748
:1055C000A3FA05462046FFF79FFA04463046FFF748
:1055D0009BFA042D18BF052D08D1042C18BF052CEB
:1055E00004D1002804BF0220FFF7BEFA3046BDE810
:1055F000F0874200B2EB410F25D910F0004F19BFE0
:105600006C4F6D4E6D4F6E4E224685F00044154630
:105610000A4680F0004110460A1A5200B2F1807F1B
:105620003ED248406749DFF8A0A110F0004F18D0E3
:105630004FF03F483846FAF739FE074651463046A4
:10564000FAF734FE17E011F0004F04BF002637468A
:10565000E2D010F0004F19BF5C4F5D4E5D4F5E4EC3
:10566000DAE74FF07C583846FAF7CEFD0746514648
:105670003046FAF7C9FD064641462846FAF71CFEB1
:105680002146FAF7C1FD824621464046FAF714FE4C
:105690002946FAF70EFE5146FAF740FE044604E0AA
:1056A00021462846FAF73AFE04460146FAF704FE78
:1056B00080464A49FAF700FE4949FAF7A5FD4146F6
:1056C000FAF7FAFD4749FAF79FFD4146FAF7F4FD6C
:1056D0004549FAF799FD4146FAF7EEFD4349FAF7D5
:1056E00093FD054641462046FAF7E6FD2946FAF7BE
:1056F000E3FD3146FAF788FD2146FAF785FD394684
:10570000BDE8F047FAF780BD4FF07F42B2EB400FA3
:1057100028BFB2EB410F03D2BDE8F047FFF70ABA4A
:1057200040EA01035B0008BF44F0FF410AD0B2EB3E
:10573000400F08BFB2EB410F06D125F0804024F0A6
:10574000804105460C4613E7B2EB400F12BF5FEAFB
:10575000410345F0FF4004F000413FF409AFB2EBD4
:10576000410F12BF5FEA400205F0004044F0FF41E4
:105770003FF4FEAE4A0092EA40033FF5F9AE002A3C
:10578000ACBF4FF09F464FF03E563146FAF794FDBE
:10579000054631462046FAF78FFD04462846214645
:1057A000E6E60000DB0FC9BFDB0FC93FDB0F494056
:1057B000DB0F49C00000C9BF22AAFDB90000C93FE4
:1057C00022AAFD390060ED3EC30ACE37000049C071
:1057D00022AA7DBA0000494022AA7D3A2DAD65BDBE
:1057E0008FB8D53D0FB511BE61C84C3EA8AAAABE60
:1057F00010B5044601E0FDF7D7FE14F8010B04498B
:105800000028F8D1BDE810400A20FDF7CDBE000009
:105810000000002070B50546FBF720F9044620F093
:105820000040C0F1FF40C00F08D025F00040C0F19B
:10583000FF40C00F04BF0120FFF796F9204670BD5E
:105840000CC92C4CCD6C00000000000000000102CF
:105850000304060708090000000001020304000019
:10586000700000000024000000020003000000653A
:105870000054FFEF0000FA80000B12820001030CBD
:1058800030C30E8C8CE914D5400213710F8E38830F
:10589000F8833000F883258EF8833000F883FFFF0B
:1058A000FFFF0FFEA9D6240004001A8279A1000090
:1058B000003CFFFF00000010000038836FA2003E94
:1058C00003304000000002CAE3093E8000002000CF
:1058D0000000000000004000000060000000000C1C
:1058E0000000000C186E000006920A16C0DFFFFFD1
:1058F0000256FD8CD377FFE1C496E0C5BEAA000036
:105900000000FFFF0B2B000016570000035940005A
:10591000000000001DFA00026C1D000000003FFFA7
:10592000DFEB003EB3B6000D227800002F3C0000F4
:105930000000001942B5000039A20000B365D90E7D
:105940009FC91DCF4C3430000000500000003BB612
:105950007AE80064000000C80000000000001000A9
:1059600000001000FA921000225E000D229F00013C
:10597000000000320000FF46000063D40000100069
:10598000000004D6000004CC000004CC000000009D
:10599000107200000040000000000000000000063F
:1059A0000002000500070000000000640000000085
:1059B0000000000000050005006400200000000059
:1059C0000000000000000000400000000300000094
:1059D0000032F8980000FF650000830F0000FF9B75
:1059E000FC000000000000000000000000000000BB
:1059F00000000000000000000000000000000000A7
:105A00000000000000000000000000001000400046
:105A10000000000000060000B26A00020000000161
:105A2000FB830068000000D9FC007CF1FF830000CC
:105A3000000000650000006403E800640028000026
:105A400000250000000016A000000000100000006B
:105A50001000002F0000000001F4000010000028DA
:105A60000000FFFF4581FFFFFA7200000000000008
:105A70000000004400050005BAC6004778A20000F7
:105A800000010000000000000600000000140000FB
:105A9000254D002F706D000005AE000C02D00000F7
:105AA0000000000000000000000000000000001BDB
:105AB0000000000000000000000000000000006482
:105AC00000000008000000000000000000000000CE
:105AD00000000000000000000000000000000000C6
:105AE00000000000000000000000000000000000B6
:105AF00000000000000000000000000000000000A6
:105B00000000000000000000000000000000000095
:105B10000000000000000000000000000000001B6A
:105B200000000000000000000000000E000E000059
:105B30000AC70004000000000032FFFFFF9C0000C5
:105B40000B2B000000020000000100000064FFE5D4
:105B50000000000000000000000000000000000045
:105B60000001000000000001000000000000000132
:105B700080000001800000018000002426D3000086
:105B8000000000000000000600100096003C00002D
:105B900000000000000000000000000000000C0AEF
:105BA0004E68CDCF770950166759C619CE820000CE
:105BB00000000000000000000000000000000000E5
:105BC00000000000000017D7840003000000000060
:105BD000000000000000C7938F9D1E1B1C190000D1
:105BE00000000000000000000000000000000000B5
:105BF00000000000000002031885000040000000C3
:105C0000000300000003000000000000000040004E
:105C10000000000000000000000000000000000084
:105C20000000000000000000000000000000000074
:105C30000000000000000000000000000000000064
:105C40000000677DDF7E72902E554CF6E6880000DE
:105C50000000000000000000000000000000D8DC90
:105C6000B4B8B0D8B9ABF3F8FAB3B7BB8E9EAEF107
:105C700032F51BF1B4B8B08097F1A9DFDFDFAADFFE
:105C8000DFDFF2AAC5CDC7A90CC92C97F1A98926D7
:105C90004666B28999A92D557DB0B08AA896365628
:105CA00076F1BAA3B4B280C0B8A89711B28398BAFB
:105CB000A3F0240844106418B2B9B49883F1A3295E
:105CC000557DBAB5B1A38393F0002850F5B2B6AABA
:105CD000839328547CF1B9A3829361BAA2DADEDF00
:105CE000DB819AB9AEF5606870F1DABAA2DFD9BA91
:105CF000A2FAB9A38292DB31BAA2D9BAA2F8DF859F
:105D0000A4D0C1BBAD83C2C5C7B8A2DFDFDFBAA0D4
:105D1000DFDFDFD8D8F1B8AAB38DB4980D355DB206
:105D2000B6BAAF8C96198F9FA70E161EB49AB8AA52
:105D3000872C547CBAA4B08AB691325676B2849439
:105D4000A4C808CDD8B8B4B0F19982A82D557D98D3
:105D5000A80E161EA22C547C92A4F02C5078F1842C
:105D6000A898C4CDFCD80DDBA8FC2DF3D9BAA6F8B1
:105D7000DABAA6DED8BAB2B68696A6D0F3C841DAA9
:105D8000A6C8F8D8B0B4B882A892F52C548898F177
:105D900035D9F418D8F1A2D0F8F9A884D9C7DFF81A
:105DA000F883C5DADF69DF83C1D8F40114F1A88272
:105DB0004EA884F311D182F5D992289788F109F47D
:105DC0001C1CD884A8F3C0F9D1D99782F129F40D0D
:105DD000D8F3F9F9D1D982F4C203D8DEDF1AD8F1A9
:105DE000A2FAF9A88498D9C7DFF8F8F883C7DADFF0
:105DF00069DFF883C3D8F40114F198A8822EA8842F
:105E0000F311D182F5D992509788F109F41CD88406
:105E1000A8F3C0F8F9D1D99782F149F40DD8F3F974
:105E2000F9D1D982F4C403D8DEDFD8F1AD8898CC9B
:105E3000A809F9D98292A8F57CF1883ACF944A6EE4
:105E400098DB6931DAADF2DEF9D88795A8F221D175
:105E5000DAA5F9F417D9F1AE8ED0C0C3AE82C684EC
:105E6000C3A88595C8A588F2C0F1F4010EF18E9EF5
:105E7000A8C63E56F554F18872F40115F19845858F
:105E80006EF58E9E0488F142985A8E9E068869F4BB
:105E9000011CF1981E1108D0F504F11E970202981A
:105EA0003625DBF9D985A5F3C1DA85A5F3DFD885D9
:105EB00095A8F309DAA5FAD88292A8F578F1881A9C
:105EC000849F26889821DAF41DF3D8879F39D1AFB3
:105ED000D9DFDFFBF9F40CF3D8FAD0F8DAF9F9D00E
:105EE000DFD9F9D8F40BD8F3879F39D1AFD9DFDFE9
:105EF000F41DF3D8FAFCA869F9F9AFD0DADEFAD9C3
:105F0000F88F9FA8F1CCF398DB45D9AFDFD0F8D854
:105F1000F18F9FA8CAF38809DAAF8FCBF8D8F2AD1A
:105F2000978D0CD9A5DFF9BAA6F3FAF412F2D89539
:105F30000DD1D9BAA6F3FADAA5F2C1BAA6F3DFD821
:105F4000F1BAB2B68696A6D0CAF349DAA6CBF8D88B
:105F5000B0B4B8D8AD84F2C0DFF18FCBC3A8B2B66D
:105F60008696C8C1CBC3F3B0B48898A821DB718DE5
:105F70009D71859521D9ADF2FAD88597A828D9F4D5
:105F800008D8F28D29DAF405D9F285A4C2F2D8A88E
:105F90008D9401D1D9F411F2D88721D8F40AD8F21E
:105FA0008498A8C801D1D9F411D8F3A4C8BBAFD044
:105FB000F2DEF8F8F8F8F8F8F8F8D8F1B8F6B5B96C
:105FC000B08A95A3DE3CA3D9F8D85CA3D9F8D87CD5
:105FD000A3D9F8D8F8F9D1A5D9DFDAFAD8B1853044
:105FE000F7D9DED8F830ADDADED8F2B48C99A32D2B
:105FF000557DA083DFDFDFB591A0F629D9FBD8A0BE
:10600000FC29D9FAD8A0D051D9F8D8FC51D9F9D85F
:1060100079D9FBD8A0D0FC79D9FAD8A1F9F9F9F946
:10602000F9A0DADFDFDFD8A1F8F8F8F8F8ACDEF88D
:10603000ADDE8393AC2C547CF1A8DFDFDFF69D2C22
:10604000DAA0DFD9FADB2DF8D8A850DAA0D0DED953
:10605000D0F8F8F8DB55F8D8A878DAA0D0DFD9D096
:10606000FAF8F8F8F8DB7DF8D89CA88CF530DB3826
:10607000D9D0DEDFA0D0DEDFD8A848DB58D9DFD00A
:10608000DEA0DFD0DED8A868DB70D9DFDFA0DFDFDD
:10609000D8F1A888902C547C98A8D05C38D1DAF23A
:1060A000AE8CDFF9D8B087A8C1C1B188A8C6F9F90C
:1060B000DA36D8A8F9DA36D8A8F9DA36D8A8F9DA6B
:1060C00036D8A8F9DA36D8F78D9DADF818DAF2AEE1
:1060D000DFD8F7ADFA30D9A4DEF9D8F2AEDEFAF99E
:1060E00083A7D9C3C5C7F1889BA77AADF7DEDFA424
:1060F000F8849408A797F300AEF29819A488C6A371
:106100009488F632DFF28393DB09D9F2AADFD8D87C
:10611000AEF8F9D1DAF3A4DEA7F1889B7AD8F3843C
:1061200094AE19F9DAAAF1DFD8A881C0C3C5C7A314
:106130009283F628ADDED9F8D8A350ADD9F8D8A30C
:1061400078ADD9F8D8F8F9D1A1DADEC3C5C7D8A19E
:106150008194F818F2B089ACC3C5C7F1D8B8B4B00F
:106160009786A8319B069907AB9728889BF00C204F
:106170001440B0B4B8F0A88A9A285078B79BA829E0
:106180005179247059446938644831F1BBAB8800B7
:106190002C547CF0B38BB8A804285078F1B088B4A4
:1061A0009726A85998BBABB38B02264666B0B8F0C9
:1061B0008A9CA82951798B2951798A2470598B207E
:1061C00058718A4469388B3940688A6448318B3009
:1061D000496088F1AC002C547CF08CA804285078DD
:1061E000F1889726A85998AC8C02264666F0899CBF
:1061F000A8295179247059446938644831A988091B
:10620000205970AB11384069A8193148608CA83CFE
:10621000415C207C00F187981986A86E767EA9994A
:10622000882D557DD8B1B5B9A3DFDFDFAED0DFAAA9
:10623000D0DEF2ABF8F9D9B087C4AAF1DFDFBBAF8B
:10624000DFDFB9D8B1F1A3978E60DFB084F2C8F870
:10625000F9D9DED89385F14AB183A308B5839A08AA
:1062600010B79F10D8F1B0BAAEB08AC2B2B68E9E47
:10627000F1FBD9F41DD8F9D90CF1D8F8F8AD61D9F2
:10628000AEFBD8F40CF1D8F8F8AD19D9AEFBDFD8D5
:10629000F416F1D8F8AD8D61D9F4F4ACF59C9C8D71
:1062A000DF2BBAB6AEFAF8F40BD8F1AED0F8AD5198
:1062B000DAAEFAF8F1D8B9B1B6A3839C08B9B183C4
:1062C0009AB5AAC0FD3083B79F10B58B93F2020236
:1062D000D1ABDADED8F1B080BAABC0C3B284C1C3EF
:1062E000D8B1B9F38BA391B609B4D9ABDEB0879C12
:1062F000B9A3DDF1B38B8B8B8B8BB087A3A3A3A347
:10630000B28BB69BF2A3A3A3A3A3A3A3A3A3A3F1BE
:10631000B087B59AA3F39BA3A3DCBAACDFB9A3A360
:10632000A3A3A3A3A3A3A3A3A3A3A3A3A3A3D8D8D3
:10633000D8BBB3B7F1AAF9DAFFD9809AAA28B480FA
:1063400098A720B79787A86688F07951F1902C8795
:106350000CA781976293F07171608594012951793E
:1063600090A5F1284C6C870C95188578A38390280C
:106370004C6C886CD8F3A28200F210A8921980A20B
:10638000F2D926D8F188A84DD948D896A83980D90D
:106390003CD89580A839A68698D92CDA87A72CD81E
:1063A000A8899519A980D938D8A88939A980DA3C53
:1063B000D8A82EA83990D90CD8A8953198D90CD83E
:1063C000A809D9FFD801DAFFD89539A9DA26FFD86C
:1063D00090A80D8999A810809821DA2ED88999A8BB
:1063E0003180DA2ED8A886963180DA2ED8A8873167
:1063F00080DA2ED8A88292F34180F1D92ED8A882D3
:10640000F31980F1D92ED882ACF3C0A28022F1A674
:106410002EA72EA92298A829DAACDEFFD8A2F22A4C
:10642000F1A92E8292A8F23180A696F1D900AC8C07
:106430009C0C30ACDED0DEFFD88C9CACD010ACDE37
:106440008092A2F24C82A8F1CAF235F19688A6D9C0
:1064500000D8F1FF6800000476005401F7FD000148
:1064600075191A0C6A231B1C00001F207274433B11
:106470004138393A006B6C376F06246D6E7050727C
:106480006F64756374204944207265616420617390
:10649000203020696E646963617465732064657679
:1064A0006963652069732065697468657220696E27
:1064B000636F6D70617469626C65206F7220616ECC
:1064C000204D5055333035302E00656E61626C655D
:1064D00020444D50206661696C6564200D00736531
:1064E0007420444D50206661696C6564200D007312
:1064F0006574206F7269656E746174696F6E206671
:1065000061696C6564200D0073656C662074657349
:1065100074206661696C6564200D00696E69746938
:10652000616C697A65204D50553630353020737571
:10653000636365737366756C200D006C6F61642016
:10654000444D50207375636365737366756C200DDD
:1065500000656E61626C6520444D50207375636305
:1065600065737366756C200D0073657420444D501F
:10657000207375636365737366756C200D007365B6
:10658000742073616D706C65207261746520737521
:10659000636365737366756C200D00736574206F9B
:1065A0007269656E746174696F6E2073756363657B
:1065B000737366756C200D0073656C66207465736B
:1065C00074207375636365737366756C200D0000CA
:1065D00083000000000800000001001832000500E0
:1065E000000020410000D242295C0F3E9A99993E5A
:1065F0003333733F295C0F3E18660008000000200B
:10660000500000004A4B0008686600085000002057
:10661000C00400005A4B0008000000000000000009
:106620000024F4000100000001000000010000004F
:1066300060640008546400080000000000000000CE
:10664000000000000000000000000000000000004A
:106650000000000000000000D065000801000000FC
:08666000100000000000000022
:0400000508000131BD
:00000001FF
