:020000040800F2
:10000000887A002045010008611A000801190008DB
:100010005D1A0008CD070008351F00080000000029
:10002000000000000000000000000000B51B0008F8
:10003000D107000800000000911A0008E91B000821
:100040005F0100085F0100085F0100085F01000810
:100050005F0100085F0100085F0100085F01000800
:100060005F0100085F0100085F0100085F010008F0
:100070005F0100085F0100085F0100085F010008E0
:100080005F0100085F0100085F0100085F010008D0
:100090005F0100085F0100085F0100085F010008C0
:1000A0005F0100085F0100085F0100085F010008B0
:1000B0005F0100085F0100085F0100085F010008A0
:1000C0005F0100085F0100085F0100085F01000890
:1000D0005F0100089D1E00085F0100085F01000825
:1000E0005F0100085F0100085F0100085F01000870
:1000F0005F0100085F0100085F0100085F01000860
:100100005F0100085F0100085F0100085F0100084F
:100110005F0100085F0100085F0100085F0100083F
:100120005F0100085F0100085F0100085F0100082F
:10013000DFF80CD000F0AAFA00480047D13F0008D1
:10014000887A00200648804706480047FEE7FEE719
:10015000FEE7FEE7FEE7FEE7FEE7FEE7FEE7FEE777
:10016000491C000831010008D2B201E000F8012B5F
:10017000491EFBD270470022F6E710B513460A4627
:1001800004461946FFF7F0FF204610BD80EA010241
:1001900010B502F00043400022D04A001FD0010EEB
:1001A00001EB1261C0F35600C2F3560240F40000A6
:1001B00042F40002A0FB022000047F39140400D0A6
:1001C000401C50EA124001D44000491EC2B20C0645
:1001D00004EBD010401C4008802A02D003E000202D
:1001E00010BD20F00100002900DA0020184310BDE6
:1001F00096230022114600F063B800F0004230F070
:1002000000400AD0C10D01F56071C0F3160042EA4A
:100210000151C20840071143704700200146704752
:1002200030B50B46014600202022012409E021FAC6
:1002300002F59D4205D303FA02F5491B04FA02F5C3
:100240002844151EA2F10102F1DC30BD2DE9F05F5A
:100250000546002092469B46884606468146402435
:100260001BE0284641464746224600F030FA5346F6
:100270005A46C01A914110D311461846224600F042
:1002800017FA2D1A67EB01084F462246012000217C
:1002900000F00EFA17EB00094E41201EA4F10104F4
:1002A000DFDC484631462A464346BDE8F09F002938
:1002B000A8BF7047401C490008BF20F001007047EC
:1002C00010B4B0FA80FC00FA0CF050EA010404BF4C
:1002D00010BC704749B1CCF1200421FA04F411FAA2
:1002E0000CF118BF012121430843A3EB0C01CB1DE6
:1002F0004FEA00614FEA102042BF002010BC704757
:1003000000EBC35010440029A4BF10BC7047401C30
:10031000490008BF20F0010010BC70472DE9FE4FD6
:10032000804681EA0300C00F0C46009021F0004196
:1003300023F00045B8EB0200A94105D24046214612
:1003400090461C460B46024623F00040104347D01F
:10035000270DC7F30A00C3F30A510290401A019017
:1003600040286BDAC3F3130040F4801B00989246D8
:1003700020B10023D2EB030A63EB0B0B0198594623
:10038000C0F14002504600F093F906460D46504633
:100390005946019A00F0ABF910EB080061410024C6
:1003A00087EA115284EAE7731A4340D0009A62B395
:1003B000019A012A4FEA075215DC001B61EB02018A
:1003C0004FF0004202EA0752CDE90042001C41F51D
:1003D000801132462B4600F0ABF903B0BDE8F08F38
:1003E00040462146F9E7001B61EB0201001C41F584
:1003F000801300185B412018A2F5001747EB03019A
:1004000040EAD570B6196D4111E06D084FEA360625
:1004100045EAC0754FEA0752001B61EB0201001C60
:1004200041F5801149084FEA300000195141324628
:100430002B4603B0BDE8F04F00F06BB900980122E5
:1004400040000023D0EB020263EBE07300982146EA
:100450004FEAE074B8EB000061EB0401E9E783F0D8
:1004600000435BE781F0004158E72DE9FE4F81EA48
:10047000030404F0004421F0004100944FF0000B0D
:1004800023F0004350EA01045ED052EA03045BD03B
:10049000C3F30A54C1F30A552C44A4F2F334019473
:1004A000A0FB0254C1F3130141F48011C3F3130301
:1004B00043F4801301FB024400FB034E840A970AB5
:1004C00044EA815447EA8357A4FB076802958D0AE2
:1004D00005FB07854FEA932C04FB0C542705029D6E
:1004E0004FEA065847EA1637B5EB08056EEB070CDE
:1004F000870E920E47EA811742EA8312A7FB020198
:10050000B6EB0B0164EB00042B0D43EA0C335E18D1
:1005100044EB1C50DA465146E7FB0201C5F31304D5
:100520004FEA0B3343EA14534FEA0432019C43EA87
:100530000603A4F10C040294009CCDE900B400F081
:10054000F7F803B0BDE8F08F00200146F9E72DE988
:10055000F04D81EA030404F0004B21F000451446FD
:100560004FF0000A23F0004150EA050220D054EA7F
:1005700001021DD0C5F30A570246C5F31303C1F3A8
:100580001300C1F30A5640F4801543F48013A7EB1F
:100590000608101BD64608F2FD3873EB050002D39F
:1005A00008F1010801E092185B41B8F1000F03DA8D
:1005B00000200146BDE8F08D00204FF48011064672
:1005C00084460EE0171B73EB050705D3121B63EB84
:1005D000050306434CEA010C49084FEA3000921823
:1005E0005B4150EA0107EDD152EA030012D082EAE2
:1005F000040083EA0501084305D0101BAB4106D275
:100600000122002306E000224FF0004302E06FF0D9
:10061000010253101AEB06004CEB085110EB0A00D4
:1006200041EB0B01BDE8F04D00F073B8C1F30A5285
:10063000C1F3130140F2FF3341F480119A4202DA10
:1006400000200146704740F233439A42A2F23342FF
:1006500002DC524200F03BB800F02AB830B5041E6C
:1006600071F1000404DB4FF00044404264EB0101EF
:10067000141E73F1000405DB1C464FF00043524288
:1006800063EB0403994208BF904230BD064C074D0E
:1006900006E0E06840F0010394E807009847103452
:1006A000AC42F6D3FFF748FD984F0008B84F00085A
:1006B000202A04DB203A00FA02F100207047914022
:1006C000C2F1200320FA03F3194390407047202A17
:1006D00004DB203A21FA02F00021704721FA02F3EC
:1006E000D040C2F120029140084319467047202AA9
:1006F00006DBCB17203A41FA02F043EAE07306E04A
:1007000041FA02F3D040C2F1200291400843194659
:10071000704710B5141E73F1000408DA401C41F153
:10072000000192185B411A4301D120F0010010BD75
:100730002DE9F04D92469B4611B1B1FA81F202E0EB
:10074000B0FA80F220329046FFF7B2FF04460F461F
:1007500040EA0A0041EA0B0153465A46084313D0C7
:10076000114653EA010019D0C8F140025046FFF784
:10077000AEFF05460E46504659464246FFF798FFE3
:10078000084305D0012004E020463946BDE8F08D3D
:100790000020054346EAE0762C4337430A98630578
:1007A000E40AA0EB08000022FD0A44EA47540A309C
:1007B00002D500200146E9E7010510196941DDE98C
:1007C000084500196941BDE8F04DA2E7FEE70000C9
:1007D00070470000704700000A46014602A003F07F
:1007E000D9FE00BFFEE700BF25733A25640D0A005D
:1007F00080B5002200F002F880BD000080B541F213
:10080000BC0EC2F2000E9EF80E30022B84BF0120F7
:1008100080BD9EF80E30844600200EF803009EF83E
:100820000E300EEB8303C3F804C09EF80E30734401
:100830001A739EF80E20531C30328EF80E300A7058
:1008400042F63A72A1F80120C87080BD014690F8C6
:100850002100022813D10868D1E90FC3026822F0F1
:100860000E020260026822F001020260012000FA1A
:1008700003F2CCF8042081F82100002002E00420DB
:1008800088630120002281F82020704780B590F80D
:100890002110022927D1026840F2040C1368C4F227
:1008A000020C23F00E03136013680CF17C018A42E2
:1008B00023F0010111601AD940F20841C4F202018B
:1008C0008A4247D040F21C41C4F202018A4245D01C
:1008D00040F23041C4F202018A4243D14FF48073A6
:1008E000CCF8003457E004218163012080BD43210E
:1008F000C4F202018A420EDD6B21C4F202018A4277
:100900001BDC4421C4F202018A4239D05821C4F2CE
:1009100002018A4231E00821C4F202018A4232D047
:100920001C21C4F202018A4232D03021C4F20201F9
:100930008A4222D14FF480722BE06C21C4F2020172
:100940008A4222D08021C4F202018A4215D14FF09E
:1009500080721EE00123CCF800341CE01023CCF898
:10096000003418E00CF588614FF480338A4208BFE8
:100970004FF48053CCF800340DE04FF4803208E09F
:100980004FF4805205E0012203E04FF4801200E0B2
:100990001022CCF80020416B4FF48072028401B128
:1009A0008847002080BD00002DE9F04F83B00C681F
:1009B000002C00F0EA80A0F18042A2F5843240F2DF
:1009C000004E4FEAB22241F60047C4F2010E0092F7
:1009D000C4F20107062200254FF001094FF0000B79
:1009E0004FF0000AB84208BF0522019209E000BF9B
:1009F0000C680BF1010B34FA0BF205F1040500F061
:100A0000C48009FA0BF814EA080CF1D04C684FF6D0
:100A1000FF72C1F21002944210DC122C50D8DFE8B1
:100A200004F0330A41454F4F4F4F4F4F4F4F4F4FF9
:100A30004F4F4F484C00D1F80CA041E04FF6FF72E9
:100A4000C1F2210294420FDC0022C1F21102944251
:100A50001AD00022C1F21202944215D00022C1F233
:100A60002102944210D02BE00022C1F222029442D3
:100A70000AD00022C1F23102944205D00022C1F214
:100A8000320294421CD100BF8C6844B1012C14BFC7
:100A9000C0F81480C0F810804FF0080A10E04FF042
:100AA000040A0DE0CC6804F1080A09E04FF0000ADE
:100AB00006E0CC6804F1040A02E0CC6804F10C0AF8
:100AC0002C460746BCF5807F24BF203C04373A689B
:100AD0000F2303FA04F6B2430AFA04F422433A60FD
:100AE000CA79D2067FF584AF41F21804C4F2020439
:100AF00022684FF6084842F0010222602268CFF6D1
:100B0000FF7802F001020292029A2BF00302724473
:100B100052F8084005F00C0603FA06F7009BBC43A8
:100B2000019F052B38BF1F4607FA06F6344342F8EB
:100B300008404C68E203DEF8002054BF22EA0C07AC
:100B400042EA0C07A203CEF80070DEF8042054BF7E
:100B500022EA0C0742EA0C07E202CEF80470DEF843
:100B6000082054BF22EA0C0742EA0C07A20240F216
:100B70000C44CEF80870C4F20104226854BF22EA83
:100B80000C0242EA0C02226032E703B0BDE8F08FAB
:100B9000002A08BF090401617047000043F2802069
:100BA000C2F200000068704740F2840043F28021E6
:100BB000C2F20000C2F2000100780A681044086026
:100BC0007047000080B542F20000C4F202000168E4
:100BD00041F010010160032000F066F8002000F0F1
:100BE00005F800F02BF8002080BD0000B0B540F201
:100BF0008402C2F2000240F208011278C2F200013F
:100C00004FF47A730968B3FBF2F20446B1FBF2F1D8
:100C1000084600F06DFC0F2C4FF001050CD858B9B8
:100C20004FF0FF3021460022002500F02DF840F261
:100C30008800C2F2000004602846B0BD82B041F2D4
:100C40001800C4F202000168022241F001010160B3
:100C5000016801F0010101910199416841F0805161
:100C60004160406800F08050009000980420C4F279
:100C70000100016862F31A61016002B07047000070
:100C800080B501F065FB80BD70B514460D46064683
:100C900001F06EFB2946224600F0E4FE0146304694
:100CA00001F06EFB70BD000080B501F07BFB80BDE4
:100CB0002DE9F04381B0002800F0898042F200085D
:100CC000C4F202080446D8F800000D4600F0070000
:100CD00088420CD2D8F8000020F007002843C8F85A
:100CE0000000D8F8000000F00700A8426FD120688B
:100CF00041F204098107C4F2020917D5410705D55D
:100D0000D9F8001041F4E061C9F80010010705D5D9
:100D1000D9F8001041F46051C9F80010D9F800105A
:100D2000A26821F0F0011143C9F80010C00745D1B5
:100D3000D8F8000000F00700A8420CD9D8F800004D
:100D400020F007002843C8F80000D8F8000000F0A1
:100D50000700A8423BD12068410707D5D9F8001009
:100D6000E26821F4E0611143C9F80010000708D5DA
:100D7000D9F80000216920F4605040EAC100C9F8A8
:100D8000000000F079F8D9F8001044F6AC62C1F325
:100D90000311C0F60002515C40F2080220FA01F192
:100DA00040F28800C2F200000068C2F20002116046
:100DB000FFF71CFF002001B0BDE8F0836068022847
:100DC00009D0012829D159F8041C890307D401202E
:100DD00001B0BDE8F08359F8041C8901F7D5D9F8B2
:100DE000001021F003010843C9F80000FFF7D6FE08
:100DF000064641F2883700BFD9F80000616800F06C
:100E00000C00B0EB810F93D0FFF7C8FE801BB842F7
:100E1000F2D9032001B0BDE8F08359F8041C89071A
:100E2000D5D5DCE740F20800C2F200000068704748
:100E300080B5FFF7F7FF41F20401C4F2020109682F
:100E400044F6BC62C1F30221C0F60002515CC84006
:100E500080BD000080B5FFF7E5FF41F20401C4F258
:100E60000201096844F6BC62C1F3C221C0F6000267
:100E7000515CC84080BD000041F2040CC4F2020C79
:100E8000DCF8003003F00C00082841F20020C0F22A
:100E90007A0018BF7047C3F383420AA18A5CD90362
:100EA00005D440F60010C0F23D0050437047DCF816
:100EB000001008A3C1F34041595C5043B0FBF1F06E
:100EC000704700BF02030405060708090A0B0C0D52
:100ED0000E0F1010010200002DE9F04182B0002831
:100EE00000F0C4800446007841F20006C007C4F256
:100EF000020643D0706800F00C00042817D0706818
:100F000000F00C00082802D17068C0030FD4656897
:100F10002DB1B5F5A02F10D0B5F5803F11D03068B8
:100F200020F480303060306820F480200CE030689D
:100F3000800323D5606808BB98E0306840F48020C7
:100F40003060306840F480303060FFF727FE002DBD
:100F5000054610D03068800310D4FFF71FFE401BF9
:100F60006428F7D904E100BFFFF718FE401B64288E
:100F70004FF0030077D830688003F5D420788007DD
:100F800018D5706810F00C0F07D0706800F00C00D6
:100F9000082826D17068C00323D43068800702D5A2
:100FA0002069012862D13068616920F0F80040EAC8
:100FB000C1003060207800073DD5A06938B300201B
:100FC000C4F242200121C0F88014FFF7E7FD054676
:100FD000706A80072DD4FFF7E1FD401B0228F7D986
:100FE000C6E02069002840F20000C4F2422000F070
:100FF000968001210160FFF7D1FD0546306880072A
:10100000D1D4FFF7CBFD401B0228F7D9B0E0002078
:10101000C4F242200021C0F88014FFF7BFFD05464E
:10102000706A800707D5FFF7B9FD401B0228F7D982
:101030009EE000F02FFD207840071BD4E5698DB1BC
:10104000706800F00C00082847D1012D0ED07068A0
:10105000216A00F480328A4208D1616A00F470107B
:10106000884203D1002002B0BDE8F081012002B027
:10107000BDE8F081F06910F0805808D1F06940F0C7
:101080008050F061F06900F080500190019847F2C3
:101090000007C4F200073868C00510D4386840F46F
:1010A00080703860FFF77AFD054600BF3868C005DC
:1010B00005D4FFF773FD401B6428F7D958E0E568B5
:1010C0001DB1052D3CD0012D3ED0306A20F001002D
:1010D0003062306A20F0040039E00027C4F2422771
:1010E00000203866FFF75AFD022D05460CD100BFDF
:1010F0003068800154D5FFF751FD401B02284FF0A6
:101100000300F5D9AFE700BF30688001AAD5FFF72B
:1011100045FD401B02284FF00300F5D9A3E700214D
:101120000160FFF73BFD0546306880077FF542AF61
:10113000FFF734FD401B02284FF00300F4D992E77B
:10114000306A40F004003062306A40F001003062E2
:10115000FFF724FD002D054641F2883714D000BF6B
:10116000306A800713D4FFF719FD401BB842F7D946
:10117000032002B0BDE8F081FFF710FD401BB8422C
:101180004FF003003FF66FAF306A8007F4D4B8F138
:10119000000F7FF453AFF06920F08050F0614DE70D
:1011A000206AB0F5803F05D17168A26821F4003152
:1011B000114371607168626A21F47411104308432D
:1011C000706001203866FFF7E9FC04463068800152
:1011D0003FF548AFFFF7E2FC001B02284FF0030089
:1011E000F4D940E770B538B10446406A30B1002008
:1011F000206104F1140007E0012070BD6068B0F5C3
:10120000827F03D004F11C00002101600026A66249
:1012100094F8510020B9204684F8506000F038F866
:10122000022084F8510094E8071001F482710368E9
:1012300002F4044223F040030360236911440CF4D8
:101240000062114403F002026369114403F00102D9
:10125000A369E569114403F40072114405F03802F2
:10126000256A114405F08002A56A114305F4005275
:1012700011430160042101EA13414160C16921F475
:101280000061C1610120666584F85100304670BD7F
:1012900070B586B040F60044C4F201040068A4F5BD
:1012A0005041002688420596CDE90366029601D09A
:1012B00006B070BD41F21800C4F20200416802ADF0
:1012C00041F400414160416801F4004101910199FC
:1012D000016841F0080101600068294600F008003B
:1012E000019001982820029002200390032005908D
:1012F0002046FFF759FB1020CDE90206204629467B
:101300000496FFF751FB06B070BD00002DE9F043D5
:1013100081B0044690F85000012803D1022001B0AA
:10132000BDE8F08301201E4615460F4684F85000A4
:10133000FFF734FC94F85110814601290CD0606805
:10134000B0F5827F76D104294FF0020040F0C680CC
:10135000A168002940F0C280002F4FF0010018BFA3
:10136000002D00F0BB80002E00F0B88094F85100F2
:10137000002104281CBF052084F851006165A56385
:10138000E687A6872763E6862068A68621646164CF
:101390000168490603D4016841F0400101606168B9
:1013A000731EE268B1FA81F1B3FA83F3DDF82080AD
:1013B00049095B09B2F5006F41EA03013CD139B13B
:1013C000216B0988C160B81C2063E08E0138E0867B
:1013D000012608F1010500BFE08E10B9E08F00285A
:1013E00066D02068816889070CD5E18E012E09D16D
:1013F00041B1216B002631F8022BC2602163E18EDE
:101400000139E1868168C9070AD0E18F41B1C0681E
:10141000A16B012621F8020BA163E08F0138E08760
:10142000FFF7BCFB002DD7D0A0EB09004045D3D37C
:10143000032053E0022051E039B139780173206B69
:1014400001302063E08E0138E086012608F10105B5
:10145000E08E08B9E08F58B32068816889070DD500
:10146000E18E012E0AD149B1216B00260978017362
:10147000206B01302063E08E0138E08620688168AF
:10148000C9070BD0E18F49B1C068A16B0126087074
:10149000A06B0130A063E08F0138E087FFF77EFB8F
:1014A000002DD5D0A0EB09004045D1D3032015E095
:1014B000204641464A4600F003FB18B120206065F3
:1014C00001200BE0A06800284FF0000006D100903A
:1014D0002168CA680092896800910099012184F806
:1014E0005110002184F8501001B0BDE8F0830000D5
:1014F00080B500F061FB80BD7047000070470000C0
:10150000B0B582B0016805460868CA684C6900F049
:101510002F03202B02F0200305D123B1284600F031
:10152000BFFB02B0B0BD5FEA007C1EBF04F0010E3D
:1015300002F4907414EB0E0424D12B6B1040C206FD
:1015400017D5012B15D1002001900868019048683B
:1015500001900198486940061CD4A88DEA8DEB8D56
:10156000002B1CBF801A5FEA004240F09A8002B054
:10157000B0BD010636D44006F9D5284600F084FBFC
:1015800002B0B0BDC10718BF12F480712FD141075E
:1015900033D439E0A86B0268526893B2002BE6D0CE
:1015A000AC8DA342E3D2EA858269202A16D0CA68AC
:1015B00022F48072CA604A6922F001024A614A69D3
:1015C00022F040024A61202285F83E2000222A6350
:1015D000CA6822F01002CA60FFF738F9A88DE98DB9
:1015E000401A6FE0284600F0FDFB02B0B0BD296C48
:1015F00041F001012964410706D5BEF1000F03D077
:10160000296C41F002012964810706D5BEF1000F63
:1016100003D0296C41F004012964BCF1000F06D508
:101620005EEA030103D0296C41F008012964296CAA
:1016300000299CD01040800602D5284600F030FBDF
:1016400028684069296C00F0400001F0080140184A
:1016500020D0284600F002FB28684169490614D5CD
:10166000416921F040014161A86B70B141F64D41E3
:10167000C0F600014163FFF709F900283FF477AF96
:10168000A86B416B884702B0B0BD2846FFF736FF14
:1016900002B0B0BD2846FFF731FF0020286402B039
:1016A000B0BDCA6822F49072CA604A6922F0010291
:1016B0004A61202285F83E2000222A63CA6822F06F
:1016C0001002CA6081B22846FFF716FF02B0B0BD13
:1016D000002804BF0120704710B5044690F83D0073
:1016E00028B9002084F83C00204600F021F824208E
:1016F00084F83D002068C16821F40051C160204693
:1017000000F028FB2068016921F4904101614169E2
:1017100021F02A014161C16841F40051C1600020FB
:101720002021206484F83D1084F83E1010BD000094
:1017300070B586B0006844F20041C4F20001002692
:1017400088420596CDE9036602963FD043F6000134
:10175000C4F20101884266D141F21800C4F20200CD
:10176000016840F6000441F4804101600168C4F260
:10177000010401F4804101910199016802AD41F039
:10178000040101600068294600F0040001900198FE
:101790004FF4007002900220039003200590204631
:1017A000FFF702F94FF4806002900020CDE90300BA
:1017B00020462946FFF7F8F8252000210022FFF7F0
:1017C00063FA2520FFF75CFA06B070BD41F21800FD
:1017D000C4F20200416840F6000441F40031416067
:1017E0004168C4F2010401F40031019101990168DA
:1017F00002AD41F0040101600068294600F00400D8
:10180000019001980420029002200390032005908B
:101810002046FFF7C9F80820CDE9020620462946F0
:101820000496FFF7C1F806B070BD000070470000D5
:101830002DE9F04381B0044690F83D0020280BD1FB
:101840000E4600294FF0010055D01746002A52D00D
:1018500094F83C00012803D1022001B0BDE8F083D8
:10186000012084F83C004FF0000921201D46C4F8F7
:10187000409084F83D00FFF791F9A784E784A168C0
:101880000746B1F5805F07D1206900281CBF3046AC
:101890004E46B046064601E04FF0000884F83C9002
:1018A00007E000BF16F8010B21684860E08C0138A2
:1018B000E084E08C80B1204680213A462B4600F03F
:1018C000BBFA80B9002EEDD138F8020B21686FF316
:1018D0005F2048600026E9E7204640213A462B4633
:1018E00000F0AAFA18B1032001B0BDE8F08320206F
:1018F00084F83D00002001B0BDE8F083704700008F
:10190000FEE7000080B540F20C0040F2B201C2F2E6
:101910000000C2F20001FEF76BFF43F21421C2F295
:101920000001087080BD000070B586B0002541F24E
:101930001800CDE90455CDE90255C4F20200016852
:1019400040F6004441F0200101600168C4F2010446
:1019500001F02001019101990168002241F0040188
:1019600001600168802601F004010191019901687C
:1019700041F0080101600068802100F0080001903A
:1019800001982046FFF704F90120CDE90305022064
:10199000059002A920460296FFF706F806B070BD32
:1019A00010B543F2301043F60041C2F20000C4F219
:1019B00000014FF48272002380E80E0000F10C0158
:1019C0004FF0020C4FF0010E4FF4007481E8085004
:1019D0000A21C0E90643C0E90833C0E90A31FFF72C
:1019E00001FC002818BFFEF7F5FE10BD80B543F2DC
:1019F000881043F60001C2F20000C4F20101002386
:101A00004FF0080C4FF4E13280E80E00C0E90333D8
:101A1000C0E905C3C361FFF75BFE002818BFFEF7EE
:101A2000D9FE80BD80B543F2CC1044F20041C2F231
:101A30000000C4F2000100234FF0080C4FF4E13223
:101A400080E80E00C0E90333C0E905C3C361FFF7B6
:101A50003FFE002818BFFEF7BDFE80BDFEE7000078
:101A60007047000000F0070080F00703042B28BF38
:101A700004234FF0FF3C03380CFA03F338BF002077
:101A8000994381400CFA00F022EA000008437047B5
:101A90007047000081B040F20800C2F20000006808
:101AA00044F6D351C1F26201A0FB0101480A009043
:101AB00000BF0098411E00280091F9D101B0704785
:101AC00010B513460A468021044600F00BF80028A2
:101AD0000FBF0020606D40F02000606518BF03203C
:101AE00010BD00002DE9F04381B01E4690460D4622
:101AF0008146FFF753F8301A00EB0807FFF74EF85E
:101B000040F20801C2F200010968C1F3CB31794308
:101B10000091D9F8001089682940A94219D10646D8
:101B200008F1010406E000BFD9F8000080682840F1
:101B3000A8420ED1002CF7D0FFF730F8801BB84236
:101B40000BD200980099002808BF0746481E009055
:101B5000EAE7002001B0BDE8F083D9E9000142685E
:101B6000B1F5827F22F0E00242600BD1D9F8081073
:101B7000B1F5004F02D0B1F5806F03D1016821F0BB
:101B800040010160D9F82810B1F5005F07D1016864
:101B900021F400510160016841F40051016001200D
:101BA00089F85100002089F85000032001B0BDE8F9
:101BB000F083000070470000B0B501380024B4EB9A
:101BC000106F1CBF0120B0BD4EF21005CEF2000513
:101BD00068604FF0FF300F2100F0D2FB0720AC60AF
:101BE00028602046B0BD000080B5FEF7DDFF80BD57
:101BF00070B590B006AC20462821FEF7BCFA012053
:101C000006900A904FF4E01000254FF48031022630
:101C10000F9020460595CDE90355CDE90155CDE955
:101C20000715CDE90D61FFF757F90F20CDE9010642
:101C30004FF48060CDE9040501A802210395FFF768
:101C400037F810B070BD00007047000080B5406AE2
:101C50000021C185C184FFF751FC80BD0168CA68BD
:101C600022F49072CA604A6922F001024A61026B52
:101C7000012A03D1CA6822F01002CA60202180F82C
:101C80003E1000210163704780B50168CA6822F0E8
:101C90004002CA60202180F83D10FFF72FFE80BD72
:101CA00080B582B090F83E1022291ED18268B2F52C
:101CB000805F02D10169002940D0816AB2F5805F5E
:101CC00007D00AB9026922B10268526802F07F02A5
:101CD00001E0026852680A700121826A114481623F
:101CE000C18D01390A04C18501D002B080BD0168EF
:101CF000CA6822F02002CA60CA6822F48072CA60F0
:101D00004A6922F001024A61202280F83E20026BDB
:101D1000012A1BD100220263CB6823F01003CB60A1
:101D20000B68DB0605D501920A68019249680191AA
:101D30000199818DFFF7E0FB02B080BD0168826AE6
:101D400049686FF35F2111800221C6E7FFF76EFD3E
:101D500002B080BD10B504460068D4E902C2236910
:101D6000016921F4405111430161616943EA0C02A8
:101D70001143C26841F20C639A431143C160416947
:101D8000A26921F44071114343F60002C4F201023A
:101D90009042416102D0FFF74BF801E0FFF75AF89B
:101DA0006268192148439100B0FBF1F048F21F51DD
:101DB000C5F2EB11A0FB01235A096FF0630302FB8C
:101DC0000300322303EB0010A0FB0101F02303EA20
:101DD0005113206803EB0212C1F3431111448160D7
:101DE00010BD000090F83D10212923D18168B1F584
:101DF000805F01D1016931B1016A02684B1C036245
:101E00000978516007E0016A036831F8022B6FF32B
:101E10005F225A600162C18C01390A04C18418BF73
:101E200070470068C16821F08001C160C16841F05D
:101E30004001C160704700002DE9F0410446006890
:101E400000680840884202D10020BDE8F0811D46AC
:101E50000E4690465F1C04E0206800683040B042A7
:101E6000F2D0002FF8D02DB1FEF798FEA0EB0800BD
:101E7000A842F1D92068C16821F4D071C1604169DC
:101E800021F001014161202084F83D0084F83E00EA
:101E9000002084F83C000320BDE8F08180B543F2C7
:101EA0008810C2F20000FFF72BFB80BD10B540F296
:101EB0000404C2F200040120207000F06FF808B1A1
:101EC000002010BD207800F0FE002070002010BD22
:101ED000B0B50D46014607A0144602F05BFB681E34
:101EE000C1B2022904D840B204A151F820002060F8
:101EF0000020B0BD706472763A25640000080000CE
:101F0000001000000000010080B5084611031A030C
:101F100092B200F09FF8002080BD000000207047C2
:101F200080B5084611031A0392B200F033F900207D
:101F300080BD0000FEE70000B0B540F60044054655
:101F4000C4F2010400F08AF900F01CF92046802157
:101F50000022FEF71DFE202000F0FCF841F2B60042
:101F6000C2F2000000884EF61871884203D1C5F312
:101F7000073000F0EFF8C5F3071000F0EBF8280188
:101F8000C0B200F0E7F8002000F0E4F8204680211D
:101F90000122FEF7FDFD00F0F5F8B0BDB0B500F090
:101FA00091F84EF6137141F2B602411AC2F20002E4
:101FB000052910802ED8DFE801F0030507090B1171
:101FC00022A006E01FA004E01CA002E019A000E08F
:101FD00015A002F059FF00242046B0BD0FA002F06A
:101FE00053FF032000F094F8C007F4D140F60045F9
:101FF000C4F201052846802100220024FEF7C8FD16
:10200000B72000F0A7F8284680210122FEF7C0FD86
:102010002046B0BD01242046B0BD00BF5732355127
:10202000323536200D000000573235513132380D2F
:10203000000000005732355136340D00573235510B
:1020400033320D005732355131360D00573235518C
:1020500038300D00F0B581B040F60044C4F2010400
:1020600015460F460646204680210022FEF790FDC9
:10207000032000F06FF841F2B600C2F200000088C1
:102080004EF61871884202D1380E00F063F8C7F39B
:10209000074000F05FF8C7F3072000F05BF8F8B2E4
:1020A00000F058F83DB1013EFF2000F053F8013D2B
:1020B00006F8010FF8D1204680210122FEF768FDC5
:1020C00001B0F0BDB0B540F60044C4F201042046B2
:1020D00080210022FEF75CFD902000F03BF80020FC
:1020E00000F038F8002000F035F8002000F032F859
:1020F000FF2000F02FF80546FF2000F02BF840EA03
:102100000525204680210122FEF742FD2846B0BD6C
:10211000B0B540F6004505240228C4F2010508BF09
:102120003524032828464FF080014FF0000208BFF5
:102130001524FEF72DFD204600F00CF8FF2000F0DE
:1021400009F80446284680210122FEF721FD204699
:10215000B0BD000080B582B08DF8070043F23010AA
:102160004FF0FF3CC2F200000DF107010DF1060235
:102170000123CDF800C0FFF7C9F89DF8060002B0B2
:1021800080BD000080B500BF0120FFF7C1FFC00780
:10219000FAD180BD2DE9F04F83B0884692466FF3A7
:1021A0001F3840F2B60502900A0B0F46C8F5805062
:1021B000D146C2F20005504538BF81464FEA023B86
:1021C0000192284659464FF48052FFF743FF1FFA09
:1021D00089F656B1002000BF81B24144695CFF29F5
:1021E0000AD1013081B2B142F6D3029C3946204671
:1021F000324600F047F816E00198FFF79DFE02987E
:1022000005EB080101380139324600BF10F8013FE3
:10221000013A01F8013FF9D1284659464FF480525E
:1022200000F030F8029C1FFA8AF0019AB04211D0F7
:10223000AAEB090A34441FFA8AF0D146013202940B
:102240003744B0F5805F4FF4805028BF81464FF08F
:102250000008B3E703B0BDE8F08F000010B540F60A
:102260000044C4F20104204680210022FEF790FCC5
:102270000620FFF76FFF204680210122FEF788FC31
:1022800010BD00002DE9F0410646C8B2C0F58078C7
:1022900017461446904538BF474630463A460D46E5
:1022A00000F01AF8A04528BFBDE8F081B8B2E41BE1
:1022B000064405441FFA84F82746B8F5807F28BFF6
:1022C0004FF48077BAB23046294600F005F8B8F5E9
:1022D000807FEBD8BDE8F081F0B581B040F60044D6
:1022E00015460F460646C4F20104FFF7B7FF204625
:1022F00080210022FEF74CFC0220FFF72BFF41F269
:10230000B600C2F2000000884EF61871884202D171
:10231000380EFFF71FFFC7F30740FFF71BFFC7F398
:102320000720FFF717FFF8B2FFF714FF35B1013EA2
:1023300016F8010FFFF70EFF013DF9D1204680216D
:102340000122FEF725FCFFF71DFF01B0F0BD0000E4
:10235000002848BF704700F01F01012202FA01F176
:102360004EF200124009CEF2000242F820107047EF
:102370004EF60C50CEF200000068C0F30220704709
:102380004EF6145300F00F02CEF2000309011A4476
:1023900000F16043B0F1FF3FC8BF03F56442117024
:1023A000704700004EF60C51CEF200010A684FF65D
:1023B000FF031A4060F30A2242F0806040F0FD7093
:1023C0000860704710B5044641F20400002322184B
:1023D00023544FF0FF309062204601F065FF002843
:1023E0001CBF032010BDB4F8FE014AF655218842F7
:1023F0001CBF022010BD94F8372094F8383094F8B0
:102400003610120244F2461042EA0342C0F254006F
:102410001144814204BF002010BD94F8532094F869
:10242000543094F85210120242EA03421144081A3E
:1024300018BF012010BD000044F67071C0F6000105
:102440004A1E00BF12F8011F002918BF8142F9D1AE
:1024500008467047B0B540F2980CC2F2000C0CF17F
:10246000040200F580504FF0000E002307E000BF8B
:102470004FF0010E0133022B02F10C021AD052F878
:10248000044C002CF4D00568AC42F3D11468856884
:10249000AC42EFD19488C588AC42EBD1022B0CD171
:1024A0001222BEF1000F18BF0022881E18BF10466E
:1024B000C0B2B0BD0223022BF2D011B11020C0B2C5
:1024C000B0BD03EB43000CEB80004089A0F58070A9
:1024D000B0FA80F040090001C0B2B0BD40F29802ED
:1024E0004FF0000CC2F20002002300BFD15881421D
:1024F00008BF42F803C00C33182B08BF7047F5E73C
:1025000041F2240283585A68002A04BF0020704711
:1025100000F58050D0F800C041F202001CF8000025
:10252000090BB1FBF0F003F1080100BF904207D3A3
:10253000801A4A680831002A04BF00207047F5E776
:10254000096808447047000041F2140282580239B9
:10255000023A914224BF0020704741F20202104427
:102560000278D0F8260001FB020070472DE9F04107
:10257000054641F20500884605EB000789B128466B
:10258000414601F035FC02283CBF0120BDE8F08146
:10259000411C0FD0D7F80F10444688420FD2BDE837
:1025A000F081D7F807404CB1D7F80F00844228BF1C
:1025B000012404E04FF0FF30BDE8F08101242646FD
:1025C00006E000BF012808BFBDE8F081A64229D07F
:1025D000D7F80F000136864228BF022601D3022C0D
:1025E00020D32846314601F003FC411CD7D00028F7
:1025F000E8D1284631466FF0704201F079FEB8F11B
:10260000000F014606D029B928464146324601F05E
:102610006FFE014649B10120012908BF4FF0FF308C
:10262000BDE8F0810020BDE8F081D7F80B00C7F8C5
:102630000760411C06D039780138C7F80B0041F01B
:10264000010038703046BDE8F08100002DE9F04F00
:1026500081B00E68884600E0013631785C29FBD0F5
:102660002F29F9D041F2180150F801902021484655
:102670000B2201F00DFE3578212D07D204204FF0FA
:10268000010A00274FF0080B00245AE000244FF005
:10269000080B012101200027009010E0A5F1610046
:1026A000C0B219289CBF47F00107203D09F804502B
:1026B00016F80A5001340AF10101212D3ED3E8B287
:1026C0002E288A4620D02F2836D05C2834D0A34527
:1026D0001AD069B2B1F1FF3F08DC44F6C461C0F61C
:1026E0000001084410F8805C47F00307E8B2FFF7E8
:1026F000A3FE002845D1A5F14100C0B21928CDD8CC
:1027000047F00207D2E700BF2E38B0FA80F00099F8
:102710004009014235D016F80A50BF000AF1010104
:102720004FF00B0B0020212D4FF00804B4D20420F1
:1027300008244FF00B0B03E0002002E004200824E3
:102740008A4606EB0A01C8F80010D4B199F80010C7
:10275000E52904BF052189F80010BBF1080F08BF67
:10276000BF0007F00301012908BF103007F00C017A
:10277000042908BF083089F80B00002001B0BDE82B
:10278000F08F062001B0BDE8F08F0000013801286D
:1027900084BF0220704740F2980C00EB4001C2F267
:1027A000000C0CEB8100438923F48072002A18BFCF
:1027B0005A1E428110044FF0000008BF4CF821005F
:1027C00070470000B0B50021044600F00BF918B1C5
:1027D000042808BF0720B0BD04F580552868296982
:1027E00001F062FD0028F3D1696909780029EFD072
:1027F000E529EDD02046012100F02EF80028EDD08B
:10280000E6E7000070B50021044600F0EBF805464D
:1028100008B1284670BD04F5805604E0204600212A
:1028200000F01AF890B93068316901F03DFD0546B5
:102830000028EED17069017859B1C17A0907EDD449
:10284000B16901F005FD0028E8D1E2E70546284618
:1028500070BD042070BD00002DE9F04F81B041F241
:102860000602825A561C32040DD000F58057386992
:1028700058B116F07F040DD03868002500EB4410E5
:10288000FE80786102E0042500E00425284601B0BE
:10289000BDE8F08F0D46F9680130386169B13868DC
:1028A00041F20202825C013A12EAD61FE4D101F041
:1028B0009FFA022809D20225E8E7386841F20801A8
:1028C000405A8642D8D30425E0E7804601300DD037
:1028D000386841F214014158884509D238684146A8
:1028E000C7F80C80FFF730FE3861C5E70125CDE75A
:1028F000B5B1F968FFF73AFE80460130032811D2DE
:102900004FF6F871C0F2FF0101EAC00040F2017118
:10291000C0F2020121FA00F0C0B201B0BDE8F08FB0
:102920000425B3E7386801F0E7FD08B10125ADE7FC
:10293000386800214FF480524FF0000901F0A8FCE4
:102940003D6841462846FFF7FFFD0146386841F2E1
:102950000202825C41F22C0A45F80A10C2B14FF023
:10296000000941F2040B012500F80B5001F0C4FDF1
:1029700000287FF48BAF386841F2020250F80A1049
:10298000825C09F101090131914540F80A10EBD34D
:1029900050F80A10A1EB090140F80A109EE7000068
:1029A000B0B50546FFF70EFF044608B12046B0BD9E
:1029B00005F580552868296901F076FC0446002851
:1029C000F4D168690021202201F062FCD5E90501FB
:1029D0000B2201F04FFC286841F20401012242540D
:1029E0002046B0BD2DE9F0410C4641F208014558A2
:1029F00041F20601012D445244D000F58056306862
:102A000041F2140141588D423CD200F580504DB145
:102A10007DB18078B4EBC01F1ED230682946FFF725
:102A200093FD0BE0017803290CBF456A0025002DBA
:102A3000EFD10189A14225D9406A0025F56008B38C
:102A4000316804F07F0200EBD41001EB4211C6E9BB
:102A500004010020BDE8F081C70141F2140800BF65
:102A60003068294601F0C4F9054601300DD0022D29
:102A700008D3306850F80800854203D2E41BBC42FA
:102A8000EED2CAE70220BDE8F0810120BDE8F08166
:102A900080B541F2BC01C2F200010A5C002A1CBFF1
:102AA000002080BD01EB80034FF0010C5B680A1829
:102AB00001F800C01968107B884780BD80B541F2DD
:102AC000BC0CC2F2000C0CEB80035B6860441B6919
:102AD000007B984780BD000080B541F2BC0CC2F27B
:102AE000000C0CEB800EDEF804E06044DEF808E039
:102AF000007BF04780BD000080B541F2BC01C2F20E
:102B0000000101EB8002526808445268007B904744
:102B100080BD000080B541F2BC0CC2F2000C0CEB91
:102B2000800EDEF804E06044DEF80CE0007BF04745
:102B300080BD000040F298010020C2F2000100BFF9
:102B40000A682AB10130022801F10C01F8D10220F3
:102B5000023818BF0120704710B5044600F090FEFF
:102B6000002818BF10BD204601F0FAFC00B110BDCE
:102B700004F58054A06AFFF709FE002804BF002175
:102B8000216010BD2DE9F04F83B016460D4602902E
:102B900002A91046002200F093FF8146002862D16E
:102BA000D6F8008008F58056D6E90447B81E84425E
:102BB00058D996F800B0CDE90065BBF1010F15D1E9
:102BC0000024022705E000BF013470690137874205
:102BD00041D24046394601F00BF90028F4D0411C9F
:102BE00037D00128F1D14FF0020934E0D6F820A007
:102BF00000240020002113E08E78CD784B78360435
:102C00000A7865F31B6646EA032313446FF0030258
:102C10000426002B314408BF0134013F10441AD070
:102C200020B1BBF1020FE7D10EE000BF4046514694
:102C300001F03AFB814670B90AF1010A4FF4805065
:102C40004146BBF1020FD7D10B886FF0010202267B
:102C5000DFE74FF001090099019D48790C6140F0D0
:102C6000010048712C605FFA89F003B0BDE8F08F75
:102C70002DE9F04F81B00E46054601F071FC044687
:102C800008B1274604E005F5805999F807701FB18F
:102C9000384601B0BDE8F08FD9F8247067B3701CD6
:102CA00053D0D9F80C00B04238BF0646002EC9F800
:102CB000086076D0A6F1010828464146FFF720FCBF
:102CC000D9F800700146C9F814003846FFF73CFCFB
:102CD000002868D0310500F0B08041F2010139448C
:102CE0004A78013A02EA1833D9F818201E18964299
:102CF00040F0A5802746CBE7D9F80C00B04204D2BB
:102D000099F80610890758BF0646D9F808104FF001
:102D10000008002EC9F8088000F0DE80D9F8000015
:102D200041F20202825C4FEA023739B1721E013968
:102D3000B2FBF7F2B1FBF7F39A4238D2D9F8101090
:102D400000296ED0C9F8141038E0D9F8100057F8EF
:102D5000048B0226F0B1834602364FF0000A054686
:102D6000D9F80000294601F043F8012851D9411C47
:102D700053D0691C0AF1010A88420546F0D0464545
:102D800098BFE7E802ABD9F8001041F21402895865
:102D90008842E0D3D9F82400464506605DD9112762
:102DA00076E7274674E7022789F8077070E77842CC
:102DB0000840D9F81410C9F80800361A002900F0A4
:102DC0008980BE4277D941F2140899F80620D9F8D3
:102DD0000000920703D401F00BF8014604E0FFF76E
:102DE000C5FB0146002864D0481C45D0022938D3D1
:102DF000D9F8000050F80800814232D2D9F8080012
:102E0000F61B3844BE42C9F81410C9F80800DCD8D3
:102E100051E0022789F807703AE7012789F807701F
:102E200036E70021FFF7A2FB014601301DD0012942
:102E30001FD1022789F807702AE7274628E799F863
:102E40000600400622D50878294601230127FFF70E
:102E500061FEA8B189F807701AE70020386027469C
:102E600016E7022789F8077012E7012789F807702B
:102E70000EE7C9F8101065E7012789F8077007E722
:102E800099F8060000F0BF0089F80600D9F80000A4
:102E900041F20101405C2946324601230127FFF738
:102EA0001BFE10B189F80770F2E6C9F818602746D2
:102EB000EEE600213E46D9F8080032053044C9F854
:102EC000080007D0D9F80000FFF73EFBF0B100EB97
:102ED000163801E04FF00008B9F80800000530D0BE
:102EE000D9F8182090452CD099F80600400617D53F
:102EF000D9F8000041F20101405C29460123012775
:102F0000FFF708FE30B189F80770C1E6022789F89B
:102F10000770BDE699F8060000F0BF0089F80600CA
:102F2000D9F8000041F20101405C294642460123E4
:102F30000127FFF7D1FD10B189F80770A8E6C9F89D
:102F40001880D9E90201884209D999F80610C9F810
:102F50000C0041F02000274689F8060098E6274635
:102F600096E600002DE9F04F8BB001290A9001D9B7
:102F70001325F8E00AA817460E4600F09DFF00282A
:102F80006FD440F29001C2F2000151F82040002CB1
:102F900069D05FFA80F94FF48051002248466254AC
:102FA000FFF776FDC10760D1400760D408AA484604
:102FB00001210125FFF782FD002840F0D480089808
:102FC0008028C0F0D080002E4FF0000CA7F1010245
:102FD00008BF4FF03F0C17424FF00001A0EB0C0B65
:102FE00018BF0F46CDF820B0B7B944F6D352C1F29E
:102FF0006202ABFB022344F6447244F68077C0F6CB
:103000000002C0F600071B09043A023F37F8025FCE
:103010000232AB42FAD35788B1EB173F18BF3F0BD0
:10302000002F08BF0127802F28BF8027BBFBF7F5A3
:1030300040F6F57101228D424FF6F57188BF0222EC
:103040008D424FF6F67188BF03228D42079210D34E
:1030500041F2070101EB85014FF0000820200597A0
:103060001BE00B257FE00C257DE003257BE00A2596
:1030700079E005EB45014FF0040804230131059385
:1030800008EB45034FF0030E012A08BF0EEB510376
:1030900003F6FF7101204FF0040800EB0C0303EB73
:1030A000113202EB080AA7EB0C025244934501D2FD
:1030B0000E2558E0CDE9023006950D0B09AA4846C9
:1030C0000321CDF810C0FFF7F9FC20B909980138A9
:1030D000B0F5004F01D301200990099BDDF818B02D
:1030E0000AEB03024FF6F57C013A5B42E3454FF0F1
:1030F000000102EA030288BF0121A2EB0A03E345B3
:103100004FF00000099388BF1846039AE345DDF8A5
:1031100020C0DA46AB46024498BF9B44ACEB0803A0
:103120009B1A0392A3EB0B03079AB3FBF7F8931ECA
:1031300040F6F675B3FA83F3A8454FF000054FF655
:10314000F6724FF0000E4FEA531338BF0125904539
:1031500038BF4FF0010E2B424FF00E0504BF019017
:1031600011EA0E0003D028460BB0BDE8F08F4FF6F1
:10317000F5705246824501D90C250BE00620BCF5BE
:10318000803F38BF0420054638BF01250799012933
:1031900018BF0546002E00F0B980DDF80CA0CDF870
:1031A00000804FF0F0084FF6F67082424FF00006B4
:1031B00020464FF000014FF4805238BF01264FF4F3
:1031C000805501F065F8BAA120460B2201F052F8B3
:1031D0004FEA1A20E0730120208208987100002233
:1031E000A4F80B50677384F80EA0B2EB104FA174D3
:1031F00014BF2062A4F813003F200499C0F2FF001E
:10320000A061002084F815802177A4F81D00E077E4
:1032100000F050FE069A4FF6F671DDF800A08A42E3
:1032200009901BD3C4F843004FEA1B2084F8250003
:103230004FEA1B4084F826004FEA1B6084F8270001
:103240000220E0620120C0F2060084F824B020636E
:1032500004F140009EA1472242230BE0C4F827005E
:103260004FEA1B20E07504F1240094A12B222623B1
:1032700084F816B0802707702920E054A018132284
:1032800000F0F8FF4AF65520049AA4F8FE014846DB
:10329000214601230125FFF73DFC069900287FF414
:1032A00062AF4FF6F6708142DDE9011001EB0007D5
:1032B00006D304982146821D48460123FFF72AFCC5
:1032C000204600214FF4805200F0E2FF06994FF6AD
:1032D000F5708142CDF8248062D968F0FF00099032
:1032E00084F800800998000A6070BDF82600A0707C
:1032F0009DF82700E0704FF0FF30606020724FF6BD
:10330000FF70A4F809000F20E0725FE02046002162
:103310004FF48052002600F0BBFF0898049945F254
:103320005B620144C0F21552A1FB022340F201127C
:10333000C91AA4F8BF21FE2203EB51013F2384F8F0
:10334000C3214A0B43EAD13184F8C411010A84F83D
:10335000CA0184F8CB11010C000E84F8CD014AF6A5
:103360005520099284F8C521C4F8C63184F8CC11DF
:10337000A4F8FE01484621460022012384F8C161D9
:1033800084F8C2510125FFF7C5FB069A00287FF497
:10339000EAAEDDF80CA0CDF800804FF0F80802E7A7
:1033A00007996FF0FF00012904BF4FF60070C0F2CB
:1033B000FF004044099084F800800998000A60707A
:1033C000BDF82600A0709DF82700E0704846214611
:1033D0003A4601230125FFF79DFB00287FF4C3AE89
:1033E000204600214FF4805200F052FF7E1CBBF1BA
:1033F000020F099511D3059F012548462146324603
:103400000123FFF787FB00287FF4ADAE0998013652
:10341000013058450990F0D300E0059F012548464A
:10342000214632460123FFF775FB00287FF49BAE4F
:10343000013F06F10106F2D106994FF6F67081427E
:103440002BD345F25220C4F26110206047F2722063
:10345000C6F24110C4F8E401AAF10100010A84F89F
:10346000E80184F8E911010C000E84F8EB01022058
:10347000049DC4F8EC014AF6552084F8EA11A4F83A
:10348000FE016A1C484621460123FFF743FBEA1D63
:10349000484621460123FFF73DFB48460021002214
:1034A000FFF70CFB0546002818BF01255BE600BFAF
:1034B000EBFE904D53444F53352E30004E4F204E6F
:1034C000414D45202020204641542020202020002E
:1034D0004E4F204E414D452020202046415433324E
:1034E000202020002DE9F04184B00546039001A87A
:1034F0001446CDE9011100F0DFFC002823D440F28E
:103500009008C2F2000858F82070064637B13846D5
:10351000FEF7E4FF4FF4805000213954002D1EBF08
:103520004FF48050002129544FF0000048F82650F5
:1035300035B1012C04D103A802A9002200F0C0FA81
:1035400004B0BDE8F0810B2004B0BDE8F0810000BC
:103550002DE9F04FADF5815D87B00DF1180E0EF538
:103560008154216088B300F5805A06A800F580597F
:10357000002002F01E070DF1180E1646CAF80000D2
:103580000EF5815148463A4600F09AFA0546002861
:1035900040F0808003A82168C9F8180006A806F04A
:1035A0001F0B00F0C7FBD9F81460054678B11BF07B
:1035B0001C0F18D02DB3042D30D1FFF7BBFA60B328
:1035C00006A8FFF7EDF9054628E0092562E0FEB1FF
:1035D000002F18BF012706A83946FEF73BFF054616
:1035E0001BF01C0FE6D1002D52D1F07AC10647D452
:1035F000C007284618BF07205FEA8B7148BF054601
:1036000046E0F07A10F0110F3CD007255DB13FE0A5
:1036100006251BF01C0FCDD1E5E71225D9F8146063
:103620004BF0080BA5BB1BF0080031D000F042FCAA
:10363000D9F80070C6F80E000020F072F06138462C
:10364000314641F2040400F0B5FC804630460021CA
:1036500000F00CFF0120B8F1000F385518D03C44A1
:10366000A06A41460290384600F0BEFE30B9A8F18B
:1036700001000299A060384600F016FE054607E0FA
:10368000042505E05FEA4B7048BF0825002DCAD02D
:1036900035B1FDB128460DF5815D07B0BDE8F08F6D
:1036A000D9F8000041F22C0140580BF008014BEA18
:1036B000810BCAE90706002106A8BBF1010F88BFEC
:1036C000012100F021FCCAF82800002808BF0225CB
:1036D000002DDFD1D9F800400027204631468AF876
:1036E00006B08AF8077000F065FCCAF81000F069AF
:1036F000CAF81870CAE90270CAF82470CAF8004003
:1037000041F20600205AAAF80400C3E72DE9F04F61
:1037100081B081460020186048469A4615460E46FC
:1037200000F01EFF18B909F58054E07910B101B01E
:10373000BDE8F08FA079C00703D1072001B0BDE834
:10374000F08FD4E90201081AA84238BF054615B126
:1037500041F2010B2FE0002001B0BDE8F08FA0790D
:1037600000F0BF00A0712068494610F80B004246E7
:103770000123FFF7B1F900287AD1C4F8188000BFFF
:10378000A0686FF31F30C0F58057AF4288BF2F4647
:1037900009EB000130463A4600F06CFDA0683E445B
:1037A0003844A060DAF80000ED1B3844CAF8000085
:1037B0004FF00000BBD0A1680805E1D1206841F2BC
:1037C0000202825CFF3202EA11385FEA086210D11D
:1037D00029B1626A2AB14846FEF792FE04E02069E8
:1037E00002E0616900F004FB012843D9411C3FD08D
:1037F0006061276861693846FEF7A6FED0B35FFABC
:1038000088F2002307EB0B01B3EB153F00EB020836
:103810001ED02F0B4B7802EB070C08789C4588BF15
:103820009F1A314642463B46FFF756F900BBA07946
:1038300040060BD5A069A0EB0800B84206D206EB03
:10384000003049464FF4805200F014FD3F03A5E7D5
:10385000A26942453FF491AFA07940067FF583AF5E
:10386000087849460123FFF755F900283FF477AF60
:10387000012000E00220E07101B0BDE8F08F0000FF
:1038800070B5054600F06CFE044608B1204670BDD8
:1038900005F58056B0798106F8D540060FD5306819
:1038A00041F20101B269405C294601230124FFF77E
:1038B00031F90028EAD1B07900F0BF00B07130686A
:1038C000F16900F0F1FC04460028DFD1346AE07AA7
:1038D00040F02000E072F0682077F068000A60771E
:1038E000F089A077F07BE0773169204600F0BEFDDB
:1038F00000F0E0FAC4F8160000206082B07941F2CE
:10390000040100F0DF00B07130680122425400F081
:10391000B3FD0446204670BD2DE9F04F81B08146CD
:103920000020186048469A4615460E4600F018FEDC
:1039300010B101B0BDE8F08F09F58054E07900289E
:10394000F7D1A079800703D4072001B0BDE8F08F3C
:10395000A068691EC043814280F0A08041F2010B43
:103960001EE0C4F8188000BFA06831466FF31F3016
:10397000C0F58057AF4288BF2F4648443A4600F012
:1039800079FCA07940F04000A071A0683E44384422
:10399000A060DAF80000ED1B3844CAF800007DD0C2
:1039A000A1680805E0D1226841F20200105CFF30F6
:1039B00000EA11385FEA08601AD129B1606A40B1A3
:1039C0004846FEF79DFD08E0206930B91046002109
:1039D00001E061691046FEF7C9FD411C5CD000287A
:1039E0005CD0012867D021696061002908BF20618F
:1039F000A07940060DD52068A26910F80B00494651
:103A00000123FFF787F8002846D1A07900F0BF0016
:103A1000A071276861693846FEF796FD00284AD0F4
:103A20005FFA88F2002307EB0B01B3EB153F00EBC5
:103A300002081FD02F0B4B7802EB070C08789C452F
:103A400088BF9F1A314642463B46FFF763F818BBD2
:103A5000A069A0EB0800B8420AD206EB0031484644
:103A60004FF4805200F006FCA07900F0BF00A07176
:103A70003F038AE7A06940453FF473AFD4E90202EF
:103A80009042BFF46EAF0878494642460123FFF7E3
:103A900023F800283FF465AF01200DE0D4E90201CE
:103AA000884288BFE060A07940F02000A07100202B
:103AB00001B0BDE8F08F0220E07101B0BDE8F08FE9
:103AC0002DE9F04385B007460020386008461546CA
:103AD00000F0F2F900281BD4064640F29000C2F232
:103AE000000050F82640002C53D004F580583C606C
:103AF00098F8000070B198F80100FEF7FDFFC107CB
:103B000008D140070A21002D18BF01EAE07572E0D4
:103B10000B2570E0002088F80000F0B288F8016002
:103B2000FEF7B6FFC10736D1002D18BF10F0040014
:103B300033D1204600210025FEF744FC012822D184
:103B400001AE0020314600BF221892F8C231103079
:103B5000002B14BFD2F8C6210022402841F8042BC4
:103B6000F2D1002756F8275035B120462946FEF7F6
:103B700029FC022F03D906E00220022F03D80028D7
:103B800007F10107EED150B1032814BF0D2501251F
:103B900031E00C252FE003252DE00A252BE0B4F8B9
:103BA0000B00B0F5805F21D1E08A002808BF606A71
:103BB000237CC8F81800591E012988F8033017D84B
:103BC000617B4A1E0A40B1FA81F718BF01227F09C2
:103BD0003A4388F802100DD1677CA27C47EA0222A2
:103BE0007F06A8F808200AD00D2504E00D2502E084
:103BF0000D2500E00D25284605B0BDE8F083B4F89A
:103C00001360002E08BF266AE78947B100FB03FE58
:103C10000EEBD2133B449E4203D20D25EBE70D255C
:103C2000E9E7F61A8E4201D20D25E4E7B6FBF1F181
:103C300040F6F5764FF00109B1424FF6F57688BFB0
:103C40004FF00209B1424FF6F67688BF4FF00309F4
:103C5000B14201F1020C05EB07062B44C8F814C071
:103C6000C8E90756C8F8283002D39AB10D25C2E733
:103C7000002A5CD006EB0E02B9F1020FC8F824202E
:103C80000FBF4FEA4C020CEB4C0201F0010303EBB7
:103C9000520204E0E26AC8F824204FEA8C0202F6DD
:103CA000FF72B0EB123F01D20D25A4E74FF0FF30B9
:103CB0004FF6F672C8E903008020914288F80500AB
:103CC00025D3208E012822D1691C204600F0ECFA71
:103CD000E8B9B4F8FE114AF655220020914288F85E
:103CE000050014D1206845F25221C4F261118842C6
:103CF0000DD1D4F8E40147F27221C6F24111884295
:103D000005D1D4F8EC01D4F8E811C8E9030140F278
:103D1000B00088F80090C2F20000018801310180F3
:103D20002046A8F80610FEF7D9FB002563E70D250D
:103D300061E7000070B582B00446087804F580564B
:103D40005C28019101D02F2801D1481C0190002549
:103D50000198B5600078202806D220460021FEF7A1
:103D600041FE756102B070BD01A92046FEF76EFCF0
:103D700008B102B070BD01AD2046FEF743FDB16948
:103D8000C97A80B94907F4D47169C87AC00611D5D7
:103D9000306800F00FF9B06020462946FEF756FC67
:103DA0000028E9D0E5E70428E3D1490758BF0520FA
:103DB00002B070BD052002B070BD000010B582B029
:103DC000019043F2881001ACC2F2000021460122AA
:103DD000FF23FDF72DFD43F2CC10C2F20000214677
:103DE0000122FF23FDF724FD019802B010BD000061
:103DF0002DE9F041022930D300F580560446706960
:103E00000D46884229D93078032829D002283FD08E
:103E1000012822D1306A05EB550700EB1731204607
:103E200000F042FAD8BB306A07F101086FF31F3780
:103E3000E65D00EB1831204600F036FA78BB6FF3F0
:103E40001F3814F80800EA0746EA002108466FF315
:103E50001F3018BF0809BDE8F0810120BDE8F081DE
:103E6000306A00EB9521204600F01EFAB8B940F602
:103E7000FC7000EA850021188B784A78C9781B0409
:103E8000205C61F31B6343EA02210844BDE8F08132
:103E9000306A00EBD521204600F006FA18B14FF049
:103EA000FF30BDE8F08140F6FE7000EA4500205A80
:103EB000BDE8F081002070470268002A04BF4FF07F
:103EC000FF307047002300BFD15C0133212901D3AB
:103ED0003A29F9D13A291CBF002070471178A1F185
:103EE000300CBCF1090F84BF4FF0FF307047022B3C
:103EF0004FF0FF3105D1BCF1010F9EBFD118016019
:103F00006146084670470000F0B54FF4805240F219
:103F1000980C00F580568058C2F2000C0CF1040396
:103F2000002204E00132022A03F10C030ED053F800
:103F3000044C8442F6D11C68B568AC42F2D19D882D
:103F4000F488A542EED1022A03D022E00222022AFE
:103F50001FD140F2980EC2F2000E0022704600BF40
:103F600003682BB10132022A00F10C00F8D10222C1
:103F7000022A4FF0000008BFF0BD356802EB420393
:103F80000EEB8304B7684EF82350F38867602381F3
:103F9000608102EB42000CEB8000438931B1002BC1
:103FA0001CBF0020F0BD4FF4807100E0591C41811E
:103FB000501CF0BD4FF48052825C488B032A18BF1E
:103FC00070474A7D097D40EA026040EA014070473F
:103FD000FCF7F8FDFDF70CFEFDF7A6FCFDF706FD6E
:103FE000FDF720FDFDF7DCFCFDF78CFC44F65A7074
:103FF000C0F60000C4B242F20010C2F20000214636
:104000000122FFF76FFAD0B10D2840F0D28043F2C1
:104010008422C2F2000220460021FEF7A3FF0028FE
:1040200040F0CE80002021460122FFF75BFA42F2E9
:104030000010C2F2000021460122FFF753FA42F2BB
:10404000F80543F21026C2F20005C2F2000620462F
:1040500029463246FEF796FD002840F08080306801
:1040600041F202014218D2F81220405C6FF00701C1
:1040700001EB820143F27C242A684143C2F200042E
:104080002160504342F2FC018000C2F2000108604E
:10409000FCF7AEF84FF06A51FCF778F8FCF7ADF892
:1040A00002464BA00B4600F075FA2068FCF7A0F81A
:1040B0004FF06A51FCF76AF8FCF79FF802464AA0F5
:1040C0000B4600F067FA41F2CC00C2F200004CA1AE
:1040D0001322FFF73DFA002848D141F2B80441F21B
:1040E000CC0040F22001C2F20004C2F20000C2F291
:1040F000000164222346FFF70FFC00283DD1216810
:1041000042A000F047FA41F2CC04C2F2000420467B
:104110000021FEF7ADFDB8BB41F20C0041F2B8053D
:10412000225843F21521C2F20005C2F200012046D6
:104130002B46FFF7EBFA70BB29683CA000F02AFA87
:1041400043F2152141A0C2F2000100F023FA41F22E
:10415000CC00C2F20000FEF7FFFC18BBFEE744F6FD
:104160005D70C0F600008B21FCF736FB44F65D70F5
:10417000C0F600009721FCF72FFB44F65D70C0F6F7
:1041800000009A21FCF728FB44F65D70C0F60000A1
:104190009F21FCF721FB44F65D70C0F60000A221D0
:1041A000FCF71AFB44F65D70C0F60000A821FCF78E
:1041B00013FB44F65D70C0F600008321FCF70CFB96
:1041C00044F65D70C0F600007B21FCF705FB00BFE4
:1041D000667265652073706163653A20252E3266CC
:1041E000204D420D0A000000746F74616C207370E2
:1041F0006163653A20252E3266204D420D0A00008B
:10420000313A66696C652E7478740000636F756E60
:1042100074206F6620627566666572202877726901
:104220007465293A2025640D0A000000636F756EDD
:1042300074206F66206275666665722028726561FB
:1042400064293A2025640D0A00000000257300004F
:10425000002300BF0B2B09D010F803C0CA5C013348
:10426000BCEB02021CBF10467047F3E70022104669
:1042700070470000002A08BF70470139013800BFAD
:1042800011F8013F013A00F8013FF9D170470000F1
:10429000002A08BF704780B5CBB211461A46FBF71B
:1042A00063FFBDE880407047F0B581B0064641F23B
:1042B0002C003058884201D1002416E030460D46CB
:1042C00000F01AF9044680B941F201003718387835
:1042D00031462A4601230126FEF7FEFB00281CBFBB
:1042E0004FF0FF353446C7F82B50204601B0F0BDE3
:1042F0002DE9F04381B0022921D300F5805704460F
:1043000078690E4688421AD93878154603281AD09B
:10431000022833D0012812D1386A06EB560900EB87
:1043200019312046FFF7C0FF002845D109F10108E7
:1043300016F001066FF31F392DD1E8B231E00220EB
:1043400001B0BDE8F083386A00EB96212046FFF704
:10435000ABFF88BB40F6FC7101EA86016218D37896
:10436000655403F0F003290A45EA03635170290CF0
:104370009170190ED170012139711DE0386A00EB7E
:10438000D6212046FFF790FFB0B940F6FE7101EA52
:104390004601655222E014F8090000F00F0065F3B1
:1043A0000B1004F80900396A0120387101EB18314B
:1043B0002046FFF779FF10B101B0BDE8F0836FF33D
:1043C0001F383EB914F80810C5F3032201F0F001BC
:1043D000114401E0C5F3071104F8081001213971F7
:1043E00001B0BDE8F08300002DE9F041022934D38B
:1043F000804641F2050008EB0004D4F80F000E4699
:1044000088422AD9D4F80F000025B04207D8E8B274
:10441000BDE8F081D4F80F003E468742F7D240460F
:104420003146FFF7E5FC074601301AD0002FEED0E9
:10443000012F12D0404631460022FFF759FF0546B2
:104440000028E4D1D4F80B000130E3D02178C4F87F
:104450000B0041F001002070DCE70225E8B2BDE866
:10446000F0810125E8B2BDE8F081000041830A0C2B
:10447000090E027541757047F0B581B0054600F030
:104480003BF80446A0BB05F580563078032827D1B9
:104490007079012824D1284600214FF4805200274A
:1044A000FFF7F6FE4AF65520A5F8FE0145F2522028
:1044B000C4F26110286047F27220C6F24110C5F8BC
:1044C000E401D6E903100123C5F8E801F069C5F855
:1044D000EC11421C70782946F262FEF71BFB7771E3
:1044E000707800210022FEF7E9FA002818BF0124A5
:1044F000204601B0F0BD0000F0B581B0044641F2A5
:104500000400205C30B341F201002718D7F82B508B
:10451000387821462A4601230126FEF7FBFAD0B956
:10452000D7F81F00D7F81710281A00268842FE7007
:1045300011D2BE78022E11D3D7F8171038780D4457
:1045400021462A460123FEF7E5FA013E012EF3D863
:10455000002600E00026304601B0F0BD0026FAE754
:1045600080B5A0B100F58050016881B101F580519E
:104570000A7862B1CA888088824208D14878FEF7FA
:10458000BBFA00F00100404200F0090080BD0920A4
:1045900080BD00000FB4054B10B503A9044A029872
:1045A00000F0DAF810BC5DF814FB0000BD3D000817
:1045B0000000002002E008C8121F08C1002AFAD13A
:1045C00070477047002001E001C1121F002AFBD193
:1045D000704700002DE9FF5F82B00021DDE9043063
:1045E000020DDDF840B0034318D044F61050A2F29B
:1045F000FF3242431514119801281FD0A5EB0B0080
:10460000401C5FEA000A4FF000064E4FDFF8389179
:10461000B046504615D5CAF1000413E011980124A4
:104620004AA3012801D16FEA0B010298119AC0E94F
:104630000031C0E9024206B0BDE8F09FCBF10000B6
:10464000DFE704460021404A491842EB0450CDE917
:10465000001012E0E00707D032463B46404649468C
:10466000FBF703FF8046894632463B461046194613
:10467000FBF7FBFE06460F466410002CEAD1DDE98D
:104680000401DDE90023BAF1000F06DAFBF7EDFEC5
:1046900042464B46FBF7E9FE05E0FBF758FF424672
:1046A0004B46FBF754FF04460E460022284BFBF70F
:1046B000D5FF03D84FF0FF30014607E00022254B1D
:1046C00020463146FBF72AFEFBF7B0FF102409E035
:1046D000002C0ADB0A220023FBF7B8FD039B3032D3
:1046E0001A55641E50EA0102F2D1641C039AC4F107
:1046F00011031444119A012A03D0012208430DD159
:104700000AE0084304D000204FF0110B119072E72B
:10471000A3EB0B056D1E0DE05B4504DD4FF00002C1
:1047200005F1010504E003DA4FF00002A5F10105EF
:10473000002AECD002981199C0E90231C0E9004585
:1047400079E70000000014400000F03F3000000056
:104750000000F0430000E03F2DE9FF4F95B09B467D
:104760008946064600250FE2252877D100242746F2
:10477000F84A0121059400E0044316F8013F203B6C
:1047800001FA03F01042F7D130782A2811D06FF0E7
:104790002F033078A0F13002092A16D8059A44F088
:1047A000020402EB820203EB42021044761C0590E5
:1047B000EFE759F8042B0592002A03DA504244F43B
:1047C0000054059044F00204761C30782E2816D14F
:1047D00016F8010F44F004042A280DD06FF02F02C0
:1047E0003078A0F13003092B09D807EB870302EBDF
:1047F0004303C718761CF3E759F8047B761C30781E
:104800006C280FD006DC4C2817D068280DD06A28F9
:1048100014D104E0742810D07A280FD10DE044F4AC
:1048200000140AE044F4801401E044F44014727867
:10483000824202D104F58014761C761C30786628FA
:104840000BD013DC582877D009DC002875D0452818
:10485000F6D04628F4D047281AD19DE118E0632805
:1048600035D0642879D0652812D195E1702873D0AD
:1048700008DC6728F1D069286FD06E280DD06F282A
:1048800006D1B5E073282CD0752875D0782874D05F
:104890005A46179990476D1C75E1C4F302500228DF
:1048A00009D003280DD0D9F8001004280DD00D60D0
:1048B00009F1040967E1D9F80010EA17C1E90052CB
:1048C000F6E7D9F800100D80F2E70D70F0E719F85F
:1048D000041B8DF8001000208DF80100EA4601202D
:1048E00003E059F804AB4FF0FF3061074FF00001CF
:1048F00002D40DE008F101018846B9420FDA804583
:10490000F8DB1AF808100029F4D108E008F10101D9
:1049100088468142FADB1AF808100029F6D105987A
:104920005B46A0EB080721463846179A00F094FA38
:10493000284400EB080507E04DE029E10DE01AF8F6
:10494000010B5A4617999047B8F10108F7D25B4618
:1049500021463846179A13E142E00A220092C4F336
:1049600002524FF0000A022A08D059F804CB032A59
:104970004FEAEC710AD00DE029E02AE009F10701C5
:1049800021F00702F2E802C1914609E00FFA8CFC1F
:104990004FEAEC71042A03D14FFA8CFC4FEAEC7118
:1049A000002907DA0A460021DCF1000C61EB020164
:1049B0002D2202E0220504D52B228DF804200122AD
:1049C00003E0E20701D02022F7E7904659E00A21F0
:1049D00002E010220DE010214FF0000A00910BE0E0
:1049E00010224FF0000A44F004040827009203E06C
:1049F00008224FF0000A0092C4F30252022A05D0A6
:104A000059F804CB0021032A08D009E009F1070175
:104A100021F00702F2E802C1914605E01FFA8CFC82
:104A2000042A01D10CF0FF0C4FF00008220728D512
:104A3000702806D0009B83F0100353EA0A0305D0C8
:104A40000EE040228DF80420012208E05CEA010219
:104A500006D030228DF804208DF805000222904601
:104A6000009B83F0080353EA0A030AD15CEA0102BF
:104A700001D1620705D530228DF804204FF00108DE
:104A80007F1E582804D034A003900EA802900DE099
:104A900036A0F9E753466046009AFBF7D7FB8446F9
:104AA0000398825C0298401E029002705CEA01004A
:104AB000F0D1029806A9081A00F1200A600702D571
:104AC00024F4803400E00127574502DDA7EB0A00FB
:104AD00000E0002000EB0A01009005984144401AD4
:104AE0000590E00306D45B462146179A059800F02E
:104AF000B3F90544002706E001A85A46C05D17999E
:104B000090476D1C7F1C4745F6DBE0030CD55B46E8
:104B10002146179A059800F09FF9054404E03020DB
:104B20005A46179990476D1C0099481E009000291D
:104B3000F5DC08E0029802995A460078491C029177
:104B4000179990476D1CBAF10001AAF1010AF1DC36
:104B500065E1000009280100303132333435363741
:104B600038396162636465660000000030313233B9
:104B70003435363738394142434445460000000059
:104B800000F058F90544761C307800287FF4ECAD2D
:104B900019B02846BDE8F08F620700D4062709F156
:104BA000070222F0070CFCE80223E14603F000486C
:104BB0005FEA080C02D00FF2702C0DE05FEA045C93
:104BC00002D50FF2682C07E05FEAC47C02D00FF236
:104BD000602C01E0AFF2700C4FF0FF3823F000437F
:104BE000CDF850C065280CD006DC452809D04628F1
:104BF0001DD047283DD13DE0662818D067287ED1DA
:104C000038E00021112F01DB112000E0781CCDE9F4
:104C1000000106A90EA8FFF7DDFCDDE90F010E9AE1
:104C200003910021009207F1010A04914DE04FF039
:104C300000400097CDE9011006A90EA8FFF7CAFCB5
:104C4000DDE90F0203920E9B11990022DDF80CA002
:104C50000093049211B9791C00EB010AB7EB0A002A
:104C600004D4C0F1FF3007F1010A0490AAEB070059
:104C7000019044E0012F00DA01270021112F01DD0E
:104C8000112000E03846CDE9000106A90EA8FFF783
:104C9000A1FCDDE90F010E9A03910021049100921D
:104CA000BA4621070CD40399514500DA8A46BAF175
:104CB000010F05DD009AAAF10101515C302908D0ED
:104CC000B84202DA10F1040F06DA0121CDE9011031
:104CD00015E0AAF10101E9E7002805DC0499014487
:104CE0000491AAEB000102E0411C514500DD8A4617
:104CF0000499401A401C01904FF000400290200798
:104D000004D40198504501DBCDF8048000208DF8D3
:104D10004F0002980DF14F07B0F1004F25D02B2026
:104D20000E9002984FF0020800280CDA40420290E0
:104D30002D200E9007E00A210298FBF771FA30311E
:104D4000029007F8011DB8F10001A8F10108F2DC9A
:104D500002980028EFD1791E0E980870307800F084
:104D6000200040F0450007F8020D12A8C01B00F11A
:104D700007081498007800B1012000EB0A0101989F
:104D800001EBE07105984144401A401E0590E00394
:104D900006D45B462146179A059800F05DF8054455
:104DA0001498007818B15A46179990476D1CE00383
:104DB00024D55B462146179A059800F04DF8054426
:104DC0001CE00498002807DBDDE90301884203DDCD
:104DD0000098405C179901E0179930205A46904797
:104DE000049805F10105401C04900198401E0190B3
:104DF00004D12E205A46179990476D1CBAF1000134
:104E0000AAF1010ADDDC05E017F8010B5A461799F3
:104E100090476D1CB8F10001A8F10108F4DC5B4675
:104E20002146179A0598ABE62D0000002B000000E4
:104E3000200000002DE9F041044600251E461746DB
:104E4000880404D405E039462020B0476D1C641E58
:104E5000F9D52846BDE8F0812DE9F041044600254A
:104E60001E469046C80301D5302700E0202788045D
:104E700004D505E041463846B0476D1C641EF9D59F
:104E80002846BDE8F081000010B5044601E0FEF7B9
:104E900095FF14F8010B04490028F8D1BDE8104033
:104EA0000A20FEF78BBF0000000000200000000079
:104EB00000000000010203040607080900000000CA
:104EC00001020304809A90B68EB78F80D2D3D4D8D3
:104ED000D7DE8E8F909292E299E3EAEB59999A9DF0
:104EE0009C9D9E9FB5D6E0E9A5A5A6A7A8A9AAABBB
:104EF000AC21AEAFB0B1B2B3B4B5B6B7B8B9BABB06
:104F0000BCBDBEBFC0C1C2C3C4C5C7C7C8C9CACB68
:104F1000CCCDCECFD0D1D2D3D4D5D6D7D8D9DADB59
:104F2000DCDDDEDFE0E1E2E3E5E5E6E7E7E9EAEB49
:104F3000EDEDEEEFF0F1F2F3F4F5F6F7F8F9FAFB38
:104F4000FCFDFEFF00800040002000100008004033
:104F500000200010000800040002303A002E2E2F1E
:104F6000436F72652F5372632F6D61696E2E6300FC
:104F7000222A2B2C3A3B3C3D3E3F5B5D7C7F000070
:104F80000004000200018000400020001000080022
:104F90000400020000000000B84F000800000020DC
:104FA00090000000B4450008485000089000002020
:104FB000F8790000C445000800000000010000006E
:104FC0000024F400AD1E00081D1F0008091F000882
:104FD000211F0008D11E000868656C6C6F20757970
:104FE0006B00000000000000000000000000000056
:104FF00000000000000000000000000000000000B1
:1050000000000000000000000000000000000000A0
:105010000000000000000000000000000000000090
:105020000000000000000000000000000000000080
:10503000000000000000000000000000010000006F
:08504000100000000000000058
:0400000508000131BD
:00000001FF
