:020000040800F2
:100000005033002075020008D32100087F2000082B
:10001000D1210008F711000849260008000000005F
:10002000000000000000000000000000252400087F
:10003000F9110008000000004D23000827240008E3
:100040008F0200088F0200088F0200088F0200084C
:100050008F0200088F0200088F0200088F0200083C
:100060008F0200088F0200088F0200088F0200082C
:100070008F0200088F0200088F0200088F0200081C
:100080008F0200088F0200088F0200088F0200080C
:100090008F0200088F0200088F0200088F020008FC
:1000A0008F0200088F0200088F0200088F020008EC
:1000B0008F0200088F0200088F0200088F020008DC
:1000C0008F0200088F0200088F0200088F020008CC
:1000D0008F0200083D2600088F0200088F020008EA
:1000E0008F0200088F0200088F0200088F020008AC
:1000F0008F0200088F0200088F0200088F0200089C
:100100008F0200088F0200088F0200088F0200088B
:100110008F0200088F0200088F0200088F0200087B
:100120008F0200088F0200088F0200088F0200086B
:1001300000F002F800F075F80AA090E8000C824484
:100140008344AAF10107DA4501D100F06AF8AFF261
:10015000090EBAE80F0013F0010F18BFFB1A43F0A5
:1001600001031847C4550000E45500000A444FF04D
:10017000000C10F8013B13F0070408BF10F8014B06
:100180001D1108BF10F8015B641E05D010F8016B4B
:10019000641E01F8016BF9D113F0080F1EBF10F8AF
:1001A000014BAD1C0C1B09D16D1E58BF01F801CBD2
:1001B000FAD505E014F8016B01F8016B6D1EF9D555
:1001C0009142D6D37047000000230024002500266A
:1001D000103A28BF78C1FBD8520728BF30C148BFAA
:1001E0000B607047662905F0A481642900F0E68061
:1001F000732900F05685002070471FB59DE8030065
:1002000000F0C4FD00F0B3F900F0A4FD04000020EC
:10021000002104F0C7FCE06000F044FA1FBD10B5F7
:1002200010BD00F0F1FE1146FFF7E7FF03F08AFF73
:1002300000F029FF03B4FFF7F2FF03BC03F036FF21
:100240000B49D1F800C04A685CF8043B10681844B8
:1002500042F8040B8C4528BFA1F1DC0C8A4228BF70
:10026000A1F1DC02C1F800C04A6020F000407047F4
:100270008C0600200948804709480047FEE7FEE752
:10028000FEE7FEE7FEE7FEE7FEE7FEE7FEE7FEE746
:1002900004480549054A064B704700007F240008C2
:1002A000310100085023002050330020502B002043
:1002B000502B002070B5A0FB0140B4F1805170F1CB
:1002C000000024BF002070BD204600F0FDF90500AD
:1002D0001CBF214600F099F9284670BD0FB40449AF
:1002E00010B503AA029800F0E1FC10BC5DF814FB05
:1002F000DC1500200FB41CB5074B06AA7B446946E9
:100300000090059800F0A3FC0020694600F0B2FCC4
:100310001CBC5DF814FB00007509000070B50446B4
:1003200085690068C10601D5302600E02026C00797
:1003300007D070BDD4E9012130469047206A401CA7
:1003400020626D1EF6D570BD70B5044685690078D3
:10035000C00707D170BDD4E9012120209047206A51
:10036000401C20626D1EF6D570BD70B50C4605466A
:10037000012A05D02878800600D5EA69002302E02A
:10038000012305E05B1C934202D2E05C0028F9D116
:10039000A869E618C01AA861286A18442862284685
:1003A000FFF7BCFF04E0D5E9012114F8010B9047E9
:1003B000B442F8D32846FFF7C7FF70BD2DE9F041DE
:1003C0000646002410687529314616A510D0AFF3F3
:1003D0000080002802DA404213A507E031688A074E
:1003E00001D512A502E0490704D511A5012401E0B9
:1003F000AFF3008000210A2206F1240709E0B0FBD8
:10040000F2FCB0FBF2F302FB1C00303078541846CB
:10041000491C0028F3D123462A463046BDE8F04166
:1004200000F0A8B9000000002D0000002B00000023
:10043000200000002DE9F0474FF0000A89460446ED
:10044000C0F820A02046E1688847002876D02528FB
:1004500006D0D4E901219047206A401C2062F1E7D0
:10046000E168204600258847C4F81CA006460027FE
:10047000C4F818A02A2E09D0304604F08BFB38B3FC
:1004800004EB8708303EC8F8186019E059F8041BDF
:10049000204604EB87029161E1688847012F0646F8
:1004A00018D1E069002820DA25F020051DE0D8F8F1
:1004B000180000EB800006EB40003038C8F8180048
:1004C0002046E1688847064604F064FB0028EED128
:1004D000012F0AD02E2E08D12046E16888477F1CC4
:1004E0000646022F45F02005C4DBA069002803DA88
:1004F000404245F00105A061E80701D025F0100554
:10050000B6B1A6F14100192802D8203645F400659D
:100510004A463146204625604D46FFF763FE58B1F6
:10052000012806D0ED1D25F0070000F1080989E734
:1005300004E005F1040985E730468AE7206ABDE852
:10054000F08700000B4910B5A1F17C020A4CC2E90A
:100550003712372106E000EB104342F82130074BF9
:1005600000FB03400B1EA1F10101F4DC10BD0120D2
:10057000E8E700002C060020E119D666CD0D010049
:10058000032A40F2308010F0030C00F0158011F8BF
:10059000013BBCF1020F624498BF11F801CB00F897
:1005A000013B38BF11F8013BA2F1040298BF00F8EB
:1005B00001CB38BF00F8013B11F0030300F0938337
:1005C000083AC0F0088051F8043B083A51F804CBCF
:1005D000A0E80810F5E7121D5CBF51F8043B40F895
:1005E000043BAFF30080D20724BF11F8013B11F8A0
:1005F00001CB48BF11F8012B24BF00F8013B00F8E4
:1006000001CB48BF00F8012B70474FF000020429CE
:10061000C0F0128010F0030C00F01B80CCF1040C31
:10062000BCF1020F18BF00F8012BA8BF20F8022B65
:10063000A1EB0C0100F00DB85FEAC17C24BF00F80B
:10064000012B00F8012B48BF00F8012B70474FF039
:10065000000200B5134694469646203922BFA0E812
:100660000C50A0E80C50B1F12001BFF4F7AF09071E
:1006700028BFA0E80C5048BF0CC05DF804EB89000F
:1006800028BF40F8042B08BF704748BF20F8022B52
:1006900011F0804F18BF00F8012B7047704770476A
:1006A0007047000070B5064C7C44064D7D4404E064
:1006B0002046016808448047241DAC42F8D170BD33
:1006C000B8500000B850000070B5064600F03EFB80
:1006D000056806F10B0020F00704B4429CBF00201F
:1006E00070BD2B466A68BAB11068A04210D304F1FD
:1006F000080188423CBF5068586007D35168101900
:1007000041601168091B016058601460101D70BDC4
:1007100013465268002AE7D12146284600F022FB02
:100720000028DED170BD70B50446051F00F00EFB39
:100730000068002C14BF446870BD002C18BFAC4288
:100740003CBF20466468F8D301680A18AA4218BF63
:10075000456003D12A6805461144016028684119A3
:10076000A1421CBF6C6070BD61686960216808446B
:10077000286070BD2DE9F0470D4699469246044623
:1007800000F124080168880604D5E06921F0100111
:10079000216000E00120A84201DD471B00E00027A6
:1007A000A1697A1902EB0900081AA0612078C00635
:1007B00002D42046FFF7B2FD002608E0D4E901216B
:1007C0001AF806009047206A401C761C20624E45AD
:1007D000F4DB2078C0060AD52046FFF79FFD06E02F
:1007E000D4E9012130209047206A401C2062381E45
:1007F000A7F10107F4DC07E0D4E9012118F80500AE
:100800009047206A401C2062281EA5F10105F3DCF8
:100810002046FFF799FD2078000602D50220BDE8AA
:10082000F0870120FBE72DE9FF4F0C461E464FF0F5
:10083000FF378BB0D2E90001DDF860800A908A466C
:10084000C1F30A5505B93D46002108464FF00000A6
:10085000BAF1000F00F4400005DA00EB80004FF41D
:10086000400101EA50004FEA9059B9F1010F00DD53
:10087000B9460A9850EA4A000ED044F61050A5F244
:10088000FF3545432F14B8F1000F1ED07542291EC5
:100890001EDDC9F100021CE0B8F1010F4FF00000AD
:1008A00001D0302103E0F24305E02154401CB04266
:1008B000FBDB30460022002121540B99C1F808804F
:1008C000C1E900200FB0BDE8F08FBD1B6D1CDEE755
:1008D0004A4600DA694206A800F014FB06AB93E82A
:1008E000070003AB83E8070050460A9903F076FD42
:1008F0008DE80700A0F500501F3800900398002DE8
:100900000ADD42F21F014A460844002303A903906E
:10091000684603F0DFFF09E0A0F500504A461F38A3
:10092000002303A90390684603F0E9FF8DE8070060
:100930000004000C03D04FF0FF30410800E01046E7
:10094000B8F1000F03D00022009215461EE0751E7C
:1009500005D400F051FA303262556D1EF9D5B34618
:100960000122084302D000227F1C04E020783028B6
:1009700001D100227F1E002A099784D01DE0112D8D
:1009800007DA00F039FA303262556D1C50EA010284
:10099000F5D1084302D00098C8B10EE00021681ECE
:1009A00005E0235C625C63542254401E491C814272
:1009B000F7DBAB46A81B401E0990002004F80B0093
:1009C0000B98099AC0F80880C0E9002B7AE7112635
:1009D0004FF0000857E72DE9F04F88460446D21D36
:1009E00022F0070191B0D1E90001CDE90A0104F03C
:1009F000BDF802460B98C00F01D02D2007E02068FB
:100A0000810701D52B2002E0202101EAC000032A42
:100A1000099001D0072A05DB03464146204600F035
:100A200031FA0BE12078800601D5E06900E006206C
:100A3000B8F1650F814606D0B8F1660F18D0B8F14D
:100A4000670F70D131E00020B9F1110F009001DB88
:100A5000112301E009F101030AAA01A90CA8FFF77B
:100A6000E2FEDDE90C70002609F10105834647E04E
:100A700001204B4600904FF000470AAA01A90CA89C
:100A8000FFF7D1FEDDE90DB00C995D46002610B9E7
:100A900009F101000D18B9EB050003D4C0F1FF36D0
:100AA00009F10105A5EB09002BE0B9F1010F01DA0D
:100AB0004FF001090020B9F1110F0090484601DD07
:100AC000112300E003460AAA01A90CA8FFF7ABFE18
:100AD000DDE90C704D4600268346207800070AD4D5
:100AE000AB4500DA5D4601A8012D04DD411911F87E
:100AF000011C302907D04F4502DA17F1040F04DA40
:100B0000012082460FE06D1EEEE7002F02DCED1B98
:100B10003E4403E0781CA84200DD7D1CB81B00F1B8
:100B2000010A4FF000472078000703D4AA4501DBF3
:100B30004FF0FF3A0021B7F1004F0DF143088DF857
:100B4000431024D002202B23002F01DA7F422D23D3
:100B50000A21021EA0F1010000DC5FB197FBF1FC4D
:100B600097FBF1F201FB1C7C17460CF1300C08F8E6
:100B700001CDEEE7A8F1010003702188090501D538
:100B8000452100E06521A0F1010800F8011C099849
:100B90000FA9A1EB0807FF1D00B10120411901EBCE
:100BA000EA70A1693844081A401EA0612078C00686
:100BB00002D42046FFF7B2FB099828B1D4E90121FD
:100BC0009047206A401C20622078C00622D520462B
:100BD000FFF7A4FB1EE0002E04DBB34502DD01A8F5
:100BE000805D00E03020D4E901219047206A401C5C
:100BF0002062761CAAF101005FEA000A0AD100F027
:100C0000A9F8C0680168405CD4E901219047206AD6
:100C1000401C2062281EA5F10105DCDC07E0D4E9B8
:100C2000012118F8010B9047206A401C2062381EF1
:100C3000A7F10107F3DC2046FFF786FB032011B084
:100C400041E6000001694A1C02610878704700B55E
:100C50008FB0CDE901310021059105497944CDE9F5
:100C6000031011466846FFF7E5FB0FB000BD00001A
:100C7000E5FFFFFF0A6802F8010B0A60704710B534
:100C8000436913B1AFF3008001E0FFF76EFB012071
:100C900010BD127800F124010A7000224A7001226E
:100CA000EDE711684FF0FF32E9E70000074B70B540
:100CB0000D467B44FFF7CBFF0446284600F094F92D
:100CC00010B14FF0FF3070BD204670BDFF33000003
:100CD00010B5002000F08CF9FFF7A1FABDE8104034
:100CE000012003F0E3B910B5203AC0F00B80B1E861
:100CF0001850A0E81850B1E81850A0E81850203A51
:100D0000BFF4F5AF5FEA027C24BFB1E81850A0E859
:100D1000185044BF18C918C0BDE810405FEA827C73
:100D200024BF51F8043B40F8043B08BF7047D2078A
:100D300028BF31F8023B48BF11F8012B28BF20F82B
:100D4000023B48BF00F8012B704700000048704785
:100D50009C06002000487047B4060020704770478A
:100D60007047704738B504460A4600206946AFF31D
:100D70000080002808BF38BD02460099204600F0D8
:100D800068F9012038BD012000F0A4B9F8B5AFF32F
:100D90000080054600200C46102000BF0646A8191A
:100DA000A0420DD9324669460020AFF3008007000B
:100DB00008BF00F08FF90098A04218BF0546C4197B
:100DC000FFF7C4FF05600746F01D20F00700461935
:100DD000284600F00AF8B44208BFF8BDA21B31460D
:100DE0003868BDE8F84000F034B900210160C0E97E
:100DF000011070471020704730B5B0F10A0271F150
:100E000000034FEA900E4EEA817EB0EB0E0061EBDC
:100E100091014FEA101E4EEA017E10EB0E0041EBED
:100E200011114FEA102E4EEA016E10EB0E0041EB4D
:100E300011214FEA104E4EEA014E10EB0E0041EB2D
:100E40001141401841F100014FEAD00040EA4170E1
:100E50004FEAD1014FEA810444EA907410EB800517
:100E600044EB01046D1944EB0404521BA3414FF001
:100E7000000348BF0A3200D530BD401C41F10001DB
:100E800030BD00002DE9F0411F46044603260168ED
:100E9000072A01F4006004DB08B116A505E016A5D9
:100EA00003E008B115A500E015A521F010002060B1
:100EB000A069C01EA0610FB1401EA0612046FFF7CF
:100EC0002DFA4FB1D4E9012138469047206A401CE1
:100ED0002062C01C206206E0206AFAE7D4E9012102
:100EE00015F8010B9047761EF8D22046FFF72CFA32
:100EF000BDE8F0814E414E006E616E00494E4600E5
:100F0000696E66002DE9F047814616468AB035487D
:100F100078440DC88DE80D0032487844801C03AC3D
:100F20000DC884E80D0041F69B300844372190FB42
:100F3000F1F290FBF1F5A5F1800501FB12041B3CD9
:100F400002D56442012000E00020DFF898A080462E
:100F50000027FA44AAF1BE0A0EE0E0070AD03246A2
:100F6000684607EB470101230AEB810103F0C7FC48
:100F70008DE8070064107F1C002CEED1194F7F44D0
:100F8000AE3F19E0E80715D007EB04100DF1180A81
:100F900090E80E008AE80E00C068F04201D198196E
:100FA00008903246012306A903A803F0A8FC03AB6E
:100FB00083E807006D10641C002DE3D14FF001039E
:100FC00032466946B8F1000F03A802D003F082FC54
:100FD00001E003F094FCC9E90001C9F808200AB057
:100FE000BDE8F087A0460000007B00F0800070475D
:100FF00010B500F057F8BDE8104000F04DB8000003
:1010000000487047940600207546FFF7F9FFAE468A
:1010100005006946534620F00700854618B020B504
:10102000FFF736F9BDE820404FF000064FF000070B
:101030004FF000084FF0000BAC46ACE8C009ACE83C
:10104000C009ACE8C009ACE8C00921F007018D4631
:101050007047034640688C46002818BF88423CBF52
:1010600003464068F8D318681844884207D00CF14A
:10107000030020F00700001D411A521A0146081D06
:101080000A60FFF750BB10B50446AFF3008020465E
:10109000BDE81040FFF7CEB8002801D003F006B835
:1010A0007047000010B5002102A000F05CF801209C
:1010B00010BD0000534947414252543A2041626EEC
:1010C0006F726D616C207465726D696E6174696FA9
:1010D0006E00000010B500F05FF8BDE81040FFF7AB
:1010E000DBBF00004FF0013C50F8042B51F8043BEB
:1010F0009A4221D1A2EB0C03934313EACC1317D1EC
:1011000050F8042B51F8043B9A4215D1A2EB0C0382
:10111000934313EACC130BD150F8042B51F8043B42
:101120009A4209D1A2EB0C03934313EACC13DBD010
:101130004FF00000704700BFD01A01BAB1FA81F138
:1011400001F0180122FA01F0CB40DBB2C0B2C01AA4
:10115000C1F120012CFA01F3D11A914311EAC31114
:10116000E6D17047704770B505460C460A2000E08E
:101170006D1C00F039F835B128780028F8D102E06C
:10118000641C00F031F814B120780028F8D1BDE8D3
:1011900070400A2000F028B810B5012805D00021C1
:1011A00003A0FFF7E0FF012010BD09A1F8E7000050
:1011B00053494752544D454D3A204F7574206F6640
:1011C0002068656170206D656D6F727900000000A8
:1011D0003A2048656170206D656D6F727920636F8C
:1011E000727275707465640008B569468DF8000008
:1011F0000320ABBE08BDFEE77047704710B590F8FE
:101200002110022911D10168D0E90F230C6824F0C4
:101210000E040C600C6824F001040C60012180F8BD
:10122000211099405160002102E0042181630121D5
:10123000002280F82020084610BD000010B590F86C
:101240002110022919D10268116821F00E011160E4
:10125000116821F001011160294901F17C039A42D2
:101260000FD92F4B9A4224D02E4B9A4223D02E4B8B
:101270009A4222D14FF4807327E004218163012038
:1012800010BD204B9A4226D01F4B9A4225D01F4BAF
:101290009A4224D01E4B9A4224D01E4B9A4217D019
:1012A0001D4B9A4221D01D4B9A4211D14FF08072B2
:1012B0001DE0012309E0102307E001F588644FF4E5
:1012C0008033A24208BF4FF48053C1F800340FE0CE
:1012D0004FF480320BE0012209E0102207E04FF4C6
:1012E000807204E04FF4805201E04FF480120A60F3
:1012F0004FF480710184416B01B18847002010BD1B
:1013000004000240080002401C000240300002407D
:1013100044000240580002406C000240800002403D
:10132000080402401C04024030040240B0B50446E8
:1013300000F0E2F805468D48611C007818BF0444AF
:1013400000F0DAF8401BA042FAD3B0BD2DE9FC4F03
:1013500081465B4806235C4E4FF0000B4FF00108BE
:101360004FF00F0E4FF0000A8145564808BF052385
:1013700048444FEAB022052A38BF4FEAB023009311
:1013800000220C6834FA02F508BFBDE8FC8F08FAA9
:1013900002F52C4200F08F804F68032F16D9112FD1
:1013A00026D0122F28D04A48874213D04948874276
:1013B00010D0494887420DD0484887420AD0484853
:1013C000874207D04748874204D022E0DFE807F091
:1013D00002181B1F8C6844B1012C14BFC9F81450AB
:1013E000C9F810504FF0080A13E04FF0040A10E05B
:1013F000CC6804F1040A0CE0CC6804F10C0A08E0A3
:10140000D1F80CA005E0CC6804F1080A01E04FF027
:10141000000A5C464846082A334628BF203C28BFBD
:10142000043006680EFA04F70AFA04F4BE433443A3
:101430000460C879C00601D41E463CE05A4C22F034
:1014400003061E44206840F001002060206800F080
:10145000010001900BF00C00019F0EFA00F4224FE6
:10146000BC46F75927EA0404009F07FA00F020431E
:1014700046F80C001E464F68F803186854BF20EA6F
:10148000050440EA05041C60104BB803706854BFA3
:1014900020EA050440EA05047460F802B06854BF0D
:1014A00020EA050440EA0504B460B802186854BF95
:1014B000A843284318600BF1040B013261E700BF19
:1014C000001C014000F8FEBF000401400C04014074
:1014D0000000111000001210000021100000221066
:1014E000000031100000321008FCFFFF002A08BF86
:1014F000090401617047000005480068704700BF9B
:101500001A48034900780A6810440860704700BF11
:101510004823002080B58E48016841F01001016029
:10152000032000F06DF8002000F004F800F020F82F
:10153000002080BD70B50D4E04464FF47A713078AE
:10154000B1FBF0F08F490968B1FBF0F000F0DAFB75
:1015500001250F2C08D838B94FF0FF302146002262
:10156000002500F031F87460284670BD00000020AE
:1015700082B00D480222016841F00101016001685A
:1015800001F0010101910199416841F080514160F0
:10159000406800F08050009000980448016862F3B1
:1015A0001A61016002B07047181002400400014047
:1015B000002806D4734600F04AFE9E46014A42F8CF
:1015C0002010704700E100E070B5134B4FF0FF357D
:1015D0001B68C3F30223DC1E83F0070338BF00241B
:1015E00005FA04F6B243042B28BF042305FA03F3DB
:1015F0009943A1401143BDE8704002F045BD00BFD2
:1016000005494FF6FF030A681A4060F30A220348AF
:1016100010430860704700BF0CED00E00000FA05C1
:101620002DE9F84300286CD08846494904460868EB
:1016300000F0070040450AD2086820F0070040EAA1
:1016400008000860086800F00700404559D120688C
:101650005B4B8946810711D5410703D5196841F4D1
:10166000E0611960010703D5196841F46051196000
:10167000A1681A6822F0F00211431960C00737D13F
:10168000D9F8000000F0070040450DD9D9F8000056
:1016900020F0070040EA0800C9F80000D9F800006F
:1016A00000F0070040452CD12068410705D5E168CE
:1016B0001A6822F4E06211431960000706D5206918
:1016C000196821F4605141EAC00018601C4600F01E
:1016D0005DF821681F4AC1F30311515CC8402949D4
:1016E00008601D480068FFF725FF0020BDE8F8836B
:1016F0006068022808D0012825D153F8041C89030A
:1017000006D40120BDE8F88353F8041C8901F8D5FC
:1017100019681D4621F0030108431860FFF7ECFE2D
:10172000064641F28837606829682B4601F00C01B3
:10173000B1EB800FA4D0FFF7DFFE801BB842F2D9D7
:101740000320BDE8F88353F8041C8907D9D5DFE7E7
:1017500000200240CC55000804000020DD48184954
:10176000094A00680968C1F30221515CC84070470A
:10177000D8481349044A00680968C1F3C221515C82
:10178000C840704708000020DC55000810B50C491F
:101790000C480A6802F00C03082B07D1C2F38343FC
:1017A00009A4D203E35C02D40C48584310BD096875
:1017B00009A25843C1F34041515CB0FBF1F010BDA8
:1017C0000410024000127A0002030405060708090B
:1017D0000A0B0C0D0E0F10100102000000093D0055
:1017E0002DE9FC41002800F09C8004460078B74EAB
:1017F000C0071FD0706800F00C00042814D000F05F
:101800004EFD02D17068C0030ED46068002800F05D
:101810001481B0F5A02F00F02181B0F5803F00F0D9
:10182000218100F0E5FC20E13068800302D560688A
:10183000002876D02078800716D5706810F00C0F3D
:1018400005D000F02CFD24D17068C00321D430688D
:10185000800702D52069012863D16069316821F0D1
:10186000F80141EAC00030602078000741D5A06946
:1018700010B397480121C0F88014FFF73DFE0546DC
:10188000706A800728D4FFF737FE401B0228F7D97B
:10189000F8E021698E48002900F08E800121016066
:1018A000FFF72AFE054630688007D6D4FFF724FEEE
:1018B000401B0228F7D9E5E085480021C0F88014D4
:1018C000FFF71AFE0546706A800712D5FFF714FE6F
:1018D000401B0228F7D9D5E07E484FF4FA51006842
:1018E000B0FBF1F0019000BF0198411E002801916A
:1018F000F9D12078400717D4E7697FB100F0CFFC19
:101900003CD1012F0DD0216A706800F480328A42E8
:1019100007D1616A00F47010884202D10020BDE84E
:10192000FC810120BDE8FC81F06910F0805808D1ED
:10193000F06940F08050F061F06900F08050009054
:101940000098654F3868C0050FD4386840F480703F
:101950003860FFF7D1FD05463868C00505D4FFF7AC
:10196000CBFD401B6428F7D98CE0E068A0B30528C4
:1019700044D0012846D000F062FC46E054490020E3
:1019800088460866FFF7B8FD0546022F0AD147468C
:101990003068800179D5FFF7AFFD411B0320022994
:1019A000F6D9BCE730688001B8D5FFF7A5FD411B2B
:1019B00003200229F6D9B2E700210160FFF79CFD60
:1019C0000546306880077FF54FAFFFF795FD411B57
:1019D00003200229F5D9A2E700F031FC3062FFF7BD
:1019E0008BFD054641F28837306A80071CD5FFF72A
:1019F00083FD411B0320B942F6D990E7306A40F0DD
:101A000004003062306A40F001003062FFF774FD7C
:101A1000054641F28837306A800705D4FFF76CFD30
:101A2000401BB842F7D92DE0B8F1000F7FF464AF46
:101A3000F06920F08050F0615EE700F0D9FB306083
:101A4000FFF75AFD0546306880037FF5F3AEFFF7D8
:101A500053FD411B03206429F5D960E7306840F449
:101A600080203060306840F480303060FFF744FD03
:101A70000546306880033FF5DDAEFFF73DFD401BB6
:101A80006428F6D90320BDE8FC81206AB0F5803FC8
:101A900005D1A168726822F4003211437160616A55
:101AA0000843716821F4741108437060012038669E
:101AB000FFF722FD0446306880013FF52FAFFFF7A6
:101AC0001BFD011B03200229F5D928E70010024065
:101AD000000042420800002000700040F8B538B114
:101AE0000446406A30B10020206104F1140007E090
:101AF00001254AE06068B0F5827F03D004F11C0044
:101B0000002101600025A56294F8510000284FF0E3
:101B1000000007D1204684F8505000F039F8A06A40
:101B200000F40050022184F8511094E84E0002F4B1
:101B3000827203F404430F681A4406F400631A44E3
:101B400027F040070F60236903F002031A4463691A
:101B500003F001031A44A36903F400763244E669F2
:101B600006F038063244266A06F0800632431043F7
:101B70000860042000EA13404860C86920F400604F
:101B8000C8610120656584F851002846F8BD000051
:101B9000FEB5002104910168114881421DD111490F
:101BA00000F550404A6842F400424A604A6802F434
:101BB00000420192019A0A6842F008020A6009682C
:101BC00001F00801019103210591022103912821CF
:101BD0000291019902A9FFF7B9FB06B080BD00BFD1
:101BE000003C0040181002402DE9F84300F052FB81
:101BF00004BF0220BDE8F8834FF001091D461646D8
:101C00000F4684F85090FFF777FC804694F8510017
:101C1000012844D1002F44D0002E42D0032084F864
:101C2000510000206065E686A6862763A087A06332
:101C3000C4E91000E087A1682068B1F5004F07D122
:101C4000016821F040010160016841F480410160B8
:101C50000168490601D400F074FBE2686168B2F5DE
:101C6000006F20D109B1012E01D100F02FFB6E1CB5
:101C7000E08E90B300F03BFB08D4FFF73DFC002E54
:101C8000F6D0A0EB0800A842F2D337E0216B31F880
:101C9000022BC2602163E08E0138E086E8E7022073
:101CA0002DE001202BE009B1012E02D1397800F09E
:101CB00032FB6E1CE08E80B100F019FB08D4FFF7F8
:101CC0001BFC002EF6D0A0EB0800A842F2D315E0D2
:101CD000216B097800F01FFBECE7204629464246BD
:101CE00000F035FB08B120206065A06808B900F05D
:101CF00009FB606D002818BF012000E0032000F000
:101D0000C2BA0000411E0020B0EB116F1CBF0120C1
:101D10007047044AF023516003490B70072190601B
:101D20001160704710E000E023ED00E0704770475D
:101D30007CB5016804460A68C8684D6913074DD030
:101D400000F4907605F0010576194BD0D60705D042
:101D5000C60503D5266C46F001062664560704D551
:101D60001DB1266C46F002062664960704D51DB107
:101D7000266C46F004062664002B07D500F02003ED
:101D80005B1903D0236C43F008032364236C002BFE
:101D900070D0920605D5800603D5204600F088FB5A
:101DA00021684869216C00F0400001F008014018EA
:101DB0005BD0204600F06AFB2068416949064AD59D
:101DC00000F099FA47D04A494163FFF737FA0028F3
:101DD00050D0A06B416BBDE87C400847930601D50D
:101DE00083063DD4236B012B03D1D30601D5C30653
:101DF00041D4130601D503060FD452063AD5400646
:101E000038D5C86820F04000C860202084F83D0024
:101E10002046BDE87C4000F031B994F83D0021280F
:101E200028D1A068B0F5805F02D12069002856D083
:101E3000206A421C226200784860E08C0138E0840D
:101E4000000417D1C86820F08000C860C86840F05E
:101E50004000C8607CBD2046BDE87C40FFF767BFFE
:101E60002046BDE87C4000F023BB2046FFF75FFF23
:101E7000002020647CBD0020019008680190486823
:101E800001900198486940060DD4E08DA28DE38D44
:101E9000002BEFD0101A0204ECD000F01FFA202221
:101EA00000F0E8F915E0A06B026853689DB2002DC0
:101EB000E0D0A28D9542DDD2E3858369202B06D048
:101EC00000F031FA00F0D6F9FFF798F9A28DE08D15
:101ED000101A81B22046BDE87C40FFF727BF206A78
:101EE00030F8022B6FF35F2220624A60A5E700BF43
:101EF0008124000890B110B5044690F83D0008B95F
:101F000000F0ACF900F07CF92068016921F49041FF
:101F10000161416921F02A0100F0C6B90120704732
:101F200070B586B00068A9490026CDE90466CDE900
:101F30000266884229D09D49884241D17F48804C21
:101F4000016841F480410160016801F4804100F0C2
:101F500067F94FF400700290019802AD20462946BF
:101F6000FFF7F4F900202946CDE903004FF4806023
:101F700002902046FFF7EAF9252000210022FFF712
:101F800023FB2520FFF714FB1AE06C486C4C4168DA
:101F900041F400314160416801F4003100F040F942
:101FA00004200290019802AD20462946FFF7CEF9A1
:101FB00008202946CDE9036602902046FFF7C6F9BE
:101FC00006B070BD70472DE9F843044690F83D0017
:101FD000202807D10E4641B1174632B194F83C0093
:101FE000012805D10220BDE8F8830120BDE8F8836F
:101FF0004FF0000901201D46C4F8409084F83C00D1
:10200000212084F83D00FFF777FAE7848046A78413
:10201000A068B0F5805F01D1206908B1002701E018
:102020003746002684F83C90E08CB8B120468021E9
:1020300042462B4600F0D6FAB8B926B116F8010B85
:102040002168486006E037F8021B206800266FF31D
:102050005F214160E08C0138E084E5E720464021C3
:1020600042462B4600F0BEFA10B10320BDE8F883CB
:10207000202084F83D000020BDE8F8837047FEE78B
:102080002DE9F04F85B02D4800224FF400574FF056
:102090000008016841F010010160016801F01001C1
:1020A00001910199016841F020010160016801F08E
:1020B000200101910199016841F00401016001686A
:1020C00001F0040101910199016841F008010160EA
:1020D0004FF40051006800F0080001900198184882
:1020E00000F5006681463046FFF700FA09F5806585
:1020F0004FF4607100222846FFF7F8F94FF0020A0A
:102100000124DFF840B03046CDE9038ACDE90174FF
:1021100001AF3946D84701A8394680E8100548463E
:10212000D84702A8394680E810054FF46070019046
:102130002846D84705B0BDE8F08F00BF1810024010
:10214000000801404D130008B0B50F4800214FF4BE
:1021500000720E4D4FF400434FF48274C0E9062123
:102160000A22C0E90054C0E90231C0E90411C0E903
:102170000811C0E90A12FFF7B1FC18B1BDE8B04080
:10218000FFF73BB8B0BD00BFE8150020003C0040A1
:1021900010B50548054C00F01DF818B1BDE8104019
:1021A000FFF72BB810BD00BF4016002000380140DB
:1021B00010B50548054C00F00DF818B1BDE8104009
:1021C000FFF71BB810BD00BF84160020004400407C
:1021D000FEE7704700210C224FF4E133C0E90043D1
:1021E000C0E90211C0E90412C0E90611FFF782BE7E
:1021F000306820F480303060306820F480207047F0
:10220000242084F83D002068C16821F40051C16099
:10221000204600F0A7B94FF480710122FFF766B99C
:1022200001910199016841F004010160006800F02A
:102230000400019003200590022003907047306A4B
:1022400020F001003062306A20F00400704700F096
:102250001F010122400902FA01F17047002084F8B1
:102260003C002046FFF75CBE4FF400710022204680
:10227000FFF73CB984F83E2000222263CA6822F0AE
:102280001002CA607047002184F8501084F8519001
:10229000BDE8F883044690F8500001287047706844
:1022A00000F00C00082870474161C16841F40051FA
:1022B000C16000202021206484F83D1084F83E1085
:1022C00010BD4FF400710122FFF710B937F8021B5F
:1022D000C1602763E08E0138E0867047CA6822F447
:1022E0009072CA604A6922F001024A617047206810
:1022F000816889077047416921F040014161A06B05
:1023000000287047002000902068C1680091806814
:102310000090009870470173206B01302063E08EBD
:102320000138E0867047CA6822F48072CA604A6940
:1023300022F001024A614A6922F040024A612022E9
:102340007047016841F0400101607047704710B567
:1023500013460A468021044600F00AF828B1606D51
:1023600040F020006065032010BD002010BD00007B
:102370002DE9FC411E4617460D468046FFF7BCF886
:10238000301AC419FFF7B8F8064625480137006827
:10239000C0F3CB3060430190D8F800008168294039
:1023A000A9420ED1002FF9D0FFF7A6F8801BA0425A
:1023B0000AD20198019901390191002808BF044609
:1023C000EAE70020BDE8FC81D8E900014268B1F5E8
:1023D000827F22F0E00242600BD1D8F80810B1F5FC
:1023E000004F02D0B1F5806F03D1016821F04001A8
:1023F0000160D8F82810B1F5005F07D1016821F419
:1024000000510160016841F400510160002088F82A
:102410005000012088F851000320BDE8FC8100BF76
:10242000080000207047FFF76BB870B590B000252A
:102430001421CDE90B55CDE9095501AC2046FEF735
:1024400006F94FF4E0100226012108950F904FF491
:1024500080300D960A910E90CDE9061006A8FFF780
:10246000BFF94FF4806002210595CDE90265049023
:102470000F2001902046FFF7D3F810B070BD7047D1
:10248000406A0021C185C184FFF751BC01687346D1
:10249000FFF724FF9E46026B012A03D1CA6822F08F
:1024A0001002CA60202180F83E10002101637047AD
:1024B00081B090F83E10222920D18368B3F5805F67
:1024C00008D10169002941D000F128010A68036898
:1024D0005B680AE0014651F8282F13B90369002B05
:1024E000F5D003685B6803F07F0313700A6801325C
:1024F0000A60C18D0139C185090401D001B070475E
:102500000168CA6822F02002CA60CA6822F4807298
:10251000CA604A6922F001024A61202280F83E2006
:10252000026B012A1BD100220263CB6823F0100347
:10253000CB600B68DB0605D500920A6800924968FB
:1025400000910099818D01B0FFF7F0BB0168826AAC
:1025500049686FF35F2122F8021B8262C9E701B06C
:10256000FFF730BDB0B50446006804F108030ECB98
:10257000056925F4405519432A4341F20C6502616F
:10258000C2686369AA4319431143C1604169A269E2
:1025900021F44071114341611149884202D0FFF793
:1025A000DDF801E0FFF7E4F819214843D4E900120F
:1025B0006FF063049200B0FBF2F06422B0FBF2F320
:1025C00003FB0400322404EB0010B0FBF2F000F037
:1025D000F00200F00F0002EB031210448860B0BD5F
:1025E000003801402DE9F0411D4690460F46044653
:1025F0005E1C206801683940B9421CD0002EF8D01A
:1026000035B1FEF779FFA0EB0800A842F1D92068A8
:10261000C16821F4D071C160416921F001014161BB
:102620002020002184F83D0084F83C1084F83E000E
:102630000320BDE8F0810020BDE8F0810148FFF7EC
:1026400077BB00BF40160020FEE70000B0B53C4D50
:102650004FF0FF304FF0C0410024C5E90210C5E93A
:102660000400A86105F11C001821AC71AC80FDF7D5
:10267000EEFF3448C5E90E44C5E91044083028602F
:102680003148324DA8473248A8473248A847324817
:10269000A8473248A8473248A8473248A847324896
:1026A000A8473248A8473248A8473248A847324886
:1026B000A8473248A8473248A8473248A847324876
:1026C000A8473248A8473248A8473248A847324866
:1026D000A8473248A8473248A8473248A847324856
:1026E000A8473248A8473248A8473248A847324846
:1026F000A8473248A8473248A8473248A847324836
:10270000A8473248A8473248A8473248A847324825
:10271000A8473248A8473248A8473248A847324815
:10272000A8473248A8473248A8473248A8476E4DC4
:10273000281900F06FFF2034B4F5486FF8D1B0BD10
:10274000C8140020E455000898080020292E00082D
:10275000E80800203809002088090020D809002056
:10276000280A0020780A0020C80A0020180B002040
:10277000680B0020B80B0020080C0020580C00202B
:10278000A80C0020F80C0020480D0020980D002017
:10279000E80D0020380E0020880E0020D80E002002
:1027A000280F0020780F0020C80F002018100020EC
:1027B00068100020B81000200811002058110020D7
:1027C000A8110020F81100204812002098120020C3
:1027D000E81200203813002088130020281400205D
:1027E00058070020F8070020A8070020D813002071
:1027F0007814002048080020054606A00C462A460A
:10280000FDF76CFD3548026812B128462146904715
:10281000FEE700BF4552524F523A5B2533645D25B7
:10282000730D0A0086B02D4C064691460D46207A5F
:10283000BFF35F8FC00721D0207BBFF35F8FC0073E
:1028400036D02849264800229F23C4E904010168A4
:1028500000244D687F210294CDE900140021A8478F
:10286000214D642C05D005EB441000F0F9FE013435
:10287000F7E73220FEF75AFD0024F2E704F10808DA
:102880001F46404601F078FD0028D5D04FF0FF30BC
:10289000002180223B46CDE90010CDE902000490E2
:1028A0000F48A02101F054FB404601F093FDC3E71F
:1028B00004F10C07384601F05FFD0028C1D00698EE
:1028C00031462A464B46019005480090054801F0E4
:1028D000E7F8384601F07EFDB3E700BFF4060020BC
:1028E0008015002040150020C816002010B5816E0C
:1028F0000129B8BF10BD013900228166014481F869
:102900004820C169D0E91C3401EB6402E10701D021
:102910001168CB58818810460022BDE81040184746
:1029200010B5044648302021FDF791FEE069D4E956
:102930001C3100EB6100C90701D00168CB58A188A8
:102940000222BDE8104018470A290FD07F2910D075
:102950001B2911D0142912D190F86C10013918BF1D
:10296000012180F86C100168496908470A2100F0CC
:1029700043B87F21FFF7BABF1B21FFF7D1BF00F09B
:1029800009B880B54FF0C041816048302521FDF77E
:102990005EFE80BD10B5826E1F2A88BF10BDA1F1FA
:1029A00030030A2B0ED320290CD02E2901D12E2141
:1029B00008E0A1F14103192B18D890F86C30012BD5
:1029C00008BF2031531C0244836682F84810C16955
:1029D000D0E91C3401EB6402E10701D01168CB5847
:1029E000818810460022BDE810401847654840F233
:1029F000FE61FFF701FF00BF10B5044648302021FB
:102A0000FDF725FEE069D4E91C3100EB6100C90740
:102A100001D00168CB58A1880122BDE810401847B9
:102A2000006A30B1034A002118B1C0E91221806A5E
:102A3000FAE7704749290008F0B585B00C69012B09
:102A400015D04BBBCB698E89DFF85CC04FF0A00E70
:102A500040F29E271D699B697642CDE9027E36B21F
:102A60002C441B1BA03B1BB2CDE900630DE08B691E
:102A7000DFF830C0A0264FF486770025CDE9027636
:102A80001B1B01331BB2CDE900530023CDF810C04E
:102A900000F03EFD05B0F0BDE24840F2BC61FFF73A
:102AA000ABFE00BF400400201001002070B588B0CC
:102AB00004464FF0FF30CDE90600CDE9040004A93B
:102AC000204601F0B3FAD4E9105004AC4FF07F4631
:102AD0001ECCCDE90046029501F096F908B070BD14
:102AE00001F0D0BABFB51C4603681D6902AB009364
:102AF00003ABA8470D980C9A002101601160099959
:102B00000C1B0B99631C01F04075B5F1007F0BD0D5
:102B1000B5F1807F0DD05DBB039DAC420BDB5B1B31
:102B2000022493FBF4F305E0039DAC4203DB5B1B43
:102B300000E000231360089A0A9B01F440119B1ADD
:102B40005A1CB1F5001F0BD0B1F5801F0DD0A1B9F3
:102B500002998B420BDB511A022291FBF2F105E044
:102B600002998B4203DB511A00E000210160BFBDD6
:102B7000AC4840F2F921FFF73FFEAA4840F20D3180
:102B8000FFF73AFE0C5700082DE9F0438DB00446DC
:102B90004FF0FF30CDE90B00CDE9090009A920462F
:102BA00001F044FAA079022807D0012813D00028A8
:102BB00040F016818D48C56B01E08C48456C266C51
:102BC000606C0C9F09990A9A0B9BCDE900750296DF
:102BD00001F01AF919E0DFF81482D4E91070D8F87E
:102BE000406009AD2ECD8DE8E00001F00DF9D8F878
:102BF0004850D4E9106009AF4FF0020C8ECFCDE9F8
:102C00000075CDE902C601F0BDF8A0880A2825D0DC
:102C100090283BD01B2851D0202867D02E287DD06B
:102C20007F2800F09380142840F0A8807048DDE9E8
:102C30000975D4E91021D4F808E0D4E90D684FF003
:102C4000000900680368D3F804C0DDE90B34CDE95E
:102C5000007502AD85E8584370A3BDE06448DDE926
:102C60000975D4E91021D4F808E0D4E90D684FF0D3
:102C7000000900680368D3F804C0DDE90B34CDE92E
:102C8000007502AD85E858435FA3A5E05848DDE92B
:102C90000975D4E91021D4F808E0D4E90D684FF0A3
:102CA000000900680368D3F804C0DDE90B34CDE9FE
:102CB000007502AD85E858434EA38DE04C48DDE930
:102CC0000975D4E91021D4F808E0D4E90D684FF073
:102CD000000900680368D3F804C0DDE90B34CDE9CE
:102CE000007502AD85E858434BA375E04048DDE927
:102CF0000975D4E91021D4F808E0D4E90D684FF043
:102D0000000900680368D3F804C0DDE90B34CDE99D
:102D1000007502AD85E858433DA35DE03448DDE928
:102D20000975D4E91021D4F808E0D4E90D684FF012
:102D3000000900680368D3F804C0DDE90B34CDE96D
:102D4000007502AD85E858432EA345E02848DDE92B
:102D50000975D4E91021D4F808E0D4E90D684FF0E2
:102D6000000900680368D3F804C0DDE90B34CDE93D
:102D7000007502AD85E8584320A32DE00021ADF891
:102D80002210A0F1410189B2192906D8E16991F810
:102D90006C10002918BF203004E0A0F1300189B286
:102DA000092901D88DF822001148DDE90975D4E917
:102DB0001021D4F808E0D4E90D684FF0000900684C
:102DC0000368D3F804C0DDE90B34CDE9007502AD2A
:102DD00085E858430DF12203E0470DB0BDE8F083CC
:102DE000F54840F23471FFF707FD00BFF4060020FC
:102DF0000C0000203F313233000000004261636B61
:102E0000000000002E000000456E74657200000096
:102E10005370616365000000457363004361707324
:102E2000000000000C570008B0B504464FF0FF301A
:102E30004FF0C0410025C4E90210C4E90400A061BC
:102E400004F11C001821A571A580FDF700FC0448C1
:102E5000C4E90E55C4E91055083020602046B0BDC5
:102E60001C56000801F00EB92DE9F0418AB0144655
:102E700006461020109A0DF118080D4619460090CC
:102E80003046434600F044F930682946224643461E
:102E9000076815980490149803901398029012985C
:102EA0000190119800903046B8470AB0BDE8F08113
:102EB00053B32DE9F04F87B0DDF840A01C46914692
:102EC0000E4607464FF0000B0DF118082078C0B1F0
:102ED0002046414600F0F4F805460BEB0A00069B3D
:102EE00031464A460090119801901298029013982A
:102EF000039014980490384600F060F983442C4401
:102F0000E4E707B0BDE8F04F7047F0B548684FF010
:102F1000020C431E00201D469842C4BF0020F0BD95
:102F200095FBFCF58F6805EB450657F82640944263
:102F300001D2681C04E004BF07EB8600F0BD6B1EE5
:102F40001D18E9E72DE9F04F8BB0179DDDF860C043
:102F5000199F0E46CDE9092315F8024B5FFA8CF153
:102F6000FBB2C7F30720089107930590614384F0F3
:102F7000FF0215F8018C02FB0311CCF30723069323
:102F8000634302FB0033CCF307400490604323F01B
:102F9000FF0343EA1121C7F3074302FB0300039336
:102FA00000F47F4041EA002040F07F4A002016995B
:102FB000884249DA14994FF00009029000EB010BA6
:102FC000159881453DDA5FEA086040D01CB1306851
:102FD0005A46534606E01998B0F1807F0AD330680C
:102FE000199B5A460768099800900A9800EB090156
:102FF0003046B847A8F101085FEA08601ED12C7876
:103000000898079A059B95F801800235604384F083
:10301000FF0101FB0200069A624301FB03220E4BF3
:103020001A40039B42EA1020049A624301FB0321E9
:1030300001F47F4140EA012000F17F4A09F10109D2
:10304000BEE702980130B2E70BB0BDE8F08F5A48F6
:1030500040F28731FFF7D0FB00FF01002DE9F84F68
:10306000DDF828A09846C9B11546BAB10E46834688
:103070000027E9463078D0B13046494600F020F8C4
:10308000009A044658462946FFF73FFF2946002884
:10309000264418BF011D08780744EBE70020CAF852
:1030A0000000C8F800004FF0FF30BDE8F88F287826
:1030B000C8F80070CAF800000020BDE8F88F0000D2
:1030C000B0B5024603781148C05C441E032C18D8E2
:1030D000DFE804F01502050B1B0201240DE0547813
:1030E000240244EA0343022407E054789578240438
:1030F00044EA0363032443EA0523125D13430B6090
:10310000B0BDF14840F2D131FFF776FB100000204E
:1031100070B50D46049918461C461646FDF775FA1B
:10312000032E2FD8DFE806F00214091F21A1204644
:103130002A46BDE87040FDF7DDB8284601F0A2FE42
:10314000164B002201F044FD0B46024614A114E088
:10315000284601F097FE144B002201F039FD0B4682
:10316000024612A109E0284601F08CFE084B00221D
:1031700001F02EFD0B46024606A12046BDE8704038
:10318000FDF7B8B8E04840F25F31FFF735FB00BF0C
:1031900000408F40252E336600000000000059409B
:1031A000252E32660000000000002440252E3166E6
:1031B00000000000256400000C5700082DE9F04FC6
:1031C00087B0DDF8489093460D46B9F1000F19D04D
:1031D00049461A460646FFF798FEB0B107460279FF
:1031E0008468119899F80030DDE9131C8DE81D0002
:1031F000109BCDE9041C304629465A46FFF7A2FE33
:10320000387933E01B48804601E04FF0FF38002456
:103210004FF00009B9F1100F27D011984FF0000AB4
:1032200009EB0006BAF1100F1BD004EB0A000130C5
:1032300003280DD228683246434607681098CDF817
:1032400000B000EB0A012846B8470AF1010AE9E795
:1032500009EB0A000F380228ECD92868324600230F
:10326000EBE7013C09F10109D4E7102007B0BDE804
:10327000F08F00BF0000FFFF2DE9F0418CB0144635
:1032800006461020129A0DF120080D4619460090AE
:1032900030464346FFF73CFF306829462246434606
:1032A00047681A98079019980690189805901798EB
:1032B0000490169803901598029014980190139812
:1032C00000903046B8470CB0BDE8F0817BB32DE9E3
:1032D000F04F89B093460E46DDE9141CDDE9128AF1
:1032E000199ADDF858901C46074607AB08A8CDE9A7
:1032F00004033846CDE900A1CDE902C221464A4681
:103300004346FFF7EFFB38685A4623460568DDE978
:103310000710404451448DE803021798314603904A
:10332000189804903846A84709B0BDE8F04F704798
:10333000B0B500F120020C461146096831B18B6826
:10334000DD0001D55B0030D42831F6E7816801F05B
:10335000C041B1F1C04F47D1C06A022C29D200B39D
:1033600001462422002C08BF2822895841B38A68CC
:1033700002F0C042B2F1C04FF3D1C869BDE8B0401D
:1033800000F07AB8A06800F0C040B0F1C04F06D19C
:10339000E069214600F070F804F1200201E004F138
:1033A00028021468002CEDD11EE00868C2690846A6
:1033B00002E0C8B10168CA692146BDE8B0401047C3
:1033C000C0691CB100F029FE014600E0016A59B154
:1033D000886800F0C040B0F1C04FCED02420002C4F
:1033E00008BF28200958F2E7B0BD10B50446C07ADE
:1033F00040060CD52068016920468847246A34B10C
:103400002CB12068416920468847A46AF8E710BDBE
:10341000704700002DE9F04385B009B30D468046A2
:103420004FF000092868E8B18188F9B90168B5F959
:103430000E60B5F91040AB68AA88B5F91270D5F8DE
:1034400014E0D1F808C0B5F90C10CDE9001602A9B6
:10345000A1E890404146E047183509F10109E1E74C
:103460004FF00009484605B0BDE8F083684840F2D7
:10347000B151FFF7C1F900BFB0B5D1B10446C86979
:103480000D46A0421AD1A968E06A01F0C041B1F12D
:10349000C04F0DD1A84204BF2846B0BD10B101688D
:1034A000896A88472868E562416A28468847E06A51
:1034B000B0BD574840F2ED41FFF79EF9544840F245
:1034C000EE41FFF799F900BF0C570008B0B581B184
:1034D0000C468988054600F097FDA04209D0286A6D
:1034E00040B1284600F099FD48B100218462C4E94A
:1034F0000901B0BD00202C62C4E90900B0BD4448F8
:1035000040F29451FFF778F90C570008704700001B
:1035100070B582B3044603638280C16100200D460A
:10352000A07121B1D5E91010C4E9101000E0606C61
:1035300030B3DDE90432DDE90610089E1044194479
:10354000C4E9033201380139C4E905102068016A71
:10355000204688471DB128462146FFF7B7FF204681
:103560003146FFF757FF002803D42068C168204682
:103570008847002070BD264840F28241FFF73CF9A1
:10358000234840F28E41FFF737F900BF704770B50E
:10359000D0E90345091B00F12004521B20460068B6
:1035A000D0B18568EE0001D56D0019D42830F6E75A
:1035B000846804F0C044B4F1C04F0BD1C4688C429D
:1035C00008DC44698C4205DB0469944202DC8469AE
:1035D000944205DA00F1280420680028E8D170BD83
:1035E0000468D4F818C0BDE8704060477047000018
:1035F00010B5012B08DB029C002C05DD14440B44A4
:10360000013C013B1EC010BD01485521FFF7F4F8F5
:103610000C57000810B50446FCF712FEA02190FBE1
:10362000F1F101EB8101A0EB4110206001F040FEBF
:10363000A060FCF705FE4FF07E51874B4FF08642AD
:10364000C4E90611C11700EB5161C4E9043221F04D
:103650007F01401A606001F02BFEE06010BD00BFEA
:103660002DE9FE4FC569D0E90274814620462946FE
:1036700001F074FC71498A4601F070FC01F0FCFD18
:103680008046384601F0F8FD0646204601F0F4FD7C
:1036900004463846294601F061FC514601F05EFCC3
:1036A00001F0EAFDDFF898B1DFF804A203462246F4
:1036B000DBF80010DAF810004D680021CDE9008138
:1036C00002913146A8475F4ED9E90404D9F81C504D
:1036D000314601F043FC0746C9F810002046314648
:1036E00001F03CFC58490646C9F81400284601F090
:1036F000CDFC0146284601F031FC0546C9F81C0006
:1037000038464FF07E5101F0AEFC002840F0918029
:1037100030464FF07E5101F098FC002800F089807F
:10372000D9E9000451280DDB4A4900EB800001EB88
:10373000401001F0BDFD394601F0A8FC434901F0FD
:103740000DFC0DE0C0F1500000EB8000400101F0E5
:10375000AFFD394601F09AFC01463C4801F074FE89
:10376000412CC9F808000CDB394800EBC41001F00B
:103770009FFD314601F08AFC4FF0854101F0EEFBE0
:103780000DE04FF40050A0EBC41001F091FD314664
:1037900001F07CFC01464FF0854001F055FED9F860
:1037A0000860C9F80C000021304601F05CFC0028DC
:1037B0003FD12846314601F0D1FB204901F0CEFB34
:1037C0002549074601F041FC98BBD9F80C8000213F
:1037D000404601F048FC60BB2846414601F0BEFB74
:1037E000164901F0BBFB4FF08641054601F03BFC5A
:1037F000F8B1284601F040FD0446304601F03CFD9A
:103800000546404601F038FD0646384601F034FDD5
:10381000DBF800100346DAF810004FF0FF324F6873
:103820000021CDE90042324602912946B847BDE861
:10383000FE8F4846BDE8FE4FFFF7ECBE000080BF9C
:10384000801500200000C0C00000A0410000A04280
:1038500000E0FFFF00CEFFFF0000204370B50C46E4
:10386000054602290DD12868D5E90312002386698F
:103870002846B0472868D5E90312012386692846FF
:10388000B04728462146BDE87040FFF751BD0021F2
:1038900081710168096908470021C0E912114FF0E0
:1038A000C04181600249CA69896BC0E90D21704736
:1038B000F40600200221817101680969084710B5EA
:1038C0000446C3B10220A0712068016920468847E0
:1038D000D4E9123000F0010151EA030208BF10BD23
:1038E000E26902EB600009B10168CB58A1880022AF
:1038F000BDE810401847E0692146FFF7BDFD0120F3
:10390000A071206801692046BDE810400847B0B5A5
:1039100044688C4227DD8568954224DD456955B1B0
:10392000D5F800C0BCF1000F05D0084611461A4674
:10393000BDE8B0406047C56804FB0211022D0FD1FD
:103940004FF478424FF4FC64006902EA132204EA5F
:103950005314C3F3C40323441A4420F81120B0BD08
:10396000006940F82130B0BD2DE9F84F05460069E7
:1039700078B30B9868B31446D5E901A2DDF830900E
:10398000DDF828C08A45AAF10100D8BF0146A2F19E
:10399000010BA242D8BF5C4604FB0A1604FB0917C0
:1039A0009A45C8BF1846A0EB01086245C8BFE34668
:1039B0005C4512DAD5E903200B9902FB071102FBE3
:1039C000060002FB08F2FCF7DBFD56444F440134CD
:1039D000EEE74FF0FF30BDE8F88F0020BDE8F88F2C
:1039E0002DE9FC4782464069DDE90A861C461546FA
:1039F0008946D8B147683FB14846294622464346E2
:103A00000096B847BDE8FC87006878B1454545DCBD
:103A10004F46A74208DCDAF814002946324603680C
:103A2000384698470137F4E70135EFE70AF1040219
:103A300007CA022A1FD14FF478424FF4FC6302EA0E
:103A4000162203EA5613C6F3C40633441A44454506
:103A500024DC05FB0093DAF8106006EB43034E46C6
:103A6000A64206DC8D42BCBF864223F8022B0136FB
:103A7000F6E70135EBE7454510DC05FB0092DAF887
:103A8000103003EB82024B46A34205DC8D42BCBFE3
:103A9000834240C20133F7E70135ECE7BDE8FC871C
:103AA000F0B5069F059C00250126C0E90123C0E969
:103AB0000E658561C0E904170649046284F8506008
:103AC00008310160E168C160014641F81C5FC4E94A
:103AD0001510F0BD6C5600082DE9FC47DDE90A8998
:103AE0009A4615460E460746AE42C8BFBDE8FC875B
:103AF000386831465246434604683846CDF800904F
:103B0000A0470136F0E700002DE9F84F074640686E
:103B100088426BDDB8689346904267DD0E46002907
:103B200064D4BBF1000F61D4DDF8289097F8510000
:103B300048455DD39A463FD097F8520031465A46E1
:103B4000484509EB890038BF87F8529007EB80049D
:103B500004F11808404600F083FA48B304F1140059
:103B6000D4E90731FC68D8F80020022C16D1891A54
:103B7000B41AABEB03034FF478420068013102EA58
:103B80001A2201FB03414FF4FC63CAF3C40403EAA5
:103B90005A1323441A4420F8112009E0891AB41A50
:103BA000ABEB03030068013101FB034140F821A0A6
:103BB00097F8520048450AD1386831465A4653466C
:103BC000D0F80CC0384601B0BDE8F04F604707F1AF
:103BD00040000324013C4C45EED931465A46A0F141
:103BE000140500F03DFA00282846F3D0BDE8F88F10
:103BF00002484FF4CF71FEF7FFFD00BF0C570008DD
:103C00002DE9FC47DDE90A899A4615460E46074626
:103C10005545C8BFBDE8FC87386831462A4643464B
:103C200004683846CDF80090A0470135F0E72DE94B
:103C3000F84F074680F85110806DDDE90AA99846D3
:103C400093460E4648B1806B022806DBD7E9010295
:103C5000F9685043FCF72EFB3861A9EB0800AAEB8A
:103C60000B0107F114050130013101FB00F466B1CD
:103C7000F9682046FCF71EFBC5E9000BC5E9028A7E
:103C8000C5F810901435013EF1E7BDE8F88F2DE935
:103C9000FC418046C068DDE908C5022822D14FF406
:103CA000FC644FF47840C5F3C4064FEA420E04EAC0
:103CB000551400EA1520344416462044664526DC97
:103CC000D8F810401CB3D8F8047007FB0E440F4618
:103CD0009F4203DC24F817000137F9E70EF1020ECA
:103CE0000136EBE790001746674510DCD8F8104026
:103CF0006CB1D8F8046006FB00440E469E4203DC1B
:103D000044F826500136F9E704300137ECE798F81B
:103D1000500058B1D8F8580004686468CDE900C56F
:103D2000A047D8F85400016801310160BDE8FC816A
:103D3000F8B504460069C8B1E568022D11D165687F
:103D40004FF4FC674FF4784607EA531706EA132648
:103D500005FB021CC3F3C4053D44354420F81C5048
:103D600004E0656805FB021540F8253094F8500022
:103D700038B1A06D05682D68A847606D01680131F4
:103D80000160F8BD1FB5089C0394099C0294079C30
:103D90000194069C009400F001F81FBD2DE9FE4F30
:103DA000DDE90EA9DDE90C7B1C4615460E46804672
:103DB000B9F1000F08BFBDE8FE8F404631462246EC
:103DC0002B46CDE900BAFFF787FE40463146224632
:103DD0003B46CDE900BAFFF77FFE404631462A4612
:103DE0003B46CDE900BAFFF70BFF404621462A4685
:103DF0003B46CDE900BAFFF703FF013F0135013C27
:103E00000136A9F10109D3E7BFB504680A9D6468CA
:103E10000295099D0195089D0095A047BFBD2DE91C
:103E2000F04F87B005461C46DDF840B04068DDE93C
:103E3000119622EAE27A21EAE177AB685B45D8BFC6
:103E4000A3F1010BA042D8BF441E95F85100B04227
:103E500006D12868394686682846CDE900B970E061
:103E600095F85200B04257D14FF4FC614FF47840BE
:103E7000C9F3C402CDF814A001EA591100EA1920CF
:103E8000114401EB000906EB860105EB8102D2E942
:103E90000610D2E90836CDE90360AAEB00063846E1
:103EA0005F1A0137069007FB0606029702F1140716
:103EB000A6EB010C56465E453BDC03980022B0425F
:103EC000B8BF0122049886424FF00000B8BF01201D
:103ED000DDF8188040EA020E6246A04516DC8845EF
:103EE00010DB00204345B8BF012050EA0E0009D185
:103EF000E868022838681ABFDDF844A040F822A01C
:103F000020F81290013208F10108E6E70298DDF886
:103F100014A001368444CEE7DA4515DC284639463C
:103F200022465346CDE90096FFF7D6FD0AF1010A75
:103F3000F2E72868069986681198CDF800B00190DC
:103F4000284652462346B04707B0BDE8F08F000030
:103F50002DE9F04387B0044620480DF1400E0025BE
:103F6000DDE90E8C0E464FF0FF37083084E82F0055
:103F70009EE808420020211814303C28C1E905576A
:103F8000C1E907774F62F6D10020C4E9150084F833
:103F9000520084F850000EEA0900013013D10CEAF7
:103FA000030001300FD1009203A800210022334604
:103FB000FFF71EFBDDE90501DDE90323CDE9000183
:103FC0002046414604E0204641466246CDE9009E37
:103FD000FFF72DFE204607B0BDE8F08380560008AD
:103FE000B0B5C4680D68C3692C440C6000691468DE
:103FF000204410603BB1D3E903040D68DB69284419
:1040000008601068F4E7B0BD2030006820B18288F5
:104010008A4201D02830F8E77047016A21B108468A
:10402000896A0029FBD17047002070477FB505469B
:1040300000200C46CDE9020003A902AA2846FFF79A
:10404000CFFF05F10C06AD69DDE9022149CEEB1A7F
:104050000133301A0093431C2046FFF7C9FA7FBD95
:1040600003460068884202DC9868884201DA002032
:10407000704759680020914203DCD9689142A8BF7B
:1040800001207047FCF74FBB10B5074C00F00F0341
:10409000B0F1FF3F034A2344C8BF831808011870DA
:1040A00010BD00BF00E400E014ED00E07047FCF735
:1040B0000FFE00001CB5019001AC07480122FF2350
:1040C0002146FDF780FF054821460122FF23FDF729
:1040D0007AFF01981CBD00BF401600208416002006
:1040E00010B54FF478434FF4FC6480B289B203EA10
:1040F000122304EA5214C2F3C40222441A44BDE853
:10410000104000F049B88242C8BF8B4200DC7047C3
:104110007CB5069C4FF478454FF4FC66121A5B1A86
:1041200080B289B20132013305EA142506EA541639
:10413000C4F3C40492B29BB234442C44009400F003
:104140004DF87CBD82B0FDF7E5F9FEF76EF9FDF79D
:1041500097FFFEF71DF8FEF72BF8FDF7F5FF00F0CF
:104160006FF809484FF400510122FDF7BFF90748E5
:104170000749084A0223C0E9002100900020A0213D
:10418000802200F0F3F8FEE700100140E015002067
:1041900007410008E14000087CB50C46A02806460F
:1041A00028BF7F2C19D86F4D50BA4FF400710022F0
:1041B000ADF806002846FDF799F9701C214682B239
:1041C000601C83B2304600F07FF80DF1060002213A
:1041D00000F0BAF82846FEF774F87CBD2DE9FC41E2
:1041E0000446089816460F464FF4007100221D46FB
:1041F00040BAADF806005B488046FDF777F9A01994
:104200003946013882B278194746013883B22046D0
:1042100000F05AF84046FDF7FEFF05FB06F4524D4C
:104220000DF106063CB1284631460222FF23FDF778
:10423000DBFC013CF6E73846FEF743F8BDE8FC81BD
:10424000F8B5484CFEF710F800F02AF8134E307815
:10425000D8B10136471E0006F9D0307800F062F878
:104260007578280607D402362946304600F06CF8E7
:104270002E443846EEE7B078FF2808BF4FF4FA70B6
:10428000FDF754F803363846E4E720464FF4007152
:104290000122BDE8F840FDF729B900BF9856000893
:1042A00010B5304C802100222046FDF71FF90A206E
:1042B000FDF73CF8204680210122FDF717F90A207E
:1042C000BDE81040FDF732B8F8B501300D46511C7D
:1042D000134F1C468DF80100000A8DF80310090ADF
:1042E0008DF800002A208DF80210B8476E46042190
:1042F000304600F029F8A01C8DF80300000A8DF864
:104300000200A81C8DF80100000A8DF800002B2087
:10431000B8473046042100F017F82C20B847F8BD04
:1043200025430008E0B58DF807000E484FF4807172
:104330000022FDF7DBF80C480DF107010122FF23F5
:10434000FDF752FC8CBD00BFB0B5054605480C46D4
:10435000FDF761FF044829462246FF23BDE8B0402F
:10436000FDF742BC000C0140E815002082B0029C21
:104370000094FEF757FA000080B5017811B9417832
:10438000012901D1002080BD89075FBF0221417052
:10439000012080BD01A0FFF78AFE00BF5F5F637848
:1043A000615F67756172645F6163717569726520D1
:1043B000646574656374656420726563757273699E
:1043C000766520696E697469616C697A6174696F78
:1043D0006E00000001210170417070475FEA400CDF
:1043E00008BF91F0000F4FEA8C234FEAC12243EA45
:1043F00051514FEA1C5018BF00F5F0404FEA300011
:1044000018BF41F000415FEA6C5C00F02980BCF10C
:10441000FF3F08BF40F080407047130C06BF1204F6
:104420004FF0100C4FF0000C130E04BF12020CF1F1
:10443000080C130F04BF12010CF1040C930F04BFFE
:1044400092000CF1020CD30F04BF52000CF1010CCE
:1044500011464FF00002A0F11F00A0EB0C007047C6
:1044600011F0004F08BF704731F000413FF4D5AF65
:104470000B0C06BF09044FF0100C4FF0000C0B0E94
:1044800004BF09020CF1080C0B0F04BF09010CF169
:10449000040C8B0F04BF89000CF1020CCB0F04BF7E
:1044A00049000CF1010CCCF1200322FA03F341EA9C
:1044B000030102FA0CF2A0EB0C0000F101007047BE
:1044C00023F07F4720F07F4C80EA030000F000409B
:1044D000ACEB070303F57C5303F1FF032DE980499F
:1044E00009B44FEA144324EA03484FEA154B25EA7E
:1044F0000B4E0FF2042606EB13273E7803FB0667EC
:10450000C7F5000707FB06F64FEAD64606F1020696
:104510004FEA543707FB066CCCF1005C4FEA1C47AE
:104520002CEA074C0CFB06F507FB06F404EB1546DA
:104530004FEA961649085FEA320234BF00204FF076
:1045400000404FEAD13706FB07FC4FEA1C4C0CFB3E
:104550000BF7D21B03FB0CF761EB07010CFB0EF70B
:10456000B0EB074072EB17420CFB08F734BFA2EB2D
:104570000742B2EB074261EB17414FEA0C444FEAA6
:10458000910706FB07FC4FEA1C4C0CFB0BF7B0EB4A
:10459000C74072EB573203FB0CF734BFA2EBC742A4
:1045A000B2EBC74261EB57310CFB0EF7B0EBC70023
:1045B00072EB57720CFB08F734BFA2EBC702B2EBE9
:1045C000C70261EB57714FEA816141EA92114FEAEC
:1045D000826242EA90124FEA806004EBCC04039FAF
:1045E0004FEAD13706FB07FC4FEA1C4C0CFB0BF7DC
:1045F000D21B03FB0CF761EB07010CFB0EF7B0EBD2
:10460000074072EB17420CFB08F734BFA2EB0742DE
:10461000B2EB074261EB17414FEA8C5504EB9C2447
:104620004FEA910706FB07FC4FEA1C4C0CFB0BF70B
:10463000B0EBC74072EB573203FB0CF734BFA2EB71
:10464000C742B2EBC74261EB57310CFB0EF7B0EB40
:10465000C70072EB57720CFB08F734BFA2EBC7021E
:10466000B2EBC70261EB57714FEA816141EA9211E7
:104670004FEA826242EA90124FEA806015EB4C25C5
:1046800044F100044FEAD13706FB07FC4FEA1C4C0B
:104690000CFB0BF7D21B03FB0CF761EB07010CFBC8
:1046A0000EF7B0EB074072EB17420CFB08F734BF74
:1046B000A2EB0742B2EB074261EB17414FEA8131AF
:1046C00041EA92414FEA823242EA90424FEA803018
:1046D0004FEA0C7615EB1C1544F1000448EA03433D
:1046E0004EEA0B484FF0000EB2EB080C71EB0307DB
:1046F00024BF624639464EEB0E0E4FF0000B0018F9
:10470000524149414BEB0B0BB2EB080C71EB030729
:104710007BF1000B24BF624639464EEB0E0E4FF084
:10472000000B0018524149414BEB0B0BB2EB080C4C
:1047300071EB03077BF1000B24BF624639464EEB59
:104740000E0E51EA020718BF46F0010616EB0E7670
:1047500055F1000254F1000103D5BDE88901BDE81F
:104760000088BDE88901BDE80048B619524141EB17
:104770000101A3F10103704780807F7E7D7C7B7AFD
:104780007978777676757473727171706F6E6E6DFD
:104790006C6C6B6A6A6968686766666564646363A3
:1047A00062616160605F5F5E5E5D5D5C5C5B5B5A29
:1047B0005A59595858575756565555555454535396
:1047C00052525251515050504F4F4F4E4E4D4D4DF1
:1047D0004C4C4C4B4B4B4A4A4A494949484848473C
:1047E000474747464646454545444444444343437A
:1047F00043424242424141419C46002B30D4770023
:104800002BD04FEA37071CB503B44FF010004FF020
:104810001001BAF1000F06D0BCF1000FDCBF40F070
:10482000080040F008014FF000000FBCBDE8104048
:104830000BF1010BBBF1010F08BF5FEA170722BFA5
:1048400012F1010211F101014FF0004143F10003A7
:1048500000F0004043EA00007047F9D35708D0E762
:1048600046EA06464FEA164613F1400F1FDD13F1E4
:10487000200FDFBF16430A46002120335B42BED023
:10488000C3F1200746EA06464FEA164602FA07F742
:1048900046EA070622FA03F2C3F1200701FA07F7F6
:1048A00042EA070221FA03F14FF00003A7E746EAC4
:1048B000020646EA06464FEA164646EA0106BCBF2D
:1048C00046EA0646360C4FF000034FF000024FF068
:1048D000000194E72DE9804C70B49A46934691E824
:1048E000380007C831EA400C48BF34EA430C03D50E
:1048F000FFF7E6FDFFF780FFF0BCBDE8008C2DE977
:10490000804C70B49A46934691E8380007C810F07E
:10491000804F08BF13F0804F03D100F005F8FFF778
:104920006BFFF0BCBDE8008C20F07F4723F07F4C8C
:1049300080EA030000F0004007EB0C03A3F57C5372
:10494000A3F1FE0392F0000F00F0B38095F0000F8A
:1049500000F077802DE901494FEA114021EA004833
:104960004FEA144624EA064700FB06FC08FB06F65D
:1049700007FB08F818EB06484CEB164C00FB07F752
:1049800018EB07484CEB17404FEA124B22EA0B4E4C
:104990004FEA154625EA06470BFB06FC0EFB06F61A
:1049A00007FB0EFE1EEB064E4CEB164C0BFB07F7FF
:1049B0001EEB074E4CEB174B18EB0B0840F10000B9
:1049C00018EB0E0B58EB000840F100008F1A4FF067
:1049D00000014FF000063CBFC943661B14BFB5EB96
:1049E000040C00213CBFC943F61B4FEA174427EAD9
:1049F00004454FEA1C472CEA074C04FB076205FB01
:104A000007F70CFB05F616EB074642EB174204FBD3
:104A10000CFC16EB0C4642EB1C421BEB060658EB5B
:104A2000020241414EEA8E0E46EA9E0601D5BDE8DD
:104A30000189B619524141EB0101A3F10103BDE81F
:104A400001894FEA144524EA05464FEA114721EA55
:104A5000074C05FB07F406FB07F70CFB06F111EB0F
:104A6000074144EB174405FB0CFC11EB0C4144EBF4
:104A70001C444FEA124722EA074C05FB07F206FBEB
:104A800007F70CFB06F616EB074642EB174205FB51
:104A90000CFC16EB0C4642EB1C456A1854F1000165
:104AA00048BF7047B619524141EB0101A3F1010320
:104AB000704795F0000F37D04FEA114221EA0246C5
:104AC0004FEA144724EA074C02FB07F106FB07F7FD
:104AD0000CFB06F414EB074441EB174102FB0CFC02
:104AE00014EB0C4441EB1C414FEA154725EA074CF7
:104AF00002FB07F506FB07F70CFB06F616EB07466D
:104B000045EB174502FB0CFC16EB0C4645EB1C4233
:104B1000121951F1000148BF7047B619524141EBDB
:104B20000101A3F1010370474FEA144524EA054649
:104B30004FEA114721EA074C05FB07F106FB07F78F
:104B40000CFB06F212EB074241EB174105FB0CFC94
:104B500012EB0C4251EB1C414FF0000648BF70476E
:104B6000921841EB0101A3F101037047490050EA9B
:104B7000C12018BF04204A0D18BF40F0010040F2C8
:104B8000FF72B2EB515F08BF40F00200012808BF7E
:104B90000520704730380A2801D2012070470020D4
:104BA0007047000010B500290AD00878002807D007
:104BB00005487844FCF796FA002801D0002010BD83
:104BC0000248784410BD0000960B00008E0B0000D8
:104BD0002DE9C04130B4DFF8A4C23CEA111418BF7B
:104BE0003CEA131400F0ED801CEA111481EA03057D
:104BF00044EAD57418BF1CEA131500F0C880A4EB72
:104C0000050404F17F7404F500344FF0004545EAD3
:104C1000C12145EAC32341EA505143EA52534FEAC6
:104C2000C0204FEAC222994208BF904200F09D8006
:104C30004FEA13650FF24416765D4FEA134506FB03
:104C400005F7C7F1807706FB07F74FEAD737A7FBD1
:104C500003687642A7FB06CEC8F5803838BFA8F1B6
:104C6000010807FB08E6A6FB028C4FF0000EE6FBEE
:104C700003CEDCF1000CCEF1004E38BFAEF1010ED8
:104C8000A6FB0C584FF00007E6FB0E87A1FB08C6F9
:104C9000A0FB07CE16EB0E064FF0000545F1000510
:104CA000E1FB076515F1E04E7EBFA4F580345FEAB5
:104CB00046066D4116F1800745F100054FEA1727BA
:104CC00047EA05674FEA15254FEA0666A6F1DE4674
:104CD000B6F1805F20D9384605EBC47124F0010C91
:104CE00001EB0C11BCF1FE6F02D8F0BCBDE80081F5
:104CF00024425CBF01F5801E9EEAC47F02D4F0BC52
:104D0000BDE80081244200F13980A1F1C041F0BC2E
:104D1000BDE8004100F01BB94FEAD02040EA415005
:104D20004FEAD1214FEAD22242EA43524FEAD3233B
:104D3000A7FB028607FB036605FB02661EEA0E0F51
:104D400058BFA6EB0056B6EB00564FEA520E4EEA9D
:104D5000C37E18EB0E0E56EB530EBCD518EB0208B3
:104D60005E417F1C55F10005B5E74FF480154FF00B
:104D700000074FF000064FF00008ACE701F1C0411A
:104D800001F000414FF00000F0BCBDE800810CEAEA
:104D9000131511EA0C1F00D00CE013EA0C1F00F0F1
:104DA00026804FF0000081EA030101F00041F0BCD1
:104DB000BDE80081F0BCBDE8004181EA030100F0DC
:104DC000C6B8F0BCBDE8004170B500F072F800BF95
:104DD000097EFC3E00F007B84FF0000081EA0301B5
:104DE00001F00041704781EA030100F0B0B8F0BC67
:104DF000BDE8004122494FF000007047FFFDFBF97C
:104E0000F7F5F4F2F0EEEDEBE9E8E6E4E3E1E0DEFD
:104E1000DDDBDAD8D7D5D4D3D1D0CFCDCCCBCAC86F
:104E2000C7C6C5C4C2C1C0BFBEBDBCBBBAB9B8B796
:104E3000B6B5B4B3B2B1B0AFAEADACABAAA9A8A889
:104E4000A7A6A5A4A3A3A2A1A09F9F9E9D9C9C9B57
:104E50009A99999897979695959493939291919002
:104E60008F8F8E8E8D8C8C8B8B8A89898888878793
:104E70008685858484838382828181800000FF0708
:104E80000000F87F10F0004248BF4042B0FA80F3C3
:104E900010FA03F10AD0C3F11D0303F5806302EB9E
:104EA00003524FEA415002EBD12170474FF000000E
:104EB00070470EF1020E2EF0030E5EF8046B3642C0
:104EC00005D4012A43EB030515F5001F12D801286C
:104ED00041EB010C1CF5001F0CD80ED14FEAD17C20
:104EE0000CEB4C0C0CF1020C15F5001F08BF4CEB41
:104EF000D37C04E04FF0080C01E04FEAD37C0CEBCC
:104F00004C0526FA05F606F00706B6F1040C06D2A3
:104F10000EEB860CBDE870404CF0010C6047DFE8FA
:104F20000CF0090B02024FF00041A1F500214FF0F7
:104F3000000070BD19461046012851EB010418BF4E
:104F4000D4F5001484BF002001F0004170BD0808B2
:104F5000A0F500114FEA31017047000090EA010FFF
:104F600048BF81F0004100F17682421A3CBF801AAE
:104F700089184FEAD052A2EBD1534FF07F4C1CEA74
:104F8000410F18BF9CEA026F00F03B804FF0004CCD
:104F90004CEA00204CEA012121FA03FC10EB0C0C36
:104FA0001ED202F1FF325FEA1C2040EBC25038BF34
:104FB00070471CF07F0F4FEA400C18BFBCF17F4FC9
:104FC00038BF7047C3F12003994008BF20F00100AB
:104FD000BCF17F4F38BF7047A0F1C04000F02EBA3F
:104FE0004FEA3C00000A40EBC25028BF1CF0FF0F04
:104FF0004FEA400CE6D018BFBCF17F4F38BF704776
:10500000EAE79CEA026F05D010EA5C0F08BF00F0E7
:105010000040704710B500F0CBF900BF64FBBE3E06
:1050200010B500F0F5F80CBF0120002010BD10B540
:1050300000F0EEF814BF0120002010BD10B500F004
:105040004FF98CBF0120002010BD10B500F048F9C9
:105050002CBF0120002010BD10B500F075F994BFE1
:105060000120002010BD10B500F06EF934BF012002
:10507000002010BD401058BFC0F14040491058BF3B
:10508000C1F140418142EFF3008070474FF47F0C43
:105090001CEAD0121EBF1CEAD11392EA0C0F93EA4D
:1050A0000C0F00F0858090EA010F48BF42F4807237
:1050B00040F4000C41F400002CF07F4120F07F40D0
:1050C00000B5A2EB030281420FF2081CACEB504E7C
:1050D0009EF800E0C0F100004FEA4E0E00FB0EFC0F
:1050E00038BF49004FEA2C1C0CFB0EF34FEACE1ED2
:1050F0000EEB635E4FEA112C0EFB0CFC4FEAC12154
:105100004FEA1C5300FB031102F5FA024FEA112C7F
:105110000EFB0CFC4FEA01314FEADC4C00FB0C119A
:1051200042EB2242C14228BF09184CEB03335DF821
:1051300004EB10EB410143EBC250B2F57C0F38BFDA
:10514000704729D512F0F00F1CBF00F1C04000F0ED
:1051500000407047008182838485868788898B8C94
:105160008D8E8F919293959697999A9C9D9FA0A2D0
:10517000A3A5A7A8AAACAEB0B2B3B5B7B9BCBEC020
:10518000C2C5C7C9CCCED1D4D7D9DCDFE2E6E9ECC1
:10519000F0F3F7FAFE0000004FEA400C0CF1807CBF
:1051A000BCF17E4F28BF7047B0F1C04000F046B957
:1051B0000CEAD11390EA010F48BF42F480726245B5
:1051C00038BF634507D213F47F0F16D080EA010081
:1051D00000F00040704710B500F0EAF8097EFC3E90
:1051E00000F005B880EA010000F00040704780EA56
:1051F000010000F0004000F021B912F47F0F04BF5D
:105200000248704780EA010000F018B90000C07F32
:1052100050EA010C00F113801CF5000F58BFBCF5DB
:10522000000F01D48842704707D710F5000F58BF10
:1052300011F5000F15D488427047894270471CF55C
:10524000000F04D5BCF5000FF7D5814270474FF031
:10525000807C1CEB400F38BF1CEB410F01D2814218
:10526000704710B500F0A4F8922449004FF00050A8
:105270004FF08051FFF7FEBE41000B0ED3F19E02AE
:1052800008D950F400034FEA032323FA02F048BF81
:105290004042704710B500F08BF800BF499224805F
:1052A000002070476FF0004282EA20007047000043
:1052B00010F0004148BF4042B0FA80F310FA03F208
:1052C000C3F19D030BD051EAC35101EB12205306E9
:1052D00038BF704700F1010008BF20F0010070479F
:1052E00050EA010C00F113801CF5000F58BFBCF50B
:1052F000000F01D48842704707D710F5000F58BF40
:1053000011F5000F15D488427047894270471CF58B
:10531000000F04D5BCF5000FF7D5814270474FF060
:10532000807C1CEB400F38BF1CEB410F01D2814247
:10533000704710B500F03CF8922449004FF08050BF
:105340004FF00051FFF796BE50EA010C00F11380B8
:105350001CF5000F58BFBCF5000F01D48842704700
:1053600007D710F5000F58BF11F5000F15D488426C
:105370007047894270471CF5000F04D5BCF5000F3B
:10538000F7D5814270474FF0807C1CEB400F38BF4F
:105390001CEB410F01D28142704710B500F008F8B4
:1053A000922449004FF000504FF08051FFF762BE49
:1053B0000EF1020E2EF0030E5EF8044B244204D4CC
:1053C0004FEA4102B2F17F4F11D84FEA4003B3F1E7
:1053D0007F4F0CD80ED14FEAD07C0CEB4C0C0CF16B
:1053E000020CB2F17F4F08BF4CEBD17C04E04FF0D0
:1053F000080C01E04FEAD17C0CEB4C0324FA03F4D7
:1054000004F00704B4F1040C06D20EEB840CBDE8E2
:1054100010404CF0010C6047DFE80CF00708020276
:105420004FF00040A0F5800010BD0846420018BFB4
:10543000D2F1807288BF00F0004010BDFF2141EA28
:10544000D050C0057047000090EA010F48BF81F0BE
:1054500000413FF58AAD421A04D882F00042A0EB29
:10546000020011444FEAD052A2EBD1534FF07F4CCF
:105470001CEA410F18BF9CEA026F4AD04FF0004C63
:105480004CEA00204CEA012121FA03FCB0EB0C0CA1
:105490000FD412F0FE0F36D05FEA4C001DD500127B
:1054A00040EBC25038BF70471CF03F0F18BF704729
:1054B0000BE05FEA1C20A2F1010240EBC25038BFB2
:1054C00070471CF07F0F18BF7047C3F1200399404D
:1054D00014BF401E20F0010070474FEA12238008DD
:1054E00008BF7047B0FA80FCA2EB0C02CCF1280C8C
:1054F00060FA0CF093EA122F04BF00EBC250704721
:105500004FEAC3707047130A5FEADC1008BF7047A8
:10551000F6E79CEA026F04D010EA5C0F08BF002097
:10552000704710B5FFF744FF40DFF63E81F00040C2
:105530007047FBF750BA000002400000000000A0D6
:105540000000000005400000000000C8000000004E
:105550000C4000000000409C0000000019400000CA
:105560000020BCBE0000000034400000BFC91B8EFC
:1055700000000004B5400000504BCFD06607E2CFDA
:10558000010000006C4100003E8251AADFEEA7340A
:1055900001000000D9420000DCB5A0E23A301F97BC
:1055A000FFFFFFFFB4450000FD25A0C8E9A3C14FE0
:1055B000FFFFFFFFFF3F0000000000800000000031
:1055C000FF3F00000000008000000000000000001D
:1055D00000000000010203040607080900000000A3
:1055E000010203040000000000000000ED35000887
:1055F000E12A000811350008212A0008AD2A000818
:10560000EB3300088F350008313300088329000888
:105610008D35000811340008392A00080000000008
:1056200000000000ED350008652E00081135000867
:105630000D350008892B0008EB330008BF3800083F
:105640005D38000899380008B53800088F38000820
:105650000000000000000000B12E0008CD3200085C
:10566000692E0008793200085D3000080000000053
:10567000000000000F390008E1390008693900080E
:105680000000000000000000093B00081F3E000869
:105690008F3C0008313D00080F0180961180FFB15A
:1056A00003012C2DB203012C2DB306012C2D012C4E
:1056B0002DB40107C003A20284C101C5C2020A00C1
:1056C000C3028A2AC4028AEEC5010E20003601A058
:1056D0003A0105022A040000007F2B040000007F2D
:1056E00004E010021C07123732292D29252B39001E
:1056F000010310E110031D07062E2C292D2E2E3735
:105700003F0000021013800A298064002E2E2F2EE5
:105710002E2F4C69622F4775694C6974655C47751B
:10572000694C6974652E6800685700080000002005
:10573000B00500006C01000840590008B0050020C9
:10574000A02D0000C80100081C000000430000005C
:10575000F8FFFFFF0C0000000E0000000F0000002B
:105760002E000000E9CEFFFF320142101324F41393
:10577000A8050BBD2001010A1D0201DA03015A042C
:10578000011A05011706060101B8107320511A020B
:1057900002124152261398127320579A451813F893
:1057A0000C7320459A88181308117320529ACB184D
:1057B0001AA81872548B0E01181338137320599AB3
:1057C00051181AF8307255AA9430120E7320499A63
:1057D000D7181A18C0724F8B1A02181A681872500C
:1057E0009A5D1813B80B73204112227A2A181A589E
:1057F0007872539A65181AA8F072449AA818134838
:105800000D7320469AEB181A981872478B2E0118C0
:105810001AE81872489A71181A88D8724A9AB418F5
:105820001AD818724B9AF71813280F73204C9B3A0A
:1058300002C01207732014120212526A616012131E
:105840007B205AD88A529012127B2058D889181A75
:1058500058F07A43D889181A48307A56D889181AD5
:1058600008307A42D889181AC8A87A4ED889181AE6
:1058700078187A4DD889181AD8A87A7FD812526A1F
:10588000623012147B201BD8127A6A84901208733B
:1058900020901A881869F013F8077B2020C0127A2C
:1058A0005AC7181A28487A2E90127A5A64181AA8D9
:1058B00030720A8B1A026001181AE8787A31907AED
:1058C00002C01338097320329A45181A88187A339F
:1058D000A889181AD8187A34487A2A1813280A7B03
:1058E00020354889181A78187A364889181AC8183D
:1058F0007A37487A521813180B7B20384889181ABF
:1059000068187A394889181378147B201B487A7AEA
:10591000181A98F07A304889181A28307A2E48894F
:105920001813D81373207F3ACBF0524E13A8077B7D
:10593000200A1829784918011813585642080000FF
:0400000508000131BD
:00000001FF
