:020000040800F2
:10000000C0060020F10100083B1800082B1600086C
:10001000371800086514000875200008000000006B
:10002000000000000000000000000000991D000812
:1000300069140008000000003D180008D91E0008DF
:100040000B0200080B0200080B0200080B0200085C
:100050000B0200080B0200080B0200080B0200084C
:100060000B0200080B0200080B0200080B0200083C
:100070000B0200080B0200080B0200080B0200082C
:100080000B0200080B0200080B0200080B0200081C
:100090000B0200080B0200080B0200080B0200080C
:1000A0000B0200080B0200080B0200080B020008FC
:1000B0003D1F00080B0200080B0200080B0200089D
:1000C0000B0200080B0200080B0200080B020008DC
:1000D0000B0200080B0200080B0200080B020008CC
:1000E0000B0200080B0200080B0200080B020008BC
:1000F0000B0200080B0200080B0200080B020008AC
:100100000B0200080B0200080B0200080B0200089B
:100110000B0200080B0200080B0200080B0200088B
:100120000B0200080B0200080B0200080B0200087B
:1001300000F002F800F04DF80AA090E8000C8244AC
:100140008344AAF10107DA4501D100F042F8AFF289
:10015000090EBAE80F0013F0010F18BFFB1A43F0A5
:1001600001031847C8440000E8440000103A24BFC7
:1001700078C878C1FAD8520724BF30C830C144BF0C
:1001800004680C607047000000230024002500264E
:10019000103A28BF78C1FBD8520728BF30C148BFEA
:1001A0000B607047662904F01081642900F07680A6
:1001B000782900F0AF80002070471FB500F0FCFBED
:1001C00004000020002103F03DFAE0601FBD10B5DF
:1001D00010BD00F011FD1146FFF7EFFF02F02CFEFD
:1001E00000F02FFD03B4FFF7F2FF03BC01F0C1FFE5
:1001F0000948804709480047FEE7FEE7FEE7FEE7BB
:10020000FEE7FEE7FEE7FEE7FEE7FEE704480549F6
:10021000054A064B70470000DD1E0008310100084A
:10022000C0000020C0060020C0020020C002002044
:10023000704700000FB4044910B503AA029800F0FB
:10024000A9FB10BC5DF814FB2800002070B5044623
:1002500085690068C10601D5302600E02026C00768
:1002600007D070BDD4E9012130469047206A401C78
:1002700020626D1EF6D570BD70B5044685690078A4
:10028000C00707D170BDD4E9012120209047206A22
:10029000401C20626D1EF6D570BD00002DE9F041B6
:1002A0000646002410687529314616A510D0AFF314
:1002B0000080002802DA404213A507E031688A076F
:1002C00001D512A502E0490704D511A5012401E0DA
:1002D000AFF3008000210A2206F1240709E0B0FBF9
:1002E000F2FCB0FBF2F302FB1C00303078541846ED
:1002F000491C0028F3D123462A463046BDE8F04188
:1003000000F0DFB8000000002D0000002B0000000E
:100310002000000070B504460D4621461068AFF37A
:1003200000802188090502D50F4A7A4402E00E4A6E
:100330007A440E32002104F1240305E000F00F0698
:100340000009965D5E54491C0028F7D120780023EF
:10035000000704D5702D02D009B1022311322046C6
:10036000BDE8704000F0ADB8904100002DE9F05FAD
:10037000894604464FF0000ADFF824B1FB44C0F878
:1003800020A02046E168884700287DD0252806D097
:10039000D4E901219047206A401C2062F1E7002542
:1003A0005F462046E16888472028064607DB312E55
:1003B00005D2B81910F8200C08B10543F1E7A807D9
:1003C00001D525F00405C4F81CA00027C4F818A026
:1003D0002A2E09D0304601F0C5FE38B304EB870859
:1003E000303EC8F8186019E059F8041B204604EBA9
:1003F00087029161E1688847012F064618D1E069BC
:10040000002820DA25F020051DE0D8F8180000EBC0
:10041000800006EB40003038C8F818002046E1683C
:100420008847064601F09EFE0028EED1012F0AD033
:100430002E2E08D12046E16888477F1C0646022FF1
:1004400045F02005C4DBA069002803DA404245F0EE
:100450000105A061E80701D025F01005A6B1A6F1BD
:100460004100192802D8203645F400654A46314635
:10047000204625604D46FFF795FE60B1012807D064
:10048000ED1D25F0070000E007E000F1080978E71E
:1004900005F1040975E730467AE7206ABDE8F09F68
:1004A00066410000704770477047704710B500F014
:1004B00087FA006810BD10B5044600F081FA0460A8
:1004C00010BD2DE9F0470D4699469246044600F1CD
:1004D00024080168880604D5E06921F01001216034
:1004E00000E00120A84201DD471B00E00027A169D0
:1004F0007A1902EB0900081AA0612078C00602D41C
:100500002046FFF7A3FE002608E0D4E901211AF8EF
:1005100006009047206A401C761C20624E45F4DBA2
:100520002078C0060AD52046FFF790FE06E0D4E901
:10053000012130209047206A401C2062381EA7F11C
:100540000107F4DC07E0D4E9012118F80500904721
:10055000206A401C2062281EA5F10105F3DC20461C
:10056000FFF78AFE2078000602D50220BDE8F0875A
:100570000120FBE770472DE9FF4F0C461E464FF068
:10058000FF378BB0D2E90001DDF860800A908A461F
:10059000C1F30A5505B93D46002108464FF0000059
:1005A000BAF1000F00F4400005DA00EB80004FF4D0
:1005B000400101EA50004FEA9059B9F1010F00DD06
:1005C000B9460A9850EA4A000ED044F61050A5F2F7
:1005D000FF3545432F14B8F1000F1ED07542291E78
:1005E0001EDDC9F100021CE0B8F1010F4FF0000060
:1005F00001D0302103E0F24305E02154401CB04219
:10060000FBDB30460022002121540B99C1F8088001
:10061000C1E900200FB0BDE8F08FBD1B6D1CDEE707
:100620004A4600DA694206A800F06CFA06AB93E885
:10063000070003AB83E8070050460A9900F04AFB25
:100640008DE80700A0F500501F3800900398002D9A
:100650000ADD42F21F014A460844002303A9039021
:10066000684600F0B3FD09E0A0F500504A461F3887
:10067000002303A90390684600F0BDFD8DE8070044
:100680000004000C03D04FF0FF30410800E010469A
:10069000B8F1000F03D00022009215461EE0751E2F
:1006A00005D400F091F9303262556D1EF9D5B3468C
:1006B0000122084302D000227F1C04E02078302869
:1006C00001D100227F1E002A099784D01DE0112D40
:1006D00007DA00F079F9303262556D1C50EA0102F8
:1006E000F5D1084302D00098C8B10EE00021681E81
:1006F00005E0235C625C63542254401E491C814225
:10070000F7DBAB46A81B401E0990002004F80B0045
:100710000B98099AC0F80880C0E9002B7AE71126E7
:100720004FF0000857E72DE9F04F88460446D21DE8
:1007300022F0070191B0D1E90001CDE90A0101F0F1
:100740009BFC02460B98C00F01D02D2007E02068CB
:10075000810701D52B2002E0202101EAC000032AF5
:10076000099001D0072A05DB03464146204600F0E8
:1007700089F90BE12078800601D5E06900E00620C8
:10078000B8F1650F814606D0B8F1660F18D0B8F100
:10079000670F70D131E00020B9F1110F009001DB3B
:1007A000112301E009F101030AAA01A90CA8FFF72E
:1007B000E2FEDDE90C70002609F10105834647E001
:1007C00001204B4600904FF000470AAA01A90CA84F
:1007D000FFF7D1FEDDE90DB00C995D46002610B99A
:1007E00009F101000D18B9EB050003D4C0F1FF3683
:1007F00009F10105A5EB09002BE0B9F1010F01DAC0
:100800004FF001090020B9F1110F0090484601DDB9
:10081000112300E003460AAA01A90CA8FFF7ABFECA
:10082000DDE90C704D4600268346207800070AD487
:10083000AB4500DA5D4601A8012D04DD411911F830
:10084000011C302907D04F4502DA17F1040F04DAF2
:10085000012082460FE06D1EEEE7002F02DCED1B4B
:100860003E4403E0781CA84200DD7D1CB81B00F16B
:10087000010A4FF000472078000703D4AA4501DBA6
:100880004FF0FF3A0021B7F1004F0DF143088DF80A
:10089000431024D002202B23002F01DA7F422D2386
:1008A0000A21021EA0F1010000DC5FB197FBF1FC00
:1008B00097FBF1F201FB1C7C17460CF1300C08F899
:1008C00001CDEEE7A8F1010003702188090501D5EB
:1008D000452100E06521A0F1010800F8011C0998FC
:1008E0000FA9A1EB0807FF1D00B10120411901EB81
:1008F000EA70A1693844081A401EA0612078C00639
:1009000002D42046FFF7A2FC099828B1D4E90121BE
:100910009047206A401C20622078C00622D52046DD
:10092000FFF794FC1EE0002E04DBB34502DD01A8B6
:10093000805D00E03020D4E901219047206A401C0E
:100940002062761CAAF101005FEA000A0AD100F0D9
:1009500033F8C0680168405CD4E901219047206AFF
:10096000401C2062281EA5F10105DCDC07E0D4E96B
:10097000012118F8010B9047206A401C2062381EA4
:10098000A7F10107F3DC2046FFF776FC032011B046
:1009900041E60000074B70B50D467B4400F05FF860
:1009A0000446284600F020F910B14FF0FF3070BD2A
:1009B000204670BD5B1C000000487047800000208E
:1009C000004870476000002030B5B0F10A024FEADD
:1009D000900E71F100034EEA817EB0EB0E0061EBE8
:1009E00091014FEA101E4EEA017E10EB0E0041EB22
:1009F00011114FEA102E4EEA016E10EB0E0041EB82
:100A000011214FEA104E4EEA014E10EB0E0041EB61
:100A10001141401841F100014FEAD00040EA417015
:100A20004FEAD10110EB80054FEA810444EA90744B
:100A300044EB01046D1944EB0404521BA3414FF035
:100A4000000348BF0A3200D530BD401C41F100010F
:100A500030BD000001694A1C02610878704700B58A
:100A60008FB0CDE901310021059105497944CDE9E7
:100A7000031011466846FFF779FC0FB000BD000077
:100A8000E5FFFFFF2DE9F0411F46044603260168FC
:100A9000072A01F4006004DB08B116A505E016A5DD
:100AA00003E008B115A500E015A521F010002060B5
:100AB000A069C01EA0610FB1401EA0612046FFF7D3
:100AC000C5FB4FB1D4E9012138469047206A401C4C
:100AD0002062C01C206206E0206AFAE7D4E9012106
:100AE00015F8010B9047761EF8D22046FFF7C4FB9D
:100AF000BDE8F0814E414E006E616E00494E4600E9
:100B0000696E66002DE9F047814616468AB0354881
:100B100078440DC88DE80D0032487844801C03AC41
:100B20000DC884E80D0041F69B300844372190FB46
:100B3000F1F290FBF1F5A5F1800501FB12041B3CDD
:100B400002D56442012000E00020DFF898A0804632
:100B50000027FA44AAF1BE0A0EE0E0070AD03246A6
:100B6000684607EB470101230AEB810100F043FBD4
:100B70008DE8070064107F1C002CEED1194F7F44D4
:100B8000AE3F19E0E80715D007EB04100DF1180A85
:100B900090E80E008AE80E00C068F04201D1981972
:100BA00008903246012306A903A800F024FB03ABFA
:100BB00083E807006D10641C002DE3D14FF00103A2
:100BC00032466946B8F1000F03A802D000F0FEFAE1
:100BD00001E000F010FBC9E90001C9F808200AB0E3
:100BE000BDE8F087003B0000007B00F0800070470C
:100BF00000487047600000207546FFF7F9FFAE46D9
:100C000005006946534620F00700854618B020B518
:100C1000FFF7FCFABDE820404FF000064FF0000758
:100C20004FF000084FF0000B21F00701AC46ACE894
:100C3000C009ACE8C009ACE8C009ACE8C0098D4601
:100C4000704710B50446AFF300802046BDE8104061
:100C5000FFF7C8BA4FF0013C50F8042B51F8043BA1
:100C60009A4221D1A2EB0C03934313EACC1317D180
:100C700050F8042B51F8043B9A4215D1A2EB0C0317
:100C8000934313EACC130BD150F8042B51F8043BD7
:100C90009A4209D1A2EB0C03934313EACC13DBD0A5
:100CA0004FF00000704700BFD01A01BAB1FA81F1CD
:100CB00001F0180122FA01F0CB40C1F12001DBB2B2
:100CC000C0B2C01A2CFA01F3D11A914311EAC31130
:100CD000E6D170475FEA400C08BF91F0000F4FEA81
:100CE0008C234FEAC12243EA51514FEA1C5018BFEE
:100CF00000F5F0404FEA300018BF41F000415FEAD4
:100D00006C5C00F02980BCF1FF3F08BF40F08040E0
:100D10007047130C06BF12044FF0100C4FF0000C7C
:100D2000130E04BF12020CF1080C130F04BF1201C2
:100D30000CF1040C930F04BF92000CF1020CD30FC2
:100D400004BF52000CF1010C11464FF00002A0F15B
:100D50001F00A0EB0C00704711F0004F08BF704758
:100D600031F000413FF4D5AF0B0C06BF09044FF042
:100D7000100C4FF0000C0B0E04BF09020CF1080C14
:100D80000B0F04BF09010CF1040C8B0F04BF890089
:100D90000CF1020CCB0F04BF49000CF1010CCCF19B
:100DA0002003A0EB0C0022FA03F302FA0CF241EA52
:100DB000030100F10100704720F07F4C80EA03003E
:100DC00023F07F47ACEB070303F57C5300F00040B2
:100DD00003F1FF032DE980494FEA154B09B44FEAAF
:100DE000144325EA0B4E24EA03480FF2042606EBCF
:100DF000132749083E785FEA320203FB0667C7F50E
:100E0000000707FB06F64FEA54374FEAD64606F1CD
:100E1000020607FB066CCCF1005C4FEA1C472CEA8B
:100E2000074C07FB06F40CFB06F504EB15464FEAEE
:100E3000961634BF00204FF000404FEAD13706FB32
:100E400007FC4FEA1C4C0CFB0BF7D21B03FB0CF707
:100E500061EB07010CFB0EF7B0EB074072EB17429A
:100E60000CFB08F734BFA2EB0742B2EB074261EB81
:100E700017414FEA0C444FEA910706FB07FC4FEA83
:100E80001C4C0CFB0BF7B0EBC74072EB573203FB6B
:100E90000CF734BFA2EBC742B2EBC74261EB57314C
:100EA0000CFB0EF7B0EBC70072EB57720CFB08F7A8
:100EB00034BFA2EBC702B2EBC70261EB5771039FCD
:100EC0004FEA816141EA921104EBCC044FEAD13739
:100ED0004FEA826206FB07FC42EA90124FEA80600A
:100EE0004FEA1C4C0CFB0BF7D21B03FB0CF761EB1E
:100EF00007010CFB0EF7B0EB074072EB17420CFB3F
:100F000008F734BFA2EB0742B2EB074261EB17418F
:100F10004FEA8C554FEA910704EB9C2406FB07FC33
:100F20004FEA1C4C0CFB0BF7B0EBC74072EB57328F
:100F300003FB0CF734BFA2EBC742B2EBC74261EB35
:100F400057310CFB0EF7B0EBC70072EB57720CFB7E
:100F500008F734BFA2EBC702B2EBC70261EB5771CF
:100F600015EB4C254FEA816141EA92114FEA82620A
:100F70004FEAD13742EA901206FB07FC44F1000425
:100F80004FEA80604FEA1C4C0CFB0BF7D21B03FBB3
:100F90000CF761EB07010CFB0EF7B0EB074072EBAF
:100FA00017420CFB08F734BFA2EB0742B2EB074233
:100FB00061EB174115EB1C154FEA813141EA924173
:100FC0004FEA823242EA90424FEA80304FEA0C7692
:100FD00044F1000448EA03434EEA0B484FF0000E88
:100FE000B2EB080C71EB030724BF624639464EEBA7
:100FF0000E0E4FF0000B0018524149414BEB0B0B0A
:10100000B2EB080C71EB03077BF1000B24BF6246C7
:1010100039464EEB0E0E4FF0000B0018524149417D
:101020004BEB0B0BB2EB080C71EB03077BF1000BE6
:1010300024BF624639464EEB0E0E51EA020718BF36
:1010400046F0010616EB0E7655F1000254F1000150
:1010500003D5BDE88901BDE80088BDE88901BDE888
:101060000048B619524141EB0101A3F10103704759
:1010700080807F7E7D7C7B7A7978777676757473D5
:10108000727171706F6E6E6D6C6C6B6A6A69686894
:10109000676666656464636362616160605F5F5E2A
:1010A0005E5D5D5C5C5B5B5A5A59595858575756A0
:1010B0005655555554545353525252515150505005
:1010C0004F4F4F4E4E4D4D4D4C4C4C4B4B4B4A4A57
:1010D0004A4949494848484747474746464645459B
:1010E00045444444444343434342424242414141D4
:1010F000002B9C4630D477002BD01CB54FEA370725
:1011000003B44FF010004FF01001BAF1000F06D0F9
:10111000BCF1000FDCBF40F0080040F008014FF0C8
:1011200000000FBCBDE810400BF1010BBBF1010F3B
:1011300008BF5FEA170722BF12F1010211F1010196
:101140004FF0004143F1000300F0004043EA00008B
:101150007047F9D35708D0E746EA064613F1400F27
:101160004FEA16461FDD13F1200FDFBF16430A4674
:10117000002120335B42BED0C3F1200746EA064679
:1011800002FA07F74FEA164646EA0706C3F12007B8
:1011900022FA03F201FA07F721FA03F14FF00003F4
:1011A00042EA0702A7E746EA020646EA06464FEA8F
:1011B000164646EA0106BCBF46EA0646360C4FF024
:1011C00000034FF000024FF0000194E72DE9804C3E
:1011D0009A46934670B491E8380007C831EA400C4B
:1011E00048BF34EA430C03D5FFF7E6FDFFF780FF65
:1011F000F0BCBDE8008C2DE9804C9A46934670B453
:1012000091E8380007C810F0804F08BF13F0804FF6
:1012100003D100F005F8FFF76BFFF0BCBDE8008CD0
:1012200020F07F4780EA030023F07F4C07EB0C039C
:10123000A3F57C5300F00040A3F1FE0392F0000FF1
:1012400000F0B38095F0000F00F077802DE90149A0
:101250004FEA11404FEA144621EA004800FB06FC21
:1012600024EA064708FB06F607FB08F800FB07F729
:1012700018EB06484CEB164C4FEA124B18EB07489C
:101280004FEA15464CEB174022EA0B4E0BFB06FCCF
:1012900025EA06470EFB06F607FB0EFE0BFB07F7DB
:1012A0001EEB064E4CEB164C4FF000061EEB074EA5
:1012B0004CEB174B18EB0B0840F1000018EB0E0B32
:1012C00058EB000840F100008F1A4FF000013CBFBE
:1012D000C943661B14BFB5EB040C00213CBFC943D6
:1012E000F61B4FEA17444EEA8E0E27EA04454FEAF2
:1012F0001C4704FB07622CEA074C05FB07F70CFBB5
:1013000005F604FB0CFC16EB074642EB174216EB06
:101310000C4642EB1C421BEB060658EB0202414115
:1013200046EA9E0601D5BDE80189B619524141EB56
:101330000101A3F10103BDE801894FEA14454FEA19
:10134000114724EA054621EA074C05FB07F406FB92
:1013500007F70CFB06F105FB0CFC11EB074144EB16
:1013600017444FEA124711EB0C4144EB1C4422EAAC
:10137000074C05FB07F206FB07F70CFB06F605FB1F
:101380000CFC16EB074642EB174216EB0C4642EB01
:101390001C456A1854F1000148BF7047B619524104
:1013A00041EB0101A3F10103704795F0000F37D025
:1013B0004FEA11424FEA144721EA024624EA074C59
:1013C00002FB07F106FB07F70CFB06F402FB0CFC23
:1013D00014EB074441EB17414FEA154714EB0C445B
:1013E00041EB1C4125EA074C02FB07F506FB07F71A
:1013F0000CFB06F602FB0CFC16EB074645EB17450B
:1014000016EB0C4645EB1C42121951F1000148BF86
:101410007047B619524141EB0101A3F10103704736
:101420004FEA14454FEA114724EA054621EA074CE2
:1014300005FB07F106FB07F70CFB06F24FF0000671
:1014400005FB0CFC12EB074241EB174112EB0C427F
:1014500051EB1C4148BF7047921841EB0101A3F1C9
:101460000103704700BFFEE770472DE9F0410246D7
:1014700000250026002000230024002791F803C047
:101480000CF00F0591F803C00CF0100CBCF1000F2C
:1014900003D091F802C04CEA050591F800C0BCF1F8
:1014A000000F31D0146800202BE04FF0010C0CFA33
:1014B00000F3B1F800C00CEA03069E4220D183007D
:1014C0004FF00F0C0CFA03F7BC4305FA03FC4CEA8F
:1014D000040491F803C0BCF1280F06D14FF0010CB1
:1014E0000CFA00FCC2F814C00AE091F803C0BCF189
:1014F000480F05D14FF0010C0CFA00FCC2F810C0E7
:10150000401C0828D1D31460B1F800C0BCF1FF0F13
:1015100034DD546800202EE000F1080C4FF0010883
:1015200008FA0CF3B1F800C00CEA03069E4221D180
:1015300083004FF00F0C0CFA03F7BC4305FA03FCD1
:101540004CEA040491F803C0BCF1280F05D100F166
:10155000080C08FA0CF8C2F8148091F803C0BCF12A
:10156000480F07D100F1080C4FF0010808FA0CF8F9
:10157000C2F81080401C0828CED35460BDE8F0812A
:10158000F0B50A46002300240021002500F00046A3
:10159000B6F1004F02D11D4EF16901E01B4E71689A
:1015A000C0F3034583B200F44016B6F5401F08D1DE
:1015B00021F07061154E766826F07066134F7E60DC
:1015C00012E000F48016B6F5801F06D1032606FA55
:1015D00005F4A14341F0706106E0460D360103FABF
:1015E00006F6B14341F0706122B1460D360103FAAF
:1015F00006F6314300F00046B6F1004F02D1034E2B
:10160000F16101E0014E7160F0BD00000000014099
:101610000246002093680B400BB1012000E000203F
:101620007047416170470161704700BFFEE721B11B
:10163000028842F48062028004E002884FF6FF33A1
:101640001A400280704770B502460024002500232E
:101650000020958A138B1B0445EA030626F07F447D
:1016600004EA01068E4201D1012000E0002070BD95
:1016700021B1028842F00102028004E002884FF6A4
:10168000FE731A400280704710B504460B4884422E
:1016900009D10121480500F0E3F800214FF40010C2
:1016A00000F0DEF808E00121880500F0D9F80021FB
:1016B0004FF4800000F0D4F810BD0000005400404A
:1016C00021B1028842F48072028004E002884FF661
:1016D000FF631A400280704721B1028842F4007211
:1016E000028004E002884FF6FF531A4002807047E0
:1016F0000CB50246002000230193009300920B0FCB
:10170000019321F07F41019B1BB1009B1433009397
:1017100003E0090C009B18330093009B1B680B40EF
:101720000BB1012000E000200CBD00002DE9F043CA
:1017300085B004460D460026B1460427DFF8CC806C
:10174000A6884FF6C0700640684600F0A9F8DDF89C
:1017500008802F48B8FBF0F01FFA80F946EA090626
:10176000A68020884FF6FE71084020800026294977
:10177000286888420CD828684000B8FBF0F087B28F
:10178000042F00DA04273E4309F10100208427E0FA
:10179000E8884BF6FF71884206D1286800EB4000CC
:1017A000B8FBF0F087B209E0286800EBC00101EB5C
:1017B0000010B8FBF0F087B247F48047C7F30B0086
:1017C00008B947F0010747F4004006434FF496700C
:1017D00009FB00F04FF47A7190FBF1F0401C20847B
:1017E000A683208840F00100208026884FF6F5303F
:1017F0000640A8886989084306432680A889298964
:101800000843208105B0BDE8F083000000127A0093
:1018100040420F00A08601000146088AC0B270470E
:1018200012B141F0010102E04FF6FE73194001824E
:1018300070470182704700BFFEE7704770470000A5
:1018400029B1064AD2690243044BDA6104E0034A33
:10185000D2698243014BDA617047000000100240F8
:1018600029B1064A12690243044B1A6104E0034A93
:1018700012698243014B1A61704700000010024058
:1018800029B1064A92690243044B9A6104E0034A73
:1018900092698243014B9A61704700000010024038
:1018A00030B500210022002400232D4D6D6805F085
:1018B0000C0121B1042905D0082923D105E0294DC7
:1018C000056022E0274D05601FE0254D6D6805F499
:1018D0007012234D6D6805F48034022505EB9242A9
:1018E0001CB9214D554305600BE01D4D6D6805F495
:1018F00000351DB11C4D5543056002E0194D55439F
:10190000056002E0174D056000BF00BF144D6D6813
:1019100005F0F0010909154D6B5C0568DD40456077
:101920000F4D6D6805F4E061090A104D6B5C456868
:10193000DD4085600A4D6D6805F46051C90A0B4DA4
:101940006B5C4568DD40C560054D6D6805F4404140
:10195000890B074D6B5CC568B5FBF3F5056130BDC0
:101960000010024000127A0000093D00140000201F
:10197000240000208168B1F5807F79D012DC102925
:101980005CD008DC012925D0022930D004293BD0C5
:1019900008292BD145E020295DD040296AD0802933
:1019A000F7D177E0B1F5805F71D009DCB1F5007F48
:1019B0006ED0B1F5806F6CD0B1F5006FE9D19FE0CA
:1019C000B1F5005F73D0B1F5804F71D0B1F5004F24
:1019D000DFD1C9E04168096821F00F014268116058
:1019E0004168096841F0040142681160C9E041683A
:1019F000096821F0F001426811604168096841F00E
:101A0000400142681160BCE04168096821F47061DE
:101A1000426811604168096841F480614268116060
:101A2000AFE04168096821F4704142681160416883
:101A3000096841F4804142681160A2E04168096888
:101A400021F47021426811604168096841F48021E5
:101A50004268116095E04168096821F470014268AC
:101A600011604168096841F480014268116088E0B2
:101A70001FE0FFE74168096821F07061426811606A
:101A80004168096841F080614268116079E044E092
:101A90001CE028E04168096821F07041426811604B
:101AA0004168096841F080414268116069E041E0A5
:101AB0004DE04168496821F00F014268516041687A
:101AC000496841F00401426851605AE04168496840
:101AD00021F0F001426851604168496841F04001DD
:101AE000426851604DE04168496821F47061426884
:101AF00051604168496841F480614268516040E04A
:101B00004168496821F47041426851604168496800
:101B100041F480414268516033E04168496821F4F2
:101B20007021426851604168496841F480214268EF
:101B3000516026E04168496821F4700142685160B3
:101B40004168496841F480014268516019E0416888
:101B5000496821F07061426851604168496841F00C
:101B60008061426851600CE04168496821F0704131
:101B7000426851604168496841F080414268516063
:101B800000BF00BF70478168B1F5807F79D012DC5B
:101B900010295CD008DC012925D0022930D0042985
:101BA0003BD008292BD145E020295DD040296AD0BF
:101BB0008029F7D177E0B1F5805F71D009DCB1F50C
:101BC000007F6ED0B1F5806F6CD0B1F5006FE9D1B8
:101BD0009FE0B1F5005F73D0B1F5804F71D0B1F5E2
:101BE000004FDFD1C9E04168096821F00F01426868
:101BF00011604168096841F0070142681160C9E05D
:101C00004168096821F0F001426811604168096883
:101C100041F0700142681160BCE04168096821F43C
:101C20007061426811604168096841F4E06142688E
:101C30001160AFE04168096821F4704142681160A9
:101C40004168096841F4E04142681160A2E04168DE
:101C5000096821F47021426811604168096841F403
:101C6000E0214268116095E04168096821F4700143
:101C7000426811604168096841F4E00142681160FE
:101C800088E01FE0FFE74168096821F07061426861
:101C900011604168096841F0E0614268116079E0D3
:101CA00044E01CE028E04168096821F07041426886
:101CB00011604168096841F0E0414268116069E0E3
:101CC00041E04DE04168496821F00F0142685160F0
:101CD0004168496841F00701426851605AE0416833
:101CE000496821F0F001426851604168496841F05B
:101CF0007001426851604DE04168496821F47061AB
:101D0000426851604168496841F4E061426851604D
:101D100040E04168496821F470414268516041687F
:101D2000496841F4E0414268516033E041684968E4
:101D300021F47021426851604168496841F4E02112
:101D40004268516026E04168496821F470014268A8
:101D500051604168496841F4E0014268516019E00E
:101D60004168496821F07061426851604168496882
:101D700041F0E061426851600CE04168496821F03F
:101D80007041426851604168496841F0E0414268F1
:101D9000516000BF00BF7047704710B500F002F8F7
:101DA00010BD00000CB50020019000903348006881
:101DB00040F480303149086000BF3048006800F4CA
:101DC000003000900198401C0190009818B90198CB
:101DD000B0F5A06FF1D12948006800F4003010B1CF
:101DE0000120009001E0002000900098012843D1DC
:101DF0002348006840F01000214908600846006848
:101E000020F0030008600846006840F00200086007
:101E10001A484068194948600846406848600846C2
:101E2000406840F4806048600846406820F47C10B8
:101E300048600846406840F4E8104860084600687A
:101E400040F08070086000BF0C48006800F000702F
:101E50000028F9D00948406820F00300074948608D
:101E60000846406840F00200486000BF03484068F0
:101E700000F00C000828F9D10CBD00000010024051
:101E80000020024030B50146481EB0F1807F01D3EA
:101E9000012030BD481E4FF0E022506150170F2244
:101EA000002807DA13071D0E094B00F00F04241F4A
:101EB0001D5503E013071C0E064B1C5400BF0020E9
:101EC0004FF0E0229061072010610020E1E7000060
:101ED00018ED00E000E400E07047000010B5134882
:101EE000006840F001001149086008464068104948
:101EF00008400E494860084600680E4908400B49F2
:101F000008600846006820F48020086008464068A1
:101F100020F4FE0048604FF41F008860FFF73DFF8B
:101F20004FF000600449086010BD0000001002403E
:101F30000000FFF8FFFFF6FE08ED00E010B50121FC
:101F4000880700F00EF8012805D103490870012127
:101F5000800700F003F810BD2C000020CA43028265
:101F6000704730B50246002000230024158A05EA98
:101F70000103958905EA010413B10CB1012000E0C9
:101F8000002030BD21B1828942F40052828104E0F8
:101F900082894DF6FF731A40828170472DE9F04720
:101FA00086B005460E460024A24600BFA146002783
:101FB000B08900B100BF2F462C8A4CF6FF70044058
:101FC000F08804432C82AC894EF6F3100440B088AC
:101FD00031890843718908430443AC81AC8A4FF6C8
:101FE000FF400440B0890443AC8201A8FFF758FCCD
:101FF0001F48874202D1DDF810A001E0DDF80CA0F7
:10200000A88900F4004040B10AEBCA0000EB0A10B6
:1020100031684900B0FBF1F807E00AEBCA0000EBB9
:102020000A1031688900B0FBF1F86420B8FBF0F0C9
:1020300004012009642101FB1089A88900F40040F3
:1020400040B1322000EBC900B0FBF1F000F0070016
:10205000044308E0322000EB09106421B0FBF1F0EA
:1020600000F00F0004432C8106B0BDE8F0870000AB
:102070000038014000BFFEE7490050EAC12018BF08
:1020800004204A0D18BF40F0010040F2FF72B2EB8D
:10209000515F08BF40F00200012808BF05207047CB
:1020A0002DE9F0414F1E00EBC7010446D1E90001C4
:1020B00015461E4637F006020DD02A46334601F07B
:1020C00067FD7F1E04EBC703D3E9002301F0D0FABC
:1020D00037F00602F1D1022F25D0042F13D0062F9E
:1020E00018BFBDE8F0812A46334601F051FDD4E91E
:1020F0000A2301F0BDFA2A46334601F049FDD4E92E
:10210000082301F0B5FA2A46334601F041FDD4E92F
:10211000062301F0ADFA2A46334601F039FDD4E931
:10212000042301F0A5FA2A46334601F031FDD4E933
:10213000022301F09DFA2A46334601F029FDD4E935
:102140000023BDE8F04101F093BA012202F071B919
:1021500001F08EBA024A0020110702F06AB90000AD
:1021600001FDFFFF30380A2801D20120704700200E
:10217000704700BF704700002DE9F84F04460D4638
:1021800021F0004000917349814211DC724988427C
:1021900001DC06D12CB120462946BDE8F84FFFF7F7
:1021A000D4BF6E48002DCCBF6D496E49BDE8F88F95
:1021B0006D49814211DD6D498142D8BF4FF0FF3634
:1021C0006DDD20462946FFF757FF042808BFFFF7BB
:1021D000C1FF20462946BDE8F88F6549654F25F0C7
:1021E0000045814233DD6449814219DD00263246D3
:1021F0004FF080432046294601F03AFA80468A464D
:1022000001222046294602F014F900223B4601F043
:10221000C9FD4246534601F0E7FA04460D463EE04A
:1022200001260022BA463B462046294601F020FA04
:1022300080460F46002253462046294601F0B2FD53
:1022400042463B4601F0D0FA04460D4627E04B4992
:1022500081421BDDDFF828A10226002253462046DA
:10226000294601F095FC00223B4601F001FA804628
:102270000F46002253462046294601F093FD424670
:102280003B4601F0B1FA04460D4608E0032622461B
:102290002B4600203B4901F0A7FA04460D46224692
:1022A0002B461046194601F073FC8B4682460246C7
:1022B0000B4601F06DFC07460246334888460B4644
:1022C00006217844FFF7ECFE52465B4601F060FCC5
:1022D00082462E488B463A46434605217844FFF70E
:1022E000DFFE3A46434601F053FC02460B46002E01
:1022F000504659460CDA01F0BBF922462B4601F054
:1023000047FC01B022462B46BDE8F04F01F03EBD30
:1023100001F0AEF922462B4601F03AFC1C4A7A4401
:1023200002EBC603D3E9002301F03CFD22462B4615
:1023300001F038FD174A7A4402EBC603D3E90023C3
:1023400001F024FD009A002AB8BF81F00041BDE8E9
:10235000F88F0000000010440000F07F182D445456
:10236000FB21F93FFB21F9BF0000DC3F0000203ECC
:102370000000F33F0000F03F0000E63F0080034014
:102380000000F83F0000F0BF9A2200005822000031
:10239000F6210000BE2100002DE9F04D9446CCF15D
:1023A000000423F000464CEA0404594F46EAD47472
:1023B0009A46884621F00042BC4206D8454240EA8F
:1023C000050442EAD474BC4204D9BDE8F04D62462B
:1023D000FFF7BEBEAAF14055A5F17F6555EA0C0492
:1023E0000BD0022404EAAA744A4DDFF82CE144EA37
:1023F000D87452EA000B04D00CE0BDE8F04DFFF7B2
:10240000BBBE002C14BF012CBDE8F08D022C30D0D7
:10241000032C32D056EA0C0B0AD0BE4220D1BA426D
:1024200009D126F0804622F080423346114617E05B
:1024300000291ADB25E0DFF8E4B0FB44002C04BFE0
:10244000DBE90001BDE8F08D012C02BFDBE90001F2
:1024500081F00041BDE8F08D022C0AD0032C0CD095
:10246000BA4212D1B8F1000F0BDA2A482C49BDE864
:10247000F08D28462B49BDE8F08D28467146BDE811
:10248000F08D24482849BDE8F08D921B12153C2A96
:10249000C4BF204F244E10DCBAF1000FBEBF12F1B2
:1024A0003C0F00273E4608DB624601F09DF921F013
:1024B0000041FFF761FE07460E4694B1012C08BFAC
:1024C00086F000460DD0194A194B022C3846314689
:1024D00015D001F067FC2A46BDE8F04D114B01F024
:1024E00061BC002213463846314601F0D5FA04BFDC
:1024F0000220FDF7E0FF38463146BDE8F08D01F0DF
:1025000051FC2A46BDE8F04D064B01F03FBC0000EF
:102510000000F07F182D4454FB2109C05221000017
:10252000FB21F9BFFB210940FB21F93F075C143374
:1025300026A6A13C10B500F07BF801F00BF810BD09
:102540002DE9F04704461348006801F00EFB0746EA
:102550000022114B01F048F9054601F0D9FA8146F5
:10256000FFF790FC07E000BF4FF0E020006900F4A7
:1025700080300028F8D0201EA4F10104F3D14FF0E0
:10258000E020006920F001004FF0E0210861BDE883
:10259000F08700000000002000408F402DE9F04748
:1025A00004461348006801F0E0FA07460022114B88
:1025B00001F01AF9054601F0ABFA8146FFF762FC1B
:1025C00007E000BF4FF0E020006900F480300028F1
:1025D000F8D0201EA4F10104F3D14FF0E0200069EF
:1025E00020F001004FF0E0210861BDE8F087000015
:1025F0000000002080842E4100BF0B4A128802F0A8
:102600004002002AF9D0C2B2074B1B1D1A8000BF3E
:10261000064A128802F04002002AF9D0C2B2034BE7
:102620001B1D1A8070470000003801400044004024
:10263000704700002DE9F04104460E460027E5688A
:1026400004E0281EA5F1010500D12BE04FF4003174
:102650002068FFF74DF80028F3D1E56801212068D4
:10266000FFF72EF804E0281EA5F1010500D119E0BE
:1026700010492068FEF7E7FF0028F4D0E568F1B2C2
:1026800000222068FFF7CCF804E0281EA5F1010520
:1026900000D107E008492068FEF7D5FF0028F4D0F4
:1026A000012700BF01212068FFF716F83846BDE872
:1026B000F0810000010003008200070010B586B021
:1026C000044647492068084418B1B0F5806F7DD1B1
:1026D00049E001210820FFF7D3F801214805FFF761
:1026E000AFF8207938B900210220FEF749FFC02059
:1026F000ADF814000BE001210846FFF7C1F80121F5
:102700000220FEF73DFF4FF44070ADF814001C208E
:102710008DF8170003208DF8160005A93148FEF743
:10272000A4FE2F484042FEF7AFFF0020ADF808009E
:102730004FF48060ADF80E000001ADF81000A06805
:1027400001904BF6FF70ADF80A00208AADF80C003E
:1027500001A923484042FEF7E9FF012120484042F9
:10276000FEF786FF39E001210820FFF789F80121F3
:102770008805FFF765F84FF44060ADF814001C20A1
:102780008DF8170003208DF8160005A91548FEF7EF
:102790006CFE1548FEF778FF0020ADF808004FF4F6
:1027A0008060ADF80E000001ADF81000A068019047
:1027B0004BF6FF70ADF80A00208AADF80C0001A9B5
:1027C0000948FEF7B3FF0121074800E002E0FEF7E9
:1027D0004FFF02E0002006B010BD00BF0120FAE765
:1027E00000ACFFBF000C0140005800402DE9F05F35
:1027F00004460F4690461E46DDE90A9A4FF0000B4C
:10280000B9F1000F02D15846BDE8F09FE56804E039
:10281000281EA5F1010500D1A9E04FF40031206880
:10282000FEF766FF0028F3D1E56801212068FEF776
:1028300047FF04E0281EA5F1010500D197E05149AA
:102840002068FEF700FF0028F4D0E568F9B2002206
:102850002068FEF7E5FF04E0281EA5F1010500D180
:1028600085E049492068FEF7EEFE0028F4D00AF022
:10287000040090B1E5684FEA28212068FEF7D9FFEF
:1028800004E0281EA5F1010500D170E03E49891E33
:102890002068FEF7D8FE0028F3D0E56808F0FF01B5
:1028A0002068FEF7C6FF04E0281EA5F1010500D14F
:1028B0005DE03549891E2068FEF7C5FE0028F3D08B
:1028C000E56801212068FEF7FBFE04E0281EA5F163
:1028D000010500D14BE02B492068FEF7B4FE00282B
:1028E000F4D0E568F9B201222068FEF799FF04E010
:1028F000281EA5F1010500D139E02249491C2068B4
:10290000FEF7A1FE0028F3D012E0E56804E0281EDF
:10291000A5F1010500D12AE01A493F312068FEF7F0
:1029200092FE0028F3D02068FEF776FF06F8010B30
:10293000A9F1010080B2B0F10009E6D100212068C0
:10294000FEF775FEE56804E0281EA5F1010500D13B
:102950000DE00C493F312068FEF775FE0028F3D0EA
:102960002068FEF759FF30704FF0010B00BF0121C6
:102970002068FEF7B1FE01212068FEF758FE584698
:1029800042E7000001000300820007002DE9F04744
:1029900004460F4616469846DDF820904FF0000A90
:1029A000B8F1000F02D15046BDE8F08707F0FE07EE
:1029B000E56804E0281EA5F1010500D162E04FF4AE
:1029C00000312068FEF794FE0028F3D1E56801216C
:1029D0002068FEF775FE04E0281EA5F1010500D170
:1029E00050E02D492068FEF72EFE0028F4D0E5685F
:1029F000F9B201222068FEF713FF04E0281EA5F1BA
:102A0000010500D13EE02449491C2068FEF71BFE69
:102A10000028F3D012E0E5682068FEF7FDFE06F816
:102A2000010B04E0281EA5F1010500D12AE01A4996
:102A30003F312068FEF707FE0028F3D0A8F101001F
:102A400080B2B0F10008E6D100212068FEF7EFFD6A
:102A5000E5682068FEF7E0FE307004E0281EA5F16E
:102A6000010500D10EE00C493F312068FEF7EBFD77
:102A70000028F3D04FF0010A09F0100008B15046C9
:102A800092E700BF01212068FEF726FE01212068A1
:102A9000FEF7CDFD504687E7010003002DE9F04722
:102AA0000446884616461F46DDF820904FF0000A7F
:102AB00017B95046BDE8F087E56804E0281EA5F187
:102AC000010500D14BE04FF400312068FEF710FE05
:102AD0000028F3D1E56801212068FEF7F1FD04E04C
:102AE000281EA5F1010500D139E020492068FEF734
:102AF000AAFD0028F4D0E56808F0FF010022206854
:102B0000FEF78EFE04E0281EA5F1010500D126E0A7
:102B100017492068FEF797FD0028F4D012E0E56819
:102B200016F8011B2068FEF784FE04E0281EA5F1BC
:102B3000010500D113E00E49891E2068FEF783FDD0
:102B40000028F3D0381EA7F101018FB2E7D14FF072
:102B5000010A09F0100008B15046ABE700BF01219F
:102B60002068FEF7B9FD5046A4E70000010003000D
:102B7000820007002DE9F05F0446884616461F468E
:102B8000DDE90A9A4FF0000BB9F1000F02D1584667
:102B9000BDE8F09FE56804E0281EA5F1010500D11D
:102BA0006FE04FF400312068FEF7A2FD0028F3D15A
:102BB000E56801212068FEF783FD04E0281EA5F1E9
:102BC000010500D15DE032492068FEF73CFD002898
:102BD000F4D0E56808F0FF0100222068FEF720FE2F
:102BE00004E0281EA5F1010500D14AE0294920682A
:102BF000FEF729FD0028F4D00AF0040088B1E5684A
:102C000031122068FEF715FE04E0281EA5F101052B
:102C100000D136E01F49891E2068FEF714FD002808
:102C2000F3D0E568F1B22068FEF703FE04E0281E49
:102C3000A5F1010500D124E01649891E2068FEF7A0
:102C400002FD0028F3D012E0E56817F8011B2068A8
:102C5000FEF7EFFD04E0281EA5F1010500D110E00C
:102C60000C49891C2068FEF7EEFC0028F3D0B9F16E
:102C70000000A9F101011FFA81F9E5D14FF0010B24
:102C800000BF01212068FEF727FD584680E70000BD
:102C90000100030082000700F8B504460D46164601
:102CA0006A462946204600F019F810B19DF8000048
:102CB000F8BD3046FCE72DE9FC4104460D461646BA
:102CC0001F46A07ACDE900702189D4E9000233467D
:102CD000D2F810C02A46E047BDE8FC8170B5044632
:102CE0000D4616460123324629462046FFF7E3FFEC
:102CF00070BD2DE9FC4104460D4616461F46A07ADC
:102D0000CDE900702189D4E900023346D2F814C01D
:102D10002A46E047BDE8FC8137B504460D4601234D
:102D200002AA29462046FFF7E4FF3EBD2DE9F04107
:102D300007460E460024002518A0FDF77BFA20A0C8
:102D4000FDF778FA20E021462BA0FDF773FA4FF04B
:102D5000100800BF4FF6FF7000EA44013846726861
:102D6000904728B1214626A0FDF764FA6D1C02E0C9
:102D700025A0FDF75FFA641CA8F10100B0F100087E
:102D8000E8D122A0FDF756FA7F2CDCDB294620A0F3
:102D9000FDF750FAE8B2BDE8F081000069326364E3
:102DA000657620372D62697420616464726573737F
:102DB000206465746563746F723A0D0A0000000048
:102DC00020202020203020203120203220203320BD
:102DD0002034202035202036202037202038202085
:102DE000392020612020622020632020642020657B
:102DF0002020660D0A000000253032783A200000BD
:102E000025303278200000002D2D20000D0A000012
:102E10003E3E2025642064657669636573206465A1
:102E200074656374656420696E20746869732073C7
:102E300063616E0D0A00000090B0FFF77BFB16483F
:102E40000B9001208DF8300014480D90FF200E905B
:102E50000BA807901248089001680BA8884703E068
:102E60004FF4FA60FFF76CFB0D490BA8FFF75EFF0C
:102E70000028F5D0D020ADF8240000208DF82600E1
:102E8000694607A800F00EF805E007A800F060F812
:102E90003220FFF755FBF8E700540040A086010000
:102EA0004800002070B504460D4600BF80226B210B
:102EB0002046FFF731FF6420FFF742FB00226B2121
:102EC0002046FFF729FF002275212046FFF7E4FE88
:102ED000682807D018A0FDF7ADF94FF47A70FFF716
:102EE0002FFBE3E7002219212046FFF715FF002200
:102EF0001A212046FFF710FF00221B212046FFF772
:102F00000BFF00221C212046FFF706FF0022232191
:102F10002046FFF701FF002238212046FFF7FCFE84
:102F200000226A212046FFF7F7FE00226C2120468E
:102F3000FFF7F2FEE56070BD6661696C20746F207A
:102F4000696E6974206D7075363035300D0A000079
:102F50002DE9F04F8BB08146D9F80C400020069047
:102F60000790089009900E2306AA3B214846FFF7D8
:102F7000A2FE00287ED09DF819109DF8180000F0E0
:102F8000D9FA064601F048F905464FF08D4101F0A7
:102F900081F820609DF81B109DF81A0000F0CAFA15
:102FA000064601F039F905464FF08D4101F072F8FF
:102FB00060609DF81D109DF81C0000F0BBFA0646ED
:102FC00001F02AF905464FF08D4101F063F8A06049
:102FD0009DF81F109DF81E0000F0ACFA074601F0A6
:102FE0001BF90646354901F055F80546344900F00D
:102FF000EFFFE0609DF821109DF8200000F09AFAA4
:10300000064601F009F905462E4901F043F8206112
:103010009DF823109DF8220000F08CFA064601F07E
:10302000FBF80546274901F035F860619DF8251049
:103030009DF8240000F07EFA064601F0EDF8054602
:10304000204901F027F8A061A06800F095FF05462F
:103050000E46606800F090FF07462A463346FFF7A9
:103060009BF98246184A194B00F092FDCDE9040104
:10307000A06800E01FE000F07FFF82468B462068DA
:1030800000F07AFF054652465B46FFF785F9074692
:103090000D4A0E4B00F07CFDCDE90201DDE9040193
:1030A000CDE900010AA0DDE90223FDF7C3F8012004
:1030B0000BB0BDE8F08F0020FAE700000000AA4343
:1030C000000012420000034312143FC6DCA54C402E
:1030D00070697463683A2566092C726F6C6C3A25C6
:1030E000660D0A0070B504460D46204600F07FF9D3
:1030F0002946204600F003F90646204600F09DF9D7
:10310000304670BD38B5044601212068FEF7B8FB93
:1031100003208DF80200208A80B2ADF80000142050
:103120008DF803006946E068FEF79FF9208980B2B8
:10313000ADF8000014208DF8030069466068FEF7C2
:1031400094F92046FEF71FFD228991B26068FEF7D0
:103150006AFA228A91B2E068FEF765FA012038BD6A
:103160002DE9FF4706460C461D46DDE90C78304642
:1031700000F03DF904F0FE01304600F0C0F8B0F177
:10318000000900D122E008F0040008B1022000E0AC
:103190000120024602A9304600F015F9B0F10009FD
:1031A00000D113E0304600F022F9E0B240F0010116
:1031B000304600F0A4F8B0F1000900D106E0012388
:1031C0003A462946304600F080F800BF304600F00D
:1031D00034F9484604B0BDE8F0872DE9F0470746CA
:1031E0000C4615461E46DDF82090384600F0FFF8E4
:1031F000E0B240F00101384600F081F8B0F100087B
:1032000000D106E0012332462946384600F05DF839
:1032100000BF384600F011F94046BDE8F0872DE9BF
:10322000F04104460D46802600272046FEF7A2FB0B
:1032300000BF228A91B2E068FEF7F5F96069FFF7F6
:10324000ADF9228991B26068FEF7E2F900B1374327
:10325000228A91B2E068FEF7E4F96069FFF79EF90F
:103260007010061EE5D12046FEF78DFC228A91B231
:10327000E068FEF7D6F96069FFF790F945B1012DD6
:1032800005D1228991B26068FEF7CDF906E000BF52
:10329000228991B26068FEF7C4F900BF00BF60697F
:1032A000FFF77CF9228A91B2E068FEF7BCF9606909
:1032B000FFF774F9228A91B2E068FEF7B2F960690B
:1032C000FFF76CF93846BDE8F0812DE9F04107467B
:1032D0000C4615461E46002D0FDD05E00021384640
:1032E000FFF79DFF04F8010B681E80B2051EF5D1A3
:1032F00031463846FFF793FF2070BDE8F0812DE995
:10330000F04104460D46802600274FF00008204675
:10331000FEF739FC00BF05EA060028B1228991B208
:103320006068FEF780F904E0228991B26068FEF7D8
:1033300078F96069FFF732F9228A91B2E068FEF706
:1033400072F96069FFF72AF9228A91B2E068FEF704
:1033500068F96069FFF722F97010061EDBD1228937
:1033600091B26068FEF75FF96069FFF717F9228A8A
:1033700091B2E068FEF757F96069FFF70FF9204650
:10338000FEF7F8FA07E0781CC0B20746FA2802DD1B
:103390004FF001080FE0228991B26068FEF738F91A
:1033A0000028F0D1228A91B2E068FEF73AF960690C
:1033B000FFF7F4F800BFB8F1000F02D10120BDE81B
:1033C000F0810020FBE770B506460C46154607E085
:1033D00014F8011B3046FFF792FF08B9002070BDBA
:1033E000281EA5F101018DB2F2D10120F7E710B539
:1033F00004462046FEF7C7FB228991B26068FEF7BB
:1034000012F96069FFF7CAF8228A91B2E068FEF704
:103410000AF96069FFF7C2F8228991B26068FEF785
:1034200000F96069FFF7BAF8228A91B2E068FEF706
:10343000F8F86069FFF7B2F810BD10B504462046F1
:10344000FEF7A1FB228A91B2E068FEF7EAF8606914
:10345000FFF7A4F8228991B26068FEF7E2F860698C
:10346000FFF79CF8228A91B2E068FEF7DCF8606909
:10347000FFF794F8228991B26068FEF7D4F860698A
:10348000FFF78CF810BD2DE9F04707460C461546AE
:103490001E46DDF820903846FFF7A9FF04F0FE0134
:1034A0003846FFF72CFFB0F1000800D109E03246A2
:1034B00029463846FFF787FFB0F1000800D100E049
:1034C00000BF3846FFF7B9FF4046BDE8F0872DE959
:1034D000FF4706460C461D46DDE90C783046FFF7EF
:1034E00086FF04F0FE013046FFF709FFB0F1000946
:1034F00000D118E008F0040008B1022000E001202B
:10350000024602A93046FFF75EFFB0F1000900D184
:1035100009E03A4629463046FFF755FFB0F1000969
:1035200000D100E000BF3046FFF787FF484604B0F7
:10353000BDE8F087024602F0800040B181F0FF0054
:10354000401C82F0FF0340EA03204042704741EAFA
:103550000220FBE700B585B001210420FEF790F9B9
:1035600001218803FEF78CF94FF40070ADF81000CC
:1035700003208DF8120018208DF8130004A92E489E
:10358000FDF773FF4FF48060ADF8100004208DF854
:10359000130004A92848FDF768FF4FF4E1300090BC
:1035A0000020ADF80400ADF80600ADF80800ADF855
:1035B0000C000C20ADF80A0069462048FEF7EEFC2E
:1035C00001211E48FEF7DEFC01210420FEF758F918
:1035D00001214804FEF734F90420ADF8100003205F
:1035E0008DF8120018208DF8130004A91248FDF779
:1035F0003CFF0820ADF8100004208DF8130004A94A
:103600000D48FDF732FF4FF4E13000900020ADF897
:103610000400ADF80600ADF80800ADF80C000C2071
:10362000ADF80A0069460648FEF7B8FC01210448D7
:10363000FEF7A8FC05B000BD0008014000380140BD
:103640000044004010B500290AD00878002807D0AF
:1036500005487844FDF7FEFA002801D0002010BD8F
:103660000248784410BD0000FA0F0000F20F00007D
:1036700010B591EA030F48BF83F0004300F19A832D
:10368000841A71EB030C05D2121943EB0C03001BD7
:1036900061EB0C01DFF824E14FEA1154A4EB135C59
:1036A0001EEA430F18BF9EEA445F73D023EA0E035D
:1036B000DCF1200E21EA045143F4801332D322FAC4
:1036C0000CFE10EB0E0023FA0CFE41EB0E01CCF1C8
:1036D000200E03FA0EFE10EB0E0051F10001B1F5C1
:1036E000801FCCF1200E32D201EB045112FA0EF2FF
:1036F000BDE8104058BF7047401C38BF5FEA420227
:1037000018BF7047002814BF20F0010041F10001EC
:103710004FEA410313F5001F38BF7047A1F1C041C4
:1037200000F02EBB012A43EB0302ACF1200CDCF1CC
:103730001F0E32BF4FF0000E23FA0CF310EB030004
:1037400041EB0451B4EB115FD0D0A1EB045101F572
:10375000801149085FEA300001EB04510ED350F1AB
:10376000000038BF12FA0EFE08D1BDE81040C9E7CC
:10377000401C38BF5FEA4202CAD1C3E7BDE810402F
:103780004FEA410313F5001F38BF7047A1F1C04154
:1037900000F0F6BA9EEA445F08D011EA5E0FBDE879
:1037A000104004BF01F0004100207047BDE8104008
:1037B00070B500F097FA00BF64FBBE3E0000E0FF6A
:1037C00002494FF0000000F002BE00BF0000F87F89
:1037D000491058BFC1F140415B1058BFC3F140438D
:1037E0008B42EFF3008070472DE9C04130B4DFF821
:1037F000A0C23CEA111418BF3CEA131400F0EC809C
:1038000081EA03051CEA111444EAD57418BF1CEAC6
:10381000131500F0C780A4EB05044FF0004545EAFE
:10382000C12145EAC32341EA505143EA525304F10E
:103830007F74994204F500344FEAC0204FEAC22257
:1038400008BF904200F09C804FEA13650FF24016CB
:10385000765D4FEA134506FB05F7C7F1807706FB57
:1038600007F74FEAD737A7FB03687642C8F58038D9
:10387000A7FB06CE38BFA8F1010807FB08E64FF00A
:10388000000EA6FB028CE6FB03CEDCF1000CCEF1B1
:10389000004E38BFAEF1010EA6FB0C584FF00007EA
:1038A0004FF00005E6FB0E87A1FB08C6A0FB07CE84
:1038B00016EB0E0645F10005E1FB076515F1E04E3C
:1038C0007EBFA4F580345FEA46066D4116F180079D
:1038D00045F100054FEA17274FEA066647EA0567F4
:1038E000A6F1DE46B6F1805F4FEA15251FD93846AE
:1038F00024F0010C05EBC471BCF1FE6F01EB0C115F
:1039000002D8F0BCBDE8008124425CBF01F5801EF6
:103910009EEAC47F02D4F0BCBDE80081244238D4C2
:10392000F0BCA1F1C041BDE8004100F029BA4FEA66
:10393000D22242EA43524FEAD323A7FB02864FEA40
:10394000D02040EA415007FB03661EEA0E0F4FEA03
:10395000D12105FB026658BFA6EB0056B6EB005618
:103960004FEA520E4EEAC37E18EB0E0E56EB530E84
:10397000BDD518EB02085E417F1C55F10005B6E786
:103980004FF480154FF000074FF000064FF000088D
:10399000ADE7F0BC4FF0000001F1C04101F0004183
:1039A000BDE8008111EA0C1F0CEA131500D00CE0F1
:1039B00013EA0C1F00F025804FF00000F0BC81EAF4
:1039C000030101F00041BDE80081F0BCBDE8004109
:1039D00081EA030100F0D4B9F0BCBDE8004170B544
:1039E00000F080F9097EFC3E00F007B881EA03018F
:1039F0004FF0000001F00041704781EA030100F040
:103A0000BFB9F0BCBDE800414FF00000214970474C
:103A1000FFFDFBF9F7F5F4F2F0EEEDEBE9E8E6E493
:103A2000E3E1E0DEDDDBDAD8D7D5D4D3D1D0CFCD1A
:103A3000CCCBCAC8C7C6C5C4C2C1C0BFBEBDBCBB53
:103A4000BAB9B8B7B6B5B4B3B2B1B0AFAEADACAB4E
:103A5000AAA9A8A8A7A6A5A4A3A3A2A1A09F9F9E28
:103A60009D9C9C9B9A9999989797969595949393DA
:103A7000929191908F8F8E8E8D8C8C8B8B8A898971
:103A800088888787868585848483838282818180F4
:103A90000000FF070000F87F51EA030C17D41CF563
:103AA000801F58BFBCF5801F00F10680994218BFE7
:103AB000704708BF9042704707D711F5801F58BF65
:103AC00013F5801F19D499427047894270471CF53D
:103AD000801F08D5BCF5801FF7D58B4218BF7047F3
:103AE00008BF824270474FF4001C1CEB410F38BFE7
:103AF0001CEB430F01D28B42704770B500F0F2F817
:103B0000922449004FF000514FF08053FFF760BE00
:103B10004FEA1153A3F58063D3F11E03A8BFD3F17D
:103B2000200C08DB4FF0004242EAC12252EA505218
:103B300032FA03F0704709420BD4102BC4BF0020A7
:103B4000704703F5787CBCF1FF3F05D04FF0FF30A4
:103B500070474FF00000704770B500F0C3F800BF29
:103B60004992248000207047F0E7B0FA80F310FA01
:103B700003F10AD0C3F11D0303F580634FEA4150FE
:103B80004FEA035202EBD12170474FF0000070471B
:103B9000DFF848C170B51CEA111E1EBF1CEA1315E0
:103BA0009EEA0C0F95EA0C0F00F06F8081EA030487
:103BB00023EA4C134EEAD47E21EA4C1141F48011E1
:103BC00043F48013AE44A1FB024CA0FB0365AEF1AD
:103BD0007F7E361955EB0C05A1FB034C4CF100031D
:103BE000A0FB021C16EB0C06654153F100030942D1
:103BF00018BF46F0010613F4007F0BD14FEA0331E2
:103C00004FEA0530340341EA155140EA16506FF08F
:103C100003020AE04FEAC3214FEAC520F40241EA59
:103C2000555140EA56506FF0020202EB2E4201EB72
:103C3000025585EACE710AD05FEA440C18BF24F021
:103C4000004450F1000041F1000120EAD47040F23C
:103C5000FE7C624500D270BDA84214BF4FF0804484
:103C60004FF04044002E08BF0024BEF1806FA8BF73
:103C7000A1F1C041BDE8704080F282804FF00000A9
:103C800001F1C04101F0004170479EEA0C0F0CEABF
:103C9000131518BF95EA0C0F06D04FF0000081EA0B
:103CA000030E0EF0004170BD00F01CF88900013ECB
:103CB00000F007B800F009B84FEA430C5FEA5C5C1B
:103CC00008D081EA030100F05BB84FEA410C5FEADB
:103CD0005C5CF6D14FF00000014970470000FF071F
:103CE0000000F87F0EF1020E2EF0030E5EF8046B5A
:103CF000364205D4012A43EB030515F5001F12D8FF
:103D0000012841EB010C1CF5001F0CD80ED14FEA25
:103D1000D17C15F5001F0CEB4C0C0CF1020C08BF0C
:103D20004CEBD37C04E04FF0080C01E04FEAD37C6D
:103D30000CEB4C0526FA05F606F00706B6F1040C66
:103D400006D20EEB860CBDE870404CF0010C6047CB
:103D5000DFE80CF0090B02024FF000414FF00000C9
:103D6000A1F5002170BD19461046012851EB010450
:103D700018BFD4F5001484BF002001F0004170BDCD
:103D80000808A0F500114FEA3101704791EA030FCE
:103D900010B581F000413FF573AC83F0004300F0B3
:103DA00009B8000010B591EA030F48BF83F0004343
:103DB0003FF566AC841A71EB030C07D212198CF034
:103DC000004C43EB0C03001B61EB0C01DFF8A4E19A
:103DD0004FEA1154A4EB135C1EEA430F18BF9EEA8E
:103DE000445F00F0B08023EA6E03524221EA04519E
:103DF000C3EB6E0338BF5B1EDCF1200E25D322FA25
:103E00000CFE10EB0E0043FA0CFE41EB0E01CCF160
:103E1000200E03FA0EFE10EB0E0051F10001CCF162
:103E2000200E29D412FA0EF201EB0451BDE8104025
:103E300058BF7047401C1CBFB2F1004F70470028AC
:103E40000CBF491C20F00100704712EB020E43EB3F
:103E5000030218BF4FF0010E4EEA4202ACF1200CF3
:103E6000DCF11E0E54D943FA0CFE10EB0E0051F19A
:103E7000FF31CCF11E0ED5D50EF1010E12FA0EFE59
:103E8000404141EB010101EB445C5FEA5C5C10D90D
:103E900010EBDE7001EB045138BFBEF1004FBDE8FE
:103EA000104018BF704700280CBF491C20F00100CB
:103EB000704730D24FEAD42C11F5001124F400647D
:103EC0001BD0B1FA81F20B3AA41AA41ED2F120033E
:103ED000914030FA03F31943904001EBCC71002C70
:103EE00001EB0451BDE81040A8BF704701F1C0418B
:103EF0004FF0000001F000417047B0FA80F310FA73
:103F000003F100D110BDE41A173C4805C90AE4E7E3
:103F100001EB045110BD491001EB0451BDE8104004
:103F20004FEA300002E04FF0000170474A0008BF3E
:103F30000042F8D0B2F5001F28BF704701F00041E1
:103F40004FF0000070479EEA445F07D011EA5E0F11
:103F5000BDE8104004BF002100207047BDE81040BC
:103F600070B5FFF7BFFE00BF40DFF63E83F00041B3
:103F7000104670470000E0FF43004FEAD30C4FEAC1
:103F80003C0C43401FBF40070CF1605113F0FE4F43
:103F900070471CF0006F03D100200CF00041704707
:103FA0000CF0004343EA507010B540EACC0000F03A
:103FB0004BF900BF000000924FEA0001FFF7E0BE9E
:103FC0004FF000414FF00000A1F5002170470000C4
:103FD00090EA010F48BF81F0004100F18881421A48
:103FE0003CBF801A89184FEAD0524FF07F4C1CEA30
:103FF000410FA2EBD15318BF9CEA026F00F03B8047
:104000004FF0004C4CEA00204CEA012121FA03FC5D
:1040100010EB0C0C1ED202F1FF325FEA1C2040EBC9
:10402000C25038BF70471CF07F0F4FEA400C18BFDA
:10403000BCF17F4F38BF7047C3F12003994008BFE0
:1040400020F00100BCF17F4F38BF7047A0F1C040A5
:1040500000F040B94FEA3C00000A40EBC25028BFD4
:104060001CF0FF0F4FEA400CE6D018BFBCF17F4FA9
:1040700038BF7047EAE79CEA026F05D010EA5C0F90
:1040800008BF00F00040704710B500F0DDF800BF39
:1040900064FBBE3E4FF47F0C1CEAD0121EBF1CEA2C
:1040A000D11392EA0C0F93EA0C0F00F0858090EA8E
:1040B000010F48BF42F4807240F4000C41F400004C
:1040C0002CF07F4120F07F4000B58142A2EB03023B
:1040D0000FF2081CACEB504EC0F100009EF800E05F
:1040E0004FEA4E0E00FB0EFC38BF49004FEA2C1C75
:1040F00002F5FA020CFB0EF34FEACE1E4FEA112C2A
:104100004FEAC1210EEB635E42EB22420EFB0CFC38
:104110004FEA1C5300FB03114FEA112C4FEA013107
:104120000EFB0CFC4FEADC4C00FB0C11C14228BF1B
:1041300009184CEB03335DF804EB10EB410143EB42
:10414000C250B2F57C0F38BF704729D512F0F00F7E
:104150001CBF00F1C04000F0004070470081828326
:104160008485868788898B8C8D8E8F919293959686
:1041700097999A9C9D9FA0A2A3A5A7A8AAACAEB010
:10418000B2B3B5B7B9BCBEC0C2C5C7C9CCCED1D415
:10419000D7D9DCDFE2E6E9ECF0F3F7FAFE00000045
:1041A0004FEA400C0CF1807CBCF17E4F28BF704779
:1041B000B0F1C04000F08EB890EA010F0CEAD113C4
:1041C00048BF42F48072624538BF634507D213F49A
:1041D0007F0F16D080EA010000F00040704710B554
:1041E00000F032F8097EFC3E00F005B880EA0100DC
:1041F00000F00040704780EA010000F0004000F04D
:1042000069B812F47F0F04BF0248704780EA0100CA
:1042100000F060B80000C07F10F0004148BF40428D
:10422000B0FA80F310FA03F2C3F19D030BD051EA08
:10423000C35101EB1220530638BF704700F1010053
:1042400008BF20F0010070470EF1020E2EF0030EA1
:104250005EF8044B244204D44FEA4102B2F17F4F8E
:1042600011D84FEA4003B3F17F4F0CD80ED14FEA7B
:10427000D07CB2F17F4F0CEB4C0C0CF1020C08BF60
:104280004CEBD17C04E04FF0080C01E04FEAD17C0C
:104290000CEB4C0324FA03F404F00704B4F1040C0F
:1042A00006D20EEB840CBDE810404CF0010C6047C8
:1042B000DFE80CF0070802024FF00040A0F5800094
:1042C00010BD0846420018BFD2F1807288BF00F0CE
:1042D000004010BDFF2141EAD050C00570470000EA
:1042E00090EA010F48BF81F000413FF578AE421AD5
:1042F00004D882F00042A0EB020011444FEAD052F1
:104300004FF07F4C1CEA410FA2EBD15318BF9CEA3F
:10431000026F4AD04FF0004C4CEA00204CEA0121D9
:1043200021FA03FCB0EB0C0C0FD412F0FE0F36D0C8
:104330005FEA4C001DD5001240EBC25038BF7047F9
:104340001CF03F0F18BF70470BE0A2F101025FEABB
:104350001C2040EBC25038BF70471CF07F0F18BFC5
:104360007047C3F12003994014BF401E20F00100A4
:10437000704780084FEA122308BF7047B0FA80FCEC
:10438000A2EB0C02CCF1280C60FA0CF093EA122F8D
:1043900004BF00EBC25070474FEAC3707047130A66
:1043A0005FEADC1008BF7047F6E79CEA026F04D0B2
:1043B00010EA5C0F08BF0020704710B5FFF744FFFC
:1043C00040DFF63E81F000407047FCF7ACB90CF0DE
:1043D0000F03092B08BF082000F059800A2B0BD0CF
:1043E000082B18BF704708BF1CF0400F0AD04FF0D1
:1043F00000004FF0000170471CF0400F18BF4FF055
:10440000004070471CF0100F08D020F0704300F0FF
:104410007F4242EAD3014FEA4370704700F06040A8
:1044200021F07F4242EA000201F07F4040EA7270D0
:1044300070474FF0FF0C4CF4E06C1CEA11531CBFAA
:104440009CEA030C9445C2BFDA4201EB025170476B
:10445000002B0DD0BCF1000F0FD0002A01F000415D
:10446000A4BF41F0E04141F07F614FF00000704790
:1044700001F000414FF00000704750EA01334FF067
:104480009B0C18BF4CF0806C7FF49AA970471CF409
:10449000801F11D01CF4E02F03D06FEACC3149000B
:1044A00070474FF04050EFF3008222F0704242EA32
:1044B000000282F3008870474FF0000070473031EF
:1044C000323334353637383941424344454640303B
:1044D00058003031323334353637383961626364ED
:1044E000656640307800040000080000000000000D
:1044F00000020001000010004FBB610567ACDD3F0A
:10450000182D4454FB21E93F9BF681D20B73EF3FFA
:10451000182D4454FB21F93FE2652F227F2B7A3C72
:10452000075C143326A6813CBDCBF07A8807703C2B
:10453000075C143326A6913CC4EB98999999C9BF9E
:10454000711623FEC671BCBF6D9A74AFF2B0B3BFD3
:104550009AFDDE522DDEADBF2F6C6A2C44B4A2BF93
:104560000D5555555555D53FFF8300922449C23FFF
:104570006E204CC5CD45B73F513DD0A0660DB13F33
:10458000EB0D76244B7BA93F11DA22E33AAD903F45
:10459000000000000000000002400000000000A039
:1045A0000000000005400000000000C800000000FE
:1045B0000C4000000000409C00000000194000007A
:1045C0000020BCBE0000000034400000BFC91B8EAC
:1045D00000000004B5400000504BCFD06607E2CF8A
:1045E000010000006C4100003E8251AADFEEA734BA
:1045F00001000000D9420000DCB5A0E23A301F976C
:10460000FFFFFFFFB4450000FD25A0C8E9A3C14F8F
:10461000FFFFFFFFFF3F00000000008000000000E0
:10462000FF3F000000000080000000006846000816
:1046300000000020600000006C010008C84600086F
:104640006000002060060000880100081C000000D7
:1046500043000000F8FFFFFF0C0000000E00000008
:104660000F0000002E00000000A24A04000000001D
:104670000000000001020304060708090000000012
:1046800001020304010203040607080902040608E4
:10469000000000000000000005310008E5300008BF
:1046A000DB3100088734000861310008CF3400088E
:1046B000BD260008352600088D2900089D2A00081F
:0846C000ED270008752B00082E
:0400000508000131BD
:00000001FF
